{
	"budgyToken_v2.sol": {
		"BudgyToken2": {
			"abi": [
				{
					"inputs": [],
					"stateMutability": "nonpayable",
					"type": "constructor"
				},
				{
					"anonymous": false,
					"inputs": [
						{
							"indexed": true,
							"internalType": "address",
							"name": "owner",
							"type": "address"
						},
						{
							"indexed": true,
							"internalType": "address",
							"name": "spender",
							"type": "address"
						},
						{
							"indexed": false,
							"internalType": "uint256",
							"name": "value",
							"type": "uint256"
						}
					],
					"name": "Approval",
					"type": "event"
				},
				{
					"anonymous": false,
					"inputs": [
						{
							"indexed": true,
							"internalType": "address",
							"name": "from",
							"type": "address"
						},
						{
							"indexed": true,
							"internalType": "address",
							"name": "to",
							"type": "address"
						},
						{
							"indexed": false,
							"internalType": "uint256",
							"name": "value",
							"type": "uint256"
						}
					],
					"name": "Transfer",
					"type": "event"
				},
				{
					"inputs": [
						{
							"internalType": "address",
							"name": "referee",
							"type": "address"
						},
						{
							"internalType": "address",
							"name": "referred",
							"type": "address"
						}
					],
					"name": "VIPClub",
					"outputs": [
						{
							"internalType": "bool",
							"name": "",
							"type": "bool"
						}
					],
					"stateMutability": "view",
					"type": "function"
				},
				{
					"inputs": [],
					"name": "_totalSupply",
					"outputs": [
						{
							"internalType": "uint256",
							"name": "",
							"type": "uint256"
						}
					],
					"stateMutability": "view",
					"type": "function"
				},
				{
					"inputs": [
						{
							"internalType": "address",
							"name": "referee",
							"type": "address"
						},
						{
							"internalType": "address",
							"name": "referred",
							"type": "address"
						}
					],
					"name": "addBirdFriends",
					"outputs": [
						{
							"internalType": "string",
							"name": "",
							"type": "string"
						}
					],
					"stateMutability": "nonpayable",
					"type": "function"
				},
				{
					"inputs": [
						{
							"internalType": "address",
							"name": "owner",
							"type": "address"
						},
						{
							"internalType": "address",
							"name": "spender",
							"type": "address"
						}
					],
					"name": "allowance",
					"outputs": [
						{
							"internalType": "uint256",
							"name": "",
							"type": "uint256"
						}
					],
					"stateMutability": "view",
					"type": "function"
				},
				{
					"inputs": [
						{
							"internalType": "address",
							"name": "spender",
							"type": "address"
						},
						{
							"internalType": "uint256",
							"name": "value",
							"type": "uint256"
						}
					],
					"name": "approve",
					"outputs": [
						{
							"internalType": "bool",
							"name": "",
							"type": "bool"
						}
					],
					"stateMutability": "nonpayable",
					"type": "function"
				},
				{
					"inputs": [
						{
							"internalType": "address",
							"name": "owner",
							"type": "address"
						}
					],
					"name": "balanceOf",
					"outputs": [
						{
							"internalType": "uint256",
							"name": "",
							"type": "uint256"
						}
					],
					"stateMutability": "view",
					"type": "function"
				},
				{
					"inputs": [],
					"name": "decimals",
					"outputs": [
						{
							"internalType": "uint8",
							"name": "",
							"type": "uint8"
						}
					],
					"stateMutability": "view",
					"type": "function"
				},
				{
					"inputs": [
						{
							"internalType": "address",
							"name": "spender",
							"type": "address"
						},
						{
							"internalType": "uint256",
							"name": "subtractedValue",
							"type": "uint256"
						}
					],
					"name": "decreaseAllowance",
					"outputs": [
						{
							"internalType": "bool",
							"name": "",
							"type": "bool"
						}
					],
					"stateMutability": "nonpayable",
					"type": "function"
				},
				{
					"inputs": [
						{
							"internalType": "address",
							"name": "spender",
							"type": "address"
						},
						{
							"internalType": "uint256",
							"name": "addedValue",
							"type": "uint256"
						}
					],
					"name": "increaseAllowance",
					"outputs": [
						{
							"internalType": "bool",
							"name": "",
							"type": "bool"
						}
					],
					"stateMutability": "nonpayable",
					"type": "function"
				},
				{
					"inputs": [
						{
							"internalType": "address",
							"name": "_address",
							"type": "address"
						}
					],
					"name": "isUser",
					"outputs": [
						{
							"internalType": "bool",
							"name": "_isUser",
							"type": "bool"
						}
					],
					"stateMutability": "view",
					"type": "function"
				},
				{
					"inputs": [
						{
							"internalType": "address",
							"name": "to",
							"type": "address"
						},
						{
							"internalType": "uint256",
							"name": "amount",
							"type": "uint256"
						}
					],
					"name": "mint",
					"outputs": [],
					"stateMutability": "nonpayable",
					"type": "function"
				},
				{
					"inputs": [],
					"name": "name",
					"outputs": [
						{
							"internalType": "string",
							"name": "",
							"type": "string"
						}
					],
					"stateMutability": "view",
					"type": "function"
				},
				{
					"inputs": [
						{
							"internalType": "address",
							"name": "_address",
							"type": "address"
						}
					],
					"name": "newUser",
					"outputs": [
						{
							"internalType": "bool",
							"name": "success",
							"type": "bool"
						}
					],
					"stateMutability": "nonpayable",
					"type": "function"
				},
				{
					"inputs": [],
					"name": "symbol",
					"outputs": [
						{
							"internalType": "string",
							"name": "",
							"type": "string"
						}
					],
					"stateMutability": "view",
					"type": "function"
				},
				{
					"inputs": [],
					"name": "totalSupply",
					"outputs": [
						{
							"internalType": "uint256",
							"name": "",
							"type": "uint256"
						}
					],
					"stateMutability": "view",
					"type": "function"
				},
				{
					"inputs": [
						{
							"internalType": "address",
							"name": "to",
							"type": "address"
						},
						{
							"internalType": "uint256",
							"name": "value",
							"type": "uint256"
						}
					],
					"name": "transfer",
					"outputs": [
						{
							"internalType": "bool",
							"name": "",
							"type": "bool"
						}
					],
					"stateMutability": "nonpayable",
					"type": "function"
				},
				{
					"inputs": [
						{
							"internalType": "address",
							"name": "from",
							"type": "address"
						},
						{
							"internalType": "address",
							"name": "to",
							"type": "address"
						},
						{
							"internalType": "uint256",
							"name": "value",
							"type": "uint256"
						}
					],
					"name": "transferFrom",
					"outputs": [
						{
							"internalType": "bool",
							"name": "",
							"type": "bool"
						}
					],
					"stateMutability": "nonpayable",
					"type": "function"
				},
				{
					"inputs": [],
					"name": "unitsOneEthCanBuy",
					"outputs": [
						{
							"internalType": "uint256",
							"name": "",
							"type": "uint256"
						}
					],
					"stateMutability": "view",
					"type": "function"
				},
				{
					"inputs": [
						{
							"internalType": "address",
							"name": "_address",
							"type": "address"
						}
					],
					"name": "updateUserData",
					"outputs": [
						{
							"internalType": "bool",
							"name": "success",
							"type": "bool"
						}
					],
					"stateMutability": "nonpayable",
					"type": "function"
				},
				{
					"inputs": [
						{
							"internalType": "address",
							"name": "",
							"type": "address"
						}
					],
					"name": "users",
					"outputs": [
						{
							"internalType": "address",
							"name": "userData",
							"type": "address"
						},
						{
							"internalType": "bool",
							"name": "userExists",
							"type": "bool"
						}
					],
					"stateMutability": "view",
					"type": "function"
				},
				{
					"stateMutability": "payable",
					"type": "receive"
				}
			],
			"devdoc": {
				"kind": "dev",
				"methods": {},
				"version": 1
			},
			"evm": {
				"assembly": "    /* \"budgyToken_v2.sol\":348:6486  contract BudgyToken2 is IERC20 {... */\n  mstore(0x40, 0x80)\n    /* \"budgyToken_v2.sol\":615:621  10**18 */\n  0x0de0b6b3a7640000\n    /* \"budgyToken_v2.sol\":585:621  uint256 public _totalSupply = 10**18 */\n  0x00\n  sstore\n    /* \"budgyToken_v2.sol\":947:949  42 */\n  0x2a\n    /* \"budgyToken_v2.sol\":911:949  uint256 public unitsOneEthCanBuy  = 42 */\n  0x01\n  sstore\n    /* \"budgyToken_v2.sol\":1154:1514  constructor () {... */\n  callvalue\n  dup1\n  iszero\n  tag_1\n  jumpi\n  0x00\n  dup1\n  revert\ntag_1:\n  pop\n    /* \"budgyToken_v2.sol\":1189:1199  msg.sender */\n  caller\n    /* \"budgyToken_v2.sol\":1176:1186  tokenOwner */\n  0x05\n  0x00\n    /* \"budgyToken_v2.sol\":1176:1199  tokenOwner = msg.sender */\n  0x0100\n  exp\n  dup2\n  sload\n  dup2\n  0xffffffffffffffffffffffffffffffffffffffff\n  mul\n  not\n  and\n  swap1\n  dup4\n  0xffffffffffffffffffffffffffffffffffffffff\n  and\n  mul\n  or\n  swap1\n  sstore\n  pop\n    /* \"budgyToken_v2.sol\":1232:1244  _totalSupply */\n  sload(0x00)\n    /* \"budgyToken_v2.sol\":1208:1217  _balances */\n  0x03\n    /* \"budgyToken_v2.sol\":1208:1229  _balances[tokenOwner] */\n  0x00\n    /* \"budgyToken_v2.sol\":1218:1228  tokenOwner */\n  0x05\n  0x00\n  swap1\n  sload\n  swap1\n  0x0100\n  exp\n  swap1\n  div\n  0xffffffffffffffffffffffffffffffffffffffff\n  and\n    /* \"budgyToken_v2.sol\":1208:1229  _balances[tokenOwner] */\n  0xffffffffffffffffffffffffffffffffffffffff\n  and\n  0xffffffffffffffffffffffffffffffffffffffff\n  and\n  dup2\n  mstore\n  0x20\n  add\n  swap1\n  dup2\n  mstore\n  0x20\n  add\n  0x00\n  keccak256\n    /* \"budgyToken_v2.sol\":1208:1244  _balances[tokenOwner] = _totalSupply */\n  dup2\n  swap1\n  sstore\n  pop\n    /* \"budgyToken_v2.sol\":1383:1393  tokenOwner */\n  0x05\n  0x00\n  swap1\n  sload\n  swap1\n  0x0100\n  exp\n  swap1\n  div\n  0xffffffffffffffffffffffffffffffffffffffff\n  and\n    /* \"budgyToken_v2.sol\":1362:1409  Transfer(address(0), tokenOwner , _totalSupply) */\n  0xffffffffffffffffffffffffffffffffffffffff\n  and\n    /* \"budgyToken_v2.sol\":1379:1380  0 */\n  0x00\n    /* \"budgyToken_v2.sol\":1362:1409  Transfer(address(0), tokenOwner , _totalSupply) */\n  0xffffffffffffffffffffffffffffffffffffffff\n  and\n  0xddf252ad1be2c89b69c2b068fc378daa952ba7f163c4a11628f55a4df523b3ef\n    /* \"budgyToken_v2.sol\":1396:1408  _totalSupply */\n  sload(0x00)\n    /* \"budgyToken_v2.sol\":1362:1409  Transfer(address(0), tokenOwner , _totalSupply) */\n  mload(0x40)\n  tag_4\n  swap2\n  swap1\n  tag_5\n  jump\t// in\ntag_4:\n  mload(0x40)\n  dup1\n  swap2\n  sub\n  swap1\n  log3\n    /* \"budgyToken_v2.sol\":1416:1427  bool addNew */\n  0x00\n    /* \"budgyToken_v2.sol\":1430:1449  newUser(tokenOwner) */\n  tag_6\n    /* \"budgyToken_v2.sol\":1438:1448  tokenOwner */\n  0x05\n  0x00\n  swap1\n  sload\n  swap1\n  0x0100\n  exp\n  swap1\n  div\n  0xffffffffffffffffffffffffffffffffffffffff\n  and\n    /* \"budgyToken_v2.sol\":1430:1437  newUser */\n  shl(0x20, tag_7)\n    /* \"budgyToken_v2.sol\":1430:1449  newUser(tokenOwner) */\n  0x20\n  shr\n  jump\t// in\ntag_6:\n    /* \"budgyToken_v2.sol\":1416:1449  bool addNew = newUser(tokenOwner) */\n  swap1\n  pop\n    /* \"budgyToken_v2.sol\":1459:1465  addNew */\n  dup1\n    /* \"budgyToken_v2.sol\":1456:1509  if(addNew){... */\n  iszero\n  tag_8\n  jumpi\n    /* \"budgyToken_v2.sol\":1475:1501  updateUserData(tokenOwner) */\n  tag_9\n    /* \"budgyToken_v2.sol\":1490:1500  tokenOwner */\n  0x05\n  0x00\n  swap1\n  sload\n  swap1\n  0x0100\n  exp\n  swap1\n  div\n  0xffffffffffffffffffffffffffffffffffffffff\n  and\n    /* \"budgyToken_v2.sol\":1475:1489  updateUserData */\n  shl(0x20, tag_10)\n    /* \"budgyToken_v2.sol\":1475:1501  updateUserData(tokenOwner) */\n  0x20\n  shr\n  jump\t// in\ntag_9:\n  pop\n    /* \"budgyToken_v2.sol\":1456:1509  if(addNew){... */\ntag_8:\n    /* \"budgyToken_v2.sol\":1169:1514  {... */\n  pop\n    /* \"budgyToken_v2.sol\":348:6486  contract BudgyToken2 is IERC20 {... */\n  jump(tag_11)\n    /* \"budgyToken_v2.sol\":2090:2387  function newUser(address _address) public returns(bool success) {... */\ntag_7:\n    /* \"budgyToken_v2.sol\":2140:2152  bool success */\n  0x00\n    /* \"budgyToken_v2.sol\":2238:2254  isUser(_address) */\n  tag_13\n    /* \"budgyToken_v2.sol\":2245:2253  _address */\n  dup3\n    /* \"budgyToken_v2.sol\":2238:2244  isUser */\n  shl(0x20, tag_14)\n    /* \"budgyToken_v2.sol\":2238:2254  isUser(_address) */\n  0x20\n  shr\n  jump\t// in\ntag_13:\n    /* \"budgyToken_v2.sol\":2237:2254  !isUser(_address) */\n  iszero\n    /* \"budgyToken_v2.sol\":2237:2280  !isUser(_address) && _address != address(0) */\n  dup1\n  iszero\n  tag_15\n  jumpi\n  pop\n    /* \"budgyToken_v2.sol\":2278:2279  0 */\n  0x00\n    /* \"budgyToken_v2.sol\":2258:2280  _address != address(0) */\n  0xffffffffffffffffffffffffffffffffffffffff\n  and\n    /* \"budgyToken_v2.sol\":2258:2266  _address */\n  dup3\n    /* \"budgyToken_v2.sol\":2258:2280  _address != address(0) */\n  0xffffffffffffffffffffffffffffffffffffffff\n  and\n  eq\n  iszero\n    /* \"budgyToken_v2.sol\":2237:2280  !isUser(_address) && _address != address(0) */\ntag_15:\n    /* \"budgyToken_v2.sol\":2229:2281  require(!isUser(_address) && _address != address(0)) */\n  tag_16\n  jumpi\n  0x00\n  dup1\n  revert\ntag_16:\n    /* \"budgyToken_v2.sol\":2315:2323  _address */\n  dup2\n    /* \"budgyToken_v2.sol\":2288:2293  users */\n  0x02\n    /* \"budgyToken_v2.sol\":2288:2303  users[_address] */\n  0x00\n    /* \"budgyToken_v2.sol\":2294:2302  _address */\n  dup5\n    /* \"budgyToken_v2.sol\":2288:2303  users[_address] */\n  0xffffffffffffffffffffffffffffffffffffffff\n  and\n  0xffffffffffffffffffffffffffffffffffffffff\n  and\n  dup2\n  mstore\n  0x20\n  add\n  swap1\n  dup2\n  mstore\n  0x20\n  add\n  0x00\n  keccak256\n    /* \"budgyToken_v2.sol\":2288:2312  users[_address].userData */\n  0x00\n  add\n  0x00\n    /* \"budgyToken_v2.sol\":2288:2323  users[_address].userData = _address */\n  0x0100\n  exp\n  dup2\n  sload\n  dup2\n  0xffffffffffffffffffffffffffffffffffffffff\n  mul\n  not\n  and\n  swap1\n  dup4\n  0xffffffffffffffffffffffffffffffffffffffff\n  and\n  mul\n  or\n  swap1\n  sstore\n  pop\n    /* \"budgyToken_v2.sol\":2359:2363  true */\n  0x01\n    /* \"budgyToken_v2.sol\":2330:2335  users */\n  0x02\n    /* \"budgyToken_v2.sol\":2330:2345  users[_address] */\n  0x00\n    /* \"budgyToken_v2.sol\":2336:2344  _address */\n  dup5\n    /* \"budgyToken_v2.sol\":2330:2345  users[_address] */\n  0xffffffffffffffffffffffffffffffffffffffff\n  and\n  0xffffffffffffffffffffffffffffffffffffffff\n  and\n  dup2\n  mstore\n  0x20\n  add\n  swap1\n  dup2\n  mstore\n  0x20\n  add\n  0x00\n  keccak256\n    /* \"budgyToken_v2.sol\":2330:2356  users[_address].userExists */\n  0x00\n  add\n  0x14\n    /* \"budgyToken_v2.sol\":2330:2363  users[_address].userExists = true */\n  0x0100\n  exp\n  dup2\n  sload\n  dup2\n  0xff\n  mul\n  not\n  and\n  swap1\n  dup4\n  iszero\n  iszero\n  mul\n  or\n  swap1\n  sstore\n  pop\n    /* \"budgyToken_v2.sol\":2377:2381  true */\n  0x01\n    /* \"budgyToken_v2.sol\":2370:2381  return true */\n  swap1\n  pop\n    /* \"budgyToken_v2.sol\":2090:2387  function newUser(address _address) public returns(bool success) {... */\n  swap2\n  swap1\n  pop\n  jump\t// out\n    /* \"budgyToken_v2.sol\":2393:2562  function updateUserData(address _address) public returns(bool success) {... */\ntag_10:\n    /* \"budgyToken_v2.sol\":2450:2462  bool success */\n  0x00\n    /* \"budgyToken_v2.sol\":2479:2495  isUser(_address) */\n  tag_18\n    /* \"budgyToken_v2.sol\":2486:2494  _address */\n  dup3\n    /* \"budgyToken_v2.sol\":2479:2485  isUser */\n  shl(0x20, tag_14)\n    /* \"budgyToken_v2.sol\":2479:2495  isUser(_address) */\n  0x20\n  shr\n  jump\t// in\ntag_18:\n    /* \"budgyToken_v2.sol\":2471:2496  require(isUser(_address)) */\n  tag_19\n  jumpi\n  0x00\n  dup1\n  revert\ntag_19:\n    /* \"budgyToken_v2.sol\":2530:2538  _address */\n  dup2\n    /* \"budgyToken_v2.sol\":2503:2508  users */\n  0x02\n    /* \"budgyToken_v2.sol\":2503:2518  users[_address] */\n  0x00\n    /* \"budgyToken_v2.sol\":2509:2517  _address */\n  dup5\n    /* \"budgyToken_v2.sol\":2503:2518  users[_address] */\n  0xffffffffffffffffffffffffffffffffffffffff\n  and\n  0xffffffffffffffffffffffffffffffffffffffff\n  and\n  dup2\n  mstore\n  0x20\n  add\n  swap1\n  dup2\n  mstore\n  0x20\n  add\n  0x00\n  keccak256\n    /* \"budgyToken_v2.sol\":2503:2527  users[_address].userData */\n  0x00\n  add\n  0x00\n    /* \"budgyToken_v2.sol\":2503:2538  users[_address].userData = _address */\n  0x0100\n  exp\n  dup2\n  sload\n  dup2\n  0xffffffffffffffffffffffffffffffffffffffff\n  mul\n  not\n  and\n  swap1\n  dup4\n  0xffffffffffffffffffffffffffffffffffffffff\n  and\n  mul\n  or\n  swap1\n  sstore\n  pop\n    /* \"budgyToken_v2.sol\":2552:2556  true */\n  0x01\n    /* \"budgyToken_v2.sol\":2545:2556  return true */\n  swap1\n  pop\n    /* \"budgyToken_v2.sol\":2393:2562  function updateUserData(address _address) public returns(bool success) {... */\n  swap2\n  swap1\n  pop\n  jump\t// out\n    /* \"budgyToken_v2.sol\":1970:2084  function isUser(address _address) public view returns(bool _isUser) {... */\ntag_14:\n    /* \"budgyToken_v2.sol\":2024:2036  bool _isUser */\n  0x00\n    /* \"budgyToken_v2.sol\":2052:2057  users */\n  0x02\n    /* \"budgyToken_v2.sol\":2052:2067  users[_address] */\n  0x00\n    /* \"budgyToken_v2.sol\":2058:2066  _address */\n  dup4\n    /* \"budgyToken_v2.sol\":2052:2067  users[_address] */\n  0xffffffffffffffffffffffffffffffffffffffff\n  and\n  0xffffffffffffffffffffffffffffffffffffffff\n  and\n  dup2\n  mstore\n  0x20\n  add\n  swap1\n  dup2\n  mstore\n  0x20\n  add\n  0x00\n  keccak256\n    /* \"budgyToken_v2.sol\":2052:2078  users[_address].userExists */\n  0x00\n  add\n  0x14\n  swap1\n  sload\n  swap1\n  0x0100\n  exp\n  swap1\n  div\n  0xff\n  and\n    /* \"budgyToken_v2.sol\":2045:2078  return users[_address].userExists */\n  swap1\n  pop\n    /* \"budgyToken_v2.sol\":1970:2084  function isUser(address _address) public view returns(bool _isUser) {... */\n  swap2\n  swap1\n  pop\n  jump\t// out\n    /* \"#utility.yul\":7:84   */\ntag_21:\n    /* \"#utility.yul\":44:51   */\n  0x00\n    /* \"#utility.yul\":73:78   */\n  dup2\n    /* \"#utility.yul\":62:78   */\n  swap1\n  pop\n    /* \"#utility.yul\":7:84   */\n  swap2\n  swap1\n  pop\n  jump\t// out\n    /* \"#utility.yul\":90:208   */\ntag_22:\n    /* \"#utility.yul\":177:201   */\n  tag_26\n    /* \"#utility.yul\":195:200   */\n  dup2\n    /* \"#utility.yul\":177:201   */\n  tag_21\n  jump\t// in\ntag_26:\n    /* \"#utility.yul\":172:175   */\n  dup3\n    /* \"#utility.yul\":165:202   */\n  mstore\n    /* \"#utility.yul\":90:208   */\n  pop\n  pop\n  jump\t// out\n    /* \"#utility.yul\":214:436   */\ntag_5:\n    /* \"#utility.yul\":307:311   */\n  0x00\n    /* \"#utility.yul\":345:347   */\n  0x20\n    /* \"#utility.yul\":334:343   */\n  dup3\n    /* \"#utility.yul\":330:348   */\n  add\n    /* \"#utility.yul\":322:348   */\n  swap1\n  pop\n    /* \"#utility.yul\":358:429   */\n  tag_28\n    /* \"#utility.yul\":426:427   */\n  0x00\n    /* \"#utility.yul\":415:424   */\n  dup4\n    /* \"#utility.yul\":411:428   */\n  add\n    /* \"#utility.yul\":402:408   */\n  dup5\n    /* \"#utility.yul\":358:429   */\n  tag_22\n  jump\t// in\ntag_28:\n    /* \"#utility.yul\":214:436   */\n  swap3\n  swap2\n  pop\n  pop\n  jump\t// out\n    /* \"budgyToken_v2.sol\":348:6486  contract BudgyToken2 is IERC20 {... */\ntag_11:\n  dataSize(sub_0)\n  dup1\n  dataOffset(sub_0)\n  0x00\n  codecopy\n  0x00\n  return\nstop\n\nsub_0: assembly {\n        /* \"budgyToken_v2.sol\":348:6486  contract BudgyToken2 is IERC20 {... */\n      mstore(0x40, 0x80)\n      jumpi(tag_1, lt(calldatasize, 0x04))\n      shr(0xe0, calldataload(0x00))\n      dup1\n      0x4209fff1\n      gt\n      tag_23\n      jumpi\n      dup1\n      0x95d89b41\n      gt\n      tag_24\n      jumpi\n      dup1\n      0x95d89b41\n      eq\n      tag_18\n      jumpi\n      dup1\n      0xa457c2d7\n      eq\n      tag_19\n      jumpi\n      dup1\n      0xa87430ba\n      eq\n      tag_20\n      jumpi\n      dup1\n      0xa9059cbb\n      eq\n      tag_21\n      jumpi\n      dup1\n      0xdd62ed3e\n      eq\n      tag_22\n      jumpi\n      jump(tag_2)\n    tag_24:\n      dup1\n      0x4209fff1\n      eq\n      tag_13\n      jumpi\n      dup1\n      0x4d8fbb96\n      eq\n      tag_14\n      jumpi\n      dup1\n      0x58326223\n      eq\n      tag_15\n      jumpi\n      dup1\n      0x65f2bc2e\n      eq\n      tag_16\n      jumpi\n      dup1\n      0x70a08231\n      eq\n      tag_17\n      jumpi\n      jump(tag_2)\n    tag_23:\n      dup1\n      0x29e974e8\n      gt\n      tag_25\n      jumpi\n      dup1\n      0x29e974e8\n      eq\n      tag_8\n      jumpi\n      dup1\n      0x313ce567\n      eq\n      tag_9\n      jumpi\n      dup1\n      0x39509351\n      eq\n      tag_10\n      jumpi\n      dup1\n      0x3eaaf86b\n      eq\n      tag_11\n      jumpi\n      dup1\n      0x40c10f19\n      eq\n      tag_12\n      jumpi\n      jump(tag_2)\n    tag_25:\n      dup1\n      0x06fdde03\n      eq\n      tag_3\n      jumpi\n      dup1\n      0x095ea7b3\n      eq\n      tag_4\n      jumpi\n      dup1\n      0x0cb5f653\n      eq\n      tag_5\n      jumpi\n      dup1\n      0x18160ddd\n      eq\n      tag_6\n      jumpi\n      dup1\n      0x23b872dd\n      eq\n      tag_7\n      jumpi\n      jump(tag_2)\n    tag_1:\n      jumpi(tag_2, calldatasize)\n        /* \"budgyToken_v2.sol\":1671:1685  uint256 amount */\n      0x00\n        /* \"budgyToken_v2.sol\":1700:1717  unitsOneEthCanBuy */\n      sload(0x01)\n        /* \"budgyToken_v2.sol\":1688:1697  msg.value */\n      callvalue\n        /* \"budgyToken_v2.sol\":1688:1717  msg.value * unitsOneEthCanBuy */\n      tag_28\n      swap2\n      swap1\n      tag_29\n      jump\t// in\n    tag_28:\n        /* \"budgyToken_v2.sol\":1671:1717  uint256 amount = msg.value * unitsOneEthCanBuy */\n      swap1\n      pop\n        /* \"budgyToken_v2.sol\":1763:1769  amount */\n      dup1\n        /* \"budgyToken_v2.sol\":1738:1759  balanceOf(tokenOwner) */\n      tag_30\n        /* \"budgyToken_v2.sol\":1748:1758  tokenOwner */\n      0x05\n      0x00\n      swap1\n      sload\n      swap1\n      0x0100\n      exp\n      swap1\n      div\n      0xffffffffffffffffffffffffffffffffffffffff\n      and\n        /* \"budgyToken_v2.sol\":1738:1747  balanceOf */\n      tag_31\n        /* \"budgyToken_v2.sol\":1738:1759  balanceOf(tokenOwner) */\n      jump\t// in\n    tag_30:\n        /* \"budgyToken_v2.sol\":1738:1769  balanceOf(tokenOwner) >= amount */\n      lt\n      iszero\n        /* \"budgyToken_v2.sol\":1730:1801  require(balanceOf(tokenOwner) >= amount, ... */\n      tag_32\n      jumpi\n      mload(0x40)\n      0x08c379a000000000000000000000000000000000000000000000000000000000\n      dup2\n      mstore\n      0x04\n      add\n      tag_33\n      swap1\n      tag_34\n      jump\t// in\n    tag_33:\n      mload(0x40)\n      dup1\n      swap2\n      sub\n      swap1\n      revert\n    tag_32:\n        /* \"budgyToken_v2.sol\":1810:1851  _transfer(tokenOwner, msg.sender, amount) */\n      tag_35\n        /* \"budgyToken_v2.sol\":1820:1830  tokenOwner */\n      0x05\n      0x00\n      swap1\n      sload\n      swap1\n      0x0100\n      exp\n      swap1\n      div\n      0xffffffffffffffffffffffffffffffffffffffff\n      and\n        /* \"budgyToken_v2.sol\":1832:1842  msg.sender */\n      caller\n        /* \"budgyToken_v2.sol\":1844:1850  amount */\n      dup4\n        /* \"budgyToken_v2.sol\":1810:1819  _transfer */\n      tag_36\n        /* \"budgyToken_v2.sol\":1810:1851  _transfer(tokenOwner, msg.sender, amount) */\n      jump\t// in\n    tag_35:\n        /* \"budgyToken_v2.sol\":1891:1901  msg.sender */\n      caller\n        /* \"budgyToken_v2.sol\":1870:1910  Transfer(tokenOwner, msg.sender, amount) */\n      0xffffffffffffffffffffffffffffffffffffffff\n      and\n        /* \"budgyToken_v2.sol\":1879:1889  tokenOwner */\n      0x05\n      0x00\n      swap1\n      sload\n      swap1\n      0x0100\n      exp\n      swap1\n      div\n      0xffffffffffffffffffffffffffffffffffffffff\n      and\n        /* \"budgyToken_v2.sol\":1870:1910  Transfer(tokenOwner, msg.sender, amount) */\n      0xffffffffffffffffffffffffffffffffffffffff\n      and\n      0xddf252ad1be2c89b69c2b068fc378daa952ba7f163c4a11628f55a4df523b3ef\n        /* \"budgyToken_v2.sol\":1903:1909  amount */\n      dup4\n        /* \"budgyToken_v2.sol\":1870:1910  Transfer(tokenOwner, msg.sender, amount) */\n      mload(0x40)\n      tag_37\n      swap2\n      swap1\n      tag_38\n      jump\t// in\n    tag_37:\n      mload(0x40)\n      dup1\n      swap2\n      sub\n      swap1\n      log3\n        /* \"budgyToken_v2.sol\":1927:1937  tokenOwner */\n      0x05\n      0x00\n      swap1\n      sload\n      swap1\n      0x0100\n      exp\n      swap1\n      div\n      0xffffffffffffffffffffffffffffffffffffffff\n      and\n        /* \"budgyToken_v2.sol\":1919:1947  payable(tokenOwner).transfer */\n      0xffffffffffffffffffffffffffffffffffffffff\n      and\n        /* \"budgyToken_v2.sol\":1919:1958  payable(tokenOwner).transfer(msg.value) */\n      0x08fc\n        /* \"budgyToken_v2.sol\":1948:1957  msg.value */\n      callvalue\n        /* \"budgyToken_v2.sol\":1919:1958  payable(tokenOwner).transfer(msg.value) */\n      swap1\n      dup2\n      iszero\n      mul\n      swap1\n      mload(0x40)\n      0x00\n      mload(0x40)\n      dup1\n      dup4\n      sub\n      dup2\n      dup6\n      dup9\n      dup9\n      call\n      swap4\n      pop\n      pop\n      pop\n      pop\n      iszero\n      dup1\n      iszero\n      tag_40\n      jumpi\n      returndatasize\n      0x00\n      dup1\n      returndatacopy\n      revert(0x00, returndatasize)\n    tag_40:\n      stop\n        /* \"budgyToken_v2.sol\":348:6486  contract BudgyToken2 is IERC20 {... */\n    tag_2:\n      0x00\n      dup1\n      revert\n        /* \"budgyToken_v2.sol\":626:680  string public override constant name = 'Budgy Token 2' */\n    tag_3:\n      callvalue\n      dup1\n      iszero\n      tag_41\n      jumpi\n      0x00\n      dup1\n      revert\n    tag_41:\n      pop\n      tag_42\n      tag_43\n      jump\t// in\n    tag_42:\n      mload(0x40)\n      tag_44\n      swap2\n      swap1\n      tag_45\n      jump\t// in\n    tag_44:\n      mload(0x40)\n      dup1\n      swap2\n      sub\n      swap1\n      return\n        /* \"budgyToken_v2.sol\":3847:4080  function approve(address spender, uint256 value) public override returns (bool) {... */\n    tag_4:\n      callvalue\n      dup1\n      iszero\n      tag_46\n      jumpi\n      0x00\n      dup1\n      revert\n    tag_46:\n      pop\n      tag_47\n      0x04\n      dup1\n      calldatasize\n      sub\n      dup2\n      add\n      swap1\n      tag_48\n      swap2\n      swap1\n      tag_49\n      jump\t// in\n    tag_48:\n      tag_50\n      jump\t// in\n    tag_47:\n      mload(0x40)\n      tag_51\n      swap2\n      swap1\n      tag_52\n      jump\t// in\n    tag_51:\n      mload(0x40)\n      dup1\n      swap2\n      sub\n      swap1\n      return\n        /* \"budgyToken_v2.sol\":2090:2387  function newUser(address _address) public returns(bool success) {... */\n    tag_5:\n      callvalue\n      dup1\n      iszero\n      tag_53\n      jumpi\n      0x00\n      dup1\n      revert\n    tag_53:\n      pop\n      tag_54\n      0x04\n      dup1\n      calldatasize\n      sub\n      dup2\n      add\n      swap1\n      tag_55\n      swap2\n      swap1\n      tag_56\n      jump\t// in\n    tag_55:\n      tag_57\n      jump\t// in\n    tag_54:\n      mload(0x40)\n      tag_58\n      swap2\n      swap1\n      tag_52\n      jump\t// in\n    tag_58:\n      mload(0x40)\n      dup1\n      swap2\n      sub\n      swap1\n      return\n        /* \"budgyToken_v2.sol\":2570:2666  function totalSupply() external override view returns (uint256) {... */\n    tag_6:\n      callvalue\n      dup1\n      iszero\n      tag_59\n      jumpi\n      0x00\n      dup1\n      revert\n    tag_59:\n      pop\n      tag_60\n      tag_61\n      jump\t// in\n    tag_60:\n      mload(0x40)\n      tag_62\n      swap2\n      swap1\n      tag_38\n      jump\t// in\n    tag_62:\n      mload(0x40)\n      dup1\n      swap2\n      sub\n      swap1\n      return\n        /* \"budgyToken_v2.sol\":4385:4814  function transferFrom(address from, address to, uint256 value) public override returns (bool){... */\n    tag_7:\n      callvalue\n      dup1\n      iszero\n      tag_63\n      jumpi\n      0x00\n      dup1\n      revert\n    tag_63:\n      pop\n      tag_64\n      0x04\n      dup1\n      calldatasize\n      sub\n      dup2\n      add\n      swap1\n      tag_65\n      swap2\n      swap1\n      tag_66\n      jump\t// in\n    tag_65:\n      tag_67\n      jump\t// in\n    tag_64:\n      mload(0x40)\n      tag_68\n      swap2\n      swap1\n      tag_52\n      jump\t// in\n    tag_68:\n      mload(0x40)\n      dup1\n      swap2\n      sub\n      swap1\n      return\n        /* \"budgyToken_v2.sol\":2393:2562  function updateUserData(address _address) public returns(bool success) {... */\n    tag_8:\n      callvalue\n      dup1\n      iszero\n      tag_69\n      jumpi\n      0x00\n      dup1\n      revert\n    tag_69:\n      pop\n      tag_70\n      0x04\n      dup1\n      calldatasize\n      sub\n      dup2\n      add\n      swap1\n      tag_71\n      swap2\n      swap1\n      tag_56\n      jump\t// in\n    tag_71:\n      tag_72\n      jump\t// in\n    tag_70:\n      mload(0x40)\n      tag_73\n      swap2\n      swap1\n      tag_52\n      jump\t// in\n    tag_73:\n      mload(0x40)\n      dup1\n      swap2\n      sub\n      swap1\n      return\n        /* \"budgyToken_v2.sol\":685:729  uint8 public override constant decimals = 10 */\n    tag_9:\n      callvalue\n      dup1\n      iszero\n      tag_74\n      jumpi\n      0x00\n      dup1\n      revert\n    tag_74:\n      pop\n      tag_75\n      tag_76\n      jump\t// in\n    tag_75:\n      mload(0x40)\n      tag_77\n      swap2\n      swap1\n      tag_78\n      jump\t// in\n    tag_77:\n      mload(0x40)\n      dup1\n      swap2\n      sub\n      swap1\n      return\n        /* \"budgyToken_v2.sol\":4820:5136  function increaseAllowance( address spender, uint256 addedValue ) public returns (bool){... */\n    tag_10:\n      callvalue\n      dup1\n      iszero\n      tag_79\n      jumpi\n      0x00\n      dup1\n      revert\n    tag_79:\n      pop\n      tag_80\n      0x04\n      dup1\n      calldatasize\n      sub\n      dup2\n      add\n      swap1\n      tag_81\n      swap2\n      swap1\n      tag_49\n      jump\t// in\n    tag_81:\n      tag_82\n      jump\t// in\n    tag_80:\n      mload(0x40)\n      tag_83\n      swap2\n      swap1\n      tag_52\n      jump\t// in\n    tag_83:\n      mload(0x40)\n      dup1\n      swap2\n      sub\n      swap1\n      return\n        /* \"budgyToken_v2.sol\":585:621  uint256 public _totalSupply = 10**18 */\n    tag_11:\n      callvalue\n      dup1\n      iszero\n      tag_84\n      jumpi\n      0x00\n      dup1\n      revert\n    tag_84:\n      pop\n      tag_85\n      tag_86\n      jump\t// in\n    tag_85:\n      mload(0x40)\n      tag_87\n      swap2\n      swap1\n      tag_38\n      jump\t// in\n    tag_87:\n      mload(0x40)\n      dup1\n      swap2\n      sub\n      swap1\n      return\n        /* \"budgyToken_v2.sol\":5471:5825  function mint(address to, uint256 amount) public {... */\n    tag_12:\n      callvalue\n      dup1\n      iszero\n      tag_88\n      jumpi\n      0x00\n      dup1\n      revert\n    tag_88:\n      pop\n      tag_89\n      0x04\n      dup1\n      calldatasize\n      sub\n      dup2\n      add\n      swap1\n      tag_90\n      swap2\n      swap1\n      tag_49\n      jump\t// in\n    tag_90:\n      tag_91\n      jump\t// in\n    tag_89:\n      stop\n        /* \"budgyToken_v2.sol\":1970:2084  function isUser(address _address) public view returns(bool _isUser) {... */\n    tag_13:\n      callvalue\n      dup1\n      iszero\n      tag_92\n      jumpi\n      0x00\n      dup1\n      revert\n    tag_92:\n      pop\n      tag_93\n      0x04\n      dup1\n      calldatasize\n      sub\n      dup2\n      add\n      swap1\n      tag_94\n      swap2\n      swap1\n      tag_56\n      jump\t// in\n    tag_94:\n      tag_95\n      jump\t// in\n    tag_93:\n      mload(0x40)\n      tag_96\n      swap2\n      swap1\n      tag_52\n      jump\t// in\n    tag_96:\n      mload(0x40)\n      dup1\n      swap2\n      sub\n      swap1\n      return\n        /* \"budgyToken_v2.sol\":5835:6066  function VIPClub(address referee, address referred)public view returns(bool){... */\n    tag_14:\n      callvalue\n      dup1\n      iszero\n      tag_97\n      jumpi\n      0x00\n      dup1\n      revert\n    tag_97:\n      pop\n      tag_98\n      0x04\n      dup1\n      calldatasize\n      sub\n      dup2\n      add\n      swap1\n      tag_99\n      swap2\n      swap1\n      tag_100\n      jump\t// in\n    tag_99:\n      tag_101\n      jump\t// in\n    tag_98:\n      mload(0x40)\n      tag_102\n      swap2\n      swap1\n      tag_52\n      jump\t// in\n    tag_102:\n      mload(0x40)\n      dup1\n      swap2\n      sub\n      swap1\n      return\n        /* \"budgyToken_v2.sol\":6072:6481  function addBirdFriends(address referee, address referred) public returns(string memory){... */\n    tag_15:\n      callvalue\n      dup1\n      iszero\n      tag_103\n      jumpi\n      0x00\n      dup1\n      revert\n    tag_103:\n      pop\n      tag_104\n      0x04\n      dup1\n      calldatasize\n      sub\n      dup2\n      add\n      swap1\n      tag_105\n      swap2\n      swap1\n      tag_100\n      jump\t// in\n    tag_105:\n      tag_106\n      jump\t// in\n    tag_104:\n      mload(0x40)\n      tag_107\n      swap2\n      swap1\n      tag_45\n      jump\t// in\n    tag_107:\n      mload(0x40)\n      dup1\n      swap2\n      sub\n      swap1\n      return\n        /* \"budgyToken_v2.sol\":911:949  uint256 public unitsOneEthCanBuy  = 42 */\n    tag_16:\n      callvalue\n      dup1\n      iszero\n      tag_108\n      jumpi\n      0x00\n      dup1\n      revert\n    tag_108:\n      pop\n      tag_109\n      tag_110\n      jump\t// in\n    tag_109:\n      mload(0x40)\n      tag_111\n      swap2\n      swap1\n      tag_38\n      jump\t// in\n    tag_111:\n      mload(0x40)\n      dup1\n      swap2\n      sub\n      swap1\n      return\n        /* \"budgyToken_v2.sol\":2672:2781  function balanceOf(address owner) public override view returns (uint256) {... */\n    tag_17:\n      callvalue\n      dup1\n      iszero\n      tag_112\n      jumpi\n      0x00\n      dup1\n      revert\n    tag_112:\n      pop\n      tag_113\n      0x04\n      dup1\n      calldatasize\n      sub\n      dup2\n      add\n      swap1\n      tag_114\n      swap2\n      swap1\n      tag_56\n      jump\t// in\n    tag_114:\n      tag_31\n      jump\t// in\n    tag_113:\n      mload(0x40)\n      tag_115\n      swap2\n      swap1\n      tag_38\n      jump\t// in\n    tag_115:\n      mload(0x40)\n      dup1\n      swap2\n      sub\n      swap1\n      return\n        /* \"budgyToken_v2.sol\":734:782  string public override constant symbol = 'BDGY2' */\n    tag_18:\n      callvalue\n      dup1\n      iszero\n      tag_116\n      jumpi\n      0x00\n      dup1\n      revert\n    tag_116:\n      pop\n      tag_117\n      tag_118\n      jump\t// in\n    tag_117:\n      mload(0x40)\n      tag_119\n      swap2\n      swap1\n      tag_45\n      jump\t// in\n    tag_119:\n      mload(0x40)\n      dup1\n      swap2\n      sub\n      swap1\n      return\n        /* \"budgyToken_v2.sol\":5142:5465  function decreaseAllowance(address spender,uint256 subtractedValue) public returns (bool){... */\n    tag_19:\n      callvalue\n      dup1\n      iszero\n      tag_120\n      jumpi\n      0x00\n      dup1\n      revert\n    tag_120:\n      pop\n      tag_121\n      0x04\n      dup1\n      calldatasize\n      sub\n      dup2\n      add\n      swap1\n      tag_122\n      swap2\n      swap1\n      tag_49\n      jump\t// in\n    tag_122:\n      tag_123\n      jump\t// in\n    tag_121:\n      mload(0x40)\n      tag_124\n      swap2\n      swap1\n      tag_52\n      jump\t// in\n    tag_124:\n      mload(0x40)\n      dup1\n      swap2\n      sub\n      swap1\n      return\n        /* \"budgyToken_v2.sol\":956:994  mapping (address => User) public users */\n    tag_20:\n      callvalue\n      dup1\n      iszero\n      tag_125\n      jumpi\n      0x00\n      dup1\n      revert\n    tag_125:\n      pop\n      tag_126\n      0x04\n      dup1\n      calldatasize\n      sub\n      dup2\n      add\n      swap1\n      tag_127\n      swap2\n      swap1\n      tag_56\n      jump\t// in\n    tag_127:\n      tag_128\n      jump\t// in\n    tag_126:\n      mload(0x40)\n      tag_129\n      swap3\n      swap2\n      swap1\n      tag_130\n      jump\t// in\n    tag_129:\n      mload(0x40)\n      dup1\n      swap2\n      sub\n      swap1\n      return\n        /* \"budgyToken_v2.sol\":3425:3841  function transfer(address to, uint256 value) public override returns (bool) {... */\n    tag_21:\n      callvalue\n      dup1\n      iszero\n      tag_131\n      jumpi\n      0x00\n      dup1\n      revert\n    tag_131:\n      pop\n      tag_132\n      0x04\n      dup1\n      calldatasize\n      sub\n      dup2\n      add\n      swap1\n      tag_133\n      swap2\n      swap1\n      tag_49\n      jump\t// in\n    tag_133:\n      tag_134\n      jump\t// in\n    tag_132:\n      mload(0x40)\n      tag_135\n      swap2\n      swap1\n      tag_52\n      jump\t// in\n    tag_135:\n      mload(0x40)\n      dup1\n      swap2\n      sub\n      swap1\n      return\n        /* \"budgyToken_v2.sol\":3288:3419  function allowance(address owner,address spender)public override view returns (uint256){... */\n    tag_22:\n      callvalue\n      dup1\n      iszero\n      tag_136\n      jumpi\n      0x00\n      dup1\n      revert\n    tag_136:\n      pop\n      tag_137\n      0x04\n      dup1\n      calldatasize\n      sub\n      dup2\n      add\n      swap1\n      tag_138\n      swap2\n      swap1\n      tag_100\n      jump\t// in\n    tag_138:\n      tag_139\n      jump\t// in\n    tag_137:\n      mload(0x40)\n      tag_140\n      swap2\n      swap1\n      tag_38\n      jump\t// in\n    tag_140:\n      mload(0x40)\n      dup1\n      swap2\n      sub\n      swap1\n      return\n        /* \"budgyToken_v2.sol\":2672:2781  function balanceOf(address owner) public override view returns (uint256) {... */\n    tag_31:\n        /* \"budgyToken_v2.sol\":2736:2743  uint256 */\n      0x00\n        /* \"budgyToken_v2.sol\":2759:2768  _balances */\n      0x03\n        /* \"budgyToken_v2.sol\":2759:2775  _balances[owner] */\n      0x00\n        /* \"budgyToken_v2.sol\":2769:2774  owner */\n      dup4\n        /* \"budgyToken_v2.sol\":2759:2775  _balances[owner] */\n      0xffffffffffffffffffffffffffffffffffffffff\n      and\n      0xffffffffffffffffffffffffffffffffffffffff\n      and\n      dup2\n      mstore\n      0x20\n      add\n      swap1\n      dup2\n      mstore\n      0x20\n      add\n      0x00\n      keccak256\n      sload\n        /* \"budgyToken_v2.sol\":2752:2775  return _balances[owner] */\n      swap1\n      pop\n        /* \"budgyToken_v2.sol\":2672:2781  function balanceOf(address owner) public override view returns (uint256) {... */\n      swap2\n      swap1\n      pop\n      jump\t// out\n        /* \"budgyToken_v2.sol\":4086:4379  function _transfer(address from, address to, uint value) private {... */\n    tag_36:\n        /* \"budgyToken_v2.sol\":4176:4202  _balances[from].sub(value) */\n      tag_143\n        /* \"budgyToken_v2.sol\":4196:4201  value */\n      dup2\n        /* \"budgyToken_v2.sol\":4176:4185  _balances */\n      0x03\n        /* \"budgyToken_v2.sol\":4176:4191  _balances[from] */\n      0x00\n        /* \"budgyToken_v2.sol\":4186:4190  from */\n      dup7\n        /* \"budgyToken_v2.sol\":4176:4191  _balances[from] */\n      0xffffffffffffffffffffffffffffffffffffffff\n      and\n      0xffffffffffffffffffffffffffffffffffffffff\n      and\n      dup2\n      mstore\n      0x20\n      add\n      swap1\n      dup2\n      mstore\n      0x20\n      add\n      0x00\n      keccak256\n      sload\n        /* \"budgyToken_v2.sol\":4176:4195  _balances[from].sub */\n      tag_144\n      swap1\n        /* \"budgyToken_v2.sol\":4176:4202  _balances[from].sub(value) */\n      swap2\n      swap1\n      0xffffffff\n      and\n      jump\t// in\n    tag_143:\n        /* \"budgyToken_v2.sol\":4158:4167  _balances */\n      0x03\n        /* \"budgyToken_v2.sol\":4158:4173  _balances[from] */\n      0x00\n        /* \"budgyToken_v2.sol\":4168:4172  from */\n      dup6\n        /* \"budgyToken_v2.sol\":4158:4173  _balances[from] */\n      0xffffffffffffffffffffffffffffffffffffffff\n      and\n      0xffffffffffffffffffffffffffffffffffffffff\n      and\n      dup2\n      mstore\n      0x20\n      add\n      swap1\n      dup2\n      mstore\n      0x20\n      add\n      0x00\n      keccak256\n        /* \"budgyToken_v2.sol\":4158:4202  _balances[from] = _balances[from].sub(value) */\n      dup2\n      swap1\n      sstore\n      pop\n        /* \"budgyToken_v2.sol\":4225:4249  _balances[to].add(value) */\n      tag_145\n        /* \"budgyToken_v2.sol\":4243:4248  value */\n      dup2\n        /* \"budgyToken_v2.sol\":4225:4234  _balances */\n      0x03\n        /* \"budgyToken_v2.sol\":4225:4238  _balances[to] */\n      0x00\n        /* \"budgyToken_v2.sol\":4235:4237  to */\n      dup6\n        /* \"budgyToken_v2.sol\":4225:4238  _balances[to] */\n      0xffffffffffffffffffffffffffffffffffffffff\n      and\n      0xffffffffffffffffffffffffffffffffffffffff\n      and\n      dup2\n      mstore\n      0x20\n      add\n      swap1\n      dup2\n      mstore\n      0x20\n      add\n      0x00\n      keccak256\n      sload\n        /* \"budgyToken_v2.sol\":4225:4242  _balances[to].add */\n      tag_146\n      swap1\n        /* \"budgyToken_v2.sol\":4225:4249  _balances[to].add(value) */\n      swap2\n      swap1\n      0xffffffff\n      and\n      jump\t// in\n    tag_145:\n        /* \"budgyToken_v2.sol\":4209:4218  _balances */\n      0x03\n        /* \"budgyToken_v2.sol\":4209:4222  _balances[to] */\n      0x00\n        /* \"budgyToken_v2.sol\":4219:4221  to */\n      dup5\n        /* \"budgyToken_v2.sol\":4209:4222  _balances[to] */\n      0xffffffffffffffffffffffffffffffffffffffff\n      and\n      0xffffffffffffffffffffffffffffffffffffffff\n      and\n      dup2\n      mstore\n      0x20\n      add\n      swap1\n      dup2\n      mstore\n      0x20\n      add\n      0x00\n      keccak256\n        /* \"budgyToken_v2.sol\":4209:4249  _balances[to] = _balances[to].add(value) */\n      dup2\n      swap1\n      sstore\n      pop\n        /* \"budgyToken_v2.sol\":4276:4278  to */\n      dup2\n        /* \"budgyToken_v2.sol\":4261:4286  Transfer(from, to, value) */\n      0xffffffffffffffffffffffffffffffffffffffff\n      and\n        /* \"budgyToken_v2.sol\":4270:4274  from */\n      dup4\n        /* \"budgyToken_v2.sol\":4261:4286  Transfer(from, to, value) */\n      0xffffffffffffffffffffffffffffffffffffffff\n      and\n      0xddf252ad1be2c89b69c2b068fc378daa952ba7f163c4a11628f55a4df523b3ef\n        /* \"budgyToken_v2.sol\":4280:4285  value */\n      dup4\n        /* \"budgyToken_v2.sol\":4261:4286  Transfer(from, to, value) */\n      mload(0x40)\n      tag_147\n      swap2\n      swap1\n      tag_38\n      jump\t// in\n    tag_147:\n      mload(0x40)\n      dup1\n      swap2\n      sub\n      swap1\n      log3\n        /* \"budgyToken_v2.sol\":4293:4304  bool addNew */\n      0x00\n        /* \"budgyToken_v2.sol\":4307:4318  newUser(to) */\n      tag_148\n        /* \"budgyToken_v2.sol\":4315:4317  to */\n      dup4\n        /* \"budgyToken_v2.sol\":4307:4314  newUser */\n      tag_57\n        /* \"budgyToken_v2.sol\":4307:4318  newUser(to) */\n      jump\t// in\n    tag_148:\n        /* \"budgyToken_v2.sol\":4293:4318  bool addNew = newUser(to) */\n      swap1\n      pop\n        /* \"budgyToken_v2.sol\":4328:4334  addNew */\n      dup1\n        /* \"budgyToken_v2.sol\":4325:4370  if(addNew){... */\n      iszero\n      tag_149\n      jumpi\n        /* \"budgyToken_v2.sol\":4344:4362  updateUserData(to) */\n      tag_150\n        /* \"budgyToken_v2.sol\":4359:4361  to */\n      dup4\n        /* \"budgyToken_v2.sol\":4344:4358  updateUserData */\n      tag_72\n        /* \"budgyToken_v2.sol\":4344:4362  updateUserData(to) */\n      jump\t// in\n    tag_150:\n      pop\n        /* \"budgyToken_v2.sol\":4325:4370  if(addNew){... */\n    tag_149:\n        /* \"budgyToken_v2.sol\":4151:4379  {... */\n      pop\n        /* \"budgyToken_v2.sol\":4086:4379  function _transfer(address from, address to, uint value) private {... */\n      pop\n      pop\n      pop\n      jump\t// out\n        /* \"budgyToken_v2.sol\":626:680  string public override constant name = 'Budgy Token 2' */\n    tag_43:\n      mload(0x40)\n      dup1\n      0x40\n      add\n      0x40\n      mstore\n      dup1\n      0x0d\n      dup2\n      mstore\n      0x20\n      add\n      0x427564677920546f6b656e203200000000000000000000000000000000000000\n      dup2\n      mstore\n      pop\n      dup2\n      jump\t// out\n        /* \"budgyToken_v2.sol\":3847:4080  function approve(address spender, uint256 value) public override returns (bool) {... */\n    tag_50:\n        /* \"budgyToken_v2.sol\":3921:3925  bool */\n      0x00\n        /* \"budgyToken_v2.sol\":3961:3962  0 */\n      dup1\n        /* \"budgyToken_v2.sol\":3942:3963  spender != address(0) */\n      0xffffffffffffffffffffffffffffffffffffffff\n      and\n        /* \"budgyToken_v2.sol\":3942:3949  spender */\n      dup4\n        /* \"budgyToken_v2.sol\":3942:3963  spender != address(0) */\n      0xffffffffffffffffffffffffffffffffffffffff\n      and\n      sub\n        /* \"budgyToken_v2.sol\":3934:3964  require(spender != address(0)) */\n      tag_152\n      jumpi\n      0x00\n      dup1\n      revert\n    tag_152:\n        /* \"budgyToken_v2.sol\":4003:4008  value */\n      dup2\n        /* \"budgyToken_v2.sol\":3971:3979  _allowed */\n      0x04\n        /* \"budgyToken_v2.sol\":3971:3991  _allowed[msg.sender] */\n      0x00\n        /* \"budgyToken_v2.sol\":3980:3990  msg.sender */\n      caller\n        /* \"budgyToken_v2.sol\":3971:3991  _allowed[msg.sender] */\n      0xffffffffffffffffffffffffffffffffffffffff\n      and\n      0xffffffffffffffffffffffffffffffffffffffff\n      and\n      dup2\n      mstore\n      0x20\n      add\n      swap1\n      dup2\n      mstore\n      0x20\n      add\n      0x00\n      keccak256\n        /* \"budgyToken_v2.sol\":3971:4000  _allowed[msg.sender][spender] */\n      0x00\n        /* \"budgyToken_v2.sol\":3992:3999  spender */\n      dup6\n        /* \"budgyToken_v2.sol\":3971:4000  _allowed[msg.sender][spender] */\n      0xffffffffffffffffffffffffffffffffffffffff\n      and\n      0xffffffffffffffffffffffffffffffffffffffff\n      and\n      dup2\n      mstore\n      0x20\n      add\n      swap1\n      dup2\n      mstore\n      0x20\n      add\n      0x00\n      keccak256\n        /* \"budgyToken_v2.sol\":3971:4008  _allowed[msg.sender][spender] = value */\n      dup2\n      swap1\n      sstore\n      pop\n        /* \"budgyToken_v2.sol\":4041:4048  spender */\n      dup3\n        /* \"budgyToken_v2.sol\":4020:4056  Approval(msg.sender, spender, value) */\n      0xffffffffffffffffffffffffffffffffffffffff\n      and\n        /* \"budgyToken_v2.sol\":4029:4039  msg.sender */\n      caller\n        /* \"budgyToken_v2.sol\":4020:4056  Approval(msg.sender, spender, value) */\n      0xffffffffffffffffffffffffffffffffffffffff\n      and\n      0x8c5be1e5ebec7d5bd14f71427d1e84f3dd0314c0f7b2291e5b200ac8c7c3b925\n        /* \"budgyToken_v2.sol\":4050:4055  value */\n      dup5\n        /* \"budgyToken_v2.sol\":4020:4056  Approval(msg.sender, spender, value) */\n      mload(0x40)\n      tag_153\n      swap2\n      swap1\n      tag_38\n      jump\t// in\n    tag_153:\n      mload(0x40)\n      dup1\n      swap2\n      sub\n      swap1\n      log3\n        /* \"budgyToken_v2.sol\":4070:4074  true */\n      0x01\n        /* \"budgyToken_v2.sol\":4063:4074  return true */\n      swap1\n      pop\n        /* \"budgyToken_v2.sol\":3847:4080  function approve(address spender, uint256 value) public override returns (bool) {... */\n      swap3\n      swap2\n      pop\n      pop\n      jump\t// out\n        /* \"budgyToken_v2.sol\":2090:2387  function newUser(address _address) public returns(bool success) {... */\n    tag_57:\n        /* \"budgyToken_v2.sol\":2140:2152  bool success */\n      0x00\n        /* \"budgyToken_v2.sol\":2238:2254  isUser(_address) */\n      tag_155\n        /* \"budgyToken_v2.sol\":2245:2253  _address */\n      dup3\n        /* \"budgyToken_v2.sol\":2238:2244  isUser */\n      tag_95\n        /* \"budgyToken_v2.sol\":2238:2254  isUser(_address) */\n      jump\t// in\n    tag_155:\n        /* \"budgyToken_v2.sol\":2237:2254  !isUser(_address) */\n      iszero\n        /* \"budgyToken_v2.sol\":2237:2280  !isUser(_address) && _address != address(0) */\n      dup1\n      iszero\n      tag_156\n      jumpi\n      pop\n        /* \"budgyToken_v2.sol\":2278:2279  0 */\n      0x00\n        /* \"budgyToken_v2.sol\":2258:2280  _address != address(0) */\n      0xffffffffffffffffffffffffffffffffffffffff\n      and\n        /* \"budgyToken_v2.sol\":2258:2266  _address */\n      dup3\n        /* \"budgyToken_v2.sol\":2258:2280  _address != address(0) */\n      0xffffffffffffffffffffffffffffffffffffffff\n      and\n      eq\n      iszero\n        /* \"budgyToken_v2.sol\":2237:2280  !isUser(_address) && _address != address(0) */\n    tag_156:\n        /* \"budgyToken_v2.sol\":2229:2281  require(!isUser(_address) && _address != address(0)) */\n      tag_157\n      jumpi\n      0x00\n      dup1\n      revert\n    tag_157:\n        /* \"budgyToken_v2.sol\":2315:2323  _address */\n      dup2\n        /* \"budgyToken_v2.sol\":2288:2293  users */\n      0x02\n        /* \"budgyToken_v2.sol\":2288:2303  users[_address] */\n      0x00\n        /* \"budgyToken_v2.sol\":2294:2302  _address */\n      dup5\n        /* \"budgyToken_v2.sol\":2288:2303  users[_address] */\n      0xffffffffffffffffffffffffffffffffffffffff\n      and\n      0xffffffffffffffffffffffffffffffffffffffff\n      and\n      dup2\n      mstore\n      0x20\n      add\n      swap1\n      dup2\n      mstore\n      0x20\n      add\n      0x00\n      keccak256\n        /* \"budgyToken_v2.sol\":2288:2312  users[_address].userData */\n      0x00\n      add\n      0x00\n        /* \"budgyToken_v2.sol\":2288:2323  users[_address].userData = _address */\n      0x0100\n      exp\n      dup2\n      sload\n      dup2\n      0xffffffffffffffffffffffffffffffffffffffff\n      mul\n      not\n      and\n      swap1\n      dup4\n      0xffffffffffffffffffffffffffffffffffffffff\n      and\n      mul\n      or\n      swap1\n      sstore\n      pop\n        /* \"budgyToken_v2.sol\":2359:2363  true */\n      0x01\n        /* \"budgyToken_v2.sol\":2330:2335  users */\n      0x02\n        /* \"budgyToken_v2.sol\":2330:2345  users[_address] */\n      0x00\n        /* \"budgyToken_v2.sol\":2336:2344  _address */\n      dup5\n        /* \"budgyToken_v2.sol\":2330:2345  users[_address] */\n      0xffffffffffffffffffffffffffffffffffffffff\n      and\n      0xffffffffffffffffffffffffffffffffffffffff\n      and\n      dup2\n      mstore\n      0x20\n      add\n      swap1\n      dup2\n      mstore\n      0x20\n      add\n      0x00\n      keccak256\n        /* \"budgyToken_v2.sol\":2330:2356  users[_address].userExists */\n      0x00\n      add\n      0x14\n        /* \"budgyToken_v2.sol\":2330:2363  users[_address].userExists = true */\n      0x0100\n      exp\n      dup2\n      sload\n      dup2\n      0xff\n      mul\n      not\n      and\n      swap1\n      dup4\n      iszero\n      iszero\n      mul\n      or\n      swap1\n      sstore\n      pop\n        /* \"budgyToken_v2.sol\":2377:2381  true */\n      0x01\n        /* \"budgyToken_v2.sol\":2370:2381  return true */\n      swap1\n      pop\n        /* \"budgyToken_v2.sol\":2090:2387  function newUser(address _address) public returns(bool success) {... */\n      swap2\n      swap1\n      pop\n      jump\t// out\n        /* \"budgyToken_v2.sol\":2570:2666  function totalSupply() external override view returns (uint256) {... */\n    tag_61:\n        /* \"budgyToken_v2.sol\":2625:2632  uint256 */\n      0x00\n        /* \"budgyToken_v2.sol\":2648:2660  _totalSupply */\n      dup1\n      sload\n        /* \"budgyToken_v2.sol\":2641:2660  return _totalSupply */\n      swap1\n      pop\n        /* \"budgyToken_v2.sol\":2570:2666  function totalSupply() external override view returns (uint256) {... */\n      swap1\n      jump\t// out\n        /* \"budgyToken_v2.sol\":4385:4814  function transferFrom(address from, address to, uint256 value) public override returns (bool){... */\n    tag_67:\n        /* \"budgyToken_v2.sol\":4473:4477  bool */\n      0x00\n        /* \"budgyToken_v2.sol\":4502:4511  _balances */\n      0x03\n        /* \"budgyToken_v2.sol\":4502:4517  _balances[from] */\n      0x00\n        /* \"budgyToken_v2.sol\":4512:4516  from */\n      dup6\n        /* \"budgyToken_v2.sol\":4502:4517  _balances[from] */\n      0xffffffffffffffffffffffffffffffffffffffff\n      and\n      0xffffffffffffffffffffffffffffffffffffffff\n      and\n      dup2\n      mstore\n      0x20\n      add\n      swap1\n      dup2\n      mstore\n      0x20\n      add\n      0x00\n      keccak256\n      sload\n        /* \"budgyToken_v2.sol\":4493:4498  value */\n      dup3\n        /* \"budgyToken_v2.sol\":4493:4517  value <= _balances[from] */\n      gt\n      iszero\n        /* \"budgyToken_v2.sol\":4485:4518  require(value <= _balances[from]) */\n      tag_160\n      jumpi\n      0x00\n      dup1\n      revert\n    tag_160:\n        /* \"budgyToken_v2.sol\":4542:4550  _allowed */\n      0x04\n        /* \"budgyToken_v2.sol\":4542:4556  _allowed[from] */\n      0x00\n        /* \"budgyToken_v2.sol\":4551:4555  from */\n      dup6\n        /* \"budgyToken_v2.sol\":4542:4556  _allowed[from] */\n      0xffffffffffffffffffffffffffffffffffffffff\n      and\n      0xffffffffffffffffffffffffffffffffffffffff\n      and\n      dup2\n      mstore\n      0x20\n      add\n      swap1\n      dup2\n      mstore\n      0x20\n      add\n      0x00\n      keccak256\n        /* \"budgyToken_v2.sol\":4542:4568  _allowed[from][msg.sender] */\n      0x00\n        /* \"budgyToken_v2.sol\":4557:4567  msg.sender */\n      caller\n        /* \"budgyToken_v2.sol\":4542:4568  _allowed[from][msg.sender] */\n      0xffffffffffffffffffffffffffffffffffffffff\n      and\n      0xffffffffffffffffffffffffffffffffffffffff\n      and\n      dup2\n      mstore\n      0x20\n      add\n      swap1\n      dup2\n      mstore\n      0x20\n      add\n      0x00\n      keccak256\n      sload\n        /* \"budgyToken_v2.sol\":4533:4538  value */\n      dup3\n        /* \"budgyToken_v2.sol\":4533:4568  value <= _allowed[from][msg.sender] */\n      gt\n      iszero\n        /* \"budgyToken_v2.sol\":4525:4569  require(value <= _allowed[from][msg.sender]) */\n      tag_161\n      jumpi\n      0x00\n      dup1\n      revert\n    tag_161:\n        /* \"budgyToken_v2.sol\":4598:4599  0 */\n      0x00\n        /* \"budgyToken_v2.sol\":4584:4600  to != address(0) */\n      0xffffffffffffffffffffffffffffffffffffffff\n      and\n        /* \"budgyToken_v2.sol\":4584:4586  to */\n      dup4\n        /* \"budgyToken_v2.sol\":4584:4600  to != address(0) */\n      0xffffffffffffffffffffffffffffffffffffffff\n      and\n      sub\n        /* \"budgyToken_v2.sol\":4576:4601  require(to != address(0)) */\n      tag_162\n      jumpi\n      0x00\n      dup1\n      revert\n    tag_162:\n        /* \"budgyToken_v2.sol\":4637:4674  _allowed[from][msg.sender].sub(value) */\n      tag_163\n        /* \"budgyToken_v2.sol\":4668:4673  value */\n      dup3\n        /* \"budgyToken_v2.sol\":4637:4645  _allowed */\n      0x04\n        /* \"budgyToken_v2.sol\":4637:4651  _allowed[from] */\n      0x00\n        /* \"budgyToken_v2.sol\":4646:4650  from */\n      dup8\n        /* \"budgyToken_v2.sol\":4637:4651  _allowed[from] */\n      0xffffffffffffffffffffffffffffffffffffffff\n      and\n      0xffffffffffffffffffffffffffffffffffffffff\n      and\n      dup2\n      mstore\n      0x20\n      add\n      swap1\n      dup2\n      mstore\n      0x20\n      add\n      0x00\n      keccak256\n        /* \"budgyToken_v2.sol\":4637:4663  _allowed[from][msg.sender] */\n      0x00\n        /* \"budgyToken_v2.sol\":4652:4662  msg.sender */\n      caller\n        /* \"budgyToken_v2.sol\":4637:4663  _allowed[from][msg.sender] */\n      0xffffffffffffffffffffffffffffffffffffffff\n      and\n      0xffffffffffffffffffffffffffffffffffffffff\n      and\n      dup2\n      mstore\n      0x20\n      add\n      swap1\n      dup2\n      mstore\n      0x20\n      add\n      0x00\n      keccak256\n      sload\n        /* \"budgyToken_v2.sol\":4637:4667  _allowed[from][msg.sender].sub */\n      tag_144\n      swap1\n        /* \"budgyToken_v2.sol\":4637:4674  _allowed[from][msg.sender].sub(value) */\n      swap2\n      swap1\n      0xffffffff\n      and\n      jump\t// in\n    tag_163:\n        /* \"budgyToken_v2.sol\":4608:4616  _allowed */\n      0x04\n        /* \"budgyToken_v2.sol\":4608:4622  _allowed[from] */\n      0x00\n        /* \"budgyToken_v2.sol\":4617:4621  from */\n      dup7\n        /* \"budgyToken_v2.sol\":4608:4622  _allowed[from] */\n      0xffffffffffffffffffffffffffffffffffffffff\n      and\n      0xffffffffffffffffffffffffffffffffffffffff\n      and\n      dup2\n      mstore\n      0x20\n      add\n      swap1\n      dup2\n      mstore\n      0x20\n      add\n      0x00\n      keccak256\n        /* \"budgyToken_v2.sol\":4608:4634  _allowed[from][msg.sender] */\n      0x00\n        /* \"budgyToken_v2.sol\":4623:4633  msg.sender */\n      caller\n        /* \"budgyToken_v2.sol\":4608:4634  _allowed[from][msg.sender] */\n      0xffffffffffffffffffffffffffffffffffffffff\n      and\n      0xffffffffffffffffffffffffffffffffffffffff\n      and\n      dup2\n      mstore\n      0x20\n      add\n      swap1\n      dup2\n      mstore\n      0x20\n      add\n      0x00\n      keccak256\n        /* \"budgyToken_v2.sol\":4608:4674  _allowed[from][msg.sender] = _allowed[from][msg.sender].sub(value) */\n      dup2\n      swap1\n      sstore\n      pop\n        /* \"budgyToken_v2.sol\":4681:4707  _transfer(from, to, value) */\n      tag_164\n        /* \"budgyToken_v2.sol\":4691:4695  from */\n      dup5\n        /* \"budgyToken_v2.sol\":4697:4699  to */\n      dup5\n        /* \"budgyToken_v2.sol\":4701:4706  value */\n      dup5\n        /* \"budgyToken_v2.sol\":4681:4690  _transfer */\n      tag_36\n        /* \"budgyToken_v2.sol\":4681:4707  _transfer(from, to, value) */\n      jump\t// in\n    tag_164:\n        /* \"budgyToken_v2.sol\":4714:4725  bool addNew */\n      0x00\n        /* \"budgyToken_v2.sol\":4728:4739  newUser(to) */\n      tag_165\n        /* \"budgyToken_v2.sol\":4736:4738  to */\n      dup5\n        /* \"budgyToken_v2.sol\":4728:4735  newUser */\n      tag_57\n        /* \"budgyToken_v2.sol\":4728:4739  newUser(to) */\n      jump\t// in\n    tag_165:\n        /* \"budgyToken_v2.sol\":4714:4739  bool addNew = newUser(to) */\n      swap1\n      pop\n        /* \"budgyToken_v2.sol\":4749:4755  addNew */\n      dup1\n        /* \"budgyToken_v2.sol\":4746:4791  if(addNew){... */\n      iszero\n      tag_166\n      jumpi\n        /* \"budgyToken_v2.sol\":4765:4783  updateUserData(to) */\n      tag_167\n        /* \"budgyToken_v2.sol\":4780:4782  to */\n      dup5\n        /* \"budgyToken_v2.sol\":4765:4779  updateUserData */\n      tag_72\n        /* \"budgyToken_v2.sol\":4765:4783  updateUserData(to) */\n      jump\t// in\n    tag_167:\n      pop\n        /* \"budgyToken_v2.sol\":4746:4791  if(addNew){... */\n    tag_166:\n        /* \"budgyToken_v2.sol\":4804:4808  true */\n      0x01\n        /* \"budgyToken_v2.sol\":4797:4808  return true */\n      swap2\n      pop\n      pop\n        /* \"budgyToken_v2.sol\":4385:4814  function transferFrom(address from, address to, uint256 value) public override returns (bool){... */\n      swap4\n      swap3\n      pop\n      pop\n      pop\n      jump\t// out\n        /* \"budgyToken_v2.sol\":2393:2562  function updateUserData(address _address) public returns(bool success) {... */\n    tag_72:\n        /* \"budgyToken_v2.sol\":2450:2462  bool success */\n      0x00\n        /* \"budgyToken_v2.sol\":2479:2495  isUser(_address) */\n      tag_169\n        /* \"budgyToken_v2.sol\":2486:2494  _address */\n      dup3\n        /* \"budgyToken_v2.sol\":2479:2485  isUser */\n      tag_95\n        /* \"budgyToken_v2.sol\":2479:2495  isUser(_address) */\n      jump\t// in\n    tag_169:\n        /* \"budgyToken_v2.sol\":2471:2496  require(isUser(_address)) */\n      tag_170\n      jumpi\n      0x00\n      dup1\n      revert\n    tag_170:\n        /* \"budgyToken_v2.sol\":2530:2538  _address */\n      dup2\n        /* \"budgyToken_v2.sol\":2503:2508  users */\n      0x02\n        /* \"budgyToken_v2.sol\":2503:2518  users[_address] */\n      0x00\n        /* \"budgyToken_v2.sol\":2509:2517  _address */\n      dup5\n        /* \"budgyToken_v2.sol\":2503:2518  users[_address] */\n      0xffffffffffffffffffffffffffffffffffffffff\n      and\n      0xffffffffffffffffffffffffffffffffffffffff\n      and\n      dup2\n      mstore\n      0x20\n      add\n      swap1\n      dup2\n      mstore\n      0x20\n      add\n      0x00\n      keccak256\n        /* \"budgyToken_v2.sol\":2503:2527  users[_address].userData */\n      0x00\n      add\n      0x00\n        /* \"budgyToken_v2.sol\":2503:2538  users[_address].userData = _address */\n      0x0100\n      exp\n      dup2\n      sload\n      dup2\n      0xffffffffffffffffffffffffffffffffffffffff\n      mul\n      not\n      and\n      swap1\n      dup4\n      0xffffffffffffffffffffffffffffffffffffffff\n      and\n      mul\n      or\n      swap1\n      sstore\n      pop\n        /* \"budgyToken_v2.sol\":2552:2556  true */\n      0x01\n        /* \"budgyToken_v2.sol\":2545:2556  return true */\n      swap1\n      pop\n        /* \"budgyToken_v2.sol\":2393:2562  function updateUserData(address _address) public returns(bool success) {... */\n      swap2\n      swap1\n      pop\n      jump\t// out\n        /* \"budgyToken_v2.sol\":685:729  uint8 public override constant decimals = 10 */\n    tag_76:\n        /* \"budgyToken_v2.sol\":727:729  10 */\n      0x0a\n        /* \"budgyToken_v2.sol\":685:729  uint8 public override constant decimals = 10 */\n      dup2\n      jump\t// out\n        /* \"budgyToken_v2.sol\":4820:5136  function increaseAllowance( address spender, uint256 addedValue ) public returns (bool){... */\n    tag_82:\n        /* \"budgyToken_v2.sol\":4902:4906  bool */\n      0x00\n        /* \"budgyToken_v2.sol\":4941:4942  0 */\n      dup1\n        /* \"budgyToken_v2.sol\":4922:4943  spender != address(0) */\n      0xffffffffffffffffffffffffffffffffffffffff\n      and\n        /* \"budgyToken_v2.sol\":4922:4929  spender */\n      dup4\n        /* \"budgyToken_v2.sol\":4922:4943  spender != address(0) */\n      0xffffffffffffffffffffffffffffffffffffffff\n      and\n      sub\n        /* \"budgyToken_v2.sol\":4914:4944  require(spender != address(0)) */\n      tag_172\n      jumpi\n      0x00\n      dup1\n      revert\n    tag_172:\n        /* \"budgyToken_v2.sol\":4994:5039  _allowed[msg.sender][spender].add(addedValue) */\n      tag_173\n        /* \"budgyToken_v2.sol\":5028:5038  addedValue */\n      dup3\n        /* \"budgyToken_v2.sol\":4994:5002  _allowed */\n      0x04\n        /* \"budgyToken_v2.sol\":4994:5014  _allowed[msg.sender] */\n      0x00\n        /* \"budgyToken_v2.sol\":5003:5013  msg.sender */\n      caller\n        /* \"budgyToken_v2.sol\":4994:5014  _allowed[msg.sender] */\n      0xffffffffffffffffffffffffffffffffffffffff\n      and\n      0xffffffffffffffffffffffffffffffffffffffff\n      and\n      dup2\n      mstore\n      0x20\n      add\n      swap1\n      dup2\n      mstore\n      0x20\n      add\n      0x00\n      keccak256\n        /* \"budgyToken_v2.sol\":4994:5023  _allowed[msg.sender][spender] */\n      0x00\n        /* \"budgyToken_v2.sol\":5015:5022  spender */\n      dup7\n        /* \"budgyToken_v2.sol\":4994:5023  _allowed[msg.sender][spender] */\n      0xffffffffffffffffffffffffffffffffffffffff\n      and\n      0xffffffffffffffffffffffffffffffffffffffff\n      and\n      dup2\n      mstore\n      0x20\n      add\n      swap1\n      dup2\n      mstore\n      0x20\n      add\n      0x00\n      keccak256\n      sload\n        /* \"budgyToken_v2.sol\":4994:5027  _allowed[msg.sender][spender].add */\n      tag_146\n      swap1\n        /* \"budgyToken_v2.sol\":4994:5039  _allowed[msg.sender][spender].add(addedValue) */\n      swap2\n      swap1\n      0xffffffff\n      and\n      jump\t// in\n    tag_173:\n        /* \"budgyToken_v2.sol\":4953:4961  _allowed */\n      0x04\n        /* \"budgyToken_v2.sol\":4953:4973  _allowed[msg.sender] */\n      0x00\n        /* \"budgyToken_v2.sol\":4962:4972  msg.sender */\n      caller\n        /* \"budgyToken_v2.sol\":4953:4973  _allowed[msg.sender] */\n      0xffffffffffffffffffffffffffffffffffffffff\n      and\n      0xffffffffffffffffffffffffffffffffffffffff\n      and\n      dup2\n      mstore\n      0x20\n      add\n      swap1\n      dup2\n      mstore\n      0x20\n      add\n      0x00\n      keccak256\n        /* \"budgyToken_v2.sol\":4953:4982  _allowed[msg.sender][spender] */\n      0x00\n        /* \"budgyToken_v2.sol\":4974:4981  spender */\n      dup6\n        /* \"budgyToken_v2.sol\":4953:4982  _allowed[msg.sender][spender] */\n      0xffffffffffffffffffffffffffffffffffffffff\n      and\n      0xffffffffffffffffffffffffffffffffffffffff\n      and\n      dup2\n      mstore\n      0x20\n      add\n      swap1\n      dup2\n      mstore\n      0x20\n      add\n      0x00\n      keccak256\n        /* \"budgyToken_v2.sol\":4953:5040  _allowed[msg.sender][spender] = (... */\n      dup2\n      swap1\n      sstore\n      pop\n        /* \"budgyToken_v2.sol\":5073:5080  spender */\n      dup3\n        /* \"budgyToken_v2.sol\":5052:5112  Approval(msg.sender, spender, _allowed[msg.sender][spender]) */\n      0xffffffffffffffffffffffffffffffffffffffff\n      and\n        /* \"budgyToken_v2.sol\":5061:5071  msg.sender */\n      caller\n        /* \"budgyToken_v2.sol\":5052:5112  Approval(msg.sender, spender, _allowed[msg.sender][spender]) */\n      0xffffffffffffffffffffffffffffffffffffffff\n      and\n      0x8c5be1e5ebec7d5bd14f71427d1e84f3dd0314c0f7b2291e5b200ac8c7c3b925\n        /* \"budgyToken_v2.sol\":5082:5090  _allowed */\n      0x04\n        /* \"budgyToken_v2.sol\":5082:5102  _allowed[msg.sender] */\n      0x00\n        /* \"budgyToken_v2.sol\":5091:5101  msg.sender */\n      caller\n        /* \"budgyToken_v2.sol\":5082:5102  _allowed[msg.sender] */\n      0xffffffffffffffffffffffffffffffffffffffff\n      and\n      0xffffffffffffffffffffffffffffffffffffffff\n      and\n      dup2\n      mstore\n      0x20\n      add\n      swap1\n      dup2\n      mstore\n      0x20\n      add\n      0x00\n      keccak256\n        /* \"budgyToken_v2.sol\":5082:5111  _allowed[msg.sender][spender] */\n      0x00\n        /* \"budgyToken_v2.sol\":5103:5110  spender */\n      dup8\n        /* \"budgyToken_v2.sol\":5082:5111  _allowed[msg.sender][spender] */\n      0xffffffffffffffffffffffffffffffffffffffff\n      and\n      0xffffffffffffffffffffffffffffffffffffffff\n      and\n      dup2\n      mstore\n      0x20\n      add\n      swap1\n      dup2\n      mstore\n      0x20\n      add\n      0x00\n      keccak256\n      sload\n        /* \"budgyToken_v2.sol\":5052:5112  Approval(msg.sender, spender, _allowed[msg.sender][spender]) */\n      mload(0x40)\n      tag_174\n      swap2\n      swap1\n      tag_38\n      jump\t// in\n    tag_174:\n      mload(0x40)\n      dup1\n      swap2\n      sub\n      swap1\n      log3\n        /* \"budgyToken_v2.sol\":5126:5130  true */\n      0x01\n        /* \"budgyToken_v2.sol\":5119:5130  return true */\n      swap1\n      pop\n        /* \"budgyToken_v2.sol\":4820:5136  function increaseAllowance( address spender, uint256 addedValue ) public returns (bool){... */\n      swap3\n      swap2\n      pop\n      pop\n      jump\t// out\n        /* \"budgyToken_v2.sol\":585:621  uint256 public _totalSupply = 10**18 */\n    tag_86:\n      sload(0x00)\n      dup2\n      jump\t// out\n        /* \"budgyToken_v2.sol\":5471:5825  function mint(address to, uint256 amount) public {... */\n    tag_91:\n        /* \"budgyToken_v2.sol\":5549:5550  0 */\n      0x00\n        /* \"budgyToken_v2.sol\":5535:5551  to != address(0) */\n      0xffffffffffffffffffffffffffffffffffffffff\n      and\n        /* \"budgyToken_v2.sol\":5535:5537  to */\n      dup3\n        /* \"budgyToken_v2.sol\":5535:5551  to != address(0) */\n      0xffffffffffffffffffffffffffffffffffffffff\n      and\n      sub\n        /* \"budgyToken_v2.sol\":5527:5587  require(to != address(0), \"ERC20: mint to the zero address\") */\n      tag_176\n      jumpi\n      mload(0x40)\n      0x08c379a000000000000000000000000000000000000000000000000000000000\n      dup2\n      mstore\n      0x04\n      add\n      tag_177\n      swap1\n      tag_178\n      jump\t// in\n    tag_177:\n      mload(0x40)\n      dup1\n      swap2\n      sub\n      swap1\n      revert\n    tag_176:\n        /* \"budgyToken_v2.sol\":5610:5616  amount */\n      dup1\n        /* \"budgyToken_v2.sol\":5594:5606  _totalSupply */\n      0x00\n      dup1\n        /* \"budgyToken_v2.sol\":5594:5616  _totalSupply += amount */\n      dup3\n      dup3\n      sload\n      tag_179\n      swap2\n      swap1\n      tag_180\n      jump\t// in\n    tag_179:\n      swap3\n      pop\n      pop\n      dup2\n      swap1\n      sstore\n      pop\n        /* \"budgyToken_v2.sol\":5762:5768  amount */\n      dup1\n        /* \"budgyToken_v2.sol\":5745:5754  _balances */\n      0x03\n        /* \"budgyToken_v2.sol\":5745:5758  _balances[to] */\n      0x00\n        /* \"budgyToken_v2.sol\":5755:5757  to */\n      dup5\n        /* \"budgyToken_v2.sol\":5745:5758  _balances[to] */\n      0xffffffffffffffffffffffffffffffffffffffff\n      and\n      0xffffffffffffffffffffffffffffffffffffffff\n      and\n      dup2\n      mstore\n      0x20\n      add\n      swap1\n      dup2\n      mstore\n      0x20\n      add\n      0x00\n      keccak256\n      0x00\n        /* \"budgyToken_v2.sol\":5745:5768  _balances[to] += amount */\n      dup3\n      dup3\n      sload\n      add\n      swap3\n      pop\n      pop\n      dup2\n      swap1\n      sstore\n      pop\n        /* \"budgyToken_v2.sol\":5808:5810  to */\n      dup2\n        /* \"budgyToken_v2.sol\":5787:5819  Transfer(address(0), to, amount) */\n      0xffffffffffffffffffffffffffffffffffffffff\n      and\n        /* \"budgyToken_v2.sol\":5804:5805  0 */\n      0x00\n        /* \"budgyToken_v2.sol\":5787:5819  Transfer(address(0), to, amount) */\n      0xffffffffffffffffffffffffffffffffffffffff\n      and\n      0xddf252ad1be2c89b69c2b068fc378daa952ba7f163c4a11628f55a4df523b3ef\n        /* \"budgyToken_v2.sol\":5812:5818  amount */\n      dup4\n        /* \"budgyToken_v2.sol\":5787:5819  Transfer(address(0), to, amount) */\n      mload(0x40)\n      tag_181\n      swap2\n      swap1\n      tag_38\n      jump\t// in\n    tag_181:\n      mload(0x40)\n      dup1\n      swap2\n      sub\n      swap1\n      log3\n        /* \"budgyToken_v2.sol\":5471:5825  function mint(address to, uint256 amount) public {... */\n      pop\n      pop\n      jump\t// out\n        /* \"budgyToken_v2.sol\":1970:2084  function isUser(address _address) public view returns(bool _isUser) {... */\n    tag_95:\n        /* \"budgyToken_v2.sol\":2024:2036  bool _isUser */\n      0x00\n        /* \"budgyToken_v2.sol\":2052:2057  users */\n      0x02\n        /* \"budgyToken_v2.sol\":2052:2067  users[_address] */\n      0x00\n        /* \"budgyToken_v2.sol\":2058:2066  _address */\n      dup4\n        /* \"budgyToken_v2.sol\":2052:2067  users[_address] */\n      0xffffffffffffffffffffffffffffffffffffffff\n      and\n      0xffffffffffffffffffffffffffffffffffffffff\n      and\n      dup2\n      mstore\n      0x20\n      add\n      swap1\n      dup2\n      mstore\n      0x20\n      add\n      0x00\n      keccak256\n        /* \"budgyToken_v2.sol\":2052:2078  users[_address].userExists */\n      0x00\n      add\n      0x14\n      swap1\n      sload\n      swap1\n      0x0100\n      exp\n      swap1\n      div\n      0xff\n      and\n        /* \"budgyToken_v2.sol\":2045:2078  return users[_address].userExists */\n      swap1\n      pop\n        /* \"budgyToken_v2.sol\":1970:2084  function isUser(address _address) public view returns(bool _isUser) {... */\n      swap2\n      swap1\n      pop\n      jump\t// out\n        /* \"budgyToken_v2.sol\":5835:6066  function VIPClub(address referee, address referred)public view returns(bool){... */\n    tag_101:\n        /* \"budgyToken_v2.sol\":5906:5910  bool */\n      0x00\n        /* \"budgyToken_v2.sol\":5943:5944  0 */\n      dup1\n        /* \"budgyToken_v2.sol\":5926:5945  referee!=address(0) */\n      0xffffffffffffffffffffffffffffffffffffffff\n      and\n        /* \"budgyToken_v2.sol\":5926:5933  referee */\n      dup4\n        /* \"budgyToken_v2.sol\":5926:5945  referee!=address(0) */\n      0xffffffffffffffffffffffffffffffffffffffff\n      and\n      sub\n        /* \"budgyToken_v2.sol\":5918:5946  require(referee!=address(0)) */\n      tag_184\n      jumpi\n      0x00\n      dup1\n      revert\n    tag_184:\n        /* \"budgyToken_v2.sol\":5961:5976  isUser(referee) */\n      tag_185\n        /* \"budgyToken_v2.sol\":5968:5975  referee */\n      dup4\n        /* \"budgyToken_v2.sol\":5961:5967  isUser */\n      tag_95\n        /* \"budgyToken_v2.sol\":5961:5976  isUser(referee) */\n      jump\t// in\n    tag_185:\n        /* \"budgyToken_v2.sol\":5953:5977  require(isUser(referee)) */\n      tag_186\n      jumpi\n      0x00\n      dup1\n      revert\n    tag_186:\n        /* \"budgyToken_v2.sol\":5989:6005  isUser(referred) */\n      tag_187\n        /* \"budgyToken_v2.sol\":5996:6004  referred */\n      dup3\n        /* \"budgyToken_v2.sol\":5989:5995  isUser */\n      tag_95\n        /* \"budgyToken_v2.sol\":5989:6005  isUser(referred) */\n      jump\t// in\n    tag_187:\n        /* \"budgyToken_v2.sol\":5984:6040  if (!isUser(referred)){... */\n      tag_188\n      jumpi\n        /* \"budgyToken_v2.sol\":6025:6029  true */\n      0x01\n        /* \"budgyToken_v2.sol\":6017:6030  return (true) */\n      swap1\n      pop\n      jump(tag_183)\n        /* \"budgyToken_v2.sol\":5984:6040  if (!isUser(referred)){... */\n    tag_188:\n        /* \"budgyToken_v2.sol\":6054:6059  false */\n      0x00\n        /* \"budgyToken_v2.sol\":6046:6060  return (false) */\n      swap1\n      pop\n        /* \"budgyToken_v2.sol\":5835:6066  function VIPClub(address referee, address referred)public view returns(bool){... */\n    tag_183:\n      swap3\n      swap2\n      pop\n      pop\n      jump\t// out\n        /* \"budgyToken_v2.sol\":6072:6481  function addBirdFriends(address referee, address referred) public returns(string memory){... */\n    tag_106:\n        /* \"budgyToken_v2.sol\":6146:6159  string memory */\n      0x60\n        /* \"budgyToken_v2.sol\":6175:6190  isUser(referee) */\n      tag_190\n        /* \"budgyToken_v2.sol\":6182:6189  referee */\n      dup4\n        /* \"budgyToken_v2.sol\":6175:6181  isUser */\n      tag_95\n        /* \"budgyToken_v2.sol\":6175:6190  isUser(referee) */\n      jump\t// in\n    tag_190:\n        /* \"budgyToken_v2.sol\":6167:6191  require(isUser(referee)) */\n      tag_191\n      jumpi\n      0x00\n      dup1\n      revert\n    tag_191:\n        /* \"budgyToken_v2.sol\":6206:6232  VIPClub(referee, referred) */\n      tag_192\n        /* \"budgyToken_v2.sol\":6214:6221  referee */\n      dup4\n        /* \"budgyToken_v2.sol\":6223:6231  referred */\n      dup4\n        /* \"budgyToken_v2.sol\":6206:6213  VIPClub */\n      tag_101\n        /* \"budgyToken_v2.sol\":6206:6232  VIPClub(referee, referred) */\n      jump\t// in\n    tag_192:\n        /* \"budgyToken_v2.sol\":6198:6233  require(VIPClub(referee, referred)) */\n      tag_193\n      jumpi\n      0x00\n      dup1\n      revert\n    tag_193:\n        /* \"budgyToken_v2.sol\":6245:6261  isUser(referred) */\n      tag_194\n        /* \"budgyToken_v2.sol\":6252:6260  referred */\n      dup3\n        /* \"budgyToken_v2.sol\":6245:6251  isUser */\n      tag_95\n        /* \"budgyToken_v2.sol\":6245:6261  isUser(referred) */\n      jump\t// in\n    tag_194:\n        /* \"budgyToken_v2.sol\":6240:6408  if (!isUser(referred)){... */\n      tag_195\n      jumpi\n        /* \"budgyToken_v2.sol\":6271:6287  mint(referred,5) */\n      tag_196\n        /* \"budgyToken_v2.sol\":6276:6284  referred */\n      dup3\n        /* \"budgyToken_v2.sol\":6285:6286  5 */\n      0x05\n        /* \"budgyToken_v2.sol\":6271:6275  mint */\n      tag_91\n        /* \"budgyToken_v2.sol\":6271:6287  mint(referred,5) */\n      jump\t// in\n    tag_196:\n        /* \"budgyToken_v2.sol\":6296:6312  mint(referee,10) */\n      tag_197\n        /* \"budgyToken_v2.sol\":6301:6308  referee */\n      dup4\n        /* \"budgyToken_v2.sol\":6309:6311  10 */\n      0x0a\n        /* \"budgyToken_v2.sol\":6296:6300  mint */\n      tag_91\n        /* \"budgyToken_v2.sol\":6296:6312  mint(referee,10) */\n      jump\t// in\n    tag_197:\n        /* \"budgyToken_v2.sol\":6321:6338  newUser(referred) */\n      tag_198\n        /* \"budgyToken_v2.sol\":6329:6337  referred */\n      dup3\n        /* \"budgyToken_v2.sol\":6321:6328  newUser */\n      tag_57\n        /* \"budgyToken_v2.sol\":6321:6338  newUser(referred) */\n      jump\t// in\n    tag_198:\n      pop\n        /* \"budgyToken_v2.sol\":6347:6371  updateUserData(referred) */\n      tag_199\n        /* \"budgyToken_v2.sol\":6362:6370  referred */\n      dup3\n        /* \"budgyToken_v2.sol\":6347:6361  updateUserData */\n      tag_72\n        /* \"budgyToken_v2.sol\":6347:6371  updateUserData(referred) */\n      jump\t// in\n    tag_199:\n      pop\n        /* \"budgyToken_v2.sol\":6387:6400  secretMessage */\n      mload(0x40)\n      dup1\n      0x80\n      add\n      0x40\n      mstore\n      dup1\n      0x4d\n      dup2\n      mstore\n      0x20\n      add\n      data_0b07e07956ec390ff7e72b1318405d97a05ab399943979f0e46f84161ae1e06a\n      0x4d\n      swap2\n      codecopy\n        /* \"budgyToken_v2.sol\":6380:6400  return secretMessage */\n      swap1\n      pop\n      jump(tag_189)\n        /* \"budgyToken_v2.sol\":6240:6408  if (!isUser(referred)){... */\n    tag_195:\n        /* \"budgyToken_v2.sol\":6414:6475  return 'Sorry, better luck next time getting into our flock!' */\n      mload(0x40)\n      dup1\n      0x60\n      add\n      0x40\n      mstore\n      dup1\n      0x34\n      dup2\n      mstore\n      0x20\n      add\n      data_c61807ddb0f4f71646a182726d8e67ede87cf92ffd23179b7a2178e99668a6f9\n      0x34\n      swap2\n      codecopy\n      swap1\n      pop\n        /* \"budgyToken_v2.sol\":6072:6481  function addBirdFriends(address referee, address referred) public returns(string memory){... */\n    tag_189:\n      swap3\n      swap2\n      pop\n      pop\n      jump\t// out\n        /* \"budgyToken_v2.sol\":911:949  uint256 public unitsOneEthCanBuy  = 42 */\n    tag_110:\n      sload(0x01)\n      dup2\n      jump\t// out\n        /* \"budgyToken_v2.sol\":734:782  string public override constant symbol = 'BDGY2' */\n    tag_118:\n      mload(0x40)\n      dup1\n      0x40\n      add\n      0x40\n      mstore\n      dup1\n      0x05\n      dup2\n      mstore\n      0x20\n      add\n      0x4244475932000000000000000000000000000000000000000000000000000000\n      dup2\n      mstore\n      pop\n      dup2\n      jump\t// out\n        /* \"budgyToken_v2.sol\":5142:5465  function decreaseAllowance(address spender,uint256 subtractedValue) public returns (bool){... */\n    tag_123:\n        /* \"budgyToken_v2.sol\":5226:5230  bool */\n      0x00\n        /* \"budgyToken_v2.sol\":5265:5266  0 */\n      dup1\n        /* \"budgyToken_v2.sol\":5246:5267  spender != address(0) */\n      0xffffffffffffffffffffffffffffffffffffffff\n      and\n        /* \"budgyToken_v2.sol\":5246:5253  spender */\n      dup4\n        /* \"budgyToken_v2.sol\":5246:5267  spender != address(0) */\n      0xffffffffffffffffffffffffffffffffffffffff\n      and\n      sub\n        /* \"budgyToken_v2.sol\":5238:5268  require(spender != address(0)) */\n      tag_201\n      jumpi\n      0x00\n      dup1\n      revert\n    tag_201:\n        /* \"budgyToken_v2.sol\":5318:5368  _allowed[msg.sender][spender].sub(subtractedValue) */\n      tag_202\n        /* \"budgyToken_v2.sol\":5352:5367  subtractedValue */\n      dup3\n        /* \"budgyToken_v2.sol\":5318:5326  _allowed */\n      0x04\n        /* \"budgyToken_v2.sol\":5318:5338  _allowed[msg.sender] */\n      0x00\n        /* \"budgyToken_v2.sol\":5327:5337  msg.sender */\n      caller\n        /* \"budgyToken_v2.sol\":5318:5338  _allowed[msg.sender] */\n      0xffffffffffffffffffffffffffffffffffffffff\n      and\n      0xffffffffffffffffffffffffffffffffffffffff\n      and\n      dup2\n      mstore\n      0x20\n      add\n      swap1\n      dup2\n      mstore\n      0x20\n      add\n      0x00\n      keccak256\n        /* \"budgyToken_v2.sol\":5318:5347  _allowed[msg.sender][spender] */\n      0x00\n        /* \"budgyToken_v2.sol\":5339:5346  spender */\n      dup7\n        /* \"budgyToken_v2.sol\":5318:5347  _allowed[msg.sender][spender] */\n      0xffffffffffffffffffffffffffffffffffffffff\n      and\n      0xffffffffffffffffffffffffffffffffffffffff\n      and\n      dup2\n      mstore\n      0x20\n      add\n      swap1\n      dup2\n      mstore\n      0x20\n      add\n      0x00\n      keccak256\n      sload\n        /* \"budgyToken_v2.sol\":5318:5351  _allowed[msg.sender][spender].sub */\n      tag_144\n      swap1\n        /* \"budgyToken_v2.sol\":5318:5368  _allowed[msg.sender][spender].sub(subtractedValue) */\n      swap2\n      swap1\n      0xffffffff\n      and\n      jump\t// in\n    tag_202:\n        /* \"budgyToken_v2.sol\":5277:5285  _allowed */\n      0x04\n        /* \"budgyToken_v2.sol\":5277:5297  _allowed[msg.sender] */\n      0x00\n        /* \"budgyToken_v2.sol\":5286:5296  msg.sender */\n      caller\n        /* \"budgyToken_v2.sol\":5277:5297  _allowed[msg.sender] */\n      0xffffffffffffffffffffffffffffffffffffffff\n      and\n      0xffffffffffffffffffffffffffffffffffffffff\n      and\n      dup2\n      mstore\n      0x20\n      add\n      swap1\n      dup2\n      mstore\n      0x20\n      add\n      0x00\n      keccak256\n        /* \"budgyToken_v2.sol\":5277:5306  _allowed[msg.sender][spender] */\n      0x00\n        /* \"budgyToken_v2.sol\":5298:5305  spender */\n      dup6\n        /* \"budgyToken_v2.sol\":5277:5306  _allowed[msg.sender][spender] */\n      0xffffffffffffffffffffffffffffffffffffffff\n      and\n      0xffffffffffffffffffffffffffffffffffffffff\n      and\n      dup2\n      mstore\n      0x20\n      add\n      swap1\n      dup2\n      mstore\n      0x20\n      add\n      0x00\n      keccak256\n        /* \"budgyToken_v2.sol\":5277:5369  _allowed[msg.sender][spender] = (... */\n      dup2\n      swap1\n      sstore\n      pop\n        /* \"budgyToken_v2.sol\":5402:5409  spender */\n      dup3\n        /* \"budgyToken_v2.sol\":5381:5441  Approval(msg.sender, spender, _allowed[msg.sender][spender]) */\n      0xffffffffffffffffffffffffffffffffffffffff\n      and\n        /* \"budgyToken_v2.sol\":5390:5400  msg.sender */\n      caller\n        /* \"budgyToken_v2.sol\":5381:5441  Approval(msg.sender, spender, _allowed[msg.sender][spender]) */\n      0xffffffffffffffffffffffffffffffffffffffff\n      and\n      0x8c5be1e5ebec7d5bd14f71427d1e84f3dd0314c0f7b2291e5b200ac8c7c3b925\n        /* \"budgyToken_v2.sol\":5411:5419  _allowed */\n      0x04\n        /* \"budgyToken_v2.sol\":5411:5431  _allowed[msg.sender] */\n      0x00\n        /* \"budgyToken_v2.sol\":5420:5430  msg.sender */\n      caller\n        /* \"budgyToken_v2.sol\":5411:5431  _allowed[msg.sender] */\n      0xffffffffffffffffffffffffffffffffffffffff\n      and\n      0xffffffffffffffffffffffffffffffffffffffff\n      and\n      dup2\n      mstore\n      0x20\n      add\n      swap1\n      dup2\n      mstore\n      0x20\n      add\n      0x00\n      keccak256\n        /* \"budgyToken_v2.sol\":5411:5440  _allowed[msg.sender][spender] */\n      0x00\n        /* \"budgyToken_v2.sol\":5432:5439  spender */\n      dup8\n        /* \"budgyToken_v2.sol\":5411:5440  _allowed[msg.sender][spender] */\n      0xffffffffffffffffffffffffffffffffffffffff\n      and\n      0xffffffffffffffffffffffffffffffffffffffff\n      and\n      dup2\n      mstore\n      0x20\n      add\n      swap1\n      dup2\n      mstore\n      0x20\n      add\n      0x00\n      keccak256\n      sload\n        /* \"budgyToken_v2.sol\":5381:5441  Approval(msg.sender, spender, _allowed[msg.sender][spender]) */\n      mload(0x40)\n      tag_203\n      swap2\n      swap1\n      tag_38\n      jump\t// in\n    tag_203:\n      mload(0x40)\n      dup1\n      swap2\n      sub\n      swap1\n      log3\n        /* \"budgyToken_v2.sol\":5455:5459  true */\n      0x01\n        /* \"budgyToken_v2.sol\":5448:5459  return true */\n      swap1\n      pop\n        /* \"budgyToken_v2.sol\":5142:5465  function decreaseAllowance(address spender,uint256 subtractedValue) public returns (bool){... */\n      swap3\n      swap2\n      pop\n      pop\n      jump\t// out\n        /* \"budgyToken_v2.sol\":956:994  mapping (address => User) public users */\n    tag_128:\n      mstore(0x20, 0x02)\n      dup1\n      0x00\n      mstore\n      keccak256(0x00, 0x40)\n      0x00\n      swap2\n      pop\n      swap1\n      pop\n      dup1\n      0x00\n      add\n      0x00\n      swap1\n      sload\n      swap1\n      0x0100\n      exp\n      swap1\n      div\n      0xffffffffffffffffffffffffffffffffffffffff\n      and\n      swap1\n      dup1\n      0x00\n      add\n      0x14\n      swap1\n      sload\n      swap1\n      0x0100\n      exp\n      swap1\n      div\n      0xff\n      and\n      swap1\n      pop\n      dup3\n      jump\t// out\n        /* \"budgyToken_v2.sol\":3425:3841  function transfer(address to, uint256 value) public override returns (bool) {... */\n    tag_134:\n        /* \"budgyToken_v2.sol\":3495:3499  bool */\n      0x00\n        /* \"budgyToken_v2.sol\":3525:3534  _balances */\n      0x03\n        /* \"budgyToken_v2.sol\":3525:3546  _balances[msg.sender] */\n      0x00\n        /* \"budgyToken_v2.sol\":3535:3545  msg.sender */\n      caller\n        /* \"budgyToken_v2.sol\":3525:3546  _balances[msg.sender] */\n      0xffffffffffffffffffffffffffffffffffffffff\n      and\n      0xffffffffffffffffffffffffffffffffffffffff\n      and\n      dup2\n      mstore\n      0x20\n      add\n      swap1\n      dup2\n      mstore\n      0x20\n      add\n      0x00\n      keccak256\n      sload\n        /* \"budgyToken_v2.sol\":3516:3521  value */\n      dup3\n        /* \"budgyToken_v2.sol\":3516:3546  value <= _balances[msg.sender] */\n      gt\n      iszero\n        /* \"budgyToken_v2.sol\":3508:3547  require(value <= _balances[msg.sender]) */\n      tag_205\n      jumpi\n      0x00\n      dup1\n      revert\n    tag_205:\n        /* \"budgyToken_v2.sol\":3576:3577  0 */\n      0x00\n        /* \"budgyToken_v2.sol\":3562:3578  to != address(0) */\n      0xffffffffffffffffffffffffffffffffffffffff\n      and\n        /* \"budgyToken_v2.sol\":3562:3564  to */\n      dup4\n        /* \"budgyToken_v2.sol\":3562:3578  to != address(0) */\n      0xffffffffffffffffffffffffffffffffffffffff\n      and\n      sub\n        /* \"budgyToken_v2.sol\":3554:3579  require(to != address(0)) */\n      tag_206\n      jumpi\n      0x00\n      dup1\n      revert\n    tag_206:\n        /* \"budgyToken_v2.sol\":3612:3644  _balances[msg.sender].sub(value) */\n      tag_207\n        /* \"budgyToken_v2.sol\":3638:3643  value */\n      dup3\n        /* \"budgyToken_v2.sol\":3612:3621  _balances */\n      0x03\n        /* \"budgyToken_v2.sol\":3612:3633  _balances[msg.sender] */\n      0x00\n        /* \"budgyToken_v2.sol\":3622:3632  msg.sender */\n      caller\n        /* \"budgyToken_v2.sol\":3612:3633  _balances[msg.sender] */\n      0xffffffffffffffffffffffffffffffffffffffff\n      and\n      0xffffffffffffffffffffffffffffffffffffffff\n      and\n      dup2\n      mstore\n      0x20\n      add\n      swap1\n      dup2\n      mstore\n      0x20\n      add\n      0x00\n      keccak256\n      sload\n        /* \"budgyToken_v2.sol\":3612:3637  _balances[msg.sender].sub */\n      tag_144\n      swap1\n        /* \"budgyToken_v2.sol\":3612:3644  _balances[msg.sender].sub(value) */\n      swap2\n      swap1\n      0xffffffff\n      and\n      jump\t// in\n    tag_207:\n        /* \"budgyToken_v2.sol\":3588:3597  _balances */\n      0x03\n        /* \"budgyToken_v2.sol\":3588:3609  _balances[msg.sender] */\n      0x00\n        /* \"budgyToken_v2.sol\":3598:3608  msg.sender */\n      caller\n        /* \"budgyToken_v2.sol\":3588:3609  _balances[msg.sender] */\n      0xffffffffffffffffffffffffffffffffffffffff\n      and\n      0xffffffffffffffffffffffffffffffffffffffff\n      and\n      dup2\n      mstore\n      0x20\n      add\n      swap1\n      dup2\n      mstore\n      0x20\n      add\n      0x00\n      keccak256\n        /* \"budgyToken_v2.sol\":3588:3644  _balances[msg.sender] = _balances[msg.sender].sub(value) */\n      dup2\n      swap1\n      sstore\n      pop\n        /* \"budgyToken_v2.sol\":3667:3691  _balances[to].add(value) */\n      tag_208\n        /* \"budgyToken_v2.sol\":3685:3690  value */\n      dup3\n        /* \"budgyToken_v2.sol\":3667:3676  _balances */\n      0x03\n        /* \"budgyToken_v2.sol\":3667:3680  _balances[to] */\n      0x00\n        /* \"budgyToken_v2.sol\":3677:3679  to */\n      dup7\n        /* \"budgyToken_v2.sol\":3667:3680  _balances[to] */\n      0xffffffffffffffffffffffffffffffffffffffff\n      and\n      0xffffffffffffffffffffffffffffffffffffffff\n      and\n      dup2\n      mstore\n      0x20\n      add\n      swap1\n      dup2\n      mstore\n      0x20\n      add\n      0x00\n      keccak256\n      sload\n        /* \"budgyToken_v2.sol\":3667:3684  _balances[to].add */\n      tag_146\n      swap1\n        /* \"budgyToken_v2.sol\":3667:3691  _balances[to].add(value) */\n      swap2\n      swap1\n      0xffffffff\n      and\n      jump\t// in\n    tag_208:\n        /* \"budgyToken_v2.sol\":3651:3660  _balances */\n      0x03\n        /* \"budgyToken_v2.sol\":3651:3664  _balances[to] */\n      0x00\n        /* \"budgyToken_v2.sol\":3661:3663  to */\n      dup6\n        /* \"budgyToken_v2.sol\":3651:3664  _balances[to] */\n      0xffffffffffffffffffffffffffffffffffffffff\n      and\n      0xffffffffffffffffffffffffffffffffffffffff\n      and\n      dup2\n      mstore\n      0x20\n      add\n      swap1\n      dup2\n      mstore\n      0x20\n      add\n      0x00\n      keccak256\n        /* \"budgyToken_v2.sol\":3651:3691  _balances[to] = _balances[to].add(value) */\n      dup2\n      swap1\n      sstore\n      pop\n        /* \"budgyToken_v2.sol\":3724:3726  to */\n      dup3\n        /* \"budgyToken_v2.sol\":3703:3734  Transfer(msg.sender, to, value) */\n      0xffffffffffffffffffffffffffffffffffffffff\n      and\n        /* \"budgyToken_v2.sol\":3712:3722  msg.sender */\n      caller\n        /* \"budgyToken_v2.sol\":3703:3734  Transfer(msg.sender, to, value) */\n      0xffffffffffffffffffffffffffffffffffffffff\n      and\n      0xddf252ad1be2c89b69c2b068fc378daa952ba7f163c4a11628f55a4df523b3ef\n        /* \"budgyToken_v2.sol\":3728:3733  value */\n      dup5\n        /* \"budgyToken_v2.sol\":3703:3734  Transfer(msg.sender, to, value) */\n      mload(0x40)\n      tag_209\n      swap2\n      swap1\n      tag_38\n      jump\t// in\n    tag_209:\n      mload(0x40)\n      dup1\n      swap2\n      sub\n      swap1\n      log3\n        /* \"budgyToken_v2.sol\":3741:3752  bool addNew */\n      0x00\n        /* \"budgyToken_v2.sol\":3755:3766  newUser(to) */\n      tag_210\n        /* \"budgyToken_v2.sol\":3763:3765  to */\n      dup5\n        /* \"budgyToken_v2.sol\":3755:3762  newUser */\n      tag_57\n        /* \"budgyToken_v2.sol\":3755:3766  newUser(to) */\n      jump\t// in\n    tag_210:\n        /* \"budgyToken_v2.sol\":3741:3766  bool addNew = newUser(to) */\n      swap1\n      pop\n        /* \"budgyToken_v2.sol\":3776:3782  addNew */\n      dup1\n        /* \"budgyToken_v2.sol\":3773:3818  if(addNew){... */\n      iszero\n      tag_211\n      jumpi\n        /* \"budgyToken_v2.sol\":3792:3810  updateUserData(to) */\n      tag_212\n        /* \"budgyToken_v2.sol\":3807:3809  to */\n      dup5\n        /* \"budgyToken_v2.sol\":3792:3806  updateUserData */\n      tag_72\n        /* \"budgyToken_v2.sol\":3792:3810  updateUserData(to) */\n      jump\t// in\n    tag_212:\n      pop\n        /* \"budgyToken_v2.sol\":3773:3818  if(addNew){... */\n    tag_211:\n        /* \"budgyToken_v2.sol\":3831:3835  true */\n      0x01\n        /* \"budgyToken_v2.sol\":3824:3835  return true */\n      swap2\n      pop\n      pop\n        /* \"budgyToken_v2.sol\":3425:3841  function transfer(address to, uint256 value) public override returns (bool) {... */\n      swap3\n      swap2\n      pop\n      pop\n      jump\t// out\n        /* \"budgyToken_v2.sol\":3288:3419  function allowance(address owner,address spender)public override view returns (uint256){... */\n    tag_139:\n        /* \"budgyToken_v2.sol\":3367:3374  uint256 */\n      0x00\n        /* \"budgyToken_v2.sol\":3389:3397  _allowed */\n      0x04\n        /* \"budgyToken_v2.sol\":3389:3404  _allowed[owner] */\n      0x00\n        /* \"budgyToken_v2.sol\":3398:3403  owner */\n      dup5\n        /* \"budgyToken_v2.sol\":3389:3404  _allowed[owner] */\n      0xffffffffffffffffffffffffffffffffffffffff\n      and\n      0xffffffffffffffffffffffffffffffffffffffff\n      and\n      dup2\n      mstore\n      0x20\n      add\n      swap1\n      dup2\n      mstore\n      0x20\n      add\n      0x00\n      keccak256\n        /* \"budgyToken_v2.sol\":3389:3413  _allowed[owner][spender] */\n      0x00\n        /* \"budgyToken_v2.sol\":3405:3412  spender */\n      dup4\n        /* \"budgyToken_v2.sol\":3389:3413  _allowed[owner][spender] */\n      0xffffffffffffffffffffffffffffffffffffffff\n      and\n      0xffffffffffffffffffffffffffffffffffffffff\n      and\n      dup2\n      mstore\n      0x20\n      add\n      swap1\n      dup2\n      mstore\n      0x20\n      add\n      0x00\n      keccak256\n      sload\n        /* \"budgyToken_v2.sol\":3382:3413  return _allowed[owner][spender] */\n      swap1\n      pop\n        /* \"budgyToken_v2.sol\":3288:3419  function allowance(address owner,address spender)public override view returns (uint256){... */\n      swap3\n      swap2\n      pop\n      pop\n      jump\t// out\n        /* \"libraries/SafeMath.sol\":331:460  function sub(uint x, uint y) internal pure returns (uint z) {... */\n    tag_144:\n        /* \"libraries/SafeMath.sol\":383:389  uint z */\n      0x00\n        /* \"libraries/SafeMath.sol\":425:426  x */\n      dup3\n        /* \"libraries/SafeMath.sol\":419:420  y */\n      dup3\n        /* \"libraries/SafeMath.sol\":415:416  x */\n      dup5\n        /* \"libraries/SafeMath.sol\":415:420  x - y */\n      tag_215\n      swap2\n      swap1\n      tag_216\n      jump\t// in\n    tag_215:\n        /* \"libraries/SafeMath.sol\":411:420  z = x - y */\n      swap2\n      pop\n      dup2\n        /* \"libraries/SafeMath.sol\":410:426  (z = x - y) <= x */\n      gt\n      iszero\n        /* \"libraries/SafeMath.sol\":402:452  require((z = x - y) <= x, 'ds-math-sub-underflow') */\n      tag_217\n      jumpi\n      mload(0x40)\n      0x08c379a000000000000000000000000000000000000000000000000000000000\n      dup2\n      mstore\n      0x04\n      add\n      tag_218\n      swap1\n      tag_219\n      jump\t// in\n    tag_218:\n      mload(0x40)\n      dup1\n      swap2\n      sub\n      swap1\n      revert\n    tag_217:\n        /* \"libraries/SafeMath.sol\":331:460  function sub(uint x, uint y) internal pure returns (uint z) {... */\n      swap3\n      swap2\n      pop\n      pop\n      jump\t// out\n        /* \"libraries/SafeMath.sol\":199:323  function add(uint x, uint y) internal pure returns (uint z) {... */\n    tag_146:\n        /* \"libraries/SafeMath.sol\":251:257  uint z */\n      0x00\n        /* \"libraries/SafeMath.sol\":289:290  x */\n      dup3\n        /* \"libraries/SafeMath.sol\":283:284  y */\n      dup3\n        /* \"libraries/SafeMath.sol\":279:280  x */\n      dup5\n        /* \"libraries/SafeMath.sol\":279:284  x + y */\n      tag_221\n      swap2\n      swap1\n      tag_180\n      jump\t// in\n    tag_221:\n        /* \"libraries/SafeMath.sol\":275:284  z = x + y */\n      swap2\n      pop\n      dup2\n        /* \"libraries/SafeMath.sol\":274:290  (z = x + y) >= x */\n      lt\n      iszero\n        /* \"libraries/SafeMath.sol\":266:315  require((z = x + y) >= x, 'ds-math-add-overflow') */\n      tag_222\n      jumpi\n      mload(0x40)\n      0x08c379a000000000000000000000000000000000000000000000000000000000\n      dup2\n      mstore\n      0x04\n      add\n      tag_223\n      swap1\n      tag_224\n      jump\t// in\n    tag_223:\n      mload(0x40)\n      dup1\n      swap2\n      sub\n      swap1\n      revert\n    tag_222:\n        /* \"libraries/SafeMath.sol\":199:323  function add(uint x, uint y) internal pure returns (uint z) {... */\n      swap3\n      swap2\n      pop\n      pop\n      jump\t// out\n        /* \"#utility.yul\":7:84   */\n    tag_225:\n        /* \"#utility.yul\":44:51   */\n      0x00\n        /* \"#utility.yul\":73:78   */\n      dup2\n        /* \"#utility.yul\":62:78   */\n      swap1\n      pop\n        /* \"#utility.yul\":7:84   */\n      swap2\n      swap1\n      pop\n      jump\t// out\n        /* \"#utility.yul\":90:270   */\n    tag_226:\n        /* \"#utility.yul\":138:215   */\n      0x4e487b7100000000000000000000000000000000000000000000000000000000\n        /* \"#utility.yul\":135:136   */\n      0x00\n        /* \"#utility.yul\":128:216   */\n      mstore\n        /* \"#utility.yul\":235:239   */\n      0x11\n        /* \"#utility.yul\":232:233   */\n      0x04\n        /* \"#utility.yul\":225:240   */\n      mstore\n        /* \"#utility.yul\":259:263   */\n      0x24\n        /* \"#utility.yul\":256:257   */\n      0x00\n        /* \"#utility.yul\":249:264   */\n      revert\n        /* \"#utility.yul\":276:686   */\n    tag_29:\n        /* \"#utility.yul\":316:323   */\n      0x00\n        /* \"#utility.yul\":339:359   */\n      tag_259\n        /* \"#utility.yul\":357:358   */\n      dup3\n        /* \"#utility.yul\":339:359   */\n      tag_225\n      jump\t// in\n    tag_259:\n        /* \"#utility.yul\":334:359   */\n      swap2\n      pop\n        /* \"#utility.yul\":373:393   */\n      tag_260\n        /* \"#utility.yul\":391:392   */\n      dup4\n        /* \"#utility.yul\":373:393   */\n      tag_225\n      jump\t// in\n    tag_260:\n        /* \"#utility.yul\":368:393   */\n      swap3\n      pop\n        /* \"#utility.yul\":428:429   */\n      dup3\n        /* \"#utility.yul\":425:426   */\n      dup3\n        /* \"#utility.yul\":421:430   */\n      mul\n        /* \"#utility.yul\":450:480   */\n      tag_261\n        /* \"#utility.yul\":468:479   */\n      dup2\n        /* \"#utility.yul\":450:480   */\n      tag_225\n      jump\t// in\n    tag_261:\n        /* \"#utility.yul\":439:480   */\n      swap2\n      pop\n        /* \"#utility.yul\":629:630   */\n      dup3\n        /* \"#utility.yul\":620:627   */\n      dup3\n        /* \"#utility.yul\":616:631   */\n      div\n        /* \"#utility.yul\":613:614   */\n      dup5\n        /* \"#utility.yul\":610:632   */\n      eq\n        /* \"#utility.yul\":590:591   */\n      dup4\n        /* \"#utility.yul\":583:592   */\n      iszero\n        /* \"#utility.yul\":563:646   */\n      or\n        /* \"#utility.yul\":540:679   */\n      tag_262\n      jumpi\n        /* \"#utility.yul\":659:677   */\n      tag_263\n      tag_226\n      jump\t// in\n    tag_263:\n        /* \"#utility.yul\":540:679   */\n    tag_262:\n        /* \"#utility.yul\":324:686   */\n      pop\n        /* \"#utility.yul\":276:686   */\n      swap3\n      swap2\n      pop\n      pop\n      jump\t// out\n        /* \"#utility.yul\":692:861   */\n    tag_227:\n        /* \"#utility.yul\":776:787   */\n      0x00\n        /* \"#utility.yul\":810:816   */\n      dup3\n        /* \"#utility.yul\":805:808   */\n      dup3\n        /* \"#utility.yul\":798:817   */\n      mstore\n        /* \"#utility.yul\":850:854   */\n      0x20\n        /* \"#utility.yul\":845:848   */\n      dup3\n        /* \"#utility.yul\":841:855   */\n      add\n        /* \"#utility.yul\":826:855   */\n      swap1\n      pop\n        /* \"#utility.yul\":692:861   */\n      swap3\n      swap2\n      pop\n      pop\n      jump\t// out\n        /* \"#utility.yul\":867:1034   */\n    tag_228:\n        /* \"#utility.yul\":1007:1026   */\n      0x4e6f7420656e6f75676820746f6b656e73000000000000000000000000000000\n        /* \"#utility.yul\":1003:1004   */\n      0x00\n        /* \"#utility.yul\":995:1001   */\n      dup3\n        /* \"#utility.yul\":991:1005   */\n      add\n        /* \"#utility.yul\":984:1027   */\n      mstore\n        /* \"#utility.yul\":867:1034   */\n      pop\n      jump\t// out\n        /* \"#utility.yul\":1040:1406   */\n    tag_229:\n        /* \"#utility.yul\":1182:1185   */\n      0x00\n        /* \"#utility.yul\":1203:1270   */\n      tag_267\n        /* \"#utility.yul\":1267:1269   */\n      0x11\n        /* \"#utility.yul\":1262:1265   */\n      dup4\n        /* \"#utility.yul\":1203:1270   */\n      tag_227\n      jump\t// in\n    tag_267:\n        /* \"#utility.yul\":1196:1270   */\n      swap2\n      pop\n        /* \"#utility.yul\":1279:1372   */\n      tag_268\n        /* \"#utility.yul\":1368:1371   */\n      dup3\n        /* \"#utility.yul\":1279:1372   */\n      tag_228\n      jump\t// in\n    tag_268:\n        /* \"#utility.yul\":1397:1399   */\n      0x20\n        /* \"#utility.yul\":1392:1395   */\n      dup3\n        /* \"#utility.yul\":1388:1400   */\n      add\n        /* \"#utility.yul\":1381:1400   */\n      swap1\n      pop\n        /* \"#utility.yul\":1040:1406   */\n      swap2\n      swap1\n      pop\n      jump\t// out\n        /* \"#utility.yul\":1412:1831   */\n    tag_34:\n        /* \"#utility.yul\":1578:1582   */\n      0x00\n        /* \"#utility.yul\":1616:1618   */\n      0x20\n        /* \"#utility.yul\":1605:1614   */\n      dup3\n        /* \"#utility.yul\":1601:1619   */\n      add\n        /* \"#utility.yul\":1593:1619   */\n      swap1\n      pop\n        /* \"#utility.yul\":1665:1674   */\n      dup2\n        /* \"#utility.yul\":1659:1663   */\n      dup2\n        /* \"#utility.yul\":1655:1675   */\n      sub\n        /* \"#utility.yul\":1651:1652   */\n      0x00\n        /* \"#utility.yul\":1640:1649   */\n      dup4\n        /* \"#utility.yul\":1636:1653   */\n      add\n        /* \"#utility.yul\":1629:1676   */\n      mstore\n        /* \"#utility.yul\":1693:1824   */\n      tag_270\n        /* \"#utility.yul\":1819:1823   */\n      dup2\n        /* \"#utility.yul\":1693:1824   */\n      tag_229\n      jump\t// in\n    tag_270:\n        /* \"#utility.yul\":1685:1824   */\n      swap1\n      pop\n        /* \"#utility.yul\":1412:1831   */\n      swap2\n      swap1\n      pop\n      jump\t// out\n        /* \"#utility.yul\":1837:1955   */\n    tag_230:\n        /* \"#utility.yul\":1924:1948   */\n      tag_272\n        /* \"#utility.yul\":1942:1947   */\n      dup2\n        /* \"#utility.yul\":1924:1948   */\n      tag_225\n      jump\t// in\n    tag_272:\n        /* \"#utility.yul\":1919:1922   */\n      dup3\n        /* \"#utility.yul\":1912:1949   */\n      mstore\n        /* \"#utility.yul\":1837:1955   */\n      pop\n      pop\n      jump\t// out\n        /* \"#utility.yul\":1961:2183   */\n    tag_38:\n        /* \"#utility.yul\":2054:2058   */\n      0x00\n        /* \"#utility.yul\":2092:2094   */\n      0x20\n        /* \"#utility.yul\":2081:2090   */\n      dup3\n        /* \"#utility.yul\":2077:2095   */\n      add\n        /* \"#utility.yul\":2069:2095   */\n      swap1\n      pop\n        /* \"#utility.yul\":2105:2176   */\n      tag_274\n        /* \"#utility.yul\":2173:2174   */\n      0x00\n        /* \"#utility.yul\":2162:2171   */\n      dup4\n        /* \"#utility.yul\":2158:2175   */\n      add\n        /* \"#utility.yul\":2149:2155   */\n      dup5\n        /* \"#utility.yul\":2105:2176   */\n      tag_230\n      jump\t// in\n    tag_274:\n        /* \"#utility.yul\":1961:2183   */\n      swap3\n      swap2\n      pop\n      pop\n      jump\t// out\n        /* \"#utility.yul\":2189:2288   */\n    tag_231:\n        /* \"#utility.yul\":2241:2247   */\n      0x00\n        /* \"#utility.yul\":2275:2280   */\n      dup2\n        /* \"#utility.yul\":2269:2281   */\n      mload\n        /* \"#utility.yul\":2259:2281   */\n      swap1\n      pop\n        /* \"#utility.yul\":2189:2288   */\n      swap2\n      swap1\n      pop\n      jump\t// out\n        /* \"#utility.yul\":2294:2540   */\n    tag_232:\n        /* \"#utility.yul\":2375:2376   */\n      0x00\n        /* \"#utility.yul\":2385:2498   */\n    tag_277:\n        /* \"#utility.yul\":2399:2405   */\n      dup4\n        /* \"#utility.yul\":2396:2397   */\n      dup2\n        /* \"#utility.yul\":2393:2406   */\n      lt\n        /* \"#utility.yul\":2385:2498   */\n      iszero\n      tag_279\n      jumpi\n        /* \"#utility.yul\":2484:2485   */\n      dup1\n        /* \"#utility.yul\":2479:2482   */\n      dup3\n        /* \"#utility.yul\":2475:2486   */\n      add\n        /* \"#utility.yul\":2469:2487   */\n      mload\n        /* \"#utility.yul\":2465:2466   */\n      dup2\n        /* \"#utility.yul\":2460:2463   */\n      dup5\n        /* \"#utility.yul\":2456:2467   */\n      add\n        /* \"#utility.yul\":2449:2488   */\n      mstore\n        /* \"#utility.yul\":2421:2423   */\n      0x20\n        /* \"#utility.yul\":2418:2419   */\n      dup2\n        /* \"#utility.yul\":2414:2424   */\n      add\n        /* \"#utility.yul\":2409:2424   */\n      swap1\n      pop\n        /* \"#utility.yul\":2385:2498   */\n      jump(tag_277)\n    tag_279:\n        /* \"#utility.yul\":2532:2533   */\n      0x00\n        /* \"#utility.yul\":2523:2529   */\n      dup5\n        /* \"#utility.yul\":2518:2521   */\n      dup5\n        /* \"#utility.yul\":2514:2530   */\n      add\n        /* \"#utility.yul\":2507:2534   */\n      mstore\n        /* \"#utility.yul\":2356:2540   */\n      pop\n        /* \"#utility.yul\":2294:2540   */\n      pop\n      pop\n      pop\n      jump\t// out\n        /* \"#utility.yul\":2546:2648   */\n    tag_233:\n        /* \"#utility.yul\":2587:2593   */\n      0x00\n        /* \"#utility.yul\":2638:2640   */\n      0x1f\n        /* \"#utility.yul\":2634:2641   */\n      not\n        /* \"#utility.yul\":2629:2631   */\n      0x1f\n        /* \"#utility.yul\":2622:2627   */\n      dup4\n        /* \"#utility.yul\":2618:2632   */\n      add\n        /* \"#utility.yul\":2614:2642   */\n      and\n        /* \"#utility.yul\":2604:2642   */\n      swap1\n      pop\n        /* \"#utility.yul\":2546:2648   */\n      swap2\n      swap1\n      pop\n      jump\t// out\n        /* \"#utility.yul\":2654:3031   */\n    tag_234:\n        /* \"#utility.yul\":2742:2745   */\n      0x00\n        /* \"#utility.yul\":2770:2809   */\n      tag_282\n        /* \"#utility.yul\":2803:2808   */\n      dup3\n        /* \"#utility.yul\":2770:2809   */\n      tag_231\n      jump\t// in\n    tag_282:\n        /* \"#utility.yul\":2825:2896   */\n      tag_283\n        /* \"#utility.yul\":2889:2895   */\n      dup2\n        /* \"#utility.yul\":2884:2887   */\n      dup6\n        /* \"#utility.yul\":2825:2896   */\n      tag_227\n      jump\t// in\n    tag_283:\n        /* \"#utility.yul\":2818:2896   */\n      swap4\n      pop\n        /* \"#utility.yul\":2905:2970   */\n      tag_284\n        /* \"#utility.yul\":2963:2969   */\n      dup2\n        /* \"#utility.yul\":2958:2961   */\n      dup6\n        /* \"#utility.yul\":2951:2955   */\n      0x20\n        /* \"#utility.yul\":2944:2949   */\n      dup7\n        /* \"#utility.yul\":2940:2956   */\n      add\n        /* \"#utility.yul\":2905:2970   */\n      tag_232\n      jump\t// in\n    tag_284:\n        /* \"#utility.yul\":2995:3024   */\n      tag_285\n        /* \"#utility.yul\":3017:3023   */\n      dup2\n        /* \"#utility.yul\":2995:3024   */\n      tag_233\n      jump\t// in\n    tag_285:\n        /* \"#utility.yul\":2990:2993   */\n      dup5\n        /* \"#utility.yul\":2986:3025   */\n      add\n        /* \"#utility.yul\":2979:3025   */\n      swap2\n      pop\n        /* \"#utility.yul\":2746:3031   */\n      pop\n        /* \"#utility.yul\":2654:3031   */\n      swap3\n      swap2\n      pop\n      pop\n      jump\t// out\n        /* \"#utility.yul\":3037:3350   */\n    tag_45:\n        /* \"#utility.yul\":3150:3154   */\n      0x00\n        /* \"#utility.yul\":3188:3190   */\n      0x20\n        /* \"#utility.yul\":3177:3186   */\n      dup3\n        /* \"#utility.yul\":3173:3191   */\n      add\n        /* \"#utility.yul\":3165:3191   */\n      swap1\n      pop\n        /* \"#utility.yul\":3237:3246   */\n      dup2\n        /* \"#utility.yul\":3231:3235   */\n      dup2\n        /* \"#utility.yul\":3227:3247   */\n      sub\n        /* \"#utility.yul\":3223:3224   */\n      0x00\n        /* \"#utility.yul\":3212:3221   */\n      dup4\n        /* \"#utility.yul\":3208:3225   */\n      add\n        /* \"#utility.yul\":3201:3248   */\n      mstore\n        /* \"#utility.yul\":3265:3343   */\n      tag_287\n        /* \"#utility.yul\":3338:3342   */\n      dup2\n        /* \"#utility.yul\":3329:3335   */\n      dup5\n        /* \"#utility.yul\":3265:3343   */\n      tag_234\n      jump\t// in\n    tag_287:\n        /* \"#utility.yul\":3257:3343   */\n      swap1\n      pop\n        /* \"#utility.yul\":3037:3350   */\n      swap3\n      swap2\n      pop\n      pop\n      jump\t// out\n        /* \"#utility.yul\":3437:3554   */\n    tag_236:\n        /* \"#utility.yul\":3546:3547   */\n      0x00\n        /* \"#utility.yul\":3543:3544   */\n      dup1\n        /* \"#utility.yul\":3536:3548   */\n      revert\n        /* \"#utility.yul\":3683:3809   */\n    tag_238:\n        /* \"#utility.yul\":3720:3727   */\n      0x00\n        /* \"#utility.yul\":3760:3802   */\n      0xffffffffffffffffffffffffffffffffffffffff\n        /* \"#utility.yul\":3753:3758   */\n      dup3\n        /* \"#utility.yul\":3749:3803   */\n      and\n        /* \"#utility.yul\":3738:3803   */\n      swap1\n      pop\n        /* \"#utility.yul\":3683:3809   */\n      swap2\n      swap1\n      pop\n      jump\t// out\n        /* \"#utility.yul\":3815:3911   */\n    tag_239:\n        /* \"#utility.yul\":3852:3859   */\n      0x00\n        /* \"#utility.yul\":3881:3905   */\n      tag_293\n        /* \"#utility.yul\":3899:3904   */\n      dup3\n        /* \"#utility.yul\":3881:3905   */\n      tag_238\n      jump\t// in\n    tag_293:\n        /* \"#utility.yul\":3870:3905   */\n      swap1\n      pop\n        /* \"#utility.yul\":3815:3911   */\n      swap2\n      swap1\n      pop\n      jump\t// out\n        /* \"#utility.yul\":3917:4039   */\n    tag_240:\n        /* \"#utility.yul\":3990:4014   */\n      tag_295\n        /* \"#utility.yul\":4008:4013   */\n      dup2\n        /* \"#utility.yul\":3990:4014   */\n      tag_239\n      jump\t// in\n    tag_295:\n        /* \"#utility.yul\":3983:3988   */\n      dup2\n        /* \"#utility.yul\":3980:4015   */\n      eq\n        /* \"#utility.yul\":3970:4033   */\n      tag_296\n      jumpi\n        /* \"#utility.yul\":4029:4030   */\n      0x00\n        /* \"#utility.yul\":4026:4027   */\n      dup1\n        /* \"#utility.yul\":4019:4031   */\n      revert\n        /* \"#utility.yul\":3970:4033   */\n    tag_296:\n        /* \"#utility.yul\":3917:4039   */\n      pop\n      jump\t// out\n        /* \"#utility.yul\":4045:4184   */\n    tag_241:\n        /* \"#utility.yul\":4091:4096   */\n      0x00\n        /* \"#utility.yul\":4129:4135   */\n      dup2\n        /* \"#utility.yul\":4116:4136   */\n      calldataload\n        /* \"#utility.yul\":4107:4136   */\n      swap1\n      pop\n        /* \"#utility.yul\":4145:4178   */\n      tag_298\n        /* \"#utility.yul\":4172:4177   */\n      dup2\n        /* \"#utility.yul\":4145:4178   */\n      tag_240\n      jump\t// in\n    tag_298:\n        /* \"#utility.yul\":4045:4184   */\n      swap3\n      swap2\n      pop\n      pop\n      jump\t// out\n        /* \"#utility.yul\":4190:4312   */\n    tag_242:\n        /* \"#utility.yul\":4263:4287   */\n      tag_300\n        /* \"#utility.yul\":4281:4286   */\n      dup2\n        /* \"#utility.yul\":4263:4287   */\n      tag_225\n      jump\t// in\n    tag_300:\n        /* \"#utility.yul\":4256:4261   */\n      dup2\n        /* \"#utility.yul\":4253:4288   */\n      eq\n        /* \"#utility.yul\":4243:4306   */\n      tag_301\n      jumpi\n        /* \"#utility.yul\":4302:4303   */\n      0x00\n        /* \"#utility.yul\":4299:4300   */\n      dup1\n        /* \"#utility.yul\":4292:4304   */\n      revert\n        /* \"#utility.yul\":4243:4306   */\n    tag_301:\n        /* \"#utility.yul\":4190:4312   */\n      pop\n      jump\t// out\n        /* \"#utility.yul\":4318:4457   */\n    tag_243:\n        /* \"#utility.yul\":4364:4369   */\n      0x00\n        /* \"#utility.yul\":4402:4408   */\n      dup2\n        /* \"#utility.yul\":4389:4409   */\n      calldataload\n        /* \"#utility.yul\":4380:4409   */\n      swap1\n      pop\n        /* \"#utility.yul\":4418:4451   */\n      tag_303\n        /* \"#utility.yul\":4445:4450   */\n      dup2\n        /* \"#utility.yul\":4418:4451   */\n      tag_242\n      jump\t// in\n    tag_303:\n        /* \"#utility.yul\":4318:4457   */\n      swap3\n      swap2\n      pop\n      pop\n      jump\t// out\n        /* \"#utility.yul\":4463:4937   */\n    tag_49:\n        /* \"#utility.yul\":4531:4537   */\n      0x00\n        /* \"#utility.yul\":4539:4545   */\n      dup1\n        /* \"#utility.yul\":4588:4590   */\n      0x40\n        /* \"#utility.yul\":4576:4585   */\n      dup4\n        /* \"#utility.yul\":4567:4574   */\n      dup6\n        /* \"#utility.yul\":4563:4586   */\n      sub\n        /* \"#utility.yul\":4559:4591   */\n      slt\n        /* \"#utility.yul\":4556:4675   */\n      iszero\n      tag_305\n      jumpi\n        /* \"#utility.yul\":4594:4673   */\n      tag_306\n      tag_236\n      jump\t// in\n    tag_306:\n        /* \"#utility.yul\":4556:4675   */\n    tag_305:\n        /* \"#utility.yul\":4714:4715   */\n      0x00\n        /* \"#utility.yul\":4739:4792   */\n      tag_307\n        /* \"#utility.yul\":4784:4791   */\n      dup6\n        /* \"#utility.yul\":4775:4781   */\n      dup3\n        /* \"#utility.yul\":4764:4773   */\n      dup7\n        /* \"#utility.yul\":4760:4782   */\n      add\n        /* \"#utility.yul\":4739:4792   */\n      tag_241\n      jump\t// in\n    tag_307:\n        /* \"#utility.yul\":4729:4792   */\n      swap3\n      pop\n        /* \"#utility.yul\":4685:4802   */\n      pop\n        /* \"#utility.yul\":4841:4843   */\n      0x20\n        /* \"#utility.yul\":4867:4920   */\n      tag_308\n        /* \"#utility.yul\":4912:4919   */\n      dup6\n        /* \"#utility.yul\":4903:4909   */\n      dup3\n        /* \"#utility.yul\":4892:4901   */\n      dup7\n        /* \"#utility.yul\":4888:4910   */\n      add\n        /* \"#utility.yul\":4867:4920   */\n      tag_243\n      jump\t// in\n    tag_308:\n        /* \"#utility.yul\":4857:4920   */\n      swap2\n      pop\n        /* \"#utility.yul\":4812:4930   */\n      pop\n        /* \"#utility.yul\":4463:4937   */\n      swap3\n      pop\n      swap3\n      swap1\n      pop\n      jump\t// out\n        /* \"#utility.yul\":4943:5033   */\n    tag_244:\n        /* \"#utility.yul\":4977:4984   */\n      0x00\n        /* \"#utility.yul\":5020:5025   */\n      dup2\n        /* \"#utility.yul\":5013:5026   */\n      iszero\n        /* \"#utility.yul\":5006:5027   */\n      iszero\n        /* \"#utility.yul\":4995:5027   */\n      swap1\n      pop\n        /* \"#utility.yul\":4943:5033   */\n      swap2\n      swap1\n      pop\n      jump\t// out\n        /* \"#utility.yul\":5039:5148   */\n    tag_245:\n        /* \"#utility.yul\":5120:5141   */\n      tag_311\n        /* \"#utility.yul\":5135:5140   */\n      dup2\n        /* \"#utility.yul\":5120:5141   */\n      tag_244\n      jump\t// in\n    tag_311:\n        /* \"#utility.yul\":5115:5118   */\n      dup3\n        /* \"#utility.yul\":5108:5142   */\n      mstore\n        /* \"#utility.yul\":5039:5148   */\n      pop\n      pop\n      jump\t// out\n        /* \"#utility.yul\":5154:5364   */\n    tag_52:\n        /* \"#utility.yul\":5241:5245   */\n      0x00\n        /* \"#utility.yul\":5279:5281   */\n      0x20\n        /* \"#utility.yul\":5268:5277   */\n      dup3\n        /* \"#utility.yul\":5264:5282   */\n      add\n        /* \"#utility.yul\":5256:5282   */\n      swap1\n      pop\n        /* \"#utility.yul\":5292:5357   */\n      tag_313\n        /* \"#utility.yul\":5354:5355   */\n      0x00\n        /* \"#utility.yul\":5343:5352   */\n      dup4\n        /* \"#utility.yul\":5339:5356   */\n      add\n        /* \"#utility.yul\":5330:5336   */\n      dup5\n        /* \"#utility.yul\":5292:5357   */\n      tag_245\n      jump\t// in\n    tag_313:\n        /* \"#utility.yul\":5154:5364   */\n      swap3\n      swap2\n      pop\n      pop\n      jump\t// out\n        /* \"#utility.yul\":5370:5699   */\n    tag_56:\n        /* \"#utility.yul\":5429:5435   */\n      0x00\n        /* \"#utility.yul\":5478:5480   */\n      0x20\n        /* \"#utility.yul\":5466:5475   */\n      dup3\n        /* \"#utility.yul\":5457:5464   */\n      dup5\n        /* \"#utility.yul\":5453:5476   */\n      sub\n        /* \"#utility.yul\":5449:5481   */\n      slt\n        /* \"#utility.yul\":5446:5565   */\n      iszero\n      tag_315\n      jumpi\n        /* \"#utility.yul\":5484:5563   */\n      tag_316\n      tag_236\n      jump\t// in\n    tag_316:\n        /* \"#utility.yul\":5446:5565   */\n    tag_315:\n        /* \"#utility.yul\":5604:5605   */\n      0x00\n        /* \"#utility.yul\":5629:5682   */\n      tag_317\n        /* \"#utility.yul\":5674:5681   */\n      dup5\n        /* \"#utility.yul\":5665:5671   */\n      dup3\n        /* \"#utility.yul\":5654:5663   */\n      dup6\n        /* \"#utility.yul\":5650:5672   */\n      add\n        /* \"#utility.yul\":5629:5682   */\n      tag_241\n      jump\t// in\n    tag_317:\n        /* \"#utility.yul\":5619:5682   */\n      swap2\n      pop\n        /* \"#utility.yul\":5575:5692   */\n      pop\n        /* \"#utility.yul\":5370:5699   */\n      swap3\n      swap2\n      pop\n      pop\n      jump\t// out\n        /* \"#utility.yul\":5705:6324   */\n    tag_66:\n        /* \"#utility.yul\":5782:5788   */\n      0x00\n        /* \"#utility.yul\":5790:5796   */\n      dup1\n        /* \"#utility.yul\":5798:5804   */\n      0x00\n        /* \"#utility.yul\":5847:5849   */\n      0x60\n        /* \"#utility.yul\":5835:5844   */\n      dup5\n        /* \"#utility.yul\":5826:5833   */\n      dup7\n        /* \"#utility.yul\":5822:5845   */\n      sub\n        /* \"#utility.yul\":5818:5850   */\n      slt\n        /* \"#utility.yul\":5815:5934   */\n      iszero\n      tag_319\n      jumpi\n        /* \"#utility.yul\":5853:5932   */\n      tag_320\n      tag_236\n      jump\t// in\n    tag_320:\n        /* \"#utility.yul\":5815:5934   */\n    tag_319:\n        /* \"#utility.yul\":5973:5974   */\n      0x00\n        /* \"#utility.yul\":5998:6051   */\n      tag_321\n        /* \"#utility.yul\":6043:6050   */\n      dup7\n        /* \"#utility.yul\":6034:6040   */\n      dup3\n        /* \"#utility.yul\":6023:6032   */\n      dup8\n        /* \"#utility.yul\":6019:6041   */\n      add\n        /* \"#utility.yul\":5998:6051   */\n      tag_241\n      jump\t// in\n    tag_321:\n        /* \"#utility.yul\":5988:6051   */\n      swap4\n      pop\n        /* \"#utility.yul\":5944:6061   */\n      pop\n        /* \"#utility.yul\":6100:6102   */\n      0x20\n        /* \"#utility.yul\":6126:6179   */\n      tag_322\n        /* \"#utility.yul\":6171:6178   */\n      dup7\n        /* \"#utility.yul\":6162:6168   */\n      dup3\n        /* \"#utility.yul\":6151:6160   */\n      dup8\n        /* \"#utility.yul\":6147:6169   */\n      add\n        /* \"#utility.yul\":6126:6179   */\n      tag_241\n      jump\t// in\n    tag_322:\n        /* \"#utility.yul\":6116:6179   */\n      swap3\n      pop\n        /* \"#utility.yul\":6071:6189   */\n      pop\n        /* \"#utility.yul\":6228:6230   */\n      0x40\n        /* \"#utility.yul\":6254:6307   */\n      tag_323\n        /* \"#utility.yul\":6299:6306   */\n      dup7\n        /* \"#utility.yul\":6290:6296   */\n      dup3\n        /* \"#utility.yul\":6279:6288   */\n      dup8\n        /* \"#utility.yul\":6275:6297   */\n      add\n        /* \"#utility.yul\":6254:6307   */\n      tag_243\n      jump\t// in\n    tag_323:\n        /* \"#utility.yul\":6244:6307   */\n      swap2\n      pop\n        /* \"#utility.yul\":6199:6317   */\n      pop\n        /* \"#utility.yul\":5705:6324   */\n      swap3\n      pop\n      swap3\n      pop\n      swap3\n      jump\t// out\n        /* \"#utility.yul\":6330:6416   */\n    tag_246:\n        /* \"#utility.yul\":6365:6372   */\n      0x00\n        /* \"#utility.yul\":6405:6409   */\n      0xff\n        /* \"#utility.yul\":6398:6403   */\n      dup3\n        /* \"#utility.yul\":6394:6410   */\n      and\n        /* \"#utility.yul\":6383:6410   */\n      swap1\n      pop\n        /* \"#utility.yul\":6330:6416   */\n      swap2\n      swap1\n      pop\n      jump\t// out\n        /* \"#utility.yul\":6422:6534   */\n    tag_247:\n        /* \"#utility.yul\":6505:6527   */\n      tag_326\n        /* \"#utility.yul\":6521:6526   */\n      dup2\n        /* \"#utility.yul\":6505:6527   */\n      tag_246\n      jump\t// in\n    tag_326:\n        /* \"#utility.yul\":6500:6503   */\n      dup3\n        /* \"#utility.yul\":6493:6528   */\n      mstore\n        /* \"#utility.yul\":6422:6534   */\n      pop\n      pop\n      jump\t// out\n        /* \"#utility.yul\":6540:6754   */\n    tag_78:\n        /* \"#utility.yul\":6629:6633   */\n      0x00\n        /* \"#utility.yul\":6667:6669   */\n      0x20\n        /* \"#utility.yul\":6656:6665   */\n      dup3\n        /* \"#utility.yul\":6652:6670   */\n      add\n        /* \"#utility.yul\":6644:6670   */\n      swap1\n      pop\n        /* \"#utility.yul\":6680:6747   */\n      tag_328\n        /* \"#utility.yul\":6744:6745   */\n      0x00\n        /* \"#utility.yul\":6733:6742   */\n      dup4\n        /* \"#utility.yul\":6729:6746   */\n      add\n        /* \"#utility.yul\":6720:6726   */\n      dup5\n        /* \"#utility.yul\":6680:6747   */\n      tag_247\n      jump\t// in\n    tag_328:\n        /* \"#utility.yul\":6540:6754   */\n      swap3\n      swap2\n      pop\n      pop\n      jump\t// out\n        /* \"#utility.yul\":6760:7234   */\n    tag_100:\n        /* \"#utility.yul\":6828:6834   */\n      0x00\n        /* \"#utility.yul\":6836:6842   */\n      dup1\n        /* \"#utility.yul\":6885:6887   */\n      0x40\n        /* \"#utility.yul\":6873:6882   */\n      dup4\n        /* \"#utility.yul\":6864:6871   */\n      dup6\n        /* \"#utility.yul\":6860:6883   */\n      sub\n        /* \"#utility.yul\":6856:6888   */\n      slt\n        /* \"#utility.yul\":6853:6972   */\n      iszero\n      tag_330\n      jumpi\n        /* \"#utility.yul\":6891:6970   */\n      tag_331\n      tag_236\n      jump\t// in\n    tag_331:\n        /* \"#utility.yul\":6853:6972   */\n    tag_330:\n        /* \"#utility.yul\":7011:7012   */\n      0x00\n        /* \"#utility.yul\":7036:7089   */\n      tag_332\n        /* \"#utility.yul\":7081:7088   */\n      dup6\n        /* \"#utility.yul\":7072:7078   */\n      dup3\n        /* \"#utility.yul\":7061:7070   */\n      dup7\n        /* \"#utility.yul\":7057:7079   */\n      add\n        /* \"#utility.yul\":7036:7089   */\n      tag_241\n      jump\t// in\n    tag_332:\n        /* \"#utility.yul\":7026:7089   */\n      swap3\n      pop\n        /* \"#utility.yul\":6982:7099   */\n      pop\n        /* \"#utility.yul\":7138:7140   */\n      0x20\n        /* \"#utility.yul\":7164:7217   */\n      tag_333\n        /* \"#utility.yul\":7209:7216   */\n      dup6\n        /* \"#utility.yul\":7200:7206   */\n      dup3\n        /* \"#utility.yul\":7189:7198   */\n      dup7\n        /* \"#utility.yul\":7185:7207   */\n      add\n        /* \"#utility.yul\":7164:7217   */\n      tag_241\n      jump\t// in\n    tag_333:\n        /* \"#utility.yul\":7154:7217   */\n      swap2\n      pop\n        /* \"#utility.yul\":7109:7227   */\n      pop\n        /* \"#utility.yul\":6760:7234   */\n      swap3\n      pop\n      swap3\n      swap1\n      pop\n      jump\t// out\n        /* \"#utility.yul\":7240:7358   */\n    tag_248:\n        /* \"#utility.yul\":7327:7351   */\n      tag_335\n        /* \"#utility.yul\":7345:7350   */\n      dup2\n        /* \"#utility.yul\":7327:7351   */\n      tag_239\n      jump\t// in\n    tag_335:\n        /* \"#utility.yul\":7322:7325   */\n      dup3\n        /* \"#utility.yul\":7315:7352   */\n      mstore\n        /* \"#utility.yul\":7240:7358   */\n      pop\n      pop\n      jump\t// out\n        /* \"#utility.yul\":7364:7684   */\n    tag_130:\n        /* \"#utility.yul\":7479:7483   */\n      0x00\n        /* \"#utility.yul\":7517:7519   */\n      0x40\n        /* \"#utility.yul\":7506:7515   */\n      dup3\n        /* \"#utility.yul\":7502:7520   */\n      add\n        /* \"#utility.yul\":7494:7520   */\n      swap1\n      pop\n        /* \"#utility.yul\":7530:7601   */\n      tag_337\n        /* \"#utility.yul\":7598:7599   */\n      0x00\n        /* \"#utility.yul\":7587:7596   */\n      dup4\n        /* \"#utility.yul\":7583:7600   */\n      add\n        /* \"#utility.yul\":7574:7580   */\n      dup6\n        /* \"#utility.yul\":7530:7601   */\n      tag_248\n      jump\t// in\n    tag_337:\n        /* \"#utility.yul\":7611:7677   */\n      tag_338\n        /* \"#utility.yul\":7673:7675   */\n      0x20\n        /* \"#utility.yul\":7662:7671   */\n      dup4\n        /* \"#utility.yul\":7658:7676   */\n      add\n        /* \"#utility.yul\":7649:7655   */\n      dup5\n        /* \"#utility.yul\":7611:7677   */\n      tag_245\n      jump\t// in\n    tag_338:\n        /* \"#utility.yul\":7364:7684   */\n      swap4\n      swap3\n      pop\n      pop\n      pop\n      jump\t// out\n        /* \"#utility.yul\":7690:7871   */\n    tag_249:\n        /* \"#utility.yul\":7830:7863   */\n      0x45524332303a206d696e7420746f20746865207a65726f206164647265737300\n        /* \"#utility.yul\":7826:7827   */\n      0x00\n        /* \"#utility.yul\":7818:7824   */\n      dup3\n        /* \"#utility.yul\":7814:7828   */\n      add\n        /* \"#utility.yul\":7807:7864   */\n      mstore\n        /* \"#utility.yul\":7690:7871   */\n      pop\n      jump\t// out\n        /* \"#utility.yul\":7877:8243   */\n    tag_250:\n        /* \"#utility.yul\":8019:8022   */\n      0x00\n        /* \"#utility.yul\":8040:8107   */\n      tag_341\n        /* \"#utility.yul\":8104:8106   */\n      0x1f\n        /* \"#utility.yul\":8099:8102   */\n      dup4\n        /* \"#utility.yul\":8040:8107   */\n      tag_227\n      jump\t// in\n    tag_341:\n        /* \"#utility.yul\":8033:8107   */\n      swap2\n      pop\n        /* \"#utility.yul\":8116:8209   */\n      tag_342\n        /* \"#utility.yul\":8205:8208   */\n      dup3\n        /* \"#utility.yul\":8116:8209   */\n      tag_249\n      jump\t// in\n    tag_342:\n        /* \"#utility.yul\":8234:8236   */\n      0x20\n        /* \"#utility.yul\":8229:8232   */\n      dup3\n        /* \"#utility.yul\":8225:8237   */\n      add\n        /* \"#utility.yul\":8218:8237   */\n      swap1\n      pop\n        /* \"#utility.yul\":7877:8243   */\n      swap2\n      swap1\n      pop\n      jump\t// out\n        /* \"#utility.yul\":8249:8668   */\n    tag_178:\n        /* \"#utility.yul\":8415:8419   */\n      0x00\n        /* \"#utility.yul\":8453:8455   */\n      0x20\n        /* \"#utility.yul\":8442:8451   */\n      dup3\n        /* \"#utility.yul\":8438:8456   */\n      add\n        /* \"#utility.yul\":8430:8456   */\n      swap1\n      pop\n        /* \"#utility.yul\":8502:8511   */\n      dup2\n        /* \"#utility.yul\":8496:8500   */\n      dup2\n        /* \"#utility.yul\":8492:8512   */\n      sub\n        /* \"#utility.yul\":8488:8489   */\n      0x00\n        /* \"#utility.yul\":8477:8486   */\n      dup4\n        /* \"#utility.yul\":8473:8490   */\n      add\n        /* \"#utility.yul\":8466:8513   */\n      mstore\n        /* \"#utility.yul\":8530:8661   */\n      tag_344\n        /* \"#utility.yul\":8656:8660   */\n      dup2\n        /* \"#utility.yul\":8530:8661   */\n      tag_250\n      jump\t// in\n    tag_344:\n        /* \"#utility.yul\":8522:8661   */\n      swap1\n      pop\n        /* \"#utility.yul\":8249:8668   */\n      swap2\n      swap1\n      pop\n      jump\t// out\n        /* \"#utility.yul\":8674:8865   */\n    tag_180:\n        /* \"#utility.yul\":8714:8717   */\n      0x00\n        /* \"#utility.yul\":8733:8753   */\n      tag_346\n        /* \"#utility.yul\":8751:8752   */\n      dup3\n        /* \"#utility.yul\":8733:8753   */\n      tag_225\n      jump\t// in\n    tag_346:\n        /* \"#utility.yul\":8728:8753   */\n      swap2\n      pop\n        /* \"#utility.yul\":8767:8787   */\n      tag_347\n        /* \"#utility.yul\":8785:8786   */\n      dup4\n        /* \"#utility.yul\":8767:8787   */\n      tag_225\n      jump\t// in\n    tag_347:\n        /* \"#utility.yul\":8762:8787   */\n      swap3\n      pop\n        /* \"#utility.yul\":8810:8811   */\n      dup3\n        /* \"#utility.yul\":8807:8808   */\n      dup3\n        /* \"#utility.yul\":8803:8812   */\n      add\n        /* \"#utility.yul\":8796:8812   */\n      swap1\n      pop\n        /* \"#utility.yul\":8831:8834   */\n      dup1\n        /* \"#utility.yul\":8828:8829   */\n      dup3\n        /* \"#utility.yul\":8825:8835   */\n      gt\n        /* \"#utility.yul\":8822:8858   */\n      iszero\n      tag_348\n      jumpi\n        /* \"#utility.yul\":8838:8856   */\n      tag_349\n      tag_226\n      jump\t// in\n    tag_349:\n        /* \"#utility.yul\":8822:8858   */\n    tag_348:\n        /* \"#utility.yul\":8674:8865   */\n      swap3\n      swap2\n      pop\n      pop\n      jump\t// out\n        /* \"#utility.yul\":8871:9065   */\n    tag_216:\n        /* \"#utility.yul\":8911:8915   */\n      0x00\n        /* \"#utility.yul\":8931:8951   */\n      tag_351\n        /* \"#utility.yul\":8949:8950   */\n      dup3\n        /* \"#utility.yul\":8931:8951   */\n      tag_225\n      jump\t// in\n    tag_351:\n        /* \"#utility.yul\":8926:8951   */\n      swap2\n      pop\n        /* \"#utility.yul\":8965:8985   */\n      tag_352\n        /* \"#utility.yul\":8983:8984   */\n      dup4\n        /* \"#utility.yul\":8965:8985   */\n      tag_225\n      jump\t// in\n    tag_352:\n        /* \"#utility.yul\":8960:8985   */\n      swap3\n      pop\n        /* \"#utility.yul\":9009:9010   */\n      dup3\n        /* \"#utility.yul\":9006:9007   */\n      dup3\n        /* \"#utility.yul\":9002:9011   */\n      sub\n        /* \"#utility.yul\":8994:9011   */\n      swap1\n      pop\n        /* \"#utility.yul\":9033:9034   */\n      dup2\n        /* \"#utility.yul\":9027:9031   */\n      dup2\n        /* \"#utility.yul\":9024:9035   */\n      gt\n        /* \"#utility.yul\":9021:9058   */\n      iszero\n      tag_353\n      jumpi\n        /* \"#utility.yul\":9038:9056   */\n      tag_354\n      tag_226\n      jump\t// in\n    tag_354:\n        /* \"#utility.yul\":9021:9058   */\n    tag_353:\n        /* \"#utility.yul\":8871:9065   */\n      swap3\n      swap2\n      pop\n      pop\n      jump\t// out\n        /* \"#utility.yul\":9071:9242   */\n    tag_251:\n        /* \"#utility.yul\":9211:9234   */\n      0x64732d6d6174682d7375622d756e646572666c6f770000000000000000000000\n        /* \"#utility.yul\":9207:9208   */\n      0x00\n        /* \"#utility.yul\":9199:9205   */\n      dup3\n        /* \"#utility.yul\":9195:9209   */\n      add\n        /* \"#utility.yul\":9188:9235   */\n      mstore\n        /* \"#utility.yul\":9071:9242   */\n      pop\n      jump\t// out\n        /* \"#utility.yul\":9248:9614   */\n    tag_252:\n        /* \"#utility.yul\":9390:9393   */\n      0x00\n        /* \"#utility.yul\":9411:9478   */\n      tag_357\n        /* \"#utility.yul\":9475:9477   */\n      0x15\n        /* \"#utility.yul\":9470:9473   */\n      dup4\n        /* \"#utility.yul\":9411:9478   */\n      tag_227\n      jump\t// in\n    tag_357:\n        /* \"#utility.yul\":9404:9478   */\n      swap2\n      pop\n        /* \"#utility.yul\":9487:9580   */\n      tag_358\n        /* \"#utility.yul\":9576:9579   */\n      dup3\n        /* \"#utility.yul\":9487:9580   */\n      tag_251\n      jump\t// in\n    tag_358:\n        /* \"#utility.yul\":9605:9607   */\n      0x20\n        /* \"#utility.yul\":9600:9603   */\n      dup3\n        /* \"#utility.yul\":9596:9608   */\n      add\n        /* \"#utility.yul\":9589:9608   */\n      swap1\n      pop\n        /* \"#utility.yul\":9248:9614   */\n      swap2\n      swap1\n      pop\n      jump\t// out\n        /* \"#utility.yul\":9620:10039   */\n    tag_219:\n        /* \"#utility.yul\":9786:9790   */\n      0x00\n        /* \"#utility.yul\":9824:9826   */\n      0x20\n        /* \"#utility.yul\":9813:9822   */\n      dup3\n        /* \"#utility.yul\":9809:9827   */\n      add\n        /* \"#utility.yul\":9801:9827   */\n      swap1\n      pop\n        /* \"#utility.yul\":9873:9882   */\n      dup2\n        /* \"#utility.yul\":9867:9871   */\n      dup2\n        /* \"#utility.yul\":9863:9883   */\n      sub\n        /* \"#utility.yul\":9859:9860   */\n      0x00\n        /* \"#utility.yul\":9848:9857   */\n      dup4\n        /* \"#utility.yul\":9844:9861   */\n      add\n        /* \"#utility.yul\":9837:9884   */\n      mstore\n        /* \"#utility.yul\":9901:10032   */\n      tag_360\n        /* \"#utility.yul\":10027:10031   */\n      dup2\n        /* \"#utility.yul\":9901:10032   */\n      tag_252\n      jump\t// in\n    tag_360:\n        /* \"#utility.yul\":9893:10032   */\n      swap1\n      pop\n        /* \"#utility.yul\":9620:10039   */\n      swap2\n      swap1\n      pop\n      jump\t// out\n        /* \"#utility.yul\":10045:10215   */\n    tag_253:\n        /* \"#utility.yul\":10185:10207   */\n      0x64732d6d6174682d6164642d6f766572666c6f77000000000000000000000000\n        /* \"#utility.yul\":10181:10182   */\n      0x00\n        /* \"#utility.yul\":10173:10179   */\n      dup3\n        /* \"#utility.yul\":10169:10183   */\n      add\n        /* \"#utility.yul\":10162:10208   */\n      mstore\n        /* \"#utility.yul\":10045:10215   */\n      pop\n      jump\t// out\n        /* \"#utility.yul\":10221:10587   */\n    tag_254:\n        /* \"#utility.yul\":10363:10366   */\n      0x00\n        /* \"#utility.yul\":10384:10451   */\n      tag_363\n        /* \"#utility.yul\":10448:10450   */\n      0x14\n        /* \"#utility.yul\":10443:10446   */\n      dup4\n        /* \"#utility.yul\":10384:10451   */\n      tag_227\n      jump\t// in\n    tag_363:\n        /* \"#utility.yul\":10377:10451   */\n      swap2\n      pop\n        /* \"#utility.yul\":10460:10553   */\n      tag_364\n        /* \"#utility.yul\":10549:10552   */\n      dup3\n        /* \"#utility.yul\":10460:10553   */\n      tag_253\n      jump\t// in\n    tag_364:\n        /* \"#utility.yul\":10578:10580   */\n      0x20\n        /* \"#utility.yul\":10573:10576   */\n      dup3\n        /* \"#utility.yul\":10569:10581   */\n      add\n        /* \"#utility.yul\":10562:10581   */\n      swap1\n      pop\n        /* \"#utility.yul\":10221:10587   */\n      swap2\n      swap1\n      pop\n      jump\t// out\n        /* \"#utility.yul\":10593:11012   */\n    tag_224:\n        /* \"#utility.yul\":10759:10763   */\n      0x00\n        /* \"#utility.yul\":10797:10799   */\n      0x20\n        /* \"#utility.yul\":10786:10795   */\n      dup3\n        /* \"#utility.yul\":10782:10800   */\n      add\n        /* \"#utility.yul\":10774:10800   */\n      swap1\n      pop\n        /* \"#utility.yul\":10846:10855   */\n      dup2\n        /* \"#utility.yul\":10840:10844   */\n      dup2\n        /* \"#utility.yul\":10836:10856   */\n      sub\n        /* \"#utility.yul\":10832:10833   */\n      0x00\n        /* \"#utility.yul\":10821:10830   */\n      dup4\n        /* \"#utility.yul\":10817:10834   */\n      add\n        /* \"#utility.yul\":10810:10857   */\n      mstore\n        /* \"#utility.yul\":10874:11005   */\n      tag_366\n        /* \"#utility.yul\":11000:11004   */\n      dup2\n        /* \"#utility.yul\":10874:11005   */\n      tag_254\n      jump\t// in\n    tag_366:\n        /* \"#utility.yul\":10866:11005   */\n      swap1\n      pop\n        /* \"#utility.yul\":10593:11012   */\n      swap2\n      swap1\n      pop\n      jump\t// out\n    stop\n    data_0b07e07956ec390ff7e72b1318405d97a05ab399943979f0e46f84161ae1e06a 596f75206861766520756e6c6f636b65642074686520736563726574206d6573736167652e205468652073656372657420746f2068617070696e6573732061726520626972642073656564732e\n    data_c61807ddb0f4f71646a182726d8e67ede87cf92ffd23179b7a2178e99668a6f9 536f7272792c20626574746572206c75636b206e6578742074696d652067657474696e6720696e746f206f757220666c6f636b21\n\n    auxdata: 0xa26469706673582212203e6b16b9a9d5da6ae8401d24b776d395e86d7a1b814b7e0c23f969a3c98c960a64736f6c63430008120033\n}\n",
				"bytecode": {
					"linkReferences": {},
					"object": "6080604052670de0b6b3a7640000600055602a6001553480156200002257600080fd5b5033600560006101000a81548173ffffffffffffffffffffffffffffffffffffffff021916908373ffffffffffffffffffffffffffffffffffffffff16021790555060005460036000600560009054906101000a900473ffffffffffffffffffffffffffffffffffffffff1673ffffffffffffffffffffffffffffffffffffffff1673ffffffffffffffffffffffffffffffffffffffff16815260200190815260200160002081905550600560009054906101000a900473ffffffffffffffffffffffffffffffffffffffff1673ffffffffffffffffffffffffffffffffffffffff16600073ffffffffffffffffffffffffffffffffffffffff167fddf252ad1be2c89b69c2b068fc378daa952ba7f163c4a11628f55a4df523b3ef6000546040516200015091906200042a565b60405180910390a360006200018d600560009054906101000a900473ffffffffffffffffffffffffffffffffffffffff16620001d260201b60201c565b90508015620001cb57620001c9600560009054906101000a900473ffffffffffffffffffffffffffffffffffffffff166200030f60201b60201c565b505b5062000447565b6000620001e582620003b660201b60201c565b158015620002205750600073ffffffffffffffffffffffffffffffffffffffff168273ffffffffffffffffffffffffffffffffffffffff1614155b6200022a57600080fd5b81600260008473ffffffffffffffffffffffffffffffffffffffff1673ffffffffffffffffffffffffffffffffffffffff16815260200190815260200160002060000160006101000a81548173ffffffffffffffffffffffffffffffffffffffff021916908373ffffffffffffffffffffffffffffffffffffffff1602179055506001600260008473ffffffffffffffffffffffffffffffffffffffff1673ffffffffffffffffffffffffffffffffffffffff16815260200190815260200160002060000160146101000a81548160ff02191690831515021790555060019050919050565b60006200032282620003b660201b60201c565b6200032c57600080fd5b81600260008473ffffffffffffffffffffffffffffffffffffffff1673ffffffffffffffffffffffffffffffffffffffff16815260200190815260200160002060000160006101000a81548173ffffffffffffffffffffffffffffffffffffffff021916908373ffffffffffffffffffffffffffffffffffffffff16021790555060019050919050565b6000600260008373ffffffffffffffffffffffffffffffffffffffff1673ffffffffffffffffffffffffffffffffffffffff16815260200190815260200160002060000160149054906101000a900460ff169050919050565b6000819050919050565b62000424816200040f565b82525050565b600060208201905062000441600083018462000419565b92915050565b61201580620004576000396000f3fe6080604052600436106101235760003560e01c80634209fff1116100a057806395d89b411161006457806395d89b41146105ef578063a457c2d71461061a578063a87430ba14610657578063a9059cbb14610695578063dd62ed3e146106d2576102c5565b80634209fff1146104d05780634d8fbb961461050d578063583262231461054a57806365f2bc2e1461058757806370a08231146105b2576102c5565b806329e974e8116100e757806329e974e8146103d7578063313ce56714610414578063395093511461043f5780633eaaf86b1461047c57806340c10f19146104a7576102c5565b806306fdde03146102ca578063095ea7b3146102f55780630cb5f6531461033257806318160ddd1461036f57806323b872dd1461039a576102c5565b366102c55760006001543461013891906119f4565b905080610166600560009054906101000a900473ffffffffffffffffffffffffffffffffffffffff1661070f565b10156101a7576040517f08c379a000000000000000000000000000000000000000000000000000000000815260040161019e90611a93565b60405180910390fd5b6101d4600560009054906101000a900473ffffffffffffffffffffffffffffffffffffffff163383610758565b3373ffffffffffffffffffffffffffffffffffffffff16600560009054906101000a900473ffffffffffffffffffffffffffffffffffffffff1673ffffffffffffffffffffffffffffffffffffffff167fddf252ad1be2c89b69c2b068fc378daa952ba7f163c4a11628f55a4df523b3ef836040516102539190611ac2565b60405180910390a3600560009054906101000a900473ffffffffffffffffffffffffffffffffffffffff1673ffffffffffffffffffffffffffffffffffffffff166108fc349081150290604051600060405180830381858888f193505050501580156102c3573d6000803e3d6000fd5b005b600080fd5b3480156102d657600080fd5b506102df61090b565b6040516102ec9190611b5c565b60405180910390f35b34801561030157600080fd5b5061031c60048036038101906103179190611c0d565b610944565b6040516103299190611c68565b60405180910390f35b34801561033e57600080fd5b5061035960048036038101906103549190611c83565b610a6e565b6040516103669190611c68565b60405180910390f35b34801561037b57600080fd5b50610384610ba1565b6040516103919190611ac2565b60405180910390f35b3480156103a657600080fd5b506103c160048036038101906103bc9190611cb0565b610baa565b6040516103ce9190611c68565b60405180910390f35b3480156103e357600080fd5b506103fe60048036038101906103f99190611c83565b610dfe565b60405161040b9190611c68565b60405180910390f35b34801561042057600080fd5b50610429610e9c565b6040516104369190611d1f565b60405180910390f35b34801561044b57600080fd5b5061046660048036038101906104619190611c0d565b610ea1565b6040516104739190611c68565b60405180910390f35b34801561048857600080fd5b506104916110d5565b60405161049e9190611ac2565b60405180910390f35b3480156104b357600080fd5b506104ce60048036038101906104c99190611c0d565b6110db565b005b3480156104dc57600080fd5b506104f760048036038101906104f29190611c83565b611219565b6040516105049190611c68565b60405180910390f35b34801561051957600080fd5b50610534600480360381019061052f9190611d3a565b611272565b6040516105419190611c68565b60405180910390f35b34801561055657600080fd5b50610571600480360381019061056c9190611d3a565b6112df565b60405161057e9190611b5c565b60405180910390f35b34801561059357600080fd5b5061059c61137f565b6040516105a99190611ac2565b60405180910390f35b3480156105be57600080fd5b506105d960048036038101906105d49190611c83565b61070f565b6040516105e69190611ac2565b60405180910390f35b3480156105fb57600080fd5b50610604611385565b6040516106119190611b5c565b60405180910390f35b34801561062657600080fd5b50610641600480360381019061063c9190611c0d565b6113be565b60405161064e9190611c68565b60405180910390f35b34801561066357600080fd5b5061067e60048036038101906106799190611c83565b6115f2565b60405161068c929190611d89565b60405180910390f35b3480156106a157600080fd5b506106bc60048036038101906106b79190611c0d565b611643565b6040516106c99190611c68565b60405180910390f35b3480156106de57600080fd5b506106f960048036038101906106f49190611d3a565b611882565b6040516107069190611ac2565b60405180910390f35b6000600360008373ffffffffffffffffffffffffffffffffffffffff1673ffffffffffffffffffffffffffffffffffffffff168152602001908152602001600020549050919050565b6107aa81600360008673ffffffffffffffffffffffffffffffffffffffff1673ffffffffffffffffffffffffffffffffffffffff1681526020019081526020016000205461190990919063ffffffff16565b600360008573ffffffffffffffffffffffffffffffffffffffff1673ffffffffffffffffffffffffffffffffffffffff1681526020019081526020016000208190555061083f81600360008573ffffffffffffffffffffffffffffffffffffffff1673ffffffffffffffffffffffffffffffffffffffff1681526020019081526020016000205461196290919063ffffffff16565b600360008473ffffffffffffffffffffffffffffffffffffffff1673ffffffffffffffffffffffffffffffffffffffff168152602001908152602001600020819055508173ffffffffffffffffffffffffffffffffffffffff168373ffffffffffffffffffffffffffffffffffffffff167fddf252ad1be2c89b69c2b068fc378daa952ba7f163c4a11628f55a4df523b3ef836040516108df9190611ac2565b60405180910390a360006108f283610a6e565b905080156109055761090383610dfe565b505b50505050565b6040518060400160405280600d81526020017f427564677920546f6b656e20320000000000000000000000000000000000000081525081565b60008073ffffffffffffffffffffffffffffffffffffffff168373ffffffffffffffffffffffffffffffffffffffff160361097e57600080fd5b81600460003373ffffffffffffffffffffffffffffffffffffffff1673ffffffffffffffffffffffffffffffffffffffff16815260200190815260200160002060008573ffffffffffffffffffffffffffffffffffffffff1673ffffffffffffffffffffffffffffffffffffffff168152602001908152602001600020819055508273ffffffffffffffffffffffffffffffffffffffff163373ffffffffffffffffffffffffffffffffffffffff167f8c5be1e5ebec7d5bd14f71427d1e84f3dd0314c0f7b2291e5b200ac8c7c3b92584604051610a5c9190611ac2565b60405180910390a36001905092915050565b6000610a7982611219565b158015610ab35750600073ffffffffffffffffffffffffffffffffffffffff168273ffffffffffffffffffffffffffffffffffffffff1614155b610abc57600080fd5b81600260008473ffffffffffffffffffffffffffffffffffffffff1673ffffffffffffffffffffffffffffffffffffffff16815260200190815260200160002060000160006101000a81548173ffffffffffffffffffffffffffffffffffffffff021916908373ffffffffffffffffffffffffffffffffffffffff1602179055506001600260008473ffffffffffffffffffffffffffffffffffffffff1673ffffffffffffffffffffffffffffffffffffffff16815260200190815260200160002060000160146101000a81548160ff02191690831515021790555060019050919050565b60008054905090565b6000600360008573ffffffffffffffffffffffffffffffffffffffff1673ffffffffffffffffffffffffffffffffffffffff16815260200190815260200160002054821115610bf857600080fd5b600460008573ffffffffffffffffffffffffffffffffffffffff1673ffffffffffffffffffffffffffffffffffffffff16815260200190815260200160002060003373ffffffffffffffffffffffffffffffffffffffff1673ffffffffffffffffffffffffffffffffffffffff16815260200190815260200160002054821115610c8157600080fd5b600073ffffffffffffffffffffffffffffffffffffffff168373ffffffffffffffffffffffffffffffffffffffff1603610cba57600080fd5b610d4982600460008773ffffffffffffffffffffffffffffffffffffffff1673ffffffffffffffffffffffffffffffffffffffff16815260200190815260200160002060003373ffffffffffffffffffffffffffffffffffffffff1673ffffffffffffffffffffffffffffffffffffffff1681526020019081526020016000205461190990919063ffffffff16565b600460008673ffffffffffffffffffffffffffffffffffffffff1673ffffffffffffffffffffffffffffffffffffffff16815260200190815260200160002060003373ffffffffffffffffffffffffffffffffffffffff1673ffffffffffffffffffffffffffffffffffffffff16815260200190815260200160002081905550610dd4848484610758565b6000610ddf84610a6e565b90508015610df257610df084610dfe565b505b60019150509392505050565b6000610e0982611219565b610e1257600080fd5b81600260008473ffffffffffffffffffffffffffffffffffffffff1673ffffffffffffffffffffffffffffffffffffffff16815260200190815260200160002060000160006101000a81548173ffffffffffffffffffffffffffffffffffffffff021916908373ffffffffffffffffffffffffffffffffffffffff16021790555060019050919050565b600a81565b60008073ffffffffffffffffffffffffffffffffffffffff168373ffffffffffffffffffffffffffffffffffffffff1603610edb57600080fd5b610f6a82600460003373ffffffffffffffffffffffffffffffffffffffff1673ffffffffffffffffffffffffffffffffffffffff16815260200190815260200160002060008673ffffffffffffffffffffffffffffffffffffffff1673ffffffffffffffffffffffffffffffffffffffff1681526020019081526020016000205461196290919063ffffffff16565b600460003373ffffffffffffffffffffffffffffffffffffffff1673ffffffffffffffffffffffffffffffffffffffff16815260200190815260200160002060008573ffffffffffffffffffffffffffffffffffffffff1673ffffffffffffffffffffffffffffffffffffffff168152602001908152602001600020819055508273ffffffffffffffffffffffffffffffffffffffff163373ffffffffffffffffffffffffffffffffffffffff167f8c5be1e5ebec7d5bd14f71427d1e84f3dd0314c0f7b2291e5b200ac8c7c3b925600460003373ffffffffffffffffffffffffffffffffffffffff1673ffffffffffffffffffffffffffffffffffffffff16815260200190815260200160002060008773ffffffffffffffffffffffffffffffffffffffff1673ffffffffffffffffffffffffffffffffffffffff168152602001908152602001600020546040516110c39190611ac2565b60405180910390a36001905092915050565b60005481565b600073ffffffffffffffffffffffffffffffffffffffff168273ffffffffffffffffffffffffffffffffffffffff160361114a576040517f08c379a000000000000000000000000000000000000000000000000000000000815260040161114190611dfe565b60405180910390fd5b8060008082825461115b9190611e1e565b9250508190555080600360008473ffffffffffffffffffffffffffffffffffffffff1673ffffffffffffffffffffffffffffffffffffffff168152602001908152602001600020600082825401925050819055508173ffffffffffffffffffffffffffffffffffffffff16600073ffffffffffffffffffffffffffffffffffffffff167fddf252ad1be2c89b69c2b068fc378daa952ba7f163c4a11628f55a4df523b3ef8360405161120d9190611ac2565b60405180910390a35050565b6000600260008373ffffffffffffffffffffffffffffffffffffffff1673ffffffffffffffffffffffffffffffffffffffff16815260200190815260200160002060000160149054906101000a900460ff169050919050565b60008073ffffffffffffffffffffffffffffffffffffffff168373ffffffffffffffffffffffffffffffffffffffff16036112ac57600080fd5b6112b583611219565b6112be57600080fd5b6112c782611219565b6112d457600190506112d9565b600090505b92915050565b60606112ea83611219565b6112f357600080fd5b6112fd8383611272565b61130657600080fd5b61130f82611219565b61135d5761131e8260056110db565b61132983600a6110db565b61133282610a6e565b5061133c82610dfe565b506040518060800160405280604d8152602001611f5f604d91399050611379565b604051806060016040528060348152602001611fac6034913990505b92915050565b60015481565b6040518060400160405280600581526020017f424447593200000000000000000000000000000000000000000000000000000081525081565b60008073ffffffffffffffffffffffffffffffffffffffff168373ffffffffffffffffffffffffffffffffffffffff16036113f857600080fd5b61148782600460003373ffffffffffffffffffffffffffffffffffffffff1673ffffffffffffffffffffffffffffffffffffffff16815260200190815260200160002060008673ffffffffffffffffffffffffffffffffffffffff1673ffffffffffffffffffffffffffffffffffffffff1681526020019081526020016000205461190990919063ffffffff16565b600460003373ffffffffffffffffffffffffffffffffffffffff1673ffffffffffffffffffffffffffffffffffffffff16815260200190815260200160002060008573ffffffffffffffffffffffffffffffffffffffff1673ffffffffffffffffffffffffffffffffffffffff168152602001908152602001600020819055508273ffffffffffffffffffffffffffffffffffffffff163373ffffffffffffffffffffffffffffffffffffffff167f8c5be1e5ebec7d5bd14f71427d1e84f3dd0314c0f7b2291e5b200ac8c7c3b925600460003373ffffffffffffffffffffffffffffffffffffffff1673ffffffffffffffffffffffffffffffffffffffff16815260200190815260200160002060008773ffffffffffffffffffffffffffffffffffffffff1673ffffffffffffffffffffffffffffffffffffffff168152602001908152602001600020546040516115e09190611ac2565b60405180910390a36001905092915050565b60026020528060005260406000206000915090508060000160009054906101000a900473ffffffffffffffffffffffffffffffffffffffff16908060000160149054906101000a900460ff16905082565b6000600360003373ffffffffffffffffffffffffffffffffffffffff1673ffffffffffffffffffffffffffffffffffffffff1681526020019081526020016000205482111561169157600080fd5b600073ffffffffffffffffffffffffffffffffffffffff168373ffffffffffffffffffffffffffffffffffffffff16036116ca57600080fd5b61171c82600360003373ffffffffffffffffffffffffffffffffffffffff1673ffffffffffffffffffffffffffffffffffffffff1681526020019081526020016000205461190990919063ffffffff16565b600360003373ffffffffffffffffffffffffffffffffffffffff1673ffffffffffffffffffffffffffffffffffffffff168152602001908152602001600020819055506117b182600360008673ffffffffffffffffffffffffffffffffffffffff1673ffffffffffffffffffffffffffffffffffffffff1681526020019081526020016000205461196290919063ffffffff16565b600360008573ffffffffffffffffffffffffffffffffffffffff1673ffffffffffffffffffffffffffffffffffffffff168152602001908152602001600020819055508273ffffffffffffffffffffffffffffffffffffffff163373ffffffffffffffffffffffffffffffffffffffff167fddf252ad1be2c89b69c2b068fc378daa952ba7f163c4a11628f55a4df523b3ef846040516118519190611ac2565b60405180910390a3600061186484610a6e565b905080156118775761187584610dfe565b505b600191505092915050565b6000600460008473ffffffffffffffffffffffffffffffffffffffff1673ffffffffffffffffffffffffffffffffffffffff16815260200190815260200160002060008373ffffffffffffffffffffffffffffffffffffffff1673ffffffffffffffffffffffffffffffffffffffff16815260200190815260200160002054905092915050565b60008282846119189190611e52565b915081111561195c576040517f08c379a000000000000000000000000000000000000000000000000000000000815260040161195390611ed2565b60405180910390fd5b92915050565b60008282846119719190611e1e565b91508110156119b5576040517f08c379a00000000000000000000000000000000000000000000000000000000081526004016119ac90611f3e565b60405180910390fd5b92915050565b6000819050919050565b7f4e487b7100000000000000000000000000000000000000000000000000000000600052601160045260246000fd5b60006119ff826119bb565b9150611a0a836119bb565b9250828202611a18816119bb565b91508282048414831517611a2f57611a2e6119c5565b5b5092915050565b600082825260208201905092915050565b7f4e6f7420656e6f75676820746f6b656e73000000000000000000000000000000600082015250565b6000611a7d601183611a36565b9150611a8882611a47565b602082019050919050565b60006020820190508181036000830152611aac81611a70565b9050919050565b611abc816119bb565b82525050565b6000602082019050611ad76000830184611ab3565b92915050565b600081519050919050565b60005b83811015611b06578082015181840152602081019050611aeb565b60008484015250505050565b6000601f19601f8301169050919050565b6000611b2e82611add565b611b388185611a36565b9350611b48818560208601611ae8565b611b5181611b12565b840191505092915050565b60006020820190508181036000830152611b768184611b23565b905092915050565b600080fd5b600073ffffffffffffffffffffffffffffffffffffffff82169050919050565b6000611bae82611b83565b9050919050565b611bbe81611ba3565b8114611bc957600080fd5b50565b600081359050611bdb81611bb5565b92915050565b611bea816119bb565b8114611bf557600080fd5b50565b600081359050611c0781611be1565b92915050565b60008060408385031215611c2457611c23611b7e565b5b6000611c3285828601611bcc565b9250506020611c4385828601611bf8565b9150509250929050565b60008115159050919050565b611c6281611c4d565b82525050565b6000602082019050611c7d6000830184611c59565b92915050565b600060208284031215611c9957611c98611b7e565b5b6000611ca784828501611bcc565b91505092915050565b600080600060608486031215611cc957611cc8611b7e565b5b6000611cd786828701611bcc565b9350506020611ce886828701611bcc565b9250506040611cf986828701611bf8565b9150509250925092565b600060ff82169050919050565b611d1981611d03565b82525050565b6000602082019050611d346000830184611d10565b92915050565b60008060408385031215611d5157611d50611b7e565b5b6000611d5f85828601611bcc565b9250506020611d7085828601611bcc565b9150509250929050565b611d8381611ba3565b82525050565b6000604082019050611d9e6000830185611d7a565b611dab6020830184611c59565b9392505050565b7f45524332303a206d696e7420746f20746865207a65726f206164647265737300600082015250565b6000611de8601f83611a36565b9150611df382611db2565b602082019050919050565b60006020820190508181036000830152611e1781611ddb565b9050919050565b6000611e29826119bb565b9150611e34836119bb565b9250828201905080821115611e4c57611e4b6119c5565b5b92915050565b6000611e5d826119bb565b9150611e68836119bb565b9250828203905081811115611e8057611e7f6119c5565b5b92915050565b7f64732d6d6174682d7375622d756e646572666c6f770000000000000000000000600082015250565b6000611ebc601583611a36565b9150611ec782611e86565b602082019050919050565b60006020820190508181036000830152611eeb81611eaf565b9050919050565b7f64732d6d6174682d6164642d6f766572666c6f77000000000000000000000000600082015250565b6000611f28601483611a36565b9150611f3382611ef2565b602082019050919050565b60006020820190508181036000830152611f5781611f1b565b905091905056fe596f75206861766520756e6c6f636b65642074686520736563726574206d6573736167652e205468652073656372657420746f2068617070696e6573732061726520626972642073656564732e536f7272792c20626574746572206c75636b206e6578742074696d652067657474696e6720696e746f206f757220666c6f636b21a26469706673582212203e6b16b9a9d5da6ae8401d24b776d395e86d7a1b814b7e0c23f969a3c98c960a64736f6c63430008120033",
					"opcodes": "PUSH1 0x80 PUSH1 0x40 MSTORE PUSH8 0xDE0B6B3A7640000 PUSH1 0x0 SSTORE PUSH1 0x2A PUSH1 0x1 SSTORE CALLVALUE DUP1 ISZERO PUSH3 0x22 JUMPI PUSH1 0x0 DUP1 REVERT JUMPDEST POP CALLER PUSH1 0x5 PUSH1 0x0 PUSH2 0x100 EXP DUP2 SLOAD DUP2 PUSH20 0xFFFFFFFFFFFFFFFFFFFFFFFFFFFFFFFFFFFFFFFF MUL NOT AND SWAP1 DUP4 PUSH20 0xFFFFFFFFFFFFFFFFFFFFFFFFFFFFFFFFFFFFFFFF AND MUL OR SWAP1 SSTORE POP PUSH1 0x0 SLOAD PUSH1 0x3 PUSH1 0x0 PUSH1 0x5 PUSH1 0x0 SWAP1 SLOAD SWAP1 PUSH2 0x100 EXP SWAP1 DIV PUSH20 0xFFFFFFFFFFFFFFFFFFFFFFFFFFFFFFFFFFFFFFFF AND PUSH20 0xFFFFFFFFFFFFFFFFFFFFFFFFFFFFFFFFFFFFFFFF AND PUSH20 0xFFFFFFFFFFFFFFFFFFFFFFFFFFFFFFFFFFFFFFFF AND DUP2 MSTORE PUSH1 0x20 ADD SWAP1 DUP2 MSTORE PUSH1 0x20 ADD PUSH1 0x0 KECCAK256 DUP2 SWAP1 SSTORE POP PUSH1 0x5 PUSH1 0x0 SWAP1 SLOAD SWAP1 PUSH2 0x100 EXP SWAP1 DIV PUSH20 0xFFFFFFFFFFFFFFFFFFFFFFFFFFFFFFFFFFFFFFFF AND PUSH20 0xFFFFFFFFFFFFFFFFFFFFFFFFFFFFFFFFFFFFFFFF AND PUSH1 0x0 PUSH20 0xFFFFFFFFFFFFFFFFFFFFFFFFFFFFFFFFFFFFFFFF AND PUSH32 0xDDF252AD1BE2C89B69C2B068FC378DAA952BA7F163C4A11628F55A4DF523B3EF PUSH1 0x0 SLOAD PUSH1 0x40 MLOAD PUSH3 0x150 SWAP2 SWAP1 PUSH3 0x42A JUMP JUMPDEST PUSH1 0x40 MLOAD DUP1 SWAP2 SUB SWAP1 LOG3 PUSH1 0x0 PUSH3 0x18D PUSH1 0x5 PUSH1 0x0 SWAP1 SLOAD SWAP1 PUSH2 0x100 EXP SWAP1 DIV PUSH20 0xFFFFFFFFFFFFFFFFFFFFFFFFFFFFFFFFFFFFFFFF AND PUSH3 0x1D2 PUSH1 0x20 SHL PUSH1 0x20 SHR JUMP JUMPDEST SWAP1 POP DUP1 ISZERO PUSH3 0x1CB JUMPI PUSH3 0x1C9 PUSH1 0x5 PUSH1 0x0 SWAP1 SLOAD SWAP1 PUSH2 0x100 EXP SWAP1 DIV PUSH20 0xFFFFFFFFFFFFFFFFFFFFFFFFFFFFFFFFFFFFFFFF AND PUSH3 0x30F PUSH1 0x20 SHL PUSH1 0x20 SHR JUMP JUMPDEST POP JUMPDEST POP PUSH3 0x447 JUMP JUMPDEST PUSH1 0x0 PUSH3 0x1E5 DUP3 PUSH3 0x3B6 PUSH1 0x20 SHL PUSH1 0x20 SHR JUMP JUMPDEST ISZERO DUP1 ISZERO PUSH3 0x220 JUMPI POP PUSH1 0x0 PUSH20 0xFFFFFFFFFFFFFFFFFFFFFFFFFFFFFFFFFFFFFFFF AND DUP3 PUSH20 0xFFFFFFFFFFFFFFFFFFFFFFFFFFFFFFFFFFFFFFFF AND EQ ISZERO JUMPDEST PUSH3 0x22A JUMPI PUSH1 0x0 DUP1 REVERT JUMPDEST DUP2 PUSH1 0x2 PUSH1 0x0 DUP5 PUSH20 0xFFFFFFFFFFFFFFFFFFFFFFFFFFFFFFFFFFFFFFFF AND PUSH20 0xFFFFFFFFFFFFFFFFFFFFFFFFFFFFFFFFFFFFFFFF AND DUP2 MSTORE PUSH1 0x20 ADD SWAP1 DUP2 MSTORE PUSH1 0x20 ADD PUSH1 0x0 KECCAK256 PUSH1 0x0 ADD PUSH1 0x0 PUSH2 0x100 EXP DUP2 SLOAD DUP2 PUSH20 0xFFFFFFFFFFFFFFFFFFFFFFFFFFFFFFFFFFFFFFFF MUL NOT AND SWAP1 DUP4 PUSH20 0xFFFFFFFFFFFFFFFFFFFFFFFFFFFFFFFFFFFFFFFF AND MUL OR SWAP1 SSTORE POP PUSH1 0x1 PUSH1 0x2 PUSH1 0x0 DUP5 PUSH20 0xFFFFFFFFFFFFFFFFFFFFFFFFFFFFFFFFFFFFFFFF AND PUSH20 0xFFFFFFFFFFFFFFFFFFFFFFFFFFFFFFFFFFFFFFFF AND DUP2 MSTORE PUSH1 0x20 ADD SWAP1 DUP2 MSTORE PUSH1 0x20 ADD PUSH1 0x0 KECCAK256 PUSH1 0x0 ADD PUSH1 0x14 PUSH2 0x100 EXP DUP2 SLOAD DUP2 PUSH1 0xFF MUL NOT AND SWAP1 DUP4 ISZERO ISZERO MUL OR SWAP1 SSTORE POP PUSH1 0x1 SWAP1 POP SWAP2 SWAP1 POP JUMP JUMPDEST PUSH1 0x0 PUSH3 0x322 DUP3 PUSH3 0x3B6 PUSH1 0x20 SHL PUSH1 0x20 SHR JUMP JUMPDEST PUSH3 0x32C JUMPI PUSH1 0x0 DUP1 REVERT JUMPDEST DUP2 PUSH1 0x2 PUSH1 0x0 DUP5 PUSH20 0xFFFFFFFFFFFFFFFFFFFFFFFFFFFFFFFFFFFFFFFF AND PUSH20 0xFFFFFFFFFFFFFFFFFFFFFFFFFFFFFFFFFFFFFFFF AND DUP2 MSTORE PUSH1 0x20 ADD SWAP1 DUP2 MSTORE PUSH1 0x20 ADD PUSH1 0x0 KECCAK256 PUSH1 0x0 ADD PUSH1 0x0 PUSH2 0x100 EXP DUP2 SLOAD DUP2 PUSH20 0xFFFFFFFFFFFFFFFFFFFFFFFFFFFFFFFFFFFFFFFF MUL NOT AND SWAP1 DUP4 PUSH20 0xFFFFFFFFFFFFFFFFFFFFFFFFFFFFFFFFFFFFFFFF AND MUL OR SWAP1 SSTORE POP PUSH1 0x1 SWAP1 POP SWAP2 SWAP1 POP JUMP JUMPDEST PUSH1 0x0 PUSH1 0x2 PUSH1 0x0 DUP4 PUSH20 0xFFFFFFFFFFFFFFFFFFFFFFFFFFFFFFFFFFFFFFFF AND PUSH20 0xFFFFFFFFFFFFFFFFFFFFFFFFFFFFFFFFFFFFFFFF AND DUP2 MSTORE PUSH1 0x20 ADD SWAP1 DUP2 MSTORE PUSH1 0x20 ADD PUSH1 0x0 KECCAK256 PUSH1 0x0 ADD PUSH1 0x14 SWAP1 SLOAD SWAP1 PUSH2 0x100 EXP SWAP1 DIV PUSH1 0xFF AND SWAP1 POP SWAP2 SWAP1 POP JUMP JUMPDEST PUSH1 0x0 DUP2 SWAP1 POP SWAP2 SWAP1 POP JUMP JUMPDEST PUSH3 0x424 DUP2 PUSH3 0x40F JUMP JUMPDEST DUP3 MSTORE POP POP JUMP JUMPDEST PUSH1 0x0 PUSH1 0x20 DUP3 ADD SWAP1 POP PUSH3 0x441 PUSH1 0x0 DUP4 ADD DUP5 PUSH3 0x419 JUMP JUMPDEST SWAP3 SWAP2 POP POP JUMP JUMPDEST PUSH2 0x2015 DUP1 PUSH3 0x457 PUSH1 0x0 CODECOPY PUSH1 0x0 RETURN INVALID PUSH1 0x80 PUSH1 0x40 MSTORE PUSH1 0x4 CALLDATASIZE LT PUSH2 0x123 JUMPI PUSH1 0x0 CALLDATALOAD PUSH1 0xE0 SHR DUP1 PUSH4 0x4209FFF1 GT PUSH2 0xA0 JUMPI DUP1 PUSH4 0x95D89B41 GT PUSH2 0x64 JUMPI DUP1 PUSH4 0x95D89B41 EQ PUSH2 0x5EF JUMPI DUP1 PUSH4 0xA457C2D7 EQ PUSH2 0x61A JUMPI DUP1 PUSH4 0xA87430BA EQ PUSH2 0x657 JUMPI DUP1 PUSH4 0xA9059CBB EQ PUSH2 0x695 JUMPI DUP1 PUSH4 0xDD62ED3E EQ PUSH2 0x6D2 JUMPI PUSH2 0x2C5 JUMP JUMPDEST DUP1 PUSH4 0x4209FFF1 EQ PUSH2 0x4D0 JUMPI DUP1 PUSH4 0x4D8FBB96 EQ PUSH2 0x50D JUMPI DUP1 PUSH4 0x58326223 EQ PUSH2 0x54A JUMPI DUP1 PUSH4 0x65F2BC2E EQ PUSH2 0x587 JUMPI DUP1 PUSH4 0x70A08231 EQ PUSH2 0x5B2 JUMPI PUSH2 0x2C5 JUMP JUMPDEST DUP1 PUSH4 0x29E974E8 GT PUSH2 0xE7 JUMPI DUP1 PUSH4 0x29E974E8 EQ PUSH2 0x3D7 JUMPI DUP1 PUSH4 0x313CE567 EQ PUSH2 0x414 JUMPI DUP1 PUSH4 0x39509351 EQ PUSH2 0x43F JUMPI DUP1 PUSH4 0x3EAAF86B EQ PUSH2 0x47C JUMPI DUP1 PUSH4 0x40C10F19 EQ PUSH2 0x4A7 JUMPI PUSH2 0x2C5 JUMP JUMPDEST DUP1 PUSH4 0x6FDDE03 EQ PUSH2 0x2CA JUMPI DUP1 PUSH4 0x95EA7B3 EQ PUSH2 0x2F5 JUMPI DUP1 PUSH4 0xCB5F653 EQ PUSH2 0x332 JUMPI DUP1 PUSH4 0x18160DDD EQ PUSH2 0x36F JUMPI DUP1 PUSH4 0x23B872DD EQ PUSH2 0x39A JUMPI PUSH2 0x2C5 JUMP JUMPDEST CALLDATASIZE PUSH2 0x2C5 JUMPI PUSH1 0x0 PUSH1 0x1 SLOAD CALLVALUE PUSH2 0x138 SWAP2 SWAP1 PUSH2 0x19F4 JUMP JUMPDEST SWAP1 POP DUP1 PUSH2 0x166 PUSH1 0x5 PUSH1 0x0 SWAP1 SLOAD SWAP1 PUSH2 0x100 EXP SWAP1 DIV PUSH20 0xFFFFFFFFFFFFFFFFFFFFFFFFFFFFFFFFFFFFFFFF AND PUSH2 0x70F JUMP JUMPDEST LT ISZERO PUSH2 0x1A7 JUMPI PUSH1 0x40 MLOAD PUSH32 0x8C379A000000000000000000000000000000000000000000000000000000000 DUP2 MSTORE PUSH1 0x4 ADD PUSH2 0x19E SWAP1 PUSH2 0x1A93 JUMP JUMPDEST PUSH1 0x40 MLOAD DUP1 SWAP2 SUB SWAP1 REVERT JUMPDEST PUSH2 0x1D4 PUSH1 0x5 PUSH1 0x0 SWAP1 SLOAD SWAP1 PUSH2 0x100 EXP SWAP1 DIV PUSH20 0xFFFFFFFFFFFFFFFFFFFFFFFFFFFFFFFFFFFFFFFF AND CALLER DUP4 PUSH2 0x758 JUMP JUMPDEST CALLER PUSH20 0xFFFFFFFFFFFFFFFFFFFFFFFFFFFFFFFFFFFFFFFF AND PUSH1 0x5 PUSH1 0x0 SWAP1 SLOAD SWAP1 PUSH2 0x100 EXP SWAP1 DIV PUSH20 0xFFFFFFFFFFFFFFFFFFFFFFFFFFFFFFFFFFFFFFFF AND PUSH20 0xFFFFFFFFFFFFFFFFFFFFFFFFFFFFFFFFFFFFFFFF AND PUSH32 0xDDF252AD1BE2C89B69C2B068FC378DAA952BA7F163C4A11628F55A4DF523B3EF DUP4 PUSH1 0x40 MLOAD PUSH2 0x253 SWAP2 SWAP1 PUSH2 0x1AC2 JUMP JUMPDEST PUSH1 0x40 MLOAD DUP1 SWAP2 SUB SWAP1 LOG3 PUSH1 0x5 PUSH1 0x0 SWAP1 SLOAD SWAP1 PUSH2 0x100 EXP SWAP1 DIV PUSH20 0xFFFFFFFFFFFFFFFFFFFFFFFFFFFFFFFFFFFFFFFF AND PUSH20 0xFFFFFFFFFFFFFFFFFFFFFFFFFFFFFFFFFFFFFFFF AND PUSH2 0x8FC CALLVALUE SWAP1 DUP2 ISZERO MUL SWAP1 PUSH1 0x40 MLOAD PUSH1 0x0 PUSH1 0x40 MLOAD DUP1 DUP4 SUB DUP2 DUP6 DUP9 DUP9 CALL SWAP4 POP POP POP POP ISZERO DUP1 ISZERO PUSH2 0x2C3 JUMPI RETURNDATASIZE PUSH1 0x0 DUP1 RETURNDATACOPY RETURNDATASIZE PUSH1 0x0 REVERT JUMPDEST STOP JUMPDEST PUSH1 0x0 DUP1 REVERT JUMPDEST CALLVALUE DUP1 ISZERO PUSH2 0x2D6 JUMPI PUSH1 0x0 DUP1 REVERT JUMPDEST POP PUSH2 0x2DF PUSH2 0x90B JUMP JUMPDEST PUSH1 0x40 MLOAD PUSH2 0x2EC SWAP2 SWAP1 PUSH2 0x1B5C JUMP JUMPDEST PUSH1 0x40 MLOAD DUP1 SWAP2 SUB SWAP1 RETURN JUMPDEST CALLVALUE DUP1 ISZERO PUSH2 0x301 JUMPI PUSH1 0x0 DUP1 REVERT JUMPDEST POP PUSH2 0x31C PUSH1 0x4 DUP1 CALLDATASIZE SUB DUP2 ADD SWAP1 PUSH2 0x317 SWAP2 SWAP1 PUSH2 0x1C0D JUMP JUMPDEST PUSH2 0x944 JUMP JUMPDEST PUSH1 0x40 MLOAD PUSH2 0x329 SWAP2 SWAP1 PUSH2 0x1C68 JUMP JUMPDEST PUSH1 0x40 MLOAD DUP1 SWAP2 SUB SWAP1 RETURN JUMPDEST CALLVALUE DUP1 ISZERO PUSH2 0x33E JUMPI PUSH1 0x0 DUP1 REVERT JUMPDEST POP PUSH2 0x359 PUSH1 0x4 DUP1 CALLDATASIZE SUB DUP2 ADD SWAP1 PUSH2 0x354 SWAP2 SWAP1 PUSH2 0x1C83 JUMP JUMPDEST PUSH2 0xA6E JUMP JUMPDEST PUSH1 0x40 MLOAD PUSH2 0x366 SWAP2 SWAP1 PUSH2 0x1C68 JUMP JUMPDEST PUSH1 0x40 MLOAD DUP1 SWAP2 SUB SWAP1 RETURN JUMPDEST CALLVALUE DUP1 ISZERO PUSH2 0x37B JUMPI PUSH1 0x0 DUP1 REVERT JUMPDEST POP PUSH2 0x384 PUSH2 0xBA1 JUMP JUMPDEST PUSH1 0x40 MLOAD PUSH2 0x391 SWAP2 SWAP1 PUSH2 0x1AC2 JUMP JUMPDEST PUSH1 0x40 MLOAD DUP1 SWAP2 SUB SWAP1 RETURN JUMPDEST CALLVALUE DUP1 ISZERO PUSH2 0x3A6 JUMPI PUSH1 0x0 DUP1 REVERT JUMPDEST POP PUSH2 0x3C1 PUSH1 0x4 DUP1 CALLDATASIZE SUB DUP2 ADD SWAP1 PUSH2 0x3BC SWAP2 SWAP1 PUSH2 0x1CB0 JUMP JUMPDEST PUSH2 0xBAA JUMP JUMPDEST PUSH1 0x40 MLOAD PUSH2 0x3CE SWAP2 SWAP1 PUSH2 0x1C68 JUMP JUMPDEST PUSH1 0x40 MLOAD DUP1 SWAP2 SUB SWAP1 RETURN JUMPDEST CALLVALUE DUP1 ISZERO PUSH2 0x3E3 JUMPI PUSH1 0x0 DUP1 REVERT JUMPDEST POP PUSH2 0x3FE PUSH1 0x4 DUP1 CALLDATASIZE SUB DUP2 ADD SWAP1 PUSH2 0x3F9 SWAP2 SWAP1 PUSH2 0x1C83 JUMP JUMPDEST PUSH2 0xDFE JUMP JUMPDEST PUSH1 0x40 MLOAD PUSH2 0x40B SWAP2 SWAP1 PUSH2 0x1C68 JUMP JUMPDEST PUSH1 0x40 MLOAD DUP1 SWAP2 SUB SWAP1 RETURN JUMPDEST CALLVALUE DUP1 ISZERO PUSH2 0x420 JUMPI PUSH1 0x0 DUP1 REVERT JUMPDEST POP PUSH2 0x429 PUSH2 0xE9C JUMP JUMPDEST PUSH1 0x40 MLOAD PUSH2 0x436 SWAP2 SWAP1 PUSH2 0x1D1F JUMP JUMPDEST PUSH1 0x40 MLOAD DUP1 SWAP2 SUB SWAP1 RETURN JUMPDEST CALLVALUE DUP1 ISZERO PUSH2 0x44B JUMPI PUSH1 0x0 DUP1 REVERT JUMPDEST POP PUSH2 0x466 PUSH1 0x4 DUP1 CALLDATASIZE SUB DUP2 ADD SWAP1 PUSH2 0x461 SWAP2 SWAP1 PUSH2 0x1C0D JUMP JUMPDEST PUSH2 0xEA1 JUMP JUMPDEST PUSH1 0x40 MLOAD PUSH2 0x473 SWAP2 SWAP1 PUSH2 0x1C68 JUMP JUMPDEST PUSH1 0x40 MLOAD DUP1 SWAP2 SUB SWAP1 RETURN JUMPDEST CALLVALUE DUP1 ISZERO PUSH2 0x488 JUMPI PUSH1 0x0 DUP1 REVERT JUMPDEST POP PUSH2 0x491 PUSH2 0x10D5 JUMP JUMPDEST PUSH1 0x40 MLOAD PUSH2 0x49E SWAP2 SWAP1 PUSH2 0x1AC2 JUMP JUMPDEST PUSH1 0x40 MLOAD DUP1 SWAP2 SUB SWAP1 RETURN JUMPDEST CALLVALUE DUP1 ISZERO PUSH2 0x4B3 JUMPI PUSH1 0x0 DUP1 REVERT JUMPDEST POP PUSH2 0x4CE PUSH1 0x4 DUP1 CALLDATASIZE SUB DUP2 ADD SWAP1 PUSH2 0x4C9 SWAP2 SWAP1 PUSH2 0x1C0D JUMP JUMPDEST PUSH2 0x10DB JUMP JUMPDEST STOP JUMPDEST CALLVALUE DUP1 ISZERO PUSH2 0x4DC JUMPI PUSH1 0x0 DUP1 REVERT JUMPDEST POP PUSH2 0x4F7 PUSH1 0x4 DUP1 CALLDATASIZE SUB DUP2 ADD SWAP1 PUSH2 0x4F2 SWAP2 SWAP1 PUSH2 0x1C83 JUMP JUMPDEST PUSH2 0x1219 JUMP JUMPDEST PUSH1 0x40 MLOAD PUSH2 0x504 SWAP2 SWAP1 PUSH2 0x1C68 JUMP JUMPDEST PUSH1 0x40 MLOAD DUP1 SWAP2 SUB SWAP1 RETURN JUMPDEST CALLVALUE DUP1 ISZERO PUSH2 0x519 JUMPI PUSH1 0x0 DUP1 REVERT JUMPDEST POP PUSH2 0x534 PUSH1 0x4 DUP1 CALLDATASIZE SUB DUP2 ADD SWAP1 PUSH2 0x52F SWAP2 SWAP1 PUSH2 0x1D3A JUMP JUMPDEST PUSH2 0x1272 JUMP JUMPDEST PUSH1 0x40 MLOAD PUSH2 0x541 SWAP2 SWAP1 PUSH2 0x1C68 JUMP JUMPDEST PUSH1 0x40 MLOAD DUP1 SWAP2 SUB SWAP1 RETURN JUMPDEST CALLVALUE DUP1 ISZERO PUSH2 0x556 JUMPI PUSH1 0x0 DUP1 REVERT JUMPDEST POP PUSH2 0x571 PUSH1 0x4 DUP1 CALLDATASIZE SUB DUP2 ADD SWAP1 PUSH2 0x56C SWAP2 SWAP1 PUSH2 0x1D3A JUMP JUMPDEST PUSH2 0x12DF JUMP JUMPDEST PUSH1 0x40 MLOAD PUSH2 0x57E SWAP2 SWAP1 PUSH2 0x1B5C JUMP JUMPDEST PUSH1 0x40 MLOAD DUP1 SWAP2 SUB SWAP1 RETURN JUMPDEST CALLVALUE DUP1 ISZERO PUSH2 0x593 JUMPI PUSH1 0x0 DUP1 REVERT JUMPDEST POP PUSH2 0x59C PUSH2 0x137F JUMP JUMPDEST PUSH1 0x40 MLOAD PUSH2 0x5A9 SWAP2 SWAP1 PUSH2 0x1AC2 JUMP JUMPDEST PUSH1 0x40 MLOAD DUP1 SWAP2 SUB SWAP1 RETURN JUMPDEST CALLVALUE DUP1 ISZERO PUSH2 0x5BE JUMPI PUSH1 0x0 DUP1 REVERT JUMPDEST POP PUSH2 0x5D9 PUSH1 0x4 DUP1 CALLDATASIZE SUB DUP2 ADD SWAP1 PUSH2 0x5D4 SWAP2 SWAP1 PUSH2 0x1C83 JUMP JUMPDEST PUSH2 0x70F JUMP JUMPDEST PUSH1 0x40 MLOAD PUSH2 0x5E6 SWAP2 SWAP1 PUSH2 0x1AC2 JUMP JUMPDEST PUSH1 0x40 MLOAD DUP1 SWAP2 SUB SWAP1 RETURN JUMPDEST CALLVALUE DUP1 ISZERO PUSH2 0x5FB JUMPI PUSH1 0x0 DUP1 REVERT JUMPDEST POP PUSH2 0x604 PUSH2 0x1385 JUMP JUMPDEST PUSH1 0x40 MLOAD PUSH2 0x611 SWAP2 SWAP1 PUSH2 0x1B5C JUMP JUMPDEST PUSH1 0x40 MLOAD DUP1 SWAP2 SUB SWAP1 RETURN JUMPDEST CALLVALUE DUP1 ISZERO PUSH2 0x626 JUMPI PUSH1 0x0 DUP1 REVERT JUMPDEST POP PUSH2 0x641 PUSH1 0x4 DUP1 CALLDATASIZE SUB DUP2 ADD SWAP1 PUSH2 0x63C SWAP2 SWAP1 PUSH2 0x1C0D JUMP JUMPDEST PUSH2 0x13BE JUMP JUMPDEST PUSH1 0x40 MLOAD PUSH2 0x64E SWAP2 SWAP1 PUSH2 0x1C68 JUMP JUMPDEST PUSH1 0x40 MLOAD DUP1 SWAP2 SUB SWAP1 RETURN JUMPDEST CALLVALUE DUP1 ISZERO PUSH2 0x663 JUMPI PUSH1 0x0 DUP1 REVERT JUMPDEST POP PUSH2 0x67E PUSH1 0x4 DUP1 CALLDATASIZE SUB DUP2 ADD SWAP1 PUSH2 0x679 SWAP2 SWAP1 PUSH2 0x1C83 JUMP JUMPDEST PUSH2 0x15F2 JUMP JUMPDEST PUSH1 0x40 MLOAD PUSH2 0x68C SWAP3 SWAP2 SWAP1 PUSH2 0x1D89 JUMP JUMPDEST PUSH1 0x40 MLOAD DUP1 SWAP2 SUB SWAP1 RETURN JUMPDEST CALLVALUE DUP1 ISZERO PUSH2 0x6A1 JUMPI PUSH1 0x0 DUP1 REVERT JUMPDEST POP PUSH2 0x6BC PUSH1 0x4 DUP1 CALLDATASIZE SUB DUP2 ADD SWAP1 PUSH2 0x6B7 SWAP2 SWAP1 PUSH2 0x1C0D JUMP JUMPDEST PUSH2 0x1643 JUMP JUMPDEST PUSH1 0x40 MLOAD PUSH2 0x6C9 SWAP2 SWAP1 PUSH2 0x1C68 JUMP JUMPDEST PUSH1 0x40 MLOAD DUP1 SWAP2 SUB SWAP1 RETURN JUMPDEST CALLVALUE DUP1 ISZERO PUSH2 0x6DE JUMPI PUSH1 0x0 DUP1 REVERT JUMPDEST POP PUSH2 0x6F9 PUSH1 0x4 DUP1 CALLDATASIZE SUB DUP2 ADD SWAP1 PUSH2 0x6F4 SWAP2 SWAP1 PUSH2 0x1D3A JUMP JUMPDEST PUSH2 0x1882 JUMP JUMPDEST PUSH1 0x40 MLOAD PUSH2 0x706 SWAP2 SWAP1 PUSH2 0x1AC2 JUMP JUMPDEST PUSH1 0x40 MLOAD DUP1 SWAP2 SUB SWAP1 RETURN JUMPDEST PUSH1 0x0 PUSH1 0x3 PUSH1 0x0 DUP4 PUSH20 0xFFFFFFFFFFFFFFFFFFFFFFFFFFFFFFFFFFFFFFFF AND PUSH20 0xFFFFFFFFFFFFFFFFFFFFFFFFFFFFFFFFFFFFFFFF AND DUP2 MSTORE PUSH1 0x20 ADD SWAP1 DUP2 MSTORE PUSH1 0x20 ADD PUSH1 0x0 KECCAK256 SLOAD SWAP1 POP SWAP2 SWAP1 POP JUMP JUMPDEST PUSH2 0x7AA DUP2 PUSH1 0x3 PUSH1 0x0 DUP7 PUSH20 0xFFFFFFFFFFFFFFFFFFFFFFFFFFFFFFFFFFFFFFFF AND PUSH20 0xFFFFFFFFFFFFFFFFFFFFFFFFFFFFFFFFFFFFFFFF AND DUP2 MSTORE PUSH1 0x20 ADD SWAP1 DUP2 MSTORE PUSH1 0x20 ADD PUSH1 0x0 KECCAK256 SLOAD PUSH2 0x1909 SWAP1 SWAP2 SWAP1 PUSH4 0xFFFFFFFF AND JUMP JUMPDEST PUSH1 0x3 PUSH1 0x0 DUP6 PUSH20 0xFFFFFFFFFFFFFFFFFFFFFFFFFFFFFFFFFFFFFFFF AND PUSH20 0xFFFFFFFFFFFFFFFFFFFFFFFFFFFFFFFFFFFFFFFF AND DUP2 MSTORE PUSH1 0x20 ADD SWAP1 DUP2 MSTORE PUSH1 0x20 ADD PUSH1 0x0 KECCAK256 DUP2 SWAP1 SSTORE POP PUSH2 0x83F DUP2 PUSH1 0x3 PUSH1 0x0 DUP6 PUSH20 0xFFFFFFFFFFFFFFFFFFFFFFFFFFFFFFFFFFFFFFFF AND PUSH20 0xFFFFFFFFFFFFFFFFFFFFFFFFFFFFFFFFFFFFFFFF AND DUP2 MSTORE PUSH1 0x20 ADD SWAP1 DUP2 MSTORE PUSH1 0x20 ADD PUSH1 0x0 KECCAK256 SLOAD PUSH2 0x1962 SWAP1 SWAP2 SWAP1 PUSH4 0xFFFFFFFF AND JUMP JUMPDEST PUSH1 0x3 PUSH1 0x0 DUP5 PUSH20 0xFFFFFFFFFFFFFFFFFFFFFFFFFFFFFFFFFFFFFFFF AND PUSH20 0xFFFFFFFFFFFFFFFFFFFFFFFFFFFFFFFFFFFFFFFF AND DUP2 MSTORE PUSH1 0x20 ADD SWAP1 DUP2 MSTORE PUSH1 0x20 ADD PUSH1 0x0 KECCAK256 DUP2 SWAP1 SSTORE POP DUP2 PUSH20 0xFFFFFFFFFFFFFFFFFFFFFFFFFFFFFFFFFFFFFFFF AND DUP4 PUSH20 0xFFFFFFFFFFFFFFFFFFFFFFFFFFFFFFFFFFFFFFFF AND PUSH32 0xDDF252AD1BE2C89B69C2B068FC378DAA952BA7F163C4A11628F55A4DF523B3EF DUP4 PUSH1 0x40 MLOAD PUSH2 0x8DF SWAP2 SWAP1 PUSH2 0x1AC2 JUMP JUMPDEST PUSH1 0x40 MLOAD DUP1 SWAP2 SUB SWAP1 LOG3 PUSH1 0x0 PUSH2 0x8F2 DUP4 PUSH2 0xA6E JUMP JUMPDEST SWAP1 POP DUP1 ISZERO PUSH2 0x905 JUMPI PUSH2 0x903 DUP4 PUSH2 0xDFE JUMP JUMPDEST POP JUMPDEST POP POP POP POP JUMP JUMPDEST PUSH1 0x40 MLOAD DUP1 PUSH1 0x40 ADD PUSH1 0x40 MSTORE DUP1 PUSH1 0xD DUP2 MSTORE PUSH1 0x20 ADD PUSH32 0x427564677920546F6B656E203200000000000000000000000000000000000000 DUP2 MSTORE POP DUP2 JUMP JUMPDEST PUSH1 0x0 DUP1 PUSH20 0xFFFFFFFFFFFFFFFFFFFFFFFFFFFFFFFFFFFFFFFF AND DUP4 PUSH20 0xFFFFFFFFFFFFFFFFFFFFFFFFFFFFFFFFFFFFFFFF AND SUB PUSH2 0x97E JUMPI PUSH1 0x0 DUP1 REVERT JUMPDEST DUP2 PUSH1 0x4 PUSH1 0x0 CALLER PUSH20 0xFFFFFFFFFFFFFFFFFFFFFFFFFFFFFFFFFFFFFFFF AND PUSH20 0xFFFFFFFFFFFFFFFFFFFFFFFFFFFFFFFFFFFFFFFF AND DUP2 MSTORE PUSH1 0x20 ADD SWAP1 DUP2 MSTORE PUSH1 0x20 ADD PUSH1 0x0 KECCAK256 PUSH1 0x0 DUP6 PUSH20 0xFFFFFFFFFFFFFFFFFFFFFFFFFFFFFFFFFFFFFFFF AND PUSH20 0xFFFFFFFFFFFFFFFFFFFFFFFFFFFFFFFFFFFFFFFF AND DUP2 MSTORE PUSH1 0x20 ADD SWAP1 DUP2 MSTORE PUSH1 0x20 ADD PUSH1 0x0 KECCAK256 DUP2 SWAP1 SSTORE POP DUP3 PUSH20 0xFFFFFFFFFFFFFFFFFFFFFFFFFFFFFFFFFFFFFFFF AND CALLER PUSH20 0xFFFFFFFFFFFFFFFFFFFFFFFFFFFFFFFFFFFFFFFF AND PUSH32 0x8C5BE1E5EBEC7D5BD14F71427D1E84F3DD0314C0F7B2291E5B200AC8C7C3B925 DUP5 PUSH1 0x40 MLOAD PUSH2 0xA5C SWAP2 SWAP1 PUSH2 0x1AC2 JUMP JUMPDEST PUSH1 0x40 MLOAD DUP1 SWAP2 SUB SWAP1 LOG3 PUSH1 0x1 SWAP1 POP SWAP3 SWAP2 POP POP JUMP JUMPDEST PUSH1 0x0 PUSH2 0xA79 DUP3 PUSH2 0x1219 JUMP JUMPDEST ISZERO DUP1 ISZERO PUSH2 0xAB3 JUMPI POP PUSH1 0x0 PUSH20 0xFFFFFFFFFFFFFFFFFFFFFFFFFFFFFFFFFFFFFFFF AND DUP3 PUSH20 0xFFFFFFFFFFFFFFFFFFFFFFFFFFFFFFFFFFFFFFFF AND EQ ISZERO JUMPDEST PUSH2 0xABC JUMPI PUSH1 0x0 DUP1 REVERT JUMPDEST DUP2 PUSH1 0x2 PUSH1 0x0 DUP5 PUSH20 0xFFFFFFFFFFFFFFFFFFFFFFFFFFFFFFFFFFFFFFFF AND PUSH20 0xFFFFFFFFFFFFFFFFFFFFFFFFFFFFFFFFFFFFFFFF AND DUP2 MSTORE PUSH1 0x20 ADD SWAP1 DUP2 MSTORE PUSH1 0x20 ADD PUSH1 0x0 KECCAK256 PUSH1 0x0 ADD PUSH1 0x0 PUSH2 0x100 EXP DUP2 SLOAD DUP2 PUSH20 0xFFFFFFFFFFFFFFFFFFFFFFFFFFFFFFFFFFFFFFFF MUL NOT AND SWAP1 DUP4 PUSH20 0xFFFFFFFFFFFFFFFFFFFFFFFFFFFFFFFFFFFFFFFF AND MUL OR SWAP1 SSTORE POP PUSH1 0x1 PUSH1 0x2 PUSH1 0x0 DUP5 PUSH20 0xFFFFFFFFFFFFFFFFFFFFFFFFFFFFFFFFFFFFFFFF AND PUSH20 0xFFFFFFFFFFFFFFFFFFFFFFFFFFFFFFFFFFFFFFFF AND DUP2 MSTORE PUSH1 0x20 ADD SWAP1 DUP2 MSTORE PUSH1 0x20 ADD PUSH1 0x0 KECCAK256 PUSH1 0x0 ADD PUSH1 0x14 PUSH2 0x100 EXP DUP2 SLOAD DUP2 PUSH1 0xFF MUL NOT AND SWAP1 DUP4 ISZERO ISZERO MUL OR SWAP1 SSTORE POP PUSH1 0x1 SWAP1 POP SWAP2 SWAP1 POP JUMP JUMPDEST PUSH1 0x0 DUP1 SLOAD SWAP1 POP SWAP1 JUMP JUMPDEST PUSH1 0x0 PUSH1 0x3 PUSH1 0x0 DUP6 PUSH20 0xFFFFFFFFFFFFFFFFFFFFFFFFFFFFFFFFFFFFFFFF AND PUSH20 0xFFFFFFFFFFFFFFFFFFFFFFFFFFFFFFFFFFFFFFFF AND DUP2 MSTORE PUSH1 0x20 ADD SWAP1 DUP2 MSTORE PUSH1 0x20 ADD PUSH1 0x0 KECCAK256 SLOAD DUP3 GT ISZERO PUSH2 0xBF8 JUMPI PUSH1 0x0 DUP1 REVERT JUMPDEST PUSH1 0x4 PUSH1 0x0 DUP6 PUSH20 0xFFFFFFFFFFFFFFFFFFFFFFFFFFFFFFFFFFFFFFFF AND PUSH20 0xFFFFFFFFFFFFFFFFFFFFFFFFFFFFFFFFFFFFFFFF AND DUP2 MSTORE PUSH1 0x20 ADD SWAP1 DUP2 MSTORE PUSH1 0x20 ADD PUSH1 0x0 KECCAK256 PUSH1 0x0 CALLER PUSH20 0xFFFFFFFFFFFFFFFFFFFFFFFFFFFFFFFFFFFFFFFF AND PUSH20 0xFFFFFFFFFFFFFFFFFFFFFFFFFFFFFFFFFFFFFFFF AND DUP2 MSTORE PUSH1 0x20 ADD SWAP1 DUP2 MSTORE PUSH1 0x20 ADD PUSH1 0x0 KECCAK256 SLOAD DUP3 GT ISZERO PUSH2 0xC81 JUMPI PUSH1 0x0 DUP1 REVERT JUMPDEST PUSH1 0x0 PUSH20 0xFFFFFFFFFFFFFFFFFFFFFFFFFFFFFFFFFFFFFFFF AND DUP4 PUSH20 0xFFFFFFFFFFFFFFFFFFFFFFFFFFFFFFFFFFFFFFFF AND SUB PUSH2 0xCBA JUMPI PUSH1 0x0 DUP1 REVERT JUMPDEST PUSH2 0xD49 DUP3 PUSH1 0x4 PUSH1 0x0 DUP8 PUSH20 0xFFFFFFFFFFFFFFFFFFFFFFFFFFFFFFFFFFFFFFFF AND PUSH20 0xFFFFFFFFFFFFFFFFFFFFFFFFFFFFFFFFFFFFFFFF AND DUP2 MSTORE PUSH1 0x20 ADD SWAP1 DUP2 MSTORE PUSH1 0x20 ADD PUSH1 0x0 KECCAK256 PUSH1 0x0 CALLER PUSH20 0xFFFFFFFFFFFFFFFFFFFFFFFFFFFFFFFFFFFFFFFF AND PUSH20 0xFFFFFFFFFFFFFFFFFFFFFFFFFFFFFFFFFFFFFFFF AND DUP2 MSTORE PUSH1 0x20 ADD SWAP1 DUP2 MSTORE PUSH1 0x20 ADD PUSH1 0x0 KECCAK256 SLOAD PUSH2 0x1909 SWAP1 SWAP2 SWAP1 PUSH4 0xFFFFFFFF AND JUMP JUMPDEST PUSH1 0x4 PUSH1 0x0 DUP7 PUSH20 0xFFFFFFFFFFFFFFFFFFFFFFFFFFFFFFFFFFFFFFFF AND PUSH20 0xFFFFFFFFFFFFFFFFFFFFFFFFFFFFFFFFFFFFFFFF AND DUP2 MSTORE PUSH1 0x20 ADD SWAP1 DUP2 MSTORE PUSH1 0x20 ADD PUSH1 0x0 KECCAK256 PUSH1 0x0 CALLER PUSH20 0xFFFFFFFFFFFFFFFFFFFFFFFFFFFFFFFFFFFFFFFF AND PUSH20 0xFFFFFFFFFFFFFFFFFFFFFFFFFFFFFFFFFFFFFFFF AND DUP2 MSTORE PUSH1 0x20 ADD SWAP1 DUP2 MSTORE PUSH1 0x20 ADD PUSH1 0x0 KECCAK256 DUP2 SWAP1 SSTORE POP PUSH2 0xDD4 DUP5 DUP5 DUP5 PUSH2 0x758 JUMP JUMPDEST PUSH1 0x0 PUSH2 0xDDF DUP5 PUSH2 0xA6E JUMP JUMPDEST SWAP1 POP DUP1 ISZERO PUSH2 0xDF2 JUMPI PUSH2 0xDF0 DUP5 PUSH2 0xDFE JUMP JUMPDEST POP JUMPDEST PUSH1 0x1 SWAP2 POP POP SWAP4 SWAP3 POP POP POP JUMP JUMPDEST PUSH1 0x0 PUSH2 0xE09 DUP3 PUSH2 0x1219 JUMP JUMPDEST PUSH2 0xE12 JUMPI PUSH1 0x0 DUP1 REVERT JUMPDEST DUP2 PUSH1 0x2 PUSH1 0x0 DUP5 PUSH20 0xFFFFFFFFFFFFFFFFFFFFFFFFFFFFFFFFFFFFFFFF AND PUSH20 0xFFFFFFFFFFFFFFFFFFFFFFFFFFFFFFFFFFFFFFFF AND DUP2 MSTORE PUSH1 0x20 ADD SWAP1 DUP2 MSTORE PUSH1 0x20 ADD PUSH1 0x0 KECCAK256 PUSH1 0x0 ADD PUSH1 0x0 PUSH2 0x100 EXP DUP2 SLOAD DUP2 PUSH20 0xFFFFFFFFFFFFFFFFFFFFFFFFFFFFFFFFFFFFFFFF MUL NOT AND SWAP1 DUP4 PUSH20 0xFFFFFFFFFFFFFFFFFFFFFFFFFFFFFFFFFFFFFFFF AND MUL OR SWAP1 SSTORE POP PUSH1 0x1 SWAP1 POP SWAP2 SWAP1 POP JUMP JUMPDEST PUSH1 0xA DUP2 JUMP JUMPDEST PUSH1 0x0 DUP1 PUSH20 0xFFFFFFFFFFFFFFFFFFFFFFFFFFFFFFFFFFFFFFFF AND DUP4 PUSH20 0xFFFFFFFFFFFFFFFFFFFFFFFFFFFFFFFFFFFFFFFF AND SUB PUSH2 0xEDB JUMPI PUSH1 0x0 DUP1 REVERT JUMPDEST PUSH2 0xF6A DUP3 PUSH1 0x4 PUSH1 0x0 CALLER PUSH20 0xFFFFFFFFFFFFFFFFFFFFFFFFFFFFFFFFFFFFFFFF AND PUSH20 0xFFFFFFFFFFFFFFFFFFFFFFFFFFFFFFFFFFFFFFFF AND DUP2 MSTORE PUSH1 0x20 ADD SWAP1 DUP2 MSTORE PUSH1 0x20 ADD PUSH1 0x0 KECCAK256 PUSH1 0x0 DUP7 PUSH20 0xFFFFFFFFFFFFFFFFFFFFFFFFFFFFFFFFFFFFFFFF AND PUSH20 0xFFFFFFFFFFFFFFFFFFFFFFFFFFFFFFFFFFFFFFFF AND DUP2 MSTORE PUSH1 0x20 ADD SWAP1 DUP2 MSTORE PUSH1 0x20 ADD PUSH1 0x0 KECCAK256 SLOAD PUSH2 0x1962 SWAP1 SWAP2 SWAP1 PUSH4 0xFFFFFFFF AND JUMP JUMPDEST PUSH1 0x4 PUSH1 0x0 CALLER PUSH20 0xFFFFFFFFFFFFFFFFFFFFFFFFFFFFFFFFFFFFFFFF AND PUSH20 0xFFFFFFFFFFFFFFFFFFFFFFFFFFFFFFFFFFFFFFFF AND DUP2 MSTORE PUSH1 0x20 ADD SWAP1 DUP2 MSTORE PUSH1 0x20 ADD PUSH1 0x0 KECCAK256 PUSH1 0x0 DUP6 PUSH20 0xFFFFFFFFFFFFFFFFFFFFFFFFFFFFFFFFFFFFFFFF AND PUSH20 0xFFFFFFFFFFFFFFFFFFFFFFFFFFFFFFFFFFFFFFFF AND DUP2 MSTORE PUSH1 0x20 ADD SWAP1 DUP2 MSTORE PUSH1 0x20 ADD PUSH1 0x0 KECCAK256 DUP2 SWAP1 SSTORE POP DUP3 PUSH20 0xFFFFFFFFFFFFFFFFFFFFFFFFFFFFFFFFFFFFFFFF AND CALLER PUSH20 0xFFFFFFFFFFFFFFFFFFFFFFFFFFFFFFFFFFFFFFFF AND PUSH32 0x8C5BE1E5EBEC7D5BD14F71427D1E84F3DD0314C0F7B2291E5B200AC8C7C3B925 PUSH1 0x4 PUSH1 0x0 CALLER PUSH20 0xFFFFFFFFFFFFFFFFFFFFFFFFFFFFFFFFFFFFFFFF AND PUSH20 0xFFFFFFFFFFFFFFFFFFFFFFFFFFFFFFFFFFFFFFFF AND DUP2 MSTORE PUSH1 0x20 ADD SWAP1 DUP2 MSTORE PUSH1 0x20 ADD PUSH1 0x0 KECCAK256 PUSH1 0x0 DUP8 PUSH20 0xFFFFFFFFFFFFFFFFFFFFFFFFFFFFFFFFFFFFFFFF AND PUSH20 0xFFFFFFFFFFFFFFFFFFFFFFFFFFFFFFFFFFFFFFFF AND DUP2 MSTORE PUSH1 0x20 ADD SWAP1 DUP2 MSTORE PUSH1 0x20 ADD PUSH1 0x0 KECCAK256 SLOAD PUSH1 0x40 MLOAD PUSH2 0x10C3 SWAP2 SWAP1 PUSH2 0x1AC2 JUMP JUMPDEST PUSH1 0x40 MLOAD DUP1 SWAP2 SUB SWAP1 LOG3 PUSH1 0x1 SWAP1 POP SWAP3 SWAP2 POP POP JUMP JUMPDEST PUSH1 0x0 SLOAD DUP2 JUMP JUMPDEST PUSH1 0x0 PUSH20 0xFFFFFFFFFFFFFFFFFFFFFFFFFFFFFFFFFFFFFFFF AND DUP3 PUSH20 0xFFFFFFFFFFFFFFFFFFFFFFFFFFFFFFFFFFFFFFFF AND SUB PUSH2 0x114A JUMPI PUSH1 0x40 MLOAD PUSH32 0x8C379A000000000000000000000000000000000000000000000000000000000 DUP2 MSTORE PUSH1 0x4 ADD PUSH2 0x1141 SWAP1 PUSH2 0x1DFE JUMP JUMPDEST PUSH1 0x40 MLOAD DUP1 SWAP2 SUB SWAP1 REVERT JUMPDEST DUP1 PUSH1 0x0 DUP1 DUP3 DUP3 SLOAD PUSH2 0x115B SWAP2 SWAP1 PUSH2 0x1E1E JUMP JUMPDEST SWAP3 POP POP DUP2 SWAP1 SSTORE POP DUP1 PUSH1 0x3 PUSH1 0x0 DUP5 PUSH20 0xFFFFFFFFFFFFFFFFFFFFFFFFFFFFFFFFFFFFFFFF AND PUSH20 0xFFFFFFFFFFFFFFFFFFFFFFFFFFFFFFFFFFFFFFFF AND DUP2 MSTORE PUSH1 0x20 ADD SWAP1 DUP2 MSTORE PUSH1 0x20 ADD PUSH1 0x0 KECCAK256 PUSH1 0x0 DUP3 DUP3 SLOAD ADD SWAP3 POP POP DUP2 SWAP1 SSTORE POP DUP2 PUSH20 0xFFFFFFFFFFFFFFFFFFFFFFFFFFFFFFFFFFFFFFFF AND PUSH1 0x0 PUSH20 0xFFFFFFFFFFFFFFFFFFFFFFFFFFFFFFFFFFFFFFFF AND PUSH32 0xDDF252AD1BE2C89B69C2B068FC378DAA952BA7F163C4A11628F55A4DF523B3EF DUP4 PUSH1 0x40 MLOAD PUSH2 0x120D SWAP2 SWAP1 PUSH2 0x1AC2 JUMP JUMPDEST PUSH1 0x40 MLOAD DUP1 SWAP2 SUB SWAP1 LOG3 POP POP JUMP JUMPDEST PUSH1 0x0 PUSH1 0x2 PUSH1 0x0 DUP4 PUSH20 0xFFFFFFFFFFFFFFFFFFFFFFFFFFFFFFFFFFFFFFFF AND PUSH20 0xFFFFFFFFFFFFFFFFFFFFFFFFFFFFFFFFFFFFFFFF AND DUP2 MSTORE PUSH1 0x20 ADD SWAP1 DUP2 MSTORE PUSH1 0x20 ADD PUSH1 0x0 KECCAK256 PUSH1 0x0 ADD PUSH1 0x14 SWAP1 SLOAD SWAP1 PUSH2 0x100 EXP SWAP1 DIV PUSH1 0xFF AND SWAP1 POP SWAP2 SWAP1 POP JUMP JUMPDEST PUSH1 0x0 DUP1 PUSH20 0xFFFFFFFFFFFFFFFFFFFFFFFFFFFFFFFFFFFFFFFF AND DUP4 PUSH20 0xFFFFFFFFFFFFFFFFFFFFFFFFFFFFFFFFFFFFFFFF AND SUB PUSH2 0x12AC JUMPI PUSH1 0x0 DUP1 REVERT JUMPDEST PUSH2 0x12B5 DUP4 PUSH2 0x1219 JUMP JUMPDEST PUSH2 0x12BE JUMPI PUSH1 0x0 DUP1 REVERT JUMPDEST PUSH2 0x12C7 DUP3 PUSH2 0x1219 JUMP JUMPDEST PUSH2 0x12D4 JUMPI PUSH1 0x1 SWAP1 POP PUSH2 0x12D9 JUMP JUMPDEST PUSH1 0x0 SWAP1 POP JUMPDEST SWAP3 SWAP2 POP POP JUMP JUMPDEST PUSH1 0x60 PUSH2 0x12EA DUP4 PUSH2 0x1219 JUMP JUMPDEST PUSH2 0x12F3 JUMPI PUSH1 0x0 DUP1 REVERT JUMPDEST PUSH2 0x12FD DUP4 DUP4 PUSH2 0x1272 JUMP JUMPDEST PUSH2 0x1306 JUMPI PUSH1 0x0 DUP1 REVERT JUMPDEST PUSH2 0x130F DUP3 PUSH2 0x1219 JUMP JUMPDEST PUSH2 0x135D JUMPI PUSH2 0x131E DUP3 PUSH1 0x5 PUSH2 0x10DB JUMP JUMPDEST PUSH2 0x1329 DUP4 PUSH1 0xA PUSH2 0x10DB JUMP JUMPDEST PUSH2 0x1332 DUP3 PUSH2 0xA6E JUMP JUMPDEST POP PUSH2 0x133C DUP3 PUSH2 0xDFE JUMP JUMPDEST POP PUSH1 0x40 MLOAD DUP1 PUSH1 0x80 ADD PUSH1 0x40 MSTORE DUP1 PUSH1 0x4D DUP2 MSTORE PUSH1 0x20 ADD PUSH2 0x1F5F PUSH1 0x4D SWAP2 CODECOPY SWAP1 POP PUSH2 0x1379 JUMP JUMPDEST PUSH1 0x40 MLOAD DUP1 PUSH1 0x60 ADD PUSH1 0x40 MSTORE DUP1 PUSH1 0x34 DUP2 MSTORE PUSH1 0x20 ADD PUSH2 0x1FAC PUSH1 0x34 SWAP2 CODECOPY SWAP1 POP JUMPDEST SWAP3 SWAP2 POP POP JUMP JUMPDEST PUSH1 0x1 SLOAD DUP2 JUMP JUMPDEST PUSH1 0x40 MLOAD DUP1 PUSH1 0x40 ADD PUSH1 0x40 MSTORE DUP1 PUSH1 0x5 DUP2 MSTORE PUSH1 0x20 ADD PUSH32 0x4244475932000000000000000000000000000000000000000000000000000000 DUP2 MSTORE POP DUP2 JUMP JUMPDEST PUSH1 0x0 DUP1 PUSH20 0xFFFFFFFFFFFFFFFFFFFFFFFFFFFFFFFFFFFFFFFF AND DUP4 PUSH20 0xFFFFFFFFFFFFFFFFFFFFFFFFFFFFFFFFFFFFFFFF AND SUB PUSH2 0x13F8 JUMPI PUSH1 0x0 DUP1 REVERT JUMPDEST PUSH2 0x1487 DUP3 PUSH1 0x4 PUSH1 0x0 CALLER PUSH20 0xFFFFFFFFFFFFFFFFFFFFFFFFFFFFFFFFFFFFFFFF AND PUSH20 0xFFFFFFFFFFFFFFFFFFFFFFFFFFFFFFFFFFFFFFFF AND DUP2 MSTORE PUSH1 0x20 ADD SWAP1 DUP2 MSTORE PUSH1 0x20 ADD PUSH1 0x0 KECCAK256 PUSH1 0x0 DUP7 PUSH20 0xFFFFFFFFFFFFFFFFFFFFFFFFFFFFFFFFFFFFFFFF AND PUSH20 0xFFFFFFFFFFFFFFFFFFFFFFFFFFFFFFFFFFFFFFFF AND DUP2 MSTORE PUSH1 0x20 ADD SWAP1 DUP2 MSTORE PUSH1 0x20 ADD PUSH1 0x0 KECCAK256 SLOAD PUSH2 0x1909 SWAP1 SWAP2 SWAP1 PUSH4 0xFFFFFFFF AND JUMP JUMPDEST PUSH1 0x4 PUSH1 0x0 CALLER PUSH20 0xFFFFFFFFFFFFFFFFFFFFFFFFFFFFFFFFFFFFFFFF AND PUSH20 0xFFFFFFFFFFFFFFFFFFFFFFFFFFFFFFFFFFFFFFFF AND DUP2 MSTORE PUSH1 0x20 ADD SWAP1 DUP2 MSTORE PUSH1 0x20 ADD PUSH1 0x0 KECCAK256 PUSH1 0x0 DUP6 PUSH20 0xFFFFFFFFFFFFFFFFFFFFFFFFFFFFFFFFFFFFFFFF AND PUSH20 0xFFFFFFFFFFFFFFFFFFFFFFFFFFFFFFFFFFFFFFFF AND DUP2 MSTORE PUSH1 0x20 ADD SWAP1 DUP2 MSTORE PUSH1 0x20 ADD PUSH1 0x0 KECCAK256 DUP2 SWAP1 SSTORE POP DUP3 PUSH20 0xFFFFFFFFFFFFFFFFFFFFFFFFFFFFFFFFFFFFFFFF AND CALLER PUSH20 0xFFFFFFFFFFFFFFFFFFFFFFFFFFFFFFFFFFFFFFFF AND PUSH32 0x8C5BE1E5EBEC7D5BD14F71427D1E84F3DD0314C0F7B2291E5B200AC8C7C3B925 PUSH1 0x4 PUSH1 0x0 CALLER PUSH20 0xFFFFFFFFFFFFFFFFFFFFFFFFFFFFFFFFFFFFFFFF AND PUSH20 0xFFFFFFFFFFFFFFFFFFFFFFFFFFFFFFFFFFFFFFFF AND DUP2 MSTORE PUSH1 0x20 ADD SWAP1 DUP2 MSTORE PUSH1 0x20 ADD PUSH1 0x0 KECCAK256 PUSH1 0x0 DUP8 PUSH20 0xFFFFFFFFFFFFFFFFFFFFFFFFFFFFFFFFFFFFFFFF AND PUSH20 0xFFFFFFFFFFFFFFFFFFFFFFFFFFFFFFFFFFFFFFFF AND DUP2 MSTORE PUSH1 0x20 ADD SWAP1 DUP2 MSTORE PUSH1 0x20 ADD PUSH1 0x0 KECCAK256 SLOAD PUSH1 0x40 MLOAD PUSH2 0x15E0 SWAP2 SWAP1 PUSH2 0x1AC2 JUMP JUMPDEST PUSH1 0x40 MLOAD DUP1 SWAP2 SUB SWAP1 LOG3 PUSH1 0x1 SWAP1 POP SWAP3 SWAP2 POP POP JUMP JUMPDEST PUSH1 0x2 PUSH1 0x20 MSTORE DUP1 PUSH1 0x0 MSTORE PUSH1 0x40 PUSH1 0x0 KECCAK256 PUSH1 0x0 SWAP2 POP SWAP1 POP DUP1 PUSH1 0x0 ADD PUSH1 0x0 SWAP1 SLOAD SWAP1 PUSH2 0x100 EXP SWAP1 DIV PUSH20 0xFFFFFFFFFFFFFFFFFFFFFFFFFFFFFFFFFFFFFFFF AND SWAP1 DUP1 PUSH1 0x0 ADD PUSH1 0x14 SWAP1 SLOAD SWAP1 PUSH2 0x100 EXP SWAP1 DIV PUSH1 0xFF AND SWAP1 POP DUP3 JUMP JUMPDEST PUSH1 0x0 PUSH1 0x3 PUSH1 0x0 CALLER PUSH20 0xFFFFFFFFFFFFFFFFFFFFFFFFFFFFFFFFFFFFFFFF AND PUSH20 0xFFFFFFFFFFFFFFFFFFFFFFFFFFFFFFFFFFFFFFFF AND DUP2 MSTORE PUSH1 0x20 ADD SWAP1 DUP2 MSTORE PUSH1 0x20 ADD PUSH1 0x0 KECCAK256 SLOAD DUP3 GT ISZERO PUSH2 0x1691 JUMPI PUSH1 0x0 DUP1 REVERT JUMPDEST PUSH1 0x0 PUSH20 0xFFFFFFFFFFFFFFFFFFFFFFFFFFFFFFFFFFFFFFFF AND DUP4 PUSH20 0xFFFFFFFFFFFFFFFFFFFFFFFFFFFFFFFFFFFFFFFF AND SUB PUSH2 0x16CA JUMPI PUSH1 0x0 DUP1 REVERT JUMPDEST PUSH2 0x171C DUP3 PUSH1 0x3 PUSH1 0x0 CALLER PUSH20 0xFFFFFFFFFFFFFFFFFFFFFFFFFFFFFFFFFFFFFFFF AND PUSH20 0xFFFFFFFFFFFFFFFFFFFFFFFFFFFFFFFFFFFFFFFF AND DUP2 MSTORE PUSH1 0x20 ADD SWAP1 DUP2 MSTORE PUSH1 0x20 ADD PUSH1 0x0 KECCAK256 SLOAD PUSH2 0x1909 SWAP1 SWAP2 SWAP1 PUSH4 0xFFFFFFFF AND JUMP JUMPDEST PUSH1 0x3 PUSH1 0x0 CALLER PUSH20 0xFFFFFFFFFFFFFFFFFFFFFFFFFFFFFFFFFFFFFFFF AND PUSH20 0xFFFFFFFFFFFFFFFFFFFFFFFFFFFFFFFFFFFFFFFF AND DUP2 MSTORE PUSH1 0x20 ADD SWAP1 DUP2 MSTORE PUSH1 0x20 ADD PUSH1 0x0 KECCAK256 DUP2 SWAP1 SSTORE POP PUSH2 0x17B1 DUP3 PUSH1 0x3 PUSH1 0x0 DUP7 PUSH20 0xFFFFFFFFFFFFFFFFFFFFFFFFFFFFFFFFFFFFFFFF AND PUSH20 0xFFFFFFFFFFFFFFFFFFFFFFFFFFFFFFFFFFFFFFFF AND DUP2 MSTORE PUSH1 0x20 ADD SWAP1 DUP2 MSTORE PUSH1 0x20 ADD PUSH1 0x0 KECCAK256 SLOAD PUSH2 0x1962 SWAP1 SWAP2 SWAP1 PUSH4 0xFFFFFFFF AND JUMP JUMPDEST PUSH1 0x3 PUSH1 0x0 DUP6 PUSH20 0xFFFFFFFFFFFFFFFFFFFFFFFFFFFFFFFFFFFFFFFF AND PUSH20 0xFFFFFFFFFFFFFFFFFFFFFFFFFFFFFFFFFFFFFFFF AND DUP2 MSTORE PUSH1 0x20 ADD SWAP1 DUP2 MSTORE PUSH1 0x20 ADD PUSH1 0x0 KECCAK256 DUP2 SWAP1 SSTORE POP DUP3 PUSH20 0xFFFFFFFFFFFFFFFFFFFFFFFFFFFFFFFFFFFFFFFF AND CALLER PUSH20 0xFFFFFFFFFFFFFFFFFFFFFFFFFFFFFFFFFFFFFFFF AND PUSH32 0xDDF252AD1BE2C89B69C2B068FC378DAA952BA7F163C4A11628F55A4DF523B3EF DUP5 PUSH1 0x40 MLOAD PUSH2 0x1851 SWAP2 SWAP1 PUSH2 0x1AC2 JUMP JUMPDEST PUSH1 0x40 MLOAD DUP1 SWAP2 SUB SWAP1 LOG3 PUSH1 0x0 PUSH2 0x1864 DUP5 PUSH2 0xA6E JUMP JUMPDEST SWAP1 POP DUP1 ISZERO PUSH2 0x1877 JUMPI PUSH2 0x1875 DUP5 PUSH2 0xDFE JUMP JUMPDEST POP JUMPDEST PUSH1 0x1 SWAP2 POP POP SWAP3 SWAP2 POP POP JUMP JUMPDEST PUSH1 0x0 PUSH1 0x4 PUSH1 0x0 DUP5 PUSH20 0xFFFFFFFFFFFFFFFFFFFFFFFFFFFFFFFFFFFFFFFF AND PUSH20 0xFFFFFFFFFFFFFFFFFFFFFFFFFFFFFFFFFFFFFFFF AND DUP2 MSTORE PUSH1 0x20 ADD SWAP1 DUP2 MSTORE PUSH1 0x20 ADD PUSH1 0x0 KECCAK256 PUSH1 0x0 DUP4 PUSH20 0xFFFFFFFFFFFFFFFFFFFFFFFFFFFFFFFFFFFFFFFF AND PUSH20 0xFFFFFFFFFFFFFFFFFFFFFFFFFFFFFFFFFFFFFFFF AND DUP2 MSTORE PUSH1 0x20 ADD SWAP1 DUP2 MSTORE PUSH1 0x20 ADD PUSH1 0x0 KECCAK256 SLOAD SWAP1 POP SWAP3 SWAP2 POP POP JUMP JUMPDEST PUSH1 0x0 DUP3 DUP3 DUP5 PUSH2 0x1918 SWAP2 SWAP1 PUSH2 0x1E52 JUMP JUMPDEST SWAP2 POP DUP2 GT ISZERO PUSH2 0x195C JUMPI PUSH1 0x40 MLOAD PUSH32 0x8C379A000000000000000000000000000000000000000000000000000000000 DUP2 MSTORE PUSH1 0x4 ADD PUSH2 0x1953 SWAP1 PUSH2 0x1ED2 JUMP JUMPDEST PUSH1 0x40 MLOAD DUP1 SWAP2 SUB SWAP1 REVERT JUMPDEST SWAP3 SWAP2 POP POP JUMP JUMPDEST PUSH1 0x0 DUP3 DUP3 DUP5 PUSH2 0x1971 SWAP2 SWAP1 PUSH2 0x1E1E JUMP JUMPDEST SWAP2 POP DUP2 LT ISZERO PUSH2 0x19B5 JUMPI PUSH1 0x40 MLOAD PUSH32 0x8C379A000000000000000000000000000000000000000000000000000000000 DUP2 MSTORE PUSH1 0x4 ADD PUSH2 0x19AC SWAP1 PUSH2 0x1F3E JUMP JUMPDEST PUSH1 0x40 MLOAD DUP1 SWAP2 SUB SWAP1 REVERT JUMPDEST SWAP3 SWAP2 POP POP JUMP JUMPDEST PUSH1 0x0 DUP2 SWAP1 POP SWAP2 SWAP1 POP JUMP JUMPDEST PUSH32 0x4E487B7100000000000000000000000000000000000000000000000000000000 PUSH1 0x0 MSTORE PUSH1 0x11 PUSH1 0x4 MSTORE PUSH1 0x24 PUSH1 0x0 REVERT JUMPDEST PUSH1 0x0 PUSH2 0x19FF DUP3 PUSH2 0x19BB JUMP JUMPDEST SWAP2 POP PUSH2 0x1A0A DUP4 PUSH2 0x19BB JUMP JUMPDEST SWAP3 POP DUP3 DUP3 MUL PUSH2 0x1A18 DUP2 PUSH2 0x19BB JUMP JUMPDEST SWAP2 POP DUP3 DUP3 DIV DUP5 EQ DUP4 ISZERO OR PUSH2 0x1A2F JUMPI PUSH2 0x1A2E PUSH2 0x19C5 JUMP JUMPDEST JUMPDEST POP SWAP3 SWAP2 POP POP JUMP JUMPDEST PUSH1 0x0 DUP3 DUP3 MSTORE PUSH1 0x20 DUP3 ADD SWAP1 POP SWAP3 SWAP2 POP POP JUMP JUMPDEST PUSH32 0x4E6F7420656E6F75676820746F6B656E73000000000000000000000000000000 PUSH1 0x0 DUP3 ADD MSTORE POP JUMP JUMPDEST PUSH1 0x0 PUSH2 0x1A7D PUSH1 0x11 DUP4 PUSH2 0x1A36 JUMP JUMPDEST SWAP2 POP PUSH2 0x1A88 DUP3 PUSH2 0x1A47 JUMP JUMPDEST PUSH1 0x20 DUP3 ADD SWAP1 POP SWAP2 SWAP1 POP JUMP JUMPDEST PUSH1 0x0 PUSH1 0x20 DUP3 ADD SWAP1 POP DUP2 DUP2 SUB PUSH1 0x0 DUP4 ADD MSTORE PUSH2 0x1AAC DUP2 PUSH2 0x1A70 JUMP JUMPDEST SWAP1 POP SWAP2 SWAP1 POP JUMP JUMPDEST PUSH2 0x1ABC DUP2 PUSH2 0x19BB JUMP JUMPDEST DUP3 MSTORE POP POP JUMP JUMPDEST PUSH1 0x0 PUSH1 0x20 DUP3 ADD SWAP1 POP PUSH2 0x1AD7 PUSH1 0x0 DUP4 ADD DUP5 PUSH2 0x1AB3 JUMP JUMPDEST SWAP3 SWAP2 POP POP JUMP JUMPDEST PUSH1 0x0 DUP2 MLOAD SWAP1 POP SWAP2 SWAP1 POP JUMP JUMPDEST PUSH1 0x0 JUMPDEST DUP4 DUP2 LT ISZERO PUSH2 0x1B06 JUMPI DUP1 DUP3 ADD MLOAD DUP2 DUP5 ADD MSTORE PUSH1 0x20 DUP2 ADD SWAP1 POP PUSH2 0x1AEB JUMP JUMPDEST PUSH1 0x0 DUP5 DUP5 ADD MSTORE POP POP POP POP JUMP JUMPDEST PUSH1 0x0 PUSH1 0x1F NOT PUSH1 0x1F DUP4 ADD AND SWAP1 POP SWAP2 SWAP1 POP JUMP JUMPDEST PUSH1 0x0 PUSH2 0x1B2E DUP3 PUSH2 0x1ADD JUMP JUMPDEST PUSH2 0x1B38 DUP2 DUP6 PUSH2 0x1A36 JUMP JUMPDEST SWAP4 POP PUSH2 0x1B48 DUP2 DUP6 PUSH1 0x20 DUP7 ADD PUSH2 0x1AE8 JUMP JUMPDEST PUSH2 0x1B51 DUP2 PUSH2 0x1B12 JUMP JUMPDEST DUP5 ADD SWAP2 POP POP SWAP3 SWAP2 POP POP JUMP JUMPDEST PUSH1 0x0 PUSH1 0x20 DUP3 ADD SWAP1 POP DUP2 DUP2 SUB PUSH1 0x0 DUP4 ADD MSTORE PUSH2 0x1B76 DUP2 DUP5 PUSH2 0x1B23 JUMP JUMPDEST SWAP1 POP SWAP3 SWAP2 POP POP JUMP JUMPDEST PUSH1 0x0 DUP1 REVERT JUMPDEST PUSH1 0x0 PUSH20 0xFFFFFFFFFFFFFFFFFFFFFFFFFFFFFFFFFFFFFFFF DUP3 AND SWAP1 POP SWAP2 SWAP1 POP JUMP JUMPDEST PUSH1 0x0 PUSH2 0x1BAE DUP3 PUSH2 0x1B83 JUMP JUMPDEST SWAP1 POP SWAP2 SWAP1 POP JUMP JUMPDEST PUSH2 0x1BBE DUP2 PUSH2 0x1BA3 JUMP JUMPDEST DUP2 EQ PUSH2 0x1BC9 JUMPI PUSH1 0x0 DUP1 REVERT JUMPDEST POP JUMP JUMPDEST PUSH1 0x0 DUP2 CALLDATALOAD SWAP1 POP PUSH2 0x1BDB DUP2 PUSH2 0x1BB5 JUMP JUMPDEST SWAP3 SWAP2 POP POP JUMP JUMPDEST PUSH2 0x1BEA DUP2 PUSH2 0x19BB JUMP JUMPDEST DUP2 EQ PUSH2 0x1BF5 JUMPI PUSH1 0x0 DUP1 REVERT JUMPDEST POP JUMP JUMPDEST PUSH1 0x0 DUP2 CALLDATALOAD SWAP1 POP PUSH2 0x1C07 DUP2 PUSH2 0x1BE1 JUMP JUMPDEST SWAP3 SWAP2 POP POP JUMP JUMPDEST PUSH1 0x0 DUP1 PUSH1 0x40 DUP4 DUP6 SUB SLT ISZERO PUSH2 0x1C24 JUMPI PUSH2 0x1C23 PUSH2 0x1B7E JUMP JUMPDEST JUMPDEST PUSH1 0x0 PUSH2 0x1C32 DUP6 DUP3 DUP7 ADD PUSH2 0x1BCC JUMP JUMPDEST SWAP3 POP POP PUSH1 0x20 PUSH2 0x1C43 DUP6 DUP3 DUP7 ADD PUSH2 0x1BF8 JUMP JUMPDEST SWAP2 POP POP SWAP3 POP SWAP3 SWAP1 POP JUMP JUMPDEST PUSH1 0x0 DUP2 ISZERO ISZERO SWAP1 POP SWAP2 SWAP1 POP JUMP JUMPDEST PUSH2 0x1C62 DUP2 PUSH2 0x1C4D JUMP JUMPDEST DUP3 MSTORE POP POP JUMP JUMPDEST PUSH1 0x0 PUSH1 0x20 DUP3 ADD SWAP1 POP PUSH2 0x1C7D PUSH1 0x0 DUP4 ADD DUP5 PUSH2 0x1C59 JUMP JUMPDEST SWAP3 SWAP2 POP POP JUMP JUMPDEST PUSH1 0x0 PUSH1 0x20 DUP3 DUP5 SUB SLT ISZERO PUSH2 0x1C99 JUMPI PUSH2 0x1C98 PUSH2 0x1B7E JUMP JUMPDEST JUMPDEST PUSH1 0x0 PUSH2 0x1CA7 DUP5 DUP3 DUP6 ADD PUSH2 0x1BCC JUMP JUMPDEST SWAP2 POP POP SWAP3 SWAP2 POP POP JUMP JUMPDEST PUSH1 0x0 DUP1 PUSH1 0x0 PUSH1 0x60 DUP5 DUP7 SUB SLT ISZERO PUSH2 0x1CC9 JUMPI PUSH2 0x1CC8 PUSH2 0x1B7E JUMP JUMPDEST JUMPDEST PUSH1 0x0 PUSH2 0x1CD7 DUP7 DUP3 DUP8 ADD PUSH2 0x1BCC JUMP JUMPDEST SWAP4 POP POP PUSH1 0x20 PUSH2 0x1CE8 DUP7 DUP3 DUP8 ADD PUSH2 0x1BCC JUMP JUMPDEST SWAP3 POP POP PUSH1 0x40 PUSH2 0x1CF9 DUP7 DUP3 DUP8 ADD PUSH2 0x1BF8 JUMP JUMPDEST SWAP2 POP POP SWAP3 POP SWAP3 POP SWAP3 JUMP JUMPDEST PUSH1 0x0 PUSH1 0xFF DUP3 AND SWAP1 POP SWAP2 SWAP1 POP JUMP JUMPDEST PUSH2 0x1D19 DUP2 PUSH2 0x1D03 JUMP JUMPDEST DUP3 MSTORE POP POP JUMP JUMPDEST PUSH1 0x0 PUSH1 0x20 DUP3 ADD SWAP1 POP PUSH2 0x1D34 PUSH1 0x0 DUP4 ADD DUP5 PUSH2 0x1D10 JUMP JUMPDEST SWAP3 SWAP2 POP POP JUMP JUMPDEST PUSH1 0x0 DUP1 PUSH1 0x40 DUP4 DUP6 SUB SLT ISZERO PUSH2 0x1D51 JUMPI PUSH2 0x1D50 PUSH2 0x1B7E JUMP JUMPDEST JUMPDEST PUSH1 0x0 PUSH2 0x1D5F DUP6 DUP3 DUP7 ADD PUSH2 0x1BCC JUMP JUMPDEST SWAP3 POP POP PUSH1 0x20 PUSH2 0x1D70 DUP6 DUP3 DUP7 ADD PUSH2 0x1BCC JUMP JUMPDEST SWAP2 POP POP SWAP3 POP SWAP3 SWAP1 POP JUMP JUMPDEST PUSH2 0x1D83 DUP2 PUSH2 0x1BA3 JUMP JUMPDEST DUP3 MSTORE POP POP JUMP JUMPDEST PUSH1 0x0 PUSH1 0x40 DUP3 ADD SWAP1 POP PUSH2 0x1D9E PUSH1 0x0 DUP4 ADD DUP6 PUSH2 0x1D7A JUMP JUMPDEST PUSH2 0x1DAB PUSH1 0x20 DUP4 ADD DUP5 PUSH2 0x1C59 JUMP JUMPDEST SWAP4 SWAP3 POP POP POP JUMP JUMPDEST PUSH32 0x45524332303A206D696E7420746F20746865207A65726F206164647265737300 PUSH1 0x0 DUP3 ADD MSTORE POP JUMP JUMPDEST PUSH1 0x0 PUSH2 0x1DE8 PUSH1 0x1F DUP4 PUSH2 0x1A36 JUMP JUMPDEST SWAP2 POP PUSH2 0x1DF3 DUP3 PUSH2 0x1DB2 JUMP JUMPDEST PUSH1 0x20 DUP3 ADD SWAP1 POP SWAP2 SWAP1 POP JUMP JUMPDEST PUSH1 0x0 PUSH1 0x20 DUP3 ADD SWAP1 POP DUP2 DUP2 SUB PUSH1 0x0 DUP4 ADD MSTORE PUSH2 0x1E17 DUP2 PUSH2 0x1DDB JUMP JUMPDEST SWAP1 POP SWAP2 SWAP1 POP JUMP JUMPDEST PUSH1 0x0 PUSH2 0x1E29 DUP3 PUSH2 0x19BB JUMP JUMPDEST SWAP2 POP PUSH2 0x1E34 DUP4 PUSH2 0x19BB JUMP JUMPDEST SWAP3 POP DUP3 DUP3 ADD SWAP1 POP DUP1 DUP3 GT ISZERO PUSH2 0x1E4C JUMPI PUSH2 0x1E4B PUSH2 0x19C5 JUMP JUMPDEST JUMPDEST SWAP3 SWAP2 POP POP JUMP JUMPDEST PUSH1 0x0 PUSH2 0x1E5D DUP3 PUSH2 0x19BB JUMP JUMPDEST SWAP2 POP PUSH2 0x1E68 DUP4 PUSH2 0x19BB JUMP JUMPDEST SWAP3 POP DUP3 DUP3 SUB SWAP1 POP DUP2 DUP2 GT ISZERO PUSH2 0x1E80 JUMPI PUSH2 0x1E7F PUSH2 0x19C5 JUMP JUMPDEST JUMPDEST SWAP3 SWAP2 POP POP JUMP JUMPDEST PUSH32 0x64732D6D6174682D7375622D756E646572666C6F770000000000000000000000 PUSH1 0x0 DUP3 ADD MSTORE POP JUMP JUMPDEST PUSH1 0x0 PUSH2 0x1EBC PUSH1 0x15 DUP4 PUSH2 0x1A36 JUMP JUMPDEST SWAP2 POP PUSH2 0x1EC7 DUP3 PUSH2 0x1E86 JUMP JUMPDEST PUSH1 0x20 DUP3 ADD SWAP1 POP SWAP2 SWAP1 POP JUMP JUMPDEST PUSH1 0x0 PUSH1 0x20 DUP3 ADD SWAP1 POP DUP2 DUP2 SUB PUSH1 0x0 DUP4 ADD MSTORE PUSH2 0x1EEB DUP2 PUSH2 0x1EAF JUMP JUMPDEST SWAP1 POP SWAP2 SWAP1 POP JUMP JUMPDEST PUSH32 0x64732D6D6174682D6164642D6F766572666C6F77000000000000000000000000 PUSH1 0x0 DUP3 ADD MSTORE POP JUMP JUMPDEST PUSH1 0x0 PUSH2 0x1F28 PUSH1 0x14 DUP4 PUSH2 0x1A36 JUMP JUMPDEST SWAP2 POP PUSH2 0x1F33 DUP3 PUSH2 0x1EF2 JUMP JUMPDEST PUSH1 0x20 DUP3 ADD SWAP1 POP SWAP2 SWAP1 POP JUMP JUMPDEST PUSH1 0x0 PUSH1 0x20 DUP3 ADD SWAP1 POP DUP2 DUP2 SUB PUSH1 0x0 DUP4 ADD MSTORE PUSH2 0x1F57 DUP2 PUSH2 0x1F1B JUMP JUMPDEST SWAP1 POP SWAP2 SWAP1 POP JUMP INVALID MSIZE PUSH16 0x75206861766520756E6C6F636B656420 PUSH21 0x686520736563726574206D6573736167652E205468 PUSH6 0x207365637265 PUSH21 0x20746F2068617070696E6573732061726520626972 PUSH5 0x2073656564 PUSH20 0x2E536F7272792C20626574746572206C75636B20 PUSH15 0x6578742074696D652067657474696E PUSH8 0x20696E746F206F75 PUSH19 0x20666C6F636B21A26469706673582212203E6B AND 0xB9 0xA9 0xD5 0xDA PUSH11 0xE8401D24B776D395E86D7A SHL DUP2 0x4B PUSH31 0xC23F969A3C98C960A64736F6C634300081200330000000000000000000000 "
				},
				"gasEstimates": {
					"creation": {
						"codeDepositCost": "1642600",
						"executionCost": "infinite",
						"totalCost": "infinite"
					},
					"external": {
						"VIPClub(address,address)": "infinite",
						"_totalSupply()": "2518",
						"addBirdFriends(address,address)": "infinite",
						"allowance(address,address)": "infinite",
						"approve(address,uint256)": "infinite",
						"balanceOf(address)": "2952",
						"decimals()": "380",
						"decreaseAllowance(address,uint256)": "infinite",
						"increaseAllowance(address,uint256)": "infinite",
						"isUser(address)": "2962",
						"mint(address,uint256)": "infinite",
						"name()": "infinite",
						"newUser(address)": "51892",
						"symbol()": "infinite",
						"totalSupply()": "2527",
						"transfer(address,uint256)": "infinite",
						"transferFrom(address,address,uint256)": "infinite",
						"unitsOneEthCanBuy()": "2518",
						"updateUserData(address)": "27385",
						"users(address)": "infinite"
					},
					"internal": {
						"_transfer(address,address,uint256)": "infinite"
					}
				},
				"methodIdentifiers": {
					"VIPClub(address,address)": "4d8fbb96",
					"_totalSupply()": "3eaaf86b",
					"addBirdFriends(address,address)": "58326223",
					"allowance(address,address)": "dd62ed3e",
					"approve(address,uint256)": "095ea7b3",
					"balanceOf(address)": "70a08231",
					"decimals()": "313ce567",
					"decreaseAllowance(address,uint256)": "a457c2d7",
					"increaseAllowance(address,uint256)": "39509351",
					"isUser(address)": "4209fff1",
					"mint(address,uint256)": "40c10f19",
					"name()": "06fdde03",
					"newUser(address)": "0cb5f653",
					"symbol()": "95d89b41",
					"totalSupply()": "18160ddd",
					"transfer(address,uint256)": "a9059cbb",
					"transferFrom(address,address,uint256)": "23b872dd",
					"unitsOneEthCanBuy()": "65f2bc2e",
					"updateUserData(address)": "29e974e8",
					"users(address)": "a87430ba"
				}
			},
			"storageLayout": {
				"storage": [
					{
						"astId": 18,
						"contract": "budgyToken_v2.sol:BudgyToken2",
						"label": "_totalSupply",
						"offset": 0,
						"slot": "0",
						"type": "t_uint256"
					},
					{
						"astId": 36,
						"contract": "budgyToken_v2.sol:BudgyToken2",
						"label": "unitsOneEthCanBuy",
						"offset": 0,
						"slot": "1",
						"type": "t_uint256"
					},
					{
						"astId": 41,
						"contract": "budgyToken_v2.sol:BudgyToken2",
						"label": "users",
						"offset": 0,
						"slot": "2",
						"type": "t_mapping(t_address,t_struct(User)10_storage)"
					},
					{
						"astId": 45,
						"contract": "budgyToken_v2.sol:BudgyToken2",
						"label": "_balances",
						"offset": 0,
						"slot": "3",
						"type": "t_mapping(t_address,t_uint256)"
					},
					{
						"astId": 51,
						"contract": "budgyToken_v2.sol:BudgyToken2",
						"label": "_allowed",
						"offset": 0,
						"slot": "4",
						"type": "t_mapping(t_address,t_mapping(t_address,t_uint256))"
					},
					{
						"astId": 53,
						"contract": "budgyToken_v2.sol:BudgyToken2",
						"label": "tokenOwner",
						"offset": 0,
						"slot": "5",
						"type": "t_address"
					}
				],
				"types": {
					"t_address": {
						"encoding": "inplace",
						"label": "address",
						"numberOfBytes": "20"
					},
					"t_bool": {
						"encoding": "inplace",
						"label": "bool",
						"numberOfBytes": "1"
					},
					"t_mapping(t_address,t_mapping(t_address,t_uint256))": {
						"encoding": "mapping",
						"key": "t_address",
						"label": "mapping(address => mapping(address => uint256))",
						"numberOfBytes": "32",
						"value": "t_mapping(t_address,t_uint256)"
					},
					"t_mapping(t_address,t_struct(User)10_storage)": {
						"encoding": "mapping",
						"key": "t_address",
						"label": "mapping(address => struct BudgyToken2.User)",
						"numberOfBytes": "32",
						"value": "t_struct(User)10_storage"
					},
					"t_mapping(t_address,t_uint256)": {
						"encoding": "mapping",
						"key": "t_address",
						"label": "mapping(address => uint256)",
						"numberOfBytes": "32",
						"value": "t_uint256"
					},
					"t_struct(User)10_storage": {
						"encoding": "inplace",
						"label": "struct BudgyToken2.User",
						"members": [
							{
								"astId": 7,
								"contract": "budgyToken_v2.sol:BudgyToken2",
								"label": "userData",
								"offset": 0,
								"slot": "0",
								"type": "t_address"
							},
							{
								"astId": 9,
								"contract": "budgyToken_v2.sol:BudgyToken2",
								"label": "userExists",
								"offset": 20,
								"slot": "0",
								"type": "t_bool"
							}
						],
						"numberOfBytes": "32"
					},
					"t_uint256": {
						"encoding": "inplace",
						"label": "uint256",
						"numberOfBytes": "32"
					}
				}
			},
			"userdoc": {
				"kind": "user",
				"methods": {
					"allowance(address,address)": {
						"notice": "Function to check the amount of tokens that an owner allowed to a spender."
					}
				},
				"version": 1
			}
		}
	}
}