{
	"Pair.sol": {
		"UniswapV2Pair": {
			"abi": [
				{
					"inputs": [],
					"stateMutability": "nonpayable",
					"type": "constructor"
				},
				{
					"anonymous": false,
					"inputs": [
						{
							"indexed": true,
							"internalType": "address",
							"name": "owner",
							"type": "address"
						},
						{
							"indexed": true,
							"internalType": "address",
							"name": "spender",
							"type": "address"
						},
						{
							"indexed": false,
							"internalType": "uint256",
							"name": "value",
							"type": "uint256"
						}
					],
					"name": "Approval",
					"type": "event"
				},
				{
					"anonymous": false,
					"inputs": [
						{
							"indexed": true,
							"internalType": "address",
							"name": "sender",
							"type": "address"
						},
						{
							"indexed": false,
							"internalType": "uint256",
							"name": "amount0",
							"type": "uint256"
						},
						{
							"indexed": false,
							"internalType": "uint256",
							"name": "amount1",
							"type": "uint256"
						},
						{
							"indexed": true,
							"internalType": "address",
							"name": "to",
							"type": "address"
						}
					],
					"name": "Burn",
					"type": "event"
				},
				{
					"anonymous": false,
					"inputs": [
						{
							"indexed": true,
							"internalType": "address",
							"name": "sender",
							"type": "address"
						},
						{
							"indexed": false,
							"internalType": "uint256",
							"name": "amount0",
							"type": "uint256"
						},
						{
							"indexed": false,
							"internalType": "uint256",
							"name": "amount1",
							"type": "uint256"
						}
					],
					"name": "Mint",
					"type": "event"
				},
				{
					"anonymous": false,
					"inputs": [
						{
							"indexed": true,
							"internalType": "address",
							"name": "sender",
							"type": "address"
						},
						{
							"indexed": false,
							"internalType": "uint256",
							"name": "amount0In",
							"type": "uint256"
						},
						{
							"indexed": false,
							"internalType": "uint256",
							"name": "amount1In",
							"type": "uint256"
						},
						{
							"indexed": false,
							"internalType": "uint256",
							"name": "amount0Out",
							"type": "uint256"
						},
						{
							"indexed": false,
							"internalType": "uint256",
							"name": "amount1Out",
							"type": "uint256"
						},
						{
							"indexed": true,
							"internalType": "address",
							"name": "to",
							"type": "address"
						}
					],
					"name": "Swap",
					"type": "event"
				},
				{
					"anonymous": false,
					"inputs": [
						{
							"indexed": false,
							"internalType": "uint112",
							"name": "reserve0",
							"type": "uint112"
						},
						{
							"indexed": false,
							"internalType": "uint112",
							"name": "reserve1",
							"type": "uint112"
						}
					],
					"name": "Sync",
					"type": "event"
				},
				{
					"anonymous": false,
					"inputs": [
						{
							"indexed": true,
							"internalType": "address",
							"name": "from",
							"type": "address"
						},
						{
							"indexed": true,
							"internalType": "address",
							"name": "to",
							"type": "address"
						},
						{
							"indexed": false,
							"internalType": "uint256",
							"name": "value",
							"type": "uint256"
						}
					],
					"name": "Transfer",
					"type": "event"
				},
				{
					"inputs": [],
					"name": "MINIMUM_LIQUIDITY",
					"outputs": [
						{
							"internalType": "uint256",
							"name": "",
							"type": "uint256"
						}
					],
					"stateMutability": "view",
					"type": "function"
				},
				{
					"inputs": [
						{
							"internalType": "address",
							"name": "",
							"type": "address"
						},
						{
							"internalType": "address",
							"name": "",
							"type": "address"
						}
					],
					"name": "allowance",
					"outputs": [
						{
							"internalType": "uint256",
							"name": "",
							"type": "uint256"
						}
					],
					"stateMutability": "view",
					"type": "function"
				},
				{
					"inputs": [
						{
							"internalType": "address",
							"name": "spender",
							"type": "address"
						},
						{
							"internalType": "uint256",
							"name": "value",
							"type": "uint256"
						}
					],
					"name": "approve",
					"outputs": [
						{
							"internalType": "bool",
							"name": "",
							"type": "bool"
						}
					],
					"stateMutability": "nonpayable",
					"type": "function"
				},
				{
					"inputs": [
						{
							"internalType": "address",
							"name": "",
							"type": "address"
						}
					],
					"name": "balanceOf",
					"outputs": [
						{
							"internalType": "uint256",
							"name": "",
							"type": "uint256"
						}
					],
					"stateMutability": "view",
					"type": "function"
				},
				{
					"inputs": [
						{
							"internalType": "address",
							"name": "to",
							"type": "address"
						}
					],
					"name": "burn",
					"outputs": [
						{
							"internalType": "uint256",
							"name": "amount0",
							"type": "uint256"
						},
						{
							"internalType": "uint256",
							"name": "amount1",
							"type": "uint256"
						}
					],
					"stateMutability": "nonpayable",
					"type": "function"
				},
				{
					"inputs": [],
					"name": "decimals",
					"outputs": [
						{
							"internalType": "uint8",
							"name": "",
							"type": "uint8"
						}
					],
					"stateMutability": "view",
					"type": "function"
				},
				{
					"inputs": [],
					"name": "factory",
					"outputs": [
						{
							"internalType": "address",
							"name": "",
							"type": "address"
						}
					],
					"stateMutability": "view",
					"type": "function"
				},
				{
					"inputs": [],
					"name": "getReserves",
					"outputs": [
						{
							"internalType": "uint112",
							"name": "_reserve0",
							"type": "uint112"
						},
						{
							"internalType": "uint112",
							"name": "_reserve1",
							"type": "uint112"
						},
						{
							"internalType": "uint32",
							"name": "_blockTimestampLast",
							"type": "uint32"
						}
					],
					"stateMutability": "view",
					"type": "function"
				},
				{
					"inputs": [
						{
							"internalType": "address",
							"name": "_token0",
							"type": "address"
						},
						{
							"internalType": "address",
							"name": "_token1",
							"type": "address"
						}
					],
					"name": "initialize",
					"outputs": [],
					"stateMutability": "nonpayable",
					"type": "function"
				},
				{
					"inputs": [],
					"name": "kLast",
					"outputs": [
						{
							"internalType": "uint256",
							"name": "",
							"type": "uint256"
						}
					],
					"stateMutability": "view",
					"type": "function"
				},
				{
					"inputs": [
						{
							"internalType": "address",
							"name": "to",
							"type": "address"
						}
					],
					"name": "mint",
					"outputs": [
						{
							"internalType": "uint256",
							"name": "liquidity",
							"type": "uint256"
						}
					],
					"stateMutability": "nonpayable",
					"type": "function"
				},
				{
					"inputs": [],
					"name": "name",
					"outputs": [
						{
							"internalType": "string",
							"name": "",
							"type": "string"
						}
					],
					"stateMutability": "view",
					"type": "function"
				},
				{
					"inputs": [
						{
							"internalType": "address",
							"name": "",
							"type": "address"
						}
					],
					"name": "nonces",
					"outputs": [
						{
							"internalType": "uint256",
							"name": "",
							"type": "uint256"
						}
					],
					"stateMutability": "view",
					"type": "function"
				},
				{
					"inputs": [],
					"name": "price0CumulativeLast",
					"outputs": [
						{
							"internalType": "uint256",
							"name": "",
							"type": "uint256"
						}
					],
					"stateMutability": "view",
					"type": "function"
				},
				{
					"inputs": [],
					"name": "price1CumulativeLast",
					"outputs": [
						{
							"internalType": "uint256",
							"name": "",
							"type": "uint256"
						}
					],
					"stateMutability": "view",
					"type": "function"
				},
				{
					"inputs": [
						{
							"internalType": "address",
							"name": "to",
							"type": "address"
						}
					],
					"name": "skim",
					"outputs": [],
					"stateMutability": "nonpayable",
					"type": "function"
				},
				{
					"inputs": [
						{
							"internalType": "uint256",
							"name": "amount0Out",
							"type": "uint256"
						},
						{
							"internalType": "uint256",
							"name": "amount1Out",
							"type": "uint256"
						},
						{
							"internalType": "address",
							"name": "to",
							"type": "address"
						},
						{
							"internalType": "bytes",
							"name": "data",
							"type": "bytes"
						}
					],
					"name": "swap",
					"outputs": [],
					"stateMutability": "nonpayable",
					"type": "function"
				},
				{
					"inputs": [],
					"name": "symbol",
					"outputs": [
						{
							"internalType": "string",
							"name": "",
							"type": "string"
						}
					],
					"stateMutability": "view",
					"type": "function"
				},
				{
					"inputs": [],
					"name": "sync",
					"outputs": [],
					"stateMutability": "nonpayable",
					"type": "function"
				},
				{
					"inputs": [],
					"name": "token0",
					"outputs": [
						{
							"internalType": "address",
							"name": "",
							"type": "address"
						}
					],
					"stateMutability": "view",
					"type": "function"
				},
				{
					"inputs": [],
					"name": "token1",
					"outputs": [
						{
							"internalType": "address",
							"name": "",
							"type": "address"
						}
					],
					"stateMutability": "view",
					"type": "function"
				},
				{
					"inputs": [],
					"name": "totalSupply",
					"outputs": [
						{
							"internalType": "uint256",
							"name": "",
							"type": "uint256"
						}
					],
					"stateMutability": "view",
					"type": "function"
				},
				{
					"inputs": [
						{
							"internalType": "address",
							"name": "to",
							"type": "address"
						},
						{
							"internalType": "uint256",
							"name": "value",
							"type": "uint256"
						}
					],
					"name": "transfer",
					"outputs": [
						{
							"internalType": "bool",
							"name": "",
							"type": "bool"
						}
					],
					"stateMutability": "nonpayable",
					"type": "function"
				},
				{
					"inputs": [
						{
							"internalType": "address",
							"name": "from",
							"type": "address"
						},
						{
							"internalType": "address",
							"name": "to",
							"type": "address"
						},
						{
							"internalType": "uint256",
							"name": "value",
							"type": "uint256"
						}
					],
					"name": "transferFrom",
					"outputs": [
						{
							"internalType": "bool",
							"name": "",
							"type": "bool"
						}
					],
					"stateMutability": "nonpayable",
					"type": "function"
				}
			],
			"devdoc": {
				"kind": "dev",
				"methods": {},
				"version": 1
			},
			"evm": {
				"assembly": "    /* \"Pair.sol\":270:9745  contract UniswapV2Pair is ERC20 {... */\n  mstore(0x40, 0x80)\n    /* \"Pair.sol\":2025:2085  constructor() public {... */\n  callvalue\n  dup1\n  iszero\n  tag_1\n  jumpi\n  0x00\n  dup1\n  revert\ntag_1:\n  pop\n    /* \"Pair.sol\":2067:2077  msg.sender */\n  caller\n    /* \"Pair.sol\":2057:2064  factory */\n  0x04\n  0x00\n    /* \"Pair.sol\":2057:2077  factory = msg.sender */\n  0x0100\n  exp\n  dup2\n  sload\n  dup2\n  0xffffffffffffffffffffffffffffffffffffffff\n  mul\n  not\n  and\n  swap1\n  dup4\n  0xffffffffffffffffffffffffffffffffffffffff\n  and\n  mul\n  or\n  swap1\n  sstore\n  pop\n    /* \"Pair.sol\":270:9745  contract UniswapV2Pair is ERC20 {... */\n  dataSize(sub_0)\n  dup1\n  dataOffset(sub_0)\n  0x00\n  codecopy\n  0x00\n  return\nstop\n\nsub_0: assembly {\n        /* \"Pair.sol\":270:9745  contract UniswapV2Pair is ERC20 {... */\n      mstore(0x40, 0x80)\n      callvalue\n      dup1\n      iszero\n      tag_1\n      jumpi\n      0x00\n      dup1\n      revert\n    tag_1:\n      pop\n      jumpi(tag_2, lt(calldatasize, 0x04))\n      shr(0xe0, calldataload(0x00))\n      dup1\n      0x70a08231\n      gt\n      tag_27\n      jumpi\n      dup1\n      0xba9a7a56\n      gt\n      tag_28\n      jumpi\n      dup1\n      0xba9a7a56\n      eq\n      tag_21\n      jumpi\n      dup1\n      0xbc25cf77\n      eq\n      tag_22\n      jumpi\n      dup1\n      0xc45a0155\n      eq\n      tag_23\n      jumpi\n      dup1\n      0xd21220a7\n      eq\n      tag_24\n      jumpi\n      dup1\n      0xdd62ed3e\n      eq\n      tag_25\n      jumpi\n      dup1\n      0xfff6cae9\n      eq\n      tag_26\n      jumpi\n      jump(tag_2)\n    tag_28:\n      dup1\n      0x70a08231\n      eq\n      tag_15\n      jumpi\n      dup1\n      0x7464fc3d\n      eq\n      tag_16\n      jumpi\n      dup1\n      0x7ecebe00\n      eq\n      tag_17\n      jumpi\n      dup1\n      0x89afcb44\n      eq\n      tag_18\n      jumpi\n      dup1\n      0x95d89b41\n      eq\n      tag_19\n      jumpi\n      dup1\n      0xa9059cbb\n      eq\n      tag_20\n      jumpi\n      jump(tag_2)\n    tag_27:\n      dup1\n      0x23b872dd\n      gt\n      tag_29\n      jumpi\n      dup1\n      0x23b872dd\n      eq\n      tag_9\n      jumpi\n      dup1\n      0x313ce567\n      eq\n      tag_10\n      jumpi\n      dup1\n      0x485cc955\n      eq\n      tag_11\n      jumpi\n      dup1\n      0x5909c0d5\n      eq\n      tag_12\n      jumpi\n      dup1\n      0x5a3d5493\n      eq\n      tag_13\n      jumpi\n      dup1\n      0x6a627842\n      eq\n      tag_14\n      jumpi\n      jump(tag_2)\n    tag_29:\n      dup1\n      0x022c0d9f\n      eq\n      tag_3\n      jumpi\n      dup1\n      0x06fdde03\n      eq\n      tag_4\n      jumpi\n      dup1\n      0x0902f1ac\n      eq\n      tag_5\n      jumpi\n      dup1\n      0x095ea7b3\n      eq\n      tag_6\n      jumpi\n      dup1\n      0x0dfe1681\n      eq\n      tag_7\n      jumpi\n      dup1\n      0x18160ddd\n      eq\n      tag_8\n      jumpi\n    tag_2:\n      0x00\n      dup1\n      revert\n        /* \"Pair.sol\":7277:9161  function swap(uint amount0Out, uint amount1Out, address to, bytes calldata data) external {... */\n    tag_3:\n      tag_30\n      0x04\n      dup1\n      calldatasize\n      sub\n      dup2\n      add\n      swap1\n      tag_31\n      swap2\n      swap1\n      tag_32\n      jump\t// in\n    tag_31:\n      tag_33\n      jump\t// in\n    tag_30:\n      stop\n        /* \"ERC20.sol\":160:202  string public constant name = 'Uniswap V2' */\n    tag_4:\n      tag_34\n      tag_35\n      jump\t// in\n    tag_34:\n      mload(0x40)\n      tag_36\n      swap2\n      swap1\n      tag_37\n      jump\t// in\n    tag_36:\n      mload(0x40)\n      dup1\n      swap2\n      sub\n      swap1\n      return\n        /* \"Pair.sol\":1090:1321  function getReserves() public view returns (uint112 _reserve0, uint112 _reserve1, uint32 _blockTimestampLast) {... */\n    tag_5:\n      tag_38\n      tag_39\n      jump\t// in\n    tag_38:\n      mload(0x40)\n      tag_40\n      swap4\n      swap3\n      swap2\n      swap1\n      tag_41\n      jump\t// in\n    tag_40:\n      mload(0x40)\n      dup1\n      swap2\n      sub\n      swap1\n      return\n        /* \"ERC20.sol\":1525:1672  function approve(address spender, uint value) external returns (bool) {... */\n    tag_6:\n      tag_42\n      0x04\n      dup1\n      calldatasize\n      sub\n      dup2\n      add\n      swap1\n      tag_43\n      swap2\n      swap1\n      tag_44\n      jump\t// in\n    tag_43:\n      tag_45\n      jump\t// in\n    tag_42:\n      mload(0x40)\n      tag_46\n      swap2\n      swap1\n      tag_47\n      jump\t// in\n    tag_46:\n      mload(0x40)\n      dup1\n      swap2\n      sub\n      swap1\n      return\n        /* \"Pair.sol\":555:576  address public token0 */\n    tag_7:\n      tag_48\n      tag_49\n      jump\t// in\n    tag_48:\n      mload(0x40)\n      tag_50\n      swap2\n      swap1\n      tag_51\n      jump\t// in\n    tag_50:\n      mload(0x40)\n      dup1\n      swap2\n      sub\n      swap1\n      return\n        /* \"ERC20.sol\":298:323  uint  public  totalSupply */\n    tag_8:\n      tag_52\n      tag_53\n      jump\t// in\n    tag_52:\n      mload(0x40)\n      tag_54\n      swap2\n      swap1\n      tag_55\n      jump\t// in\n    tag_54:\n      mload(0x40)\n      dup1\n      swap2\n      sub\n      swap1\n      return\n        /* \"ERC20.sol\":1827:2135  function transferFrom(address from, address to, uint value) external  returns (bool) {... */\n    tag_9:\n      tag_56\n      0x04\n      dup1\n      calldatasize\n      sub\n      dup2\n      add\n      swap1\n      tag_57\n      swap2\n      swap1\n      tag_58\n      jump\t// in\n    tag_57:\n      tag_59\n      jump\t// in\n    tag_56:\n      mload(0x40)\n      tag_60\n      swap2\n      swap1\n      tag_47\n      jump\t// in\n    tag_60:\n      mload(0x40)\n      dup1\n      swap2\n      sub\n      swap1\n      return\n        /* \"ERC20.sol\":256:291  uint8 public constant decimals = 18 */\n    tag_10:\n      tag_61\n      tag_62\n      jump\t// in\n    tag_61:\n      mload(0x40)\n      tag_63\n      swap2\n      swap1\n      tag_64\n      jump\t// in\n    tag_63:\n      mload(0x40)\n      dup1\n      swap2\n      sub\n      swap1\n      return\n        /* \"Pair.sol\":2150:2360  function initialize(address _token0, address _token1) external {... */\n    tag_11:\n      tag_65\n      0x04\n      dup1\n      calldatasize\n      sub\n      dup2\n      add\n      swap1\n      tag_66\n      swap2\n      swap1\n      tag_67\n      jump\t// in\n    tag_66:\n      tag_68\n      jump\t// in\n    tag_65:\n      stop\n        /* \"Pair.sol\":906:938  uint public price0CumulativeLast */\n    tag_12:\n      tag_69\n      tag_70\n      jump\t// in\n    tag_69:\n      mload(0x40)\n      tag_71\n      swap2\n      swap1\n      tag_55\n      jump\t// in\n    tag_71:\n      mload(0x40)\n      dup1\n      swap2\n      sub\n      swap1\n      return\n        /* \"Pair.sol\":945:977  uint public price1CumulativeLast */\n    tag_13:\n      tag_72\n      tag_73\n      jump\t// in\n    tag_72:\n      mload(0x40)\n      tag_74\n      swap2\n      swap1\n      tag_55\n      jump\t// in\n    tag_74:\n      mload(0x40)\n      dup1\n      swap2\n      sub\n      swap1\n      return\n        /* \"Pair.sol\":4356:5592  function mint(address to) external  returns (uint liquidity) {... */\n    tag_14:\n      tag_75\n      0x04\n      dup1\n      calldatasize\n      sub\n      dup2\n      add\n      swap1\n      tag_76\n      swap2\n      swap1\n      tag_77\n      jump\t// in\n    tag_76:\n      tag_78\n      jump\t// in\n    tag_75:\n      mload(0x40)\n      tag_79\n      swap2\n      swap1\n      tag_55\n      jump\t// in\n    tag_79:\n      mload(0x40)\n      dup1\n      swap2\n      sub\n      swap1\n      return\n        /* \"ERC20.sol\":330:372  mapping(address => uint) public  balanceOf */\n    tag_15:\n      tag_80\n      0x04\n      dup1\n      calldatasize\n      sub\n      dup2\n      add\n      swap1\n      tag_81\n      swap2\n      swap1\n      tag_77\n      jump\t// in\n    tag_81:\n      tag_82\n      jump\t// in\n    tag_80:\n      mload(0x40)\n      tag_83\n      swap2\n      swap1\n      tag_55\n      jump\t// in\n    tag_83:\n      mload(0x40)\n      dup1\n      swap2\n      sub\n      swap1\n      return\n        /* \"Pair.sol\":984:1001  uint public kLast */\n    tag_16:\n      tag_84\n      tag_85\n      jump\t// in\n    tag_84:\n      mload(0x40)\n      tag_86\n      swap2\n      swap1\n      tag_55\n      jump\t// in\n    tag_86:\n      mload(0x40)\n      dup1\n      swap2\n      sub\n      swap1\n      return\n        /* \"ERC20.sol\":449:487  mapping(address => uint) public nonces */\n    tag_17:\n      tag_87\n      0x04\n      dup1\n      calldatasize\n      sub\n      dup2\n      add\n      swap1\n      tag_88\n      swap2\n      swap1\n      tag_77\n      jump\t// in\n    tag_88:\n      tag_89\n      jump\t// in\n    tag_87:\n      mload(0x40)\n      tag_90\n      swap2\n      swap1\n      tag_55\n      jump\t// in\n    tag_90:\n      mload(0x40)\n      dup1\n      swap2\n      sub\n      swap1\n      return\n        /* \"Pair.sol\":5704:7165  function burn(address to) external returns (uint amount0, uint amount1) {... */\n    tag_18:\n      tag_91\n      0x04\n      dup1\n      calldatasize\n      sub\n      dup2\n      add\n      swap1\n      tag_92\n      swap2\n      swap1\n      tag_77\n      jump\t// in\n    tag_92:\n      tag_93\n      jump\t// in\n    tag_91:\n      mload(0x40)\n      tag_94\n      swap3\n      swap2\n      swap1\n      tag_95\n      jump\t// in\n    tag_94:\n      mload(0x40)\n      dup1\n      swap2\n      sub\n      swap1\n      return\n        /* \"ERC20.sol\":209:249  string public constant symbol = 'UNI-V2' */\n    tag_19:\n      tag_96\n      tag_97\n      jump\t// in\n    tag_96:\n      mload(0x40)\n      tag_98\n      swap2\n      swap1\n      tag_37\n      jump\t// in\n    tag_98:\n      mload(0x40)\n      dup1\n      swap2\n      sub\n      swap1\n      return\n        /* \"ERC20.sol\":1680:1819  function transfer(address to, uint value) external returns (bool) {... */\n    tag_20:\n      tag_99\n      0x04\n      dup1\n      calldatasize\n      sub\n      dup2\n      add\n      swap1\n      tag_100\n      swap2\n      swap1\n      tag_44\n      jump\t// in\n    tag_100:\n      tag_101\n      jump\t// in\n    tag_99:\n      mload(0x40)\n      tag_102\n      swap2\n      swap1\n      tag_47\n      jump\t// in\n    tag_102:\n      mload(0x40)\n      dup1\n      swap2\n      sub\n      swap1\n      return\n        /* \"Pair.sol\":376:422  uint public constant MINIMUM_LIQUIDITY = 10**3 */\n    tag_21:\n      tag_103\n      tag_104\n      jump\t// in\n    tag_103:\n      mload(0x40)\n      tag_105\n      swap2\n      swap1\n      tag_55\n      jump\t// in\n    tag_105:\n      mload(0x40)\n      dup1\n      swap2\n      sub\n      swap1\n      return\n        /* \"Pair.sol\":9210:9539  function skim(address to) external {... */\n    tag_22:\n      tag_106\n      0x04\n      dup1\n      calldatasize\n      sub\n      dup2\n      add\n      swap1\n      tag_107\n      swap2\n      swap1\n      tag_77\n      jump\t// in\n    tag_107:\n      tag_108\n      jump\t// in\n    tag_106:\n      stop\n        /* \"Pair.sol\":526:548  address public factory */\n    tag_23:\n      tag_109\n      tag_110\n      jump\t// in\n    tag_109:\n      mload(0x40)\n      tag_111\n      swap2\n      swap1\n      tag_51\n      jump\t// in\n    tag_111:\n      mload(0x40)\n      dup1\n      swap2\n      sub\n      swap1\n      return\n        /* \"Pair.sol\":583:604  address public token1 */\n    tag_24:\n      tag_112\n      tag_113\n      jump\t// in\n    tag_112:\n      mload(0x40)\n      tag_114\n      swap2\n      swap1\n      tag_51\n      jump\t// in\n    tag_114:\n      mload(0x40)\n      dup1\n      swap2\n      sub\n      swap1\n      return\n        /* \"ERC20.sol\":379:440  mapping(address => mapping(address => uint)) public allowance */\n    tag_25:\n      tag_115\n      0x04\n      dup1\n      calldatasize\n      sub\n      dup2\n      add\n      swap1\n      tag_116\n      swap2\n      swap1\n      tag_67\n      jump\t// in\n    tag_116:\n      tag_117\n      jump\t// in\n    tag_115:\n      mload(0x40)\n      tag_118\n      swap2\n      swap1\n      tag_55\n      jump\t// in\n    tag_118:\n      mload(0x40)\n      dup1\n      swap2\n      sub\n      swap1\n      return\n        /* \"Pair.sol\":9588:9742  function sync() external  {... */\n    tag_26:\n      tag_119\n      tag_120\n      jump\t// in\n    tag_119:\n      stop\n        /* \"Pair.sol\":7277:9161  function swap(uint amount0Out, uint amount1Out, address to, bytes calldata data) external {... */\n    tag_33:\n        /* \"Pair.sol\":7399:7400  0 */\n      0x00\n        /* \"Pair.sol\":7386:7396  amount0Out */\n      dup6\n        /* \"Pair.sol\":7386:7400  amount0Out > 0 */\n      gt\n        /* \"Pair.sol\":7386:7418  amount0Out > 0 || amount1Out > 0 */\n      dup1\n      tag_122\n      jumpi\n      pop\n        /* \"Pair.sol\":7417:7418  0 */\n      0x00\n        /* \"Pair.sol\":7404:7414  amount1Out */\n      dup5\n        /* \"Pair.sol\":7404:7418  amount1Out > 0 */\n      gt\n        /* \"Pair.sol\":7386:7418  amount0Out > 0 || amount1Out > 0 */\n    tag_122:\n        /* \"Pair.sol\":7378:7460  require(amount0Out > 0 || amount1Out > 0, 'UniswapV2: INSUFFICIENT_OUTPUT_AMOUNT') */\n      tag_123\n      jumpi\n      mload(0x40)\n      0x08c379a000000000000000000000000000000000000000000000000000000000\n      dup2\n      mstore\n      0x04\n      add\n      tag_124\n      swap1\n      tag_125\n      jump\t// in\n    tag_124:\n      mload(0x40)\n      dup1\n      swap2\n      sub\n      swap1\n      revert\n    tag_123:\n        /* \"Pair.sol\":7472:7489  uint112 _reserve0 */\n      0x00\n        /* \"Pair.sol\":7491:7508  uint112 _reserve1 */\n      dup1\n        /* \"Pair.sol\":7513:7526  getReserves() */\n      tag_126\n        /* \"Pair.sol\":7513:7524  getReserves */\n      tag_39\n        /* \"Pair.sol\":7513:7526  getReserves() */\n      jump\t// in\n    tag_126:\n        /* \"Pair.sol\":7471:7526  (uint112 _reserve0, uint112 _reserve1,) = getReserves() */\n      pop\n      swap2\n      pop\n      swap2\n      pop\n        /* \"Pair.sol\":7573:7582  _reserve0 */\n      dup2\n        /* \"Pair.sol\":7560:7582  amount0Out < _reserve0 */\n      0xffffffffffffffffffffffffffff\n      and\n        /* \"Pair.sol\":7560:7570  amount0Out */\n      dup8\n        /* \"Pair.sol\":7560:7582  amount0Out < _reserve0 */\n      lt\n        /* \"Pair.sol\":7560:7608  amount0Out < _reserve0 && amount1Out < _reserve1 */\n      dup1\n      iszero\n      tag_127\n      jumpi\n      pop\n        /* \"Pair.sol\":7599:7608  _reserve1 */\n      dup1\n        /* \"Pair.sol\":7586:7608  amount1Out < _reserve1 */\n      0xffffffffffffffffffffffffffff\n      and\n        /* \"Pair.sol\":7586:7596  amount1Out */\n      dup7\n        /* \"Pair.sol\":7586:7608  amount1Out < _reserve1 */\n      lt\n        /* \"Pair.sol\":7560:7608  amount0Out < _reserve0 && amount1Out < _reserve1 */\n    tag_127:\n        /* \"Pair.sol\":7552:7646  require(amount0Out < _reserve0 && amount1Out < _reserve1, 'UniswapV2: INSUFFICIENT_LIQUIDITY') */\n      tag_128\n      jumpi\n      mload(0x40)\n      0x08c379a000000000000000000000000000000000000000000000000000000000\n      dup2\n      mstore\n      0x04\n      add\n      tag_129\n      swap1\n      tag_130\n      jump\t// in\n    tag_129:\n      mload(0x40)\n      dup1\n      swap2\n      sub\n      swap1\n      revert\n    tag_128:\n        /* \"Pair.sol\":7659:7672  uint balance0 */\n      0x00\n        /* \"Pair.sol\":7683:7696  uint balance1 */\n      dup1\n        /* \"Pair.sol\":7773:7788  address _token0 */\n      0x00\n        /* \"Pair.sol\":7791:7797  token0 */\n      0x05\n      0x00\n      swap1\n      sload\n      swap1\n      0x0100\n      exp\n      swap1\n      div\n      0xffffffffffffffffffffffffffffffffffffffff\n      and\n        /* \"Pair.sol\":7773:7797  address _token0 = token0 */\n      swap1\n      pop\n        /* \"Pair.sol\":7808:7823  address _token1 */\n      0x00\n        /* \"Pair.sol\":7826:7832  token1 */\n      0x06\n      0x00\n      swap1\n      sload\n      swap1\n      0x0100\n      exp\n      swap1\n      div\n      0xffffffffffffffffffffffffffffffffffffffff\n      and\n        /* \"Pair.sol\":7808:7832  address _token1 = token1 */\n      swap1\n      pop\n        /* \"Pair.sol\":7857:7864  _token0 */\n      dup2\n        /* \"Pair.sol\":7851:7864  to != _token0 */\n      0xffffffffffffffffffffffffffffffffffffffff\n      and\n        /* \"Pair.sol\":7851:7853  to */\n      dup10\n        /* \"Pair.sol\":7851:7864  to != _token0 */\n      0xffffffffffffffffffffffffffffffffffffffff\n      and\n      eq\n      iszero\n        /* \"Pair.sol\":7851:7881  to != _token0 && to != _token1 */\n      dup1\n      iszero\n      tag_131\n      jumpi\n      pop\n        /* \"Pair.sol\":7874:7881  _token1 */\n      dup1\n        /* \"Pair.sol\":7868:7881  to != _token1 */\n      0xffffffffffffffffffffffffffffffffffffffff\n      and\n        /* \"Pair.sol\":7868:7870  to */\n      dup10\n        /* \"Pair.sol\":7868:7881  to != _token1 */\n      0xffffffffffffffffffffffffffffffffffffffff\n      and\n      eq\n      iszero\n        /* \"Pair.sol\":7851:7881  to != _token0 && to != _token1 */\n    tag_131:\n        /* \"Pair.sol\":7843:7907  require(to != _token0 && to != _token1, 'UniswapV2: INVALID_TO') */\n      tag_132\n      jumpi\n      mload(0x40)\n      0x08c379a000000000000000000000000000000000000000000000000000000000\n      dup2\n      mstore\n      0x04\n      add\n      tag_133\n      swap1\n      tag_134\n      jump\t// in\n    tag_133:\n      mload(0x40)\n      dup1\n      swap2\n      sub\n      swap1\n      revert\n    tag_132:\n        /* \"Pair.sol\":7935:7936  0 */\n      0x00\n        /* \"Pair.sol\":7922:7932  amount0Out */\n      dup12\n        /* \"Pair.sol\":7922:7936  amount0Out > 0 */\n      gt\n        /* \"Pair.sol\":7918:7976  if (amount0Out > 0) _safeTransfer(_token0, to, amount0Out) */\n      iszero\n      tag_135\n      jumpi\n        /* \"Pair.sol\":7938:7976  _safeTransfer(_token0, to, amount0Out) */\n      tag_136\n        /* \"Pair.sol\":7952:7959  _token0 */\n      dup3\n        /* \"Pair.sol\":7961:7963  to */\n      dup11\n        /* \"Pair.sol\":7965:7975  amount0Out */\n      dup14\n        /* \"Pair.sol\":7938:7951  _safeTransfer */\n      tag_137\n        /* \"Pair.sol\":7938:7976  _safeTransfer(_token0, to, amount0Out) */\n      jump\t// in\n    tag_136:\n        /* \"Pair.sol\":7918:7976  if (amount0Out > 0) _safeTransfer(_token0, to, amount0Out) */\n    tag_135:\n        /* \"Pair.sol\":8038:8039  0 */\n      0x00\n        /* \"Pair.sol\":8025:8035  amount1Out */\n      dup11\n        /* \"Pair.sol\":8025:8039  amount1Out > 0 */\n      gt\n        /* \"Pair.sol\":8021:8079  if (amount1Out > 0) _safeTransfer(_token1, to, amount1Out) */\n      iszero\n      tag_138\n      jumpi\n        /* \"Pair.sol\":8041:8079  _safeTransfer(_token1, to, amount1Out) */\n      tag_139\n        /* \"Pair.sol\":8055:8062  _token1 */\n      dup2\n        /* \"Pair.sol\":8064:8066  to */\n      dup11\n        /* \"Pair.sol\":8068:8078  amount1Out */\n      dup13\n        /* \"Pair.sol\":8041:8054  _safeTransfer */\n      tag_137\n        /* \"Pair.sol\":8041:8079  _safeTransfer(_token1, to, amount1Out) */\n      jump\t// in\n    tag_139:\n        /* \"Pair.sol\":8021:8079  if (amount1Out > 0) _safeTransfer(_token1, to, amount1Out) */\n    tag_138:\n        /* \"Pair.sol\":8142:8143  0 */\n      0x00\n        /* \"Pair.sol\":8128:8132  data */\n      dup9\n      dup9\n        /* \"Pair.sol\":8128:8139  data.length */\n      swap1\n      pop\n        /* \"Pair.sol\":8128:8143  data.length > 0 */\n      gt\n        /* \"Pair.sol\":8124:8221  if (data.length > 0) IUniswapV2Callee(to).uniswapV2Call(msg.sender, amount0Out, amount1Out, data) */\n      iszero\n      tag_140\n      jumpi\n        /* \"Pair.sol\":8162:8164  to */\n      dup9\n        /* \"Pair.sol\":8145:8179  IUniswapV2Callee(to).uniswapV2Call */\n      0xffffffffffffffffffffffffffffffffffffffff\n      and\n      0x10d1e85c\n        /* \"Pair.sol\":8180:8190  msg.sender */\n      caller\n        /* \"Pair.sol\":8192:8202  amount0Out */\n      dup14\n        /* \"Pair.sol\":8204:8214  amount1Out */\n      dup14\n        /* \"Pair.sol\":8216:8220  data */\n      dup13\n      dup13\n        /* \"Pair.sol\":8145:8221  IUniswapV2Callee(to).uniswapV2Call(msg.sender, amount0Out, amount1Out, data) */\n      mload(0x40)\n      dup7\n      0xffffffff\n      and\n      0xe0\n      shl\n      dup2\n      mstore\n      0x04\n      add\n      tag_141\n      swap6\n      swap5\n      swap4\n      swap3\n      swap2\n      swap1\n      tag_142\n      jump\t// in\n    tag_141:\n      0x00\n      mload(0x40)\n      dup1\n      dup4\n      sub\n      dup2\n      0x00\n      dup8\n      dup1\n      extcodesize\n      iszero\n      dup1\n      iszero\n      tag_143\n      jumpi\n      0x00\n      dup1\n      revert\n    tag_143:\n      pop\n      gas\n      call\n      iszero\n      dup1\n      iszero\n      tag_145\n      jumpi\n      returndatasize\n      0x00\n      dup1\n      returndatacopy\n      revert(0x00, returndatasize)\n    tag_145:\n      pop\n      pop\n      pop\n      pop\n        /* \"Pair.sol\":8124:8221  if (data.length > 0) IUniswapV2Callee(to).uniswapV2Call(msg.sender, amount0Out, amount1Out, data) */\n    tag_140:\n        /* \"Pair.sol\":8250:8257  _token0 */\n      dup2\n        /* \"Pair.sol\":8243:8268  IERC20(_token0).balanceOf */\n      0xffffffffffffffffffffffffffffffffffffffff\n      and\n      0x70a08231\n        /* \"Pair.sol\":8277:8281  this */\n      address\n        /* \"Pair.sol\":8243:8283  IERC20(_token0).balanceOf(address(this)) */\n      mload(0x40)\n      dup3\n      0xffffffff\n      and\n      0xe0\n      shl\n      dup2\n      mstore\n      0x04\n      add\n      tag_146\n      swap2\n      swap1\n      tag_51\n      jump\t// in\n    tag_146:\n      0x20\n      mload(0x40)\n      dup1\n      dup4\n      sub\n      dup2\n      dup7\n      gas\n      staticcall\n      iszero\n      dup1\n      iszero\n      tag_148\n      jumpi\n      returndatasize\n      0x00\n      dup1\n      returndatacopy\n      revert(0x00, returndatasize)\n    tag_148:\n      pop\n      pop\n      pop\n      pop\n      mload(0x40)\n      returndatasize\n      not(0x1f)\n      0x1f\n      dup3\n      add\n      and\n      dup3\n      add\n      dup1\n      0x40\n      mstore\n      pop\n      dup2\n      add\n      swap1\n      tag_149\n      swap2\n      swap1\n      tag_150\n      jump\t// in\n    tag_149:\n        /* \"Pair.sol\":8232:8283  balance0 = IERC20(_token0).balanceOf(address(this)) */\n      swap4\n      pop\n        /* \"Pair.sol\":8312:8319  _token1 */\n      dup1\n        /* \"Pair.sol\":8305:8330  IERC20(_token1).balanceOf */\n      0xffffffffffffffffffffffffffffffffffffffff\n      and\n      0x70a08231\n        /* \"Pair.sol\":8339:8343  this */\n      address\n        /* \"Pair.sol\":8305:8345  IERC20(_token1).balanceOf(address(this)) */\n      mload(0x40)\n      dup3\n      0xffffffff\n      and\n      0xe0\n      shl\n      dup2\n      mstore\n      0x04\n      add\n      tag_151\n      swap2\n      swap1\n      tag_51\n      jump\t// in\n    tag_151:\n      0x20\n      mload(0x40)\n      dup1\n      dup4\n      sub\n      dup2\n      dup7\n      gas\n      staticcall\n      iszero\n      dup1\n      iszero\n      tag_153\n      jumpi\n      returndatasize\n      0x00\n      dup1\n      returndatacopy\n      revert(0x00, returndatasize)\n    tag_153:\n      pop\n      pop\n      pop\n      pop\n      mload(0x40)\n      returndatasize\n      not(0x1f)\n      0x1f\n      dup3\n      add\n      and\n      dup3\n      add\n      dup1\n      0x40\n      mstore\n      pop\n      dup2\n      add\n      swap1\n      tag_154\n      swap2\n      swap1\n      tag_150\n      jump\t// in\n    tag_154:\n        /* \"Pair.sol\":8294:8345  balance1 = IERC20(_token1).balanceOf(address(this)) */\n      swap3\n      pop\n        /* \"Pair.sol\":7707:8357  { // scope for _token{0,1}, avoids stack too deep errors... */\n      pop\n      pop\n        /* \"Pair.sol\":8367:8381  uint amount0In */\n      0x00\n        /* \"Pair.sol\":8407:8417  amount0Out */\n      dup10\n        /* \"Pair.sol\":8395:8404  _reserve0 */\n      dup6\n        /* \"Pair.sol\":8395:8417  _reserve0 - amount0Out */\n      0xffffffffffffffffffffffffffff\n      and\n      tag_155\n      swap2\n      swap1\n      tag_156\n      jump\t// in\n    tag_155:\n        /* \"Pair.sol\":8384:8392  balance0 */\n      dup4\n        /* \"Pair.sol\":8384:8417  balance0 > _reserve0 - amount0Out */\n      gt\n        /* \"Pair.sol\":8384:8459  balance0 > _reserve0 - amount0Out ? balance0 - (_reserve0 - amount0Out) : 0 */\n      tag_157\n      jumpi\n        /* \"Pair.sol\":8458:8459  0 */\n      0x00\n        /* \"Pair.sol\":8384:8459  balance0 > _reserve0 - amount0Out ? balance0 - (_reserve0 - amount0Out) : 0 */\n      jump(tag_158)\n    tag_157:\n        /* \"Pair.sol\":8444:8454  amount0Out */\n      dup10\n        /* \"Pair.sol\":8432:8441  _reserve0 */\n      dup6\n        /* \"Pair.sol\":8432:8454  _reserve0 - amount0Out */\n      0xffffffffffffffffffffffffffff\n      and\n      tag_159\n      swap2\n      swap1\n      tag_156\n      jump\t// in\n    tag_159:\n        /* \"Pair.sol\":8420:8428  balance0 */\n      dup4\n        /* \"Pair.sol\":8420:8455  balance0 - (_reserve0 - amount0Out) */\n      tag_160\n      swap2\n      swap1\n      tag_156\n      jump\t// in\n    tag_160:\n        /* \"Pair.sol\":8384:8459  balance0 > _reserve0 - amount0Out ? balance0 - (_reserve0 - amount0Out) : 0 */\n    tag_158:\n        /* \"Pair.sol\":8367:8459  uint amount0In = balance0 > _reserve0 - amount0Out ? balance0 - (_reserve0 - amount0Out) : 0 */\n      swap1\n      pop\n        /* \"Pair.sol\":8470:8484  uint amount1In */\n      0x00\n        /* \"Pair.sol\":8510:8520  amount1Out */\n      dup10\n        /* \"Pair.sol\":8498:8507  _reserve1 */\n      dup6\n        /* \"Pair.sol\":8498:8520  _reserve1 - amount1Out */\n      0xffffffffffffffffffffffffffff\n      and\n      tag_161\n      swap2\n      swap1\n      tag_156\n      jump\t// in\n    tag_161:\n        /* \"Pair.sol\":8487:8495  balance1 */\n      dup4\n        /* \"Pair.sol\":8487:8520  balance1 > _reserve1 - amount1Out */\n      gt\n        /* \"Pair.sol\":8487:8562  balance1 > _reserve1 - amount1Out ? balance1 - (_reserve1 - amount1Out) : 0 */\n      tag_162\n      jumpi\n        /* \"Pair.sol\":8561:8562  0 */\n      0x00\n        /* \"Pair.sol\":8487:8562  balance1 > _reserve1 - amount1Out ? balance1 - (_reserve1 - amount1Out) : 0 */\n      jump(tag_163)\n    tag_162:\n        /* \"Pair.sol\":8547:8557  amount1Out */\n      dup10\n        /* \"Pair.sol\":8535:8544  _reserve1 */\n      dup6\n        /* \"Pair.sol\":8535:8557  _reserve1 - amount1Out */\n      0xffffffffffffffffffffffffffff\n      and\n      tag_164\n      swap2\n      swap1\n      tag_156\n      jump\t// in\n    tag_164:\n        /* \"Pair.sol\":8523:8531  balance1 */\n      dup4\n        /* \"Pair.sol\":8523:8558  balance1 - (_reserve1 - amount1Out) */\n      tag_165\n      swap2\n      swap1\n      tag_156\n      jump\t// in\n    tag_165:\n        /* \"Pair.sol\":8487:8562  balance1 > _reserve1 - amount1Out ? balance1 - (_reserve1 - amount1Out) : 0 */\n    tag_163:\n        /* \"Pair.sol\":8470:8562  uint amount1In = balance1 > _reserve1 - amount1Out ? balance1 - (_reserve1 - amount1Out) : 0 */\n      swap1\n      pop\n        /* \"Pair.sol\":8593:8594  0 */\n      0x00\n        /* \"Pair.sol\":8581:8590  amount0In */\n      dup3\n        /* \"Pair.sol\":8581:8594  amount0In > 0 */\n      gt\n        /* \"Pair.sol\":8581:8611  amount0In > 0 || amount1In > 0 */\n      dup1\n      tag_166\n      jumpi\n      pop\n        /* \"Pair.sol\":8610:8611  0 */\n      0x00\n        /* \"Pair.sol\":8598:8607  amount1In */\n      dup2\n        /* \"Pair.sol\":8598:8611  amount1In > 0 */\n      gt\n        /* \"Pair.sol\":8581:8611  amount0In > 0 || amount1In > 0 */\n    tag_166:\n        /* \"Pair.sol\":8573:8652  require(amount0In > 0 || amount1In > 0, 'UniswapV2: INSUFFICIENT_INPUT_AMOUNT') */\n      tag_167\n      jumpi\n      mload(0x40)\n      0x08c379a000000000000000000000000000000000000000000000000000000000\n      dup2\n      mstore\n      0x04\n      add\n      tag_168\n      swap1\n      tag_169\n      jump\t// in\n    tag_168:\n      mload(0x40)\n      dup1\n      swap2\n      sub\n      swap1\n      revert\n    tag_167:\n        /* \"Pair.sol\":8738:8759  uint balance0Adjusted */\n      0x00\n        /* \"Pair.sol\":8762:8802  balance0.mul(1000).sub(amount0In.mul(3)) */\n      tag_170\n        /* \"Pair.sol\":8785:8801  amount0In.mul(3) */\n      tag_171\n        /* \"Pair.sol\":8799:8800  3 */\n      0x03\n        /* \"Pair.sol\":8785:8794  amount0In */\n      dup6\n        /* \"Pair.sol\":8785:8798  amount0In.mul */\n      tag_172\n      swap1\n        /* \"Pair.sol\":8785:8801  amount0In.mul(3) */\n      swap2\n      swap1\n      0xffffffff\n      and\n      jump\t// in\n    tag_171:\n        /* \"Pair.sol\":8762:8780  balance0.mul(1000) */\n      tag_173\n        /* \"Pair.sol\":8775:8779  1000 */\n      0x03e8\n        /* \"Pair.sol\":8762:8770  balance0 */\n      dup9\n        /* \"Pair.sol\":8762:8774  balance0.mul */\n      tag_172\n      swap1\n        /* \"Pair.sol\":8762:8780  balance0.mul(1000) */\n      swap2\n      swap1\n      0xffffffff\n      and\n      jump\t// in\n    tag_173:\n        /* \"Pair.sol\":8762:8784  balance0.mul(1000).sub */\n      tag_174\n      swap1\n        /* \"Pair.sol\":8762:8802  balance0.mul(1000).sub(amount0In.mul(3)) */\n      swap2\n      swap1\n      0xffffffff\n      and\n      jump\t// in\n    tag_170:\n        /* \"Pair.sol\":8738:8802  uint balance0Adjusted = balance0.mul(1000).sub(amount0In.mul(3)) */\n      swap1\n      pop\n        /* \"Pair.sol\":8813:8834  uint balance1Adjusted */\n      0x00\n        /* \"Pair.sol\":8837:8877  balance1.mul(1000).sub(amount1In.mul(3)) */\n      tag_175\n        /* \"Pair.sol\":8860:8876  amount1In.mul(3) */\n      tag_176\n        /* \"Pair.sol\":8874:8875  3 */\n      0x03\n        /* \"Pair.sol\":8860:8869  amount1In */\n      dup6\n        /* \"Pair.sol\":8860:8873  amount1In.mul */\n      tag_172\n      swap1\n        /* \"Pair.sol\":8860:8876  amount1In.mul(3) */\n      swap2\n      swap1\n      0xffffffff\n      and\n      jump\t// in\n    tag_176:\n        /* \"Pair.sol\":8837:8855  balance1.mul(1000) */\n      tag_177\n        /* \"Pair.sol\":8850:8854  1000 */\n      0x03e8\n        /* \"Pair.sol\":8837:8845  balance1 */\n      dup9\n        /* \"Pair.sol\":8837:8849  balance1.mul */\n      tag_172\n      swap1\n        /* \"Pair.sol\":8837:8855  balance1.mul(1000) */\n      swap2\n      swap1\n      0xffffffff\n      and\n      jump\t// in\n    tag_177:\n        /* \"Pair.sol\":8837:8859  balance1.mul(1000).sub */\n      tag_174\n      swap1\n        /* \"Pair.sol\":8837:8877  balance1.mul(1000).sub(amount1In.mul(3)) */\n      swap2\n      swap1\n      0xffffffff\n      and\n      jump\t// in\n    tag_175:\n        /* \"Pair.sol\":8813:8877  uint balance1Adjusted = balance1.mul(1000).sub(amount1In.mul(3)) */\n      swap1\n      pop\n        /* \"Pair.sol\":8938:8981  uint(_reserve0).mul(_reserve1).mul(1000**2) */\n      tag_178\n        /* \"Pair.sol\":8973:8980  1000**2 */\n      0x0f4240\n        /* \"Pair.sol\":8938:8968  uint(_reserve0).mul(_reserve1) */\n      tag_179\n        /* \"Pair.sol\":8958:8967  _reserve1 */\n      dup10\n        /* \"Pair.sol\":8938:8968  uint(_reserve0).mul(_reserve1) */\n      0xffffffffffffffffffffffffffff\n      and\n        /* \"Pair.sol\":8943:8952  _reserve0 */\n      dup12\n        /* \"Pair.sol\":8938:8953  uint(_reserve0) */\n      0xffffffffffffffffffffffffffff\n      and\n        /* \"Pair.sol\":8938:8957  uint(_reserve0).mul */\n      tag_172\n      swap1\n        /* \"Pair.sol\":8938:8968  uint(_reserve0).mul(_reserve1) */\n      swap2\n      swap1\n      0xffffffff\n      and\n      jump\t// in\n    tag_179:\n        /* \"Pair.sol\":8938:8972  uint(_reserve0).mul(_reserve1).mul */\n      tag_172\n      swap1\n        /* \"Pair.sol\":8938:8981  uint(_reserve0).mul(_reserve1).mul(1000**2) */\n      swap2\n      swap1\n      0xffffffff\n      and\n      jump\t// in\n    tag_178:\n        /* \"Pair.sol\":8896:8934  balance0Adjusted.mul(balance1Adjusted) */\n      tag_180\n        /* \"Pair.sol\":8917:8933  balance1Adjusted */\n      dup3\n        /* \"Pair.sol\":8896:8912  balance0Adjusted */\n      dup5\n        /* \"Pair.sol\":8896:8916  balance0Adjusted.mul */\n      tag_172\n      swap1\n        /* \"Pair.sol\":8896:8934  balance0Adjusted.mul(balance1Adjusted) */\n      swap2\n      swap1\n      0xffffffff\n      and\n      jump\t// in\n    tag_180:\n        /* \"Pair.sol\":8896:8981  balance0Adjusted.mul(balance1Adjusted) >= uint(_reserve0).mul(_reserve1).mul(1000**2) */\n      lt\n      iszero\n        /* \"Pair.sol\":8888:8998  require(balance0Adjusted.mul(balance1Adjusted) >= uint(_reserve0).mul(_reserve1).mul(1000**2), 'UniswapV2: K') */\n      tag_181\n      jumpi\n      mload(0x40)\n      0x08c379a000000000000000000000000000000000000000000000000000000000\n      dup2\n      mstore\n      0x04\n      add\n      tag_182\n      swap1\n      tag_183\n      jump\t// in\n    tag_182:\n      mload(0x40)\n      dup1\n      swap2\n      sub\n      swap1\n      revert\n    tag_181:\n        /* \"Pair.sol\":8663:9010  { // scope for reserve{0,1}Adjusted, avoids stack too deep errors... */\n      pop\n      pop\n        /* \"Pair.sol\":9022:9071  _update(balance0, balance1, _reserve0, _reserve1) */\n      tag_184\n        /* \"Pair.sol\":9030:9038  balance0 */\n      dup5\n        /* \"Pair.sol\":9040:9048  balance1 */\n      dup5\n        /* \"Pair.sol\":9050:9059  _reserve0 */\n      dup9\n        /* \"Pair.sol\":9061:9070  _reserve1 */\n      dup9\n        /* \"Pair.sol\":9022:9029  _update */\n      tag_185\n        /* \"Pair.sol\":9022:9071  _update(balance0, balance1, _reserve0, _reserve1) */\n      jump\t// in\n    tag_184:\n        /* \"Pair.sol\":9150:9152  to */\n      dup9\n        /* \"Pair.sol\":9087:9153  Swap(msg.sender, amount0In, amount1In, amount0Out, amount1Out, to) */\n      0xffffffffffffffffffffffffffffffffffffffff\n      and\n        /* \"Pair.sol\":9092:9102  msg.sender */\n      caller\n        /* \"Pair.sol\":9087:9153  Swap(msg.sender, amount0In, amount1In, amount0Out, amount1Out, to) */\n      0xffffffffffffffffffffffffffffffffffffffff\n      and\n      0xd78ad95fa46c994b6551d0da85fc275fe613ce37657fb8d5e3d130840159d822\n        /* \"Pair.sol\":9104:9113  amount0In */\n      dup5\n        /* \"Pair.sol\":9115:9124  amount1In */\n      dup5\n        /* \"Pair.sol\":9126:9136  amount0Out */\n      dup16\n        /* \"Pair.sol\":9138:9148  amount1Out */\n      dup16\n        /* \"Pair.sol\":9087:9153  Swap(msg.sender, amount0In, amount1In, amount0Out, amount1Out, to) */\n      mload(0x40)\n      tag_186\n      swap5\n      swap4\n      swap3\n      swap2\n      swap1\n      tag_187\n      jump\t// in\n    tag_186:\n      mload(0x40)\n      dup1\n      swap2\n      sub\n      swap1\n      log3\n        /* \"Pair.sol\":7367:9161  {... */\n      pop\n      pop\n      pop\n      pop\n      pop\n      pop\n        /* \"Pair.sol\":7277:9161  function swap(uint amount0Out, uint amount1Out, address to, bytes calldata data) external {... */\n      pop\n      pop\n      pop\n      pop\n      pop\n      jump\t// out\n        /* \"ERC20.sol\":160:202  string public constant name = 'Uniswap V2' */\n    tag_35:\n      mload(0x40)\n      dup1\n      0x40\n      add\n      0x40\n      mstore\n      dup1\n      0x0a\n      dup2\n      mstore\n      0x20\n      add\n      0x556e697377617020563200000000000000000000000000000000000000000000\n      dup2\n      mstore\n      pop\n      dup2\n      jump\t// out\n        /* \"Pair.sol\":1090:1321  function getReserves() public view returns (uint112 _reserve0, uint112 _reserve1, uint32 _blockTimestampLast) {... */\n    tag_39:\n        /* \"Pair.sol\":1134:1151  uint112 _reserve0 */\n      0x00\n        /* \"Pair.sol\":1153:1170  uint112 _reserve1 */\n      dup1\n        /* \"Pair.sol\":1172:1198  uint32 _blockTimestampLast */\n      0x00\n        /* \"Pair.sol\":1223:1231  reserve0 */\n      0x07\n      0x00\n      swap1\n      sload\n      swap1\n      0x0100\n      exp\n      swap1\n      div\n      0xffffffffffffffffffffffffffff\n      and\n        /* \"Pair.sol\":1211:1231  _reserve0 = reserve0 */\n      swap3\n      pop\n        /* \"Pair.sol\":1254:1262  reserve1 */\n      0x07\n      0x0e\n      swap1\n      sload\n      swap1\n      0x0100\n      exp\n      swap1\n      div\n      0xffffffffffffffffffffffffffff\n      and\n        /* \"Pair.sol\":1242:1262  _reserve1 = reserve1 */\n      swap2\n      pop\n        /* \"Pair.sol\":1295:1313  blockTimestampLast */\n      0x07\n      0x1c\n      swap1\n      sload\n      swap1\n      0x0100\n      exp\n      swap1\n      div\n      0xffffffff\n      and\n        /* \"Pair.sol\":1273:1313  _blockTimestampLast = blockTimestampLast */\n      swap1\n      pop\n        /* \"Pair.sol\":1090:1321  function getReserves() public view returns (uint112 _reserve0, uint112 _reserve1, uint32 _blockTimestampLast) {... */\n      swap1\n      swap2\n      swap3\n      jump\t// out\n        /* \"ERC20.sol\":1525:1672  function approve(address spender, uint value) external returns (bool) {... */\n    tag_45:\n        /* \"ERC20.sol\":1589:1593  bool */\n      0x00\n        /* \"ERC20.sol\":1606:1642  _approve(msg.sender, spender, value) */\n      tag_190\n        /* \"ERC20.sol\":1615:1625  msg.sender */\n      caller\n        /* \"ERC20.sol\":1627:1634  spender */\n      dup5\n        /* \"ERC20.sol\":1636:1641  value */\n      dup5\n        /* \"ERC20.sol\":1606:1614  _approve */\n      tag_191\n        /* \"ERC20.sol\":1606:1642  _approve(msg.sender, spender, value) */\n      jump\t// in\n    tag_190:\n        /* \"ERC20.sol\":1660:1664  true */\n      0x01\n        /* \"ERC20.sol\":1653:1664  return true */\n      swap1\n      pop\n        /* \"ERC20.sol\":1525:1672  function approve(address spender, uint value) external returns (bool) {... */\n      swap3\n      swap2\n      pop\n      pop\n      jump\t// out\n        /* \"Pair.sol\":555:576  address public token0 */\n    tag_49:\n      0x05\n      0x00\n      swap1\n      sload\n      swap1\n      0x0100\n      exp\n      swap1\n      div\n      0xffffffffffffffffffffffffffffffffffffffff\n      and\n      dup2\n      jump\t// out\n        /* \"ERC20.sol\":298:323  uint  public  totalSupply */\n    tag_53:\n      sload(0x00)\n      dup2\n      jump\t// out\n        /* \"ERC20.sol\":1827:2135  function transferFrom(address from, address to, uint value) external  returns (bool) {... */\n    tag_59:\n        /* \"ERC20.sol\":1906:1910  bool */\n      0x00\n        /* \"ERC20.sol\":1958:1972  type(uint).max */\n      0xffffffffffffffffffffffffffffffffffffffffffffffffffffffffffffffff\n        /* \"ERC20.sol\":1927:1936  allowance */\n      0x02\n        /* \"ERC20.sol\":1927:1942  allowance[from] */\n      0x00\n        /* \"ERC20.sol\":1937:1941  from */\n      dup7\n        /* \"ERC20.sol\":1927:1942  allowance[from] */\n      0xffffffffffffffffffffffffffffffffffffffff\n      and\n      0xffffffffffffffffffffffffffffffffffffffff\n      and\n      dup2\n      mstore\n      0x20\n      add\n      swap1\n      dup2\n      mstore\n      0x20\n      add\n      0x00\n      keccak256\n        /* \"ERC20.sol\":1927:1954  allowance[from][msg.sender] */\n      0x00\n        /* \"ERC20.sol\":1943:1953  msg.sender */\n      caller\n        /* \"ERC20.sol\":1927:1954  allowance[from][msg.sender] */\n      0xffffffffffffffffffffffffffffffffffffffff\n      and\n      0xffffffffffffffffffffffffffffffffffffffff\n      and\n      dup2\n      mstore\n      0x20\n      add\n      swap1\n      dup2\n      mstore\n      0x20\n      add\n      0x00\n      keccak256\n      sload\n        /* \"ERC20.sol\":1927:1972  allowance[from][msg.sender] != type(uint).max */\n      eq\n        /* \"ERC20.sol\":1923:2069  if (allowance[from][msg.sender] != type(uint).max) {... */\n      tag_193\n      jumpi\n        /* \"ERC20.sol\":2019:2057  allowance[from][msg.sender].sub(value) */\n      tag_194\n        /* \"ERC20.sol\":2051:2056  value */\n      dup3\n        /* \"ERC20.sol\":2019:2028  allowance */\n      0x02\n        /* \"ERC20.sol\":2019:2034  allowance[from] */\n      0x00\n        /* \"ERC20.sol\":2029:2033  from */\n      dup8\n        /* \"ERC20.sol\":2019:2034  allowance[from] */\n      0xffffffffffffffffffffffffffffffffffffffff\n      and\n      0xffffffffffffffffffffffffffffffffffffffff\n      and\n      dup2\n      mstore\n      0x20\n      add\n      swap1\n      dup2\n      mstore\n      0x20\n      add\n      0x00\n      keccak256\n        /* \"ERC20.sol\":2019:2046  allowance[from][msg.sender] */\n      0x00\n        /* \"ERC20.sol\":2035:2045  msg.sender */\n      caller\n        /* \"ERC20.sol\":2019:2046  allowance[from][msg.sender] */\n      0xffffffffffffffffffffffffffffffffffffffff\n      and\n      0xffffffffffffffffffffffffffffffffffffffff\n      and\n      dup2\n      mstore\n      0x20\n      add\n      swap1\n      dup2\n      mstore\n      0x20\n      add\n      0x00\n      keccak256\n      sload\n        /* \"ERC20.sol\":2019:2050  allowance[from][msg.sender].sub */\n      tag_174\n      swap1\n        /* \"ERC20.sol\":2019:2057  allowance[from][msg.sender].sub(value) */\n      swap2\n      swap1\n      0xffffffff\n      and\n      jump\t// in\n    tag_194:\n        /* \"ERC20.sol\":1989:1998  allowance */\n      0x02\n        /* \"ERC20.sol\":1989:2004  allowance[from] */\n      0x00\n        /* \"ERC20.sol\":1999:2003  from */\n      dup7\n        /* \"ERC20.sol\":1989:2004  allowance[from] */\n      0xffffffffffffffffffffffffffffffffffffffff\n      and\n      0xffffffffffffffffffffffffffffffffffffffff\n      and\n      dup2\n      mstore\n      0x20\n      add\n      swap1\n      dup2\n      mstore\n      0x20\n      add\n      0x00\n      keccak256\n        /* \"ERC20.sol\":1989:2016  allowance[from][msg.sender] */\n      0x00\n        /* \"ERC20.sol\":2005:2015  msg.sender */\n      caller\n        /* \"ERC20.sol\":1989:2016  allowance[from][msg.sender] */\n      0xffffffffffffffffffffffffffffffffffffffff\n      and\n      0xffffffffffffffffffffffffffffffffffffffff\n      and\n      dup2\n      mstore\n      0x20\n      add\n      swap1\n      dup2\n      mstore\n      0x20\n      add\n      0x00\n      keccak256\n        /* \"ERC20.sol\":1989:2057  allowance[from][msg.sender] = allowance[from][msg.sender].sub(value) */\n      dup2\n      swap1\n      sstore\n      pop\n        /* \"ERC20.sol\":1923:2069  if (allowance[from][msg.sender] != type(uint).max) {... */\n    tag_193:\n        /* \"ERC20.sol\":2079:2105  _transfer(from, to, value) */\n      tag_195\n        /* \"ERC20.sol\":2089:2093  from */\n      dup5\n        /* \"ERC20.sol\":2095:2097  to */\n      dup5\n        /* \"ERC20.sol\":2099:2104  value */\n      dup5\n        /* \"ERC20.sol\":2079:2088  _transfer */\n      tag_196\n        /* \"ERC20.sol\":2079:2105  _transfer(from, to, value) */\n      jump\t// in\n    tag_195:\n        /* \"ERC20.sol\":2123:2127  true */\n      0x01\n        /* \"ERC20.sol\":2116:2127  return true */\n      swap1\n      pop\n        /* \"ERC20.sol\":1827:2135  function transferFrom(address from, address to, uint value) external  returns (bool) {... */\n      swap4\n      swap3\n      pop\n      pop\n      pop\n      jump\t// out\n        /* \"ERC20.sol\":256:291  uint8 public constant decimals = 18 */\n    tag_62:\n        /* \"ERC20.sol\":289:291  18 */\n      0x12\n        /* \"ERC20.sol\":256:291  uint8 public constant decimals = 18 */\n      dup2\n      jump\t// out\n        /* \"Pair.sol\":2150:2360  function initialize(address _token0, address _token1) external {... */\n    tag_68:\n        /* \"Pair.sol\":2246:2253  factory */\n      0x04\n      0x00\n      swap1\n      sload\n      swap1\n      0x0100\n      exp\n      swap1\n      div\n      0xffffffffffffffffffffffffffffffffffffffff\n      and\n        /* \"Pair.sol\":2232:2253  msg.sender == factory */\n      0xffffffffffffffffffffffffffffffffffffffff\n      and\n        /* \"Pair.sol\":2232:2242  msg.sender */\n      caller\n        /* \"Pair.sol\":2232:2253  msg.sender == factory */\n      0xffffffffffffffffffffffffffffffffffffffff\n      and\n      eq\n        /* \"Pair.sol\":2224:2278  require(msg.sender == factory, 'UniswapV2: FORBIDDEN') */\n      tag_198\n      jumpi\n      mload(0x40)\n      0x08c379a000000000000000000000000000000000000000000000000000000000\n      dup2\n      mstore\n      0x04\n      add\n      tag_199\n      swap1\n      tag_200\n      jump\t// in\n    tag_199:\n      mload(0x40)\n      dup1\n      swap2\n      sub\n      swap1\n      revert\n    tag_198:\n        /* \"Pair.sol\":2318:2325  _token0 */\n      dup2\n        /* \"Pair.sol\":2309:2315  token0 */\n      0x05\n      0x00\n        /* \"Pair.sol\":2309:2325  token0 = _token0 */\n      0x0100\n      exp\n      dup2\n      sload\n      dup2\n      0xffffffffffffffffffffffffffffffffffffffff\n      mul\n      not\n      and\n      swap1\n      dup4\n      0xffffffffffffffffffffffffffffffffffffffff\n      and\n      mul\n      or\n      swap1\n      sstore\n      pop\n        /* \"Pair.sol\":2345:2352  _token1 */\n      dup1\n        /* \"Pair.sol\":2336:2342  token1 */\n      0x06\n      0x00\n        /* \"Pair.sol\":2336:2352  token1 = _token1 */\n      0x0100\n      exp\n      dup2\n      sload\n      dup2\n      0xffffffffffffffffffffffffffffffffffffffff\n      mul\n      not\n      and\n      swap1\n      dup4\n      0xffffffffffffffffffffffffffffffffffffffff\n      and\n      mul\n      or\n      swap1\n      sstore\n      pop\n        /* \"Pair.sol\":2150:2360  function initialize(address _token0, address _token1) external {... */\n      pop\n      pop\n      jump\t// out\n        /* \"Pair.sol\":906:938  uint public price0CumulativeLast */\n    tag_70:\n      sload(0x08)\n      dup2\n      jump\t// out\n        /* \"Pair.sol\":945:977  uint public price1CumulativeLast */\n    tag_73:\n      sload(0x09)\n      dup2\n      jump\t// out\n        /* \"Pair.sol\":4356:5592  function mint(address to) external  returns (uint liquidity) {... */\n    tag_78:\n        /* \"Pair.sol\":4401:4415  uint liquidity */\n      0x00\n        /* \"Pair.sol\":4429:4446  uint112 _reserve0 */\n      dup1\n        /* \"Pair.sol\":4448:4465  uint112 _reserve1 */\n      0x00\n        /* \"Pair.sol\":4470:4483  getReserves() */\n      tag_202\n        /* \"Pair.sol\":4470:4481  getReserves */\n      tag_39\n        /* \"Pair.sol\":4470:4483  getReserves() */\n      jump\t// in\n    tag_202:\n        /* \"Pair.sol\":4428:4483  (uint112 _reserve0, uint112 _reserve1,) = getReserves() */\n      pop\n      swap2\n      pop\n      swap2\n      pop\n        /* \"Pair.sol\":4509:4522  uint balance0 */\n      0x00\n        /* \"Pair.sol\":4532:4538  token0 */\n      0x05\n      0x00\n      swap1\n      sload\n      swap1\n      0x0100\n      exp\n      swap1\n      div\n      0xffffffffffffffffffffffffffffffffffffffff\n      and\n        /* \"Pair.sol\":4525:4549  IERC20(token0).balanceOf */\n      0xffffffffffffffffffffffffffffffffffffffff\n      and\n      0x70a08231\n        /* \"Pair.sol\":4558:4562  this */\n      address\n        /* \"Pair.sol\":4525:4564  IERC20(token0).balanceOf(address(this)) */\n      mload(0x40)\n      dup3\n      0xffffffff\n      and\n      0xe0\n      shl\n      dup2\n      mstore\n      0x04\n      add\n      tag_203\n      swap2\n      swap1\n      tag_51\n      jump\t// in\n    tag_203:\n      0x20\n      mload(0x40)\n      dup1\n      dup4\n      sub\n      dup2\n      dup7\n      gas\n      staticcall\n      iszero\n      dup1\n      iszero\n      tag_205\n      jumpi\n      returndatasize\n      0x00\n      dup1\n      returndatacopy\n      revert(0x00, returndatasize)\n    tag_205:\n      pop\n      pop\n      pop\n      pop\n      mload(0x40)\n      returndatasize\n      not(0x1f)\n      0x1f\n      dup3\n      add\n      and\n      dup3\n      add\n      dup1\n      0x40\n      mstore\n      pop\n      dup2\n      add\n      swap1\n      tag_206\n      swap2\n      swap1\n      tag_150\n      jump\t// in\n    tag_206:\n        /* \"Pair.sol\":4509:4564  uint balance0 = IERC20(token0).balanceOf(address(this)) */\n      swap1\n      pop\n        /* \"Pair.sol\":4575:4588  uint balance1 */\n      0x00\n        /* \"Pair.sol\":4598:4604  token1 */\n      0x06\n      0x00\n      swap1\n      sload\n      swap1\n      0x0100\n      exp\n      swap1\n      div\n      0xffffffffffffffffffffffffffffffffffffffff\n      and\n        /* \"Pair.sol\":4591:4615  IERC20(token1).balanceOf */\n      0xffffffffffffffffffffffffffffffffffffffff\n      and\n      0x70a08231\n        /* \"Pair.sol\":4624:4628  this */\n      address\n        /* \"Pair.sol\":4591:4630  IERC20(token1).balanceOf(address(this)) */\n      mload(0x40)\n      dup3\n      0xffffffff\n      and\n      0xe0\n      shl\n      dup2\n      mstore\n      0x04\n      add\n      tag_207\n      swap2\n      swap1\n      tag_51\n      jump\t// in\n    tag_207:\n      0x20\n      mload(0x40)\n      dup1\n      dup4\n      sub\n      dup2\n      dup7\n      gas\n      staticcall\n      iszero\n      dup1\n      iszero\n      tag_209\n      jumpi\n      returndatasize\n      0x00\n      dup1\n      returndatacopy\n      revert(0x00, returndatasize)\n    tag_209:\n      pop\n      pop\n      pop\n      pop\n      mload(0x40)\n      returndatasize\n      not(0x1f)\n      0x1f\n      dup3\n      add\n      and\n      dup3\n      add\n      dup1\n      0x40\n      mstore\n      pop\n      dup2\n      add\n      swap1\n      tag_210\n      swap2\n      swap1\n      tag_150\n      jump\t// in\n    tag_210:\n        /* \"Pair.sol\":4575:4630  uint balance1 = IERC20(token1).balanceOf(address(this)) */\n      swap1\n      pop\n        /* \"Pair.sol\":4641:4653  uint amount0 */\n      0x00\n        /* \"Pair.sol\":4656:4679  balance0.sub(_reserve0) */\n      tag_211\n        /* \"Pair.sol\":4669:4678  _reserve0 */\n      dup6\n        /* \"Pair.sol\":4656:4679  balance0.sub(_reserve0) */\n      0xffffffffffffffffffffffffffff\n      and\n        /* \"Pair.sol\":4656:4664  balance0 */\n      dup5\n        /* \"Pair.sol\":4656:4668  balance0.sub */\n      tag_174\n      swap1\n        /* \"Pair.sol\":4656:4679  balance0.sub(_reserve0) */\n      swap2\n      swap1\n      0xffffffff\n      and\n      jump\t// in\n    tag_211:\n        /* \"Pair.sol\":4641:4679  uint amount0 = balance0.sub(_reserve0) */\n      swap1\n      pop\n        /* \"Pair.sol\":4690:4702  uint amount1 */\n      0x00\n        /* \"Pair.sol\":4705:4728  balance1.sub(_reserve1) */\n      tag_212\n        /* \"Pair.sol\":4718:4727  _reserve1 */\n      dup6\n        /* \"Pair.sol\":4705:4728  balance1.sub(_reserve1) */\n      0xffffffffffffffffffffffffffff\n      and\n        /* \"Pair.sol\":4705:4713  balance1 */\n      dup5\n        /* \"Pair.sol\":4705:4717  balance1.sub */\n      tag_174\n      swap1\n        /* \"Pair.sol\":4705:4728  balance1.sub(_reserve1) */\n      swap2\n      swap1\n      0xffffffff\n      and\n      jump\t// in\n    tag_212:\n        /* \"Pair.sol\":4690:4728  uint amount1 = balance1.sub(_reserve1) */\n      swap1\n      pop\n        /* \"Pair.sol\":4741:4751  bool feeOn */\n      0x00\n        /* \"Pair.sol\":4754:4784  _mintFee(_reserve0, _reserve1) */\n      tag_213\n        /* \"Pair.sol\":4763:4772  _reserve0 */\n      dup8\n        /* \"Pair.sol\":4774:4783  _reserve1 */\n      dup8\n        /* \"Pair.sol\":4754:4762  _mintFee */\n      tag_214\n        /* \"Pair.sol\":4754:4784  _mintFee(_reserve0, _reserve1) */\n      jump\t// in\n    tag_213:\n        /* \"Pair.sol\":4741:4784  bool feeOn = _mintFee(_reserve0, _reserve1) */\n      swap1\n      pop\n        /* \"Pair.sol\":4795:4812  uint _totalSupply */\n      0x00\n        /* \"Pair.sol\":4815:4826  totalSupply */\n      dup1\n      sload\n        /* \"Pair.sol\":4795:4826  uint _totalSupply = totalSupply */\n      swap1\n      pop\n        /* \"Pair.sol\":4935:4936  0 */\n      0x00\n        /* \"Pair.sol\":4919:4931  _totalSupply */\n      dup2\n        /* \"Pair.sol\":4919:4936  _totalSupply == 0 */\n      sub\n        /* \"Pair.sol\":4915:5267  if (_totalSupply == 0) {... */\n      tag_215\n      jumpi\n        /* \"Pair.sol\":4965:5019  Math.sqrt(amount0.mul(amount1)).sub(MINIMUM_LIQUIDITY) */\n      tag_216\n        /* \"Pair.sol\":417:422  10**3 */\n      0x03e8\n        /* \"Pair.sol\":4965:4996  Math.sqrt(amount0.mul(amount1)) */\n      tag_217\n        /* \"Pair.sol\":4975:4995  amount0.mul(amount1) */\n      tag_218\n        /* \"Pair.sol\":4987:4994  amount1 */\n      dup7\n        /* \"Pair.sol\":4975:4982  amount0 */\n      dup9\n        /* \"Pair.sol\":4975:4986  amount0.mul */\n      tag_172\n      swap1\n        /* \"Pair.sol\":4975:4995  amount0.mul(amount1) */\n      swap2\n      swap1\n      0xffffffff\n      and\n      jump\t// in\n    tag_218:\n        /* \"Pair.sol\":4965:4974  Math.sqrt */\n      tag_219\n        /* \"Pair.sol\":4965:4996  Math.sqrt(amount0.mul(amount1)) */\n      jump\t// in\n    tag_217:\n        /* \"Pair.sol\":4965:5000  Math.sqrt(amount0.mul(amount1)).sub */\n      tag_174\n      swap1\n        /* \"Pair.sol\":4965:5019  Math.sqrt(amount0.mul(amount1)).sub(MINIMUM_LIQUIDITY) */\n      swap2\n      swap1\n      0xffffffff\n      and\n      jump\t// in\n    tag_216:\n        /* \"Pair.sol\":4953:5019  liquidity = Math.sqrt(amount0.mul(amount1)).sub(MINIMUM_LIQUIDITY) */\n      swap9\n      pop\n        /* \"Pair.sol\":5033:5069  _mint(address(0), MINIMUM_LIQUIDITY) */\n      tag_220\n        /* \"Pair.sol\":5047:5048  0 */\n      0x00\n        /* \"Pair.sol\":417:422  10**3 */\n      0x03e8\n        /* \"Pair.sol\":5033:5038  _mint */\n      tag_221\n        /* \"Pair.sol\":5033:5069  _mint(address(0), MINIMUM_LIQUIDITY) */\n      jump\t// in\n    tag_220:\n        /* \"Pair.sol\":4915:5267  if (_totalSupply == 0) {... */\n      jump(tag_222)\n    tag_215:\n        /* \"Pair.sol\":5169:5255  Math.min(amount0.mul(_totalSupply) / _reserve0, amount1.mul(_totalSupply) / _reserve1) */\n      tag_223\n        /* \"Pair.sol\":5206:5215  _reserve0 */\n      dup9\n        /* \"Pair.sol\":5178:5215  amount0.mul(_totalSupply) / _reserve0 */\n      0xffffffffffffffffffffffffffff\n      and\n        /* \"Pair.sol\":5178:5203  amount0.mul(_totalSupply) */\n      tag_224\n        /* \"Pair.sol\":5190:5202  _totalSupply */\n      dup4\n        /* \"Pair.sol\":5178:5185  amount0 */\n      dup8\n        /* \"Pair.sol\":5178:5189  amount0.mul */\n      tag_172\n      swap1\n        /* \"Pair.sol\":5178:5203  amount0.mul(_totalSupply) */\n      swap2\n      swap1\n      0xffffffff\n      and\n      jump\t// in\n    tag_224:\n        /* \"Pair.sol\":5178:5215  amount0.mul(_totalSupply) / _reserve0 */\n      tag_225\n      swap2\n      swap1\n      tag_226\n      jump\t// in\n    tag_225:\n        /* \"Pair.sol\":5245:5254  _reserve1 */\n      dup9\n        /* \"Pair.sol\":5217:5254  amount1.mul(_totalSupply) / _reserve1 */\n      0xffffffffffffffffffffffffffff\n      and\n        /* \"Pair.sol\":5217:5242  amount1.mul(_totalSupply) */\n      tag_227\n        /* \"Pair.sol\":5229:5241  _totalSupply */\n      dup5\n        /* \"Pair.sol\":5217:5224  amount1 */\n      dup8\n        /* \"Pair.sol\":5217:5228  amount1.mul */\n      tag_172\n      swap1\n        /* \"Pair.sol\":5217:5242  amount1.mul(_totalSupply) */\n      swap2\n      swap1\n      0xffffffff\n      and\n      jump\t// in\n    tag_227:\n        /* \"Pair.sol\":5217:5254  amount1.mul(_totalSupply) / _reserve1 */\n      tag_228\n      swap2\n      swap1\n      tag_226\n      jump\t// in\n    tag_228:\n        /* \"Pair.sol\":5169:5177  Math.min */\n      tag_229\n        /* \"Pair.sol\":5169:5255  Math.min(amount0.mul(_totalSupply) / _reserve0, amount1.mul(_totalSupply) / _reserve1) */\n      jump\t// in\n    tag_223:\n        /* \"Pair.sol\":5157:5255  liquidity = Math.min(amount0.mul(_totalSupply) / _reserve0, amount1.mul(_totalSupply) / _reserve1) */\n      swap9\n      pop\n        /* \"Pair.sol\":4915:5267  if (_totalSupply == 0) {... */\n    tag_222:\n        /* \"Pair.sol\":5297:5298  0 */\n      0x00\n        /* \"Pair.sol\":5285:5294  liquidity */\n      dup10\n        /* \"Pair.sol\":5285:5298  liquidity > 0 */\n      gt\n        /* \"Pair.sol\":5277:5343  require(liquidity > 0, 'UniswapV2: INSUFFICIENT_LIQUIDITY_MINTED') */\n      tag_230\n      jumpi\n      mload(0x40)\n      0x08c379a000000000000000000000000000000000000000000000000000000000\n      dup2\n      mstore\n      0x04\n      add\n      tag_231\n      swap1\n      tag_232\n      jump\t// in\n    tag_231:\n      mload(0x40)\n      dup1\n      swap2\n      sub\n      swap1\n      revert\n    tag_230:\n        /* \"Pair.sol\":5354:5374  _mint(to, liquidity) */\n      tag_233\n        /* \"Pair.sol\":5360:5362  to */\n      dup11\n        /* \"Pair.sol\":5364:5373  liquidity */\n      dup11\n        /* \"Pair.sol\":5354:5359  _mint */\n      tag_221\n        /* \"Pair.sol\":5354:5374  _mint(to, liquidity) */\n      jump\t// in\n    tag_233:\n        /* \"Pair.sol\":5387:5436  _update(balance0, balance1, _reserve0, _reserve1) */\n      tag_234\n        /* \"Pair.sol\":5395:5403  balance0 */\n      dup7\n        /* \"Pair.sol\":5405:5413  balance1 */\n      dup7\n        /* \"Pair.sol\":5415:5424  _reserve0 */\n      dup11\n        /* \"Pair.sol\":5426:5435  _reserve1 */\n      dup11\n        /* \"Pair.sol\":5387:5394  _update */\n      tag_185\n        /* \"Pair.sol\":5387:5436  _update(balance0, balance1, _reserve0, _reserve1) */\n      jump\t// in\n    tag_234:\n        /* \"Pair.sol\":5451:5456  feeOn */\n      dup2\n        /* \"Pair.sol\":5447:5494  if (feeOn) kLast = uint(reserve0).mul(reserve1) */\n      iszero\n      tag_235\n      jumpi\n        /* \"Pair.sol\":5466:5494  uint(reserve0).mul(reserve1) */\n      tag_236\n        /* \"Pair.sol\":5485:5493  reserve1 */\n      0x07\n      0x0e\n      swap1\n      sload\n      swap1\n      0x0100\n      exp\n      swap1\n      div\n      0xffffffffffffffffffffffffffff\n      and\n        /* \"Pair.sol\":5466:5494  uint(reserve0).mul(reserve1) */\n      0xffffffffffffffffffffffffffff\n      and\n        /* \"Pair.sol\":5471:5479  reserve0 */\n      0x07\n      0x00\n      swap1\n      sload\n      swap1\n      0x0100\n      exp\n      swap1\n      div\n      0xffffffffffffffffffffffffffff\n      and\n        /* \"Pair.sol\":5466:5480  uint(reserve0) */\n      0xffffffffffffffffffffffffffff\n      and\n        /* \"Pair.sol\":5466:5484  uint(reserve0).mul */\n      tag_172\n      swap1\n        /* \"Pair.sol\":5466:5494  uint(reserve0).mul(reserve1) */\n      swap2\n      swap1\n      0xffffffff\n      and\n      jump\t// in\n    tag_236:\n        /* \"Pair.sol\":5458:5463  kLast */\n      0x0a\n        /* \"Pair.sol\":5458:5494  kLast = uint(reserve0).mul(reserve1) */\n      dup2\n      swap1\n      sstore\n      pop\n        /* \"Pair.sol\":5447:5494  if (feeOn) kLast = uint(reserve0).mul(reserve1) */\n    tag_235:\n        /* \"Pair.sol\":5555:5565  msg.sender */\n      caller\n        /* \"Pair.sol\":5550:5584  Mint(msg.sender, amount0, amount1) */\n      0xffffffffffffffffffffffffffffffffffffffff\n      and\n      0x4c209b5fc8ad50758f13e2e1088ba56a560dff690a1c6fef26394f4c03821c4f\n        /* \"Pair.sol\":5567:5574  amount0 */\n      dup6\n        /* \"Pair.sol\":5576:5583  amount1 */\n      dup6\n        /* \"Pair.sol\":5550:5584  Mint(msg.sender, amount0, amount1) */\n      mload(0x40)\n      tag_237\n      swap3\n      swap2\n      swap1\n      tag_95\n      jump\t// in\n    tag_237:\n      mload(0x40)\n      dup1\n      swap2\n      sub\n      swap1\n      log2\n        /* \"Pair.sol\":4417:5592  {... */\n      pop\n      pop\n      pop\n      pop\n      pop\n      pop\n      pop\n      pop\n        /* \"Pair.sol\":4356:5592  function mint(address to) external  returns (uint liquidity) {... */\n      swap2\n      swap1\n      pop\n      jump\t// out\n        /* \"ERC20.sol\":330:372  mapping(address => uint) public  balanceOf */\n    tag_82:\n      mstore(0x20, 0x01)\n      dup1\n      0x00\n      mstore\n      keccak256(0x00, 0x40)\n      0x00\n      swap2\n      pop\n      swap1\n      pop\n      sload\n      dup2\n      jump\t// out\n        /* \"Pair.sol\":984:1001  uint public kLast */\n    tag_85:\n      sload(0x0a)\n      dup2\n      jump\t// out\n        /* \"ERC20.sol\":449:487  mapping(address => uint) public nonces */\n    tag_89:\n      mstore(0x20, 0x03)\n      dup1\n      0x00\n      mstore\n      keccak256(0x00, 0x40)\n      0x00\n      swap2\n      pop\n      swap1\n      pop\n      sload\n      dup2\n      jump\t// out\n        /* \"Pair.sol\":5704:7165  function burn(address to) external returns (uint amount0, uint amount1) {... */\n    tag_93:\n        /* \"Pair.sol\":5748:5760  uint amount0 */\n      0x00\n        /* \"Pair.sol\":5762:5774  uint amount1 */\n      dup1\n        /* \"Pair.sol\":5788:5805  uint112 _reserve0 */\n      0x00\n        /* \"Pair.sol\":5807:5824  uint112 _reserve1 */\n      dup1\n        /* \"Pair.sol\":5829:5842  getReserves() */\n      tag_239\n        /* \"Pair.sol\":5829:5840  getReserves */\n      tag_39\n        /* \"Pair.sol\":5829:5842  getReserves() */\n      jump\t// in\n    tag_239:\n        /* \"Pair.sol\":5787:5842  (uint112 _reserve0, uint112 _reserve1,) = getReserves() */\n      pop\n      swap2\n      pop\n      swap2\n      pop\n        /* \"Pair.sol\":5868:5883  address _token0 */\n      0x00\n        /* \"Pair.sol\":5886:5892  token0 */\n      0x05\n      0x00\n      swap1\n      sload\n      swap1\n      0x0100\n      exp\n      swap1\n      div\n      0xffffffffffffffffffffffffffffffffffffffff\n      and\n        /* \"Pair.sol\":5868:5892  address _token0 = token0 */\n      swap1\n      pop\n        /* \"Pair.sol\":5949:5964  address _token1 */\n      0x00\n        /* \"Pair.sol\":5967:5973  token1 */\n      0x06\n      0x00\n      swap1\n      sload\n      swap1\n      0x0100\n      exp\n      swap1\n      div\n      0xffffffffffffffffffffffffffffffffffffffff\n      and\n        /* \"Pair.sol\":5949:5973  address _token1 = token1 */\n      swap1\n      pop\n        /* \"Pair.sol\":6030:6043  uint balance0 */\n      0x00\n        /* \"Pair.sol\":6053:6060  _token0 */\n      dup3\n        /* \"Pair.sol\":6046:6071  IERC20(_token0).balanceOf */\n      0xffffffffffffffffffffffffffffffffffffffff\n      and\n      0x70a08231\n        /* \"Pair.sol\":6080:6084  this */\n      address\n        /* \"Pair.sol\":6046:6086  IERC20(_token0).balanceOf(address(this)) */\n      mload(0x40)\n      dup3\n      0xffffffff\n      and\n      0xe0\n      shl\n      dup2\n      mstore\n      0x04\n      add\n      tag_240\n      swap2\n      swap1\n      tag_51\n      jump\t// in\n    tag_240:\n      0x20\n      mload(0x40)\n      dup1\n      dup4\n      sub\n      dup2\n      dup7\n      gas\n      staticcall\n      iszero\n      dup1\n      iszero\n      tag_242\n      jumpi\n      returndatasize\n      0x00\n      dup1\n      returndatacopy\n      revert(0x00, returndatasize)\n    tag_242:\n      pop\n      pop\n      pop\n      pop\n      mload(0x40)\n      returndatasize\n      not(0x1f)\n      0x1f\n      dup3\n      add\n      and\n      dup3\n      add\n      dup1\n      0x40\n      mstore\n      pop\n      dup2\n      add\n      swap1\n      tag_243\n      swap2\n      swap1\n      tag_150\n      jump\t// in\n    tag_243:\n        /* \"Pair.sol\":6030:6086  uint balance0 = IERC20(_token0).balanceOf(address(this)) */\n      swap1\n      pop\n        /* \"Pair.sol\":6097:6110  uint balance1 */\n      0x00\n        /* \"Pair.sol\":6120:6127  _token1 */\n      dup3\n        /* \"Pair.sol\":6113:6138  IERC20(_token1).balanceOf */\n      0xffffffffffffffffffffffffffffffffffffffff\n      and\n      0x70a08231\n        /* \"Pair.sol\":6147:6151  this */\n      address\n        /* \"Pair.sol\":6113:6153  IERC20(_token1).balanceOf(address(this)) */\n      mload(0x40)\n      dup3\n      0xffffffff\n      and\n      0xe0\n      shl\n      dup2\n      mstore\n      0x04\n      add\n      tag_244\n      swap2\n      swap1\n      tag_51\n      jump\t// in\n    tag_244:\n      0x20\n      mload(0x40)\n      dup1\n      dup4\n      sub\n      dup2\n      dup7\n      gas\n      staticcall\n      iszero\n      dup1\n      iszero\n      tag_246\n      jumpi\n      returndatasize\n      0x00\n      dup1\n      returndatacopy\n      revert(0x00, returndatasize)\n    tag_246:\n      pop\n      pop\n      pop\n      pop\n      mload(0x40)\n      returndatasize\n      not(0x1f)\n      0x1f\n      dup3\n      add\n      and\n      dup3\n      add\n      dup1\n      0x40\n      mstore\n      pop\n      dup2\n      add\n      swap1\n      tag_247\n      swap2\n      swap1\n      tag_150\n      jump\t// in\n    tag_247:\n        /* \"Pair.sol\":6097:6153  uint balance1 = IERC20(_token1).balanceOf(address(this)) */\n      swap1\n      pop\n        /* \"Pair.sol\":6164:6178  uint liquidity */\n      0x00\n        /* \"Pair.sol\":6181:6190  balanceOf */\n      0x01\n        /* \"Pair.sol\":6181:6205  balanceOf[address(this)] */\n      0x00\n        /* \"Pair.sol\":6199:6203  this */\n      address\n        /* \"Pair.sol\":6181:6205  balanceOf[address(this)] */\n      0xffffffffffffffffffffffffffffffffffffffff\n      and\n      0xffffffffffffffffffffffffffffffffffffffff\n      and\n      dup2\n      mstore\n      0x20\n      add\n      swap1\n      dup2\n      mstore\n      0x20\n      add\n      0x00\n      keccak256\n      sload\n        /* \"Pair.sol\":6164:6205  uint liquidity = balanceOf[address(this)] */\n      swap1\n      pop\n        /* \"Pair.sol\":6218:6228  bool feeOn */\n      0x00\n        /* \"Pair.sol\":6231:6261  _mintFee(_reserve0, _reserve1) */\n      tag_248\n        /* \"Pair.sol\":6240:6249  _reserve0 */\n      dup9\n        /* \"Pair.sol\":6251:6260  _reserve1 */\n      dup9\n        /* \"Pair.sol\":6231:6239  _mintFee */\n      tag_214\n        /* \"Pair.sol\":6231:6261  _mintFee(_reserve0, _reserve1) */\n      jump\t// in\n    tag_248:\n        /* \"Pair.sol\":6218:6261  bool feeOn = _mintFee(_reserve0, _reserve1) */\n      swap1\n      pop\n        /* \"Pair.sol\":6272:6289  uint _totalSupply */\n      0x00\n        /* \"Pair.sol\":6292:6303  totalSupply */\n      dup1\n      sload\n        /* \"Pair.sol\":6272:6303  uint _totalSupply = totalSupply */\n      swap1\n      pop\n        /* \"Pair.sol\":6428:6440  _totalSupply */\n      dup1\n        /* \"Pair.sol\":6402:6425  liquidity.mul(balance0) */\n      tag_249\n        /* \"Pair.sol\":6416:6424  balance0 */\n      dup7\n        /* \"Pair.sol\":6402:6411  liquidity */\n      dup6\n        /* \"Pair.sol\":6402:6415  liquidity.mul */\n      tag_172\n      swap1\n        /* \"Pair.sol\":6402:6425  liquidity.mul(balance0) */\n      swap2\n      swap1\n      0xffffffff\n      and\n      jump\t// in\n    tag_249:\n        /* \"Pair.sol\":6402:6440  liquidity.mul(balance0) / _totalSupply */\n      tag_250\n      swap2\n      swap1\n      tag_226\n      jump\t// in\n    tag_250:\n        /* \"Pair.sol\":6392:6440  amount0 = liquidity.mul(balance0) / _totalSupply */\n      swap11\n      pop\n        /* \"Pair.sol\":6535:6547  _totalSupply */\n      dup1\n        /* \"Pair.sol\":6509:6532  liquidity.mul(balance1) */\n      tag_251\n        /* \"Pair.sol\":6523:6531  balance1 */\n      dup6\n        /* \"Pair.sol\":6509:6518  liquidity */\n      dup6\n        /* \"Pair.sol\":6509:6522  liquidity.mul */\n      tag_172\n      swap1\n        /* \"Pair.sol\":6509:6532  liquidity.mul(balance1) */\n      swap2\n      swap1\n      0xffffffff\n      and\n      jump\t// in\n    tag_251:\n        /* \"Pair.sol\":6509:6547  liquidity.mul(balance1) / _totalSupply */\n      tag_252\n      swap2\n      swap1\n      tag_226\n      jump\t// in\n    tag_252:\n        /* \"Pair.sol\":6499:6547  amount1 = liquidity.mul(balance1) / _totalSupply */\n      swap10\n      pop\n        /* \"Pair.sol\":6624:6625  0 */\n      0x00\n        /* \"Pair.sol\":6614:6621  amount0 */\n      dup12\n        /* \"Pair.sol\":6614:6625  amount0 > 0 */\n      gt\n        /* \"Pair.sol\":6614:6640  amount0 > 0 && amount1 > 0 */\n      dup1\n      iszero\n      tag_253\n      jumpi\n      pop\n        /* \"Pair.sol\":6639:6640  0 */\n      0x00\n        /* \"Pair.sol\":6629:6636  amount1 */\n      dup11\n        /* \"Pair.sol\":6629:6640  amount1 > 0 */\n      gt\n        /* \"Pair.sol\":6614:6640  amount0 > 0 && amount1 > 0 */\n    tag_253:\n        /* \"Pair.sol\":6606:6685  require(amount0 > 0 && amount1 > 0, 'UniswapV2: INSUFFICIENT_LIQUIDITY_BURNED') */\n      tag_254\n      jumpi\n      mload(0x40)\n      0x08c379a000000000000000000000000000000000000000000000000000000000\n      dup2\n      mstore\n      0x04\n      add\n      tag_255\n      swap1\n      tag_256\n      jump\t// in\n    tag_255:\n      mload(0x40)\n      dup1\n      swap2\n      sub\n      swap1\n      revert\n    tag_254:\n        /* \"Pair.sol\":6696:6727  _burn(address(this), liquidity) */\n      tag_257\n        /* \"Pair.sol\":6710:6714  this */\n      address\n        /* \"Pair.sol\":6717:6726  liquidity */\n      dup5\n        /* \"Pair.sol\":6696:6701  _burn */\n      tag_258\n        /* \"Pair.sol\":6696:6727  _burn(address(this), liquidity) */\n      jump\t// in\n    tag_257:\n        /* \"Pair.sol\":6738:6773  _safeTransfer(_token0, to, amount0) */\n      tag_259\n        /* \"Pair.sol\":6752:6759  _token0 */\n      dup8\n        /* \"Pair.sol\":6761:6763  to */\n      dup14\n        /* \"Pair.sol\":6765:6772  amount0 */\n      dup14\n        /* \"Pair.sol\":6738:6751  _safeTransfer */\n      tag_137\n        /* \"Pair.sol\":6738:6773  _safeTransfer(_token0, to, amount0) */\n      jump\t// in\n    tag_259:\n        /* \"Pair.sol\":6784:6819  _safeTransfer(_token1, to, amount1) */\n      tag_260\n        /* \"Pair.sol\":6798:6805  _token1 */\n      dup7\n        /* \"Pair.sol\":6807:6809  to */\n      dup14\n        /* \"Pair.sol\":6811:6818  amount1 */\n      dup13\n        /* \"Pair.sol\":6784:6797  _safeTransfer */\n      tag_137\n        /* \"Pair.sol\":6784:6819  _safeTransfer(_token1, to, amount1) */\n      jump\t// in\n    tag_260:\n        /* \"Pair.sol\":6848:6855  _token0 */\n      dup7\n        /* \"Pair.sol\":6841:6866  IERC20(_token0).balanceOf */\n      0xffffffffffffffffffffffffffffffffffffffff\n      and\n      0x70a08231\n        /* \"Pair.sol\":6875:6879  this */\n      address\n        /* \"Pair.sol\":6841:6881  IERC20(_token0).balanceOf(address(this)) */\n      mload(0x40)\n      dup3\n      0xffffffff\n      and\n      0xe0\n      shl\n      dup2\n      mstore\n      0x04\n      add\n      tag_261\n      swap2\n      swap1\n      tag_51\n      jump\t// in\n    tag_261:\n      0x20\n      mload(0x40)\n      dup1\n      dup4\n      sub\n      dup2\n      dup7\n      gas\n      staticcall\n      iszero\n      dup1\n      iszero\n      tag_263\n      jumpi\n      returndatasize\n      0x00\n      dup1\n      returndatacopy\n      revert(0x00, returndatasize)\n    tag_263:\n      pop\n      pop\n      pop\n      pop\n      mload(0x40)\n      returndatasize\n      not(0x1f)\n      0x1f\n      dup3\n      add\n      and\n      dup3\n      add\n      dup1\n      0x40\n      mstore\n      pop\n      dup2\n      add\n      swap1\n      tag_264\n      swap2\n      swap1\n      tag_150\n      jump\t// in\n    tag_264:\n        /* \"Pair.sol\":6830:6881  balance0 = IERC20(_token0).balanceOf(address(this)) */\n      swap5\n      pop\n        /* \"Pair.sol\":6910:6917  _token1 */\n      dup6\n        /* \"Pair.sol\":6903:6928  IERC20(_token1).balanceOf */\n      0xffffffffffffffffffffffffffffffffffffffff\n      and\n      0x70a08231\n        /* \"Pair.sol\":6937:6941  this */\n      address\n        /* \"Pair.sol\":6903:6943  IERC20(_token1).balanceOf(address(this)) */\n      mload(0x40)\n      dup3\n      0xffffffff\n      and\n      0xe0\n      shl\n      dup2\n      mstore\n      0x04\n      add\n      tag_265\n      swap2\n      swap1\n      tag_51\n      jump\t// in\n    tag_265:\n      0x20\n      mload(0x40)\n      dup1\n      dup4\n      sub\n      dup2\n      dup7\n      gas\n      staticcall\n      iszero\n      dup1\n      iszero\n      tag_267\n      jumpi\n      returndatasize\n      0x00\n      dup1\n      returndatacopy\n      revert(0x00, returndatasize)\n    tag_267:\n      pop\n      pop\n      pop\n      pop\n      mload(0x40)\n      returndatasize\n      not(0x1f)\n      0x1f\n      dup3\n      add\n      and\n      dup3\n      add\n      dup1\n      0x40\n      mstore\n      pop\n      dup2\n      add\n      swap1\n      tag_268\n      swap2\n      swap1\n      tag_150\n      jump\t// in\n    tag_268:\n        /* \"Pair.sol\":6892:6943  balance1 = IERC20(_token1).balanceOf(address(this)) */\n      swap4\n      pop\n        /* \"Pair.sol\":6956:7005  _update(balance0, balance1, _reserve0, _reserve1) */\n      tag_269\n        /* \"Pair.sol\":6964:6972  balance0 */\n      dup6\n        /* \"Pair.sol\":6974:6982  balance1 */\n      dup6\n        /* \"Pair.sol\":6984:6993  _reserve0 */\n      dup12\n        /* \"Pair.sol\":6995:7004  _reserve1 */\n      dup12\n        /* \"Pair.sol\":6956:6963  _update */\n      tag_185\n        /* \"Pair.sol\":6956:7005  _update(balance0, balance1, _reserve0, _reserve1) */\n      jump\t// in\n    tag_269:\n        /* \"Pair.sol\":7020:7025  feeOn */\n      dup2\n        /* \"Pair.sol\":7016:7063  if (feeOn) kLast = uint(reserve0).mul(reserve1) */\n      iszero\n      tag_270\n      jumpi\n        /* \"Pair.sol\":7035:7063  uint(reserve0).mul(reserve1) */\n      tag_271\n        /* \"Pair.sol\":7054:7062  reserve1 */\n      0x07\n      0x0e\n      swap1\n      sload\n      swap1\n      0x0100\n      exp\n      swap1\n      div\n      0xffffffffffffffffffffffffffff\n      and\n        /* \"Pair.sol\":7035:7063  uint(reserve0).mul(reserve1) */\n      0xffffffffffffffffffffffffffff\n      and\n        /* \"Pair.sol\":7040:7048  reserve0 */\n      0x07\n      0x00\n      swap1\n      sload\n      swap1\n      0x0100\n      exp\n      swap1\n      div\n      0xffffffffffffffffffffffffffff\n      and\n        /* \"Pair.sol\":7035:7049  uint(reserve0) */\n      0xffffffffffffffffffffffffffff\n      and\n        /* \"Pair.sol\":7035:7053  uint(reserve0).mul */\n      tag_172\n      swap1\n        /* \"Pair.sol\":7035:7063  uint(reserve0).mul(reserve1) */\n      swap2\n      swap1\n      0xffffffff\n      and\n      jump\t// in\n    tag_271:\n        /* \"Pair.sol\":7027:7032  kLast */\n      0x0a\n        /* \"Pair.sol\":7027:7063  kLast = uint(reserve0).mul(reserve1) */\n      dup2\n      swap1\n      sstore\n      pop\n        /* \"Pair.sol\":7016:7063  if (feeOn) kLast = uint(reserve0).mul(reserve1) */\n    tag_270:\n        /* \"Pair.sol\":7154:7156  to */\n      dup12\n        /* \"Pair.sol\":7119:7157  Burn(msg.sender, amount0, amount1, to) */\n      0xffffffffffffffffffffffffffffffffffffffff\n      and\n        /* \"Pair.sol\":7124:7134  msg.sender */\n      caller\n        /* \"Pair.sol\":7119:7157  Burn(msg.sender, amount0, amount1, to) */\n      0xffffffffffffffffffffffffffffffffffffffff\n      and\n      0xdccd412f0b1252819cb1fd330b93224ca42612892bb3f4f789976e6d81936496\n        /* \"Pair.sol\":7136:7143  amount0 */\n      dup14\n        /* \"Pair.sol\":7145:7152  amount1 */\n      dup14\n        /* \"Pair.sol\":7119:7157  Burn(msg.sender, amount0, amount1, to) */\n      mload(0x40)\n      tag_272\n      swap3\n      swap2\n      swap1\n      tag_95\n      jump\t// in\n    tag_272:\n      mload(0x40)\n      dup1\n      swap2\n      sub\n      swap1\n      log3\n        /* \"Pair.sol\":5776:7165  {... */\n      pop\n      pop\n      pop\n      pop\n      pop\n      pop\n      pop\n      pop\n      pop\n        /* \"Pair.sol\":5704:7165  function burn(address to) external returns (uint amount0, uint amount1) {... */\n      swap2\n      pop\n      swap2\n      jump\t// out\n        /* \"ERC20.sol\":209:249  string public constant symbol = 'UNI-V2' */\n    tag_97:\n      mload(0x40)\n      dup1\n      0x40\n      add\n      0x40\n      mstore\n      dup1\n      0x06\n      dup2\n      mstore\n      0x20\n      add\n      0x554e492d56320000000000000000000000000000000000000000000000000000\n      dup2\n      mstore\n      pop\n      dup2\n      jump\t// out\n        /* \"ERC20.sol\":1680:1819  function transfer(address to, uint value) external returns (bool) {... */\n    tag_101:\n        /* \"ERC20.sol\":1740:1744  bool */\n      0x00\n        /* \"ERC20.sol\":1757:1789  _transfer(msg.sender, to, value) */\n      tag_274\n        /* \"ERC20.sol\":1767:1777  msg.sender */\n      caller\n        /* \"ERC20.sol\":1779:1781  to */\n      dup5\n        /* \"ERC20.sol\":1783:1788  value */\n      dup5\n        /* \"ERC20.sol\":1757:1766  _transfer */\n      tag_196\n        /* \"ERC20.sol\":1757:1789  _transfer(msg.sender, to, value) */\n      jump\t// in\n    tag_274:\n        /* \"ERC20.sol\":1807:1811  true */\n      0x01\n        /* \"ERC20.sol\":1800:1811  return true */\n      swap1\n      pop\n        /* \"ERC20.sol\":1680:1819  function transfer(address to, uint value) external returns (bool) {... */\n      swap3\n      swap2\n      pop\n      pop\n      jump\t// out\n        /* \"Pair.sol\":376:422  uint public constant MINIMUM_LIQUIDITY = 10**3 */\n    tag_104:\n        /* \"Pair.sol\":417:422  10**3 */\n      0x03e8\n        /* \"Pair.sol\":376:422  uint public constant MINIMUM_LIQUIDITY = 10**3 */\n      dup2\n      jump\t// out\n        /* \"Pair.sol\":9210:9539  function skim(address to) external {... */\n    tag_108:\n        /* \"Pair.sol\":9256:9271  address _token0 */\n      0x00\n        /* \"Pair.sol\":9274:9280  token0 */\n      0x05\n      0x00\n      swap1\n      sload\n      swap1\n      0x0100\n      exp\n      swap1\n      div\n      0xffffffffffffffffffffffffffffffffffffffff\n      and\n        /* \"Pair.sol\":9256:9280  address _token0 = token0 */\n      swap1\n      pop\n        /* \"Pair.sol\":9306:9321  address _token1 */\n      0x00\n        /* \"Pair.sol\":9324:9330  token1 */\n      0x06\n      0x00\n      swap1\n      sload\n      swap1\n      0x0100\n      exp\n      swap1\n      div\n      0xffffffffffffffffffffffffffffffffffffffff\n      and\n        /* \"Pair.sol\":9306:9330  address _token1 = token1 */\n      swap1\n      pop\n        /* \"Pair.sol\":9356:9438  _safeTransfer(_token0, to, IERC20(_token0).balanceOf(address(this)).sub(reserve0)) */\n      tag_276\n        /* \"Pair.sol\":9370:9377  _token0 */\n      dup3\n        /* \"Pair.sol\":9379:9381  to */\n      dup5\n        /* \"Pair.sol\":9383:9437  IERC20(_token0).balanceOf(address(this)).sub(reserve0) */\n      tag_277\n        /* \"Pair.sol\":9428:9436  reserve0 */\n      0x07\n      0x00\n      swap1\n      sload\n      swap1\n      0x0100\n      exp\n      swap1\n      div\n      0xffffffffffffffffffffffffffff\n      and\n        /* \"Pair.sol\":9383:9437  IERC20(_token0).balanceOf(address(this)).sub(reserve0) */\n      0xffffffffffffffffffffffffffff\n      and\n        /* \"Pair.sol\":9390:9397  _token0 */\n      dup7\n        /* \"Pair.sol\":9383:9408  IERC20(_token0).balanceOf */\n      0xffffffffffffffffffffffffffffffffffffffff\n      and\n      0x70a08231\n        /* \"Pair.sol\":9417:9421  this */\n      address\n        /* \"Pair.sol\":9383:9423  IERC20(_token0).balanceOf(address(this)) */\n      mload(0x40)\n      dup3\n      0xffffffff\n      and\n      0xe0\n      shl\n      dup2\n      mstore\n      0x04\n      add\n      tag_278\n      swap2\n      swap1\n      tag_51\n      jump\t// in\n    tag_278:\n      0x20\n      mload(0x40)\n      dup1\n      dup4\n      sub\n      dup2\n      dup7\n      gas\n      staticcall\n      iszero\n      dup1\n      iszero\n      tag_280\n      jumpi\n      returndatasize\n      0x00\n      dup1\n      returndatacopy\n      revert(0x00, returndatasize)\n    tag_280:\n      pop\n      pop\n      pop\n      pop\n      mload(0x40)\n      returndatasize\n      not(0x1f)\n      0x1f\n      dup3\n      add\n      and\n      dup3\n      add\n      dup1\n      0x40\n      mstore\n      pop\n      dup2\n      add\n      swap1\n      tag_281\n      swap2\n      swap1\n      tag_150\n      jump\t// in\n    tag_281:\n        /* \"Pair.sol\":9383:9427  IERC20(_token0).balanceOf(address(this)).sub */\n      tag_174\n      swap1\n        /* \"Pair.sol\":9383:9437  IERC20(_token0).balanceOf(address(this)).sub(reserve0) */\n      swap2\n      swap1\n      0xffffffff\n      and\n      jump\t// in\n    tag_277:\n        /* \"Pair.sol\":9356:9369  _safeTransfer */\n      tag_137\n        /* \"Pair.sol\":9356:9438  _safeTransfer(_token0, to, IERC20(_token0).balanceOf(address(this)).sub(reserve0)) */\n      jump\t// in\n    tag_276:\n        /* \"Pair.sol\":9449:9531  _safeTransfer(_token1, to, IERC20(_token1).balanceOf(address(this)).sub(reserve1)) */\n      tag_282\n        /* \"Pair.sol\":9463:9470  _token1 */\n      dup2\n        /* \"Pair.sol\":9472:9474  to */\n      dup5\n        /* \"Pair.sol\":9476:9530  IERC20(_token1).balanceOf(address(this)).sub(reserve1) */\n      tag_283\n        /* \"Pair.sol\":9521:9529  reserve1 */\n      0x07\n      0x0e\n      swap1\n      sload\n      swap1\n      0x0100\n      exp\n      swap1\n      div\n      0xffffffffffffffffffffffffffff\n      and\n        /* \"Pair.sol\":9476:9530  IERC20(_token1).balanceOf(address(this)).sub(reserve1) */\n      0xffffffffffffffffffffffffffff\n      and\n        /* \"Pair.sol\":9483:9490  _token1 */\n      dup6\n        /* \"Pair.sol\":9476:9501  IERC20(_token1).balanceOf */\n      0xffffffffffffffffffffffffffffffffffffffff\n      and\n      0x70a08231\n        /* \"Pair.sol\":9510:9514  this */\n      address\n        /* \"Pair.sol\":9476:9516  IERC20(_token1).balanceOf(address(this)) */\n      mload(0x40)\n      dup3\n      0xffffffff\n      and\n      0xe0\n      shl\n      dup2\n      mstore\n      0x04\n      add\n      tag_284\n      swap2\n      swap1\n      tag_51\n      jump\t// in\n    tag_284:\n      0x20\n      mload(0x40)\n      dup1\n      dup4\n      sub\n      dup2\n      dup7\n      gas\n      staticcall\n      iszero\n      dup1\n      iszero\n      tag_286\n      jumpi\n      returndatasize\n      0x00\n      dup1\n      returndatacopy\n      revert(0x00, returndatasize)\n    tag_286:\n      pop\n      pop\n      pop\n      pop\n      mload(0x40)\n      returndatasize\n      not(0x1f)\n      0x1f\n      dup3\n      add\n      and\n      dup3\n      add\n      dup1\n      0x40\n      mstore\n      pop\n      dup2\n      add\n      swap1\n      tag_287\n      swap2\n      swap1\n      tag_150\n      jump\t// in\n    tag_287:\n        /* \"Pair.sol\":9476:9520  IERC20(_token1).balanceOf(address(this)).sub */\n      tag_174\n      swap1\n        /* \"Pair.sol\":9476:9530  IERC20(_token1).balanceOf(address(this)).sub(reserve1) */\n      swap2\n      swap1\n      0xffffffff\n      and\n      jump\t// in\n    tag_283:\n        /* \"Pair.sol\":9449:9462  _safeTransfer */\n      tag_137\n        /* \"Pair.sol\":9449:9531  _safeTransfer(_token1, to, IERC20(_token1).balanceOf(address(this)).sub(reserve1)) */\n      jump\t// in\n    tag_282:\n        /* \"Pair.sol\":9245:9539  {... */\n      pop\n      pop\n        /* \"Pair.sol\":9210:9539  function skim(address to) external {... */\n      pop\n      jump\t// out\n        /* \"Pair.sol\":526:548  address public factory */\n    tag_110:\n      0x04\n      0x00\n      swap1\n      sload\n      swap1\n      0x0100\n      exp\n      swap1\n      div\n      0xffffffffffffffffffffffffffffffffffffffff\n      and\n      dup2\n      jump\t// out\n        /* \"Pair.sol\":583:604  address public token1 */\n    tag_113:\n      0x06\n      0x00\n      swap1\n      sload\n      swap1\n      0x0100\n      exp\n      swap1\n      div\n      0xffffffffffffffffffffffffffffffffffffffff\n      and\n      dup2\n      jump\t// out\n        /* \"ERC20.sol\":379:440  mapping(address => mapping(address => uint)) public allowance */\n    tag_117:\n      mstore(0x20, 0x02)\n      dup2\n      0x00\n      mstore\n      mstore(0x20, keccak256(0x00, 0x40))\n      dup1\n      0x00\n      mstore\n      keccak256(0x00, 0x40)\n      0x00\n      swap2\n      pop\n      swap2\n      pop\n      pop\n      sload\n      dup2\n      jump\t// out\n        /* \"Pair.sol\":9588:9742  function sync() external  {... */\n    tag_120:\n        /* \"Pair.sol\":9625:9734  _update(IERC20(token0).balanceOf(address(this)), IERC20(token1).balanceOf(address(this)), reserve0, reserve1) */\n      tag_289\n        /* \"Pair.sol\":9640:9646  token0 */\n      0x05\n      0x00\n      swap1\n      sload\n      swap1\n      0x0100\n      exp\n      swap1\n      div\n      0xffffffffffffffffffffffffffffffffffffffff\n      and\n        /* \"Pair.sol\":9633:9657  IERC20(token0).balanceOf */\n      0xffffffffffffffffffffffffffffffffffffffff\n      and\n      0x70a08231\n        /* \"Pair.sol\":9666:9670  this */\n      address\n        /* \"Pair.sol\":9633:9672  IERC20(token0).balanceOf(address(this)) */\n      mload(0x40)\n      dup3\n      0xffffffff\n      and\n      0xe0\n      shl\n      dup2\n      mstore\n      0x04\n      add\n      tag_290\n      swap2\n      swap1\n      tag_51\n      jump\t// in\n    tag_290:\n      0x20\n      mload(0x40)\n      dup1\n      dup4\n      sub\n      dup2\n      dup7\n      gas\n      staticcall\n      iszero\n      dup1\n      iszero\n      tag_292\n      jumpi\n      returndatasize\n      0x00\n      dup1\n      returndatacopy\n      revert(0x00, returndatasize)\n    tag_292:\n      pop\n      pop\n      pop\n      pop\n      mload(0x40)\n      returndatasize\n      not(0x1f)\n      0x1f\n      dup3\n      add\n      and\n      dup3\n      add\n      dup1\n      0x40\n      mstore\n      pop\n      dup2\n      add\n      swap1\n      tag_293\n      swap2\n      swap1\n      tag_150\n      jump\t// in\n    tag_293:\n        /* \"Pair.sol\":9681:9687  token1 */\n      0x06\n      0x00\n      swap1\n      sload\n      swap1\n      0x0100\n      exp\n      swap1\n      div\n      0xffffffffffffffffffffffffffffffffffffffff\n      and\n        /* \"Pair.sol\":9674:9698  IERC20(token1).balanceOf */\n      0xffffffffffffffffffffffffffffffffffffffff\n      and\n      0x70a08231\n        /* \"Pair.sol\":9707:9711  this */\n      address\n        /* \"Pair.sol\":9674:9713  IERC20(token1).balanceOf(address(this)) */\n      mload(0x40)\n      dup3\n      0xffffffff\n      and\n      0xe0\n      shl\n      dup2\n      mstore\n      0x04\n      add\n      tag_294\n      swap2\n      swap1\n      tag_51\n      jump\t// in\n    tag_294:\n      0x20\n      mload(0x40)\n      dup1\n      dup4\n      sub\n      dup2\n      dup7\n      gas\n      staticcall\n      iszero\n      dup1\n      iszero\n      tag_296\n      jumpi\n      returndatasize\n      0x00\n      dup1\n      returndatacopy\n      revert(0x00, returndatasize)\n    tag_296:\n      pop\n      pop\n      pop\n      pop\n      mload(0x40)\n      returndatasize\n      not(0x1f)\n      0x1f\n      dup3\n      add\n      and\n      dup3\n      add\n      dup1\n      0x40\n      mstore\n      pop\n      dup2\n      add\n      swap1\n      tag_297\n      swap2\n      swap1\n      tag_150\n      jump\t// in\n    tag_297:\n        /* \"Pair.sol\":9715:9723  reserve0 */\n      0x07\n      0x00\n      swap1\n      sload\n      swap1\n      0x0100\n      exp\n      swap1\n      div\n      0xffffffffffffffffffffffffffff\n      and\n        /* \"Pair.sol\":9725:9733  reserve1 */\n      0x07\n      0x0e\n      swap1\n      sload\n      swap1\n      0x0100\n      exp\n      swap1\n      div\n      0xffffffffffffffffffffffffffff\n      and\n        /* \"Pair.sol\":9625:9632  _update */\n      tag_185\n        /* \"Pair.sol\":9625:9734  _update(IERC20(token0).balanceOf(address(this)), IERC20(token1).balanceOf(address(this)), reserve0, reserve1) */\n      jump\t// in\n    tag_289:\n        /* \"Pair.sol\":9588:9742  function sync() external  {... */\n      jump\t// out\n        /* \"Pair.sol\":1329:1616  function _safeTransfer(address token, address to, uint value) private {... */\n    tag_137:\n        /* \"Pair.sol\":1411:1423  bool success */\n      0x00\n        /* \"Pair.sol\":1425:1442  bytes memory data */\n      dup1\n        /* \"Pair.sol\":1446:1451  token */\n      dup5\n        /* \"Pair.sol\":1446:1456  token.call */\n      0xffffffffffffffffffffffffffffffffffffffff\n      and\n        /* \"Pair.sol\":481:515  bytes('transfer(address,uint256)') */\n      mload(0x40)\n      dup1\n      0x40\n      add\n      0x40\n      mstore\n      dup1\n      0x19\n      dup2\n      mstore\n      0x20\n      add\n      0x7472616e7366657228616464726573732c75696e743235362900000000000000\n      dup2\n      mstore\n      pop\n        /* \"Pair.sol\":471:516  keccak256(bytes('transfer(address,uint256)')) */\n      dup1\n      mload\n      swap1\n      0x20\n      add\n      keccak256\n        /* \"Pair.sol\":1490:1492  to */\n      dup6\n        /* \"Pair.sol\":1494:1499  value */\n      dup6\n        /* \"Pair.sol\":1457:1500  abi.encodeWithSelector(SELECTOR, to, value) */\n      add(0x24, mload(0x40))\n      tag_299\n      swap3\n      swap2\n      swap1\n      tag_300\n      jump\t// in\n    tag_299:\n      mload(0x40)\n      0x20\n      dup2\n      dup4\n      sub\n      sub\n      dup2\n      mstore\n      swap1\n      0x40\n      mstore\n      swap1\n      not(0xffffffffffffffffffffffffffffffffffffffffffffffffffffffff)\n      and\n      0x20\n      dup3\n      add\n      dup1\n      mload\n      0xffffffffffffffffffffffffffffffffffffffffffffffffffffffff\n      dup4\n      dup2\n      dup4\n      and\n      or\n      dup4\n      mstore\n      pop\n      pop\n      pop\n      pop\n        /* \"Pair.sol\":1446:1501  token.call(abi.encodeWithSelector(SELECTOR, to, value)) */\n      mload(0x40)\n      tag_301\n      swap2\n      swap1\n      tag_302\n      jump\t// in\n    tag_301:\n      0x00\n      mload(0x40)\n      dup1\n      dup4\n      sub\n      dup2\n      0x00\n      dup7\n      gas\n      call\n      swap2\n      pop\n      pop\n      returndatasize\n      dup1\n      0x00\n      dup2\n      eq\n      tag_305\n      jumpi\n      mload(0x40)\n      swap2\n      pop\n      and(add(returndatasize, 0x3f), not(0x1f))\n      dup3\n      add\n      0x40\n      mstore\n      returndatasize\n      dup3\n      mstore\n      returndatasize\n      0x00\n      0x20\n      dup5\n      add\n      returndatacopy\n      jump(tag_304)\n    tag_305:\n      0x60\n      swap2\n      pop\n    tag_304:\n      pop\n        /* \"Pair.sol\":1410:1501  (bool success, bytes memory data) = token.call(abi.encodeWithSelector(SELECTOR, to, value)) */\n      swap2\n      pop\n      swap2\n      pop\n        /* \"Pair.sol\":1520:1527  success */\n      dup2\n        /* \"Pair.sol\":1520:1577  success && (data.length == 0 || abi.decode(data, (bool))) */\n      dup1\n      iszero\n      tag_306\n      jumpi\n      pop\n        /* \"Pair.sol\":1547:1548  0 */\n      0x00\n        /* \"Pair.sol\":1532:1536  data */\n      dup2\n        /* \"Pair.sol\":1532:1543  data.length */\n      mload\n        /* \"Pair.sol\":1532:1548  data.length == 0 */\n      eq\n        /* \"Pair.sol\":1532:1576  data.length == 0 || abi.decode(data, (bool)) */\n      dup1\n      tag_307\n      jumpi\n      pop\n        /* \"Pair.sol\":1563:1567  data */\n      dup1\n        /* \"Pair.sol\":1552:1576  abi.decode(data, (bool)) */\n      dup1\n      0x20\n      add\n      swap1\n      mload\n      dup2\n      add\n      swap1\n      tag_308\n      swap2\n      swap1\n      tag_309\n      jump\t// in\n    tag_308:\n        /* \"Pair.sol\":1532:1576  data.length == 0 || abi.decode(data, (bool)) */\n    tag_307:\n        /* \"Pair.sol\":1520:1577  success && (data.length == 0 || abi.decode(data, (bool))) */\n    tag_306:\n        /* \"Pair.sol\":1512:1608  require(success && (data.length == 0 || abi.decode(data, (bool))), 'UniswapV2: TRANSFER_FAILED') */\n      tag_310\n      jumpi\n      mload(0x40)\n      0x08c379a000000000000000000000000000000000000000000000000000000000\n      dup2\n      mstore\n      0x04\n      add\n      tag_311\n      swap1\n      tag_312\n      jump\t// in\n    tag_311:\n      mload(0x40)\n      dup1\n      swap2\n      sub\n      swap1\n      revert\n    tag_310:\n        /* \"Pair.sol\":1399:1616  {... */\n      pop\n      pop\n        /* \"Pair.sol\":1329:1616  function _safeTransfer(address token, address to, uint value) private {... */\n      pop\n      pop\n      pop\n      jump\t// out\n        /* \"libraries/SafeMath.sol\":468:610  function mul(uint x, uint y) internal pure returns (uint z) {... */\n    tag_172:\n        /* \"libraries/SafeMath.sol\":520:526  uint z */\n      0x00\n        /* \"libraries/SafeMath.sol\":552:553  0 */\n      dup1\n        /* \"libraries/SafeMath.sol\":547:548  y */\n      dup3\n        /* \"libraries/SafeMath.sol\":547:553  y == 0 */\n      eq\n        /* \"libraries/SafeMath.sol\":547:577  y == 0 || (z = x * y) / y == x */\n      dup1\n      tag_314\n      jumpi\n      pop\n        /* \"libraries/SafeMath.sol\":576:577  x */\n      dup3\n        /* \"libraries/SafeMath.sol\":571:572  y */\n      dup3\n        /* \"libraries/SafeMath.sol\":566:567  y */\n      dup4\n        /* \"libraries/SafeMath.sol\":562:563  x */\n      dup6\n        /* \"libraries/SafeMath.sol\":562:567  x * y */\n      tag_315\n      swap2\n      swap1\n      tag_316\n      jump\t// in\n    tag_315:\n        /* \"libraries/SafeMath.sol\":558:567  z = x * y */\n      swap3\n      pop\n      dup3\n        /* \"libraries/SafeMath.sol\":557:572  (z = x * y) / y */\n      tag_317\n      swap2\n      swap1\n      tag_226\n      jump\t// in\n    tag_317:\n        /* \"libraries/SafeMath.sol\":557:577  (z = x * y) / y == x */\n      eq\n        /* \"libraries/SafeMath.sol\":547:577  y == 0 || (z = x * y) / y == x */\n    tag_314:\n        /* \"libraries/SafeMath.sol\":539:602  require(y == 0 || (z = x * y) / y == x, 'ds-math-mul-overflow') */\n      tag_318\n      jumpi\n      mload(0x40)\n      0x08c379a000000000000000000000000000000000000000000000000000000000\n      dup2\n      mstore\n      0x04\n      add\n      tag_319\n      swap1\n      tag_320\n      jump\t// in\n    tag_319:\n      mload(0x40)\n      dup1\n      swap2\n      sub\n      swap1\n      revert\n    tag_318:\n        /* \"libraries/SafeMath.sol\":468:610  function mul(uint x, uint y) internal pure returns (uint z) {... */\n      swap3\n      swap2\n      pop\n      pop\n      jump\t// out\n        /* \"libraries/SafeMath.sol\":331:460  function sub(uint x, uint y) internal pure returns (uint z) {... */\n    tag_174:\n        /* \"libraries/SafeMath.sol\":383:389  uint z */\n      0x00\n        /* \"libraries/SafeMath.sol\":425:426  x */\n      dup3\n        /* \"libraries/SafeMath.sol\":419:420  y */\n      dup3\n        /* \"libraries/SafeMath.sol\":415:416  x */\n      dup5\n        /* \"libraries/SafeMath.sol\":415:420  x - y */\n      tag_322\n      swap2\n      swap1\n      tag_156\n      jump\t// in\n    tag_322:\n        /* \"libraries/SafeMath.sol\":411:420  z = x - y */\n      swap2\n      pop\n      dup2\n        /* \"libraries/SafeMath.sol\":410:426  (z = x - y) <= x */\n      gt\n      iszero\n        /* \"libraries/SafeMath.sol\":402:452  require((z = x - y) <= x, 'ds-math-sub-underflow') */\n      tag_323\n      jumpi\n      mload(0x40)\n      0x08c379a000000000000000000000000000000000000000000000000000000000\n      dup2\n      mstore\n      0x04\n      add\n      tag_324\n      swap1\n      tag_325\n      jump\t// in\n    tag_324:\n      mload(0x40)\n      dup1\n      swap2\n      sub\n      swap1\n      revert\n    tag_323:\n        /* \"libraries/SafeMath.sol\":331:460  function sub(uint x, uint y) internal pure returns (uint z) {... */\n      swap3\n      swap2\n      pop\n      pop\n      jump\t// out\n        /* \"Pair.sol\":2445:3317  function _update(uint balance0, uint balance1, uint112 _reserve0, uint112 _reserve1) private {... */\n    tag_185:\n        /* \"Pair.sol\":2569:2586  type(uint112).max */\n      0xffffffffffffffffffffffffffff\n        /* \"Pair.sol\":2557:2586  balance0 <= type(uint112).max */\n      dup1\n      and\n        /* \"Pair.sol\":2557:2565  balance0 */\n      dup5\n        /* \"Pair.sol\":2557:2586  balance0 <= type(uint112).max */\n      gt\n      iszero\n        /* \"Pair.sol\":2557:2619  balance0 <= type(uint112).max && balance1 <= type(uint112).max */\n      dup1\n      iszero\n      tag_327\n      jumpi\n      pop\n        /* \"Pair.sol\":2602:2619  type(uint112).max */\n      0xffffffffffffffffffffffffffff\n        /* \"Pair.sol\":2590:2619  balance1 <= type(uint112).max */\n      dup1\n      and\n        /* \"Pair.sol\":2590:2598  balance1 */\n      dup4\n        /* \"Pair.sol\":2590:2619  balance1 <= type(uint112).max */\n      gt\n      iszero\n        /* \"Pair.sol\":2557:2619  balance0 <= type(uint112).max && balance1 <= type(uint112).max */\n    tag_327:\n        /* \"Pair.sol\":2549:2643  require(balance0 <= type(uint112).max && balance1 <= type(uint112).max, 'UniswapV2: OVERFLOW') */\n      tag_328\n      jumpi\n      mload(0x40)\n      0x08c379a000000000000000000000000000000000000000000000000000000000\n      dup2\n      mstore\n      0x04\n      add\n      tag_329\n      swap1\n      tag_330\n      jump\t// in\n    tag_329:\n      mload(0x40)\n      dup1\n      swap2\n      sub\n      swap1\n      revert\n    tag_328:\n        /* \"Pair.sol\":2654:2675  uint32 blockTimestamp */\n      0x00\n        /* \"Pair.sol\":2703:2708  2**32 */\n      0x0100000000\n        /* \"Pair.sol\":2685:2700  block.timestamp */\n      timestamp\n        /* \"Pair.sol\":2685:2708  block.timestamp % 2**32 */\n      tag_331\n      swap2\n      swap1\n      tag_332\n      jump\t// in\n    tag_331:\n        /* \"Pair.sol\":2654:2709  uint32 blockTimestamp = uint32(block.timestamp % 2**32) */\n      swap1\n      pop\n        /* \"Pair.sol\":2720:2738  uint32 timeElapsed */\n      0x00\n        /* \"Pair.sol\":2758:2776  blockTimestampLast */\n      0x07\n      0x1c\n      swap1\n      sload\n      swap1\n      0x0100\n      exp\n      swap1\n      div\n      0xffffffff\n      and\n        /* \"Pair.sol\":2741:2755  blockTimestamp */\n      dup3\n        /* \"Pair.sol\":2741:2776  blockTimestamp - blockTimestampLast */\n      tag_333\n      swap2\n      swap1\n      tag_334\n      jump\t// in\n    tag_333:\n        /* \"Pair.sol\":2720:2776  uint32 timeElapsed = blockTimestamp - blockTimestampLast */\n      swap1\n      pop\n        /* \"Pair.sol\":2828:2829  0 */\n      0x00\n        /* \"Pair.sol\":2814:2825  timeElapsed */\n      dup2\n        /* \"Pair.sol\":2814:2829  timeElapsed > 0 */\n      0xffffffff\n      and\n      gt\n        /* \"Pair.sol\":2814:2847  timeElapsed > 0 && _reserve0 != 0 */\n      dup1\n      iszero\n      tag_335\n      jumpi\n      pop\n        /* \"Pair.sol\":2846:2847  0 */\n      0x00\n        /* \"Pair.sol\":2833:2842  _reserve0 */\n      dup5\n        /* \"Pair.sol\":2833:2847  _reserve0 != 0 */\n      0xffffffffffffffffffffffffffff\n      and\n      eq\n      iszero\n        /* \"Pair.sol\":2814:2847  timeElapsed > 0 && _reserve0 != 0 */\n    tag_335:\n        /* \"Pair.sol\":2814:2865  timeElapsed > 0 && _reserve0 != 0 && _reserve1 != 0 */\n      dup1\n      iszero\n      tag_336\n      jumpi\n      pop\n        /* \"Pair.sol\":2864:2865  0 */\n      0x00\n        /* \"Pair.sol\":2851:2860  _reserve1 */\n      dup4\n        /* \"Pair.sol\":2851:2865  _reserve1 != 0 */\n      0xffffffffffffffffffffffffffff\n      and\n      eq\n      iszero\n        /* \"Pair.sol\":2814:2865  timeElapsed > 0 && _reserve0 != 0 && _reserve1 != 0 */\n    tag_336:\n        /* \"Pair.sol\":2810:3146  if (timeElapsed > 0 && _reserve0 != 0 && _reserve1 != 0) {... */\n      iszero\n      tag_337\n      jumpi\n        /* \"Pair.sol\":3020:3031  timeElapsed */\n      dup1\n        /* \"Pair.sol\":2967:3031  uint(UQ112x112.encode(_reserve1).uqdiv(_reserve0)) * timeElapsed */\n      0xffffffff\n      and\n        /* \"Pair.sol\":2972:3016  UQ112x112.encode(_reserve1).uqdiv(_reserve0) */\n      tag_338\n        /* \"Pair.sol\":3006:3015  _reserve0 */\n      dup6\n        /* \"Pair.sol\":2972:2999  UQ112x112.encode(_reserve1) */\n      tag_339\n        /* \"Pair.sol\":2989:2998  _reserve1 */\n      dup7\n        /* \"Pair.sol\":2972:2988  UQ112x112.encode */\n      tag_340\n        /* \"Pair.sol\":2972:2999  UQ112x112.encode(_reserve1) */\n      jump\t// in\n    tag_339:\n        /* \"Pair.sol\":2972:3005  UQ112x112.encode(_reserve1).uqdiv */\n      0xffffffffffffffffffffffffffffffffffffffffffffffffffffffff\n      and\n      tag_341\n      swap1\n        /* \"Pair.sol\":2972:3016  UQ112x112.encode(_reserve1).uqdiv(_reserve0) */\n      swap2\n      swap1\n      0xffffffff\n      and\n      jump\t// in\n    tag_338:\n        /* \"Pair.sol\":2967:3017  uint(UQ112x112.encode(_reserve1).uqdiv(_reserve0)) */\n      0xffffffffffffffffffffffffffffffffffffffffffffffffffffffff\n      and\n        /* \"Pair.sol\":2967:3031  uint(UQ112x112.encode(_reserve1).uqdiv(_reserve0)) * timeElapsed */\n      tag_342\n      swap2\n      swap1\n      tag_316\n      jump\t// in\n    tag_342:\n        /* \"Pair.sol\":2943:2963  price0CumulativeLast */\n      0x08\n      0x00\n        /* \"Pair.sol\":2943:3031  price0CumulativeLast += uint(UQ112x112.encode(_reserve1).uqdiv(_reserve0)) * timeElapsed */\n      dup3\n      dup3\n      sload\n      tag_343\n      swap2\n      swap1\n      tag_344\n      jump\t// in\n    tag_343:\n      swap3\n      pop\n      pop\n      dup2\n      swap1\n      sstore\n      pop\n        /* \"Pair.sol\":3123:3134  timeElapsed */\n      dup1\n        /* \"Pair.sol\":3070:3134  uint(UQ112x112.encode(_reserve0).uqdiv(_reserve1)) * timeElapsed */\n      0xffffffff\n      and\n        /* \"Pair.sol\":3075:3119  UQ112x112.encode(_reserve0).uqdiv(_reserve1) */\n      tag_345\n        /* \"Pair.sol\":3109:3118  _reserve1 */\n      dup5\n        /* \"Pair.sol\":3075:3102  UQ112x112.encode(_reserve0) */\n      tag_346\n        /* \"Pair.sol\":3092:3101  _reserve0 */\n      dup8\n        /* \"Pair.sol\":3075:3091  UQ112x112.encode */\n      tag_340\n        /* \"Pair.sol\":3075:3102  UQ112x112.encode(_reserve0) */\n      jump\t// in\n    tag_346:\n        /* \"Pair.sol\":3075:3108  UQ112x112.encode(_reserve0).uqdiv */\n      0xffffffffffffffffffffffffffffffffffffffffffffffffffffffff\n      and\n      tag_341\n      swap1\n        /* \"Pair.sol\":3075:3119  UQ112x112.encode(_reserve0).uqdiv(_reserve1) */\n      swap2\n      swap1\n      0xffffffff\n      and\n      jump\t// in\n    tag_345:\n        /* \"Pair.sol\":3070:3120  uint(UQ112x112.encode(_reserve0).uqdiv(_reserve1)) */\n      0xffffffffffffffffffffffffffffffffffffffffffffffffffffffff\n      and\n        /* \"Pair.sol\":3070:3134  uint(UQ112x112.encode(_reserve0).uqdiv(_reserve1)) * timeElapsed */\n      tag_347\n      swap2\n      swap1\n      tag_316\n      jump\t// in\n    tag_347:\n        /* \"Pair.sol\":3046:3066  price1CumulativeLast */\n      0x09\n      0x00\n        /* \"Pair.sol\":3046:3134  price1CumulativeLast += uint(UQ112x112.encode(_reserve0).uqdiv(_reserve1)) * timeElapsed */\n      dup3\n      dup3\n      sload\n      tag_348\n      swap2\n      swap1\n      tag_344\n      jump\t// in\n    tag_348:\n      swap3\n      pop\n      pop\n      dup2\n      swap1\n      sstore\n      pop\n        /* \"Pair.sol\":2810:3146  if (timeElapsed > 0 && _reserve0 != 0 && _reserve1 != 0) {... */\n    tag_337:\n        /* \"Pair.sol\":3175:3183  balance0 */\n      dup6\n        /* \"Pair.sol\":3156:3164  reserve0 */\n      0x07\n      0x00\n        /* \"Pair.sol\":3156:3184  reserve0 = uint112(balance0) */\n      0x0100\n      exp\n      dup2\n      sload\n      dup2\n      0xffffffffffffffffffffffffffff\n      mul\n      not\n      and\n      swap1\n      dup4\n      0xffffffffffffffffffffffffffff\n      and\n      mul\n      or\n      swap1\n      sstore\n      pop\n        /* \"Pair.sol\":3214:3222  balance1 */\n      dup5\n        /* \"Pair.sol\":3195:3203  reserve1 */\n      0x07\n      0x0e\n        /* \"Pair.sol\":3195:3223  reserve1 = uint112(balance1) */\n      0x0100\n      exp\n      dup2\n      sload\n      dup2\n      0xffffffffffffffffffffffffffff\n      mul\n      not\n      and\n      swap1\n      dup4\n      0xffffffffffffffffffffffffffff\n      and\n      mul\n      or\n      swap1\n      sstore\n      pop\n        /* \"Pair.sol\":3255:3269  blockTimestamp */\n      dup2\n        /* \"Pair.sol\":3234:3252  blockTimestampLast */\n      0x07\n      0x1c\n        /* \"Pair.sol\":3234:3269  blockTimestampLast = blockTimestamp */\n      0x0100\n      exp\n      dup2\n      sload\n      dup2\n      0xffffffff\n      mul\n      not\n      and\n      swap1\n      dup4\n      0xffffffff\n      and\n      mul\n      or\n      swap1\n      sstore\n      pop\n        /* \"Pair.sol\":3285:3309  Sync(reserve0, reserve1) */\n      0x1c411e9a96e071241c2f21f7726b17ae89e3cab4c78be50e062b03a9fffbbad1\n        /* \"Pair.sol\":3290:3298  reserve0 */\n      0x07\n      0x00\n      swap1\n      sload\n      swap1\n      0x0100\n      exp\n      swap1\n      div\n      0xffffffffffffffffffffffffffff\n      and\n        /* \"Pair.sol\":3300:3308  reserve1 */\n      0x07\n      0x0e\n      swap1\n      sload\n      swap1\n      0x0100\n      exp\n      swap1\n      div\n      0xffffffffffffffffffffffffffff\n      and\n        /* \"Pair.sol\":3285:3309  Sync(reserve0, reserve1) */\n      mload(0x40)\n      tag_349\n      swap3\n      swap2\n      swap1\n      tag_350\n      jump\t// in\n    tag_349:\n      mload(0x40)\n      dup1\n      swap2\n      sub\n      swap1\n      log1\n        /* \"Pair.sol\":2538:3317  {... */\n      pop\n      pop\n        /* \"Pair.sol\":2445:3317  function _update(uint balance0, uint balance1, uint112 _reserve0, uint112 _reserve1) private {... */\n      pop\n      pop\n      pop\n      pop\n      jump\t// out\n        /* \"ERC20.sol\":1120:1289  function _approve(address owner, address spender, uint value) private {... */\n    tag_191:\n        /* \"ERC20.sol\":1229:1234  value */\n      dup1\n        /* \"ERC20.sol\":1201:1210  allowance */\n      0x02\n        /* \"ERC20.sol\":1201:1217  allowance[owner] */\n      0x00\n        /* \"ERC20.sol\":1211:1216  owner */\n      dup6\n        /* \"ERC20.sol\":1201:1217  allowance[owner] */\n      0xffffffffffffffffffffffffffffffffffffffff\n      and\n      0xffffffffffffffffffffffffffffffffffffffff\n      and\n      dup2\n      mstore\n      0x20\n      add\n      swap1\n      dup2\n      mstore\n      0x20\n      add\n      0x00\n      keccak256\n        /* \"ERC20.sol\":1201:1226  allowance[owner][spender] */\n      0x00\n        /* \"ERC20.sol\":1218:1225  spender */\n      dup5\n        /* \"ERC20.sol\":1201:1226  allowance[owner][spender] */\n      0xffffffffffffffffffffffffffffffffffffffff\n      and\n      0xffffffffffffffffffffffffffffffffffffffff\n      and\n      dup2\n      mstore\n      0x20\n      add\n      swap1\n      dup2\n      mstore\n      0x20\n      add\n      0x00\n      keccak256\n        /* \"ERC20.sol\":1201:1234  allowance[owner][spender] = value */\n      dup2\n      swap1\n      sstore\n      pop\n        /* \"ERC20.sol\":1266:1273  spender */\n      dup2\n        /* \"ERC20.sol\":1250:1281  Approval(owner, spender, value) */\n      0xffffffffffffffffffffffffffffffffffffffff\n      and\n        /* \"ERC20.sol\":1259:1264  owner */\n      dup4\n        /* \"ERC20.sol\":1250:1281  Approval(owner, spender, value) */\n      0xffffffffffffffffffffffffffffffffffffffff\n      and\n      0x8c5be1e5ebec7d5bd14f71427d1e84f3dd0314c0f7b2291e5b200ac8c7c3b925\n        /* \"ERC20.sol\":1275:1280  value */\n      dup4\n        /* \"ERC20.sol\":1250:1281  Approval(owner, spender, value) */\n      mload(0x40)\n      tag_352\n      swap2\n      swap1\n      tag_55\n      jump\t// in\n    tag_352:\n      mload(0x40)\n      dup1\n      swap2\n      sub\n      swap1\n      log3\n        /* \"ERC20.sol\":1120:1289  function _approve(address owner, address spender, uint value) private {... */\n      pop\n      pop\n      pop\n      jump\t// out\n        /* \"ERC20.sol\":1297:1517  function _transfer(address from, address to, uint value) private {... */\n    tag_196:\n        /* \"ERC20.sol\":1391:1417  balanceOf[from].sub(value) */\n      tag_354\n        /* \"ERC20.sol\":1411:1416  value */\n      dup2\n        /* \"ERC20.sol\":1391:1400  balanceOf */\n      0x01\n        /* \"ERC20.sol\":1391:1406  balanceOf[from] */\n      0x00\n        /* \"ERC20.sol\":1401:1405  from */\n      dup7\n        /* \"ERC20.sol\":1391:1406  balanceOf[from] */\n      0xffffffffffffffffffffffffffffffffffffffff\n      and\n      0xffffffffffffffffffffffffffffffffffffffff\n      and\n      dup2\n      mstore\n      0x20\n      add\n      swap1\n      dup2\n      mstore\n      0x20\n      add\n      0x00\n      keccak256\n      sload\n        /* \"ERC20.sol\":1391:1410  balanceOf[from].sub */\n      tag_174\n      swap1\n        /* \"ERC20.sol\":1391:1417  balanceOf[from].sub(value) */\n      swap2\n      swap1\n      0xffffffff\n      and\n      jump\t// in\n    tag_354:\n        /* \"ERC20.sol\":1373:1382  balanceOf */\n      0x01\n        /* \"ERC20.sol\":1373:1388  balanceOf[from] */\n      0x00\n        /* \"ERC20.sol\":1383:1387  from */\n      dup6\n        /* \"ERC20.sol\":1373:1388  balanceOf[from] */\n      0xffffffffffffffffffffffffffffffffffffffff\n      and\n      0xffffffffffffffffffffffffffffffffffffffff\n      and\n      dup2\n      mstore\n      0x20\n      add\n      swap1\n      dup2\n      mstore\n      0x20\n      add\n      0x00\n      keccak256\n        /* \"ERC20.sol\":1373:1417  balanceOf[from] = balanceOf[from].sub(value) */\n      dup2\n      swap1\n      sstore\n      pop\n        /* \"ERC20.sol\":1444:1468  balanceOf[to].add(value) */\n      tag_355\n        /* \"ERC20.sol\":1462:1467  value */\n      dup2\n        /* \"ERC20.sol\":1444:1453  balanceOf */\n      0x01\n        /* \"ERC20.sol\":1444:1457  balanceOf[to] */\n      0x00\n        /* \"ERC20.sol\":1454:1456  to */\n      dup6\n        /* \"ERC20.sol\":1444:1457  balanceOf[to] */\n      0xffffffffffffffffffffffffffffffffffffffff\n      and\n      0xffffffffffffffffffffffffffffffffffffffff\n      and\n      dup2\n      mstore\n      0x20\n      add\n      swap1\n      dup2\n      mstore\n      0x20\n      add\n      0x00\n      keccak256\n      sload\n        /* \"ERC20.sol\":1444:1461  balanceOf[to].add */\n      tag_356\n      swap1\n        /* \"ERC20.sol\":1444:1468  balanceOf[to].add(value) */\n      swap2\n      swap1\n      0xffffffff\n      and\n      jump\t// in\n    tag_355:\n        /* \"ERC20.sol\":1428:1437  balanceOf */\n      0x01\n        /* \"ERC20.sol\":1428:1441  balanceOf[to] */\n      0x00\n        /* \"ERC20.sol\":1438:1440  to */\n      dup5\n        /* \"ERC20.sol\":1428:1441  balanceOf[to] */\n      0xffffffffffffffffffffffffffffffffffffffff\n      and\n      0xffffffffffffffffffffffffffffffffffffffff\n      and\n      dup2\n      mstore\n      0x20\n      add\n      swap1\n      dup2\n      mstore\n      0x20\n      add\n      0x00\n      keccak256\n        /* \"ERC20.sol\":1428:1468  balanceOf[to] = balanceOf[to].add(value) */\n      dup2\n      swap1\n      sstore\n      pop\n        /* \"ERC20.sol\":1499:1501  to */\n      dup2\n        /* \"ERC20.sol\":1484:1509  Transfer(from, to, value) */\n      0xffffffffffffffffffffffffffffffffffffffff\n      and\n        /* \"ERC20.sol\":1493:1497  from */\n      dup4\n        /* \"ERC20.sol\":1484:1509  Transfer(from, to, value) */\n      0xffffffffffffffffffffffffffffffffffffffff\n      and\n      0xddf252ad1be2c89b69c2b068fc378daa952ba7f163c4a11628f55a4df523b3ef\n        /* \"ERC20.sol\":1503:1508  value */\n      dup4\n        /* \"ERC20.sol\":1484:1509  Transfer(from, to, value) */\n      mload(0x40)\n      tag_357\n      swap2\n      swap1\n      tag_55\n      jump\t// in\n    tag_357:\n      mload(0x40)\n      dup1\n      swap2\n      sub\n      swap1\n      log3\n        /* \"ERC20.sol\":1297:1517  function _transfer(address from, address to, uint value) private {... */\n      pop\n      pop\n      pop\n      jump\t// out\n        /* \"Pair.sol\":3407:4244  function _mintFee(uint112 _reserve0, uint112 _reserve1) private returns (bool feeOn) {... */\n    tag_214:\n        /* \"Pair.sol\":3480:3490  bool feeOn */\n      0x00\n        /* \"Pair.sol\":3503:3516  address feeTo */\n      dup1\n        /* \"Pair.sol\":3537:3544  factory */\n      0x04\n      0x00\n      swap1\n      sload\n      swap1\n      0x0100\n      exp\n      swap1\n      div\n      0xffffffffffffffffffffffffffffffffffffffff\n      and\n        /* \"Pair.sol\":3519:3551  IUniswapV2Factory(factory).feeTo */\n      0xffffffffffffffffffffffffffffffffffffffff\n      and\n      0x017e7e58\n        /* \"Pair.sol\":3519:3553  IUniswapV2Factory(factory).feeTo() */\n      mload(0x40)\n      dup2\n      0xffffffff\n      and\n      0xe0\n      shl\n      dup2\n      mstore\n      0x04\n      add\n      0x20\n      mload(0x40)\n      dup1\n      dup4\n      sub\n      dup2\n      dup7\n      gas\n      staticcall\n      iszero\n      dup1\n      iszero\n      tag_360\n      jumpi\n      returndatasize\n      0x00\n      dup1\n      returndatacopy\n      revert(0x00, returndatasize)\n    tag_360:\n      pop\n      pop\n      pop\n      pop\n      mload(0x40)\n      returndatasize\n      not(0x1f)\n      0x1f\n      dup3\n      add\n      and\n      dup3\n      add\n      dup1\n      0x40\n      mstore\n      pop\n      dup2\n      add\n      swap1\n      tag_361\n      swap2\n      swap1\n      tag_362\n      jump\t// in\n    tag_361:\n        /* \"Pair.sol\":3503:3553  address feeTo = IUniswapV2Factory(factory).feeTo() */\n      swap1\n      pop\n        /* \"Pair.sol\":3589:3590  0 */\n      0x00\n        /* \"Pair.sol\":3572:3591  feeTo != address(0) */\n      0xffffffffffffffffffffffffffffffffffffffff\n      and\n        /* \"Pair.sol\":3572:3577  feeTo */\n      dup2\n        /* \"Pair.sol\":3572:3591  feeTo != address(0) */\n      0xffffffffffffffffffffffffffffffffffffffff\n      and\n      eq\n      iszero\n        /* \"Pair.sol\":3564:3591  feeOn = feeTo != address(0) */\n      swap2\n      pop\n        /* \"Pair.sol\":3602:3613  uint _kLast */\n      0x00\n        /* \"Pair.sol\":3616:3621  kLast */\n      sload(0x0a)\n        /* \"Pair.sol\":3602:3621  uint _kLast = kLast */\n      swap1\n      pop\n        /* \"Pair.sol\":3651:3656  feeOn */\n      dup3\n        /* \"Pair.sol\":3647:4237  if (feeOn) {... */\n      iszero\n      tag_363\n      jumpi\n        /* \"Pair.sol\":3687:3688  0 */\n      0x00\n        /* \"Pair.sol\":3677:3683  _kLast */\n      dup2\n        /* \"Pair.sol\":3677:3688  _kLast != 0 */\n      eq\n        /* \"Pair.sol\":3673:4167  if (_kLast != 0) {... */\n      tag_364\n      jumpi\n        /* \"Pair.sol\":3709:3719  uint rootK */\n      0x00\n        /* \"Pair.sol\":3722:3763  Math.sqrt(uint(_reserve0).mul(_reserve1)) */\n      tag_365\n        /* \"Pair.sol\":3732:3762  uint(_reserve0).mul(_reserve1) */\n      tag_366\n        /* \"Pair.sol\":3752:3761  _reserve1 */\n      dup7\n        /* \"Pair.sol\":3732:3762  uint(_reserve0).mul(_reserve1) */\n      0xffffffffffffffffffffffffffff\n      and\n        /* \"Pair.sol\":3737:3746  _reserve0 */\n      dup9\n        /* \"Pair.sol\":3732:3747  uint(_reserve0) */\n      0xffffffffffffffffffffffffffff\n      and\n        /* \"Pair.sol\":3732:3751  uint(_reserve0).mul */\n      tag_172\n      swap1\n        /* \"Pair.sol\":3732:3762  uint(_reserve0).mul(_reserve1) */\n      swap2\n      swap1\n      0xffffffff\n      and\n      jump\t// in\n    tag_366:\n        /* \"Pair.sol\":3722:3731  Math.sqrt */\n      tag_219\n        /* \"Pair.sol\":3722:3763  Math.sqrt(uint(_reserve0).mul(_reserve1)) */\n      jump\t// in\n    tag_365:\n        /* \"Pair.sol\":3709:3763  uint rootK = Math.sqrt(uint(_reserve0).mul(_reserve1)) */\n      swap1\n      pop\n        /* \"Pair.sol\":3782:3796  uint rootKLast */\n      0x00\n        /* \"Pair.sol\":3799:3816  Math.sqrt(_kLast) */\n      tag_367\n        /* \"Pair.sol\":3809:3815  _kLast */\n      dup4\n        /* \"Pair.sol\":3799:3808  Math.sqrt */\n      tag_219\n        /* \"Pair.sol\":3799:3816  Math.sqrt(_kLast) */\n      jump\t// in\n    tag_367:\n        /* \"Pair.sol\":3782:3816  uint rootKLast = Math.sqrt(_kLast) */\n      swap1\n      pop\n        /* \"Pair.sol\":3847:3856  rootKLast */\n      dup1\n        /* \"Pair.sol\":3839:3844  rootK */\n      dup3\n        /* \"Pair.sol\":3839:3856  rootK > rootKLast */\n      gt\n        /* \"Pair.sol\":3835:4152  if (rootK > rootKLast) {... */\n      iszero\n      tag_368\n      jumpi\n        /* \"Pair.sol\":3881:3895  uint numerator */\n      0x00\n        /* \"Pair.sol\":3898:3935  totalSupply.mul(rootK.sub(rootKLast)) */\n      tag_369\n        /* \"Pair.sol\":3914:3934  rootK.sub(rootKLast) */\n      tag_370\n        /* \"Pair.sol\":3924:3933  rootKLast */\n      dup4\n        /* \"Pair.sol\":3914:3919  rootK */\n      dup6\n        /* \"Pair.sol\":3914:3923  rootK.sub */\n      tag_174\n      swap1\n        /* \"Pair.sol\":3914:3934  rootK.sub(rootKLast) */\n      swap2\n      swap1\n      0xffffffff\n      and\n      jump\t// in\n    tag_370:\n        /* \"Pair.sol\":3898:3909  totalSupply */\n      sload(0x00)\n        /* \"Pair.sol\":3898:3913  totalSupply.mul */\n      tag_172\n      swap1\n        /* \"Pair.sol\":3898:3935  totalSupply.mul(rootK.sub(rootKLast)) */\n      swap2\n      swap1\n      0xffffffff\n      and\n      jump\t// in\n    tag_369:\n        /* \"Pair.sol\":3881:3935  uint numerator = totalSupply.mul(rootK.sub(rootKLast)) */\n      swap1\n      pop\n        /* \"Pair.sol\":3958:3974  uint denominator */\n      0x00\n        /* \"Pair.sol\":3977:4004  rootK.mul(5).add(rootKLast) */\n      tag_371\n        /* \"Pair.sol\":3994:4003  rootKLast */\n      dup4\n        /* \"Pair.sol\":3977:3989  rootK.mul(5) */\n      tag_372\n        /* \"Pair.sol\":3987:3988  5 */\n      0x05\n        /* \"Pair.sol\":3977:3982  rootK */\n      dup8\n        /* \"Pair.sol\":3977:3986  rootK.mul */\n      tag_172\n      swap1\n        /* \"Pair.sol\":3977:3989  rootK.mul(5) */\n      swap2\n      swap1\n      0xffffffff\n      and\n      jump\t// in\n    tag_372:\n        /* \"Pair.sol\":3977:3993  rootK.mul(5).add */\n      tag_356\n      swap1\n        /* \"Pair.sol\":3977:4004  rootK.mul(5).add(rootKLast) */\n      swap2\n      swap1\n      0xffffffff\n      and\n      jump\t// in\n    tag_371:\n        /* \"Pair.sol\":3958:4004  uint denominator = rootK.mul(5).add(rootKLast) */\n      swap1\n      pop\n        /* \"Pair.sol\":4027:4041  uint liquidity */\n      0x00\n        /* \"Pair.sol\":4056:4067  denominator */\n      dup2\n        /* \"Pair.sol\":4044:4053  numerator */\n      dup4\n        /* \"Pair.sol\":4044:4067  numerator / denominator */\n      tag_373\n      swap2\n      swap1\n      tag_226\n      jump\t// in\n    tag_373:\n        /* \"Pair.sol\":4027:4067  uint liquidity = numerator / denominator */\n      swap1\n      pop\n        /* \"Pair.sol\":4106:4107  0 */\n      0x00\n        /* \"Pair.sol\":4094:4103  liquidity */\n      dup2\n        /* \"Pair.sol\":4094:4107  liquidity > 0 */\n      gt\n        /* \"Pair.sol\":4090:4132  if (liquidity > 0) _mint(feeTo, liquidity) */\n      iszero\n      tag_374\n      jumpi\n        /* \"Pair.sol\":4109:4132  _mint(feeTo, liquidity) */\n      tag_375\n        /* \"Pair.sol\":4115:4120  feeTo */\n      dup8\n        /* \"Pair.sol\":4122:4131  liquidity */\n      dup3\n        /* \"Pair.sol\":4109:4114  _mint */\n      tag_221\n        /* \"Pair.sol\":4109:4132  _mint(feeTo, liquidity) */\n      jump\t// in\n    tag_375:\n        /* \"Pair.sol\":4090:4132  if (liquidity > 0) _mint(feeTo, liquidity) */\n    tag_374:\n        /* \"Pair.sol\":3858:4152  {... */\n      pop\n      pop\n      pop\n        /* \"Pair.sol\":3835:4152  if (rootK > rootKLast) {... */\n    tag_368:\n        /* \"Pair.sol\":3690:4167  {... */\n      pop\n      pop\n        /* \"Pair.sol\":3673:4167  if (_kLast != 0) {... */\n    tag_364:\n        /* \"Pair.sol\":3647:4237  if (feeOn) {... */\n      jump(tag_376)\n    tag_363:\n        /* \"Pair.sol\":4198:4199  0 */\n      0x00\n        /* \"Pair.sol\":4188:4194  _kLast */\n      dup2\n        /* \"Pair.sol\":4188:4199  _kLast != 0 */\n      eq\n        /* \"Pair.sol\":4184:4237  if (_kLast != 0) {... */\n      tag_377\n      jumpi\n        /* \"Pair.sol\":4224:4225  0 */\n      0x00\n        /* \"Pair.sol\":4216:4221  kLast */\n      0x0a\n        /* \"Pair.sol\":4216:4225  kLast = 0 */\n      dup2\n      swap1\n      sstore\n      pop\n        /* \"Pair.sol\":4184:4237  if (_kLast != 0) {... */\n    tag_377:\n        /* \"Pair.sol\":3647:4237  if (feeOn) {... */\n    tag_376:\n        /* \"Pair.sol\":3492:4244  {... */\n      pop\n      pop\n        /* \"Pair.sol\":3407:4244  function _mintFee(uint112 _reserve0, uint112 _reserve1) private returns (bool feeOn) {... */\n      swap3\n      swap2\n      pop\n      pop\n      jump\t// out\n        /* \"libraries/Math.sol\":357:660  function sqrt(uint y) internal pure returns (uint z) {... */\n    tag_219:\n        /* \"libraries/Math.sol\":402:408  uint z */\n      0x00\n        /* \"libraries/Math.sol\":429:430  3 */\n      0x03\n        /* \"libraries/Math.sol\":425:426  y */\n      dup3\n        /* \"libraries/Math.sol\":425:430  y > 3 */\n      gt\n        /* \"libraries/Math.sol\":421:653  if (y > 3) {... */\n      iszero\n      tag_379\n      jumpi\n        /* \"libraries/Math.sol\":451:452  y */\n      dup2\n        /* \"libraries/Math.sol\":447:452  z = y */\n      swap1\n      pop\n        /* \"libraries/Math.sol\":467:473  uint x */\n      0x00\n        /* \"libraries/Math.sol\":484:485  1 */\n      0x01\n        /* \"libraries/Math.sol\":480:481  2 */\n      0x02\n        /* \"libraries/Math.sol\":476:477  y */\n      dup5\n        /* \"libraries/Math.sol\":476:481  y / 2 */\n      tag_380\n      swap2\n      swap1\n      tag_226\n      jump\t// in\n    tag_380:\n        /* \"libraries/Math.sol\":476:485  y / 2 + 1 */\n      tag_381\n      swap2\n      swap1\n      tag_344\n      jump\t// in\n    tag_381:\n        /* \"libraries/Math.sol\":467:485  uint x = y / 2 + 1 */\n      swap1\n      pop\n        /* \"libraries/Math.sol\":500:592  while (x < z) {... */\n    tag_382:\n        /* \"libraries/Math.sol\":511:512  z */\n      dup2\n        /* \"libraries/Math.sol\":507:508  x */\n      dup2\n        /* \"libraries/Math.sol\":507:512  x < z */\n      lt\n        /* \"libraries/Math.sol\":500:592  while (x < z) {... */\n      iszero\n      tag_383\n      jumpi\n        /* \"libraries/Math.sol\":537:538  x */\n      dup1\n        /* \"libraries/Math.sol\":533:538  z = x */\n      swap2\n      pop\n        /* \"libraries/Math.sol\":575:576  2 */\n      0x02\n        /* \"libraries/Math.sol\":570:571  x */\n      dup2\n        /* \"libraries/Math.sol\":566:567  x */\n      dup3\n        /* \"libraries/Math.sol\":562:563  y */\n      dup6\n        /* \"libraries/Math.sol\":562:567  y / x */\n      tag_384\n      swap2\n      swap1\n      tag_226\n      jump\t// in\n    tag_384:\n        /* \"libraries/Math.sol\":562:571  y / x + x */\n      tag_385\n      swap2\n      swap1\n      tag_344\n      jump\t// in\n    tag_385:\n        /* \"libraries/Math.sol\":561:576  (y / x + x) / 2 */\n      tag_386\n      swap2\n      swap1\n      tag_226\n      jump\t// in\n    tag_386:\n        /* \"libraries/Math.sol\":557:576  x = (y / x + x) / 2 */\n      swap1\n      pop\n        /* \"libraries/Math.sol\":500:592  while (x < z) {... */\n      jump(tag_382)\n    tag_383:\n        /* \"libraries/Math.sol\":432:603  {... */\n      pop\n        /* \"libraries/Math.sol\":421:653  if (y > 3) {... */\n      jump(tag_387)\n    tag_379:\n        /* \"libraries/Math.sol\":618:619  0 */\n      0x00\n        /* \"libraries/Math.sol\":613:614  y */\n      dup3\n        /* \"libraries/Math.sol\":613:619  y != 0 */\n      eq\n        /* \"libraries/Math.sol\":609:653  if (y != 0) {... */\n      tag_388\n      jumpi\n        /* \"libraries/Math.sol\":640:641  1 */\n      0x01\n        /* \"libraries/Math.sol\":636:641  z = 1 */\n      swap1\n      pop\n        /* \"libraries/Math.sol\":609:653  if (y != 0) {... */\n    tag_388:\n        /* \"libraries/Math.sol\":421:653  if (y > 3) {... */\n    tag_387:\n        /* \"libraries/Math.sol\":357:660  function sqrt(uint y) internal pure returns (uint z) {... */\n      swap2\n      swap1\n      pop\n      jump\t// out\n        /* \"ERC20.sol\":694:895  function _mint(address to, uint value) internal {... */\n    tag_221:\n        /* \"ERC20.sol\":767:789  totalSupply.add(value) */\n      tag_390\n        /* \"ERC20.sol\":783:788  value */\n      dup2\n        /* \"ERC20.sol\":767:778  totalSupply */\n      sload(0x00)\n        /* \"ERC20.sol\":767:782  totalSupply.add */\n      tag_356\n      swap1\n        /* \"ERC20.sol\":767:789  totalSupply.add(value) */\n      swap2\n      swap1\n      0xffffffff\n      and\n      jump\t// in\n    tag_390:\n        /* \"ERC20.sol\":753:764  totalSupply */\n      0x00\n        /* \"ERC20.sol\":753:789  totalSupply = totalSupply.add(value) */\n      dup2\n      swap1\n      sstore\n      pop\n        /* \"ERC20.sol\":816:840  balanceOf[to].add(value) */\n      tag_391\n        /* \"ERC20.sol\":834:839  value */\n      dup2\n        /* \"ERC20.sol\":816:825  balanceOf */\n      0x01\n        /* \"ERC20.sol\":816:829  balanceOf[to] */\n      0x00\n        /* \"ERC20.sol\":826:828  to */\n      dup6\n        /* \"ERC20.sol\":816:829  balanceOf[to] */\n      0xffffffffffffffffffffffffffffffffffffffff\n      and\n      0xffffffffffffffffffffffffffffffffffffffff\n      and\n      dup2\n      mstore\n      0x20\n      add\n      swap1\n      dup2\n      mstore\n      0x20\n      add\n      0x00\n      keccak256\n      sload\n        /* \"ERC20.sol\":816:833  balanceOf[to].add */\n      tag_356\n      swap1\n        /* \"ERC20.sol\":816:840  balanceOf[to].add(value) */\n      swap2\n      swap1\n      0xffffffff\n      and\n      jump\t// in\n    tag_391:\n        /* \"ERC20.sol\":800:809  balanceOf */\n      0x01\n        /* \"ERC20.sol\":800:813  balanceOf[to] */\n      0x00\n        /* \"ERC20.sol\":810:812  to */\n      dup5\n        /* \"ERC20.sol\":800:813  balanceOf[to] */\n      0xffffffffffffffffffffffffffffffffffffffff\n      and\n      0xffffffffffffffffffffffffffffffffffffffff\n      and\n      dup2\n      mstore\n      0x20\n      add\n      swap1\n      dup2\n      mstore\n      0x20\n      add\n      0x00\n      keccak256\n        /* \"ERC20.sol\":800:840  balanceOf[to] = balanceOf[to].add(value) */\n      dup2\n      swap1\n      sstore\n      pop\n        /* \"ERC20.sol\":877:879  to */\n      dup2\n        /* \"ERC20.sol\":856:887  Transfer(address(0), to, value) */\n      0xffffffffffffffffffffffffffffffffffffffff\n      and\n        /* \"ERC20.sol\":873:874  0 */\n      0x00\n        /* \"ERC20.sol\":856:887  Transfer(address(0), to, value) */\n      0xffffffffffffffffffffffffffffffffffffffff\n      and\n      0xddf252ad1be2c89b69c2b068fc378daa952ba7f163c4a11628f55a4df523b3ef\n        /* \"ERC20.sol\":881:886  value */\n      dup4\n        /* \"ERC20.sol\":856:887  Transfer(address(0), to, value) */\n      mload(0x40)\n      tag_392\n      swap2\n      swap1\n      tag_55\n      jump\t// in\n    tag_392:\n      mload(0x40)\n      dup1\n      swap2\n      sub\n      swap1\n      log3\n        /* \"ERC20.sol\":694:895  function _mint(address to, uint value) internal {... */\n      pop\n      pop\n      jump\t// out\n        /* \"libraries/Math.sol\":143:239  function min(uint x, uint y) internal pure returns (uint z) {... */\n    tag_229:\n        /* \"libraries/Math.sol\":195:201  uint z */\n      0x00\n        /* \"libraries/Math.sol\":222:223  y */\n      dup2\n        /* \"libraries/Math.sol\":218:219  x */\n      dup4\n        /* \"libraries/Math.sol\":218:223  x < y */\n      lt\n        /* \"libraries/Math.sol\":218:231  x < y ? x : y */\n      tag_394\n      jumpi\n        /* \"libraries/Math.sol\":230:231  y */\n      dup2\n        /* \"libraries/Math.sol\":218:231  x < y ? x : y */\n      jump(tag_395)\n    tag_394:\n        /* \"libraries/Math.sol\":226:227  x */\n      dup3\n        /* \"libraries/Math.sol\":218:231  x < y ? x : y */\n    tag_395:\n        /* \"libraries/Math.sol\":214:231  z = x < y ? x : y */\n      swap1\n      pop\n        /* \"libraries/Math.sol\":143:239  function min(uint x, uint y) internal pure returns (uint z) {... */\n      swap3\n      swap2\n      pop\n      pop\n      jump\t// out\n        /* \"ERC20.sol\":903:1112  function _burn(address from, uint value) internal {... */\n    tag_258:\n        /* \"ERC20.sol\":982:1008  balanceOf[from].sub(value) */\n      tag_397\n        /* \"ERC20.sol\":1002:1007  value */\n      dup2\n        /* \"ERC20.sol\":982:991  balanceOf */\n      0x01\n        /* \"ERC20.sol\":982:997  balanceOf[from] */\n      0x00\n        /* \"ERC20.sol\":992:996  from */\n      dup6\n        /* \"ERC20.sol\":982:997  balanceOf[from] */\n      0xffffffffffffffffffffffffffffffffffffffff\n      and\n      0xffffffffffffffffffffffffffffffffffffffff\n      and\n      dup2\n      mstore\n      0x20\n      add\n      swap1\n      dup2\n      mstore\n      0x20\n      add\n      0x00\n      keccak256\n      sload\n        /* \"ERC20.sol\":982:1001  balanceOf[from].sub */\n      tag_174\n      swap1\n        /* \"ERC20.sol\":982:1008  balanceOf[from].sub(value) */\n      swap2\n      swap1\n      0xffffffff\n      and\n      jump\t// in\n    tag_397:\n        /* \"ERC20.sol\":964:973  balanceOf */\n      0x01\n        /* \"ERC20.sol\":964:979  balanceOf[from] */\n      0x00\n        /* \"ERC20.sol\":974:978  from */\n      dup5\n        /* \"ERC20.sol\":964:979  balanceOf[from] */\n      0xffffffffffffffffffffffffffffffffffffffff\n      and\n      0xffffffffffffffffffffffffffffffffffffffff\n      and\n      dup2\n      mstore\n      0x20\n      add\n      swap1\n      dup2\n      mstore\n      0x20\n      add\n      0x00\n      keccak256\n        /* \"ERC20.sol\":964:1008  balanceOf[from] = balanceOf[from].sub(value) */\n      dup2\n      swap1\n      sstore\n      pop\n        /* \"ERC20.sol\":1033:1055  totalSupply.sub(value) */\n      tag_398\n        /* \"ERC20.sol\":1049:1054  value */\n      dup2\n        /* \"ERC20.sol\":1033:1044  totalSupply */\n      sload(0x00)\n        /* \"ERC20.sol\":1033:1048  totalSupply.sub */\n      tag_174\n      swap1\n        /* \"ERC20.sol\":1033:1055  totalSupply.sub(value) */\n      swap2\n      swap1\n      0xffffffff\n      and\n      jump\t// in\n    tag_398:\n        /* \"ERC20.sol\":1019:1030  totalSupply */\n      0x00\n        /* \"ERC20.sol\":1019:1055  totalSupply = totalSupply.sub(value) */\n      dup2\n      swap1\n      sstore\n      pop\n        /* \"ERC20.sol\":1094:1095  0 */\n      0x00\n        /* \"ERC20.sol\":1071:1104  Transfer(from, address(0), value) */\n      0xffffffffffffffffffffffffffffffffffffffff\n      and\n        /* \"ERC20.sol\":1080:1084  from */\n      dup3\n        /* \"ERC20.sol\":1071:1104  Transfer(from, address(0), value) */\n      0xffffffffffffffffffffffffffffffffffffffff\n      and\n      0xddf252ad1be2c89b69c2b068fc378daa952ba7f163c4a11628f55a4df523b3ef\n        /* \"ERC20.sol\":1098:1103  value */\n      dup4\n        /* \"ERC20.sol\":1071:1104  Transfer(from, address(0), value) */\n      mload(0x40)\n      tag_399\n      swap2\n      swap1\n      tag_55\n      jump\t// in\n    tag_399:\n      mload(0x40)\n      dup1\n      swap2\n      sub\n      swap1\n      log3\n        /* \"ERC20.sol\":903:1112  function _burn(address from, uint value) internal {... */\n      pop\n      pop\n      jump\t// out\n        /* \"libraries/UQ112x112.sol\":334:454  function encode(uint112 y) internal pure returns (uint224 z) {... */\n    tag_340:\n        /* \"libraries/UQ112x112.sol\":384:393  uint224 z */\n      0x00\n        /* \"libraries/UQ112x112.sol\":279:285  2**112 */\n      0x010000000000000000000000000000\n        /* \"libraries/UQ112x112.sol\":418:419  y */\n      dup3\n        /* \"libraries/UQ112x112.sol\":410:420  uint224(y) */\n      0xffffffffffffffffffffffffffff\n      and\n        /* \"libraries/UQ112x112.sol\":410:427  uint224(y) * Q112 */\n      tag_401\n      swap2\n      swap1\n      tag_402\n      jump\t// in\n    tag_401:\n        /* \"libraries/UQ112x112.sol\":406:427  z = uint224(y) * Q112 */\n      swap1\n      pop\n        /* \"libraries/UQ112x112.sol\":334:454  function encode(uint112 y) internal pure returns (uint224 z) {... */\n      swap2\n      swap1\n      pop\n      jump\t// out\n        /* \"libraries/UQ112x112.sol\":525:633  function uqdiv(uint224 x, uint112 y) internal pure returns (uint224 z) {... */\n    tag_341:\n        /* \"libraries/UQ112x112.sol\":585:594  uint224 z */\n      0x00\n        /* \"libraries/UQ112x112.sol\":623:624  y */\n      dup2\n        /* \"libraries/UQ112x112.sol\":615:625  uint224(y) */\n      0xffffffffffffffffffffffffffff\n      and\n        /* \"libraries/UQ112x112.sol\":611:612  x */\n      dup4\n        /* \"libraries/UQ112x112.sol\":611:625  x / uint224(y) */\n      tag_404\n      swap2\n      swap1\n      tag_405\n      jump\t// in\n    tag_404:\n        /* \"libraries/UQ112x112.sol\":607:625  z = x / uint224(y) */\n      swap1\n      pop\n        /* \"libraries/UQ112x112.sol\":525:633  function uqdiv(uint224 x, uint112 y) internal pure returns (uint224 z) {... */\n      swap3\n      swap2\n      pop\n      pop\n      jump\t// out\n        /* \"libraries/SafeMath.sol\":199:323  function add(uint x, uint y) internal pure returns (uint z) {... */\n    tag_356:\n        /* \"libraries/SafeMath.sol\":251:257  uint z */\n      0x00\n        /* \"libraries/SafeMath.sol\":289:290  x */\n      dup3\n        /* \"libraries/SafeMath.sol\":283:284  y */\n      dup3\n        /* \"libraries/SafeMath.sol\":279:280  x */\n      dup5\n        /* \"libraries/SafeMath.sol\":279:284  x + y */\n      tag_407\n      swap2\n      swap1\n      tag_344\n      jump\t// in\n    tag_407:\n        /* \"libraries/SafeMath.sol\":275:284  z = x + y */\n      swap2\n      pop\n      dup2\n        /* \"libraries/SafeMath.sol\":274:290  (z = x + y) >= x */\n      lt\n      iszero\n        /* \"libraries/SafeMath.sol\":266:315  require((z = x + y) >= x, 'ds-math-add-overflow') */\n      tag_408\n      jumpi\n      mload(0x40)\n      0x08c379a000000000000000000000000000000000000000000000000000000000\n      dup2\n      mstore\n      0x04\n      add\n      tag_409\n      swap1\n      tag_410\n      jump\t// in\n    tag_409:\n      mload(0x40)\n      dup1\n      swap2\n      sub\n      swap1\n      revert\n    tag_408:\n        /* \"libraries/SafeMath.sol\":199:323  function add(uint x, uint y) internal pure returns (uint z) {... */\n      swap3\n      swap2\n      pop\n      pop\n      jump\t// out\n        /* \"#utility.yul\":88:205   */\n    tag_412:\n        /* \"#utility.yul\":197:198   */\n      0x00\n        /* \"#utility.yul\":194:195   */\n      dup1\n        /* \"#utility.yul\":187:199   */\n      revert\n        /* \"#utility.yul\":211:328   */\n    tag_413:\n        /* \"#utility.yul\":320:321   */\n      0x00\n        /* \"#utility.yul\":317:318   */\n      dup1\n        /* \"#utility.yul\":310:322   */\n      revert\n        /* \"#utility.yul\":334:411   */\n    tag_414:\n        /* \"#utility.yul\":371:378   */\n      0x00\n        /* \"#utility.yul\":400:405   */\n      dup2\n        /* \"#utility.yul\":389:405   */\n      swap1\n      pop\n        /* \"#utility.yul\":334:411   */\n      swap2\n      swap1\n      pop\n      jump\t// out\n        /* \"#utility.yul\":417:539   */\n    tag_415:\n        /* \"#utility.yul\":490:514   */\n      tag_485\n        /* \"#utility.yul\":508:513   */\n      dup2\n        /* \"#utility.yul\":490:514   */\n      tag_414\n      jump\t// in\n    tag_485:\n        /* \"#utility.yul\":483:488   */\n      dup2\n        /* \"#utility.yul\":480:515   */\n      eq\n        /* \"#utility.yul\":470:533   */\n      tag_486\n      jumpi\n        /* \"#utility.yul\":529:530   */\n      0x00\n        /* \"#utility.yul\":526:527   */\n      dup1\n        /* \"#utility.yul\":519:531   */\n      revert\n        /* \"#utility.yul\":470:533   */\n    tag_486:\n        /* \"#utility.yul\":417:539   */\n      pop\n      jump\t// out\n        /* \"#utility.yul\":545:684   */\n    tag_416:\n        /* \"#utility.yul\":591:596   */\n      0x00\n        /* \"#utility.yul\":629:635   */\n      dup2\n        /* \"#utility.yul\":616:636   */\n      calldataload\n        /* \"#utility.yul\":607:636   */\n      swap1\n      pop\n        /* \"#utility.yul\":645:678   */\n      tag_488\n        /* \"#utility.yul\":672:677   */\n      dup2\n        /* \"#utility.yul\":645:678   */\n      tag_415\n      jump\t// in\n    tag_488:\n        /* \"#utility.yul\":545:684   */\n      swap3\n      swap2\n      pop\n      pop\n      jump\t// out\n        /* \"#utility.yul\":690:816   */\n    tag_417:\n        /* \"#utility.yul\":727:734   */\n      0x00\n        /* \"#utility.yul\":767:809   */\n      0xffffffffffffffffffffffffffffffffffffffff\n        /* \"#utility.yul\":760:765   */\n      dup3\n        /* \"#utility.yul\":756:810   */\n      and\n        /* \"#utility.yul\":745:810   */\n      swap1\n      pop\n        /* \"#utility.yul\":690:816   */\n      swap2\n      swap1\n      pop\n      jump\t// out\n        /* \"#utility.yul\":822:918   */\n    tag_418:\n        /* \"#utility.yul\":859:866   */\n      0x00\n        /* \"#utility.yul\":888:912   */\n      tag_491\n        /* \"#utility.yul\":906:911   */\n      dup3\n        /* \"#utility.yul\":888:912   */\n      tag_417\n      jump\t// in\n    tag_491:\n        /* \"#utility.yul\":877:912   */\n      swap1\n      pop\n        /* \"#utility.yul\":822:918   */\n      swap2\n      swap1\n      pop\n      jump\t// out\n        /* \"#utility.yul\":924:1046   */\n    tag_419:\n        /* \"#utility.yul\":997:1021   */\n      tag_493\n        /* \"#utility.yul\":1015:1020   */\n      dup2\n        /* \"#utility.yul\":997:1021   */\n      tag_418\n      jump\t// in\n    tag_493:\n        /* \"#utility.yul\":990:995   */\n      dup2\n        /* \"#utility.yul\":987:1022   */\n      eq\n        /* \"#utility.yul\":977:1040   */\n      tag_494\n      jumpi\n        /* \"#utility.yul\":1036:1037   */\n      0x00\n        /* \"#utility.yul\":1033:1034   */\n      dup1\n        /* \"#utility.yul\":1026:1038   */\n      revert\n        /* \"#utility.yul\":977:1040   */\n    tag_494:\n        /* \"#utility.yul\":924:1046   */\n      pop\n      jump\t// out\n        /* \"#utility.yul\":1052:1191   */\n    tag_420:\n        /* \"#utility.yul\":1098:1103   */\n      0x00\n        /* \"#utility.yul\":1136:1142   */\n      dup2\n        /* \"#utility.yul\":1123:1143   */\n      calldataload\n        /* \"#utility.yul\":1114:1143   */\n      swap1\n      pop\n        /* \"#utility.yul\":1152:1185   */\n      tag_496\n        /* \"#utility.yul\":1179:1184   */\n      dup2\n        /* \"#utility.yul\":1152:1185   */\n      tag_419\n      jump\t// in\n    tag_496:\n        /* \"#utility.yul\":1052:1191   */\n      swap3\n      swap2\n      pop\n      pop\n      jump\t// out\n        /* \"#utility.yul\":1197:1314   */\n    tag_421:\n        /* \"#utility.yul\":1306:1307   */\n      0x00\n        /* \"#utility.yul\":1303:1304   */\n      dup1\n        /* \"#utility.yul\":1296:1308   */\n      revert\n        /* \"#utility.yul\":1320:1437   */\n    tag_422:\n        /* \"#utility.yul\":1429:1430   */\n      0x00\n        /* \"#utility.yul\":1426:1427   */\n      dup1\n        /* \"#utility.yul\":1419:1431   */\n      revert\n        /* \"#utility.yul\":1443:1560   */\n    tag_423:\n        /* \"#utility.yul\":1552:1553   */\n      0x00\n        /* \"#utility.yul\":1549:1550   */\n      dup1\n        /* \"#utility.yul\":1542:1554   */\n      revert\n        /* \"#utility.yul\":1579:2131   */\n    tag_424:\n        /* \"#utility.yul\":1636:1644   */\n      0x00\n        /* \"#utility.yul\":1646:1652   */\n      dup1\n        /* \"#utility.yul\":1696:1699   */\n      dup4\n        /* \"#utility.yul\":1689:1693   */\n      0x1f\n        /* \"#utility.yul\":1681:1687   */\n      dup5\n        /* \"#utility.yul\":1677:1694   */\n      add\n        /* \"#utility.yul\":1673:1700   */\n      slt\n        /* \"#utility.yul\":1663:1785   */\n      tag_501\n      jumpi\n        /* \"#utility.yul\":1704:1783   */\n      tag_502\n      tag_421\n      jump\t// in\n    tag_502:\n        /* \"#utility.yul\":1663:1785   */\n    tag_501:\n        /* \"#utility.yul\":1817:1823   */\n      dup3\n        /* \"#utility.yul\":1804:1824   */\n      calldataload\n        /* \"#utility.yul\":1794:1824   */\n      swap1\n      pop\n        /* \"#utility.yul\":1847:1865   */\n      0xffffffffffffffff\n        /* \"#utility.yul\":1839:1845   */\n      dup2\n        /* \"#utility.yul\":1836:1866   */\n      gt\n        /* \"#utility.yul\":1833:1950   */\n      iszero\n      tag_503\n      jumpi\n        /* \"#utility.yul\":1869:1948   */\n      tag_504\n      tag_422\n      jump\t// in\n    tag_504:\n        /* \"#utility.yul\":1833:1950   */\n    tag_503:\n        /* \"#utility.yul\":1983:1987   */\n      0x20\n        /* \"#utility.yul\":1975:1981   */\n      dup4\n        /* \"#utility.yul\":1971:1988   */\n      add\n        /* \"#utility.yul\":1959:1988   */\n      swap2\n      pop\n        /* \"#utility.yul\":2037:2040   */\n      dup4\n        /* \"#utility.yul\":2029:2033   */\n      0x01\n        /* \"#utility.yul\":2021:2027   */\n      dup3\n        /* \"#utility.yul\":2017:2034   */\n      mul\n        /* \"#utility.yul\":2007:2015   */\n      dup4\n        /* \"#utility.yul\":2003:2035   */\n      add\n        /* \"#utility.yul\":2000:2041   */\n      gt\n        /* \"#utility.yul\":1997:2125   */\n      iszero\n      tag_505\n      jumpi\n        /* \"#utility.yul\":2044:2123   */\n      tag_506\n      tag_423\n      jump\t// in\n    tag_506:\n        /* \"#utility.yul\":1997:2125   */\n    tag_505:\n        /* \"#utility.yul\":1579:2131   */\n      swap3\n      pop\n      swap3\n      swap1\n      pop\n      jump\t// out\n        /* \"#utility.yul\":2137:3100   */\n    tag_32:\n        /* \"#utility.yul\":2234:2240   */\n      0x00\n        /* \"#utility.yul\":2242:2248   */\n      dup1\n        /* \"#utility.yul\":2250:2256   */\n      0x00\n        /* \"#utility.yul\":2258:2264   */\n      dup1\n        /* \"#utility.yul\":2266:2272   */\n      0x00\n        /* \"#utility.yul\":2315:2318   */\n      0x80\n        /* \"#utility.yul\":2303:2312   */\n      dup7\n        /* \"#utility.yul\":2294:2301   */\n      dup9\n        /* \"#utility.yul\":2290:2313   */\n      sub\n        /* \"#utility.yul\":2286:2319   */\n      slt\n        /* \"#utility.yul\":2283:2403   */\n      iszero\n      tag_508\n      jumpi\n        /* \"#utility.yul\":2322:2401   */\n      tag_509\n      tag_412\n      jump\t// in\n    tag_509:\n        /* \"#utility.yul\":2283:2403   */\n    tag_508:\n        /* \"#utility.yul\":2442:2443   */\n      0x00\n        /* \"#utility.yul\":2467:2520   */\n      tag_510\n        /* \"#utility.yul\":2512:2519   */\n      dup9\n        /* \"#utility.yul\":2503:2509   */\n      dup3\n        /* \"#utility.yul\":2492:2501   */\n      dup10\n        /* \"#utility.yul\":2488:2510   */\n      add\n        /* \"#utility.yul\":2467:2520   */\n      tag_416\n      jump\t// in\n    tag_510:\n        /* \"#utility.yul\":2457:2520   */\n      swap6\n      pop\n        /* \"#utility.yul\":2413:2530   */\n      pop\n        /* \"#utility.yul\":2569:2571   */\n      0x20\n        /* \"#utility.yul\":2595:2648   */\n      tag_511\n        /* \"#utility.yul\":2640:2647   */\n      dup9\n        /* \"#utility.yul\":2631:2637   */\n      dup3\n        /* \"#utility.yul\":2620:2629   */\n      dup10\n        /* \"#utility.yul\":2616:2638   */\n      add\n        /* \"#utility.yul\":2595:2648   */\n      tag_416\n      jump\t// in\n    tag_511:\n        /* \"#utility.yul\":2585:2648   */\n      swap5\n      pop\n        /* \"#utility.yul\":2540:2658   */\n      pop\n        /* \"#utility.yul\":2697:2699   */\n      0x40\n        /* \"#utility.yul\":2723:2776   */\n      tag_512\n        /* \"#utility.yul\":2768:2775   */\n      dup9\n        /* \"#utility.yul\":2759:2765   */\n      dup3\n        /* \"#utility.yul\":2748:2757   */\n      dup10\n        /* \"#utility.yul\":2744:2766   */\n      add\n        /* \"#utility.yul\":2723:2776   */\n      tag_420\n      jump\t// in\n    tag_512:\n        /* \"#utility.yul\":2713:2776   */\n      swap4\n      pop\n        /* \"#utility.yul\":2668:2786   */\n      pop\n        /* \"#utility.yul\":2853:2855   */\n      0x60\n        /* \"#utility.yul\":2842:2851   */\n      dup7\n        /* \"#utility.yul\":2838:2856   */\n      add\n        /* \"#utility.yul\":2825:2857   */\n      calldataload\n        /* \"#utility.yul\":2884:2902   */\n      0xffffffffffffffff\n        /* \"#utility.yul\":2876:2882   */\n      dup2\n        /* \"#utility.yul\":2873:2903   */\n      gt\n        /* \"#utility.yul\":2870:2987   */\n      iszero\n      tag_513\n      jumpi\n        /* \"#utility.yul\":2906:2985   */\n      tag_514\n      tag_413\n      jump\t// in\n    tag_514:\n        /* \"#utility.yul\":2870:2987   */\n    tag_513:\n        /* \"#utility.yul\":3019:3083   */\n      tag_515\n        /* \"#utility.yul\":3075:3082   */\n      dup9\n        /* \"#utility.yul\":3066:3072   */\n      dup3\n        /* \"#utility.yul\":3055:3064   */\n      dup10\n        /* \"#utility.yul\":3051:3073   */\n      add\n        /* \"#utility.yul\":3019:3083   */\n      tag_424\n      jump\t// in\n    tag_515:\n        /* \"#utility.yul\":3001:3083   */\n      swap3\n      pop\n      swap3\n      pop\n        /* \"#utility.yul\":2796:3093   */\n      pop\n        /* \"#utility.yul\":2137:3100   */\n      swap3\n      swap6\n      pop\n      swap3\n      swap6\n      swap1\n      swap4\n      pop\n      jump\t// out\n        /* \"#utility.yul\":3106:3205   */\n    tag_425:\n        /* \"#utility.yul\":3158:3164   */\n      0x00\n        /* \"#utility.yul\":3192:3197   */\n      dup2\n        /* \"#utility.yul\":3186:3198   */\n      mload\n        /* \"#utility.yul\":3176:3198   */\n      swap1\n      pop\n        /* \"#utility.yul\":3106:3205   */\n      swap2\n      swap1\n      pop\n      jump\t// out\n        /* \"#utility.yul\":3211:3380   */\n    tag_426:\n        /* \"#utility.yul\":3295:3306   */\n      0x00\n        /* \"#utility.yul\":3329:3335   */\n      dup3\n        /* \"#utility.yul\":3324:3327   */\n      dup3\n        /* \"#utility.yul\":3317:3336   */\n      mstore\n        /* \"#utility.yul\":3369:3373   */\n      0x20\n        /* \"#utility.yul\":3364:3367   */\n      dup3\n        /* \"#utility.yul\":3360:3374   */\n      add\n        /* \"#utility.yul\":3345:3374   */\n      swap1\n      pop\n        /* \"#utility.yul\":3211:3380   */\n      swap3\n      swap2\n      pop\n      pop\n      jump\t// out\n        /* \"#utility.yul\":3386:3632   */\n    tag_427:\n        /* \"#utility.yul\":3467:3468   */\n      0x00\n        /* \"#utility.yul\":3477:3590   */\n    tag_519:\n        /* \"#utility.yul\":3491:3497   */\n      dup4\n        /* \"#utility.yul\":3488:3489   */\n      dup2\n        /* \"#utility.yul\":3485:3498   */\n      lt\n        /* \"#utility.yul\":3477:3590   */\n      iszero\n      tag_521\n      jumpi\n        /* \"#utility.yul\":3576:3577   */\n      dup1\n        /* \"#utility.yul\":3571:3574   */\n      dup3\n        /* \"#utility.yul\":3567:3578   */\n      add\n        /* \"#utility.yul\":3561:3579   */\n      mload\n        /* \"#utility.yul\":3557:3558   */\n      dup2\n        /* \"#utility.yul\":3552:3555   */\n      dup5\n        /* \"#utility.yul\":3548:3559   */\n      add\n        /* \"#utility.yul\":3541:3580   */\n      mstore\n        /* \"#utility.yul\":3513:3515   */\n      0x20\n        /* \"#utility.yul\":3510:3511   */\n      dup2\n        /* \"#utility.yul\":3506:3516   */\n      add\n        /* \"#utility.yul\":3501:3516   */\n      swap1\n      pop\n        /* \"#utility.yul\":3477:3590   */\n      jump(tag_519)\n    tag_521:\n        /* \"#utility.yul\":3624:3625   */\n      0x00\n        /* \"#utility.yul\":3615:3621   */\n      dup5\n        /* \"#utility.yul\":3610:3613   */\n      dup5\n        /* \"#utility.yul\":3606:3622   */\n      add\n        /* \"#utility.yul\":3599:3626   */\n      mstore\n        /* \"#utility.yul\":3448:3632   */\n      pop\n        /* \"#utility.yul\":3386:3632   */\n      pop\n      pop\n      pop\n      jump\t// out\n        /* \"#utility.yul\":3638:3740   */\n    tag_428:\n        /* \"#utility.yul\":3679:3685   */\n      0x00\n        /* \"#utility.yul\":3730:3732   */\n      0x1f\n        /* \"#utility.yul\":3726:3733   */\n      not\n        /* \"#utility.yul\":3721:3723   */\n      0x1f\n        /* \"#utility.yul\":3714:3719   */\n      dup4\n        /* \"#utility.yul\":3710:3724   */\n      add\n        /* \"#utility.yul\":3706:3734   */\n      and\n        /* \"#utility.yul\":3696:3734   */\n      swap1\n      pop\n        /* \"#utility.yul\":3638:3740   */\n      swap2\n      swap1\n      pop\n      jump\t// out\n        /* \"#utility.yul\":3746:4123   */\n    tag_429:\n        /* \"#utility.yul\":3834:3837   */\n      0x00\n        /* \"#utility.yul\":3862:3901   */\n      tag_524\n        /* \"#utility.yul\":3895:3900   */\n      dup3\n        /* \"#utility.yul\":3862:3901   */\n      tag_425\n      jump\t// in\n    tag_524:\n        /* \"#utility.yul\":3917:3988   */\n      tag_525\n        /* \"#utility.yul\":3981:3987   */\n      dup2\n        /* \"#utility.yul\":3976:3979   */\n      dup6\n        /* \"#utility.yul\":3917:3988   */\n      tag_426\n      jump\t// in\n    tag_525:\n        /* \"#utility.yul\":3910:3988   */\n      swap4\n      pop\n        /* \"#utility.yul\":3997:4062   */\n      tag_526\n        /* \"#utility.yul\":4055:4061   */\n      dup2\n        /* \"#utility.yul\":4050:4053   */\n      dup6\n        /* \"#utility.yul\":4043:4047   */\n      0x20\n        /* \"#utility.yul\":4036:4041   */\n      dup7\n        /* \"#utility.yul\":4032:4048   */\n      add\n        /* \"#utility.yul\":3997:4062   */\n      tag_427\n      jump\t// in\n    tag_526:\n        /* \"#utility.yul\":4087:4116   */\n      tag_527\n        /* \"#utility.yul\":4109:4115   */\n      dup2\n        /* \"#utility.yul\":4087:4116   */\n      tag_428\n      jump\t// in\n    tag_527:\n        /* \"#utility.yul\":4082:4085   */\n      dup5\n        /* \"#utility.yul\":4078:4117   */\n      add\n        /* \"#utility.yul\":4071:4117   */\n      swap2\n      pop\n        /* \"#utility.yul\":3838:4123   */\n      pop\n        /* \"#utility.yul\":3746:4123   */\n      swap3\n      swap2\n      pop\n      pop\n      jump\t// out\n        /* \"#utility.yul\":4129:4442   */\n    tag_37:\n        /* \"#utility.yul\":4242:4246   */\n      0x00\n        /* \"#utility.yul\":4280:4282   */\n      0x20\n        /* \"#utility.yul\":4269:4278   */\n      dup3\n        /* \"#utility.yul\":4265:4283   */\n      add\n        /* \"#utility.yul\":4257:4283   */\n      swap1\n      pop\n        /* \"#utility.yul\":4329:4338   */\n      dup2\n        /* \"#utility.yul\":4323:4327   */\n      dup2\n        /* \"#utility.yul\":4319:4339   */\n      sub\n        /* \"#utility.yul\":4315:4316   */\n      0x00\n        /* \"#utility.yul\":4304:4313   */\n      dup4\n        /* \"#utility.yul\":4300:4317   */\n      add\n        /* \"#utility.yul\":4293:4340   */\n      mstore\n        /* \"#utility.yul\":4357:4435   */\n      tag_529\n        /* \"#utility.yul\":4430:4434   */\n      dup2\n        /* \"#utility.yul\":4421:4427   */\n      dup5\n        /* \"#utility.yul\":4357:4435   */\n      tag_429\n      jump\t// in\n    tag_529:\n        /* \"#utility.yul\":4349:4435   */\n      swap1\n      pop\n        /* \"#utility.yul\":4129:4442   */\n      swap3\n      swap2\n      pop\n      pop\n      jump\t// out\n        /* \"#utility.yul\":4448:4562   */\n    tag_430:\n        /* \"#utility.yul\":4485:4492   */\n      0x00\n        /* \"#utility.yul\":4525:4555   */\n      0xffffffffffffffffffffffffffff\n        /* \"#utility.yul\":4518:4523   */\n      dup3\n        /* \"#utility.yul\":4514:4556   */\n      and\n        /* \"#utility.yul\":4503:4556   */\n      swap1\n      pop\n        /* \"#utility.yul\":4448:4562   */\n      swap2\n      swap1\n      pop\n      jump\t// out\n        /* \"#utility.yul\":4568:4686   */\n    tag_431:\n        /* \"#utility.yul\":4655:4679   */\n      tag_532\n        /* \"#utility.yul\":4673:4678   */\n      dup2\n        /* \"#utility.yul\":4655:4679   */\n      tag_430\n      jump\t// in\n    tag_532:\n        /* \"#utility.yul\":4650:4653   */\n      dup3\n        /* \"#utility.yul\":4643:4680   */\n      mstore\n        /* \"#utility.yul\":4568:4686   */\n      pop\n      pop\n      jump\t// out\n        /* \"#utility.yul\":4692:4785   */\n    tag_432:\n        /* \"#utility.yul\":4728:4735   */\n      0x00\n        /* \"#utility.yul\":4768:4778   */\n      0xffffffff\n        /* \"#utility.yul\":4761:4766   */\n      dup3\n        /* \"#utility.yul\":4757:4779   */\n      and\n        /* \"#utility.yul\":4746:4779   */\n      swap1\n      pop\n        /* \"#utility.yul\":4692:4785   */\n      swap2\n      swap1\n      pop\n      jump\t// out\n        /* \"#utility.yul\":4791:4906   */\n    tag_433:\n        /* \"#utility.yul\":4876:4899   */\n      tag_535\n        /* \"#utility.yul\":4893:4898   */\n      dup2\n        /* \"#utility.yul\":4876:4899   */\n      tag_432\n      jump\t// in\n    tag_535:\n        /* \"#utility.yul\":4871:4874   */\n      dup3\n        /* \"#utility.yul\":4864:4900   */\n      mstore\n        /* \"#utility.yul\":4791:4906   */\n      pop\n      pop\n      jump\t// out\n        /* \"#utility.yul\":4912:5350   */\n    tag_41:\n        /* \"#utility.yul\":5059:5063   */\n      0x00\n        /* \"#utility.yul\":5097:5099   */\n      0x60\n        /* \"#utility.yul\":5086:5095   */\n      dup3\n        /* \"#utility.yul\":5082:5100   */\n      add\n        /* \"#utility.yul\":5074:5100   */\n      swap1\n      pop\n        /* \"#utility.yul\":5110:5181   */\n      tag_537\n        /* \"#utility.yul\":5178:5179   */\n      0x00\n        /* \"#utility.yul\":5167:5176   */\n      dup4\n        /* \"#utility.yul\":5163:5180   */\n      add\n        /* \"#utility.yul\":5154:5160   */\n      dup7\n        /* \"#utility.yul\":5110:5181   */\n      tag_431\n      jump\t// in\n    tag_537:\n        /* \"#utility.yul\":5191:5263   */\n      tag_538\n        /* \"#utility.yul\":5259:5261   */\n      0x20\n        /* \"#utility.yul\":5248:5257   */\n      dup4\n        /* \"#utility.yul\":5244:5262   */\n      add\n        /* \"#utility.yul\":5235:5241   */\n      dup6\n        /* \"#utility.yul\":5191:5263   */\n      tag_431\n      jump\t// in\n    tag_538:\n        /* \"#utility.yul\":5273:5343   */\n      tag_539\n        /* \"#utility.yul\":5339:5341   */\n      0x40\n        /* \"#utility.yul\":5328:5337   */\n      dup4\n        /* \"#utility.yul\":5324:5342   */\n      add\n        /* \"#utility.yul\":5315:5321   */\n      dup5\n        /* \"#utility.yul\":5273:5343   */\n      tag_433\n      jump\t// in\n    tag_539:\n        /* \"#utility.yul\":4912:5350   */\n      swap5\n      swap4\n      pop\n      pop\n      pop\n      pop\n      jump\t// out\n        /* \"#utility.yul\":5356:5830   */\n    tag_44:\n        /* \"#utility.yul\":5424:5430   */\n      0x00\n        /* \"#utility.yul\":5432:5438   */\n      dup1\n        /* \"#utility.yul\":5481:5483   */\n      0x40\n        /* \"#utility.yul\":5469:5478   */\n      dup4\n        /* \"#utility.yul\":5460:5467   */\n      dup6\n        /* \"#utility.yul\":5456:5479   */\n      sub\n        /* \"#utility.yul\":5452:5484   */\n      slt\n        /* \"#utility.yul\":5449:5568   */\n      iszero\n      tag_541\n      jumpi\n        /* \"#utility.yul\":5487:5566   */\n      tag_542\n      tag_412\n      jump\t// in\n    tag_542:\n        /* \"#utility.yul\":5449:5568   */\n    tag_541:\n        /* \"#utility.yul\":5607:5608   */\n      0x00\n        /* \"#utility.yul\":5632:5685   */\n      tag_543\n        /* \"#utility.yul\":5677:5684   */\n      dup6\n        /* \"#utility.yul\":5668:5674   */\n      dup3\n        /* \"#utility.yul\":5657:5666   */\n      dup7\n        /* \"#utility.yul\":5653:5675   */\n      add\n        /* \"#utility.yul\":5632:5685   */\n      tag_420\n      jump\t// in\n    tag_543:\n        /* \"#utility.yul\":5622:5685   */\n      swap3\n      pop\n        /* \"#utility.yul\":5578:5695   */\n      pop\n        /* \"#utility.yul\":5734:5736   */\n      0x20\n        /* \"#utility.yul\":5760:5813   */\n      tag_544\n        /* \"#utility.yul\":5805:5812   */\n      dup6\n        /* \"#utility.yul\":5796:5802   */\n      dup3\n        /* \"#utility.yul\":5785:5794   */\n      dup7\n        /* \"#utility.yul\":5781:5803   */\n      add\n        /* \"#utility.yul\":5760:5813   */\n      tag_416\n      jump\t// in\n    tag_544:\n        /* \"#utility.yul\":5750:5813   */\n      swap2\n      pop\n        /* \"#utility.yul\":5705:5823   */\n      pop\n        /* \"#utility.yul\":5356:5830   */\n      swap3\n      pop\n      swap3\n      swap1\n      pop\n      jump\t// out\n        /* \"#utility.yul\":5836:5926   */\n    tag_434:\n        /* \"#utility.yul\":5870:5877   */\n      0x00\n        /* \"#utility.yul\":5913:5918   */\n      dup2\n        /* \"#utility.yul\":5906:5919   */\n      iszero\n        /* \"#utility.yul\":5899:5920   */\n      iszero\n        /* \"#utility.yul\":5888:5920   */\n      swap1\n      pop\n        /* \"#utility.yul\":5836:5926   */\n      swap2\n      swap1\n      pop\n      jump\t// out\n        /* \"#utility.yul\":5932:6041   */\n    tag_435:\n        /* \"#utility.yul\":6013:6034   */\n      tag_547\n        /* \"#utility.yul\":6028:6033   */\n      dup2\n        /* \"#utility.yul\":6013:6034   */\n      tag_434\n      jump\t// in\n    tag_547:\n        /* \"#utility.yul\":6008:6011   */\n      dup3\n        /* \"#utility.yul\":6001:6035   */\n      mstore\n        /* \"#utility.yul\":5932:6041   */\n      pop\n      pop\n      jump\t// out\n        /* \"#utility.yul\":6047:6257   */\n    tag_47:\n        /* \"#utility.yul\":6134:6138   */\n      0x00\n        /* \"#utility.yul\":6172:6174   */\n      0x20\n        /* \"#utility.yul\":6161:6170   */\n      dup3\n        /* \"#utility.yul\":6157:6175   */\n      add\n        /* \"#utility.yul\":6149:6175   */\n      swap1\n      pop\n        /* \"#utility.yul\":6185:6250   */\n      tag_549\n        /* \"#utility.yul\":6247:6248   */\n      0x00\n        /* \"#utility.yul\":6236:6245   */\n      dup4\n        /* \"#utility.yul\":6232:6249   */\n      add\n        /* \"#utility.yul\":6223:6229   */\n      dup5\n        /* \"#utility.yul\":6185:6250   */\n      tag_435\n      jump\t// in\n    tag_549:\n        /* \"#utility.yul\":6047:6257   */\n      swap3\n      swap2\n      pop\n      pop\n      jump\t// out\n        /* \"#utility.yul\":6263:6381   */\n    tag_436:\n        /* \"#utility.yul\":6350:6374   */\n      tag_551\n        /* \"#utility.yul\":6368:6373   */\n      dup2\n        /* \"#utility.yul\":6350:6374   */\n      tag_418\n      jump\t// in\n    tag_551:\n        /* \"#utility.yul\":6345:6348   */\n      dup3\n        /* \"#utility.yul\":6338:6375   */\n      mstore\n        /* \"#utility.yul\":6263:6381   */\n      pop\n      pop\n      jump\t// out\n        /* \"#utility.yul\":6387:6609   */\n    tag_51:\n        /* \"#utility.yul\":6480:6484   */\n      0x00\n        /* \"#utility.yul\":6518:6520   */\n      0x20\n        /* \"#utility.yul\":6507:6516   */\n      dup3\n        /* \"#utility.yul\":6503:6521   */\n      add\n        /* \"#utility.yul\":6495:6521   */\n      swap1\n      pop\n        /* \"#utility.yul\":6531:6602   */\n      tag_553\n        /* \"#utility.yul\":6599:6600   */\n      0x00\n        /* \"#utility.yul\":6588:6597   */\n      dup4\n        /* \"#utility.yul\":6584:6601   */\n      add\n        /* \"#utility.yul\":6575:6581   */\n      dup5\n        /* \"#utility.yul\":6531:6602   */\n      tag_436\n      jump\t// in\n    tag_553:\n        /* \"#utility.yul\":6387:6609   */\n      swap3\n      swap2\n      pop\n      pop\n      jump\t// out\n        /* \"#utility.yul\":6615:6733   */\n    tag_437:\n        /* \"#utility.yul\":6702:6726   */\n      tag_555\n        /* \"#utility.yul\":6720:6725   */\n      dup2\n        /* \"#utility.yul\":6702:6726   */\n      tag_414\n      jump\t// in\n    tag_555:\n        /* \"#utility.yul\":6697:6700   */\n      dup3\n        /* \"#utility.yul\":6690:6727   */\n      mstore\n        /* \"#utility.yul\":6615:6733   */\n      pop\n      pop\n      jump\t// out\n        /* \"#utility.yul\":6739:6961   */\n    tag_55:\n        /* \"#utility.yul\":6832:6836   */\n      0x00\n        /* \"#utility.yul\":6870:6872   */\n      0x20\n        /* \"#utility.yul\":6859:6868   */\n      dup3\n        /* \"#utility.yul\":6855:6873   */\n      add\n        /* \"#utility.yul\":6847:6873   */\n      swap1\n      pop\n        /* \"#utility.yul\":6883:6954   */\n      tag_557\n        /* \"#utility.yul\":6951:6952   */\n      0x00\n        /* \"#utility.yul\":6940:6949   */\n      dup4\n        /* \"#utility.yul\":6936:6953   */\n      add\n        /* \"#utility.yul\":6927:6933   */\n      dup5\n        /* \"#utility.yul\":6883:6954   */\n      tag_437\n      jump\t// in\n    tag_557:\n        /* \"#utility.yul\":6739:6961   */\n      swap3\n      swap2\n      pop\n      pop\n      jump\t// out\n        /* \"#utility.yul\":6967:7586   */\n    tag_58:\n        /* \"#utility.yul\":7044:7050   */\n      0x00\n        /* \"#utility.yul\":7052:7058   */\n      dup1\n        /* \"#utility.yul\":7060:7066   */\n      0x00\n        /* \"#utility.yul\":7109:7111   */\n      0x60\n        /* \"#utility.yul\":7097:7106   */\n      dup5\n        /* \"#utility.yul\":7088:7095   */\n      dup7\n        /* \"#utility.yul\":7084:7107   */\n      sub\n        /* \"#utility.yul\":7080:7112   */\n      slt\n        /* \"#utility.yul\":7077:7196   */\n      iszero\n      tag_559\n      jumpi\n        /* \"#utility.yul\":7115:7194   */\n      tag_560\n      tag_412\n      jump\t// in\n    tag_560:\n        /* \"#utility.yul\":7077:7196   */\n    tag_559:\n        /* \"#utility.yul\":7235:7236   */\n      0x00\n        /* \"#utility.yul\":7260:7313   */\n      tag_561\n        /* \"#utility.yul\":7305:7312   */\n      dup7\n        /* \"#utility.yul\":7296:7302   */\n      dup3\n        /* \"#utility.yul\":7285:7294   */\n      dup8\n        /* \"#utility.yul\":7281:7303   */\n      add\n        /* \"#utility.yul\":7260:7313   */\n      tag_420\n      jump\t// in\n    tag_561:\n        /* \"#utility.yul\":7250:7313   */\n      swap4\n      pop\n        /* \"#utility.yul\":7206:7323   */\n      pop\n        /* \"#utility.yul\":7362:7364   */\n      0x20\n        /* \"#utility.yul\":7388:7441   */\n      tag_562\n        /* \"#utility.yul\":7433:7440   */\n      dup7\n        /* \"#utility.yul\":7424:7430   */\n      dup3\n        /* \"#utility.yul\":7413:7422   */\n      dup8\n        /* \"#utility.yul\":7409:7431   */\n      add\n        /* \"#utility.yul\":7388:7441   */\n      tag_420\n      jump\t// in\n    tag_562:\n        /* \"#utility.yul\":7378:7441   */\n      swap3\n      pop\n        /* \"#utility.yul\":7333:7451   */\n      pop\n        /* \"#utility.yul\":7490:7492   */\n      0x40\n        /* \"#utility.yul\":7516:7569   */\n      tag_563\n        /* \"#utility.yul\":7561:7568   */\n      dup7\n        /* \"#utility.yul\":7552:7558   */\n      dup3\n        /* \"#utility.yul\":7541:7550   */\n      dup8\n        /* \"#utility.yul\":7537:7559   */\n      add\n        /* \"#utility.yul\":7516:7569   */\n      tag_416\n      jump\t// in\n    tag_563:\n        /* \"#utility.yul\":7506:7569   */\n      swap2\n      pop\n        /* \"#utility.yul\":7461:7579   */\n      pop\n        /* \"#utility.yul\":6967:7586   */\n      swap3\n      pop\n      swap3\n      pop\n      swap3\n      jump\t// out\n        /* \"#utility.yul\":7592:7678   */\n    tag_438:\n        /* \"#utility.yul\":7627:7634   */\n      0x00\n        /* \"#utility.yul\":7667:7671   */\n      0xff\n        /* \"#utility.yul\":7660:7665   */\n      dup3\n        /* \"#utility.yul\":7656:7672   */\n      and\n        /* \"#utility.yul\":7645:7672   */\n      swap1\n      pop\n        /* \"#utility.yul\":7592:7678   */\n      swap2\n      swap1\n      pop\n      jump\t// out\n        /* \"#utility.yul\":7684:7796   */\n    tag_439:\n        /* \"#utility.yul\":7767:7789   */\n      tag_566\n        /* \"#utility.yul\":7783:7788   */\n      dup2\n        /* \"#utility.yul\":7767:7789   */\n      tag_438\n      jump\t// in\n    tag_566:\n        /* \"#utility.yul\":7762:7765   */\n      dup3\n        /* \"#utility.yul\":7755:7790   */\n      mstore\n        /* \"#utility.yul\":7684:7796   */\n      pop\n      pop\n      jump\t// out\n        /* \"#utility.yul\":7802:8016   */\n    tag_64:\n        /* \"#utility.yul\":7891:7895   */\n      0x00\n        /* \"#utility.yul\":7929:7931   */\n      0x20\n        /* \"#utility.yul\":7918:7927   */\n      dup3\n        /* \"#utility.yul\":7914:7932   */\n      add\n        /* \"#utility.yul\":7906:7932   */\n      swap1\n      pop\n        /* \"#utility.yul\":7942:8009   */\n      tag_568\n        /* \"#utility.yul\":8006:8007   */\n      0x00\n        /* \"#utility.yul\":7995:8004   */\n      dup4\n        /* \"#utility.yul\":7991:8008   */\n      add\n        /* \"#utility.yul\":7982:7988   */\n      dup5\n        /* \"#utility.yul\":7942:8009   */\n      tag_439\n      jump\t// in\n    tag_568:\n        /* \"#utility.yul\":7802:8016   */\n      swap3\n      swap2\n      pop\n      pop\n      jump\t// out\n        /* \"#utility.yul\":8022:8496   */\n    tag_67:\n        /* \"#utility.yul\":8090:8096   */\n      0x00\n        /* \"#utility.yul\":8098:8104   */\n      dup1\n        /* \"#utility.yul\":8147:8149   */\n      0x40\n        /* \"#utility.yul\":8135:8144   */\n      dup4\n        /* \"#utility.yul\":8126:8133   */\n      dup6\n        /* \"#utility.yul\":8122:8145   */\n      sub\n        /* \"#utility.yul\":8118:8150   */\n      slt\n        /* \"#utility.yul\":8115:8234   */\n      iszero\n      tag_570\n      jumpi\n        /* \"#utility.yul\":8153:8232   */\n      tag_571\n      tag_412\n      jump\t// in\n    tag_571:\n        /* \"#utility.yul\":8115:8234   */\n    tag_570:\n        /* \"#utility.yul\":8273:8274   */\n      0x00\n        /* \"#utility.yul\":8298:8351   */\n      tag_572\n        /* \"#utility.yul\":8343:8350   */\n      dup6\n        /* \"#utility.yul\":8334:8340   */\n      dup3\n        /* \"#utility.yul\":8323:8332   */\n      dup7\n        /* \"#utility.yul\":8319:8341   */\n      add\n        /* \"#utility.yul\":8298:8351   */\n      tag_420\n      jump\t// in\n    tag_572:\n        /* \"#utility.yul\":8288:8351   */\n      swap3\n      pop\n        /* \"#utility.yul\":8244:8361   */\n      pop\n        /* \"#utility.yul\":8400:8402   */\n      0x20\n        /* \"#utility.yul\":8426:8479   */\n      tag_573\n        /* \"#utility.yul\":8471:8478   */\n      dup6\n        /* \"#utility.yul\":8462:8468   */\n      dup3\n        /* \"#utility.yul\":8451:8460   */\n      dup7\n        /* \"#utility.yul\":8447:8469   */\n      add\n        /* \"#utility.yul\":8426:8479   */\n      tag_420\n      jump\t// in\n    tag_573:\n        /* \"#utility.yul\":8416:8479   */\n      swap2\n      pop\n        /* \"#utility.yul\":8371:8489   */\n      pop\n        /* \"#utility.yul\":8022:8496   */\n      swap3\n      pop\n      swap3\n      swap1\n      pop\n      jump\t// out\n        /* \"#utility.yul\":8502:8831   */\n    tag_77:\n        /* \"#utility.yul\":8561:8567   */\n      0x00\n        /* \"#utility.yul\":8610:8612   */\n      0x20\n        /* \"#utility.yul\":8598:8607   */\n      dup3\n        /* \"#utility.yul\":8589:8596   */\n      dup5\n        /* \"#utility.yul\":8585:8608   */\n      sub\n        /* \"#utility.yul\":8581:8613   */\n      slt\n        /* \"#utility.yul\":8578:8697   */\n      iszero\n      tag_575\n      jumpi\n        /* \"#utility.yul\":8616:8695   */\n      tag_576\n      tag_412\n      jump\t// in\n    tag_576:\n        /* \"#utility.yul\":8578:8697   */\n    tag_575:\n        /* \"#utility.yul\":8736:8737   */\n      0x00\n        /* \"#utility.yul\":8761:8814   */\n      tag_577\n        /* \"#utility.yul\":8806:8813   */\n      dup5\n        /* \"#utility.yul\":8797:8803   */\n      dup3\n        /* \"#utility.yul\":8786:8795   */\n      dup6\n        /* \"#utility.yul\":8782:8804   */\n      add\n        /* \"#utility.yul\":8761:8814   */\n      tag_420\n      jump\t// in\n    tag_577:\n        /* \"#utility.yul\":8751:8814   */\n      swap2\n      pop\n        /* \"#utility.yul\":8707:8824   */\n      pop\n        /* \"#utility.yul\":8502:8831   */\n      swap3\n      swap2\n      pop\n      pop\n      jump\t// out\n        /* \"#utility.yul\":8837:9169   */\n    tag_95:\n        /* \"#utility.yul\":8958:8962   */\n      0x00\n        /* \"#utility.yul\":8996:8998   */\n      0x40\n        /* \"#utility.yul\":8985:8994   */\n      dup3\n        /* \"#utility.yul\":8981:8999   */\n      add\n        /* \"#utility.yul\":8973:8999   */\n      swap1\n      pop\n        /* \"#utility.yul\":9009:9080   */\n      tag_579\n        /* \"#utility.yul\":9077:9078   */\n      0x00\n        /* \"#utility.yul\":9066:9075   */\n      dup4\n        /* \"#utility.yul\":9062:9079   */\n      add\n        /* \"#utility.yul\":9053:9059   */\n      dup6\n        /* \"#utility.yul\":9009:9080   */\n      tag_437\n      jump\t// in\n    tag_579:\n        /* \"#utility.yul\":9090:9162   */\n      tag_580\n        /* \"#utility.yul\":9158:9160   */\n      0x20\n        /* \"#utility.yul\":9147:9156   */\n      dup4\n        /* \"#utility.yul\":9143:9161   */\n      add\n        /* \"#utility.yul\":9134:9140   */\n      dup5\n        /* \"#utility.yul\":9090:9162   */\n      tag_437\n      jump\t// in\n    tag_580:\n        /* \"#utility.yul\":8837:9169   */\n      swap4\n      swap3\n      pop\n      pop\n      pop\n      jump\t// out\n        /* \"#utility.yul\":9175:9399   */\n    tag_440:\n        /* \"#utility.yul\":9315:9349   */\n      0x556e697377617056323a20494e53554646494349454e545f4f55545055545f41\n        /* \"#utility.yul\":9311:9312   */\n      0x00\n        /* \"#utility.yul\":9303:9309   */\n      dup3\n        /* \"#utility.yul\":9299:9313   */\n      add\n        /* \"#utility.yul\":9292:9350   */\n      mstore\n        /* \"#utility.yul\":9384:9391   */\n      0x4d4f554e54000000000000000000000000000000000000000000000000000000\n        /* \"#utility.yul\":9379:9381   */\n      0x20\n        /* \"#utility.yul\":9371:9377   */\n      dup3\n        /* \"#utility.yul\":9367:9382   */\n      add\n        /* \"#utility.yul\":9360:9392   */\n      mstore\n        /* \"#utility.yul\":9175:9399   */\n      pop\n      jump\t// out\n        /* \"#utility.yul\":9405:9771   */\n    tag_441:\n        /* \"#utility.yul\":9547:9550   */\n      0x00\n        /* \"#utility.yul\":9568:9635   */\n      tag_583\n        /* \"#utility.yul\":9632:9634   */\n      0x25\n        /* \"#utility.yul\":9627:9630   */\n      dup4\n        /* \"#utility.yul\":9568:9635   */\n      tag_426\n      jump\t// in\n    tag_583:\n        /* \"#utility.yul\":9561:9635   */\n      swap2\n      pop\n        /* \"#utility.yul\":9644:9737   */\n      tag_584\n        /* \"#utility.yul\":9733:9736   */\n      dup3\n        /* \"#utility.yul\":9644:9737   */\n      tag_440\n      jump\t// in\n    tag_584:\n        /* \"#utility.yul\":9762:9764   */\n      0x40\n        /* \"#utility.yul\":9757:9760   */\n      dup3\n        /* \"#utility.yul\":9753:9765   */\n      add\n        /* \"#utility.yul\":9746:9765   */\n      swap1\n      pop\n        /* \"#utility.yul\":9405:9771   */\n      swap2\n      swap1\n      pop\n      jump\t// out\n        /* \"#utility.yul\":9777:10196   */\n    tag_125:\n        /* \"#utility.yul\":9943:9947   */\n      0x00\n        /* \"#utility.yul\":9981:9983   */\n      0x20\n        /* \"#utility.yul\":9970:9979   */\n      dup3\n        /* \"#utility.yul\":9966:9984   */\n      add\n        /* \"#utility.yul\":9958:9984   */\n      swap1\n      pop\n        /* \"#utility.yul\":10030:10039   */\n      dup2\n        /* \"#utility.yul\":10024:10028   */\n      dup2\n        /* \"#utility.yul\":10020:10040   */\n      sub\n        /* \"#utility.yul\":10016:10017   */\n      0x00\n        /* \"#utility.yul\":10005:10014   */\n      dup4\n        /* \"#utility.yul\":10001:10018   */\n      add\n        /* \"#utility.yul\":9994:10041   */\n      mstore\n        /* \"#utility.yul\":10058:10189   */\n      tag_586\n        /* \"#utility.yul\":10184:10188   */\n      dup2\n        /* \"#utility.yul\":10058:10189   */\n      tag_441\n      jump\t// in\n    tag_586:\n        /* \"#utility.yul\":10050:10189   */\n      swap1\n      pop\n        /* \"#utility.yul\":9777:10196   */\n      swap2\n      swap1\n      pop\n      jump\t// out\n        /* \"#utility.yul\":10202:10422   */\n    tag_442:\n        /* \"#utility.yul\":10342:10376   */\n      0x556e697377617056323a20494e53554646494349454e545f4c49515549444954\n        /* \"#utility.yul\":10338:10339   */\n      0x00\n        /* \"#utility.yul\":10330:10336   */\n      dup3\n        /* \"#utility.yul\":10326:10340   */\n      add\n        /* \"#utility.yul\":10319:10377   */\n      mstore\n        /* \"#utility.yul\":10411:10414   */\n      0x5900000000000000000000000000000000000000000000000000000000000000\n        /* \"#utility.yul\":10406:10408   */\n      0x20\n        /* \"#utility.yul\":10398:10404   */\n      dup3\n        /* \"#utility.yul\":10394:10409   */\n      add\n        /* \"#utility.yul\":10387:10415   */\n      mstore\n        /* \"#utility.yul\":10202:10422   */\n      pop\n      jump\t// out\n        /* \"#utility.yul\":10428:10794   */\n    tag_443:\n        /* \"#utility.yul\":10570:10573   */\n      0x00\n        /* \"#utility.yul\":10591:10658   */\n      tag_589\n        /* \"#utility.yul\":10655:10657   */\n      0x21\n        /* \"#utility.yul\":10650:10653   */\n      dup4\n        /* \"#utility.yul\":10591:10658   */\n      tag_426\n      jump\t// in\n    tag_589:\n        /* \"#utility.yul\":10584:10658   */\n      swap2\n      pop\n        /* \"#utility.yul\":10667:10760   */\n      tag_590\n        /* \"#utility.yul\":10756:10759   */\n      dup3\n        /* \"#utility.yul\":10667:10760   */\n      tag_442\n      jump\t// in\n    tag_590:\n        /* \"#utility.yul\":10785:10787   */\n      0x40\n        /* \"#utility.yul\":10780:10783   */\n      dup3\n        /* \"#utility.yul\":10776:10788   */\n      add\n        /* \"#utility.yul\":10769:10788   */\n      swap1\n      pop\n        /* \"#utility.yul\":10428:10794   */\n      swap2\n      swap1\n      pop\n      jump\t// out\n        /* \"#utility.yul\":10800:11219   */\n    tag_130:\n        /* \"#utility.yul\":10966:10970   */\n      0x00\n        /* \"#utility.yul\":11004:11006   */\n      0x20\n        /* \"#utility.yul\":10993:11002   */\n      dup3\n        /* \"#utility.yul\":10989:11007   */\n      add\n        /* \"#utility.yul\":10981:11007   */\n      swap1\n      pop\n        /* \"#utility.yul\":11053:11062   */\n      dup2\n        /* \"#utility.yul\":11047:11051   */\n      dup2\n        /* \"#utility.yul\":11043:11063   */\n      sub\n        /* \"#utility.yul\":11039:11040   */\n      0x00\n        /* \"#utility.yul\":11028:11037   */\n      dup4\n        /* \"#utility.yul\":11024:11041   */\n      add\n        /* \"#utility.yul\":11017:11064   */\n      mstore\n        /* \"#utility.yul\":11081:11212   */\n      tag_592\n        /* \"#utility.yul\":11207:11211   */\n      dup2\n        /* \"#utility.yul\":11081:11212   */\n      tag_443\n      jump\t// in\n    tag_592:\n        /* \"#utility.yul\":11073:11212   */\n      swap1\n      pop\n        /* \"#utility.yul\":10800:11219   */\n      swap2\n      swap1\n      pop\n      jump\t// out\n        /* \"#utility.yul\":11225:11396   */\n    tag_444:\n        /* \"#utility.yul\":11365:11388   */\n      0x556e697377617056323a20494e56414c49445f544f0000000000000000000000\n        /* \"#utility.yul\":11361:11362   */\n      0x00\n        /* \"#utility.yul\":11353:11359   */\n      dup3\n        /* \"#utility.yul\":11349:11363   */\n      add\n        /* \"#utility.yul\":11342:11389   */\n      mstore\n        /* \"#utility.yul\":11225:11396   */\n      pop\n      jump\t// out\n        /* \"#utility.yul\":11402:11768   */\n    tag_445:\n        /* \"#utility.yul\":11544:11547   */\n      0x00\n        /* \"#utility.yul\":11565:11632   */\n      tag_595\n        /* \"#utility.yul\":11629:11631   */\n      0x15\n        /* \"#utility.yul\":11624:11627   */\n      dup4\n        /* \"#utility.yul\":11565:11632   */\n      tag_426\n      jump\t// in\n    tag_595:\n        /* \"#utility.yul\":11558:11632   */\n      swap2\n      pop\n        /* \"#utility.yul\":11641:11734   */\n      tag_596\n        /* \"#utility.yul\":11730:11733   */\n      dup3\n        /* \"#utility.yul\":11641:11734   */\n      tag_444\n      jump\t// in\n    tag_596:\n        /* \"#utility.yul\":11759:11761   */\n      0x20\n        /* \"#utility.yul\":11754:11757   */\n      dup3\n        /* \"#utility.yul\":11750:11762   */\n      add\n        /* \"#utility.yul\":11743:11762   */\n      swap1\n      pop\n        /* \"#utility.yul\":11402:11768   */\n      swap2\n      swap1\n      pop\n      jump\t// out\n        /* \"#utility.yul\":11774:12193   */\n    tag_134:\n        /* \"#utility.yul\":11940:11944   */\n      0x00\n        /* \"#utility.yul\":11978:11980   */\n      0x20\n        /* \"#utility.yul\":11967:11976   */\n      dup3\n        /* \"#utility.yul\":11963:11981   */\n      add\n        /* \"#utility.yul\":11955:11981   */\n      swap1\n      pop\n        /* \"#utility.yul\":12027:12036   */\n      dup2\n        /* \"#utility.yul\":12021:12025   */\n      dup2\n        /* \"#utility.yul\":12017:12037   */\n      sub\n        /* \"#utility.yul\":12013:12014   */\n      0x00\n        /* \"#utility.yul\":12002:12011   */\n      dup4\n        /* \"#utility.yul\":11998:12015   */\n      add\n        /* \"#utility.yul\":11991:12038   */\n      mstore\n        /* \"#utility.yul\":12055:12186   */\n      tag_598\n        /* \"#utility.yul\":12181:12185   */\n      dup2\n        /* \"#utility.yul\":12055:12186   */\n      tag_445\n      jump\t// in\n    tag_598:\n        /* \"#utility.yul\":12047:12186   */\n      swap1\n      pop\n        /* \"#utility.yul\":11774:12193   */\n      swap2\n      swap1\n      pop\n      jump\t// out\n        /* \"#utility.yul\":12199:12367   */\n    tag_446:\n        /* \"#utility.yul\":12282:12293   */\n      0x00\n        /* \"#utility.yul\":12316:12322   */\n      dup3\n        /* \"#utility.yul\":12311:12314   */\n      dup3\n        /* \"#utility.yul\":12304:12323   */\n      mstore\n        /* \"#utility.yul\":12356:12360   */\n      0x20\n        /* \"#utility.yul\":12351:12354   */\n      dup3\n        /* \"#utility.yul\":12347:12361   */\n      add\n        /* \"#utility.yul\":12332:12361   */\n      swap1\n      pop\n        /* \"#utility.yul\":12199:12367   */\n      swap3\n      swap2\n      pop\n      pop\n      jump\t// out\n        /* \"#utility.yul\":12373:12519   */\n    tag_447:\n        /* \"#utility.yul\":12470:12476   */\n      dup3\n        /* \"#utility.yul\":12465:12468   */\n      dup2\n        /* \"#utility.yul\":12460:12463   */\n      dup4\n        /* \"#utility.yul\":12447:12477   */\n      calldatacopy\n        /* \"#utility.yul\":12511:12512   */\n      0x00\n        /* \"#utility.yul\":12502:12508   */\n      dup4\n        /* \"#utility.yul\":12497:12500   */\n      dup4\n        /* \"#utility.yul\":12493:12509   */\n      add\n        /* \"#utility.yul\":12486:12513   */\n      mstore\n        /* \"#utility.yul\":12373:12519   */\n      pop\n      pop\n      pop\n      jump\t// out\n        /* \"#utility.yul\":12547:12861   */\n    tag_448:\n        /* \"#utility.yul\":12643:12646   */\n      0x00\n        /* \"#utility.yul\":12664:12734   */\n      tag_602\n        /* \"#utility.yul\":12727:12733   */\n      dup4\n        /* \"#utility.yul\":12722:12725   */\n      dup6\n        /* \"#utility.yul\":12664:12734   */\n      tag_446\n      jump\t// in\n    tag_602:\n        /* \"#utility.yul\":12657:12734   */\n      swap4\n      pop\n        /* \"#utility.yul\":12744:12800   */\n      tag_603\n        /* \"#utility.yul\":12793:12799   */\n      dup4\n        /* \"#utility.yul\":12788:12791   */\n      dup6\n        /* \"#utility.yul\":12781:12786   */\n      dup5\n        /* \"#utility.yul\":12744:12800   */\n      tag_447\n      jump\t// in\n    tag_603:\n        /* \"#utility.yul\":12825:12854   */\n      tag_604\n        /* \"#utility.yul\":12847:12853   */\n      dup4\n        /* \"#utility.yul\":12825:12854   */\n      tag_428\n      jump\t// in\n    tag_604:\n        /* \"#utility.yul\":12820:12823   */\n      dup5\n        /* \"#utility.yul\":12816:12855   */\n      add\n        /* \"#utility.yul\":12809:12855   */\n      swap1\n      pop\n        /* \"#utility.yul\":12547:12861   */\n      swap4\n      swap3\n      pop\n      pop\n      pop\n      jump\t// out\n        /* \"#utility.yul\":12867:13527   */\n    tag_142:\n        /* \"#utility.yul\":13072:13076   */\n      0x00\n        /* \"#utility.yul\":13110:13113   */\n      0x80\n        /* \"#utility.yul\":13099:13108   */\n      dup3\n        /* \"#utility.yul\":13095:13114   */\n      add\n        /* \"#utility.yul\":13087:13114   */\n      swap1\n      pop\n        /* \"#utility.yul\":13124:13195   */\n      tag_606\n        /* \"#utility.yul\":13192:13193   */\n      0x00\n        /* \"#utility.yul\":13181:13190   */\n      dup4\n        /* \"#utility.yul\":13177:13194   */\n      add\n        /* \"#utility.yul\":13168:13174   */\n      dup9\n        /* \"#utility.yul\":13124:13195   */\n      tag_436\n      jump\t// in\n    tag_606:\n        /* \"#utility.yul\":13205:13277   */\n      tag_607\n        /* \"#utility.yul\":13273:13275   */\n      0x20\n        /* \"#utility.yul\":13262:13271   */\n      dup4\n        /* \"#utility.yul\":13258:13276   */\n      add\n        /* \"#utility.yul\":13249:13255   */\n      dup8\n        /* \"#utility.yul\":13205:13277   */\n      tag_437\n      jump\t// in\n    tag_607:\n        /* \"#utility.yul\":13287:13359   */\n      tag_608\n        /* \"#utility.yul\":13355:13357   */\n      0x40\n        /* \"#utility.yul\":13344:13353   */\n      dup4\n        /* \"#utility.yul\":13340:13358   */\n      add\n        /* \"#utility.yul\":13331:13337   */\n      dup7\n        /* \"#utility.yul\":13287:13359   */\n      tag_437\n      jump\t// in\n    tag_608:\n        /* \"#utility.yul\":13406:13415   */\n      dup2\n        /* \"#utility.yul\":13400:13404   */\n      dup2\n        /* \"#utility.yul\":13396:13416   */\n      sub\n        /* \"#utility.yul\":13391:13393   */\n      0x60\n        /* \"#utility.yul\":13380:13389   */\n      dup4\n        /* \"#utility.yul\":13376:13394   */\n      add\n        /* \"#utility.yul\":13369:13417   */\n      mstore\n        /* \"#utility.yul\":13434:13520   */\n      tag_609\n        /* \"#utility.yul\":13515:13519   */\n      dup2\n        /* \"#utility.yul\":13506:13512   */\n      dup5\n        /* \"#utility.yul\":13498:13504   */\n      dup7\n        /* \"#utility.yul\":13434:13520   */\n      tag_448\n      jump\t// in\n    tag_609:\n        /* \"#utility.yul\":13426:13520   */\n      swap1\n      pop\n        /* \"#utility.yul\":12867:13527   */\n      swap7\n      swap6\n      pop\n      pop\n      pop\n      pop\n      pop\n      pop\n      jump\t// out\n        /* \"#utility.yul\":13533:13676   */\n    tag_449:\n        /* \"#utility.yul\":13590:13595   */\n      0x00\n        /* \"#utility.yul\":13621:13627   */\n      dup2\n        /* \"#utility.yul\":13615:13628   */\n      mload\n        /* \"#utility.yul\":13606:13628   */\n      swap1\n      pop\n        /* \"#utility.yul\":13637:13670   */\n      tag_611\n        /* \"#utility.yul\":13664:13669   */\n      dup2\n        /* \"#utility.yul\":13637:13670   */\n      tag_415\n      jump\t// in\n    tag_611:\n        /* \"#utility.yul\":13533:13676   */\n      swap3\n      swap2\n      pop\n      pop\n      jump\t// out\n        /* \"#utility.yul\":13682:14033   */\n    tag_150:\n        /* \"#utility.yul\":13752:13758   */\n      0x00\n        /* \"#utility.yul\":13801:13803   */\n      0x20\n        /* \"#utility.yul\":13789:13798   */\n      dup3\n        /* \"#utility.yul\":13780:13787   */\n      dup5\n        /* \"#utility.yul\":13776:13799   */\n      sub\n        /* \"#utility.yul\":13772:13804   */\n      slt\n        /* \"#utility.yul\":13769:13888   */\n      iszero\n      tag_613\n      jumpi\n        /* \"#utility.yul\":13807:13886   */\n      tag_614\n      tag_412\n      jump\t// in\n    tag_614:\n        /* \"#utility.yul\":13769:13888   */\n    tag_613:\n        /* \"#utility.yul\":13927:13928   */\n      0x00\n        /* \"#utility.yul\":13952:14016   */\n      tag_615\n        /* \"#utility.yul\":14008:14015   */\n      dup5\n        /* \"#utility.yul\":13999:14005   */\n      dup3\n        /* \"#utility.yul\":13988:13997   */\n      dup6\n        /* \"#utility.yul\":13984:14006   */\n      add\n        /* \"#utility.yul\":13952:14016   */\n      tag_449\n      jump\t// in\n    tag_615:\n        /* \"#utility.yul\":13942:14016   */\n      swap2\n      pop\n        /* \"#utility.yul\":13898:14026   */\n      pop\n        /* \"#utility.yul\":13682:14033   */\n      swap3\n      swap2\n      pop\n      pop\n      jump\t// out\n        /* \"#utility.yul\":14039:14219   */\n    tag_450:\n        /* \"#utility.yul\":14087:14164   */\n      0x4e487b7100000000000000000000000000000000000000000000000000000000\n        /* \"#utility.yul\":14084:14085   */\n      0x00\n        /* \"#utility.yul\":14077:14165   */\n      mstore\n        /* \"#utility.yul\":14184:14188   */\n      0x11\n        /* \"#utility.yul\":14181:14182   */\n      0x04\n        /* \"#utility.yul\":14174:14189   */\n      mstore\n        /* \"#utility.yul\":14208:14212   */\n      0x24\n        /* \"#utility.yul\":14205:14206   */\n      0x00\n        /* \"#utility.yul\":14198:14213   */\n      revert\n        /* \"#utility.yul\":14225:14419   */\n    tag_156:\n        /* \"#utility.yul\":14265:14269   */\n      0x00\n        /* \"#utility.yul\":14285:14305   */\n      tag_618\n        /* \"#utility.yul\":14303:14304   */\n      dup3\n        /* \"#utility.yul\":14285:14305   */\n      tag_414\n      jump\t// in\n    tag_618:\n        /* \"#utility.yul\":14280:14305   */\n      swap2\n      pop\n        /* \"#utility.yul\":14319:14339   */\n      tag_619\n        /* \"#utility.yul\":14337:14338   */\n      dup4\n        /* \"#utility.yul\":14319:14339   */\n      tag_414\n      jump\t// in\n    tag_619:\n        /* \"#utility.yul\":14314:14339   */\n      swap3\n      pop\n        /* \"#utility.yul\":14363:14364   */\n      dup3\n        /* \"#utility.yul\":14360:14361   */\n      dup3\n        /* \"#utility.yul\":14356:14365   */\n      sub\n        /* \"#utility.yul\":14348:14365   */\n      swap1\n      pop\n        /* \"#utility.yul\":14387:14388   */\n      dup2\n        /* \"#utility.yul\":14381:14385   */\n      dup2\n        /* \"#utility.yul\":14378:14389   */\n      gt\n        /* \"#utility.yul\":14375:14412   */\n      iszero\n      tag_620\n      jumpi\n        /* \"#utility.yul\":14392:14410   */\n      tag_621\n      tag_450\n      jump\t// in\n    tag_621:\n        /* \"#utility.yul\":14375:14412   */\n    tag_620:\n        /* \"#utility.yul\":14225:14419   */\n      swap3\n      swap2\n      pop\n      pop\n      jump\t// out\n        /* \"#utility.yul\":14425:14648   */\n    tag_451:\n        /* \"#utility.yul\":14565:14599   */\n      0x556e697377617056323a20494e53554646494349454e545f494e5055545f414d\n        /* \"#utility.yul\":14561:14562   */\n      0x00\n        /* \"#utility.yul\":14553:14559   */\n      dup3\n        /* \"#utility.yul\":14549:14563   */\n      add\n        /* \"#utility.yul\":14542:14600   */\n      mstore\n        /* \"#utility.yul\":14634:14640   */\n      0x4f554e5400000000000000000000000000000000000000000000000000000000\n        /* \"#utility.yul\":14629:14631   */\n      0x20\n        /* \"#utility.yul\":14621:14627   */\n      dup3\n        /* \"#utility.yul\":14617:14632   */\n      add\n        /* \"#utility.yul\":14610:14641   */\n      mstore\n        /* \"#utility.yul\":14425:14648   */\n      pop\n      jump\t// out\n        /* \"#utility.yul\":14654:15020   */\n    tag_452:\n        /* \"#utility.yul\":14796:14799   */\n      0x00\n        /* \"#utility.yul\":14817:14884   */\n      tag_624\n        /* \"#utility.yul\":14881:14883   */\n      0x24\n        /* \"#utility.yul\":14876:14879   */\n      dup4\n        /* \"#utility.yul\":14817:14884   */\n      tag_426\n      jump\t// in\n    tag_624:\n        /* \"#utility.yul\":14810:14884   */\n      swap2\n      pop\n        /* \"#utility.yul\":14893:14986   */\n      tag_625\n        /* \"#utility.yul\":14982:14985   */\n      dup3\n        /* \"#utility.yul\":14893:14986   */\n      tag_451\n      jump\t// in\n    tag_625:\n        /* \"#utility.yul\":15011:15013   */\n      0x40\n        /* \"#utility.yul\":15006:15009   */\n      dup3\n        /* \"#utility.yul\":15002:15014   */\n      add\n        /* \"#utility.yul\":14995:15014   */\n      swap1\n      pop\n        /* \"#utility.yul\":14654:15020   */\n      swap2\n      swap1\n      pop\n      jump\t// out\n        /* \"#utility.yul\":15026:15445   */\n    tag_169:\n        /* \"#utility.yul\":15192:15196   */\n      0x00\n        /* \"#utility.yul\":15230:15232   */\n      0x20\n        /* \"#utility.yul\":15219:15228   */\n      dup3\n        /* \"#utility.yul\":15215:15233   */\n      add\n        /* \"#utility.yul\":15207:15233   */\n      swap1\n      pop\n        /* \"#utility.yul\":15279:15288   */\n      dup2\n        /* \"#utility.yul\":15273:15277   */\n      dup2\n        /* \"#utility.yul\":15269:15289   */\n      sub\n        /* \"#utility.yul\":15265:15266   */\n      0x00\n        /* \"#utility.yul\":15254:15263   */\n      dup4\n        /* \"#utility.yul\":15250:15267   */\n      add\n        /* \"#utility.yul\":15243:15290   */\n      mstore\n        /* \"#utility.yul\":15307:15438   */\n      tag_627\n        /* \"#utility.yul\":15433:15437   */\n      dup2\n        /* \"#utility.yul\":15307:15438   */\n      tag_452\n      jump\t// in\n    tag_627:\n        /* \"#utility.yul\":15299:15438   */\n      swap1\n      pop\n        /* \"#utility.yul\":15026:15445   */\n      swap2\n      swap1\n      pop\n      jump\t// out\n        /* \"#utility.yul\":15451:15613   */\n    tag_453:\n        /* \"#utility.yul\":15591:15605   */\n      0x556e697377617056323a204b0000000000000000000000000000000000000000\n        /* \"#utility.yul\":15587:15588   */\n      0x00\n        /* \"#utility.yul\":15579:15585   */\n      dup3\n        /* \"#utility.yul\":15575:15589   */\n      add\n        /* \"#utility.yul\":15568:15606   */\n      mstore\n        /* \"#utility.yul\":15451:15613   */\n      pop\n      jump\t// out\n        /* \"#utility.yul\":15619:15985   */\n    tag_454:\n        /* \"#utility.yul\":15761:15764   */\n      0x00\n        /* \"#utility.yul\":15782:15849   */\n      tag_630\n        /* \"#utility.yul\":15846:15848   */\n      0x0c\n        /* \"#utility.yul\":15841:15844   */\n      dup4\n        /* \"#utility.yul\":15782:15849   */\n      tag_426\n      jump\t// in\n    tag_630:\n        /* \"#utility.yul\":15775:15849   */\n      swap2\n      pop\n        /* \"#utility.yul\":15858:15951   */\n      tag_631\n        /* \"#utility.yul\":15947:15950   */\n      dup3\n        /* \"#utility.yul\":15858:15951   */\n      tag_453\n      jump\t// in\n    tag_631:\n        /* \"#utility.yul\":15976:15978   */\n      0x20\n        /* \"#utility.yul\":15971:15974   */\n      dup3\n        /* \"#utility.yul\":15967:15979   */\n      add\n        /* \"#utility.yul\":15960:15979   */\n      swap1\n      pop\n        /* \"#utility.yul\":15619:15985   */\n      swap2\n      swap1\n      pop\n      jump\t// out\n        /* \"#utility.yul\":15991:16410   */\n    tag_183:\n        /* \"#utility.yul\":16157:16161   */\n      0x00\n        /* \"#utility.yul\":16195:16197   */\n      0x20\n        /* \"#utility.yul\":16184:16193   */\n      dup3\n        /* \"#utility.yul\":16180:16198   */\n      add\n        /* \"#utility.yul\":16172:16198   */\n      swap1\n      pop\n        /* \"#utility.yul\":16244:16253   */\n      dup2\n        /* \"#utility.yul\":16238:16242   */\n      dup2\n        /* \"#utility.yul\":16234:16254   */\n      sub\n        /* \"#utility.yul\":16230:16231   */\n      0x00\n        /* \"#utility.yul\":16219:16228   */\n      dup4\n        /* \"#utility.yul\":16215:16232   */\n      add\n        /* \"#utility.yul\":16208:16255   */\n      mstore\n        /* \"#utility.yul\":16272:16403   */\n      tag_633\n        /* \"#utility.yul\":16398:16402   */\n      dup2\n        /* \"#utility.yul\":16272:16403   */\n      tag_454\n      jump\t// in\n    tag_633:\n        /* \"#utility.yul\":16264:16403   */\n      swap1\n      pop\n        /* \"#utility.yul\":15991:16410   */\n      swap2\n      swap1\n      pop\n      jump\t// out\n        /* \"#utility.yul\":16416:16969   */\n    tag_187:\n        /* \"#utility.yul\":16593:16597   */\n      0x00\n        /* \"#utility.yul\":16631:16634   */\n      0x80\n        /* \"#utility.yul\":16620:16629   */\n      dup3\n        /* \"#utility.yul\":16616:16635   */\n      add\n        /* \"#utility.yul\":16608:16635   */\n      swap1\n      pop\n        /* \"#utility.yul\":16645:16716   */\n      tag_635\n        /* \"#utility.yul\":16713:16714   */\n      0x00\n        /* \"#utility.yul\":16702:16711   */\n      dup4\n        /* \"#utility.yul\":16698:16715   */\n      add\n        /* \"#utility.yul\":16689:16695   */\n      dup8\n        /* \"#utility.yul\":16645:16716   */\n      tag_437\n      jump\t// in\n    tag_635:\n        /* \"#utility.yul\":16726:16798   */\n      tag_636\n        /* \"#utility.yul\":16794:16796   */\n      0x20\n        /* \"#utility.yul\":16783:16792   */\n      dup4\n        /* \"#utility.yul\":16779:16797   */\n      add\n        /* \"#utility.yul\":16770:16776   */\n      dup7\n        /* \"#utility.yul\":16726:16798   */\n      tag_437\n      jump\t// in\n    tag_636:\n        /* \"#utility.yul\":16808:16880   */\n      tag_637\n        /* \"#utility.yul\":16876:16878   */\n      0x40\n        /* \"#utility.yul\":16865:16874   */\n      dup4\n        /* \"#utility.yul\":16861:16879   */\n      add\n        /* \"#utility.yul\":16852:16858   */\n      dup6\n        /* \"#utility.yul\":16808:16880   */\n      tag_437\n      jump\t// in\n    tag_637:\n        /* \"#utility.yul\":16890:16962   */\n      tag_638\n        /* \"#utility.yul\":16958:16960   */\n      0x60\n        /* \"#utility.yul\":16947:16956   */\n      dup4\n        /* \"#utility.yul\":16943:16961   */\n      add\n        /* \"#utility.yul\":16934:16940   */\n      dup5\n        /* \"#utility.yul\":16890:16962   */\n      tag_437\n      jump\t// in\n    tag_638:\n        /* \"#utility.yul\":16416:16969   */\n      swap6\n      swap5\n      pop\n      pop\n      pop\n      pop\n      pop\n      jump\t// out\n        /* \"#utility.yul\":16975:17145   */\n    tag_455:\n        /* \"#utility.yul\":17115:17137   */\n      0x556e697377617056323a20464f5242494444454e000000000000000000000000\n        /* \"#utility.yul\":17111:17112   */\n      0x00\n        /* \"#utility.yul\":17103:17109   */\n      dup3\n        /* \"#utility.yul\":17099:17113   */\n      add\n        /* \"#utility.yul\":17092:17138   */\n      mstore\n        /* \"#utility.yul\":16975:17145   */\n      pop\n      jump\t// out\n        /* \"#utility.yul\":17151:17517   */\n    tag_456:\n        /* \"#utility.yul\":17293:17296   */\n      0x00\n        /* \"#utility.yul\":17314:17381   */\n      tag_641\n        /* \"#utility.yul\":17378:17380   */\n      0x14\n        /* \"#utility.yul\":17373:17376   */\n      dup4\n        /* \"#utility.yul\":17314:17381   */\n      tag_426\n      jump\t// in\n    tag_641:\n        /* \"#utility.yul\":17307:17381   */\n      swap2\n      pop\n        /* \"#utility.yul\":17390:17483   */\n      tag_642\n        /* \"#utility.yul\":17479:17482   */\n      dup3\n        /* \"#utility.yul\":17390:17483   */\n      tag_455\n      jump\t// in\n    tag_642:\n        /* \"#utility.yul\":17508:17510   */\n      0x20\n        /* \"#utility.yul\":17503:17506   */\n      dup3\n        /* \"#utility.yul\":17499:17511   */\n      add\n        /* \"#utility.yul\":17492:17511   */\n      swap1\n      pop\n        /* \"#utility.yul\":17151:17517   */\n      swap2\n      swap1\n      pop\n      jump\t// out\n        /* \"#utility.yul\":17523:17942   */\n    tag_200:\n        /* \"#utility.yul\":17689:17693   */\n      0x00\n        /* \"#utility.yul\":17727:17729   */\n      0x20\n        /* \"#utility.yul\":17716:17725   */\n      dup3\n        /* \"#utility.yul\":17712:17730   */\n      add\n        /* \"#utility.yul\":17704:17730   */\n      swap1\n      pop\n        /* \"#utility.yul\":17776:17785   */\n      dup2\n        /* \"#utility.yul\":17770:17774   */\n      dup2\n        /* \"#utility.yul\":17766:17786   */\n      sub\n        /* \"#utility.yul\":17762:17763   */\n      0x00\n        /* \"#utility.yul\":17751:17760   */\n      dup4\n        /* \"#utility.yul\":17747:17764   */\n      add\n        /* \"#utility.yul\":17740:17787   */\n      mstore\n        /* \"#utility.yul\":17804:17935   */\n      tag_644\n        /* \"#utility.yul\":17930:17934   */\n      dup2\n        /* \"#utility.yul\":17804:17935   */\n      tag_456\n      jump\t// in\n    tag_644:\n        /* \"#utility.yul\":17796:17935   */\n      swap1\n      pop\n        /* \"#utility.yul\":17523:17942   */\n      swap2\n      swap1\n      pop\n      jump\t// out\n        /* \"#utility.yul\":17948:18128   */\n    tag_457:\n        /* \"#utility.yul\":17996:18073   */\n      0x4e487b7100000000000000000000000000000000000000000000000000000000\n        /* \"#utility.yul\":17993:17994   */\n      0x00\n        /* \"#utility.yul\":17986:18074   */\n      mstore\n        /* \"#utility.yul\":18093:18097   */\n      0x12\n        /* \"#utility.yul\":18090:18091   */\n      0x04\n        /* \"#utility.yul\":18083:18098   */\n      mstore\n        /* \"#utility.yul\":18117:18121   */\n      0x24\n        /* \"#utility.yul\":18114:18115   */\n      0x00\n        /* \"#utility.yul\":18107:18122   */\n      revert\n        /* \"#utility.yul\":18134:18319   */\n    tag_226:\n        /* \"#utility.yul\":18174:18175   */\n      0x00\n        /* \"#utility.yul\":18191:18211   */\n      tag_647\n        /* \"#utility.yul\":18209:18210   */\n      dup3\n        /* \"#utility.yul\":18191:18211   */\n      tag_414\n      jump\t// in\n    tag_647:\n        /* \"#utility.yul\":18186:18211   */\n      swap2\n      pop\n        /* \"#utility.yul\":18225:18245   */\n      tag_648\n        /* \"#utility.yul\":18243:18244   */\n      dup4\n        /* \"#utility.yul\":18225:18245   */\n      tag_414\n      jump\t// in\n    tag_648:\n        /* \"#utility.yul\":18220:18245   */\n      swap3\n      pop\n        /* \"#utility.yul\":18264:18265   */\n      dup3\n        /* \"#utility.yul\":18254:18289   */\n      tag_649\n      jumpi\n        /* \"#utility.yul\":18269:18287   */\n      tag_650\n      tag_457\n      jump\t// in\n    tag_650:\n        /* \"#utility.yul\":18254:18289   */\n    tag_649:\n        /* \"#utility.yul\":18311:18312   */\n      dup3\n        /* \"#utility.yul\":18308:18309   */\n      dup3\n        /* \"#utility.yul\":18304:18313   */\n      div\n        /* \"#utility.yul\":18299:18313   */\n      swap1\n      pop\n        /* \"#utility.yul\":18134:18319   */\n      swap3\n      swap2\n      pop\n      pop\n      jump\t// out\n        /* \"#utility.yul\":18325:18552   */\n    tag_458:\n        /* \"#utility.yul\":18465:18499   */\n      0x556e697377617056323a20494e53554646494349454e545f4c49515549444954\n        /* \"#utility.yul\":18461:18462   */\n      0x00\n        /* \"#utility.yul\":18453:18459   */\n      dup3\n        /* \"#utility.yul\":18449:18463   */\n      add\n        /* \"#utility.yul\":18442:18500   */\n      mstore\n        /* \"#utility.yul\":18534:18544   */\n      0x595f4d494e544544000000000000000000000000000000000000000000000000\n        /* \"#utility.yul\":18529:18531   */\n      0x20\n        /* \"#utility.yul\":18521:18527   */\n      dup3\n        /* \"#utility.yul\":18517:18532   */\n      add\n        /* \"#utility.yul\":18510:18545   */\n      mstore\n        /* \"#utility.yul\":18325:18552   */\n      pop\n      jump\t// out\n        /* \"#utility.yul\":18558:18924   */\n    tag_459:\n        /* \"#utility.yul\":18700:18703   */\n      0x00\n        /* \"#utility.yul\":18721:18788   */\n      tag_653\n        /* \"#utility.yul\":18785:18787   */\n      0x28\n        /* \"#utility.yul\":18780:18783   */\n      dup4\n        /* \"#utility.yul\":18721:18788   */\n      tag_426\n      jump\t// in\n    tag_653:\n        /* \"#utility.yul\":18714:18788   */\n      swap2\n      pop\n        /* \"#utility.yul\":18797:18890   */\n      tag_654\n        /* \"#utility.yul\":18886:18889   */\n      dup3\n        /* \"#utility.yul\":18797:18890   */\n      tag_458\n      jump\t// in\n    tag_654:\n        /* \"#utility.yul\":18915:18917   */\n      0x40\n        /* \"#utility.yul\":18910:18913   */\n      dup3\n        /* \"#utility.yul\":18906:18918   */\n      add\n        /* \"#utility.yul\":18899:18918   */\n      swap1\n      pop\n        /* \"#utility.yul\":18558:18924   */\n      swap2\n      swap1\n      pop\n      jump\t// out\n        /* \"#utility.yul\":18930:19349   */\n    tag_232:\n        /* \"#utility.yul\":19096:19100   */\n      0x00\n        /* \"#utility.yul\":19134:19136   */\n      0x20\n        /* \"#utility.yul\":19123:19132   */\n      dup3\n        /* \"#utility.yul\":19119:19137   */\n      add\n        /* \"#utility.yul\":19111:19137   */\n      swap1\n      pop\n        /* \"#utility.yul\":19183:19192   */\n      dup2\n        /* \"#utility.yul\":19177:19181   */\n      dup2\n        /* \"#utility.yul\":19173:19193   */\n      sub\n        /* \"#utility.yul\":19169:19170   */\n      0x00\n        /* \"#utility.yul\":19158:19167   */\n      dup4\n        /* \"#utility.yul\":19154:19171   */\n      add\n        /* \"#utility.yul\":19147:19194   */\n      mstore\n        /* \"#utility.yul\":19211:19342   */\n      tag_656\n        /* \"#utility.yul\":19337:19341   */\n      dup2\n        /* \"#utility.yul\":19211:19342   */\n      tag_459\n      jump\t// in\n    tag_656:\n        /* \"#utility.yul\":19203:19342   */\n      swap1\n      pop\n        /* \"#utility.yul\":18930:19349   */\n      swap2\n      swap1\n      pop\n      jump\t// out\n        /* \"#utility.yul\":19355:19582   */\n    tag_460:\n        /* \"#utility.yul\":19495:19529   */\n      0x556e697377617056323a20494e53554646494349454e545f4c49515549444954\n        /* \"#utility.yul\":19491:19492   */\n      0x00\n        /* \"#utility.yul\":19483:19489   */\n      dup3\n        /* \"#utility.yul\":19479:19493   */\n      add\n        /* \"#utility.yul\":19472:19530   */\n      mstore\n        /* \"#utility.yul\":19564:19574   */\n      0x595f4255524e4544000000000000000000000000000000000000000000000000\n        /* \"#utility.yul\":19559:19561   */\n      0x20\n        /* \"#utility.yul\":19551:19557   */\n      dup3\n        /* \"#utility.yul\":19547:19562   */\n      add\n        /* \"#utility.yul\":19540:19575   */\n      mstore\n        /* \"#utility.yul\":19355:19582   */\n      pop\n      jump\t// out\n        /* \"#utility.yul\":19588:19954   */\n    tag_461:\n        /* \"#utility.yul\":19730:19733   */\n      0x00\n        /* \"#utility.yul\":19751:19818   */\n      tag_659\n        /* \"#utility.yul\":19815:19817   */\n      0x28\n        /* \"#utility.yul\":19810:19813   */\n      dup4\n        /* \"#utility.yul\":19751:19818   */\n      tag_426\n      jump\t// in\n    tag_659:\n        /* \"#utility.yul\":19744:19818   */\n      swap2\n      pop\n        /* \"#utility.yul\":19827:19920   */\n      tag_660\n        /* \"#utility.yul\":19916:19919   */\n      dup3\n        /* \"#utility.yul\":19827:19920   */\n      tag_460\n      jump\t// in\n    tag_660:\n        /* \"#utility.yul\":19945:19947   */\n      0x40\n        /* \"#utility.yul\":19940:19943   */\n      dup3\n        /* \"#utility.yul\":19936:19948   */\n      add\n        /* \"#utility.yul\":19929:19948   */\n      swap1\n      pop\n        /* \"#utility.yul\":19588:19954   */\n      swap2\n      swap1\n      pop\n      jump\t// out\n        /* \"#utility.yul\":19960:20379   */\n    tag_256:\n        /* \"#utility.yul\":20126:20130   */\n      0x00\n        /* \"#utility.yul\":20164:20166   */\n      0x20\n        /* \"#utility.yul\":20153:20162   */\n      dup3\n        /* \"#utility.yul\":20149:20167   */\n      add\n        /* \"#utility.yul\":20141:20167   */\n      swap1\n      pop\n        /* \"#utility.yul\":20213:20222   */\n      dup2\n        /* \"#utility.yul\":20207:20211   */\n      dup2\n        /* \"#utility.yul\":20203:20223   */\n      sub\n        /* \"#utility.yul\":20199:20200   */\n      0x00\n        /* \"#utility.yul\":20188:20197   */\n      dup4\n        /* \"#utility.yul\":20184:20201   */\n      add\n        /* \"#utility.yul\":20177:20224   */\n      mstore\n        /* \"#utility.yul\":20241:20372   */\n      tag_662\n        /* \"#utility.yul\":20367:20371   */\n      dup2\n        /* \"#utility.yul\":20241:20372   */\n      tag_461\n      jump\t// in\n    tag_662:\n        /* \"#utility.yul\":20233:20372   */\n      swap1\n      pop\n        /* \"#utility.yul\":19960:20379   */\n      swap2\n      swap1\n      pop\n      jump\t// out\n        /* \"#utility.yul\":20385:20717   */\n    tag_300:\n        /* \"#utility.yul\":20506:20510   */\n      0x00\n        /* \"#utility.yul\":20544:20546   */\n      0x40\n        /* \"#utility.yul\":20533:20542   */\n      dup3\n        /* \"#utility.yul\":20529:20547   */\n      add\n        /* \"#utility.yul\":20521:20547   */\n      swap1\n      pop\n        /* \"#utility.yul\":20557:20628   */\n      tag_664\n        /* \"#utility.yul\":20625:20626   */\n      0x00\n        /* \"#utility.yul\":20614:20623   */\n      dup4\n        /* \"#utility.yul\":20610:20627   */\n      add\n        /* \"#utility.yul\":20601:20607   */\n      dup6\n        /* \"#utility.yul\":20557:20628   */\n      tag_436\n      jump\t// in\n    tag_664:\n        /* \"#utility.yul\":20638:20710   */\n      tag_665\n        /* \"#utility.yul\":20706:20708   */\n      0x20\n        /* \"#utility.yul\":20695:20704   */\n      dup4\n        /* \"#utility.yul\":20691:20709   */\n      add\n        /* \"#utility.yul\":20682:20688   */\n      dup5\n        /* \"#utility.yul\":20638:20710   */\n      tag_437\n      jump\t// in\n    tag_665:\n        /* \"#utility.yul\":20385:20717   */\n      swap4\n      swap3\n      pop\n      pop\n      pop\n      jump\t// out\n        /* \"#utility.yul\":20723:20821   */\n    tag_462:\n        /* \"#utility.yul\":20774:20780   */\n      0x00\n        /* \"#utility.yul\":20808:20813   */\n      dup2\n        /* \"#utility.yul\":20802:20814   */\n      mload\n        /* \"#utility.yul\":20792:20814   */\n      swap1\n      pop\n        /* \"#utility.yul\":20723:20821   */\n      swap2\n      swap1\n      pop\n      jump\t// out\n        /* \"#utility.yul\":20827:20974   */\n    tag_463:\n        /* \"#utility.yul\":20928:20939   */\n      0x00\n        /* \"#utility.yul\":20965:20968   */\n      dup2\n        /* \"#utility.yul\":20950:20968   */\n      swap1\n      pop\n        /* \"#utility.yul\":20827:20974   */\n      swap3\n      swap2\n      pop\n      pop\n      jump\t// out\n        /* \"#utility.yul\":20980:21366   */\n    tag_464:\n        /* \"#utility.yul\":21084:21087   */\n      0x00\n        /* \"#utility.yul\":21112:21150   */\n      tag_669\n        /* \"#utility.yul\":21144:21149   */\n      dup3\n        /* \"#utility.yul\":21112:21150   */\n      tag_462\n      jump\t// in\n    tag_669:\n        /* \"#utility.yul\":21166:21254   */\n      tag_670\n        /* \"#utility.yul\":21247:21253   */\n      dup2\n        /* \"#utility.yul\":21242:21245   */\n      dup6\n        /* \"#utility.yul\":21166:21254   */\n      tag_463\n      jump\t// in\n    tag_670:\n        /* \"#utility.yul\":21159:21254   */\n      swap4\n      pop\n        /* \"#utility.yul\":21263:21328   */\n      tag_671\n        /* \"#utility.yul\":21321:21327   */\n      dup2\n        /* \"#utility.yul\":21316:21319   */\n      dup6\n        /* \"#utility.yul\":21309:21313   */\n      0x20\n        /* \"#utility.yul\":21302:21307   */\n      dup7\n        /* \"#utility.yul\":21298:21314   */\n      add\n        /* \"#utility.yul\":21263:21328   */\n      tag_427\n      jump\t// in\n    tag_671:\n        /* \"#utility.yul\":21353:21359   */\n      dup1\n        /* \"#utility.yul\":21348:21351   */\n      dup5\n        /* \"#utility.yul\":21344:21360   */\n      add\n        /* \"#utility.yul\":21337:21360   */\n      swap2\n      pop\n        /* \"#utility.yul\":21088:21366   */\n      pop\n        /* \"#utility.yul\":20980:21366   */\n      swap3\n      swap2\n      pop\n      pop\n      jump\t// out\n        /* \"#utility.yul\":21372:21643   */\n    tag_302:\n        /* \"#utility.yul\":21502:21505   */\n      0x00\n        /* \"#utility.yul\":21524:21617   */\n      tag_673\n        /* \"#utility.yul\":21613:21616   */\n      dup3\n        /* \"#utility.yul\":21604:21610   */\n      dup5\n        /* \"#utility.yul\":21524:21617   */\n      tag_464\n      jump\t// in\n    tag_673:\n        /* \"#utility.yul\":21517:21617   */\n      swap2\n      pop\n        /* \"#utility.yul\":21634:21637   */\n      dup2\n        /* \"#utility.yul\":21627:21637   */\n      swap1\n      pop\n        /* \"#utility.yul\":21372:21643   */\n      swap3\n      swap2\n      pop\n      pop\n      jump\t// out\n        /* \"#utility.yul\":21649:21765   */\n    tag_465:\n        /* \"#utility.yul\":21719:21740   */\n      tag_675\n        /* \"#utility.yul\":21734:21739   */\n      dup2\n        /* \"#utility.yul\":21719:21740   */\n      tag_434\n      jump\t// in\n    tag_675:\n        /* \"#utility.yul\":21712:21717   */\n      dup2\n        /* \"#utility.yul\":21709:21741   */\n      eq\n        /* \"#utility.yul\":21699:21759   */\n      tag_676\n      jumpi\n        /* \"#utility.yul\":21755:21756   */\n      0x00\n        /* \"#utility.yul\":21752:21753   */\n      dup1\n        /* \"#utility.yul\":21745:21757   */\n      revert\n        /* \"#utility.yul\":21699:21759   */\n    tag_676:\n        /* \"#utility.yul\":21649:21765   */\n      pop\n      jump\t// out\n        /* \"#utility.yul\":21771:21908   */\n    tag_466:\n        /* \"#utility.yul\":21825:21830   */\n      0x00\n        /* \"#utility.yul\":21856:21862   */\n      dup2\n        /* \"#utility.yul\":21850:21863   */\n      mload\n        /* \"#utility.yul\":21841:21863   */\n      swap1\n      pop\n        /* \"#utility.yul\":21872:21902   */\n      tag_678\n        /* \"#utility.yul\":21896:21901   */\n      dup2\n        /* \"#utility.yul\":21872:21902   */\n      tag_465\n      jump\t// in\n    tag_678:\n        /* \"#utility.yul\":21771:21908   */\n      swap3\n      swap2\n      pop\n      pop\n      jump\t// out\n        /* \"#utility.yul\":21914:22259   */\n    tag_309:\n        /* \"#utility.yul\":21981:21987   */\n      0x00\n        /* \"#utility.yul\":22030:22032   */\n      0x20\n        /* \"#utility.yul\":22018:22027   */\n      dup3\n        /* \"#utility.yul\":22009:22016   */\n      dup5\n        /* \"#utility.yul\":22005:22028   */\n      sub\n        /* \"#utility.yul\":22001:22033   */\n      slt\n        /* \"#utility.yul\":21998:22117   */\n      iszero\n      tag_680\n      jumpi\n        /* \"#utility.yul\":22036:22115   */\n      tag_681\n      tag_412\n      jump\t// in\n    tag_681:\n        /* \"#utility.yul\":21998:22117   */\n    tag_680:\n        /* \"#utility.yul\":22156:22157   */\n      0x00\n        /* \"#utility.yul\":22181:22242   */\n      tag_682\n        /* \"#utility.yul\":22234:22241   */\n      dup5\n        /* \"#utility.yul\":22225:22231   */\n      dup3\n        /* \"#utility.yul\":22214:22223   */\n      dup6\n        /* \"#utility.yul\":22210:22232   */\n      add\n        /* \"#utility.yul\":22181:22242   */\n      tag_466\n      jump\t// in\n    tag_682:\n        /* \"#utility.yul\":22171:22242   */\n      swap2\n      pop\n        /* \"#utility.yul\":22127:22252   */\n      pop\n        /* \"#utility.yul\":21914:22259   */\n      swap3\n      swap2\n      pop\n      pop\n      jump\t// out\n        /* \"#utility.yul\":22265:22441   */\n    tag_467:\n        /* \"#utility.yul\":22405:22433   */\n      0x556e697377617056323a205452414e534645525f4641494c4544000000000000\n        /* \"#utility.yul\":22401:22402   */\n      0x00\n        /* \"#utility.yul\":22393:22399   */\n      dup3\n        /* \"#utility.yul\":22389:22403   */\n      add\n        /* \"#utility.yul\":22382:22434   */\n      mstore\n        /* \"#utility.yul\":22265:22441   */\n      pop\n      jump\t// out\n        /* \"#utility.yul\":22447:22813   */\n    tag_468:\n        /* \"#utility.yul\":22589:22592   */\n      0x00\n        /* \"#utility.yul\":22610:22677   */\n      tag_685\n        /* \"#utility.yul\":22674:22676   */\n      0x1a\n        /* \"#utility.yul\":22669:22672   */\n      dup4\n        /* \"#utility.yul\":22610:22677   */\n      tag_426\n      jump\t// in\n    tag_685:\n        /* \"#utility.yul\":22603:22677   */\n      swap2\n      pop\n        /* \"#utility.yul\":22686:22779   */\n      tag_686\n        /* \"#utility.yul\":22775:22778   */\n      dup3\n        /* \"#utility.yul\":22686:22779   */\n      tag_467\n      jump\t// in\n    tag_686:\n        /* \"#utility.yul\":22804:22806   */\n      0x20\n        /* \"#utility.yul\":22799:22802   */\n      dup3\n        /* \"#utility.yul\":22795:22807   */\n      add\n        /* \"#utility.yul\":22788:22807   */\n      swap1\n      pop\n        /* \"#utility.yul\":22447:22813   */\n      swap2\n      swap1\n      pop\n      jump\t// out\n        /* \"#utility.yul\":22819:23238   */\n    tag_312:\n        /* \"#utility.yul\":22985:22989   */\n      0x00\n        /* \"#utility.yul\":23023:23025   */\n      0x20\n        /* \"#utility.yul\":23012:23021   */\n      dup3\n        /* \"#utility.yul\":23008:23026   */\n      add\n        /* \"#utility.yul\":23000:23026   */\n      swap1\n      pop\n        /* \"#utility.yul\":23072:23081   */\n      dup2\n        /* \"#utility.yul\":23066:23070   */\n      dup2\n        /* \"#utility.yul\":23062:23082   */\n      sub\n        /* \"#utility.yul\":23058:23059   */\n      0x00\n        /* \"#utility.yul\":23047:23056   */\n      dup4\n        /* \"#utility.yul\":23043:23060   */\n      add\n        /* \"#utility.yul\":23036:23083   */\n      mstore\n        /* \"#utility.yul\":23100:23231   */\n      tag_688\n        /* \"#utility.yul\":23226:23230   */\n      dup2\n        /* \"#utility.yul\":23100:23231   */\n      tag_468\n      jump\t// in\n    tag_688:\n        /* \"#utility.yul\":23092:23231   */\n      swap1\n      pop\n        /* \"#utility.yul\":22819:23238   */\n      swap2\n      swap1\n      pop\n      jump\t// out\n        /* \"#utility.yul\":23244:23654   */\n    tag_316:\n        /* \"#utility.yul\":23284:23291   */\n      0x00\n        /* \"#utility.yul\":23307:23327   */\n      tag_690\n        /* \"#utility.yul\":23325:23326   */\n      dup3\n        /* \"#utility.yul\":23307:23327   */\n      tag_414\n      jump\t// in\n    tag_690:\n        /* \"#utility.yul\":23302:23327   */\n      swap2\n      pop\n        /* \"#utility.yul\":23341:23361   */\n      tag_691\n        /* \"#utility.yul\":23359:23360   */\n      dup4\n        /* \"#utility.yul\":23341:23361   */\n      tag_414\n      jump\t// in\n    tag_691:\n        /* \"#utility.yul\":23336:23361   */\n      swap3\n      pop\n        /* \"#utility.yul\":23396:23397   */\n      dup3\n        /* \"#utility.yul\":23393:23394   */\n      dup3\n        /* \"#utility.yul\":23389:23398   */\n      mul\n        /* \"#utility.yul\":23418:23448   */\n      tag_692\n        /* \"#utility.yul\":23436:23447   */\n      dup2\n        /* \"#utility.yul\":23418:23448   */\n      tag_414\n      jump\t// in\n    tag_692:\n        /* \"#utility.yul\":23407:23448   */\n      swap2\n      pop\n        /* \"#utility.yul\":23597:23598   */\n      dup3\n        /* \"#utility.yul\":23588:23595   */\n      dup3\n        /* \"#utility.yul\":23584:23599   */\n      div\n        /* \"#utility.yul\":23581:23582   */\n      dup5\n        /* \"#utility.yul\":23578:23600   */\n      eq\n        /* \"#utility.yul\":23558:23559   */\n      dup4\n        /* \"#utility.yul\":23551:23560   */\n      iszero\n        /* \"#utility.yul\":23531:23614   */\n      or\n        /* \"#utility.yul\":23508:23647   */\n      tag_693\n      jumpi\n        /* \"#utility.yul\":23627:23645   */\n      tag_694\n      tag_450\n      jump\t// in\n    tag_694:\n        /* \"#utility.yul\":23508:23647   */\n    tag_693:\n        /* \"#utility.yul\":23292:23654   */\n      pop\n        /* \"#utility.yul\":23244:23654   */\n      swap3\n      swap2\n      pop\n      pop\n      jump\t// out\n        /* \"#utility.yul\":23660:23830   */\n    tag_469:\n        /* \"#utility.yul\":23800:23822   */\n      0x64732d6d6174682d6d756c2d6f766572666c6f77000000000000000000000000\n        /* \"#utility.yul\":23796:23797   */\n      0x00\n        /* \"#utility.yul\":23788:23794   */\n      dup3\n        /* \"#utility.yul\":23784:23798   */\n      add\n        /* \"#utility.yul\":23777:23823   */\n      mstore\n        /* \"#utility.yul\":23660:23830   */\n      pop\n      jump\t// out\n        /* \"#utility.yul\":23836:24202   */\n    tag_470:\n        /* \"#utility.yul\":23978:23981   */\n      0x00\n        /* \"#utility.yul\":23999:24066   */\n      tag_697\n        /* \"#utility.yul\":24063:24065   */\n      0x14\n        /* \"#utility.yul\":24058:24061   */\n      dup4\n        /* \"#utility.yul\":23999:24066   */\n      tag_426\n      jump\t// in\n    tag_697:\n        /* \"#utility.yul\":23992:24066   */\n      swap2\n      pop\n        /* \"#utility.yul\":24075:24168   */\n      tag_698\n        /* \"#utility.yul\":24164:24167   */\n      dup3\n        /* \"#utility.yul\":24075:24168   */\n      tag_469\n      jump\t// in\n    tag_698:\n        /* \"#utility.yul\":24193:24195   */\n      0x20\n        /* \"#utility.yul\":24188:24191   */\n      dup3\n        /* \"#utility.yul\":24184:24196   */\n      add\n        /* \"#utility.yul\":24177:24196   */\n      swap1\n      pop\n        /* \"#utility.yul\":23836:24202   */\n      swap2\n      swap1\n      pop\n      jump\t// out\n        /* \"#utility.yul\":24208:24627   */\n    tag_320:\n        /* \"#utility.yul\":24374:24378   */\n      0x00\n        /* \"#utility.yul\":24412:24414   */\n      0x20\n        /* \"#utility.yul\":24401:24410   */\n      dup3\n        /* \"#utility.yul\":24397:24415   */\n      add\n        /* \"#utility.yul\":24389:24415   */\n      swap1\n      pop\n        /* \"#utility.yul\":24461:24470   */\n      dup2\n        /* \"#utility.yul\":24455:24459   */\n      dup2\n        /* \"#utility.yul\":24451:24471   */\n      sub\n        /* \"#utility.yul\":24447:24448   */\n      0x00\n        /* \"#utility.yul\":24436:24445   */\n      dup4\n        /* \"#utility.yul\":24432:24449   */\n      add\n        /* \"#utility.yul\":24425:24472   */\n      mstore\n        /* \"#utility.yul\":24489:24620   */\n      tag_700\n        /* \"#utility.yul\":24615:24619   */\n      dup2\n        /* \"#utility.yul\":24489:24620   */\n      tag_470\n      jump\t// in\n    tag_700:\n        /* \"#utility.yul\":24481:24620   */\n      swap1\n      pop\n        /* \"#utility.yul\":24208:24627   */\n      swap2\n      swap1\n      pop\n      jump\t// out\n        /* \"#utility.yul\":24633:24804   */\n    tag_471:\n        /* \"#utility.yul\":24773:24796   */\n      0x64732d6d6174682d7375622d756e646572666c6f770000000000000000000000\n        /* \"#utility.yul\":24769:24770   */\n      0x00\n        /* \"#utility.yul\":24761:24767   */\n      dup3\n        /* \"#utility.yul\":24757:24771   */\n      add\n        /* \"#utility.yul\":24750:24797   */\n      mstore\n        /* \"#utility.yul\":24633:24804   */\n      pop\n      jump\t// out\n        /* \"#utility.yul\":24810:25176   */\n    tag_472:\n        /* \"#utility.yul\":24952:24955   */\n      0x00\n        /* \"#utility.yul\":24973:25040   */\n      tag_703\n        /* \"#utility.yul\":25037:25039   */\n      0x15\n        /* \"#utility.yul\":25032:25035   */\n      dup4\n        /* \"#utility.yul\":24973:25040   */\n      tag_426\n      jump\t// in\n    tag_703:\n        /* \"#utility.yul\":24966:25040   */\n      swap2\n      pop\n        /* \"#utility.yul\":25049:25142   */\n      tag_704\n        /* \"#utility.yul\":25138:25141   */\n      dup3\n        /* \"#utility.yul\":25049:25142   */\n      tag_471\n      jump\t// in\n    tag_704:\n        /* \"#utility.yul\":25167:25169   */\n      0x20\n        /* \"#utility.yul\":25162:25165   */\n      dup3\n        /* \"#utility.yul\":25158:25170   */\n      add\n        /* \"#utility.yul\":25151:25170   */\n      swap1\n      pop\n        /* \"#utility.yul\":24810:25176   */\n      swap2\n      swap1\n      pop\n      jump\t// out\n        /* \"#utility.yul\":25182:25601   */\n    tag_325:\n        /* \"#utility.yul\":25348:25352   */\n      0x00\n        /* \"#utility.yul\":25386:25388   */\n      0x20\n        /* \"#utility.yul\":25375:25384   */\n      dup3\n        /* \"#utility.yul\":25371:25389   */\n      add\n        /* \"#utility.yul\":25363:25389   */\n      swap1\n      pop\n        /* \"#utility.yul\":25435:25444   */\n      dup2\n        /* \"#utility.yul\":25429:25433   */\n      dup2\n        /* \"#utility.yul\":25425:25445   */\n      sub\n        /* \"#utility.yul\":25421:25422   */\n      0x00\n        /* \"#utility.yul\":25410:25419   */\n      dup4\n        /* \"#utility.yul\":25406:25423   */\n      add\n        /* \"#utility.yul\":25399:25446   */\n      mstore\n        /* \"#utility.yul\":25463:25594   */\n      tag_706\n        /* \"#utility.yul\":25589:25593   */\n      dup2\n        /* \"#utility.yul\":25463:25594   */\n      tag_472\n      jump\t// in\n    tag_706:\n        /* \"#utility.yul\":25455:25594   */\n      swap1\n      pop\n        /* \"#utility.yul\":25182:25601   */\n      swap2\n      swap1\n      pop\n      jump\t// out\n        /* \"#utility.yul\":25607:25776   */\n    tag_473:\n        /* \"#utility.yul\":25747:25768   */\n      0x556e697377617056323a204f564552464c4f5700000000000000000000000000\n        /* \"#utility.yul\":25743:25744   */\n      0x00\n        /* \"#utility.yul\":25735:25741   */\n      dup3\n        /* \"#utility.yul\":25731:25745   */\n      add\n        /* \"#utility.yul\":25724:25769   */\n      mstore\n        /* \"#utility.yul\":25607:25776   */\n      pop\n      jump\t// out\n        /* \"#utility.yul\":25782:26148   */\n    tag_474:\n        /* \"#utility.yul\":25924:25927   */\n      0x00\n        /* \"#utility.yul\":25945:26012   */\n      tag_709\n        /* \"#utility.yul\":26009:26011   */\n      0x13\n        /* \"#utility.yul\":26004:26007   */\n      dup4\n        /* \"#utility.yul\":25945:26012   */\n      tag_426\n      jump\t// in\n    tag_709:\n        /* \"#utility.yul\":25938:26012   */\n      swap2\n      pop\n        /* \"#utility.yul\":26021:26114   */\n      tag_710\n        /* \"#utility.yul\":26110:26113   */\n      dup3\n        /* \"#utility.yul\":26021:26114   */\n      tag_473\n      jump\t// in\n    tag_710:\n        /* \"#utility.yul\":26139:26141   */\n      0x20\n        /* \"#utility.yul\":26134:26137   */\n      dup3\n        /* \"#utility.yul\":26130:26142   */\n      add\n        /* \"#utility.yul\":26123:26142   */\n      swap1\n      pop\n        /* \"#utility.yul\":25782:26148   */\n      swap2\n      swap1\n      pop\n      jump\t// out\n        /* \"#utility.yul\":26154:26573   */\n    tag_330:\n        /* \"#utility.yul\":26320:26324   */\n      0x00\n        /* \"#utility.yul\":26358:26360   */\n      0x20\n        /* \"#utility.yul\":26347:26356   */\n      dup3\n        /* \"#utility.yul\":26343:26361   */\n      add\n        /* \"#utility.yul\":26335:26361   */\n      swap1\n      pop\n        /* \"#utility.yul\":26407:26416   */\n      dup2\n        /* \"#utility.yul\":26401:26405   */\n      dup2\n        /* \"#utility.yul\":26397:26417   */\n      sub\n        /* \"#utility.yul\":26393:26394   */\n      0x00\n        /* \"#utility.yul\":26382:26391   */\n      dup4\n        /* \"#utility.yul\":26378:26395   */\n      add\n        /* \"#utility.yul\":26371:26418   */\n      mstore\n        /* \"#utility.yul\":26435:26566   */\n      tag_712\n        /* \"#utility.yul\":26561:26565   */\n      dup2\n        /* \"#utility.yul\":26435:26566   */\n      tag_474\n      jump\t// in\n    tag_712:\n        /* \"#utility.yul\":26427:26566   */\n      swap1\n      pop\n        /* \"#utility.yul\":26154:26573   */\n      swap2\n      swap1\n      pop\n      jump\t// out\n        /* \"#utility.yul\":26579:26755   */\n    tag_332:\n        /* \"#utility.yul\":26611:26612   */\n      0x00\n        /* \"#utility.yul\":26628:26648   */\n      tag_714\n        /* \"#utility.yul\":26646:26647   */\n      dup3\n        /* \"#utility.yul\":26628:26648   */\n      tag_414\n      jump\t// in\n    tag_714:\n        /* \"#utility.yul\":26623:26648   */\n      swap2\n      pop\n        /* \"#utility.yul\":26662:26682   */\n      tag_715\n        /* \"#utility.yul\":26680:26681   */\n      dup4\n        /* \"#utility.yul\":26662:26682   */\n      tag_414\n      jump\t// in\n    tag_715:\n        /* \"#utility.yul\":26657:26682   */\n      swap3\n      pop\n        /* \"#utility.yul\":26701:26702   */\n      dup3\n        /* \"#utility.yul\":26691:26726   */\n      tag_716\n      jumpi\n        /* \"#utility.yul\":26706:26724   */\n      tag_717\n      tag_457\n      jump\t// in\n    tag_717:\n        /* \"#utility.yul\":26691:26726   */\n    tag_716:\n        /* \"#utility.yul\":26747:26748   */\n      dup3\n        /* \"#utility.yul\":26744:26745   */\n      dup3\n        /* \"#utility.yul\":26740:26749   */\n      mod\n        /* \"#utility.yul\":26735:26749   */\n      swap1\n      pop\n        /* \"#utility.yul\":26579:26755   */\n      swap3\n      swap2\n      pop\n      pop\n      jump\t// out\n        /* \"#utility.yul\":26761:26961   */\n    tag_334:\n        /* \"#utility.yul\":26800:26804   */\n      0x00\n        /* \"#utility.yul\":26820:26839   */\n      tag_719\n        /* \"#utility.yul\":26837:26838   */\n      dup3\n        /* \"#utility.yul\":26820:26839   */\n      tag_432\n      jump\t// in\n    tag_719:\n        /* \"#utility.yul\":26815:26839   */\n      swap2\n      pop\n        /* \"#utility.yul\":26853:26872   */\n      tag_720\n        /* \"#utility.yul\":26870:26871   */\n      dup4\n        /* \"#utility.yul\":26853:26872   */\n      tag_432\n      jump\t// in\n    tag_720:\n        /* \"#utility.yul\":26848:26872   */\n      swap3\n      pop\n        /* \"#utility.yul\":26896:26897   */\n      dup3\n        /* \"#utility.yul\":26893:26894   */\n      dup3\n        /* \"#utility.yul\":26889:26898   */\n      sub\n        /* \"#utility.yul\":26881:26898   */\n      swap1\n      pop\n        /* \"#utility.yul\":26920:26930   */\n      0xffffffff\n        /* \"#utility.yul\":26914:26918   */\n      dup2\n        /* \"#utility.yul\":26911:26931   */\n      gt\n        /* \"#utility.yul\":26908:26954   */\n      iszero\n      tag_721\n      jumpi\n        /* \"#utility.yul\":26934:26952   */\n      tag_722\n      tag_450\n      jump\t// in\n    tag_722:\n        /* \"#utility.yul\":26908:26954   */\n    tag_721:\n        /* \"#utility.yul\":26761:26961   */\n      swap3\n      swap2\n      pop\n      pop\n      jump\t// out\n        /* \"#utility.yul\":26967:27158   */\n    tag_344:\n        /* \"#utility.yul\":27007:27010   */\n      0x00\n        /* \"#utility.yul\":27026:27046   */\n      tag_724\n        /* \"#utility.yul\":27044:27045   */\n      dup3\n        /* \"#utility.yul\":27026:27046   */\n      tag_414\n      jump\t// in\n    tag_724:\n        /* \"#utility.yul\":27021:27046   */\n      swap2\n      pop\n        /* \"#utility.yul\":27060:27080   */\n      tag_725\n        /* \"#utility.yul\":27078:27079   */\n      dup4\n        /* \"#utility.yul\":27060:27080   */\n      tag_414\n      jump\t// in\n    tag_725:\n        /* \"#utility.yul\":27055:27080   */\n      swap3\n      pop\n        /* \"#utility.yul\":27103:27104   */\n      dup3\n        /* \"#utility.yul\":27100:27101   */\n      dup3\n        /* \"#utility.yul\":27096:27105   */\n      add\n        /* \"#utility.yul\":27089:27105   */\n      swap1\n      pop\n        /* \"#utility.yul\":27124:27127   */\n      dup1\n        /* \"#utility.yul\":27121:27122   */\n      dup3\n        /* \"#utility.yul\":27118:27128   */\n      gt\n        /* \"#utility.yul\":27115:27151   */\n      iszero\n      tag_726\n      jumpi\n        /* \"#utility.yul\":27131:27149   */\n      tag_727\n      tag_450\n      jump\t// in\n    tag_727:\n        /* \"#utility.yul\":27115:27151   */\n    tag_726:\n        /* \"#utility.yul\":26967:27158   */\n      swap3\n      swap2\n      pop\n      pop\n      jump\t// out\n        /* \"#utility.yul\":27164:27496   */\n    tag_350:\n        /* \"#utility.yul\":27285:27289   */\n      0x00\n        /* \"#utility.yul\":27323:27325   */\n      0x40\n        /* \"#utility.yul\":27312:27321   */\n      dup3\n        /* \"#utility.yul\":27308:27326   */\n      add\n        /* \"#utility.yul\":27300:27326   */\n      swap1\n      pop\n        /* \"#utility.yul\":27336:27407   */\n      tag_729\n        /* \"#utility.yul\":27404:27405   */\n      0x00\n        /* \"#utility.yul\":27393:27402   */\n      dup4\n        /* \"#utility.yul\":27389:27406   */\n      add\n        /* \"#utility.yul\":27380:27386   */\n      dup6\n        /* \"#utility.yul\":27336:27407   */\n      tag_431\n      jump\t// in\n    tag_729:\n        /* \"#utility.yul\":27417:27489   */\n      tag_730\n        /* \"#utility.yul\":27485:27487   */\n      0x20\n        /* \"#utility.yul\":27474:27483   */\n      dup4\n        /* \"#utility.yul\":27470:27488   */\n      add\n        /* \"#utility.yul\":27461:27467   */\n      dup5\n        /* \"#utility.yul\":27417:27489   */\n      tag_431\n      jump\t// in\n    tag_730:\n        /* \"#utility.yul\":27164:27496   */\n      swap4\n      swap3\n      pop\n      pop\n      pop\n      jump\t// out\n        /* \"#utility.yul\":27502:27645   */\n    tag_475:\n        /* \"#utility.yul\":27559:27564   */\n      0x00\n        /* \"#utility.yul\":27590:27596   */\n      dup2\n        /* \"#utility.yul\":27584:27597   */\n      mload\n        /* \"#utility.yul\":27575:27597   */\n      swap1\n      pop\n        /* \"#utility.yul\":27606:27639   */\n      tag_732\n        /* \"#utility.yul\":27633:27638   */\n      dup2\n        /* \"#utility.yul\":27606:27639   */\n      tag_419\n      jump\t// in\n    tag_732:\n        /* \"#utility.yul\":27502:27645   */\n      swap3\n      swap2\n      pop\n      pop\n      jump\t// out\n        /* \"#utility.yul\":27651:28002   */\n    tag_362:\n        /* \"#utility.yul\":27721:27727   */\n      0x00\n        /* \"#utility.yul\":27770:27772   */\n      0x20\n        /* \"#utility.yul\":27758:27767   */\n      dup3\n        /* \"#utility.yul\":27749:27756   */\n      dup5\n        /* \"#utility.yul\":27745:27768   */\n      sub\n        /* \"#utility.yul\":27741:27773   */\n      slt\n        /* \"#utility.yul\":27738:27857   */\n      iszero\n      tag_734\n      jumpi\n        /* \"#utility.yul\":27776:27855   */\n      tag_735\n      tag_412\n      jump\t// in\n    tag_735:\n        /* \"#utility.yul\":27738:27857   */\n    tag_734:\n        /* \"#utility.yul\":27896:27897   */\n      0x00\n        /* \"#utility.yul\":27921:27985   */\n      tag_736\n        /* \"#utility.yul\":27977:27984   */\n      dup5\n        /* \"#utility.yul\":27968:27974   */\n      dup3\n        /* \"#utility.yul\":27957:27966   */\n      dup6\n        /* \"#utility.yul\":27953:27975   */\n      add\n        /* \"#utility.yul\":27921:27985   */\n      tag_475\n      jump\t// in\n    tag_736:\n        /* \"#utility.yul\":27911:27985   */\n      swap2\n      pop\n        /* \"#utility.yul\":27867:27995   */\n      pop\n        /* \"#utility.yul\":27651:28002   */\n      swap3\n      swap2\n      pop\n      pop\n      jump\t// out\n        /* \"#utility.yul\":28008:28150   */\n    tag_476:\n        /* \"#utility.yul\":28045:28052   */\n      0x00\n        /* \"#utility.yul\":28085:28143   */\n      0xffffffffffffffffffffffffffffffffffffffffffffffffffffffff\n        /* \"#utility.yul\":28078:28083   */\n      dup3\n        /* \"#utility.yul\":28074:28144   */\n      and\n        /* \"#utility.yul\":28063:28144   */\n      swap1\n      pop\n        /* \"#utility.yul\":28008:28150   */\n      swap2\n      swap1\n      pop\n      jump\t// out\n        /* \"#utility.yul\":28156:28566   */\n    tag_402:\n        /* \"#utility.yul\":28196:28203   */\n      0x00\n        /* \"#utility.yul\":28219:28239   */\n      tag_739\n        /* \"#utility.yul\":28237:28238   */\n      dup3\n        /* \"#utility.yul\":28219:28239   */\n      tag_476\n      jump\t// in\n    tag_739:\n        /* \"#utility.yul\":28214:28239   */\n      swap2\n      pop\n        /* \"#utility.yul\":28253:28273   */\n      tag_740\n        /* \"#utility.yul\":28271:28272   */\n      dup4\n        /* \"#utility.yul\":28253:28273   */\n      tag_476\n      jump\t// in\n    tag_740:\n        /* \"#utility.yul\":28248:28273   */\n      swap3\n      pop\n        /* \"#utility.yul\":28308:28309   */\n      dup3\n        /* \"#utility.yul\":28305:28306   */\n      dup3\n        /* \"#utility.yul\":28301:28310   */\n      mul\n        /* \"#utility.yul\":28330:28360   */\n      tag_741\n        /* \"#utility.yul\":28348:28359   */\n      dup2\n        /* \"#utility.yul\":28330:28360   */\n      tag_476\n      jump\t// in\n    tag_741:\n        /* \"#utility.yul\":28319:28360   */\n      swap2\n      pop\n        /* \"#utility.yul\":28509:28510   */\n      dup3\n        /* \"#utility.yul\":28500:28507   */\n      dup3\n        /* \"#utility.yul\":28496:28511   */\n      div\n        /* \"#utility.yul\":28493:28494   */\n      dup5\n        /* \"#utility.yul\":28490:28512   */\n      eq\n        /* \"#utility.yul\":28470:28471   */\n      dup4\n        /* \"#utility.yul\":28463:28472   */\n      iszero\n        /* \"#utility.yul\":28443:28526   */\n      or\n        /* \"#utility.yul\":28420:28559   */\n      tag_742\n      jumpi\n        /* \"#utility.yul\":28539:28557   */\n      tag_743\n      tag_450\n      jump\t// in\n    tag_743:\n        /* \"#utility.yul\":28420:28559   */\n    tag_742:\n        /* \"#utility.yul\":28204:28566   */\n      pop\n        /* \"#utility.yul\":28156:28566   */\n      swap3\n      swap2\n      pop\n      pop\n      jump\t// out\n        /* \"#utility.yul\":28572:28757   */\n    tag_405:\n        /* \"#utility.yul\":28612:28613   */\n      0x00\n        /* \"#utility.yul\":28629:28649   */\n      tag_745\n        /* \"#utility.yul\":28647:28648   */\n      dup3\n        /* \"#utility.yul\":28629:28649   */\n      tag_476\n      jump\t// in\n    tag_745:\n        /* \"#utility.yul\":28624:28649   */\n      swap2\n      pop\n        /* \"#utility.yul\":28663:28683   */\n      tag_746\n        /* \"#utility.yul\":28681:28682   */\n      dup4\n        /* \"#utility.yul\":28663:28683   */\n      tag_476\n      jump\t// in\n    tag_746:\n        /* \"#utility.yul\":28658:28683   */\n      swap3\n      pop\n        /* \"#utility.yul\":28702:28703   */\n      dup3\n        /* \"#utility.yul\":28692:28727   */\n      tag_747\n      jumpi\n        /* \"#utility.yul\":28707:28725   */\n      tag_748\n      tag_457\n      jump\t// in\n    tag_748:\n        /* \"#utility.yul\":28692:28727   */\n    tag_747:\n        /* \"#utility.yul\":28749:28750   */\n      dup3\n        /* \"#utility.yul\":28746:28747   */\n      dup3\n        /* \"#utility.yul\":28742:28751   */\n      div\n        /* \"#utility.yul\":28737:28751   */\n      swap1\n      pop\n        /* \"#utility.yul\":28572:28757   */\n      swap3\n      swap2\n      pop\n      pop\n      jump\t// out\n        /* \"#utility.yul\":28763:28933   */\n    tag_477:\n        /* \"#utility.yul\":28903:28925   */\n      0x64732d6d6174682d6164642d6f766572666c6f77000000000000000000000000\n        /* \"#utility.yul\":28899:28900   */\n      0x00\n        /* \"#utility.yul\":28891:28897   */\n      dup3\n        /* \"#utility.yul\":28887:28901   */\n      add\n        /* \"#utility.yul\":28880:28926   */\n      mstore\n        /* \"#utility.yul\":28763:28933   */\n      pop\n      jump\t// out\n        /* \"#utility.yul\":28939:29305   */\n    tag_478:\n        /* \"#utility.yul\":29081:29084   */\n      0x00\n        /* \"#utility.yul\":29102:29169   */\n      tag_751\n        /* \"#utility.yul\":29166:29168   */\n      0x14\n        /* \"#utility.yul\":29161:29164   */\n      dup4\n        /* \"#utility.yul\":29102:29169   */\n      tag_426\n      jump\t// in\n    tag_751:\n        /* \"#utility.yul\":29095:29169   */\n      swap2\n      pop\n        /* \"#utility.yul\":29178:29271   */\n      tag_752\n        /* \"#utility.yul\":29267:29270   */\n      dup3\n        /* \"#utility.yul\":29178:29271   */\n      tag_477\n      jump\t// in\n    tag_752:\n        /* \"#utility.yul\":29296:29298   */\n      0x20\n        /* \"#utility.yul\":29291:29294   */\n      dup3\n        /* \"#utility.yul\":29287:29299   */\n      add\n        /* \"#utility.yul\":29280:29299   */\n      swap1\n      pop\n        /* \"#utility.yul\":28939:29305   */\n      swap2\n      swap1\n      pop\n      jump\t// out\n        /* \"#utility.yul\":29311:29730   */\n    tag_410:\n        /* \"#utility.yul\":29477:29481   */\n      0x00\n        /* \"#utility.yul\":29515:29517   */\n      0x20\n        /* \"#utility.yul\":29504:29513   */\n      dup3\n        /* \"#utility.yul\":29500:29518   */\n      add\n        /* \"#utility.yul\":29492:29518   */\n      swap1\n      pop\n        /* \"#utility.yul\":29564:29573   */\n      dup2\n        /* \"#utility.yul\":29558:29562   */\n      dup2\n        /* \"#utility.yul\":29554:29574   */\n      sub\n        /* \"#utility.yul\":29550:29551   */\n      0x00\n        /* \"#utility.yul\":29539:29548   */\n      dup4\n        /* \"#utility.yul\":29535:29552   */\n      add\n        /* \"#utility.yul\":29528:29575   */\n      mstore\n        /* \"#utility.yul\":29592:29723   */\n      tag_754\n        /* \"#utility.yul\":29718:29722   */\n      dup2\n        /* \"#utility.yul\":29592:29723   */\n      tag_478\n      jump\t// in\n    tag_754:\n        /* \"#utility.yul\":29584:29723   */\n      swap1\n      pop\n        /* \"#utility.yul\":29311:29730   */\n      swap2\n      swap1\n      pop\n      jump\t// out\n\n    auxdata: 0xa26469706673582212205a28cc174cc1da3260b4b2ee38ec6d89abae552d46408aaeca3ade7e5557660c64736f6c63430008120033\n}\n",
				"bytecode": {
					"linkReferences": {},
					"object": "608060405234801561001057600080fd5b5033600460006101000a81548173ffffffffffffffffffffffffffffffffffffffff021916908373ffffffffffffffffffffffffffffffffffffffff160217905550613775806100616000396000f3fe608060405234801561001057600080fd5b50600436106101585760003560e01c806370a08231116100c3578063ba9a7a561161007c578063ba9a7a56146103f6578063bc25cf7714610414578063c45a015514610430578063d21220a71461044e578063dd62ed3e1461046c578063fff6cae91461049c57610158565b806370a08231146102f95780637464fc3d146103295780637ecebe001461034757806389afcb441461037757806395d89b41146103a8578063a9059cbb146103c657610158565b806323b872dd1161011557806323b872dd14610223578063313ce56714610253578063485cc955146102715780635909c0d51461028d5780635a3d5493146102ab5780636a627842146102c957610158565b8063022c0d9f1461015d57806306fdde03146101795780630902f1ac14610197578063095ea7b3146101b75780630dfe1681146101e757806318160ddd14610205575b600080fd5b610177600480360381019061017291906128b8565b6104a6565b005b610181610aa3565b60405161018e91906129d0565b60405180910390f35b61019f610adc565b6040516101ae93929190612a3a565b60405180910390f35b6101d160048036038101906101cc9190612a71565b610b39565b6040516101de9190612acc565b60405180910390f35b6101ef610b50565b6040516101fc9190612af6565b60405180910390f35b61020d610b76565b60405161021a9190612b20565b60405180910390f35b61023d60048036038101906102389190612b3b565b610b7c565b60405161024a9190612acc565b60405180910390f35b61025b610d47565b6040516102689190612baa565b60405180910390f35b61028b60048036038101906102869190612bc5565b610d4c565b005b610295610e62565b6040516102a29190612b20565b60405180910390f35b6102b3610e68565b6040516102c09190612b20565b60405180910390f35b6102e360048036038101906102de9190612c05565b610e6e565b6040516102f09190612b20565b60405180910390f35b610313600480360381019061030e9190612c05565b611202565b6040516103209190612b20565b60405180910390f35b61033161121a565b60405161033e9190612b20565b60405180910390f35b610361600480360381019061035c9190612c05565b611220565b60405161036e9190612b20565b60405180910390f35b610391600480360381019061038c9190612c05565b611238565b60405161039f929190612c32565b60405180910390f35b6103b061168d565b6040516103bd91906129d0565b60405180910390f35b6103e060048036038101906103db9190612a71565b6116c6565b6040516103ed9190612acc565b60405180910390f35b6103fe6116dd565b60405161040b9190612b20565b60405180910390f35b61042e60048036038101906104299190612c05565b6116e3565b005b6104386118ba565b6040516104459190612af6565b60405180910390f35b6104566118e0565b6040516104639190612af6565b60405180910390f35b61048660048036038101906104819190612bc5565b611906565b6040516104939190612b20565b60405180910390f35b6104a461192b565b005b60008511806104b55750600084115b6104f4576040517f08c379a00000000000000000000000000000000000000000000000000000000081526004016104eb90612ccd565b60405180910390fd5b6000806104ff610adc565b5091509150816dffffffffffffffffffffffffffff16871080156105325750806dffffffffffffffffffffffffffff1686105b610571576040517f08c379a000000000000000000000000000000000000000000000000000000000815260040161056890612d5f565b60405180910390fd5b6000806000600560009054906101000a900473ffffffffffffffffffffffffffffffffffffffff1690506000600660009054906101000a900473ffffffffffffffffffffffffffffffffffffffff1690508173ffffffffffffffffffffffffffffffffffffffff168973ffffffffffffffffffffffffffffffffffffffff161415801561062a57508073ffffffffffffffffffffffffffffffffffffffff168973ffffffffffffffffffffffffffffffffffffffff1614155b610669576040517f08c379a000000000000000000000000000000000000000000000000000000000815260040161066090612dcb565b60405180910390fd5b60008b111561067e5761067d828a8d611aa7565b5b60008a111561069357610692818a8c611aa7565b5b6000888890501115610713578873ffffffffffffffffffffffffffffffffffffffff166310d1e85c338d8d8c8c6040518663ffffffff1660e01b81526004016106e0959493929190612e38565b600060405180830381600087803b1580156106fa57600080fd5b505af115801561070e573d6000803e3d6000fd5b505050505b8173ffffffffffffffffffffffffffffffffffffffff166370a08231306040518263ffffffff1660e01b815260040161074c9190612af6565b602060405180830381865afa158015610769573d6000803e3d6000fd5b505050506040513d601f19601f8201168201806040525081019061078d9190612e9b565b93508073ffffffffffffffffffffffffffffffffffffffff166370a08231306040518263ffffffff1660e01b81526004016107c89190612af6565b602060405180830381865afa1580156107e5573d6000803e3d6000fd5b505050506040513d601f19601f820116820180604052508101906108099190612e9b565b92505050600089856dffffffffffffffffffffffffffff1661082b9190612ef7565b8311610838576000610860565b89856dffffffffffffffffffffffffffff166108549190612ef7565b8361085f9190612ef7565b5b9050600089856dffffffffffffffffffffffffffff166108809190612ef7565b831161088d5760006108b5565b89856dffffffffffffffffffffffffffff166108a99190612ef7565b836108b49190612ef7565b5b905060008211806108c65750600081115b610905576040517f08c379a00000000000000000000000000000000000000000000000000000000081526004016108fc90612f9d565b60405180910390fd5b600061094161091e600385611c3190919063ffffffff16565b6109336103e888611c3190919063ffffffff16565b611c9e90919063ffffffff16565b9050600061097f61095c600385611c3190919063ffffffff16565b6109716103e888611c3190919063ffffffff16565b611c9e90919063ffffffff16565b90506109c9620f42406109bb896dffffffffffffffffffffffffffff168b6dffffffffffffffffffffffffffff16611c3190919063ffffffff16565b611c3190919063ffffffff16565b6109dc8284611c3190919063ffffffff16565b1015610a1d576040517f08c379a0000000000000000000000000000000000000000000000000000000008152600401610a1490613009565b60405180910390fd5b5050610a2b84848888611cf7565b8873ffffffffffffffffffffffffffffffffffffffff163373ffffffffffffffffffffffffffffffffffffffff167fd78ad95fa46c994b6551d0da85fc275fe613ce37657fb8d5e3d130840159d82284848f8f604051610a8e9493929190613029565b60405180910390a35050505050505050505050565b6040518060400160405280600a81526020017f556e69737761702056320000000000000000000000000000000000000000000081525081565b6000806000600760009054906101000a90046dffffffffffffffffffffffffffff1692506007600e9054906101000a90046dffffffffffffffffffffffffffff1691506007601c9054906101000a900463ffffffff169050909192565b6000610b46338484611feb565b6001905092915050565b600560009054906101000a900473ffffffffffffffffffffffffffffffffffffffff1681565b60005481565b60007fffffffffffffffffffffffffffffffffffffffffffffffffffffffffffffffff600260008673ffffffffffffffffffffffffffffffffffffffff1673ffffffffffffffffffffffffffffffffffffffff16815260200190815260200160002060003373ffffffffffffffffffffffffffffffffffffffff1673ffffffffffffffffffffffffffffffffffffffff1681526020019081526020016000205414610d3157610cb082600260008773ffffffffffffffffffffffffffffffffffffffff1673ffffffffffffffffffffffffffffffffffffffff16815260200190815260200160002060003373ffffffffffffffffffffffffffffffffffffffff1673ffffffffffffffffffffffffffffffffffffffff16815260200190815260200160002054611c9e90919063ffffffff16565b600260008673ffffffffffffffffffffffffffffffffffffffff1673ffffffffffffffffffffffffffffffffffffffff16815260200190815260200160002060003373ffffffffffffffffffffffffffffffffffffffff1673ffffffffffffffffffffffffffffffffffffffff168152602001908152602001600020819055505b610d3c8484846120d6565b600190509392505050565b601281565b600460009054906101000a900473ffffffffffffffffffffffffffffffffffffffff1673ffffffffffffffffffffffffffffffffffffffff163373ffffffffffffffffffffffffffffffffffffffff1614610ddc576040517f08c379a0000000000000000000000000000000000000000000000000000000008152600401610dd3906130ba565b60405180910390fd5b81600560006101000a81548173ffffffffffffffffffffffffffffffffffffffff021916908373ffffffffffffffffffffffffffffffffffffffff16021790555080600660006101000a81548173ffffffffffffffffffffffffffffffffffffffff021916908373ffffffffffffffffffffffffffffffffffffffff1602179055505050565b60085481565b60095481565b6000806000610e7b610adc565b50915091506000600560009054906101000a900473ffffffffffffffffffffffffffffffffffffffff1673ffffffffffffffffffffffffffffffffffffffff166370a08231306040518263ffffffff1660e01b8152600401610edd9190612af6565b602060405180830381865afa158015610efa573d6000803e3d6000fd5b505050506040513d601f19601f82011682018060405250810190610f1e9190612e9b565b90506000600660009054906101000a900473ffffffffffffffffffffffffffffffffffffffff1673ffffffffffffffffffffffffffffffffffffffff166370a08231306040518263ffffffff1660e01b8152600401610f7d9190612af6565b602060405180830381865afa158015610f9a573d6000803e3d6000fd5b505050506040513d601f19601f82011682018060405250810190610fbe9190612e9b565b90506000610fe5856dffffffffffffffffffffffffffff1684611c9e90919063ffffffff16565b9050600061100c856dffffffffffffffffffffffffffff1684611c9e90919063ffffffff16565b9050600061101a878761226a565b90506000805490506000810361106d576110596103e861104b6110468688611c3190919063ffffffff16565b61243b565b611c9e90919063ffffffff16565b985061106860006103e86124b5565b6110d4565b6110d1886dffffffffffffffffffffffffffff166110948387611c3190919063ffffffff16565b61109e9190613109565b886dffffffffffffffffffffffffffff166110c28487611c3190919063ffffffff16565b6110cc9190613109565b6125cf565b98505b60008911611117576040517f08c379a000000000000000000000000000000000000000000000000000000000815260040161110e906131ac565b60405180910390fd5b6111218a8a6124b5565b61112d86868a8a611cf7565b81156111a55761119e6007600e9054906101000a90046dffffffffffffffffffffffffffff166dffffffffffffffffffffffffffff16600760009054906101000a90046dffffffffffffffffffffffffffff166dffffffffffffffffffffffffffff16611c3190919063ffffffff16565b600a819055505b3373ffffffffffffffffffffffffffffffffffffffff167f4c209b5fc8ad50758f13e2e1088ba56a560dff690a1c6fef26394f4c03821c4f85856040516111ed929190612c32565b60405180910390a25050505050505050919050565b60016020528060005260406000206000915090505481565b600a5481565b60036020528060005260406000206000915090505481565b600080600080611246610adc565b50915091506000600560009054906101000a900473ffffffffffffffffffffffffffffffffffffffff1690506000600660009054906101000a900473ffffffffffffffffffffffffffffffffffffffff16905060008273ffffffffffffffffffffffffffffffffffffffff166370a08231306040518263ffffffff1660e01b81526004016112d49190612af6565b602060405180830381865afa1580156112f1573d6000803e3d6000fd5b505050506040513d601f19601f820116820180604052508101906113159190612e9b565b905060008273ffffffffffffffffffffffffffffffffffffffff166370a08231306040518263ffffffff1660e01b81526004016113529190612af6565b602060405180830381865afa15801561136f573d6000803e3d6000fd5b505050506040513d601f19601f820116820180604052508101906113939190612e9b565b90506000600160003073ffffffffffffffffffffffffffffffffffffffff1673ffffffffffffffffffffffffffffffffffffffff16815260200190815260200160002054905060006113e5888861226a565b9050600080549050806114018685611c3190919063ffffffff16565b61140b9190613109565b9a50806114218585611c3190919063ffffffff16565b61142b9190613109565b995060008b11801561143d575060008a115b61147c576040517f08c379a00000000000000000000000000000000000000000000000000000000081526004016114739061323e565b60405180910390fd5b61148630846125e8565b611491878d8d611aa7565b61149c868d8c611aa7565b8673ffffffffffffffffffffffffffffffffffffffff166370a08231306040518263ffffffff1660e01b81526004016114d59190612af6565b602060405180830381865afa1580156114f2573d6000803e3d6000fd5b505050506040513d601f19601f820116820180604052508101906115169190612e9b565b94508573ffffffffffffffffffffffffffffffffffffffff166370a08231306040518263ffffffff1660e01b81526004016115519190612af6565b602060405180830381865afa15801561156e573d6000803e3d6000fd5b505050506040513d601f19601f820116820180604052508101906115929190612e9b565b93506115a085858b8b611cf7565b8115611618576116116007600e9054906101000a90046dffffffffffffffffffffffffffff166dffffffffffffffffffffffffffff16600760009054906101000a90046dffffffffffffffffffffffffffff166dffffffffffffffffffffffffffff16611c3190919063ffffffff16565b600a819055505b8b73ffffffffffffffffffffffffffffffffffffffff163373ffffffffffffffffffffffffffffffffffffffff167fdccd412f0b1252819cb1fd330b93224ca42612892bb3f4f789976e6d819364968d8d604051611677929190612c32565b60405180910390a3505050505050505050915091565b6040518060400160405280600681526020017f554e492d5632000000000000000000000000000000000000000000000000000081525081565b60006116d33384846120d6565b6001905092915050565b6103e881565b6000600560009054906101000a900473ffffffffffffffffffffffffffffffffffffffff1690506000600660009054906101000a900473ffffffffffffffffffffffffffffffffffffffff1690506117f382846117ee600760009054906101000a90046dffffffffffffffffffffffffffff166dffffffffffffffffffffffffffff168673ffffffffffffffffffffffffffffffffffffffff166370a08231306040518263ffffffff1660e01b815260040161179f9190612af6565b602060405180830381865afa1580156117bc573d6000803e3d6000fd5b505050506040513d601f19601f820116820180604052508101906117e09190612e9b565b611c9e90919063ffffffff16565b611aa7565b6118b581846118b06007600e9054906101000a90046dffffffffffffffffffffffffffff166dffffffffffffffffffffffffffff168573ffffffffffffffffffffffffffffffffffffffff166370a08231306040518263ffffffff1660e01b81526004016118619190612af6565b602060405180830381865afa15801561187e573d6000803e3d6000fd5b505050506040513d601f19601f820116820180604052508101906118a29190612e9b565b611c9e90919063ffffffff16565b611aa7565b505050565b600460009054906101000a900473ffffffffffffffffffffffffffffffffffffffff1681565b600660009054906101000a900473ffffffffffffffffffffffffffffffffffffffff1681565b6002602052816000526040600020602052806000526040600020600091509150505481565b611aa5600560009054906101000a900473ffffffffffffffffffffffffffffffffffffffff1673ffffffffffffffffffffffffffffffffffffffff166370a08231306040518263ffffffff1660e01b81526004016119899190612af6565b602060405180830381865afa1580156119a6573d6000803e3d6000fd5b505050506040513d601f19601f820116820180604052508101906119ca9190612e9b565b600660009054906101000a900473ffffffffffffffffffffffffffffffffffffffff1673ffffffffffffffffffffffffffffffffffffffff166370a08231306040518263ffffffff1660e01b8152600401611a259190612af6565b602060405180830381865afa158015611a42573d6000803e3d6000fd5b505050506040513d601f19601f82011682018060405250810190611a669190612e9b565b600760009054906101000a90046dffffffffffffffffffffffffffff166007600e9054906101000a90046dffffffffffffffffffffffffffff16611cf7565b565b6000808473ffffffffffffffffffffffffffffffffffffffff166040518060400160405280601981526020017f7472616e7366657228616464726573732c75696e743235362900000000000000815250805190602001208585604051602401611b1192919061325e565b604051602081830303815290604052907bffffffffffffffffffffffffffffffffffffffffffffffffffffffff19166020820180517bffffffffffffffffffffffffffffffffffffffffffffffffffffffff8381831617835250505050604051611b7b91906132ce565b6000604051808303816000865af19150503d8060008114611bb8576040519150601f19603f3d011682016040523d82523d6000602084013e611bbd565b606091505b5091509150818015611beb5750600081511480611bea575080806020019051810190611be99190613311565b5b5b611c2a576040517f08c379a0000000000000000000000000000000000000000000000000000000008152600401611c219061338a565b60405180910390fd5b5050505050565b600080821480611c59575082828385611c4a91906133aa565b925082611c579190613109565b145b611c98576040517f08c379a0000000000000000000000000000000000000000000000000000000008152600401611c8f90613438565b60405180910390fd5b92915050565b6000828284611cad9190612ef7565b9150811115611cf1576040517f08c379a0000000000000000000000000000000000000000000000000000000008152600401611ce8906134a4565b60405180910390fd5b92915050565b6dffffffffffffffffffffffffffff80168411158015611d2757506dffffffffffffffffffffffffffff80168311155b611d66576040517f08c379a0000000000000000000000000000000000000000000000000000000008152600401611d5d90613510565b60405180910390fd5b600064010000000042611d799190613530565b905060006007601c9054906101000a900463ffffffff1682611d9b9190613561565b905060008163ffffffff16118015611dc457506000846dffffffffffffffffffffffffffff1614155b8015611de157506000836dffffffffffffffffffffffffffff1614155b15611ee7578063ffffffff16611e2685611dfa86612702565b7bffffffffffffffffffffffffffffffffffffffffffffffffffffffff1661273690919063ffffffff16565b7bffffffffffffffffffffffffffffffffffffffffffffffffffffffff16611e4e91906133aa565b60086000828254611e5f9190613599565b925050819055508063ffffffff16611ea684611e7a87612702565b7bffffffffffffffffffffffffffffffffffffffffffffffffffffffff1661273690919063ffffffff16565b7bffffffffffffffffffffffffffffffffffffffffffffffffffffffff16611ece91906133aa565b60096000828254611edf9190613599565b925050819055505b85600760006101000a8154816dffffffffffffffffffffffffffff02191690836dffffffffffffffffffffffffffff160217905550846007600e6101000a8154816dffffffffffffffffffffffffffff02191690836dffffffffffffffffffffffffffff160217905550816007601c6101000a81548163ffffffff021916908363ffffffff1602179055507f1c411e9a96e071241c2f21f7726b17ae89e3cab4c78be50e062b03a9fffbbad1600760009054906101000a90046dffffffffffffffffffffffffffff166007600e9054906101000a90046dffffffffffffffffffffffffffff16604051611fdb9291906135cd565b60405180910390a1505050505050565b80600260008573ffffffffffffffffffffffffffffffffffffffff1673ffffffffffffffffffffffffffffffffffffffff16815260200190815260200160002060008473ffffffffffffffffffffffffffffffffffffffff1673ffffffffffffffffffffffffffffffffffffffff168152602001908152602001600020819055508173ffffffffffffffffffffffffffffffffffffffff168373ffffffffffffffffffffffffffffffffffffffff167f8c5be1e5ebec7d5bd14f71427d1e84f3dd0314c0f7b2291e5b200ac8c7c3b925836040516120c99190612b20565b60405180910390a3505050565b61212881600160008673ffffffffffffffffffffffffffffffffffffffff1673ffffffffffffffffffffffffffffffffffffffff16815260200190815260200160002054611c9e90919063ffffffff16565b600160008573ffffffffffffffffffffffffffffffffffffffff1673ffffffffffffffffffffffffffffffffffffffff168152602001908152602001600020819055506121bd81600160008573ffffffffffffffffffffffffffffffffffffffff1673ffffffffffffffffffffffffffffffffffffffff1681526020019081526020016000205461275c90919063ffffffff16565b600160008473ffffffffffffffffffffffffffffffffffffffff1673ffffffffffffffffffffffffffffffffffffffff168152602001908152602001600020819055508173ffffffffffffffffffffffffffffffffffffffff168373ffffffffffffffffffffffffffffffffffffffff167fddf252ad1be2c89b69c2b068fc378daa952ba7f163c4a11628f55a4df523b3ef8360405161225d9190612b20565b60405180910390a3505050565b600080600460009054906101000a900473ffffffffffffffffffffffffffffffffffffffff1673ffffffffffffffffffffffffffffffffffffffff1663017e7e586040518163ffffffff1660e01b8152600401602060405180830381865afa1580156122da573d6000803e3d6000fd5b505050506040513d601f19601f820116820180604052508101906122fe919061360b565b9050600073ffffffffffffffffffffffffffffffffffffffff168173ffffffffffffffffffffffffffffffffffffffff16141591506000600a5490508215612421576000811461241c576000612385612380866dffffffffffffffffffffffffffff16886dffffffffffffffffffffffffffff16611c3190919063ffffffff16565b61243b565b905060006123928361243b565b9050808211156124195760006123c56123b48385611c9e90919063ffffffff16565b600054611c3190919063ffffffff16565b905060006123ef836123e1600587611c3190919063ffffffff16565b61275c90919063ffffffff16565b9050600081836123ff9190613109565b905060008111156124155761241487826124b5565b5b5050505b50505b612433565b60008114612432576000600a819055505b5b505092915050565b600060038211156124a2578190506000600160028461245a9190613109565b6124649190613599565b90505b8181101561249c5780915060028182856124819190613109565b61248b9190613599565b6124959190613109565b9050612467565b506124b0565b600082146124af57600190505b5b919050565b6124ca8160005461275c90919063ffffffff16565b60008190555061252281600160008573ffffffffffffffffffffffffffffffffffffffff1673ffffffffffffffffffffffffffffffffffffffff1681526020019081526020016000205461275c90919063ffffffff16565b600160008473ffffffffffffffffffffffffffffffffffffffff1673ffffffffffffffffffffffffffffffffffffffff168152602001908152602001600020819055508173ffffffffffffffffffffffffffffffffffffffff16600073ffffffffffffffffffffffffffffffffffffffff167fddf252ad1be2c89b69c2b068fc378daa952ba7f163c4a11628f55a4df523b3ef836040516125c39190612b20565b60405180910390a35050565b60008183106125de57816125e0565b825b905092915050565b61263a81600160008573ffffffffffffffffffffffffffffffffffffffff1673ffffffffffffffffffffffffffffffffffffffff16815260200190815260200160002054611c9e90919063ffffffff16565b600160008473ffffffffffffffffffffffffffffffffffffffff1673ffffffffffffffffffffffffffffffffffffffff1681526020019081526020016000208190555061269281600054611c9e90919063ffffffff16565b600081905550600073ffffffffffffffffffffffffffffffffffffffff168273ffffffffffffffffffffffffffffffffffffffff167fddf252ad1be2c89b69c2b068fc378daa952ba7f163c4a11628f55a4df523b3ef836040516126f69190612b20565b60405180910390a35050565b60006e010000000000000000000000000000826dffffffffffffffffffffffffffff1661272f9190613660565b9050919050565b6000816dffffffffffffffffffffffffffff168361275491906136a2565b905092915050565b600082828461276b9190613599565b91508110156127af576040517f08c379a00000000000000000000000000000000000000000000000000000000081526004016127a69061371f565b60405180910390fd5b92915050565b600080fd5b600080fd5b6000819050919050565b6127d2816127bf565b81146127dd57600080fd5b50565b6000813590506127ef816127c9565b92915050565b600073ffffffffffffffffffffffffffffffffffffffff82169050919050565b6000612820826127f5565b9050919050565b61283081612815565b811461283b57600080fd5b50565b60008135905061284d81612827565b92915050565b600080fd5b600080fd5b600080fd5b60008083601f84011261287857612877612853565b5b8235905067ffffffffffffffff81111561289557612894612858565b5b6020830191508360018202830111156128b1576128b061285d565b5b9250929050565b6000806000806000608086880312156128d4576128d36127b5565b5b60006128e2888289016127e0565b95505060206128f3888289016127e0565b94505060406129048882890161283e565b935050606086013567ffffffffffffffff811115612925576129246127ba565b5b61293188828901612862565b92509250509295509295909350565b600081519050919050565b600082825260208201905092915050565b60005b8381101561297a57808201518184015260208101905061295f565b60008484015250505050565b6000601f19601f8301169050919050565b60006129a282612940565b6129ac818561294b565b93506129bc81856020860161295c565b6129c581612986565b840191505092915050565b600060208201905081810360008301526129ea8184612997565b905092915050565b60006dffffffffffffffffffffffffffff82169050919050565b612a15816129f2565b82525050565b600063ffffffff82169050919050565b612a3481612a1b565b82525050565b6000606082019050612a4f6000830186612a0c565b612a5c6020830185612a0c565b612a696040830184612a2b565b949350505050565b60008060408385031215612a8857612a876127b5565b5b6000612a968582860161283e565b9250506020612aa7858286016127e0565b9150509250929050565b60008115159050919050565b612ac681612ab1565b82525050565b6000602082019050612ae16000830184612abd565b92915050565b612af081612815565b82525050565b6000602082019050612b0b6000830184612ae7565b92915050565b612b1a816127bf565b82525050565b6000602082019050612b356000830184612b11565b92915050565b600080600060608486031215612b5457612b536127b5565b5b6000612b628682870161283e565b9350506020612b738682870161283e565b9250506040612b84868287016127e0565b9150509250925092565b600060ff82169050919050565b612ba481612b8e565b82525050565b6000602082019050612bbf6000830184612b9b565b92915050565b60008060408385031215612bdc57612bdb6127b5565b5b6000612bea8582860161283e565b9250506020612bfb8582860161283e565b9150509250929050565b600060208284031215612c1b57612c1a6127b5565b5b6000612c298482850161283e565b91505092915050565b6000604082019050612c476000830185612b11565b612c546020830184612b11565b9392505050565b7f556e697377617056323a20494e53554646494349454e545f4f55545055545f4160008201527f4d4f554e54000000000000000000000000000000000000000000000000000000602082015250565b6000612cb760258361294b565b9150612cc282612c5b565b604082019050919050565b60006020820190508181036000830152612ce681612caa565b9050919050565b7f556e697377617056323a20494e53554646494349454e545f4c4951554944495460008201527f5900000000000000000000000000000000000000000000000000000000000000602082015250565b6000612d4960218361294b565b9150612d5482612ced565b604082019050919050565b60006020820190508181036000830152612d7881612d3c565b9050919050565b7f556e697377617056323a20494e56414c49445f544f0000000000000000000000600082015250565b6000612db560158361294b565b9150612dc082612d7f565b602082019050919050565b60006020820190508181036000830152612de481612da8565b9050919050565b600082825260208201905092915050565b82818337600083830152505050565b6000612e178385612deb565b9350612e24838584612dfc565b612e2d83612986565b840190509392505050565b6000608082019050612e4d6000830188612ae7565b612e5a6020830187612b11565b612e676040830186612b11565b8181036060830152612e7a818486612e0b565b90509695505050505050565b600081519050612e95816127c9565b92915050565b600060208284031215612eb157612eb06127b5565b5b6000612ebf84828501612e86565b91505092915050565b7f4e487b7100000000000000000000000000000000000000000000000000000000600052601160045260246000fd5b6000612f02826127bf565b9150612f0d836127bf565b9250828203905081811115612f2557612f24612ec8565b5b92915050565b7f556e697377617056323a20494e53554646494349454e545f494e5055545f414d60008201527f4f554e5400000000000000000000000000000000000000000000000000000000602082015250565b6000612f8760248361294b565b9150612f9282612f2b565b604082019050919050565b60006020820190508181036000830152612fb681612f7a565b9050919050565b7f556e697377617056323a204b0000000000000000000000000000000000000000600082015250565b6000612ff3600c8361294b565b9150612ffe82612fbd565b602082019050919050565b6000602082019050818103600083015261302281612fe6565b9050919050565b600060808201905061303e6000830187612b11565b61304b6020830186612b11565b6130586040830185612b11565b6130656060830184612b11565b95945050505050565b7f556e697377617056323a20464f5242494444454e000000000000000000000000600082015250565b60006130a460148361294b565b91506130af8261306e565b602082019050919050565b600060208201905081810360008301526130d381613097565b9050919050565b7f4e487b7100000000000000000000000000000000000000000000000000000000600052601260045260246000fd5b6000613114826127bf565b915061311f836127bf565b92508261312f5761312e6130da565b5b828204905092915050565b7f556e697377617056323a20494e53554646494349454e545f4c4951554944495460008201527f595f4d494e544544000000000000000000000000000000000000000000000000602082015250565b600061319660288361294b565b91506131a18261313a565b604082019050919050565b600060208201905081810360008301526131c581613189565b9050919050565b7f556e697377617056323a20494e53554646494349454e545f4c4951554944495460008201527f595f4255524e4544000000000000000000000000000000000000000000000000602082015250565b600061322860288361294b565b9150613233826131cc565b604082019050919050565b600060208201905081810360008301526132578161321b565b9050919050565b60006040820190506132736000830185612ae7565b6132806020830184612b11565b9392505050565b600081519050919050565b600081905092915050565b60006132a882613287565b6132b28185613292565b93506132c281856020860161295c565b80840191505092915050565b60006132da828461329d565b915081905092915050565b6132ee81612ab1565b81146132f957600080fd5b50565b60008151905061330b816132e5565b92915050565b600060208284031215613327576133266127b5565b5b6000613335848285016132fc565b91505092915050565b7f556e697377617056323a205452414e534645525f4641494c4544000000000000600082015250565b6000613374601a8361294b565b915061337f8261333e565b602082019050919050565b600060208201905081810360008301526133a381613367565b9050919050565b60006133b5826127bf565b91506133c0836127bf565b92508282026133ce816127bf565b915082820484148315176133e5576133e4612ec8565b5b5092915050565b7f64732d6d6174682d6d756c2d6f766572666c6f77000000000000000000000000600082015250565b600061342260148361294b565b915061342d826133ec565b602082019050919050565b6000602082019050818103600083015261345181613415565b9050919050565b7f64732d6d6174682d7375622d756e646572666c6f770000000000000000000000600082015250565b600061348e60158361294b565b915061349982613458565b602082019050919050565b600060208201905081810360008301526134bd81613481565b9050919050565b7f556e697377617056323a204f564552464c4f5700000000000000000000000000600082015250565b60006134fa60138361294b565b9150613505826134c4565b602082019050919050565b60006020820190508181036000830152613529816134ed565b9050919050565b600061353b826127bf565b9150613546836127bf565b925082613556576135556130da565b5b828206905092915050565b600061356c82612a1b565b915061357783612a1b565b9250828203905063ffffffff81111561359357613592612ec8565b5b92915050565b60006135a4826127bf565b91506135af836127bf565b92508282019050808211156135c7576135c6612ec8565b5b92915050565b60006040820190506135e26000830185612a0c565b6135ef6020830184612a0c565b9392505050565b60008151905061360581612827565b92915050565b600060208284031215613621576136206127b5565b5b600061362f848285016135f6565b91505092915050565b60007bffffffffffffffffffffffffffffffffffffffffffffffffffffffff82169050919050565b600061366b82613638565b915061367683613638565b925082820261368481613638565b9150828204841483151761369b5761369a612ec8565b5b5092915050565b60006136ad82613638565b91506136b883613638565b9250826136c8576136c76130da565b5b828204905092915050565b7f64732d6d6174682d6164642d6f766572666c6f77000000000000000000000000600082015250565b600061370960148361294b565b9150613714826136d3565b602082019050919050565b60006020820190508181036000830152613738816136fc565b905091905056fea26469706673582212205a28cc174cc1da3260b4b2ee38ec6d89abae552d46408aaeca3ade7e5557660c64736f6c63430008120033",
					"opcodes": "PUSH1 0x80 PUSH1 0x40 MSTORE CALLVALUE DUP1 ISZERO PUSH2 0x10 JUMPI PUSH1 0x0 DUP1 REVERT JUMPDEST POP CALLER PUSH1 0x4 PUSH1 0x0 PUSH2 0x100 EXP DUP2 SLOAD DUP2 PUSH20 0xFFFFFFFFFFFFFFFFFFFFFFFFFFFFFFFFFFFFFFFF MUL NOT AND SWAP1 DUP4 PUSH20 0xFFFFFFFFFFFFFFFFFFFFFFFFFFFFFFFFFFFFFFFF AND MUL OR SWAP1 SSTORE POP PUSH2 0x3775 DUP1 PUSH2 0x61 PUSH1 0x0 CODECOPY PUSH1 0x0 RETURN INVALID PUSH1 0x80 PUSH1 0x40 MSTORE CALLVALUE DUP1 ISZERO PUSH2 0x10 JUMPI PUSH1 0x0 DUP1 REVERT JUMPDEST POP PUSH1 0x4 CALLDATASIZE LT PUSH2 0x158 JUMPI PUSH1 0x0 CALLDATALOAD PUSH1 0xE0 SHR DUP1 PUSH4 0x70A08231 GT PUSH2 0xC3 JUMPI DUP1 PUSH4 0xBA9A7A56 GT PUSH2 0x7C JUMPI DUP1 PUSH4 0xBA9A7A56 EQ PUSH2 0x3F6 JUMPI DUP1 PUSH4 0xBC25CF77 EQ PUSH2 0x414 JUMPI DUP1 PUSH4 0xC45A0155 EQ PUSH2 0x430 JUMPI DUP1 PUSH4 0xD21220A7 EQ PUSH2 0x44E JUMPI DUP1 PUSH4 0xDD62ED3E EQ PUSH2 0x46C JUMPI DUP1 PUSH4 0xFFF6CAE9 EQ PUSH2 0x49C JUMPI PUSH2 0x158 JUMP JUMPDEST DUP1 PUSH4 0x70A08231 EQ PUSH2 0x2F9 JUMPI DUP1 PUSH4 0x7464FC3D EQ PUSH2 0x329 JUMPI DUP1 PUSH4 0x7ECEBE00 EQ PUSH2 0x347 JUMPI DUP1 PUSH4 0x89AFCB44 EQ PUSH2 0x377 JUMPI DUP1 PUSH4 0x95D89B41 EQ PUSH2 0x3A8 JUMPI DUP1 PUSH4 0xA9059CBB EQ PUSH2 0x3C6 JUMPI PUSH2 0x158 JUMP JUMPDEST DUP1 PUSH4 0x23B872DD GT PUSH2 0x115 JUMPI DUP1 PUSH4 0x23B872DD EQ PUSH2 0x223 JUMPI DUP1 PUSH4 0x313CE567 EQ PUSH2 0x253 JUMPI DUP1 PUSH4 0x485CC955 EQ PUSH2 0x271 JUMPI DUP1 PUSH4 0x5909C0D5 EQ PUSH2 0x28D JUMPI DUP1 PUSH4 0x5A3D5493 EQ PUSH2 0x2AB JUMPI DUP1 PUSH4 0x6A627842 EQ PUSH2 0x2C9 JUMPI PUSH2 0x158 JUMP JUMPDEST DUP1 PUSH4 0x22C0D9F EQ PUSH2 0x15D JUMPI DUP1 PUSH4 0x6FDDE03 EQ PUSH2 0x179 JUMPI DUP1 PUSH4 0x902F1AC EQ PUSH2 0x197 JUMPI DUP1 PUSH4 0x95EA7B3 EQ PUSH2 0x1B7 JUMPI DUP1 PUSH4 0xDFE1681 EQ PUSH2 0x1E7 JUMPI DUP1 PUSH4 0x18160DDD EQ PUSH2 0x205 JUMPI JUMPDEST PUSH1 0x0 DUP1 REVERT JUMPDEST PUSH2 0x177 PUSH1 0x4 DUP1 CALLDATASIZE SUB DUP2 ADD SWAP1 PUSH2 0x172 SWAP2 SWAP1 PUSH2 0x28B8 JUMP JUMPDEST PUSH2 0x4A6 JUMP JUMPDEST STOP JUMPDEST PUSH2 0x181 PUSH2 0xAA3 JUMP JUMPDEST PUSH1 0x40 MLOAD PUSH2 0x18E SWAP2 SWAP1 PUSH2 0x29D0 JUMP JUMPDEST PUSH1 0x40 MLOAD DUP1 SWAP2 SUB SWAP1 RETURN JUMPDEST PUSH2 0x19F PUSH2 0xADC JUMP JUMPDEST PUSH1 0x40 MLOAD PUSH2 0x1AE SWAP4 SWAP3 SWAP2 SWAP1 PUSH2 0x2A3A JUMP JUMPDEST PUSH1 0x40 MLOAD DUP1 SWAP2 SUB SWAP1 RETURN JUMPDEST PUSH2 0x1D1 PUSH1 0x4 DUP1 CALLDATASIZE SUB DUP2 ADD SWAP1 PUSH2 0x1CC SWAP2 SWAP1 PUSH2 0x2A71 JUMP JUMPDEST PUSH2 0xB39 JUMP JUMPDEST PUSH1 0x40 MLOAD PUSH2 0x1DE SWAP2 SWAP1 PUSH2 0x2ACC JUMP JUMPDEST PUSH1 0x40 MLOAD DUP1 SWAP2 SUB SWAP1 RETURN JUMPDEST PUSH2 0x1EF PUSH2 0xB50 JUMP JUMPDEST PUSH1 0x40 MLOAD PUSH2 0x1FC SWAP2 SWAP1 PUSH2 0x2AF6 JUMP JUMPDEST PUSH1 0x40 MLOAD DUP1 SWAP2 SUB SWAP1 RETURN JUMPDEST PUSH2 0x20D PUSH2 0xB76 JUMP JUMPDEST PUSH1 0x40 MLOAD PUSH2 0x21A SWAP2 SWAP1 PUSH2 0x2B20 JUMP JUMPDEST PUSH1 0x40 MLOAD DUP1 SWAP2 SUB SWAP1 RETURN JUMPDEST PUSH2 0x23D PUSH1 0x4 DUP1 CALLDATASIZE SUB DUP2 ADD SWAP1 PUSH2 0x238 SWAP2 SWAP1 PUSH2 0x2B3B JUMP JUMPDEST PUSH2 0xB7C JUMP JUMPDEST PUSH1 0x40 MLOAD PUSH2 0x24A SWAP2 SWAP1 PUSH2 0x2ACC JUMP JUMPDEST PUSH1 0x40 MLOAD DUP1 SWAP2 SUB SWAP1 RETURN JUMPDEST PUSH2 0x25B PUSH2 0xD47 JUMP JUMPDEST PUSH1 0x40 MLOAD PUSH2 0x268 SWAP2 SWAP1 PUSH2 0x2BAA JUMP JUMPDEST PUSH1 0x40 MLOAD DUP1 SWAP2 SUB SWAP1 RETURN JUMPDEST PUSH2 0x28B PUSH1 0x4 DUP1 CALLDATASIZE SUB DUP2 ADD SWAP1 PUSH2 0x286 SWAP2 SWAP1 PUSH2 0x2BC5 JUMP JUMPDEST PUSH2 0xD4C JUMP JUMPDEST STOP JUMPDEST PUSH2 0x295 PUSH2 0xE62 JUMP JUMPDEST PUSH1 0x40 MLOAD PUSH2 0x2A2 SWAP2 SWAP1 PUSH2 0x2B20 JUMP JUMPDEST PUSH1 0x40 MLOAD DUP1 SWAP2 SUB SWAP1 RETURN JUMPDEST PUSH2 0x2B3 PUSH2 0xE68 JUMP JUMPDEST PUSH1 0x40 MLOAD PUSH2 0x2C0 SWAP2 SWAP1 PUSH2 0x2B20 JUMP JUMPDEST PUSH1 0x40 MLOAD DUP1 SWAP2 SUB SWAP1 RETURN JUMPDEST PUSH2 0x2E3 PUSH1 0x4 DUP1 CALLDATASIZE SUB DUP2 ADD SWAP1 PUSH2 0x2DE SWAP2 SWAP1 PUSH2 0x2C05 JUMP JUMPDEST PUSH2 0xE6E JUMP JUMPDEST PUSH1 0x40 MLOAD PUSH2 0x2F0 SWAP2 SWAP1 PUSH2 0x2B20 JUMP JUMPDEST PUSH1 0x40 MLOAD DUP1 SWAP2 SUB SWAP1 RETURN JUMPDEST PUSH2 0x313 PUSH1 0x4 DUP1 CALLDATASIZE SUB DUP2 ADD SWAP1 PUSH2 0x30E SWAP2 SWAP1 PUSH2 0x2C05 JUMP JUMPDEST PUSH2 0x1202 JUMP JUMPDEST PUSH1 0x40 MLOAD PUSH2 0x320 SWAP2 SWAP1 PUSH2 0x2B20 JUMP JUMPDEST PUSH1 0x40 MLOAD DUP1 SWAP2 SUB SWAP1 RETURN JUMPDEST PUSH2 0x331 PUSH2 0x121A JUMP JUMPDEST PUSH1 0x40 MLOAD PUSH2 0x33E SWAP2 SWAP1 PUSH2 0x2B20 JUMP JUMPDEST PUSH1 0x40 MLOAD DUP1 SWAP2 SUB SWAP1 RETURN JUMPDEST PUSH2 0x361 PUSH1 0x4 DUP1 CALLDATASIZE SUB DUP2 ADD SWAP1 PUSH2 0x35C SWAP2 SWAP1 PUSH2 0x2C05 JUMP JUMPDEST PUSH2 0x1220 JUMP JUMPDEST PUSH1 0x40 MLOAD PUSH2 0x36E SWAP2 SWAP1 PUSH2 0x2B20 JUMP JUMPDEST PUSH1 0x40 MLOAD DUP1 SWAP2 SUB SWAP1 RETURN JUMPDEST PUSH2 0x391 PUSH1 0x4 DUP1 CALLDATASIZE SUB DUP2 ADD SWAP1 PUSH2 0x38C SWAP2 SWAP1 PUSH2 0x2C05 JUMP JUMPDEST PUSH2 0x1238 JUMP JUMPDEST PUSH1 0x40 MLOAD PUSH2 0x39F SWAP3 SWAP2 SWAP1 PUSH2 0x2C32 JUMP JUMPDEST PUSH1 0x40 MLOAD DUP1 SWAP2 SUB SWAP1 RETURN JUMPDEST PUSH2 0x3B0 PUSH2 0x168D JUMP JUMPDEST PUSH1 0x40 MLOAD PUSH2 0x3BD SWAP2 SWAP1 PUSH2 0x29D0 JUMP JUMPDEST PUSH1 0x40 MLOAD DUP1 SWAP2 SUB SWAP1 RETURN JUMPDEST PUSH2 0x3E0 PUSH1 0x4 DUP1 CALLDATASIZE SUB DUP2 ADD SWAP1 PUSH2 0x3DB SWAP2 SWAP1 PUSH2 0x2A71 JUMP JUMPDEST PUSH2 0x16C6 JUMP JUMPDEST PUSH1 0x40 MLOAD PUSH2 0x3ED SWAP2 SWAP1 PUSH2 0x2ACC JUMP JUMPDEST PUSH1 0x40 MLOAD DUP1 SWAP2 SUB SWAP1 RETURN JUMPDEST PUSH2 0x3FE PUSH2 0x16DD JUMP JUMPDEST PUSH1 0x40 MLOAD PUSH2 0x40B SWAP2 SWAP1 PUSH2 0x2B20 JUMP JUMPDEST PUSH1 0x40 MLOAD DUP1 SWAP2 SUB SWAP1 RETURN JUMPDEST PUSH2 0x42E PUSH1 0x4 DUP1 CALLDATASIZE SUB DUP2 ADD SWAP1 PUSH2 0x429 SWAP2 SWAP1 PUSH2 0x2C05 JUMP JUMPDEST PUSH2 0x16E3 JUMP JUMPDEST STOP JUMPDEST PUSH2 0x438 PUSH2 0x18BA JUMP JUMPDEST PUSH1 0x40 MLOAD PUSH2 0x445 SWAP2 SWAP1 PUSH2 0x2AF6 JUMP JUMPDEST PUSH1 0x40 MLOAD DUP1 SWAP2 SUB SWAP1 RETURN JUMPDEST PUSH2 0x456 PUSH2 0x18E0 JUMP JUMPDEST PUSH1 0x40 MLOAD PUSH2 0x463 SWAP2 SWAP1 PUSH2 0x2AF6 JUMP JUMPDEST PUSH1 0x40 MLOAD DUP1 SWAP2 SUB SWAP1 RETURN JUMPDEST PUSH2 0x486 PUSH1 0x4 DUP1 CALLDATASIZE SUB DUP2 ADD SWAP1 PUSH2 0x481 SWAP2 SWAP1 PUSH2 0x2BC5 JUMP JUMPDEST PUSH2 0x1906 JUMP JUMPDEST PUSH1 0x40 MLOAD PUSH2 0x493 SWAP2 SWAP1 PUSH2 0x2B20 JUMP JUMPDEST PUSH1 0x40 MLOAD DUP1 SWAP2 SUB SWAP1 RETURN JUMPDEST PUSH2 0x4A4 PUSH2 0x192B JUMP JUMPDEST STOP JUMPDEST PUSH1 0x0 DUP6 GT DUP1 PUSH2 0x4B5 JUMPI POP PUSH1 0x0 DUP5 GT JUMPDEST PUSH2 0x4F4 JUMPI PUSH1 0x40 MLOAD PUSH32 0x8C379A000000000000000000000000000000000000000000000000000000000 DUP2 MSTORE PUSH1 0x4 ADD PUSH2 0x4EB SWAP1 PUSH2 0x2CCD JUMP JUMPDEST PUSH1 0x40 MLOAD DUP1 SWAP2 SUB SWAP1 REVERT JUMPDEST PUSH1 0x0 DUP1 PUSH2 0x4FF PUSH2 0xADC JUMP JUMPDEST POP SWAP2 POP SWAP2 POP DUP2 PUSH14 0xFFFFFFFFFFFFFFFFFFFFFFFFFFFF AND DUP8 LT DUP1 ISZERO PUSH2 0x532 JUMPI POP DUP1 PUSH14 0xFFFFFFFFFFFFFFFFFFFFFFFFFFFF AND DUP7 LT JUMPDEST PUSH2 0x571 JUMPI PUSH1 0x40 MLOAD PUSH32 0x8C379A000000000000000000000000000000000000000000000000000000000 DUP2 MSTORE PUSH1 0x4 ADD PUSH2 0x568 SWAP1 PUSH2 0x2D5F JUMP JUMPDEST PUSH1 0x40 MLOAD DUP1 SWAP2 SUB SWAP1 REVERT JUMPDEST PUSH1 0x0 DUP1 PUSH1 0x0 PUSH1 0x5 PUSH1 0x0 SWAP1 SLOAD SWAP1 PUSH2 0x100 EXP SWAP1 DIV PUSH20 0xFFFFFFFFFFFFFFFFFFFFFFFFFFFFFFFFFFFFFFFF AND SWAP1 POP PUSH1 0x0 PUSH1 0x6 PUSH1 0x0 SWAP1 SLOAD SWAP1 PUSH2 0x100 EXP SWAP1 DIV PUSH20 0xFFFFFFFFFFFFFFFFFFFFFFFFFFFFFFFFFFFFFFFF AND SWAP1 POP DUP2 PUSH20 0xFFFFFFFFFFFFFFFFFFFFFFFFFFFFFFFFFFFFFFFF AND DUP10 PUSH20 0xFFFFFFFFFFFFFFFFFFFFFFFFFFFFFFFFFFFFFFFF AND EQ ISZERO DUP1 ISZERO PUSH2 0x62A JUMPI POP DUP1 PUSH20 0xFFFFFFFFFFFFFFFFFFFFFFFFFFFFFFFFFFFFFFFF AND DUP10 PUSH20 0xFFFFFFFFFFFFFFFFFFFFFFFFFFFFFFFFFFFFFFFF AND EQ ISZERO JUMPDEST PUSH2 0x669 JUMPI PUSH1 0x40 MLOAD PUSH32 0x8C379A000000000000000000000000000000000000000000000000000000000 DUP2 MSTORE PUSH1 0x4 ADD PUSH2 0x660 SWAP1 PUSH2 0x2DCB JUMP JUMPDEST PUSH1 0x40 MLOAD DUP1 SWAP2 SUB SWAP1 REVERT JUMPDEST PUSH1 0x0 DUP12 GT ISZERO PUSH2 0x67E JUMPI PUSH2 0x67D DUP3 DUP11 DUP14 PUSH2 0x1AA7 JUMP JUMPDEST JUMPDEST PUSH1 0x0 DUP11 GT ISZERO PUSH2 0x693 JUMPI PUSH2 0x692 DUP2 DUP11 DUP13 PUSH2 0x1AA7 JUMP JUMPDEST JUMPDEST PUSH1 0x0 DUP9 DUP9 SWAP1 POP GT ISZERO PUSH2 0x713 JUMPI DUP9 PUSH20 0xFFFFFFFFFFFFFFFFFFFFFFFFFFFFFFFFFFFFFFFF AND PUSH4 0x10D1E85C CALLER DUP14 DUP14 DUP13 DUP13 PUSH1 0x40 MLOAD DUP7 PUSH4 0xFFFFFFFF AND PUSH1 0xE0 SHL DUP2 MSTORE PUSH1 0x4 ADD PUSH2 0x6E0 SWAP6 SWAP5 SWAP4 SWAP3 SWAP2 SWAP1 PUSH2 0x2E38 JUMP JUMPDEST PUSH1 0x0 PUSH1 0x40 MLOAD DUP1 DUP4 SUB DUP2 PUSH1 0x0 DUP8 DUP1 EXTCODESIZE ISZERO DUP1 ISZERO PUSH2 0x6FA JUMPI PUSH1 0x0 DUP1 REVERT JUMPDEST POP GAS CALL ISZERO DUP1 ISZERO PUSH2 0x70E JUMPI RETURNDATASIZE PUSH1 0x0 DUP1 RETURNDATACOPY RETURNDATASIZE PUSH1 0x0 REVERT JUMPDEST POP POP POP POP JUMPDEST DUP2 PUSH20 0xFFFFFFFFFFFFFFFFFFFFFFFFFFFFFFFFFFFFFFFF AND PUSH4 0x70A08231 ADDRESS PUSH1 0x40 MLOAD DUP3 PUSH4 0xFFFFFFFF AND PUSH1 0xE0 SHL DUP2 MSTORE PUSH1 0x4 ADD PUSH2 0x74C SWAP2 SWAP1 PUSH2 0x2AF6 JUMP JUMPDEST PUSH1 0x20 PUSH1 0x40 MLOAD DUP1 DUP4 SUB DUP2 DUP7 GAS STATICCALL ISZERO DUP1 ISZERO PUSH2 0x769 JUMPI RETURNDATASIZE PUSH1 0x0 DUP1 RETURNDATACOPY RETURNDATASIZE PUSH1 0x0 REVERT JUMPDEST POP POP POP POP PUSH1 0x40 MLOAD RETURNDATASIZE PUSH1 0x1F NOT PUSH1 0x1F DUP3 ADD AND DUP3 ADD DUP1 PUSH1 0x40 MSTORE POP DUP2 ADD SWAP1 PUSH2 0x78D SWAP2 SWAP1 PUSH2 0x2E9B JUMP JUMPDEST SWAP4 POP DUP1 PUSH20 0xFFFFFFFFFFFFFFFFFFFFFFFFFFFFFFFFFFFFFFFF AND PUSH4 0x70A08231 ADDRESS PUSH1 0x40 MLOAD DUP3 PUSH4 0xFFFFFFFF AND PUSH1 0xE0 SHL DUP2 MSTORE PUSH1 0x4 ADD PUSH2 0x7C8 SWAP2 SWAP1 PUSH2 0x2AF6 JUMP JUMPDEST PUSH1 0x20 PUSH1 0x40 MLOAD DUP1 DUP4 SUB DUP2 DUP7 GAS STATICCALL ISZERO DUP1 ISZERO PUSH2 0x7E5 JUMPI RETURNDATASIZE PUSH1 0x0 DUP1 RETURNDATACOPY RETURNDATASIZE PUSH1 0x0 REVERT JUMPDEST POP POP POP POP PUSH1 0x40 MLOAD RETURNDATASIZE PUSH1 0x1F NOT PUSH1 0x1F DUP3 ADD AND DUP3 ADD DUP1 PUSH1 0x40 MSTORE POP DUP2 ADD SWAP1 PUSH2 0x809 SWAP2 SWAP1 PUSH2 0x2E9B JUMP JUMPDEST SWAP3 POP POP POP PUSH1 0x0 DUP10 DUP6 PUSH14 0xFFFFFFFFFFFFFFFFFFFFFFFFFFFF AND PUSH2 0x82B SWAP2 SWAP1 PUSH2 0x2EF7 JUMP JUMPDEST DUP4 GT PUSH2 0x838 JUMPI PUSH1 0x0 PUSH2 0x860 JUMP JUMPDEST DUP10 DUP6 PUSH14 0xFFFFFFFFFFFFFFFFFFFFFFFFFFFF AND PUSH2 0x854 SWAP2 SWAP1 PUSH2 0x2EF7 JUMP JUMPDEST DUP4 PUSH2 0x85F SWAP2 SWAP1 PUSH2 0x2EF7 JUMP JUMPDEST JUMPDEST SWAP1 POP PUSH1 0x0 DUP10 DUP6 PUSH14 0xFFFFFFFFFFFFFFFFFFFFFFFFFFFF AND PUSH2 0x880 SWAP2 SWAP1 PUSH2 0x2EF7 JUMP JUMPDEST DUP4 GT PUSH2 0x88D JUMPI PUSH1 0x0 PUSH2 0x8B5 JUMP JUMPDEST DUP10 DUP6 PUSH14 0xFFFFFFFFFFFFFFFFFFFFFFFFFFFF AND PUSH2 0x8A9 SWAP2 SWAP1 PUSH2 0x2EF7 JUMP JUMPDEST DUP4 PUSH2 0x8B4 SWAP2 SWAP1 PUSH2 0x2EF7 JUMP JUMPDEST JUMPDEST SWAP1 POP PUSH1 0x0 DUP3 GT DUP1 PUSH2 0x8C6 JUMPI POP PUSH1 0x0 DUP2 GT JUMPDEST PUSH2 0x905 JUMPI PUSH1 0x40 MLOAD PUSH32 0x8C379A000000000000000000000000000000000000000000000000000000000 DUP2 MSTORE PUSH1 0x4 ADD PUSH2 0x8FC SWAP1 PUSH2 0x2F9D JUMP JUMPDEST PUSH1 0x40 MLOAD DUP1 SWAP2 SUB SWAP1 REVERT JUMPDEST PUSH1 0x0 PUSH2 0x941 PUSH2 0x91E PUSH1 0x3 DUP6 PUSH2 0x1C31 SWAP1 SWAP2 SWAP1 PUSH4 0xFFFFFFFF AND JUMP JUMPDEST PUSH2 0x933 PUSH2 0x3E8 DUP9 PUSH2 0x1C31 SWAP1 SWAP2 SWAP1 PUSH4 0xFFFFFFFF AND JUMP JUMPDEST PUSH2 0x1C9E SWAP1 SWAP2 SWAP1 PUSH4 0xFFFFFFFF AND JUMP JUMPDEST SWAP1 POP PUSH1 0x0 PUSH2 0x97F PUSH2 0x95C PUSH1 0x3 DUP6 PUSH2 0x1C31 SWAP1 SWAP2 SWAP1 PUSH4 0xFFFFFFFF AND JUMP JUMPDEST PUSH2 0x971 PUSH2 0x3E8 DUP9 PUSH2 0x1C31 SWAP1 SWAP2 SWAP1 PUSH4 0xFFFFFFFF AND JUMP JUMPDEST PUSH2 0x1C9E SWAP1 SWAP2 SWAP1 PUSH4 0xFFFFFFFF AND JUMP JUMPDEST SWAP1 POP PUSH2 0x9C9 PUSH3 0xF4240 PUSH2 0x9BB DUP10 PUSH14 0xFFFFFFFFFFFFFFFFFFFFFFFFFFFF AND DUP12 PUSH14 0xFFFFFFFFFFFFFFFFFFFFFFFFFFFF AND PUSH2 0x1C31 SWAP1 SWAP2 SWAP1 PUSH4 0xFFFFFFFF AND JUMP JUMPDEST PUSH2 0x1C31 SWAP1 SWAP2 SWAP1 PUSH4 0xFFFFFFFF AND JUMP JUMPDEST PUSH2 0x9DC DUP3 DUP5 PUSH2 0x1C31 SWAP1 SWAP2 SWAP1 PUSH4 0xFFFFFFFF AND JUMP JUMPDEST LT ISZERO PUSH2 0xA1D JUMPI PUSH1 0x40 MLOAD PUSH32 0x8C379A000000000000000000000000000000000000000000000000000000000 DUP2 MSTORE PUSH1 0x4 ADD PUSH2 0xA14 SWAP1 PUSH2 0x3009 JUMP JUMPDEST PUSH1 0x40 MLOAD DUP1 SWAP2 SUB SWAP1 REVERT JUMPDEST POP POP PUSH2 0xA2B DUP5 DUP5 DUP9 DUP9 PUSH2 0x1CF7 JUMP JUMPDEST DUP9 PUSH20 0xFFFFFFFFFFFFFFFFFFFFFFFFFFFFFFFFFFFFFFFF AND CALLER PUSH20 0xFFFFFFFFFFFFFFFFFFFFFFFFFFFFFFFFFFFFFFFF AND PUSH32 0xD78AD95FA46C994B6551D0DA85FC275FE613CE37657FB8D5E3D130840159D822 DUP5 DUP5 DUP16 DUP16 PUSH1 0x40 MLOAD PUSH2 0xA8E SWAP5 SWAP4 SWAP3 SWAP2 SWAP1 PUSH2 0x3029 JUMP JUMPDEST PUSH1 0x40 MLOAD DUP1 SWAP2 SUB SWAP1 LOG3 POP POP POP POP POP POP POP POP POP POP POP JUMP JUMPDEST PUSH1 0x40 MLOAD DUP1 PUSH1 0x40 ADD PUSH1 0x40 MSTORE DUP1 PUSH1 0xA DUP2 MSTORE PUSH1 0x20 ADD PUSH32 0x556E697377617020563200000000000000000000000000000000000000000000 DUP2 MSTORE POP DUP2 JUMP JUMPDEST PUSH1 0x0 DUP1 PUSH1 0x0 PUSH1 0x7 PUSH1 0x0 SWAP1 SLOAD SWAP1 PUSH2 0x100 EXP SWAP1 DIV PUSH14 0xFFFFFFFFFFFFFFFFFFFFFFFFFFFF AND SWAP3 POP PUSH1 0x7 PUSH1 0xE SWAP1 SLOAD SWAP1 PUSH2 0x100 EXP SWAP1 DIV PUSH14 0xFFFFFFFFFFFFFFFFFFFFFFFFFFFF AND SWAP2 POP PUSH1 0x7 PUSH1 0x1C SWAP1 SLOAD SWAP1 PUSH2 0x100 EXP SWAP1 DIV PUSH4 0xFFFFFFFF AND SWAP1 POP SWAP1 SWAP2 SWAP3 JUMP JUMPDEST PUSH1 0x0 PUSH2 0xB46 CALLER DUP5 DUP5 PUSH2 0x1FEB JUMP JUMPDEST PUSH1 0x1 SWAP1 POP SWAP3 SWAP2 POP POP JUMP JUMPDEST PUSH1 0x5 PUSH1 0x0 SWAP1 SLOAD SWAP1 PUSH2 0x100 EXP SWAP1 DIV PUSH20 0xFFFFFFFFFFFFFFFFFFFFFFFFFFFFFFFFFFFFFFFF AND DUP2 JUMP JUMPDEST PUSH1 0x0 SLOAD DUP2 JUMP JUMPDEST PUSH1 0x0 PUSH32 0xFFFFFFFFFFFFFFFFFFFFFFFFFFFFFFFFFFFFFFFFFFFFFFFFFFFFFFFFFFFFFFFF PUSH1 0x2 PUSH1 0x0 DUP7 PUSH20 0xFFFFFFFFFFFFFFFFFFFFFFFFFFFFFFFFFFFFFFFF AND PUSH20 0xFFFFFFFFFFFFFFFFFFFFFFFFFFFFFFFFFFFFFFFF AND DUP2 MSTORE PUSH1 0x20 ADD SWAP1 DUP2 MSTORE PUSH1 0x20 ADD PUSH1 0x0 KECCAK256 PUSH1 0x0 CALLER PUSH20 0xFFFFFFFFFFFFFFFFFFFFFFFFFFFFFFFFFFFFFFFF AND PUSH20 0xFFFFFFFFFFFFFFFFFFFFFFFFFFFFFFFFFFFFFFFF AND DUP2 MSTORE PUSH1 0x20 ADD SWAP1 DUP2 MSTORE PUSH1 0x20 ADD PUSH1 0x0 KECCAK256 SLOAD EQ PUSH2 0xD31 JUMPI PUSH2 0xCB0 DUP3 PUSH1 0x2 PUSH1 0x0 DUP8 PUSH20 0xFFFFFFFFFFFFFFFFFFFFFFFFFFFFFFFFFFFFFFFF AND PUSH20 0xFFFFFFFFFFFFFFFFFFFFFFFFFFFFFFFFFFFFFFFF AND DUP2 MSTORE PUSH1 0x20 ADD SWAP1 DUP2 MSTORE PUSH1 0x20 ADD PUSH1 0x0 KECCAK256 PUSH1 0x0 CALLER PUSH20 0xFFFFFFFFFFFFFFFFFFFFFFFFFFFFFFFFFFFFFFFF AND PUSH20 0xFFFFFFFFFFFFFFFFFFFFFFFFFFFFFFFFFFFFFFFF AND DUP2 MSTORE PUSH1 0x20 ADD SWAP1 DUP2 MSTORE PUSH1 0x20 ADD PUSH1 0x0 KECCAK256 SLOAD PUSH2 0x1C9E SWAP1 SWAP2 SWAP1 PUSH4 0xFFFFFFFF AND JUMP JUMPDEST PUSH1 0x2 PUSH1 0x0 DUP7 PUSH20 0xFFFFFFFFFFFFFFFFFFFFFFFFFFFFFFFFFFFFFFFF AND PUSH20 0xFFFFFFFFFFFFFFFFFFFFFFFFFFFFFFFFFFFFFFFF AND DUP2 MSTORE PUSH1 0x20 ADD SWAP1 DUP2 MSTORE PUSH1 0x20 ADD PUSH1 0x0 KECCAK256 PUSH1 0x0 CALLER PUSH20 0xFFFFFFFFFFFFFFFFFFFFFFFFFFFFFFFFFFFFFFFF AND PUSH20 0xFFFFFFFFFFFFFFFFFFFFFFFFFFFFFFFFFFFFFFFF AND DUP2 MSTORE PUSH1 0x20 ADD SWAP1 DUP2 MSTORE PUSH1 0x20 ADD PUSH1 0x0 KECCAK256 DUP2 SWAP1 SSTORE POP JUMPDEST PUSH2 0xD3C DUP5 DUP5 DUP5 PUSH2 0x20D6 JUMP JUMPDEST PUSH1 0x1 SWAP1 POP SWAP4 SWAP3 POP POP POP JUMP JUMPDEST PUSH1 0x12 DUP2 JUMP JUMPDEST PUSH1 0x4 PUSH1 0x0 SWAP1 SLOAD SWAP1 PUSH2 0x100 EXP SWAP1 DIV PUSH20 0xFFFFFFFFFFFFFFFFFFFFFFFFFFFFFFFFFFFFFFFF AND PUSH20 0xFFFFFFFFFFFFFFFFFFFFFFFFFFFFFFFFFFFFFFFF AND CALLER PUSH20 0xFFFFFFFFFFFFFFFFFFFFFFFFFFFFFFFFFFFFFFFF AND EQ PUSH2 0xDDC JUMPI PUSH1 0x40 MLOAD PUSH32 0x8C379A000000000000000000000000000000000000000000000000000000000 DUP2 MSTORE PUSH1 0x4 ADD PUSH2 0xDD3 SWAP1 PUSH2 0x30BA JUMP JUMPDEST PUSH1 0x40 MLOAD DUP1 SWAP2 SUB SWAP1 REVERT JUMPDEST DUP2 PUSH1 0x5 PUSH1 0x0 PUSH2 0x100 EXP DUP2 SLOAD DUP2 PUSH20 0xFFFFFFFFFFFFFFFFFFFFFFFFFFFFFFFFFFFFFFFF MUL NOT AND SWAP1 DUP4 PUSH20 0xFFFFFFFFFFFFFFFFFFFFFFFFFFFFFFFFFFFFFFFF AND MUL OR SWAP1 SSTORE POP DUP1 PUSH1 0x6 PUSH1 0x0 PUSH2 0x100 EXP DUP2 SLOAD DUP2 PUSH20 0xFFFFFFFFFFFFFFFFFFFFFFFFFFFFFFFFFFFFFFFF MUL NOT AND SWAP1 DUP4 PUSH20 0xFFFFFFFFFFFFFFFFFFFFFFFFFFFFFFFFFFFFFFFF AND MUL OR SWAP1 SSTORE POP POP POP JUMP JUMPDEST PUSH1 0x8 SLOAD DUP2 JUMP JUMPDEST PUSH1 0x9 SLOAD DUP2 JUMP JUMPDEST PUSH1 0x0 DUP1 PUSH1 0x0 PUSH2 0xE7B PUSH2 0xADC JUMP JUMPDEST POP SWAP2 POP SWAP2 POP PUSH1 0x0 PUSH1 0x5 PUSH1 0x0 SWAP1 SLOAD SWAP1 PUSH2 0x100 EXP SWAP1 DIV PUSH20 0xFFFFFFFFFFFFFFFFFFFFFFFFFFFFFFFFFFFFFFFF AND PUSH20 0xFFFFFFFFFFFFFFFFFFFFFFFFFFFFFFFFFFFFFFFF AND PUSH4 0x70A08231 ADDRESS PUSH1 0x40 MLOAD DUP3 PUSH4 0xFFFFFFFF AND PUSH1 0xE0 SHL DUP2 MSTORE PUSH1 0x4 ADD PUSH2 0xEDD SWAP2 SWAP1 PUSH2 0x2AF6 JUMP JUMPDEST PUSH1 0x20 PUSH1 0x40 MLOAD DUP1 DUP4 SUB DUP2 DUP7 GAS STATICCALL ISZERO DUP1 ISZERO PUSH2 0xEFA JUMPI RETURNDATASIZE PUSH1 0x0 DUP1 RETURNDATACOPY RETURNDATASIZE PUSH1 0x0 REVERT JUMPDEST POP POP POP POP PUSH1 0x40 MLOAD RETURNDATASIZE PUSH1 0x1F NOT PUSH1 0x1F DUP3 ADD AND DUP3 ADD DUP1 PUSH1 0x40 MSTORE POP DUP2 ADD SWAP1 PUSH2 0xF1E SWAP2 SWAP1 PUSH2 0x2E9B JUMP JUMPDEST SWAP1 POP PUSH1 0x0 PUSH1 0x6 PUSH1 0x0 SWAP1 SLOAD SWAP1 PUSH2 0x100 EXP SWAP1 DIV PUSH20 0xFFFFFFFFFFFFFFFFFFFFFFFFFFFFFFFFFFFFFFFF AND PUSH20 0xFFFFFFFFFFFFFFFFFFFFFFFFFFFFFFFFFFFFFFFF AND PUSH4 0x70A08231 ADDRESS PUSH1 0x40 MLOAD DUP3 PUSH4 0xFFFFFFFF AND PUSH1 0xE0 SHL DUP2 MSTORE PUSH1 0x4 ADD PUSH2 0xF7D SWAP2 SWAP1 PUSH2 0x2AF6 JUMP JUMPDEST PUSH1 0x20 PUSH1 0x40 MLOAD DUP1 DUP4 SUB DUP2 DUP7 GAS STATICCALL ISZERO DUP1 ISZERO PUSH2 0xF9A JUMPI RETURNDATASIZE PUSH1 0x0 DUP1 RETURNDATACOPY RETURNDATASIZE PUSH1 0x0 REVERT JUMPDEST POP POP POP POP PUSH1 0x40 MLOAD RETURNDATASIZE PUSH1 0x1F NOT PUSH1 0x1F DUP3 ADD AND DUP3 ADD DUP1 PUSH1 0x40 MSTORE POP DUP2 ADD SWAP1 PUSH2 0xFBE SWAP2 SWAP1 PUSH2 0x2E9B JUMP JUMPDEST SWAP1 POP PUSH1 0x0 PUSH2 0xFE5 DUP6 PUSH14 0xFFFFFFFFFFFFFFFFFFFFFFFFFFFF AND DUP5 PUSH2 0x1C9E SWAP1 SWAP2 SWAP1 PUSH4 0xFFFFFFFF AND JUMP JUMPDEST SWAP1 POP PUSH1 0x0 PUSH2 0x100C DUP6 PUSH14 0xFFFFFFFFFFFFFFFFFFFFFFFFFFFF AND DUP5 PUSH2 0x1C9E SWAP1 SWAP2 SWAP1 PUSH4 0xFFFFFFFF AND JUMP JUMPDEST SWAP1 POP PUSH1 0x0 PUSH2 0x101A DUP8 DUP8 PUSH2 0x226A JUMP JUMPDEST SWAP1 POP PUSH1 0x0 DUP1 SLOAD SWAP1 POP PUSH1 0x0 DUP2 SUB PUSH2 0x106D JUMPI PUSH2 0x1059 PUSH2 0x3E8 PUSH2 0x104B PUSH2 0x1046 DUP7 DUP9 PUSH2 0x1C31 SWAP1 SWAP2 SWAP1 PUSH4 0xFFFFFFFF AND JUMP JUMPDEST PUSH2 0x243B JUMP JUMPDEST PUSH2 0x1C9E SWAP1 SWAP2 SWAP1 PUSH4 0xFFFFFFFF AND JUMP JUMPDEST SWAP9 POP PUSH2 0x1068 PUSH1 0x0 PUSH2 0x3E8 PUSH2 0x24B5 JUMP JUMPDEST PUSH2 0x10D4 JUMP JUMPDEST PUSH2 0x10D1 DUP9 PUSH14 0xFFFFFFFFFFFFFFFFFFFFFFFFFFFF AND PUSH2 0x1094 DUP4 DUP8 PUSH2 0x1C31 SWAP1 SWAP2 SWAP1 PUSH4 0xFFFFFFFF AND JUMP JUMPDEST PUSH2 0x109E SWAP2 SWAP1 PUSH2 0x3109 JUMP JUMPDEST DUP9 PUSH14 0xFFFFFFFFFFFFFFFFFFFFFFFFFFFF AND PUSH2 0x10C2 DUP5 DUP8 PUSH2 0x1C31 SWAP1 SWAP2 SWAP1 PUSH4 0xFFFFFFFF AND JUMP JUMPDEST PUSH2 0x10CC SWAP2 SWAP1 PUSH2 0x3109 JUMP JUMPDEST PUSH2 0x25CF JUMP JUMPDEST SWAP9 POP JUMPDEST PUSH1 0x0 DUP10 GT PUSH2 0x1117 JUMPI PUSH1 0x40 MLOAD PUSH32 0x8C379A000000000000000000000000000000000000000000000000000000000 DUP2 MSTORE PUSH1 0x4 ADD PUSH2 0x110E SWAP1 PUSH2 0x31AC JUMP JUMPDEST PUSH1 0x40 MLOAD DUP1 SWAP2 SUB SWAP1 REVERT JUMPDEST PUSH2 0x1121 DUP11 DUP11 PUSH2 0x24B5 JUMP JUMPDEST PUSH2 0x112D DUP7 DUP7 DUP11 DUP11 PUSH2 0x1CF7 JUMP JUMPDEST DUP2 ISZERO PUSH2 0x11A5 JUMPI PUSH2 0x119E PUSH1 0x7 PUSH1 0xE SWAP1 SLOAD SWAP1 PUSH2 0x100 EXP SWAP1 DIV PUSH14 0xFFFFFFFFFFFFFFFFFFFFFFFFFFFF AND PUSH14 0xFFFFFFFFFFFFFFFFFFFFFFFFFFFF AND PUSH1 0x7 PUSH1 0x0 SWAP1 SLOAD SWAP1 PUSH2 0x100 EXP SWAP1 DIV PUSH14 0xFFFFFFFFFFFFFFFFFFFFFFFFFFFF AND PUSH14 0xFFFFFFFFFFFFFFFFFFFFFFFFFFFF AND PUSH2 0x1C31 SWAP1 SWAP2 SWAP1 PUSH4 0xFFFFFFFF AND JUMP JUMPDEST PUSH1 0xA DUP2 SWAP1 SSTORE POP JUMPDEST CALLER PUSH20 0xFFFFFFFFFFFFFFFFFFFFFFFFFFFFFFFFFFFFFFFF AND PUSH32 0x4C209B5FC8AD50758F13E2E1088BA56A560DFF690A1C6FEF26394F4C03821C4F DUP6 DUP6 PUSH1 0x40 MLOAD PUSH2 0x11ED SWAP3 SWAP2 SWAP1 PUSH2 0x2C32 JUMP JUMPDEST PUSH1 0x40 MLOAD DUP1 SWAP2 SUB SWAP1 LOG2 POP POP POP POP POP POP POP POP SWAP2 SWAP1 POP JUMP JUMPDEST PUSH1 0x1 PUSH1 0x20 MSTORE DUP1 PUSH1 0x0 MSTORE PUSH1 0x40 PUSH1 0x0 KECCAK256 PUSH1 0x0 SWAP2 POP SWAP1 POP SLOAD DUP2 JUMP JUMPDEST PUSH1 0xA SLOAD DUP2 JUMP JUMPDEST PUSH1 0x3 PUSH1 0x20 MSTORE DUP1 PUSH1 0x0 MSTORE PUSH1 0x40 PUSH1 0x0 KECCAK256 PUSH1 0x0 SWAP2 POP SWAP1 POP SLOAD DUP2 JUMP JUMPDEST PUSH1 0x0 DUP1 PUSH1 0x0 DUP1 PUSH2 0x1246 PUSH2 0xADC JUMP JUMPDEST POP SWAP2 POP SWAP2 POP PUSH1 0x0 PUSH1 0x5 PUSH1 0x0 SWAP1 SLOAD SWAP1 PUSH2 0x100 EXP SWAP1 DIV PUSH20 0xFFFFFFFFFFFFFFFFFFFFFFFFFFFFFFFFFFFFFFFF AND SWAP1 POP PUSH1 0x0 PUSH1 0x6 PUSH1 0x0 SWAP1 SLOAD SWAP1 PUSH2 0x100 EXP SWAP1 DIV PUSH20 0xFFFFFFFFFFFFFFFFFFFFFFFFFFFFFFFFFFFFFFFF AND SWAP1 POP PUSH1 0x0 DUP3 PUSH20 0xFFFFFFFFFFFFFFFFFFFFFFFFFFFFFFFFFFFFFFFF AND PUSH4 0x70A08231 ADDRESS PUSH1 0x40 MLOAD DUP3 PUSH4 0xFFFFFFFF AND PUSH1 0xE0 SHL DUP2 MSTORE PUSH1 0x4 ADD PUSH2 0x12D4 SWAP2 SWAP1 PUSH2 0x2AF6 JUMP JUMPDEST PUSH1 0x20 PUSH1 0x40 MLOAD DUP1 DUP4 SUB DUP2 DUP7 GAS STATICCALL ISZERO DUP1 ISZERO PUSH2 0x12F1 JUMPI RETURNDATASIZE PUSH1 0x0 DUP1 RETURNDATACOPY RETURNDATASIZE PUSH1 0x0 REVERT JUMPDEST POP POP POP POP PUSH1 0x40 MLOAD RETURNDATASIZE PUSH1 0x1F NOT PUSH1 0x1F DUP3 ADD AND DUP3 ADD DUP1 PUSH1 0x40 MSTORE POP DUP2 ADD SWAP1 PUSH2 0x1315 SWAP2 SWAP1 PUSH2 0x2E9B JUMP JUMPDEST SWAP1 POP PUSH1 0x0 DUP3 PUSH20 0xFFFFFFFFFFFFFFFFFFFFFFFFFFFFFFFFFFFFFFFF AND PUSH4 0x70A08231 ADDRESS PUSH1 0x40 MLOAD DUP3 PUSH4 0xFFFFFFFF AND PUSH1 0xE0 SHL DUP2 MSTORE PUSH1 0x4 ADD PUSH2 0x1352 SWAP2 SWAP1 PUSH2 0x2AF6 JUMP JUMPDEST PUSH1 0x20 PUSH1 0x40 MLOAD DUP1 DUP4 SUB DUP2 DUP7 GAS STATICCALL ISZERO DUP1 ISZERO PUSH2 0x136F JUMPI RETURNDATASIZE PUSH1 0x0 DUP1 RETURNDATACOPY RETURNDATASIZE PUSH1 0x0 REVERT JUMPDEST POP POP POP POP PUSH1 0x40 MLOAD RETURNDATASIZE PUSH1 0x1F NOT PUSH1 0x1F DUP3 ADD AND DUP3 ADD DUP1 PUSH1 0x40 MSTORE POP DUP2 ADD SWAP1 PUSH2 0x1393 SWAP2 SWAP1 PUSH2 0x2E9B JUMP JUMPDEST SWAP1 POP PUSH1 0x0 PUSH1 0x1 PUSH1 0x0 ADDRESS PUSH20 0xFFFFFFFFFFFFFFFFFFFFFFFFFFFFFFFFFFFFFFFF AND PUSH20 0xFFFFFFFFFFFFFFFFFFFFFFFFFFFFFFFFFFFFFFFF AND DUP2 MSTORE PUSH1 0x20 ADD SWAP1 DUP2 MSTORE PUSH1 0x20 ADD PUSH1 0x0 KECCAK256 SLOAD SWAP1 POP PUSH1 0x0 PUSH2 0x13E5 DUP9 DUP9 PUSH2 0x226A JUMP JUMPDEST SWAP1 POP PUSH1 0x0 DUP1 SLOAD SWAP1 POP DUP1 PUSH2 0x1401 DUP7 DUP6 PUSH2 0x1C31 SWAP1 SWAP2 SWAP1 PUSH4 0xFFFFFFFF AND JUMP JUMPDEST PUSH2 0x140B SWAP2 SWAP1 PUSH2 0x3109 JUMP JUMPDEST SWAP11 POP DUP1 PUSH2 0x1421 DUP6 DUP6 PUSH2 0x1C31 SWAP1 SWAP2 SWAP1 PUSH4 0xFFFFFFFF AND JUMP JUMPDEST PUSH2 0x142B SWAP2 SWAP1 PUSH2 0x3109 JUMP JUMPDEST SWAP10 POP PUSH1 0x0 DUP12 GT DUP1 ISZERO PUSH2 0x143D JUMPI POP PUSH1 0x0 DUP11 GT JUMPDEST PUSH2 0x147C JUMPI PUSH1 0x40 MLOAD PUSH32 0x8C379A000000000000000000000000000000000000000000000000000000000 DUP2 MSTORE PUSH1 0x4 ADD PUSH2 0x1473 SWAP1 PUSH2 0x323E JUMP JUMPDEST PUSH1 0x40 MLOAD DUP1 SWAP2 SUB SWAP1 REVERT JUMPDEST PUSH2 0x1486 ADDRESS DUP5 PUSH2 0x25E8 JUMP JUMPDEST PUSH2 0x1491 DUP8 DUP14 DUP14 PUSH2 0x1AA7 JUMP JUMPDEST PUSH2 0x149C DUP7 DUP14 DUP13 PUSH2 0x1AA7 JUMP JUMPDEST DUP7 PUSH20 0xFFFFFFFFFFFFFFFFFFFFFFFFFFFFFFFFFFFFFFFF AND PUSH4 0x70A08231 ADDRESS PUSH1 0x40 MLOAD DUP3 PUSH4 0xFFFFFFFF AND PUSH1 0xE0 SHL DUP2 MSTORE PUSH1 0x4 ADD PUSH2 0x14D5 SWAP2 SWAP1 PUSH2 0x2AF6 JUMP JUMPDEST PUSH1 0x20 PUSH1 0x40 MLOAD DUP1 DUP4 SUB DUP2 DUP7 GAS STATICCALL ISZERO DUP1 ISZERO PUSH2 0x14F2 JUMPI RETURNDATASIZE PUSH1 0x0 DUP1 RETURNDATACOPY RETURNDATASIZE PUSH1 0x0 REVERT JUMPDEST POP POP POP POP PUSH1 0x40 MLOAD RETURNDATASIZE PUSH1 0x1F NOT PUSH1 0x1F DUP3 ADD AND DUP3 ADD DUP1 PUSH1 0x40 MSTORE POP DUP2 ADD SWAP1 PUSH2 0x1516 SWAP2 SWAP1 PUSH2 0x2E9B JUMP JUMPDEST SWAP5 POP DUP6 PUSH20 0xFFFFFFFFFFFFFFFFFFFFFFFFFFFFFFFFFFFFFFFF AND PUSH4 0x70A08231 ADDRESS PUSH1 0x40 MLOAD DUP3 PUSH4 0xFFFFFFFF AND PUSH1 0xE0 SHL DUP2 MSTORE PUSH1 0x4 ADD PUSH2 0x1551 SWAP2 SWAP1 PUSH2 0x2AF6 JUMP JUMPDEST PUSH1 0x20 PUSH1 0x40 MLOAD DUP1 DUP4 SUB DUP2 DUP7 GAS STATICCALL ISZERO DUP1 ISZERO PUSH2 0x156E JUMPI RETURNDATASIZE PUSH1 0x0 DUP1 RETURNDATACOPY RETURNDATASIZE PUSH1 0x0 REVERT JUMPDEST POP POP POP POP PUSH1 0x40 MLOAD RETURNDATASIZE PUSH1 0x1F NOT PUSH1 0x1F DUP3 ADD AND DUP3 ADD DUP1 PUSH1 0x40 MSTORE POP DUP2 ADD SWAP1 PUSH2 0x1592 SWAP2 SWAP1 PUSH2 0x2E9B JUMP JUMPDEST SWAP4 POP PUSH2 0x15A0 DUP6 DUP6 DUP12 DUP12 PUSH2 0x1CF7 JUMP JUMPDEST DUP2 ISZERO PUSH2 0x1618 JUMPI PUSH2 0x1611 PUSH1 0x7 PUSH1 0xE SWAP1 SLOAD SWAP1 PUSH2 0x100 EXP SWAP1 DIV PUSH14 0xFFFFFFFFFFFFFFFFFFFFFFFFFFFF AND PUSH14 0xFFFFFFFFFFFFFFFFFFFFFFFFFFFF AND PUSH1 0x7 PUSH1 0x0 SWAP1 SLOAD SWAP1 PUSH2 0x100 EXP SWAP1 DIV PUSH14 0xFFFFFFFFFFFFFFFFFFFFFFFFFFFF AND PUSH14 0xFFFFFFFFFFFFFFFFFFFFFFFFFFFF AND PUSH2 0x1C31 SWAP1 SWAP2 SWAP1 PUSH4 0xFFFFFFFF AND JUMP JUMPDEST PUSH1 0xA DUP2 SWAP1 SSTORE POP JUMPDEST DUP12 PUSH20 0xFFFFFFFFFFFFFFFFFFFFFFFFFFFFFFFFFFFFFFFF AND CALLER PUSH20 0xFFFFFFFFFFFFFFFFFFFFFFFFFFFFFFFFFFFFFFFF AND PUSH32 0xDCCD412F0B1252819CB1FD330B93224CA42612892BB3F4F789976E6D81936496 DUP14 DUP14 PUSH1 0x40 MLOAD PUSH2 0x1677 SWAP3 SWAP2 SWAP1 PUSH2 0x2C32 JUMP JUMPDEST PUSH1 0x40 MLOAD DUP1 SWAP2 SUB SWAP1 LOG3 POP POP POP POP POP POP POP POP POP SWAP2 POP SWAP2 JUMP JUMPDEST PUSH1 0x40 MLOAD DUP1 PUSH1 0x40 ADD PUSH1 0x40 MSTORE DUP1 PUSH1 0x6 DUP2 MSTORE PUSH1 0x20 ADD PUSH32 0x554E492D56320000000000000000000000000000000000000000000000000000 DUP2 MSTORE POP DUP2 JUMP JUMPDEST PUSH1 0x0 PUSH2 0x16D3 CALLER DUP5 DUP5 PUSH2 0x20D6 JUMP JUMPDEST PUSH1 0x1 SWAP1 POP SWAP3 SWAP2 POP POP JUMP JUMPDEST PUSH2 0x3E8 DUP2 JUMP JUMPDEST PUSH1 0x0 PUSH1 0x5 PUSH1 0x0 SWAP1 SLOAD SWAP1 PUSH2 0x100 EXP SWAP1 DIV PUSH20 0xFFFFFFFFFFFFFFFFFFFFFFFFFFFFFFFFFFFFFFFF AND SWAP1 POP PUSH1 0x0 PUSH1 0x6 PUSH1 0x0 SWAP1 SLOAD SWAP1 PUSH2 0x100 EXP SWAP1 DIV PUSH20 0xFFFFFFFFFFFFFFFFFFFFFFFFFFFFFFFFFFFFFFFF AND SWAP1 POP PUSH2 0x17F3 DUP3 DUP5 PUSH2 0x17EE PUSH1 0x7 PUSH1 0x0 SWAP1 SLOAD SWAP1 PUSH2 0x100 EXP SWAP1 DIV PUSH14 0xFFFFFFFFFFFFFFFFFFFFFFFFFFFF AND PUSH14 0xFFFFFFFFFFFFFFFFFFFFFFFFFFFF AND DUP7 PUSH20 0xFFFFFFFFFFFFFFFFFFFFFFFFFFFFFFFFFFFFFFFF AND PUSH4 0x70A08231 ADDRESS PUSH1 0x40 MLOAD DUP3 PUSH4 0xFFFFFFFF AND PUSH1 0xE0 SHL DUP2 MSTORE PUSH1 0x4 ADD PUSH2 0x179F SWAP2 SWAP1 PUSH2 0x2AF6 JUMP JUMPDEST PUSH1 0x20 PUSH1 0x40 MLOAD DUP1 DUP4 SUB DUP2 DUP7 GAS STATICCALL ISZERO DUP1 ISZERO PUSH2 0x17BC JUMPI RETURNDATASIZE PUSH1 0x0 DUP1 RETURNDATACOPY RETURNDATASIZE PUSH1 0x0 REVERT JUMPDEST POP POP POP POP PUSH1 0x40 MLOAD RETURNDATASIZE PUSH1 0x1F NOT PUSH1 0x1F DUP3 ADD AND DUP3 ADD DUP1 PUSH1 0x40 MSTORE POP DUP2 ADD SWAP1 PUSH2 0x17E0 SWAP2 SWAP1 PUSH2 0x2E9B JUMP JUMPDEST PUSH2 0x1C9E SWAP1 SWAP2 SWAP1 PUSH4 0xFFFFFFFF AND JUMP JUMPDEST PUSH2 0x1AA7 JUMP JUMPDEST PUSH2 0x18B5 DUP2 DUP5 PUSH2 0x18B0 PUSH1 0x7 PUSH1 0xE SWAP1 SLOAD SWAP1 PUSH2 0x100 EXP SWAP1 DIV PUSH14 0xFFFFFFFFFFFFFFFFFFFFFFFFFFFF AND PUSH14 0xFFFFFFFFFFFFFFFFFFFFFFFFFFFF AND DUP6 PUSH20 0xFFFFFFFFFFFFFFFFFFFFFFFFFFFFFFFFFFFFFFFF AND PUSH4 0x70A08231 ADDRESS PUSH1 0x40 MLOAD DUP3 PUSH4 0xFFFFFFFF AND PUSH1 0xE0 SHL DUP2 MSTORE PUSH1 0x4 ADD PUSH2 0x1861 SWAP2 SWAP1 PUSH2 0x2AF6 JUMP JUMPDEST PUSH1 0x20 PUSH1 0x40 MLOAD DUP1 DUP4 SUB DUP2 DUP7 GAS STATICCALL ISZERO DUP1 ISZERO PUSH2 0x187E JUMPI RETURNDATASIZE PUSH1 0x0 DUP1 RETURNDATACOPY RETURNDATASIZE PUSH1 0x0 REVERT JUMPDEST POP POP POP POP PUSH1 0x40 MLOAD RETURNDATASIZE PUSH1 0x1F NOT PUSH1 0x1F DUP3 ADD AND DUP3 ADD DUP1 PUSH1 0x40 MSTORE POP DUP2 ADD SWAP1 PUSH2 0x18A2 SWAP2 SWAP1 PUSH2 0x2E9B JUMP JUMPDEST PUSH2 0x1C9E SWAP1 SWAP2 SWAP1 PUSH4 0xFFFFFFFF AND JUMP JUMPDEST PUSH2 0x1AA7 JUMP JUMPDEST POP POP POP JUMP JUMPDEST PUSH1 0x4 PUSH1 0x0 SWAP1 SLOAD SWAP1 PUSH2 0x100 EXP SWAP1 DIV PUSH20 0xFFFFFFFFFFFFFFFFFFFFFFFFFFFFFFFFFFFFFFFF AND DUP2 JUMP JUMPDEST PUSH1 0x6 PUSH1 0x0 SWAP1 SLOAD SWAP1 PUSH2 0x100 EXP SWAP1 DIV PUSH20 0xFFFFFFFFFFFFFFFFFFFFFFFFFFFFFFFFFFFFFFFF AND DUP2 JUMP JUMPDEST PUSH1 0x2 PUSH1 0x20 MSTORE DUP2 PUSH1 0x0 MSTORE PUSH1 0x40 PUSH1 0x0 KECCAK256 PUSH1 0x20 MSTORE DUP1 PUSH1 0x0 MSTORE PUSH1 0x40 PUSH1 0x0 KECCAK256 PUSH1 0x0 SWAP2 POP SWAP2 POP POP SLOAD DUP2 JUMP JUMPDEST PUSH2 0x1AA5 PUSH1 0x5 PUSH1 0x0 SWAP1 SLOAD SWAP1 PUSH2 0x100 EXP SWAP1 DIV PUSH20 0xFFFFFFFFFFFFFFFFFFFFFFFFFFFFFFFFFFFFFFFF AND PUSH20 0xFFFFFFFFFFFFFFFFFFFFFFFFFFFFFFFFFFFFFFFF AND PUSH4 0x70A08231 ADDRESS PUSH1 0x40 MLOAD DUP3 PUSH4 0xFFFFFFFF AND PUSH1 0xE0 SHL DUP2 MSTORE PUSH1 0x4 ADD PUSH2 0x1989 SWAP2 SWAP1 PUSH2 0x2AF6 JUMP JUMPDEST PUSH1 0x20 PUSH1 0x40 MLOAD DUP1 DUP4 SUB DUP2 DUP7 GAS STATICCALL ISZERO DUP1 ISZERO PUSH2 0x19A6 JUMPI RETURNDATASIZE PUSH1 0x0 DUP1 RETURNDATACOPY RETURNDATASIZE PUSH1 0x0 REVERT JUMPDEST POP POP POP POP PUSH1 0x40 MLOAD RETURNDATASIZE PUSH1 0x1F NOT PUSH1 0x1F DUP3 ADD AND DUP3 ADD DUP1 PUSH1 0x40 MSTORE POP DUP2 ADD SWAP1 PUSH2 0x19CA SWAP2 SWAP1 PUSH2 0x2E9B JUMP JUMPDEST PUSH1 0x6 PUSH1 0x0 SWAP1 SLOAD SWAP1 PUSH2 0x100 EXP SWAP1 DIV PUSH20 0xFFFFFFFFFFFFFFFFFFFFFFFFFFFFFFFFFFFFFFFF AND PUSH20 0xFFFFFFFFFFFFFFFFFFFFFFFFFFFFFFFFFFFFFFFF AND PUSH4 0x70A08231 ADDRESS PUSH1 0x40 MLOAD DUP3 PUSH4 0xFFFFFFFF AND PUSH1 0xE0 SHL DUP2 MSTORE PUSH1 0x4 ADD PUSH2 0x1A25 SWAP2 SWAP1 PUSH2 0x2AF6 JUMP JUMPDEST PUSH1 0x20 PUSH1 0x40 MLOAD DUP1 DUP4 SUB DUP2 DUP7 GAS STATICCALL ISZERO DUP1 ISZERO PUSH2 0x1A42 JUMPI RETURNDATASIZE PUSH1 0x0 DUP1 RETURNDATACOPY RETURNDATASIZE PUSH1 0x0 REVERT JUMPDEST POP POP POP POP PUSH1 0x40 MLOAD RETURNDATASIZE PUSH1 0x1F NOT PUSH1 0x1F DUP3 ADD AND DUP3 ADD DUP1 PUSH1 0x40 MSTORE POP DUP2 ADD SWAP1 PUSH2 0x1A66 SWAP2 SWAP1 PUSH2 0x2E9B JUMP JUMPDEST PUSH1 0x7 PUSH1 0x0 SWAP1 SLOAD SWAP1 PUSH2 0x100 EXP SWAP1 DIV PUSH14 0xFFFFFFFFFFFFFFFFFFFFFFFFFFFF AND PUSH1 0x7 PUSH1 0xE SWAP1 SLOAD SWAP1 PUSH2 0x100 EXP SWAP1 DIV PUSH14 0xFFFFFFFFFFFFFFFFFFFFFFFFFFFF AND PUSH2 0x1CF7 JUMP JUMPDEST JUMP JUMPDEST PUSH1 0x0 DUP1 DUP5 PUSH20 0xFFFFFFFFFFFFFFFFFFFFFFFFFFFFFFFFFFFFFFFF AND PUSH1 0x40 MLOAD DUP1 PUSH1 0x40 ADD PUSH1 0x40 MSTORE DUP1 PUSH1 0x19 DUP2 MSTORE PUSH1 0x20 ADD PUSH32 0x7472616E7366657228616464726573732C75696E743235362900000000000000 DUP2 MSTORE POP DUP1 MLOAD SWAP1 PUSH1 0x20 ADD KECCAK256 DUP6 DUP6 PUSH1 0x40 MLOAD PUSH1 0x24 ADD PUSH2 0x1B11 SWAP3 SWAP2 SWAP1 PUSH2 0x325E JUMP JUMPDEST PUSH1 0x40 MLOAD PUSH1 0x20 DUP2 DUP4 SUB SUB DUP2 MSTORE SWAP1 PUSH1 0x40 MSTORE SWAP1 PUSH28 0xFFFFFFFFFFFFFFFFFFFFFFFFFFFFFFFFFFFFFFFFFFFFFFFFFFFFFFFF NOT AND PUSH1 0x20 DUP3 ADD DUP1 MLOAD PUSH28 0xFFFFFFFFFFFFFFFFFFFFFFFFFFFFFFFFFFFFFFFFFFFFFFFFFFFFFFFF DUP4 DUP2 DUP4 AND OR DUP4 MSTORE POP POP POP POP PUSH1 0x40 MLOAD PUSH2 0x1B7B SWAP2 SWAP1 PUSH2 0x32CE JUMP JUMPDEST PUSH1 0x0 PUSH1 0x40 MLOAD DUP1 DUP4 SUB DUP2 PUSH1 0x0 DUP7 GAS CALL SWAP2 POP POP RETURNDATASIZE DUP1 PUSH1 0x0 DUP2 EQ PUSH2 0x1BB8 JUMPI PUSH1 0x40 MLOAD SWAP2 POP PUSH1 0x1F NOT PUSH1 0x3F RETURNDATASIZE ADD AND DUP3 ADD PUSH1 0x40 MSTORE RETURNDATASIZE DUP3 MSTORE RETURNDATASIZE PUSH1 0x0 PUSH1 0x20 DUP5 ADD RETURNDATACOPY PUSH2 0x1BBD JUMP JUMPDEST PUSH1 0x60 SWAP2 POP JUMPDEST POP SWAP2 POP SWAP2 POP DUP2 DUP1 ISZERO PUSH2 0x1BEB JUMPI POP PUSH1 0x0 DUP2 MLOAD EQ DUP1 PUSH2 0x1BEA JUMPI POP DUP1 DUP1 PUSH1 0x20 ADD SWAP1 MLOAD DUP2 ADD SWAP1 PUSH2 0x1BE9 SWAP2 SWAP1 PUSH2 0x3311 JUMP JUMPDEST JUMPDEST JUMPDEST PUSH2 0x1C2A JUMPI PUSH1 0x40 MLOAD PUSH32 0x8C379A000000000000000000000000000000000000000000000000000000000 DUP2 MSTORE PUSH1 0x4 ADD PUSH2 0x1C21 SWAP1 PUSH2 0x338A JUMP JUMPDEST PUSH1 0x40 MLOAD DUP1 SWAP2 SUB SWAP1 REVERT JUMPDEST POP POP POP POP POP JUMP JUMPDEST PUSH1 0x0 DUP1 DUP3 EQ DUP1 PUSH2 0x1C59 JUMPI POP DUP3 DUP3 DUP4 DUP6 PUSH2 0x1C4A SWAP2 SWAP1 PUSH2 0x33AA JUMP JUMPDEST SWAP3 POP DUP3 PUSH2 0x1C57 SWAP2 SWAP1 PUSH2 0x3109 JUMP JUMPDEST EQ JUMPDEST PUSH2 0x1C98 JUMPI PUSH1 0x40 MLOAD PUSH32 0x8C379A000000000000000000000000000000000000000000000000000000000 DUP2 MSTORE PUSH1 0x4 ADD PUSH2 0x1C8F SWAP1 PUSH2 0x3438 JUMP JUMPDEST PUSH1 0x40 MLOAD DUP1 SWAP2 SUB SWAP1 REVERT JUMPDEST SWAP3 SWAP2 POP POP JUMP JUMPDEST PUSH1 0x0 DUP3 DUP3 DUP5 PUSH2 0x1CAD SWAP2 SWAP1 PUSH2 0x2EF7 JUMP JUMPDEST SWAP2 POP DUP2 GT ISZERO PUSH2 0x1CF1 JUMPI PUSH1 0x40 MLOAD PUSH32 0x8C379A000000000000000000000000000000000000000000000000000000000 DUP2 MSTORE PUSH1 0x4 ADD PUSH2 0x1CE8 SWAP1 PUSH2 0x34A4 JUMP JUMPDEST PUSH1 0x40 MLOAD DUP1 SWAP2 SUB SWAP1 REVERT JUMPDEST SWAP3 SWAP2 POP POP JUMP JUMPDEST PUSH14 0xFFFFFFFFFFFFFFFFFFFFFFFFFFFF DUP1 AND DUP5 GT ISZERO DUP1 ISZERO PUSH2 0x1D27 JUMPI POP PUSH14 0xFFFFFFFFFFFFFFFFFFFFFFFFFFFF DUP1 AND DUP4 GT ISZERO JUMPDEST PUSH2 0x1D66 JUMPI PUSH1 0x40 MLOAD PUSH32 0x8C379A000000000000000000000000000000000000000000000000000000000 DUP2 MSTORE PUSH1 0x4 ADD PUSH2 0x1D5D SWAP1 PUSH2 0x3510 JUMP JUMPDEST PUSH1 0x40 MLOAD DUP1 SWAP2 SUB SWAP1 REVERT JUMPDEST PUSH1 0x0 PUSH5 0x100000000 TIMESTAMP PUSH2 0x1D79 SWAP2 SWAP1 PUSH2 0x3530 JUMP JUMPDEST SWAP1 POP PUSH1 0x0 PUSH1 0x7 PUSH1 0x1C SWAP1 SLOAD SWAP1 PUSH2 0x100 EXP SWAP1 DIV PUSH4 0xFFFFFFFF AND DUP3 PUSH2 0x1D9B SWAP2 SWAP1 PUSH2 0x3561 JUMP JUMPDEST SWAP1 POP PUSH1 0x0 DUP2 PUSH4 0xFFFFFFFF AND GT DUP1 ISZERO PUSH2 0x1DC4 JUMPI POP PUSH1 0x0 DUP5 PUSH14 0xFFFFFFFFFFFFFFFFFFFFFFFFFFFF AND EQ ISZERO JUMPDEST DUP1 ISZERO PUSH2 0x1DE1 JUMPI POP PUSH1 0x0 DUP4 PUSH14 0xFFFFFFFFFFFFFFFFFFFFFFFFFFFF AND EQ ISZERO JUMPDEST ISZERO PUSH2 0x1EE7 JUMPI DUP1 PUSH4 0xFFFFFFFF AND PUSH2 0x1E26 DUP6 PUSH2 0x1DFA DUP7 PUSH2 0x2702 JUMP JUMPDEST PUSH28 0xFFFFFFFFFFFFFFFFFFFFFFFFFFFFFFFFFFFFFFFFFFFFFFFFFFFFFFFF AND PUSH2 0x2736 SWAP1 SWAP2 SWAP1 PUSH4 0xFFFFFFFF AND JUMP JUMPDEST PUSH28 0xFFFFFFFFFFFFFFFFFFFFFFFFFFFFFFFFFFFFFFFFFFFFFFFFFFFFFFFF AND PUSH2 0x1E4E SWAP2 SWAP1 PUSH2 0x33AA JUMP JUMPDEST PUSH1 0x8 PUSH1 0x0 DUP3 DUP3 SLOAD PUSH2 0x1E5F SWAP2 SWAP1 PUSH2 0x3599 JUMP JUMPDEST SWAP3 POP POP DUP2 SWAP1 SSTORE POP DUP1 PUSH4 0xFFFFFFFF AND PUSH2 0x1EA6 DUP5 PUSH2 0x1E7A DUP8 PUSH2 0x2702 JUMP JUMPDEST PUSH28 0xFFFFFFFFFFFFFFFFFFFFFFFFFFFFFFFFFFFFFFFFFFFFFFFFFFFFFFFF AND PUSH2 0x2736 SWAP1 SWAP2 SWAP1 PUSH4 0xFFFFFFFF AND JUMP JUMPDEST PUSH28 0xFFFFFFFFFFFFFFFFFFFFFFFFFFFFFFFFFFFFFFFFFFFFFFFFFFFFFFFF AND PUSH2 0x1ECE SWAP2 SWAP1 PUSH2 0x33AA JUMP JUMPDEST PUSH1 0x9 PUSH1 0x0 DUP3 DUP3 SLOAD PUSH2 0x1EDF SWAP2 SWAP1 PUSH2 0x3599 JUMP JUMPDEST SWAP3 POP POP DUP2 SWAP1 SSTORE POP JUMPDEST DUP6 PUSH1 0x7 PUSH1 0x0 PUSH2 0x100 EXP DUP2 SLOAD DUP2 PUSH14 0xFFFFFFFFFFFFFFFFFFFFFFFFFFFF MUL NOT AND SWAP1 DUP4 PUSH14 0xFFFFFFFFFFFFFFFFFFFFFFFFFFFF AND MUL OR SWAP1 SSTORE POP DUP5 PUSH1 0x7 PUSH1 0xE PUSH2 0x100 EXP DUP2 SLOAD DUP2 PUSH14 0xFFFFFFFFFFFFFFFFFFFFFFFFFFFF MUL NOT AND SWAP1 DUP4 PUSH14 0xFFFFFFFFFFFFFFFFFFFFFFFFFFFF AND MUL OR SWAP1 SSTORE POP DUP2 PUSH1 0x7 PUSH1 0x1C PUSH2 0x100 EXP DUP2 SLOAD DUP2 PUSH4 0xFFFFFFFF MUL NOT AND SWAP1 DUP4 PUSH4 0xFFFFFFFF AND MUL OR SWAP1 SSTORE POP PUSH32 0x1C411E9A96E071241C2F21F7726B17AE89E3CAB4C78BE50E062B03A9FFFBBAD1 PUSH1 0x7 PUSH1 0x0 SWAP1 SLOAD SWAP1 PUSH2 0x100 EXP SWAP1 DIV PUSH14 0xFFFFFFFFFFFFFFFFFFFFFFFFFFFF AND PUSH1 0x7 PUSH1 0xE SWAP1 SLOAD SWAP1 PUSH2 0x100 EXP SWAP1 DIV PUSH14 0xFFFFFFFFFFFFFFFFFFFFFFFFFFFF AND PUSH1 0x40 MLOAD PUSH2 0x1FDB SWAP3 SWAP2 SWAP1 PUSH2 0x35CD JUMP JUMPDEST PUSH1 0x40 MLOAD DUP1 SWAP2 SUB SWAP1 LOG1 POP POP POP POP POP POP JUMP JUMPDEST DUP1 PUSH1 0x2 PUSH1 0x0 DUP6 PUSH20 0xFFFFFFFFFFFFFFFFFFFFFFFFFFFFFFFFFFFFFFFF AND PUSH20 0xFFFFFFFFFFFFFFFFFFFFFFFFFFFFFFFFFFFFFFFF AND DUP2 MSTORE PUSH1 0x20 ADD SWAP1 DUP2 MSTORE PUSH1 0x20 ADD PUSH1 0x0 KECCAK256 PUSH1 0x0 DUP5 PUSH20 0xFFFFFFFFFFFFFFFFFFFFFFFFFFFFFFFFFFFFFFFF AND PUSH20 0xFFFFFFFFFFFFFFFFFFFFFFFFFFFFFFFFFFFFFFFF AND DUP2 MSTORE PUSH1 0x20 ADD SWAP1 DUP2 MSTORE PUSH1 0x20 ADD PUSH1 0x0 KECCAK256 DUP2 SWAP1 SSTORE POP DUP2 PUSH20 0xFFFFFFFFFFFFFFFFFFFFFFFFFFFFFFFFFFFFFFFF AND DUP4 PUSH20 0xFFFFFFFFFFFFFFFFFFFFFFFFFFFFFFFFFFFFFFFF AND PUSH32 0x8C5BE1E5EBEC7D5BD14F71427D1E84F3DD0314C0F7B2291E5B200AC8C7C3B925 DUP4 PUSH1 0x40 MLOAD PUSH2 0x20C9 SWAP2 SWAP1 PUSH2 0x2B20 JUMP JUMPDEST PUSH1 0x40 MLOAD DUP1 SWAP2 SUB SWAP1 LOG3 POP POP POP JUMP JUMPDEST PUSH2 0x2128 DUP2 PUSH1 0x1 PUSH1 0x0 DUP7 PUSH20 0xFFFFFFFFFFFFFFFFFFFFFFFFFFFFFFFFFFFFFFFF AND PUSH20 0xFFFFFFFFFFFFFFFFFFFFFFFFFFFFFFFFFFFFFFFF AND DUP2 MSTORE PUSH1 0x20 ADD SWAP1 DUP2 MSTORE PUSH1 0x20 ADD PUSH1 0x0 KECCAK256 SLOAD PUSH2 0x1C9E SWAP1 SWAP2 SWAP1 PUSH4 0xFFFFFFFF AND JUMP JUMPDEST PUSH1 0x1 PUSH1 0x0 DUP6 PUSH20 0xFFFFFFFFFFFFFFFFFFFFFFFFFFFFFFFFFFFFFFFF AND PUSH20 0xFFFFFFFFFFFFFFFFFFFFFFFFFFFFFFFFFFFFFFFF AND DUP2 MSTORE PUSH1 0x20 ADD SWAP1 DUP2 MSTORE PUSH1 0x20 ADD PUSH1 0x0 KECCAK256 DUP2 SWAP1 SSTORE POP PUSH2 0x21BD DUP2 PUSH1 0x1 PUSH1 0x0 DUP6 PUSH20 0xFFFFFFFFFFFFFFFFFFFFFFFFFFFFFFFFFFFFFFFF AND PUSH20 0xFFFFFFFFFFFFFFFFFFFFFFFFFFFFFFFFFFFFFFFF AND DUP2 MSTORE PUSH1 0x20 ADD SWAP1 DUP2 MSTORE PUSH1 0x20 ADD PUSH1 0x0 KECCAK256 SLOAD PUSH2 0x275C SWAP1 SWAP2 SWAP1 PUSH4 0xFFFFFFFF AND JUMP JUMPDEST PUSH1 0x1 PUSH1 0x0 DUP5 PUSH20 0xFFFFFFFFFFFFFFFFFFFFFFFFFFFFFFFFFFFFFFFF AND PUSH20 0xFFFFFFFFFFFFFFFFFFFFFFFFFFFFFFFFFFFFFFFF AND DUP2 MSTORE PUSH1 0x20 ADD SWAP1 DUP2 MSTORE PUSH1 0x20 ADD PUSH1 0x0 KECCAK256 DUP2 SWAP1 SSTORE POP DUP2 PUSH20 0xFFFFFFFFFFFFFFFFFFFFFFFFFFFFFFFFFFFFFFFF AND DUP4 PUSH20 0xFFFFFFFFFFFFFFFFFFFFFFFFFFFFFFFFFFFFFFFF AND PUSH32 0xDDF252AD1BE2C89B69C2B068FC378DAA952BA7F163C4A11628F55A4DF523B3EF DUP4 PUSH1 0x40 MLOAD PUSH2 0x225D SWAP2 SWAP1 PUSH2 0x2B20 JUMP JUMPDEST PUSH1 0x40 MLOAD DUP1 SWAP2 SUB SWAP1 LOG3 POP POP POP JUMP JUMPDEST PUSH1 0x0 DUP1 PUSH1 0x4 PUSH1 0x0 SWAP1 SLOAD SWAP1 PUSH2 0x100 EXP SWAP1 DIV PUSH20 0xFFFFFFFFFFFFFFFFFFFFFFFFFFFFFFFFFFFFFFFF AND PUSH20 0xFFFFFFFFFFFFFFFFFFFFFFFFFFFFFFFFFFFFFFFF AND PUSH4 0x17E7E58 PUSH1 0x40 MLOAD DUP2 PUSH4 0xFFFFFFFF AND PUSH1 0xE0 SHL DUP2 MSTORE PUSH1 0x4 ADD PUSH1 0x20 PUSH1 0x40 MLOAD DUP1 DUP4 SUB DUP2 DUP7 GAS STATICCALL ISZERO DUP1 ISZERO PUSH2 0x22DA JUMPI RETURNDATASIZE PUSH1 0x0 DUP1 RETURNDATACOPY RETURNDATASIZE PUSH1 0x0 REVERT JUMPDEST POP POP POP POP PUSH1 0x40 MLOAD RETURNDATASIZE PUSH1 0x1F NOT PUSH1 0x1F DUP3 ADD AND DUP3 ADD DUP1 PUSH1 0x40 MSTORE POP DUP2 ADD SWAP1 PUSH2 0x22FE SWAP2 SWAP1 PUSH2 0x360B JUMP JUMPDEST SWAP1 POP PUSH1 0x0 PUSH20 0xFFFFFFFFFFFFFFFFFFFFFFFFFFFFFFFFFFFFFFFF AND DUP2 PUSH20 0xFFFFFFFFFFFFFFFFFFFFFFFFFFFFFFFFFFFFFFFF AND EQ ISZERO SWAP2 POP PUSH1 0x0 PUSH1 0xA SLOAD SWAP1 POP DUP3 ISZERO PUSH2 0x2421 JUMPI PUSH1 0x0 DUP2 EQ PUSH2 0x241C JUMPI PUSH1 0x0 PUSH2 0x2385 PUSH2 0x2380 DUP7 PUSH14 0xFFFFFFFFFFFFFFFFFFFFFFFFFFFF AND DUP9 PUSH14 0xFFFFFFFFFFFFFFFFFFFFFFFFFFFF AND PUSH2 0x1C31 SWAP1 SWAP2 SWAP1 PUSH4 0xFFFFFFFF AND JUMP JUMPDEST PUSH2 0x243B JUMP JUMPDEST SWAP1 POP PUSH1 0x0 PUSH2 0x2392 DUP4 PUSH2 0x243B JUMP JUMPDEST SWAP1 POP DUP1 DUP3 GT ISZERO PUSH2 0x2419 JUMPI PUSH1 0x0 PUSH2 0x23C5 PUSH2 0x23B4 DUP4 DUP6 PUSH2 0x1C9E SWAP1 SWAP2 SWAP1 PUSH4 0xFFFFFFFF AND JUMP JUMPDEST PUSH1 0x0 SLOAD PUSH2 0x1C31 SWAP1 SWAP2 SWAP1 PUSH4 0xFFFFFFFF AND JUMP JUMPDEST SWAP1 POP PUSH1 0x0 PUSH2 0x23EF DUP4 PUSH2 0x23E1 PUSH1 0x5 DUP8 PUSH2 0x1C31 SWAP1 SWAP2 SWAP1 PUSH4 0xFFFFFFFF AND JUMP JUMPDEST PUSH2 0x275C SWAP1 SWAP2 SWAP1 PUSH4 0xFFFFFFFF AND JUMP JUMPDEST SWAP1 POP PUSH1 0x0 DUP2 DUP4 PUSH2 0x23FF SWAP2 SWAP1 PUSH2 0x3109 JUMP JUMPDEST SWAP1 POP PUSH1 0x0 DUP2 GT ISZERO PUSH2 0x2415 JUMPI PUSH2 0x2414 DUP8 DUP3 PUSH2 0x24B5 JUMP JUMPDEST JUMPDEST POP POP POP JUMPDEST POP POP JUMPDEST PUSH2 0x2433 JUMP JUMPDEST PUSH1 0x0 DUP2 EQ PUSH2 0x2432 JUMPI PUSH1 0x0 PUSH1 0xA DUP2 SWAP1 SSTORE POP JUMPDEST JUMPDEST POP POP SWAP3 SWAP2 POP POP JUMP JUMPDEST PUSH1 0x0 PUSH1 0x3 DUP3 GT ISZERO PUSH2 0x24A2 JUMPI DUP2 SWAP1 POP PUSH1 0x0 PUSH1 0x1 PUSH1 0x2 DUP5 PUSH2 0x245A SWAP2 SWAP1 PUSH2 0x3109 JUMP JUMPDEST PUSH2 0x2464 SWAP2 SWAP1 PUSH2 0x3599 JUMP JUMPDEST SWAP1 POP JUMPDEST DUP2 DUP2 LT ISZERO PUSH2 0x249C JUMPI DUP1 SWAP2 POP PUSH1 0x2 DUP2 DUP3 DUP6 PUSH2 0x2481 SWAP2 SWAP1 PUSH2 0x3109 JUMP JUMPDEST PUSH2 0x248B SWAP2 SWAP1 PUSH2 0x3599 JUMP JUMPDEST PUSH2 0x2495 SWAP2 SWAP1 PUSH2 0x3109 JUMP JUMPDEST SWAP1 POP PUSH2 0x2467 JUMP JUMPDEST POP PUSH2 0x24B0 JUMP JUMPDEST PUSH1 0x0 DUP3 EQ PUSH2 0x24AF JUMPI PUSH1 0x1 SWAP1 POP JUMPDEST JUMPDEST SWAP2 SWAP1 POP JUMP JUMPDEST PUSH2 0x24CA DUP2 PUSH1 0x0 SLOAD PUSH2 0x275C SWAP1 SWAP2 SWAP1 PUSH4 0xFFFFFFFF AND JUMP JUMPDEST PUSH1 0x0 DUP2 SWAP1 SSTORE POP PUSH2 0x2522 DUP2 PUSH1 0x1 PUSH1 0x0 DUP6 PUSH20 0xFFFFFFFFFFFFFFFFFFFFFFFFFFFFFFFFFFFFFFFF AND PUSH20 0xFFFFFFFFFFFFFFFFFFFFFFFFFFFFFFFFFFFFFFFF AND DUP2 MSTORE PUSH1 0x20 ADD SWAP1 DUP2 MSTORE PUSH1 0x20 ADD PUSH1 0x0 KECCAK256 SLOAD PUSH2 0x275C SWAP1 SWAP2 SWAP1 PUSH4 0xFFFFFFFF AND JUMP JUMPDEST PUSH1 0x1 PUSH1 0x0 DUP5 PUSH20 0xFFFFFFFFFFFFFFFFFFFFFFFFFFFFFFFFFFFFFFFF AND PUSH20 0xFFFFFFFFFFFFFFFFFFFFFFFFFFFFFFFFFFFFFFFF AND DUP2 MSTORE PUSH1 0x20 ADD SWAP1 DUP2 MSTORE PUSH1 0x20 ADD PUSH1 0x0 KECCAK256 DUP2 SWAP1 SSTORE POP DUP2 PUSH20 0xFFFFFFFFFFFFFFFFFFFFFFFFFFFFFFFFFFFFFFFF AND PUSH1 0x0 PUSH20 0xFFFFFFFFFFFFFFFFFFFFFFFFFFFFFFFFFFFFFFFF AND PUSH32 0xDDF252AD1BE2C89B69C2B068FC378DAA952BA7F163C4A11628F55A4DF523B3EF DUP4 PUSH1 0x40 MLOAD PUSH2 0x25C3 SWAP2 SWAP1 PUSH2 0x2B20 JUMP JUMPDEST PUSH1 0x40 MLOAD DUP1 SWAP2 SUB SWAP1 LOG3 POP POP JUMP JUMPDEST PUSH1 0x0 DUP2 DUP4 LT PUSH2 0x25DE JUMPI DUP2 PUSH2 0x25E0 JUMP JUMPDEST DUP3 JUMPDEST SWAP1 POP SWAP3 SWAP2 POP POP JUMP JUMPDEST PUSH2 0x263A DUP2 PUSH1 0x1 PUSH1 0x0 DUP6 PUSH20 0xFFFFFFFFFFFFFFFFFFFFFFFFFFFFFFFFFFFFFFFF AND PUSH20 0xFFFFFFFFFFFFFFFFFFFFFFFFFFFFFFFFFFFFFFFF AND DUP2 MSTORE PUSH1 0x20 ADD SWAP1 DUP2 MSTORE PUSH1 0x20 ADD PUSH1 0x0 KECCAK256 SLOAD PUSH2 0x1C9E SWAP1 SWAP2 SWAP1 PUSH4 0xFFFFFFFF AND JUMP JUMPDEST PUSH1 0x1 PUSH1 0x0 DUP5 PUSH20 0xFFFFFFFFFFFFFFFFFFFFFFFFFFFFFFFFFFFFFFFF AND PUSH20 0xFFFFFFFFFFFFFFFFFFFFFFFFFFFFFFFFFFFFFFFF AND DUP2 MSTORE PUSH1 0x20 ADD SWAP1 DUP2 MSTORE PUSH1 0x20 ADD PUSH1 0x0 KECCAK256 DUP2 SWAP1 SSTORE POP PUSH2 0x2692 DUP2 PUSH1 0x0 SLOAD PUSH2 0x1C9E SWAP1 SWAP2 SWAP1 PUSH4 0xFFFFFFFF AND JUMP JUMPDEST PUSH1 0x0 DUP2 SWAP1 SSTORE POP PUSH1 0x0 PUSH20 0xFFFFFFFFFFFFFFFFFFFFFFFFFFFFFFFFFFFFFFFF AND DUP3 PUSH20 0xFFFFFFFFFFFFFFFFFFFFFFFFFFFFFFFFFFFFFFFF AND PUSH32 0xDDF252AD1BE2C89B69C2B068FC378DAA952BA7F163C4A11628F55A4DF523B3EF DUP4 PUSH1 0x40 MLOAD PUSH2 0x26F6 SWAP2 SWAP1 PUSH2 0x2B20 JUMP JUMPDEST PUSH1 0x40 MLOAD DUP1 SWAP2 SUB SWAP1 LOG3 POP POP JUMP JUMPDEST PUSH1 0x0 PUSH15 0x10000000000000000000000000000 DUP3 PUSH14 0xFFFFFFFFFFFFFFFFFFFFFFFFFFFF AND PUSH2 0x272F SWAP2 SWAP1 PUSH2 0x3660 JUMP JUMPDEST SWAP1 POP SWAP2 SWAP1 POP JUMP JUMPDEST PUSH1 0x0 DUP2 PUSH14 0xFFFFFFFFFFFFFFFFFFFFFFFFFFFF AND DUP4 PUSH2 0x2754 SWAP2 SWAP1 PUSH2 0x36A2 JUMP JUMPDEST SWAP1 POP SWAP3 SWAP2 POP POP JUMP JUMPDEST PUSH1 0x0 DUP3 DUP3 DUP5 PUSH2 0x276B SWAP2 SWAP1 PUSH2 0x3599 JUMP JUMPDEST SWAP2 POP DUP2 LT ISZERO PUSH2 0x27AF JUMPI PUSH1 0x40 MLOAD PUSH32 0x8C379A000000000000000000000000000000000000000000000000000000000 DUP2 MSTORE PUSH1 0x4 ADD PUSH2 0x27A6 SWAP1 PUSH2 0x371F JUMP JUMPDEST PUSH1 0x40 MLOAD DUP1 SWAP2 SUB SWAP1 REVERT JUMPDEST SWAP3 SWAP2 POP POP JUMP JUMPDEST PUSH1 0x0 DUP1 REVERT JUMPDEST PUSH1 0x0 DUP1 REVERT JUMPDEST PUSH1 0x0 DUP2 SWAP1 POP SWAP2 SWAP1 POP JUMP JUMPDEST PUSH2 0x27D2 DUP2 PUSH2 0x27BF JUMP JUMPDEST DUP2 EQ PUSH2 0x27DD JUMPI PUSH1 0x0 DUP1 REVERT JUMPDEST POP JUMP JUMPDEST PUSH1 0x0 DUP2 CALLDATALOAD SWAP1 POP PUSH2 0x27EF DUP2 PUSH2 0x27C9 JUMP JUMPDEST SWAP3 SWAP2 POP POP JUMP JUMPDEST PUSH1 0x0 PUSH20 0xFFFFFFFFFFFFFFFFFFFFFFFFFFFFFFFFFFFFFFFF DUP3 AND SWAP1 POP SWAP2 SWAP1 POP JUMP JUMPDEST PUSH1 0x0 PUSH2 0x2820 DUP3 PUSH2 0x27F5 JUMP JUMPDEST SWAP1 POP SWAP2 SWAP1 POP JUMP JUMPDEST PUSH2 0x2830 DUP2 PUSH2 0x2815 JUMP JUMPDEST DUP2 EQ PUSH2 0x283B JUMPI PUSH1 0x0 DUP1 REVERT JUMPDEST POP JUMP JUMPDEST PUSH1 0x0 DUP2 CALLDATALOAD SWAP1 POP PUSH2 0x284D DUP2 PUSH2 0x2827 JUMP JUMPDEST SWAP3 SWAP2 POP POP JUMP JUMPDEST PUSH1 0x0 DUP1 REVERT JUMPDEST PUSH1 0x0 DUP1 REVERT JUMPDEST PUSH1 0x0 DUP1 REVERT JUMPDEST PUSH1 0x0 DUP1 DUP4 PUSH1 0x1F DUP5 ADD SLT PUSH2 0x2878 JUMPI PUSH2 0x2877 PUSH2 0x2853 JUMP JUMPDEST JUMPDEST DUP3 CALLDATALOAD SWAP1 POP PUSH8 0xFFFFFFFFFFFFFFFF DUP2 GT ISZERO PUSH2 0x2895 JUMPI PUSH2 0x2894 PUSH2 0x2858 JUMP JUMPDEST JUMPDEST PUSH1 0x20 DUP4 ADD SWAP2 POP DUP4 PUSH1 0x1 DUP3 MUL DUP4 ADD GT ISZERO PUSH2 0x28B1 JUMPI PUSH2 0x28B0 PUSH2 0x285D JUMP JUMPDEST JUMPDEST SWAP3 POP SWAP3 SWAP1 POP JUMP JUMPDEST PUSH1 0x0 DUP1 PUSH1 0x0 DUP1 PUSH1 0x0 PUSH1 0x80 DUP7 DUP9 SUB SLT ISZERO PUSH2 0x28D4 JUMPI PUSH2 0x28D3 PUSH2 0x27B5 JUMP JUMPDEST JUMPDEST PUSH1 0x0 PUSH2 0x28E2 DUP9 DUP3 DUP10 ADD PUSH2 0x27E0 JUMP JUMPDEST SWAP6 POP POP PUSH1 0x20 PUSH2 0x28F3 DUP9 DUP3 DUP10 ADD PUSH2 0x27E0 JUMP JUMPDEST SWAP5 POP POP PUSH1 0x40 PUSH2 0x2904 DUP9 DUP3 DUP10 ADD PUSH2 0x283E JUMP JUMPDEST SWAP4 POP POP PUSH1 0x60 DUP7 ADD CALLDATALOAD PUSH8 0xFFFFFFFFFFFFFFFF DUP2 GT ISZERO PUSH2 0x2925 JUMPI PUSH2 0x2924 PUSH2 0x27BA JUMP JUMPDEST JUMPDEST PUSH2 0x2931 DUP9 DUP3 DUP10 ADD PUSH2 0x2862 JUMP JUMPDEST SWAP3 POP SWAP3 POP POP SWAP3 SWAP6 POP SWAP3 SWAP6 SWAP1 SWAP4 POP JUMP JUMPDEST PUSH1 0x0 DUP2 MLOAD SWAP1 POP SWAP2 SWAP1 POP JUMP JUMPDEST PUSH1 0x0 DUP3 DUP3 MSTORE PUSH1 0x20 DUP3 ADD SWAP1 POP SWAP3 SWAP2 POP POP JUMP JUMPDEST PUSH1 0x0 JUMPDEST DUP4 DUP2 LT ISZERO PUSH2 0x297A JUMPI DUP1 DUP3 ADD MLOAD DUP2 DUP5 ADD MSTORE PUSH1 0x20 DUP2 ADD SWAP1 POP PUSH2 0x295F JUMP JUMPDEST PUSH1 0x0 DUP5 DUP5 ADD MSTORE POP POP POP POP JUMP JUMPDEST PUSH1 0x0 PUSH1 0x1F NOT PUSH1 0x1F DUP4 ADD AND SWAP1 POP SWAP2 SWAP1 POP JUMP JUMPDEST PUSH1 0x0 PUSH2 0x29A2 DUP3 PUSH2 0x2940 JUMP JUMPDEST PUSH2 0x29AC DUP2 DUP6 PUSH2 0x294B JUMP JUMPDEST SWAP4 POP PUSH2 0x29BC DUP2 DUP6 PUSH1 0x20 DUP7 ADD PUSH2 0x295C JUMP JUMPDEST PUSH2 0x29C5 DUP2 PUSH2 0x2986 JUMP JUMPDEST DUP5 ADD SWAP2 POP POP SWAP3 SWAP2 POP POP JUMP JUMPDEST PUSH1 0x0 PUSH1 0x20 DUP3 ADD SWAP1 POP DUP2 DUP2 SUB PUSH1 0x0 DUP4 ADD MSTORE PUSH2 0x29EA DUP2 DUP5 PUSH2 0x2997 JUMP JUMPDEST SWAP1 POP SWAP3 SWAP2 POP POP JUMP JUMPDEST PUSH1 0x0 PUSH14 0xFFFFFFFFFFFFFFFFFFFFFFFFFFFF DUP3 AND SWAP1 POP SWAP2 SWAP1 POP JUMP JUMPDEST PUSH2 0x2A15 DUP2 PUSH2 0x29F2 JUMP JUMPDEST DUP3 MSTORE POP POP JUMP JUMPDEST PUSH1 0x0 PUSH4 0xFFFFFFFF DUP3 AND SWAP1 POP SWAP2 SWAP1 POP JUMP JUMPDEST PUSH2 0x2A34 DUP2 PUSH2 0x2A1B JUMP JUMPDEST DUP3 MSTORE POP POP JUMP JUMPDEST PUSH1 0x0 PUSH1 0x60 DUP3 ADD SWAP1 POP PUSH2 0x2A4F PUSH1 0x0 DUP4 ADD DUP7 PUSH2 0x2A0C JUMP JUMPDEST PUSH2 0x2A5C PUSH1 0x20 DUP4 ADD DUP6 PUSH2 0x2A0C JUMP JUMPDEST PUSH2 0x2A69 PUSH1 0x40 DUP4 ADD DUP5 PUSH2 0x2A2B JUMP JUMPDEST SWAP5 SWAP4 POP POP POP POP JUMP JUMPDEST PUSH1 0x0 DUP1 PUSH1 0x40 DUP4 DUP6 SUB SLT ISZERO PUSH2 0x2A88 JUMPI PUSH2 0x2A87 PUSH2 0x27B5 JUMP JUMPDEST JUMPDEST PUSH1 0x0 PUSH2 0x2A96 DUP6 DUP3 DUP7 ADD PUSH2 0x283E JUMP JUMPDEST SWAP3 POP POP PUSH1 0x20 PUSH2 0x2AA7 DUP6 DUP3 DUP7 ADD PUSH2 0x27E0 JUMP JUMPDEST SWAP2 POP POP SWAP3 POP SWAP3 SWAP1 POP JUMP JUMPDEST PUSH1 0x0 DUP2 ISZERO ISZERO SWAP1 POP SWAP2 SWAP1 POP JUMP JUMPDEST PUSH2 0x2AC6 DUP2 PUSH2 0x2AB1 JUMP JUMPDEST DUP3 MSTORE POP POP JUMP JUMPDEST PUSH1 0x0 PUSH1 0x20 DUP3 ADD SWAP1 POP PUSH2 0x2AE1 PUSH1 0x0 DUP4 ADD DUP5 PUSH2 0x2ABD JUMP JUMPDEST SWAP3 SWAP2 POP POP JUMP JUMPDEST PUSH2 0x2AF0 DUP2 PUSH2 0x2815 JUMP JUMPDEST DUP3 MSTORE POP POP JUMP JUMPDEST PUSH1 0x0 PUSH1 0x20 DUP3 ADD SWAP1 POP PUSH2 0x2B0B PUSH1 0x0 DUP4 ADD DUP5 PUSH2 0x2AE7 JUMP JUMPDEST SWAP3 SWAP2 POP POP JUMP JUMPDEST PUSH2 0x2B1A DUP2 PUSH2 0x27BF JUMP JUMPDEST DUP3 MSTORE POP POP JUMP JUMPDEST PUSH1 0x0 PUSH1 0x20 DUP3 ADD SWAP1 POP PUSH2 0x2B35 PUSH1 0x0 DUP4 ADD DUP5 PUSH2 0x2B11 JUMP JUMPDEST SWAP3 SWAP2 POP POP JUMP JUMPDEST PUSH1 0x0 DUP1 PUSH1 0x0 PUSH1 0x60 DUP5 DUP7 SUB SLT ISZERO PUSH2 0x2B54 JUMPI PUSH2 0x2B53 PUSH2 0x27B5 JUMP JUMPDEST JUMPDEST PUSH1 0x0 PUSH2 0x2B62 DUP7 DUP3 DUP8 ADD PUSH2 0x283E JUMP JUMPDEST SWAP4 POP POP PUSH1 0x20 PUSH2 0x2B73 DUP7 DUP3 DUP8 ADD PUSH2 0x283E JUMP JUMPDEST SWAP3 POP POP PUSH1 0x40 PUSH2 0x2B84 DUP7 DUP3 DUP8 ADD PUSH2 0x27E0 JUMP JUMPDEST SWAP2 POP POP SWAP3 POP SWAP3 POP SWAP3 JUMP JUMPDEST PUSH1 0x0 PUSH1 0xFF DUP3 AND SWAP1 POP SWAP2 SWAP1 POP JUMP JUMPDEST PUSH2 0x2BA4 DUP2 PUSH2 0x2B8E JUMP JUMPDEST DUP3 MSTORE POP POP JUMP JUMPDEST PUSH1 0x0 PUSH1 0x20 DUP3 ADD SWAP1 POP PUSH2 0x2BBF PUSH1 0x0 DUP4 ADD DUP5 PUSH2 0x2B9B JUMP JUMPDEST SWAP3 SWAP2 POP POP JUMP JUMPDEST PUSH1 0x0 DUP1 PUSH1 0x40 DUP4 DUP6 SUB SLT ISZERO PUSH2 0x2BDC JUMPI PUSH2 0x2BDB PUSH2 0x27B5 JUMP JUMPDEST JUMPDEST PUSH1 0x0 PUSH2 0x2BEA DUP6 DUP3 DUP7 ADD PUSH2 0x283E JUMP JUMPDEST SWAP3 POP POP PUSH1 0x20 PUSH2 0x2BFB DUP6 DUP3 DUP7 ADD PUSH2 0x283E JUMP JUMPDEST SWAP2 POP POP SWAP3 POP SWAP3 SWAP1 POP JUMP JUMPDEST PUSH1 0x0 PUSH1 0x20 DUP3 DUP5 SUB SLT ISZERO PUSH2 0x2C1B JUMPI PUSH2 0x2C1A PUSH2 0x27B5 JUMP JUMPDEST JUMPDEST PUSH1 0x0 PUSH2 0x2C29 DUP5 DUP3 DUP6 ADD PUSH2 0x283E JUMP JUMPDEST SWAP2 POP POP SWAP3 SWAP2 POP POP JUMP JUMPDEST PUSH1 0x0 PUSH1 0x40 DUP3 ADD SWAP1 POP PUSH2 0x2C47 PUSH1 0x0 DUP4 ADD DUP6 PUSH2 0x2B11 JUMP JUMPDEST PUSH2 0x2C54 PUSH1 0x20 DUP4 ADD DUP5 PUSH2 0x2B11 JUMP JUMPDEST SWAP4 SWAP3 POP POP POP JUMP JUMPDEST PUSH32 0x556E697377617056323A20494E53554646494349454E545F4F55545055545F41 PUSH1 0x0 DUP3 ADD MSTORE PUSH32 0x4D4F554E54000000000000000000000000000000000000000000000000000000 PUSH1 0x20 DUP3 ADD MSTORE POP JUMP JUMPDEST PUSH1 0x0 PUSH2 0x2CB7 PUSH1 0x25 DUP4 PUSH2 0x294B JUMP JUMPDEST SWAP2 POP PUSH2 0x2CC2 DUP3 PUSH2 0x2C5B JUMP JUMPDEST PUSH1 0x40 DUP3 ADD SWAP1 POP SWAP2 SWAP1 POP JUMP JUMPDEST PUSH1 0x0 PUSH1 0x20 DUP3 ADD SWAP1 POP DUP2 DUP2 SUB PUSH1 0x0 DUP4 ADD MSTORE PUSH2 0x2CE6 DUP2 PUSH2 0x2CAA JUMP JUMPDEST SWAP1 POP SWAP2 SWAP1 POP JUMP JUMPDEST PUSH32 0x556E697377617056323A20494E53554646494349454E545F4C49515549444954 PUSH1 0x0 DUP3 ADD MSTORE PUSH32 0x5900000000000000000000000000000000000000000000000000000000000000 PUSH1 0x20 DUP3 ADD MSTORE POP JUMP JUMPDEST PUSH1 0x0 PUSH2 0x2D49 PUSH1 0x21 DUP4 PUSH2 0x294B JUMP JUMPDEST SWAP2 POP PUSH2 0x2D54 DUP3 PUSH2 0x2CED JUMP JUMPDEST PUSH1 0x40 DUP3 ADD SWAP1 POP SWAP2 SWAP1 POP JUMP JUMPDEST PUSH1 0x0 PUSH1 0x20 DUP3 ADD SWAP1 POP DUP2 DUP2 SUB PUSH1 0x0 DUP4 ADD MSTORE PUSH2 0x2D78 DUP2 PUSH2 0x2D3C JUMP JUMPDEST SWAP1 POP SWAP2 SWAP1 POP JUMP JUMPDEST PUSH32 0x556E697377617056323A20494E56414C49445F544F0000000000000000000000 PUSH1 0x0 DUP3 ADD MSTORE POP JUMP JUMPDEST PUSH1 0x0 PUSH2 0x2DB5 PUSH1 0x15 DUP4 PUSH2 0x294B JUMP JUMPDEST SWAP2 POP PUSH2 0x2DC0 DUP3 PUSH2 0x2D7F JUMP JUMPDEST PUSH1 0x20 DUP3 ADD SWAP1 POP SWAP2 SWAP1 POP JUMP JUMPDEST PUSH1 0x0 PUSH1 0x20 DUP3 ADD SWAP1 POP DUP2 DUP2 SUB PUSH1 0x0 DUP4 ADD MSTORE PUSH2 0x2DE4 DUP2 PUSH2 0x2DA8 JUMP JUMPDEST SWAP1 POP SWAP2 SWAP1 POP JUMP JUMPDEST PUSH1 0x0 DUP3 DUP3 MSTORE PUSH1 0x20 DUP3 ADD SWAP1 POP SWAP3 SWAP2 POP POP JUMP JUMPDEST DUP3 DUP2 DUP4 CALLDATACOPY PUSH1 0x0 DUP4 DUP4 ADD MSTORE POP POP POP JUMP JUMPDEST PUSH1 0x0 PUSH2 0x2E17 DUP4 DUP6 PUSH2 0x2DEB JUMP JUMPDEST SWAP4 POP PUSH2 0x2E24 DUP4 DUP6 DUP5 PUSH2 0x2DFC JUMP JUMPDEST PUSH2 0x2E2D DUP4 PUSH2 0x2986 JUMP JUMPDEST DUP5 ADD SWAP1 POP SWAP4 SWAP3 POP POP POP JUMP JUMPDEST PUSH1 0x0 PUSH1 0x80 DUP3 ADD SWAP1 POP PUSH2 0x2E4D PUSH1 0x0 DUP4 ADD DUP9 PUSH2 0x2AE7 JUMP JUMPDEST PUSH2 0x2E5A PUSH1 0x20 DUP4 ADD DUP8 PUSH2 0x2B11 JUMP JUMPDEST PUSH2 0x2E67 PUSH1 0x40 DUP4 ADD DUP7 PUSH2 0x2B11 JUMP JUMPDEST DUP2 DUP2 SUB PUSH1 0x60 DUP4 ADD MSTORE PUSH2 0x2E7A DUP2 DUP5 DUP7 PUSH2 0x2E0B JUMP JUMPDEST SWAP1 POP SWAP7 SWAP6 POP POP POP POP POP POP JUMP JUMPDEST PUSH1 0x0 DUP2 MLOAD SWAP1 POP PUSH2 0x2E95 DUP2 PUSH2 0x27C9 JUMP JUMPDEST SWAP3 SWAP2 POP POP JUMP JUMPDEST PUSH1 0x0 PUSH1 0x20 DUP3 DUP5 SUB SLT ISZERO PUSH2 0x2EB1 JUMPI PUSH2 0x2EB0 PUSH2 0x27B5 JUMP JUMPDEST JUMPDEST PUSH1 0x0 PUSH2 0x2EBF DUP5 DUP3 DUP6 ADD PUSH2 0x2E86 JUMP JUMPDEST SWAP2 POP POP SWAP3 SWAP2 POP POP JUMP JUMPDEST PUSH32 0x4E487B7100000000000000000000000000000000000000000000000000000000 PUSH1 0x0 MSTORE PUSH1 0x11 PUSH1 0x4 MSTORE PUSH1 0x24 PUSH1 0x0 REVERT JUMPDEST PUSH1 0x0 PUSH2 0x2F02 DUP3 PUSH2 0x27BF JUMP JUMPDEST SWAP2 POP PUSH2 0x2F0D DUP4 PUSH2 0x27BF JUMP JUMPDEST SWAP3 POP DUP3 DUP3 SUB SWAP1 POP DUP2 DUP2 GT ISZERO PUSH2 0x2F25 JUMPI PUSH2 0x2F24 PUSH2 0x2EC8 JUMP JUMPDEST JUMPDEST SWAP3 SWAP2 POP POP JUMP JUMPDEST PUSH32 0x556E697377617056323A20494E53554646494349454E545F494E5055545F414D PUSH1 0x0 DUP3 ADD MSTORE PUSH32 0x4F554E5400000000000000000000000000000000000000000000000000000000 PUSH1 0x20 DUP3 ADD MSTORE POP JUMP JUMPDEST PUSH1 0x0 PUSH2 0x2F87 PUSH1 0x24 DUP4 PUSH2 0x294B JUMP JUMPDEST SWAP2 POP PUSH2 0x2F92 DUP3 PUSH2 0x2F2B JUMP JUMPDEST PUSH1 0x40 DUP3 ADD SWAP1 POP SWAP2 SWAP1 POP JUMP JUMPDEST PUSH1 0x0 PUSH1 0x20 DUP3 ADD SWAP1 POP DUP2 DUP2 SUB PUSH1 0x0 DUP4 ADD MSTORE PUSH2 0x2FB6 DUP2 PUSH2 0x2F7A JUMP JUMPDEST SWAP1 POP SWAP2 SWAP1 POP JUMP JUMPDEST PUSH32 0x556E697377617056323A204B0000000000000000000000000000000000000000 PUSH1 0x0 DUP3 ADD MSTORE POP JUMP JUMPDEST PUSH1 0x0 PUSH2 0x2FF3 PUSH1 0xC DUP4 PUSH2 0x294B JUMP JUMPDEST SWAP2 POP PUSH2 0x2FFE DUP3 PUSH2 0x2FBD JUMP JUMPDEST PUSH1 0x20 DUP3 ADD SWAP1 POP SWAP2 SWAP1 POP JUMP JUMPDEST PUSH1 0x0 PUSH1 0x20 DUP3 ADD SWAP1 POP DUP2 DUP2 SUB PUSH1 0x0 DUP4 ADD MSTORE PUSH2 0x3022 DUP2 PUSH2 0x2FE6 JUMP JUMPDEST SWAP1 POP SWAP2 SWAP1 POP JUMP JUMPDEST PUSH1 0x0 PUSH1 0x80 DUP3 ADD SWAP1 POP PUSH2 0x303E PUSH1 0x0 DUP4 ADD DUP8 PUSH2 0x2B11 JUMP JUMPDEST PUSH2 0x304B PUSH1 0x20 DUP4 ADD DUP7 PUSH2 0x2B11 JUMP JUMPDEST PUSH2 0x3058 PUSH1 0x40 DUP4 ADD DUP6 PUSH2 0x2B11 JUMP JUMPDEST PUSH2 0x3065 PUSH1 0x60 DUP4 ADD DUP5 PUSH2 0x2B11 JUMP JUMPDEST SWAP6 SWAP5 POP POP POP POP POP JUMP JUMPDEST PUSH32 0x556E697377617056323A20464F5242494444454E000000000000000000000000 PUSH1 0x0 DUP3 ADD MSTORE POP JUMP JUMPDEST PUSH1 0x0 PUSH2 0x30A4 PUSH1 0x14 DUP4 PUSH2 0x294B JUMP JUMPDEST SWAP2 POP PUSH2 0x30AF DUP3 PUSH2 0x306E JUMP JUMPDEST PUSH1 0x20 DUP3 ADD SWAP1 POP SWAP2 SWAP1 POP JUMP JUMPDEST PUSH1 0x0 PUSH1 0x20 DUP3 ADD SWAP1 POP DUP2 DUP2 SUB PUSH1 0x0 DUP4 ADD MSTORE PUSH2 0x30D3 DUP2 PUSH2 0x3097 JUMP JUMPDEST SWAP1 POP SWAP2 SWAP1 POP JUMP JUMPDEST PUSH32 0x4E487B7100000000000000000000000000000000000000000000000000000000 PUSH1 0x0 MSTORE PUSH1 0x12 PUSH1 0x4 MSTORE PUSH1 0x24 PUSH1 0x0 REVERT JUMPDEST PUSH1 0x0 PUSH2 0x3114 DUP3 PUSH2 0x27BF JUMP JUMPDEST SWAP2 POP PUSH2 0x311F DUP4 PUSH2 0x27BF JUMP JUMPDEST SWAP3 POP DUP3 PUSH2 0x312F JUMPI PUSH2 0x312E PUSH2 0x30DA JUMP JUMPDEST JUMPDEST DUP3 DUP3 DIV SWAP1 POP SWAP3 SWAP2 POP POP JUMP JUMPDEST PUSH32 0x556E697377617056323A20494E53554646494349454E545F4C49515549444954 PUSH1 0x0 DUP3 ADD MSTORE PUSH32 0x595F4D494E544544000000000000000000000000000000000000000000000000 PUSH1 0x20 DUP3 ADD MSTORE POP JUMP JUMPDEST PUSH1 0x0 PUSH2 0x3196 PUSH1 0x28 DUP4 PUSH2 0x294B JUMP JUMPDEST SWAP2 POP PUSH2 0x31A1 DUP3 PUSH2 0x313A JUMP JUMPDEST PUSH1 0x40 DUP3 ADD SWAP1 POP SWAP2 SWAP1 POP JUMP JUMPDEST PUSH1 0x0 PUSH1 0x20 DUP3 ADD SWAP1 POP DUP2 DUP2 SUB PUSH1 0x0 DUP4 ADD MSTORE PUSH2 0x31C5 DUP2 PUSH2 0x3189 JUMP JUMPDEST SWAP1 POP SWAP2 SWAP1 POP JUMP JUMPDEST PUSH32 0x556E697377617056323A20494E53554646494349454E545F4C49515549444954 PUSH1 0x0 DUP3 ADD MSTORE PUSH32 0x595F4255524E4544000000000000000000000000000000000000000000000000 PUSH1 0x20 DUP3 ADD MSTORE POP JUMP JUMPDEST PUSH1 0x0 PUSH2 0x3228 PUSH1 0x28 DUP4 PUSH2 0x294B JUMP JUMPDEST SWAP2 POP PUSH2 0x3233 DUP3 PUSH2 0x31CC JUMP JUMPDEST PUSH1 0x40 DUP3 ADD SWAP1 POP SWAP2 SWAP1 POP JUMP JUMPDEST PUSH1 0x0 PUSH1 0x20 DUP3 ADD SWAP1 POP DUP2 DUP2 SUB PUSH1 0x0 DUP4 ADD MSTORE PUSH2 0x3257 DUP2 PUSH2 0x321B JUMP JUMPDEST SWAP1 POP SWAP2 SWAP1 POP JUMP JUMPDEST PUSH1 0x0 PUSH1 0x40 DUP3 ADD SWAP1 POP PUSH2 0x3273 PUSH1 0x0 DUP4 ADD DUP6 PUSH2 0x2AE7 JUMP JUMPDEST PUSH2 0x3280 PUSH1 0x20 DUP4 ADD DUP5 PUSH2 0x2B11 JUMP JUMPDEST SWAP4 SWAP3 POP POP POP JUMP JUMPDEST PUSH1 0x0 DUP2 MLOAD SWAP1 POP SWAP2 SWAP1 POP JUMP JUMPDEST PUSH1 0x0 DUP2 SWAP1 POP SWAP3 SWAP2 POP POP JUMP JUMPDEST PUSH1 0x0 PUSH2 0x32A8 DUP3 PUSH2 0x3287 JUMP JUMPDEST PUSH2 0x32B2 DUP2 DUP6 PUSH2 0x3292 JUMP JUMPDEST SWAP4 POP PUSH2 0x32C2 DUP2 DUP6 PUSH1 0x20 DUP7 ADD PUSH2 0x295C JUMP JUMPDEST DUP1 DUP5 ADD SWAP2 POP POP SWAP3 SWAP2 POP POP JUMP JUMPDEST PUSH1 0x0 PUSH2 0x32DA DUP3 DUP5 PUSH2 0x329D JUMP JUMPDEST SWAP2 POP DUP2 SWAP1 POP SWAP3 SWAP2 POP POP JUMP JUMPDEST PUSH2 0x32EE DUP2 PUSH2 0x2AB1 JUMP JUMPDEST DUP2 EQ PUSH2 0x32F9 JUMPI PUSH1 0x0 DUP1 REVERT JUMPDEST POP JUMP JUMPDEST PUSH1 0x0 DUP2 MLOAD SWAP1 POP PUSH2 0x330B DUP2 PUSH2 0x32E5 JUMP JUMPDEST SWAP3 SWAP2 POP POP JUMP JUMPDEST PUSH1 0x0 PUSH1 0x20 DUP3 DUP5 SUB SLT ISZERO PUSH2 0x3327 JUMPI PUSH2 0x3326 PUSH2 0x27B5 JUMP JUMPDEST JUMPDEST PUSH1 0x0 PUSH2 0x3335 DUP5 DUP3 DUP6 ADD PUSH2 0x32FC JUMP JUMPDEST SWAP2 POP POP SWAP3 SWAP2 POP POP JUMP JUMPDEST PUSH32 0x556E697377617056323A205452414E534645525F4641494C4544000000000000 PUSH1 0x0 DUP3 ADD MSTORE POP JUMP JUMPDEST PUSH1 0x0 PUSH2 0x3374 PUSH1 0x1A DUP4 PUSH2 0x294B JUMP JUMPDEST SWAP2 POP PUSH2 0x337F DUP3 PUSH2 0x333E JUMP JUMPDEST PUSH1 0x20 DUP3 ADD SWAP1 POP SWAP2 SWAP1 POP JUMP JUMPDEST PUSH1 0x0 PUSH1 0x20 DUP3 ADD SWAP1 POP DUP2 DUP2 SUB PUSH1 0x0 DUP4 ADD MSTORE PUSH2 0x33A3 DUP2 PUSH2 0x3367 JUMP JUMPDEST SWAP1 POP SWAP2 SWAP1 POP JUMP JUMPDEST PUSH1 0x0 PUSH2 0x33B5 DUP3 PUSH2 0x27BF JUMP JUMPDEST SWAP2 POP PUSH2 0x33C0 DUP4 PUSH2 0x27BF JUMP JUMPDEST SWAP3 POP DUP3 DUP3 MUL PUSH2 0x33CE DUP2 PUSH2 0x27BF JUMP JUMPDEST SWAP2 POP DUP3 DUP3 DIV DUP5 EQ DUP4 ISZERO OR PUSH2 0x33E5 JUMPI PUSH2 0x33E4 PUSH2 0x2EC8 JUMP JUMPDEST JUMPDEST POP SWAP3 SWAP2 POP POP JUMP JUMPDEST PUSH32 0x64732D6D6174682D6D756C2D6F766572666C6F77000000000000000000000000 PUSH1 0x0 DUP3 ADD MSTORE POP JUMP JUMPDEST PUSH1 0x0 PUSH2 0x3422 PUSH1 0x14 DUP4 PUSH2 0x294B JUMP JUMPDEST SWAP2 POP PUSH2 0x342D DUP3 PUSH2 0x33EC JUMP JUMPDEST PUSH1 0x20 DUP3 ADD SWAP1 POP SWAP2 SWAP1 POP JUMP JUMPDEST PUSH1 0x0 PUSH1 0x20 DUP3 ADD SWAP1 POP DUP2 DUP2 SUB PUSH1 0x0 DUP4 ADD MSTORE PUSH2 0x3451 DUP2 PUSH2 0x3415 JUMP JUMPDEST SWAP1 POP SWAP2 SWAP1 POP JUMP JUMPDEST PUSH32 0x64732D6D6174682D7375622D756E646572666C6F770000000000000000000000 PUSH1 0x0 DUP3 ADD MSTORE POP JUMP JUMPDEST PUSH1 0x0 PUSH2 0x348E PUSH1 0x15 DUP4 PUSH2 0x294B JUMP JUMPDEST SWAP2 POP PUSH2 0x3499 DUP3 PUSH2 0x3458 JUMP JUMPDEST PUSH1 0x20 DUP3 ADD SWAP1 POP SWAP2 SWAP1 POP JUMP JUMPDEST PUSH1 0x0 PUSH1 0x20 DUP3 ADD SWAP1 POP DUP2 DUP2 SUB PUSH1 0x0 DUP4 ADD MSTORE PUSH2 0x34BD DUP2 PUSH2 0x3481 JUMP JUMPDEST SWAP1 POP SWAP2 SWAP1 POP JUMP JUMPDEST PUSH32 0x556E697377617056323A204F564552464C4F5700000000000000000000000000 PUSH1 0x0 DUP3 ADD MSTORE POP JUMP JUMPDEST PUSH1 0x0 PUSH2 0x34FA PUSH1 0x13 DUP4 PUSH2 0x294B JUMP JUMPDEST SWAP2 POP PUSH2 0x3505 DUP3 PUSH2 0x34C4 JUMP JUMPDEST PUSH1 0x20 DUP3 ADD SWAP1 POP SWAP2 SWAP1 POP JUMP JUMPDEST PUSH1 0x0 PUSH1 0x20 DUP3 ADD SWAP1 POP DUP2 DUP2 SUB PUSH1 0x0 DUP4 ADD MSTORE PUSH2 0x3529 DUP2 PUSH2 0x34ED JUMP JUMPDEST SWAP1 POP SWAP2 SWAP1 POP JUMP JUMPDEST PUSH1 0x0 PUSH2 0x353B DUP3 PUSH2 0x27BF JUMP JUMPDEST SWAP2 POP PUSH2 0x3546 DUP4 PUSH2 0x27BF JUMP JUMPDEST SWAP3 POP DUP3 PUSH2 0x3556 JUMPI PUSH2 0x3555 PUSH2 0x30DA JUMP JUMPDEST JUMPDEST DUP3 DUP3 MOD SWAP1 POP SWAP3 SWAP2 POP POP JUMP JUMPDEST PUSH1 0x0 PUSH2 0x356C DUP3 PUSH2 0x2A1B JUMP JUMPDEST SWAP2 POP PUSH2 0x3577 DUP4 PUSH2 0x2A1B JUMP JUMPDEST SWAP3 POP DUP3 DUP3 SUB SWAP1 POP PUSH4 0xFFFFFFFF DUP2 GT ISZERO PUSH2 0x3593 JUMPI PUSH2 0x3592 PUSH2 0x2EC8 JUMP JUMPDEST JUMPDEST SWAP3 SWAP2 POP POP JUMP JUMPDEST PUSH1 0x0 PUSH2 0x35A4 DUP3 PUSH2 0x27BF JUMP JUMPDEST SWAP2 POP PUSH2 0x35AF DUP4 PUSH2 0x27BF JUMP JUMPDEST SWAP3 POP DUP3 DUP3 ADD SWAP1 POP DUP1 DUP3 GT ISZERO PUSH2 0x35C7 JUMPI PUSH2 0x35C6 PUSH2 0x2EC8 JUMP JUMPDEST JUMPDEST SWAP3 SWAP2 POP POP JUMP JUMPDEST PUSH1 0x0 PUSH1 0x40 DUP3 ADD SWAP1 POP PUSH2 0x35E2 PUSH1 0x0 DUP4 ADD DUP6 PUSH2 0x2A0C JUMP JUMPDEST PUSH2 0x35EF PUSH1 0x20 DUP4 ADD DUP5 PUSH2 0x2A0C JUMP JUMPDEST SWAP4 SWAP3 POP POP POP JUMP JUMPDEST PUSH1 0x0 DUP2 MLOAD SWAP1 POP PUSH2 0x3605 DUP2 PUSH2 0x2827 JUMP JUMPDEST SWAP3 SWAP2 POP POP JUMP JUMPDEST PUSH1 0x0 PUSH1 0x20 DUP3 DUP5 SUB SLT ISZERO PUSH2 0x3621 JUMPI PUSH2 0x3620 PUSH2 0x27B5 JUMP JUMPDEST JUMPDEST PUSH1 0x0 PUSH2 0x362F DUP5 DUP3 DUP6 ADD PUSH2 0x35F6 JUMP JUMPDEST SWAP2 POP POP SWAP3 SWAP2 POP POP JUMP JUMPDEST PUSH1 0x0 PUSH28 0xFFFFFFFFFFFFFFFFFFFFFFFFFFFFFFFFFFFFFFFFFFFFFFFFFFFFFFFF DUP3 AND SWAP1 POP SWAP2 SWAP1 POP JUMP JUMPDEST PUSH1 0x0 PUSH2 0x366B DUP3 PUSH2 0x3638 JUMP JUMPDEST SWAP2 POP PUSH2 0x3676 DUP4 PUSH2 0x3638 JUMP JUMPDEST SWAP3 POP DUP3 DUP3 MUL PUSH2 0x3684 DUP2 PUSH2 0x3638 JUMP JUMPDEST SWAP2 POP DUP3 DUP3 DIV DUP5 EQ DUP4 ISZERO OR PUSH2 0x369B JUMPI PUSH2 0x369A PUSH2 0x2EC8 JUMP JUMPDEST JUMPDEST POP SWAP3 SWAP2 POP POP JUMP JUMPDEST PUSH1 0x0 PUSH2 0x36AD DUP3 PUSH2 0x3638 JUMP JUMPDEST SWAP2 POP PUSH2 0x36B8 DUP4 PUSH2 0x3638 JUMP JUMPDEST SWAP3 POP DUP3 PUSH2 0x36C8 JUMPI PUSH2 0x36C7 PUSH2 0x30DA JUMP JUMPDEST JUMPDEST DUP3 DUP3 DIV SWAP1 POP SWAP3 SWAP2 POP POP JUMP JUMPDEST PUSH32 0x64732D6D6174682D6164642D6F766572666C6F77000000000000000000000000 PUSH1 0x0 DUP3 ADD MSTORE POP JUMP JUMPDEST PUSH1 0x0 PUSH2 0x3709 PUSH1 0x14 DUP4 PUSH2 0x294B JUMP JUMPDEST SWAP2 POP PUSH2 0x3714 DUP3 PUSH2 0x36D3 JUMP JUMPDEST PUSH1 0x20 DUP3 ADD SWAP1 POP SWAP2 SWAP1 POP JUMP JUMPDEST PUSH1 0x0 PUSH1 0x20 DUP3 ADD SWAP1 POP DUP2 DUP2 SUB PUSH1 0x0 DUP4 ADD MSTORE PUSH2 0x3738 DUP2 PUSH2 0x36FC JUMP JUMPDEST SWAP1 POP SWAP2 SWAP1 POP JUMP INVALID LOG2 PUSH5 0x6970667358 0x22 SLT KECCAK256 GAS 0x28 0xCC OR 0x4C 0xC1 0xDA ORIGIN PUSH1 0xB4 0xB2 0xEE CODESIZE 0xEC PUSH14 0x89ABAE552D46408AAECA3ADE7E55 JUMPI PUSH7 0xC64736F6C6343 STOP ADDMOD SLT STOP CALLER "
				},
				"gasEstimates": {
					"creation": {
						"codeDepositCost": "2839400",
						"executionCost": "27366",
						"totalCost": "2866766"
					},
					"external": {
						"MINIMUM_LIQUIDITY()": "351",
						"allowance(address,address)": "infinite",
						"approve(address,uint256)": "infinite",
						"balanceOf(address)": "2837",
						"burn(address)": "infinite",
						"decimals()": "380",
						"factory()": "2580",
						"getReserves()": "infinite",
						"initialize(address,address)": "infinite",
						"kLast()": "2474",
						"mint(address)": "infinite",
						"name()": "infinite",
						"nonces(address)": "2881",
						"price0CumulativeLast()": "2518",
						"price1CumulativeLast()": "2540",
						"skim(address)": "infinite",
						"swap(uint256,uint256,address,bytes)": "infinite",
						"symbol()": "infinite",
						"sync()": "infinite",
						"token0()": "2626",
						"token1()": "2602",
						"totalSupply()": "2563",
						"transfer(address,uint256)": "infinite",
						"transferFrom(address,address,uint256)": "infinite"
					},
					"internal": {
						"_mintFee(uint112,uint112)": "infinite",
						"_safeTransfer(address,address,uint256)": "infinite",
						"_update(uint256,uint256,uint112,uint112)": "infinite"
					}
				},
				"methodIdentifiers": {
					"MINIMUM_LIQUIDITY()": "ba9a7a56",
					"allowance(address,address)": "dd62ed3e",
					"approve(address,uint256)": "095ea7b3",
					"balanceOf(address)": "70a08231",
					"burn(address)": "89afcb44",
					"decimals()": "313ce567",
					"factory()": "c45a0155",
					"getReserves()": "0902f1ac",
					"initialize(address,address)": "485cc955",
					"kLast()": "7464fc3d",
					"mint(address)": "6a627842",
					"name()": "06fdde03",
					"nonces(address)": "7ecebe00",
					"price0CumulativeLast()": "5909c0d5",
					"price1CumulativeLast()": "5a3d5493",
					"skim(address)": "bc25cf77",
					"swap(uint256,uint256,address,bytes)": "022c0d9f",
					"symbol()": "95d89b41",
					"sync()": "fff6cae9",
					"token0()": "0dfe1681",
					"token1()": "d21220a7",
					"totalSupply()": "18160ddd",
					"transfer(address,uint256)": "a9059cbb",
					"transferFrom(address,address,uint256)": "23b872dd"
				}
			},
			"storageLayout": {
				"storage": [
					{
						"astId": 16,
						"contract": "Pair.sol:UniswapV2Pair",
						"label": "totalSupply",
						"offset": 0,
						"slot": "0",
						"type": "t_uint256"
					},
					{
						"astId": 20,
						"contract": "Pair.sol:UniswapV2Pair",
						"label": "balanceOf",
						"offset": 0,
						"slot": "1",
						"type": "t_mapping(t_address,t_uint256)"
					},
					{
						"astId": 26,
						"contract": "Pair.sol:UniswapV2Pair",
						"label": "allowance",
						"offset": 0,
						"slot": "2",
						"type": "t_mapping(t_address,t_mapping(t_address,t_uint256))"
					},
					{
						"astId": 30,
						"contract": "Pair.sol:UniswapV2Pair",
						"label": "nonces",
						"offset": 0,
						"slot": "3",
						"type": "t_mapping(t_address,t_uint256)"
					},
					{
						"astId": 306,
						"contract": "Pair.sol:UniswapV2Pair",
						"label": "factory",
						"offset": 0,
						"slot": "4",
						"type": "t_address"
					},
					{
						"astId": 308,
						"contract": "Pair.sol:UniswapV2Pair",
						"label": "token0",
						"offset": 0,
						"slot": "5",
						"type": "t_address"
					},
					{
						"astId": 310,
						"contract": "Pair.sol:UniswapV2Pair",
						"label": "token1",
						"offset": 0,
						"slot": "6",
						"type": "t_address"
					},
					{
						"astId": 312,
						"contract": "Pair.sol:UniswapV2Pair",
						"label": "reserve0",
						"offset": 0,
						"slot": "7",
						"type": "t_uint112"
					},
					{
						"astId": 314,
						"contract": "Pair.sol:UniswapV2Pair",
						"label": "reserve1",
						"offset": 14,
						"slot": "7",
						"type": "t_uint112"
					},
					{
						"astId": 316,
						"contract": "Pair.sol:UniswapV2Pair",
						"label": "blockTimestampLast",
						"offset": 28,
						"slot": "7",
						"type": "t_uint32"
					},
					{
						"astId": 318,
						"contract": "Pair.sol:UniswapV2Pair",
						"label": "price0CumulativeLast",
						"offset": 0,
						"slot": "8",
						"type": "t_uint256"
					},
					{
						"astId": 320,
						"contract": "Pair.sol:UniswapV2Pair",
						"label": "price1CumulativeLast",
						"offset": 0,
						"slot": "9",
						"type": "t_uint256"
					},
					{
						"astId": 322,
						"contract": "Pair.sol:UniswapV2Pair",
						"label": "kLast",
						"offset": 0,
						"slot": "10",
						"type": "t_uint256"
					}
				],
				"types": {
					"t_address": {
						"encoding": "inplace",
						"label": "address",
						"numberOfBytes": "20"
					},
					"t_mapping(t_address,t_mapping(t_address,t_uint256))": {
						"encoding": "mapping",
						"key": "t_address",
						"label": "mapping(address => mapping(address => uint256))",
						"numberOfBytes": "32",
						"value": "t_mapping(t_address,t_uint256)"
					},
					"t_mapping(t_address,t_uint256)": {
						"encoding": "mapping",
						"key": "t_address",
						"label": "mapping(address => uint256)",
						"numberOfBytes": "32",
						"value": "t_uint256"
					},
					"t_uint112": {
						"encoding": "inplace",
						"label": "uint112",
						"numberOfBytes": "14"
					},
					"t_uint256": {
						"encoding": "inplace",
						"label": "uint256",
						"numberOfBytes": "32"
					},
					"t_uint32": {
						"encoding": "inplace",
						"label": "uint32",
						"numberOfBytes": "4"
					}
				}
			},
			"userdoc": {
				"kind": "user",
				"methods": {},
				"version": 1
			}
		}
	}
}