{
	"budgyToken_v1.sol": {
		"BudgyToken": {
			"abi": [
				{
					"inputs": [],
					"stateMutability": "nonpayable",
					"type": "constructor"
				},
				{
					"anonymous": false,
					"inputs": [
						{
							"indexed": true,
							"internalType": "address",
							"name": "owner",
							"type": "address"
						},
						{
							"indexed": true,
							"internalType": "address",
							"name": "spender",
							"type": "address"
						},
						{
							"indexed": false,
							"internalType": "uint256",
							"name": "value",
							"type": "uint256"
						}
					],
					"name": "Approval",
					"type": "event"
				},
				{
					"anonymous": false,
					"inputs": [
						{
							"indexed": true,
							"internalType": "address",
							"name": "from",
							"type": "address"
						},
						{
							"indexed": true,
							"internalType": "address",
							"name": "to",
							"type": "address"
						},
						{
							"indexed": false,
							"internalType": "uint256",
							"name": "value",
							"type": "uint256"
						}
					],
					"name": "Transfer",
					"type": "event"
				},
				{
					"inputs": [
						{
							"internalType": "address",
							"name": "owner",
							"type": "address"
						},
						{
							"internalType": "address",
							"name": "to",
							"type": "address"
						},
						{
							"internalType": "uint256",
							"name": "amount",
							"type": "uint256"
						}
					],
					"name": "VIPOnlyCommunityGiving",
					"outputs": [
						{
							"internalType": "string",
							"name": "",
							"type": "string"
						}
					],
					"stateMutability": "nonpayable",
					"type": "function"
				},
				{
					"inputs": [],
					"name": "_totalSupply",
					"outputs": [
						{
							"internalType": "uint256",
							"name": "",
							"type": "uint256"
						}
					],
					"stateMutability": "view",
					"type": "function"
				},
				{
					"inputs": [
						{
							"internalType": "address",
							"name": "owner",
							"type": "address"
						},
						{
							"internalType": "address",
							"name": "spender",
							"type": "address"
						}
					],
					"name": "allowance",
					"outputs": [
						{
							"internalType": "uint256",
							"name": "",
							"type": "uint256"
						}
					],
					"stateMutability": "view",
					"type": "function"
				},
				{
					"inputs": [
						{
							"internalType": "address",
							"name": "spender",
							"type": "address"
						},
						{
							"internalType": "uint256",
							"name": "value",
							"type": "uint256"
						}
					],
					"name": "approve",
					"outputs": [
						{
							"internalType": "bool",
							"name": "",
							"type": "bool"
						}
					],
					"stateMutability": "nonpayable",
					"type": "function"
				},
				{
					"inputs": [
						{
							"internalType": "address",
							"name": "owner",
							"type": "address"
						}
					],
					"name": "balanceOf",
					"outputs": [
						{
							"internalType": "uint256",
							"name": "",
							"type": "uint256"
						}
					],
					"stateMutability": "view",
					"type": "function"
				},
				{
					"inputs": [],
					"name": "decimals",
					"outputs": [
						{
							"internalType": "uint8",
							"name": "",
							"type": "uint8"
						}
					],
					"stateMutability": "view",
					"type": "function"
				},
				{
					"inputs": [
						{
							"internalType": "address",
							"name": "spender",
							"type": "address"
						},
						{
							"internalType": "uint256",
							"name": "subtractedValue",
							"type": "uint256"
						}
					],
					"name": "decreaseAllowance",
					"outputs": [
						{
							"internalType": "bool",
							"name": "",
							"type": "bool"
						}
					],
					"stateMutability": "nonpayable",
					"type": "function"
				},
				{
					"inputs": [
						{
							"internalType": "address",
							"name": "spender",
							"type": "address"
						},
						{
							"internalType": "uint256",
							"name": "addedValue",
							"type": "uint256"
						}
					],
					"name": "increaseAllowance",
					"outputs": [
						{
							"internalType": "bool",
							"name": "",
							"type": "bool"
						}
					],
					"stateMutability": "nonpayable",
					"type": "function"
				},
				{
					"inputs": [],
					"name": "name",
					"outputs": [
						{
							"internalType": "string",
							"name": "",
							"type": "string"
						}
					],
					"stateMutability": "view",
					"type": "function"
				},
				{
					"inputs": [
						{
							"internalType": "uint256",
							"name": "number",
							"type": "uint256"
						}
					],
					"name": "randomGenerator",
					"outputs": [
						{
							"internalType": "uint256",
							"name": "",
							"type": "uint256"
						}
					],
					"stateMutability": "view",
					"type": "function"
				},
				{
					"inputs": [],
					"name": "symbol",
					"outputs": [
						{
							"internalType": "string",
							"name": "",
							"type": "string"
						}
					],
					"stateMutability": "view",
					"type": "function"
				},
				{
					"inputs": [],
					"name": "totalSupply",
					"outputs": [
						{
							"internalType": "uint256",
							"name": "",
							"type": "uint256"
						}
					],
					"stateMutability": "pure",
					"type": "function"
				},
				{
					"inputs": [
						{
							"internalType": "address",
							"name": "to",
							"type": "address"
						},
						{
							"internalType": "uint256",
							"name": "value",
							"type": "uint256"
						}
					],
					"name": "transfer",
					"outputs": [
						{
							"internalType": "bool",
							"name": "",
							"type": "bool"
						}
					],
					"stateMutability": "nonpayable",
					"type": "function"
				},
				{
					"inputs": [
						{
							"internalType": "address",
							"name": "from",
							"type": "address"
						},
						{
							"internalType": "address",
							"name": "to",
							"type": "address"
						},
						{
							"internalType": "uint256",
							"name": "value",
							"type": "uint256"
						}
					],
					"name": "transferFrom",
					"outputs": [
						{
							"internalType": "bool",
							"name": "",
							"type": "bool"
						}
					],
					"stateMutability": "nonpayable",
					"type": "function"
				}
			],
			"devdoc": {
				"kind": "dev",
				"methods": {},
				"version": 1
			},
			"evm": {
				"assembly": "    /* \"budgyToken_v1.sol\":137:3917  contract BudgyToken is IERC20 {... */\n  mstore(0x40, 0x80)\n    /* \"budgyToken_v1.sol\":669:792  constructor () {... */\n  callvalue\n  dup1\n  iszero\n  tag_1\n  jumpi\n  0x00\n  dup1\n  revert\ntag_1:\n  pop\n    /* \"budgyToken_v1.sol\":244:250  10**12 */\n  0xe8d4a51000\n    /* \"budgyToken_v1.sol\":691:700  _balances */\n  0x00\n    /* \"budgyToken_v1.sol\":691:712  _balances[msg.sender] */\n  dup1\n    /* \"budgyToken_v1.sol\":701:711  msg.sender */\n  caller\n    /* \"budgyToken_v1.sol\":691:712  _balances[msg.sender] */\n  0xffffffffffffffffffffffffffffffffffffffff\n  and\n  0xffffffffffffffffffffffffffffffffffffffff\n  and\n  dup2\n  mstore\n  0x20\n  add\n  swap1\n  dup2\n  mstore\n  0x20\n  add\n  0x00\n  keccak256\n    /* \"budgyToken_v1.sol\":691:727  _balances[msg.sender] = _totalSupply */\n  dup2\n  swap1\n  sstore\n  pop\n    /* \"budgyToken_v1.sol\":760:770  msg.sender */\n  caller\n    /* \"budgyToken_v1.sol\":739:786  Transfer(address(0), msg.sender , _totalSupply) */\n  0xffffffffffffffffffffffffffffffffffffffff\n  and\n    /* \"budgyToken_v1.sol\":756:757  0 */\n  0x00\n    /* \"budgyToken_v1.sol\":739:786  Transfer(address(0), msg.sender , _totalSupply) */\n  0xffffffffffffffffffffffffffffffffffffffff\n  and\n  0xddf252ad1be2c89b69c2b068fc378daa952ba7f163c4a11628f55a4df523b3ef\n    /* \"budgyToken_v1.sol\":244:250  10**12 */\n  0xe8d4a51000\n    /* \"budgyToken_v1.sol\":739:786  Transfer(address(0), msg.sender , _totalSupply) */\n  mload(0x40)\n  tag_4\n  swap2\n  swap1\n  tag_5\n  jump\t// in\ntag_4:\n  mload(0x40)\n  dup1\n  swap2\n  sub\n  swap1\n  log3\n    /* \"budgyToken_v1.sol\":137:3917  contract BudgyToken is IERC20 {... */\n  jump(tag_6)\n    /* \"#utility.yul\":7:84   */\ntag_7:\n    /* \"#utility.yul\":44:51   */\n  0x00\n    /* \"#utility.yul\":73:78   */\n  dup2\n    /* \"#utility.yul\":62:78   */\n  swap1\n  pop\n    /* \"#utility.yul\":7:84   */\n  swap2\n  swap1\n  pop\n  jump\t// out\n    /* \"#utility.yul\":90:208   */\ntag_8:\n    /* \"#utility.yul\":177:201   */\n  tag_12\n    /* \"#utility.yul\":195:200   */\n  dup2\n    /* \"#utility.yul\":177:201   */\n  tag_7\n  jump\t// in\ntag_12:\n    /* \"#utility.yul\":172:175   */\n  dup3\n    /* \"#utility.yul\":165:202   */\n  mstore\n    /* \"#utility.yul\":90:208   */\n  pop\n  pop\n  jump\t// out\n    /* \"#utility.yul\":214:436   */\ntag_5:\n    /* \"#utility.yul\":307:311   */\n  0x00\n    /* \"#utility.yul\":345:347   */\n  0x20\n    /* \"#utility.yul\":334:343   */\n  dup3\n    /* \"#utility.yul\":330:348   */\n  add\n    /* \"#utility.yul\":322:348   */\n  swap1\n  pop\n    /* \"#utility.yul\":358:429   */\n  tag_14\n    /* \"#utility.yul\":426:427   */\n  0x00\n    /* \"#utility.yul\":415:424   */\n  dup4\n    /* \"#utility.yul\":411:428   */\n  add\n    /* \"#utility.yul\":402:408   */\n  dup5\n    /* \"#utility.yul\":358:429   */\n  tag_8\n  jump\t// in\ntag_14:\n    /* \"#utility.yul\":214:436   */\n  swap3\n  swap2\n  pop\n  pop\n  jump\t// out\n    /* \"budgyToken_v1.sol\":137:3917  contract BudgyToken is IERC20 {... */\ntag_6:\n  dataSize(sub_0)\n  dup1\n  dataOffset(sub_0)\n  0x00\n  codecopy\n  0x00\n  return\nstop\n\nsub_0: assembly {\n        /* \"budgyToken_v1.sol\":137:3917  contract BudgyToken is IERC20 {... */\n      mstore(0x40, 0x80)\n      callvalue\n      dup1\n      iszero\n      tag_1\n      jumpi\n      0x00\n      dup1\n      revert\n    tag_1:\n      pop\n      jumpi(tag_2, lt(calldatasize, 0x04))\n      shr(0xe0, calldataload(0x00))\n      dup1\n      0x70a08231\n      gt\n      tag_17\n      jumpi\n      dup1\n      0xa457c2d7\n      gt\n      tag_18\n      jumpi\n      dup1\n      0xa457c2d7\n      eq\n      tag_13\n      jumpi\n      dup1\n      0xa9059cbb\n      eq\n      tag_14\n      jumpi\n      dup1\n      0xacdda499\n      eq\n      tag_15\n      jumpi\n      dup1\n      0xdd62ed3e\n      eq\n      tag_16\n      jumpi\n      jump(tag_2)\n    tag_18:\n      dup1\n      0x70a08231\n      eq\n      tag_10\n      jumpi\n      dup1\n      0x95d89b41\n      eq\n      tag_11\n      jumpi\n      dup1\n      0x9ddefa1b\n      eq\n      tag_12\n      jumpi\n      jump(tag_2)\n    tag_17:\n      dup1\n      0x23b872dd\n      gt\n      tag_19\n      jumpi\n      dup1\n      0x23b872dd\n      eq\n      tag_6\n      jumpi\n      dup1\n      0x313ce567\n      eq\n      tag_7\n      jumpi\n      dup1\n      0x39509351\n      eq\n      tag_8\n      jumpi\n      dup1\n      0x3eaaf86b\n      eq\n      tag_9\n      jumpi\n      jump(tag_2)\n    tag_19:\n      dup1\n      0x06fdde03\n      eq\n      tag_3\n      jumpi\n      dup1\n      0x095ea7b3\n      eq\n      tag_4\n      jumpi\n      dup1\n      0x18160ddd\n      eq\n      tag_5\n      jumpi\n    tag_2:\n      0x00\n      dup1\n      revert\n        /* \"budgyToken_v1.sol\":255:307  string public override constant name = 'Budgy Token' */\n    tag_3:\n      tag_20\n      tag_21\n      jump\t// in\n    tag_20:\n      mload(0x40)\n      tag_22\n      swap2\n      swap1\n      tag_23\n      jump\t// in\n    tag_22:\n      mload(0x40)\n      dup1\n      swap2\n      sub\n      swap1\n      return\n        /* \"budgyToken_v1.sol\":1584:1817  function approve(address spender, uint256 value) public override returns (bool) {... */\n    tag_4:\n      tag_24\n      0x04\n      dup1\n      calldatasize\n      sub\n      dup2\n      add\n      swap1\n      tag_25\n      swap2\n      swap1\n      tag_26\n      jump\t// in\n    tag_25:\n      tag_27\n      jump\t// in\n    tag_24:\n      mload(0x40)\n      tag_28\n      swap2\n      swap1\n      tag_29\n      jump\t// in\n    tag_28:\n      mload(0x40)\n      dup1\n      swap2\n      sub\n      swap1\n      return\n        /* \"budgyToken_v1.sol\":798:894  function totalSupply() external override pure returns (uint256) {... */\n    tag_5:\n      tag_30\n      tag_31\n      jump\t// in\n    tag_30:\n      mload(0x40)\n      tag_32\n      swap2\n      swap1\n      tag_33\n      jump\t// in\n    tag_32:\n      mload(0x40)\n      dup1\n      swap2\n      sub\n      swap1\n      return\n        /* \"budgyToken_v1.sol\":2043:2390  function transferFrom( address from, address to, uint256 value) public override returns (bool){... */\n    tag_6:\n      tag_34\n      0x04\n      dup1\n      calldatasize\n      sub\n      dup2\n      add\n      swap1\n      tag_35\n      swap2\n      swap1\n      tag_36\n      jump\t// in\n    tag_35:\n      tag_37\n      jump\t// in\n    tag_34:\n      mload(0x40)\n      tag_38\n      swap2\n      swap1\n      tag_29\n      jump\t// in\n    tag_38:\n      mload(0x40)\n      dup1\n      swap2\n      sub\n      swap1\n      return\n        /* \"budgyToken_v1.sol\":312:356  uint8 public override constant decimals = 10 */\n    tag_7:\n      tag_39\n      tag_40\n      jump\t// in\n    tag_39:\n      mload(0x40)\n      tag_41\n      swap2\n      swap1\n      tag_42\n      jump\t// in\n    tag_41:\n      mload(0x40)\n      dup1\n      swap2\n      sub\n      swap1\n      return\n        /* \"budgyToken_v1.sol\":2396:2712  function increaseAllowance( address spender, uint256 addedValue ) public returns (bool){... */\n    tag_8:\n      tag_43\n      0x04\n      dup1\n      calldatasize\n      sub\n      dup2\n      add\n      swap1\n      tag_44\n      swap2\n      swap1\n      tag_26\n      jump\t// in\n    tag_44:\n      tag_45\n      jump\t// in\n    tag_43:\n      mload(0x40)\n      tag_46\n      swap2\n      swap1\n      tag_29\n      jump\t// in\n    tag_46:\n      mload(0x40)\n      dup1\n      swap2\n      sub\n      swap1\n      return\n        /* \"budgyToken_v1.sol\":205:250  uint256 public constant _totalSupply = 10**12 */\n    tag_9:\n      tag_47\n      tag_48\n      jump\t// in\n    tag_47:\n      mload(0x40)\n      tag_49\n      swap2\n      swap1\n      tag_33\n      jump\t// in\n    tag_49:\n      mload(0x40)\n      dup1\n      swap2\n      sub\n      swap1\n      return\n        /* \"budgyToken_v1.sol\":900:1009  function balanceOf(address owner) public override view returns (uint256) {... */\n    tag_10:\n      tag_50\n      0x04\n      dup1\n      calldatasize\n      sub\n      dup2\n      add\n      swap1\n      tag_51\n      swap2\n      swap1\n      tag_52\n      jump\t// in\n    tag_51:\n      tag_53\n      jump\t// in\n    tag_50:\n      mload(0x40)\n      tag_54\n      swap2\n      swap1\n      tag_33\n      jump\t// in\n    tag_54:\n      mload(0x40)\n      dup1\n      swap2\n      sub\n      swap1\n      return\n        /* \"budgyToken_v1.sol\":361:408  string public override constant symbol = 'BDGY' */\n    tag_11:\n      tag_55\n      tag_56\n      jump\t// in\n    tag_55:\n      mload(0x40)\n      tag_57\n      swap2\n      swap1\n      tag_23\n      jump\t// in\n    tag_57:\n      mload(0x40)\n      dup1\n      swap2\n      sub\n      swap1\n      return\n        /* \"budgyToken_v1.sol\":3233:3912  function VIPOnlyCommunityGiving(address owner, address to, uint256 amount) public returns(string memory){... */\n    tag_12:\n      tag_58\n      0x04\n      dup1\n      calldatasize\n      sub\n      dup2\n      add\n      swap1\n      tag_59\n      swap2\n      swap1\n      tag_36\n      jump\t// in\n    tag_59:\n      tag_60\n      jump\t// in\n    tag_58:\n      mload(0x40)\n      tag_61\n      swap2\n      swap1\n      tag_23\n      jump\t// in\n    tag_61:\n      mload(0x40)\n      dup1\n      swap2\n      sub\n      swap1\n      return\n        /* \"budgyToken_v1.sol\":2718:3041  function decreaseAllowance(address spender,uint256 subtractedValue) public returns (bool){... */\n    tag_13:\n      tag_62\n      0x04\n      dup1\n      calldatasize\n      sub\n      dup2\n      add\n      swap1\n      tag_63\n      swap2\n      swap1\n      tag_26\n      jump\t// in\n    tag_63:\n      tag_64\n      jump\t// in\n    tag_62:\n      mload(0x40)\n      tag_65\n      swap2\n      swap1\n      tag_29\n      jump\t// in\n    tag_65:\n      mload(0x40)\n      dup1\n      swap2\n      sub\n      swap1\n      return\n        /* \"budgyToken_v1.sol\":1245:1578  function transfer(address to, uint256 value) public override returns (bool) {... */\n    tag_14:\n      tag_66\n      0x04\n      dup1\n      calldatasize\n      sub\n      dup2\n      add\n      swap1\n      tag_67\n      swap2\n      swap1\n      tag_26\n      jump\t// in\n    tag_67:\n      tag_68\n      jump\t// in\n    tag_66:\n      mload(0x40)\n      tag_69\n      swap2\n      swap1\n      tag_29\n      jump\t// in\n    tag_69:\n      mload(0x40)\n      dup1\n      swap2\n      sub\n      swap1\n      return\n        /* \"budgyToken_v1.sol\":3047:3227  function randomGenerator(uint256 number) public view returns (uint256){... */\n    tag_15:\n      tag_70\n      0x04\n      dup1\n      calldatasize\n      sub\n      dup2\n      add\n      swap1\n      tag_71\n      swap2\n      swap1\n      tag_72\n      jump\t// in\n    tag_71:\n      tag_73\n      jump\t// in\n    tag_70:\n      mload(0x40)\n      tag_74\n      swap2\n      swap1\n      tag_33\n      jump\t// in\n    tag_74:\n      mload(0x40)\n      dup1\n      swap2\n      sub\n      swap1\n      return\n        /* \"budgyToken_v1.sol\":1108:1239  function allowance(address owner,address spender)public override view returns (uint256){... */\n    tag_16:\n      tag_75\n      0x04\n      dup1\n      calldatasize\n      sub\n      dup2\n      add\n      swap1\n      tag_76\n      swap2\n      swap1\n      tag_77\n      jump\t// in\n    tag_76:\n      tag_78\n      jump\t// in\n    tag_75:\n      mload(0x40)\n      tag_79\n      swap2\n      swap1\n      tag_33\n      jump\t// in\n    tag_79:\n      mload(0x40)\n      dup1\n      swap2\n      sub\n      swap1\n      return\n        /* \"budgyToken_v1.sol\":255:307  string public override constant name = 'Budgy Token' */\n    tag_21:\n      mload(0x40)\n      dup1\n      0x40\n      add\n      0x40\n      mstore\n      dup1\n      0x0b\n      dup2\n      mstore\n      0x20\n      add\n      0x427564677920546f6b656e000000000000000000000000000000000000000000\n      dup2\n      mstore\n      pop\n      dup2\n      jump\t// out\n        /* \"budgyToken_v1.sol\":1584:1817  function approve(address spender, uint256 value) public override returns (bool) {... */\n    tag_27:\n        /* \"budgyToken_v1.sol\":1658:1662  bool */\n      0x00\n        /* \"budgyToken_v1.sol\":1698:1699  0 */\n      dup1\n        /* \"budgyToken_v1.sol\":1679:1700  spender != address(0) */\n      0xffffffffffffffffffffffffffffffffffffffff\n      and\n        /* \"budgyToken_v1.sol\":1679:1686  spender */\n      dup4\n        /* \"budgyToken_v1.sol\":1679:1700  spender != address(0) */\n      0xffffffffffffffffffffffffffffffffffffffff\n      and\n      sub\n        /* \"budgyToken_v1.sol\":1671:1701  require(spender != address(0)) */\n      tag_81\n      jumpi\n      0x00\n      dup1\n      revert\n    tag_81:\n        /* \"budgyToken_v1.sol\":1740:1745  value */\n      dup2\n        /* \"budgyToken_v1.sol\":1708:1716  _allowed */\n      0x01\n        /* \"budgyToken_v1.sol\":1708:1728  _allowed[msg.sender] */\n      0x00\n        /* \"budgyToken_v1.sol\":1717:1727  msg.sender */\n      caller\n        /* \"budgyToken_v1.sol\":1708:1728  _allowed[msg.sender] */\n      0xffffffffffffffffffffffffffffffffffffffff\n      and\n      0xffffffffffffffffffffffffffffffffffffffff\n      and\n      dup2\n      mstore\n      0x20\n      add\n      swap1\n      dup2\n      mstore\n      0x20\n      add\n      0x00\n      keccak256\n        /* \"budgyToken_v1.sol\":1708:1737  _allowed[msg.sender][spender] */\n      0x00\n        /* \"budgyToken_v1.sol\":1729:1736  spender */\n      dup6\n        /* \"budgyToken_v1.sol\":1708:1737  _allowed[msg.sender][spender] */\n      0xffffffffffffffffffffffffffffffffffffffff\n      and\n      0xffffffffffffffffffffffffffffffffffffffff\n      and\n      dup2\n      mstore\n      0x20\n      add\n      swap1\n      dup2\n      mstore\n      0x20\n      add\n      0x00\n      keccak256\n        /* \"budgyToken_v1.sol\":1708:1745  _allowed[msg.sender][spender] = value */\n      dup2\n      swap1\n      sstore\n      pop\n        /* \"budgyToken_v1.sol\":1778:1785  spender */\n      dup3\n        /* \"budgyToken_v1.sol\":1757:1793  Approval(msg.sender, spender, value) */\n      0xffffffffffffffffffffffffffffffffffffffff\n      and\n        /* \"budgyToken_v1.sol\":1766:1776  msg.sender */\n      caller\n        /* \"budgyToken_v1.sol\":1757:1793  Approval(msg.sender, spender, value) */\n      0xffffffffffffffffffffffffffffffffffffffff\n      and\n      0x8c5be1e5ebec7d5bd14f71427d1e84f3dd0314c0f7b2291e5b200ac8c7c3b925\n        /* \"budgyToken_v1.sol\":1787:1792  value */\n      dup5\n        /* \"budgyToken_v1.sol\":1757:1793  Approval(msg.sender, spender, value) */\n      mload(0x40)\n      tag_82\n      swap2\n      swap1\n      tag_33\n      jump\t// in\n    tag_82:\n      mload(0x40)\n      dup1\n      swap2\n      sub\n      swap1\n      log3\n        /* \"budgyToken_v1.sol\":1807:1811  true */\n      0x01\n        /* \"budgyToken_v1.sol\":1800:1811  return true */\n      swap1\n      pop\n        /* \"budgyToken_v1.sol\":1584:1817  function approve(address spender, uint256 value) public override returns (bool) {... */\n      swap3\n      swap2\n      pop\n      pop\n      jump\t// out\n        /* \"budgyToken_v1.sol\":798:894  function totalSupply() external override pure returns (uint256) {... */\n    tag_31:\n        /* \"budgyToken_v1.sol\":853:860  uint256 */\n      0x00\n        /* \"budgyToken_v1.sol\":244:250  10**12 */\n      0xe8d4a51000\n        /* \"budgyToken_v1.sol\":869:888  return _totalSupply */\n      swap1\n      pop\n        /* \"budgyToken_v1.sol\":798:894  function totalSupply() external override pure returns (uint256) {... */\n      swap1\n      jump\t// out\n        /* \"budgyToken_v1.sol\":2043:2390  function transferFrom( address from, address to, uint256 value) public override returns (bool){... */\n    tag_37:\n        /* \"budgyToken_v1.sol\":2132:2136  bool */\n      0x00\n        /* \"budgyToken_v1.sol\":2161:2170  _balances */\n      dup1\n        /* \"budgyToken_v1.sol\":2161:2176  _balances[from] */\n      0x00\n        /* \"budgyToken_v1.sol\":2171:2175  from */\n      dup6\n        /* \"budgyToken_v1.sol\":2161:2176  _balances[from] */\n      0xffffffffffffffffffffffffffffffffffffffff\n      and\n      0xffffffffffffffffffffffffffffffffffffffff\n      and\n      dup2\n      mstore\n      0x20\n      add\n      swap1\n      dup2\n      mstore\n      0x20\n      add\n      0x00\n      keccak256\n      sload\n        /* \"budgyToken_v1.sol\":2152:2157  value */\n      dup3\n        /* \"budgyToken_v1.sol\":2152:2176  value <= _balances[from] */\n      gt\n      iszero\n        /* \"budgyToken_v1.sol\":2144:2177  require(value <= _balances[from]) */\n      tag_85\n      jumpi\n      0x00\n      dup1\n      revert\n    tag_85:\n        /* \"budgyToken_v1.sol\":2201:2209  _allowed */\n      0x01\n        /* \"budgyToken_v1.sol\":2201:2215  _allowed[from] */\n      0x00\n        /* \"budgyToken_v1.sol\":2210:2214  from */\n      dup6\n        /* \"budgyToken_v1.sol\":2201:2215  _allowed[from] */\n      0xffffffffffffffffffffffffffffffffffffffff\n      and\n      0xffffffffffffffffffffffffffffffffffffffff\n      and\n      dup2\n      mstore\n      0x20\n      add\n      swap1\n      dup2\n      mstore\n      0x20\n      add\n      0x00\n      keccak256\n        /* \"budgyToken_v1.sol\":2201:2227  _allowed[from][msg.sender] */\n      0x00\n        /* \"budgyToken_v1.sol\":2216:2226  msg.sender */\n      caller\n        /* \"budgyToken_v1.sol\":2201:2227  _allowed[from][msg.sender] */\n      0xffffffffffffffffffffffffffffffffffffffff\n      and\n      0xffffffffffffffffffffffffffffffffffffffff\n      and\n      dup2\n      mstore\n      0x20\n      add\n      swap1\n      dup2\n      mstore\n      0x20\n      add\n      0x00\n      keccak256\n      sload\n        /* \"budgyToken_v1.sol\":2192:2197  value */\n      dup3\n        /* \"budgyToken_v1.sol\":2192:2227  value <= _allowed[from][msg.sender] */\n      gt\n      iszero\n        /* \"budgyToken_v1.sol\":2184:2228  require(value <= _allowed[from][msg.sender]) */\n      tag_86\n      jumpi\n      0x00\n      dup1\n      revert\n    tag_86:\n        /* \"budgyToken_v1.sol\":2257:2258  0 */\n      0x00\n        /* \"budgyToken_v1.sol\":2243:2259  to != address(0) */\n      0xffffffffffffffffffffffffffffffffffffffff\n      and\n        /* \"budgyToken_v1.sol\":2243:2245  to */\n      dup4\n        /* \"budgyToken_v1.sol\":2243:2259  to != address(0) */\n      0xffffffffffffffffffffffffffffffffffffffff\n      and\n      sub\n        /* \"budgyToken_v1.sol\":2235:2260  require(to != address(0)) */\n      tag_87\n      jumpi\n      0x00\n      dup1\n      revert\n    tag_87:\n        /* \"budgyToken_v1.sol\":2296:2333  _allowed[from][msg.sender].sub(value) */\n      tag_88\n        /* \"budgyToken_v1.sol\":2327:2332  value */\n      dup3\n        /* \"budgyToken_v1.sol\":2296:2304  _allowed */\n      0x01\n        /* \"budgyToken_v1.sol\":2296:2310  _allowed[from] */\n      0x00\n        /* \"budgyToken_v1.sol\":2305:2309  from */\n      dup8\n        /* \"budgyToken_v1.sol\":2296:2310  _allowed[from] */\n      0xffffffffffffffffffffffffffffffffffffffff\n      and\n      0xffffffffffffffffffffffffffffffffffffffff\n      and\n      dup2\n      mstore\n      0x20\n      add\n      swap1\n      dup2\n      mstore\n      0x20\n      add\n      0x00\n      keccak256\n        /* \"budgyToken_v1.sol\":2296:2322  _allowed[from][msg.sender] */\n      0x00\n        /* \"budgyToken_v1.sol\":2311:2321  msg.sender */\n      caller\n        /* \"budgyToken_v1.sol\":2296:2322  _allowed[from][msg.sender] */\n      0xffffffffffffffffffffffffffffffffffffffff\n      and\n      0xffffffffffffffffffffffffffffffffffffffff\n      and\n      dup2\n      mstore\n      0x20\n      add\n      swap1\n      dup2\n      mstore\n      0x20\n      add\n      0x00\n      keccak256\n      sload\n        /* \"budgyToken_v1.sol\":2296:2326  _allowed[from][msg.sender].sub */\n      tag_89\n      swap1\n        /* \"budgyToken_v1.sol\":2296:2333  _allowed[from][msg.sender].sub(value) */\n      swap2\n      swap1\n      0xffffffff\n      and\n      jump\t// in\n    tag_88:\n        /* \"budgyToken_v1.sol\":2267:2275  _allowed */\n      0x01\n        /* \"budgyToken_v1.sol\":2267:2281  _allowed[from] */\n      0x00\n        /* \"budgyToken_v1.sol\":2276:2280  from */\n      dup7\n        /* \"budgyToken_v1.sol\":2267:2281  _allowed[from] */\n      0xffffffffffffffffffffffffffffffffffffffff\n      and\n      0xffffffffffffffffffffffffffffffffffffffff\n      and\n      dup2\n      mstore\n      0x20\n      add\n      swap1\n      dup2\n      mstore\n      0x20\n      add\n      0x00\n      keccak256\n        /* \"budgyToken_v1.sol\":2267:2293  _allowed[from][msg.sender] */\n      0x00\n        /* \"budgyToken_v1.sol\":2282:2292  msg.sender */\n      caller\n        /* \"budgyToken_v1.sol\":2267:2293  _allowed[from][msg.sender] */\n      0xffffffffffffffffffffffffffffffffffffffff\n      and\n      0xffffffffffffffffffffffffffffffffffffffff\n      and\n      dup2\n      mstore\n      0x20\n      add\n      swap1\n      dup2\n      mstore\n      0x20\n      add\n      0x00\n      keccak256\n        /* \"budgyToken_v1.sol\":2267:2333  _allowed[from][msg.sender] = _allowed[from][msg.sender].sub(value) */\n      dup2\n      swap1\n      sstore\n      pop\n        /* \"budgyToken_v1.sol\":2340:2366  _transfer(from, to, value) */\n      tag_90\n        /* \"budgyToken_v1.sol\":2350:2354  from */\n      dup5\n        /* \"budgyToken_v1.sol\":2356:2358  to */\n      dup5\n        /* \"budgyToken_v1.sol\":2360:2365  value */\n      dup5\n        /* \"budgyToken_v1.sol\":2340:2349  _transfer */\n      tag_91\n        /* \"budgyToken_v1.sol\":2340:2366  _transfer(from, to, value) */\n      jump\t// in\n    tag_90:\n        /* \"budgyToken_v1.sol\":2380:2384  true */\n      0x01\n        /* \"budgyToken_v1.sol\":2373:2384  return true */\n      swap1\n      pop\n        /* \"budgyToken_v1.sol\":2043:2390  function transferFrom( address from, address to, uint256 value) public override returns (bool){... */\n      swap4\n      swap3\n      pop\n      pop\n      pop\n      jump\t// out\n        /* \"budgyToken_v1.sol\":312:356  uint8 public override constant decimals = 10 */\n    tag_40:\n        /* \"budgyToken_v1.sol\":354:356  10 */\n      0x0a\n        /* \"budgyToken_v1.sol\":312:356  uint8 public override constant decimals = 10 */\n      dup2\n      jump\t// out\n        /* \"budgyToken_v1.sol\":2396:2712  function increaseAllowance( address spender, uint256 addedValue ) public returns (bool){... */\n    tag_45:\n        /* \"budgyToken_v1.sol\":2478:2482  bool */\n      0x00\n        /* \"budgyToken_v1.sol\":2517:2518  0 */\n      dup1\n        /* \"budgyToken_v1.sol\":2498:2519  spender != address(0) */\n      0xffffffffffffffffffffffffffffffffffffffff\n      and\n        /* \"budgyToken_v1.sol\":2498:2505  spender */\n      dup4\n        /* \"budgyToken_v1.sol\":2498:2519  spender != address(0) */\n      0xffffffffffffffffffffffffffffffffffffffff\n      and\n      sub\n        /* \"budgyToken_v1.sol\":2490:2520  require(spender != address(0)) */\n      tag_93\n      jumpi\n      0x00\n      dup1\n      revert\n    tag_93:\n        /* \"budgyToken_v1.sol\":2570:2615  _allowed[msg.sender][spender].add(addedValue) */\n      tag_94\n        /* \"budgyToken_v1.sol\":2604:2614  addedValue */\n      dup3\n        /* \"budgyToken_v1.sol\":2570:2578  _allowed */\n      0x01\n        /* \"budgyToken_v1.sol\":2570:2590  _allowed[msg.sender] */\n      0x00\n        /* \"budgyToken_v1.sol\":2579:2589  msg.sender */\n      caller\n        /* \"budgyToken_v1.sol\":2570:2590  _allowed[msg.sender] */\n      0xffffffffffffffffffffffffffffffffffffffff\n      and\n      0xffffffffffffffffffffffffffffffffffffffff\n      and\n      dup2\n      mstore\n      0x20\n      add\n      swap1\n      dup2\n      mstore\n      0x20\n      add\n      0x00\n      keccak256\n        /* \"budgyToken_v1.sol\":2570:2599  _allowed[msg.sender][spender] */\n      0x00\n        /* \"budgyToken_v1.sol\":2591:2598  spender */\n      dup7\n        /* \"budgyToken_v1.sol\":2570:2599  _allowed[msg.sender][spender] */\n      0xffffffffffffffffffffffffffffffffffffffff\n      and\n      0xffffffffffffffffffffffffffffffffffffffff\n      and\n      dup2\n      mstore\n      0x20\n      add\n      swap1\n      dup2\n      mstore\n      0x20\n      add\n      0x00\n      keccak256\n      sload\n        /* \"budgyToken_v1.sol\":2570:2603  _allowed[msg.sender][spender].add */\n      tag_95\n      swap1\n        /* \"budgyToken_v1.sol\":2570:2615  _allowed[msg.sender][spender].add(addedValue) */\n      swap2\n      swap1\n      0xffffffff\n      and\n      jump\t// in\n    tag_94:\n        /* \"budgyToken_v1.sol\":2529:2537  _allowed */\n      0x01\n        /* \"budgyToken_v1.sol\":2529:2549  _allowed[msg.sender] */\n      0x00\n        /* \"budgyToken_v1.sol\":2538:2548  msg.sender */\n      caller\n        /* \"budgyToken_v1.sol\":2529:2549  _allowed[msg.sender] */\n      0xffffffffffffffffffffffffffffffffffffffff\n      and\n      0xffffffffffffffffffffffffffffffffffffffff\n      and\n      dup2\n      mstore\n      0x20\n      add\n      swap1\n      dup2\n      mstore\n      0x20\n      add\n      0x00\n      keccak256\n        /* \"budgyToken_v1.sol\":2529:2558  _allowed[msg.sender][spender] */\n      0x00\n        /* \"budgyToken_v1.sol\":2550:2557  spender */\n      dup6\n        /* \"budgyToken_v1.sol\":2529:2558  _allowed[msg.sender][spender] */\n      0xffffffffffffffffffffffffffffffffffffffff\n      and\n      0xffffffffffffffffffffffffffffffffffffffff\n      and\n      dup2\n      mstore\n      0x20\n      add\n      swap1\n      dup2\n      mstore\n      0x20\n      add\n      0x00\n      keccak256\n        /* \"budgyToken_v1.sol\":2529:2616  _allowed[msg.sender][spender] = (... */\n      dup2\n      swap1\n      sstore\n      pop\n        /* \"budgyToken_v1.sol\":2649:2656  spender */\n      dup3\n        /* \"budgyToken_v1.sol\":2628:2688  Approval(msg.sender, spender, _allowed[msg.sender][spender]) */\n      0xffffffffffffffffffffffffffffffffffffffff\n      and\n        /* \"budgyToken_v1.sol\":2637:2647  msg.sender */\n      caller\n        /* \"budgyToken_v1.sol\":2628:2688  Approval(msg.sender, spender, _allowed[msg.sender][spender]) */\n      0xffffffffffffffffffffffffffffffffffffffff\n      and\n      0x8c5be1e5ebec7d5bd14f71427d1e84f3dd0314c0f7b2291e5b200ac8c7c3b925\n        /* \"budgyToken_v1.sol\":2658:2666  _allowed */\n      0x01\n        /* \"budgyToken_v1.sol\":2658:2678  _allowed[msg.sender] */\n      0x00\n        /* \"budgyToken_v1.sol\":2667:2677  msg.sender */\n      caller\n        /* \"budgyToken_v1.sol\":2658:2678  _allowed[msg.sender] */\n      0xffffffffffffffffffffffffffffffffffffffff\n      and\n      0xffffffffffffffffffffffffffffffffffffffff\n      and\n      dup2\n      mstore\n      0x20\n      add\n      swap1\n      dup2\n      mstore\n      0x20\n      add\n      0x00\n      keccak256\n        /* \"budgyToken_v1.sol\":2658:2687  _allowed[msg.sender][spender] */\n      0x00\n        /* \"budgyToken_v1.sol\":2679:2686  spender */\n      dup8\n        /* \"budgyToken_v1.sol\":2658:2687  _allowed[msg.sender][spender] */\n      0xffffffffffffffffffffffffffffffffffffffff\n      and\n      0xffffffffffffffffffffffffffffffffffffffff\n      and\n      dup2\n      mstore\n      0x20\n      add\n      swap1\n      dup2\n      mstore\n      0x20\n      add\n      0x00\n      keccak256\n      sload\n        /* \"budgyToken_v1.sol\":2628:2688  Approval(msg.sender, spender, _allowed[msg.sender][spender]) */\n      mload(0x40)\n      tag_96\n      swap2\n      swap1\n      tag_33\n      jump\t// in\n    tag_96:\n      mload(0x40)\n      dup1\n      swap2\n      sub\n      swap1\n      log3\n        /* \"budgyToken_v1.sol\":2702:2706  true */\n      0x01\n        /* \"budgyToken_v1.sol\":2695:2706  return true */\n      swap1\n      pop\n        /* \"budgyToken_v1.sol\":2396:2712  function increaseAllowance( address spender, uint256 addedValue ) public returns (bool){... */\n      swap3\n      swap2\n      pop\n      pop\n      jump\t// out\n        /* \"budgyToken_v1.sol\":205:250  uint256 public constant _totalSupply = 10**12 */\n    tag_48:\n        /* \"budgyToken_v1.sol\":244:250  10**12 */\n      0xe8d4a51000\n        /* \"budgyToken_v1.sol\":205:250  uint256 public constant _totalSupply = 10**12 */\n      dup2\n      jump\t// out\n        /* \"budgyToken_v1.sol\":900:1009  function balanceOf(address owner) public override view returns (uint256) {... */\n    tag_53:\n        /* \"budgyToken_v1.sol\":964:971  uint256 */\n      0x00\n        /* \"budgyToken_v1.sol\":987:996  _balances */\n      dup1\n        /* \"budgyToken_v1.sol\":987:1003  _balances[owner] */\n      0x00\n        /* \"budgyToken_v1.sol\":997:1002  owner */\n      dup4\n        /* \"budgyToken_v1.sol\":987:1003  _balances[owner] */\n      0xffffffffffffffffffffffffffffffffffffffff\n      and\n      0xffffffffffffffffffffffffffffffffffffffff\n      and\n      dup2\n      mstore\n      0x20\n      add\n      swap1\n      dup2\n      mstore\n      0x20\n      add\n      0x00\n      keccak256\n      sload\n        /* \"budgyToken_v1.sol\":980:1003  return _balances[owner] */\n      swap1\n      pop\n        /* \"budgyToken_v1.sol\":900:1009  function balanceOf(address owner) public override view returns (uint256) {... */\n      swap2\n      swap1\n      pop\n      jump\t// out\n        /* \"budgyToken_v1.sol\":361:408  string public override constant symbol = 'BDGY' */\n    tag_56:\n      mload(0x40)\n      dup1\n      0x40\n      add\n      0x40\n      mstore\n      dup1\n      0x04\n      dup2\n      mstore\n      0x20\n      add\n      0x4244475900000000000000000000000000000000000000000000000000000000\n      dup2\n      mstore\n      pop\n      dup2\n      jump\t// out\n        /* \"budgyToken_v1.sol\":3233:3912  function VIPOnlyCommunityGiving(address owner, address to, uint256 amount) public returns(string memory){... */\n    tag_60:\n        /* \"budgyToken_v1.sol\":3323:3336  string memory */\n      0x60\n        /* \"budgyToken_v1.sol\":3346:3365  uint256 acctBalance */\n      0x00\n        /* \"budgyToken_v1.sol\":3368:3377  _balances */\n      dup1\n        /* \"budgyToken_v1.sol\":3368:3384  _balances[owner] */\n      0x00\n        /* \"budgyToken_v1.sol\":3378:3383  owner */\n      dup7\n        /* \"budgyToken_v1.sol\":3368:3384  _balances[owner] */\n      0xffffffffffffffffffffffffffffffffffffffff\n      and\n      0xffffffffffffffffffffffffffffffffffffffff\n      and\n      dup2\n      mstore\n      0x20\n      add\n      swap1\n      dup2\n      mstore\n      0x20\n      add\n      0x00\n      keccak256\n      sload\n        /* \"budgyToken_v1.sol\":3346:3384  uint256 acctBalance = _balances[owner] */\n      swap1\n      pop\n        /* \"budgyToken_v1.sol\":3422:3423  2 */\n      0x02\n        /* \"budgyToken_v1.sol\":244:250  10**12 */\n      0xe8d4a51000\n        /* \"budgyToken_v1.sol\":3409:3423  _totalSupply/2 */\n      tag_99\n      swap2\n      swap1\n      tag_100\n      jump\t// in\n    tag_99:\n        /* \"budgyToken_v1.sol\":3397:3408  acctBalance */\n      dup2\n        /* \"budgyToken_v1.sol\":3397:3423  acctBalance>_totalSupply/2 */\n      gt\n        /* \"budgyToken_v1.sol\":3393:3845  if (acctBalance>_totalSupply/2){... */\n      iszero\n      tag_101\n      jumpi\n        /* \"budgyToken_v1.sol\":3449:3450  0 */\n      0x00\n        /* \"budgyToken_v1.sol\":3441:3447  amount */\n      dup4\n        /* \"budgyToken_v1.sol\":3441:3450  amount==0 */\n      sub\n        /* \"budgyToken_v1.sol\":3437:3759  if (amount==0){... */\n      tag_102\n      jumpi\n        /* \"budgyToken_v1.sol\":3477:3505  randomGenerator(acctBalance) */\n      tag_103\n        /* \"budgyToken_v1.sol\":3493:3504  acctBalance */\n      dup2\n        /* \"budgyToken_v1.sol\":3477:3492  randomGenerator */\n      tag_73\n        /* \"budgyToken_v1.sol\":3477:3505  randomGenerator(acctBalance) */\n      jump\t// in\n    tag_103:\n        /* \"budgyToken_v1.sol\":3468:3505  amount = randomGenerator(acctBalance) */\n      swap3\n      pop\n        /* \"budgyToken_v1.sol\":3522:3553  transferFrom(owner, to, amount) */\n      tag_104\n        /* \"budgyToken_v1.sol\":3535:3540  owner */\n      dup6\n        /* \"budgyToken_v1.sol\":3542:3544  to */\n      dup6\n        /* \"budgyToken_v1.sol\":3546:3552  amount */\n      dup6\n        /* \"budgyToken_v1.sol\":3522:3534  transferFrom */\n      tag_37\n        /* \"budgyToken_v1.sol\":3522:3553  transferFrom(owner, to, amount) */\n      jump\t// in\n    tag_104:\n      pop\n        /* \"budgyToken_v1.sol\":3570:3745  return('Sharing means caring. You did not want to share, so we are now sending a random amount of tokens to the other account. You also will not see the Secret Message. Boo.') */\n      mload(0x40)\n      dup1\n      0xe0\n      add\n      0x40\n      mstore\n      dup1\n      0xa5\n      dup2\n      mstore\n      0x20\n      add\n      data_b39fbabf8f10a50327a4eb932b84c5c186c5755bdee31bc8391da501bbc3fb9d\n      0xa5\n      swap2\n      codecopy\n      swap2\n      pop\n      pop\n      jump(tag_98)\n        /* \"budgyToken_v1.sol\":3437:3759  if (amount==0){... */\n    tag_102:\n        /* \"budgyToken_v1.sol\":3771:3802  transferFrom(owner, to, amount) */\n      tag_105\n        /* \"budgyToken_v1.sol\":3784:3789  owner */\n      dup6\n        /* \"budgyToken_v1.sol\":3791:3793  to */\n      dup6\n        /* \"budgyToken_v1.sol\":3795:3801  amount */\n      dup6\n        /* \"budgyToken_v1.sol\":3771:3783  transferFrom */\n      tag_37\n        /* \"budgyToken_v1.sol\":3771:3802  transferFrom(owner, to, amount) */\n      jump\t// in\n    tag_105:\n      pop\n        /* \"budgyToken_v1.sol\":3822:3835  secretMessage */\n      mload(0x40)\n      dup1\n      0x80\n      add\n      0x40\n      mstore\n      dup1\n      0x4d\n      dup2\n      mstore\n      0x20\n      add\n      data_0b07e07956ec390ff7e72b1318405d97a05ab399943979f0e46f84161ae1e06a\n      0x4d\n      swap2\n      codecopy\n        /* \"budgyToken_v1.sol\":3815:3835  return secretMessage */\n      swap2\n      pop\n      pop\n      jump(tag_98)\n        /* \"budgyToken_v1.sol\":3393:3845  if (acctBalance>_totalSupply/2){... */\n    tag_101:\n        /* \"budgyToken_v1.sol\":3853:3904  return 'Not enough tokens to join the club, sorry!' */\n      mload(0x40)\n      dup1\n      0x60\n      add\n      0x40\n      mstore\n      dup1\n      0x2a\n      dup2\n      mstore\n      0x20\n      add\n      data_9749efeed3898c6a062d2fac77fae7115bad1871e3d2cce4d4db2fd793d43db4\n      0x2a\n      swap2\n      codecopy\n      swap2\n      pop\n      pop\n        /* \"budgyToken_v1.sol\":3233:3912  function VIPOnlyCommunityGiving(address owner, address to, uint256 amount) public returns(string memory){... */\n    tag_98:\n      swap4\n      swap3\n      pop\n      pop\n      pop\n      jump\t// out\n        /* \"budgyToken_v1.sol\":2718:3041  function decreaseAllowance(address spender,uint256 subtractedValue) public returns (bool){... */\n    tag_64:\n        /* \"budgyToken_v1.sol\":2802:2806  bool */\n      0x00\n        /* \"budgyToken_v1.sol\":2841:2842  0 */\n      dup1\n        /* \"budgyToken_v1.sol\":2822:2843  spender != address(0) */\n      0xffffffffffffffffffffffffffffffffffffffff\n      and\n        /* \"budgyToken_v1.sol\":2822:2829  spender */\n      dup4\n        /* \"budgyToken_v1.sol\":2822:2843  spender != address(0) */\n      0xffffffffffffffffffffffffffffffffffffffff\n      and\n      sub\n        /* \"budgyToken_v1.sol\":2814:2844  require(spender != address(0)) */\n      tag_107\n      jumpi\n      0x00\n      dup1\n      revert\n    tag_107:\n        /* \"budgyToken_v1.sol\":2894:2944  _allowed[msg.sender][spender].sub(subtractedValue) */\n      tag_108\n        /* \"budgyToken_v1.sol\":2928:2943  subtractedValue */\n      dup3\n        /* \"budgyToken_v1.sol\":2894:2902  _allowed */\n      0x01\n        /* \"budgyToken_v1.sol\":2894:2914  _allowed[msg.sender] */\n      0x00\n        /* \"budgyToken_v1.sol\":2903:2913  msg.sender */\n      caller\n        /* \"budgyToken_v1.sol\":2894:2914  _allowed[msg.sender] */\n      0xffffffffffffffffffffffffffffffffffffffff\n      and\n      0xffffffffffffffffffffffffffffffffffffffff\n      and\n      dup2\n      mstore\n      0x20\n      add\n      swap1\n      dup2\n      mstore\n      0x20\n      add\n      0x00\n      keccak256\n        /* \"budgyToken_v1.sol\":2894:2923  _allowed[msg.sender][spender] */\n      0x00\n        /* \"budgyToken_v1.sol\":2915:2922  spender */\n      dup7\n        /* \"budgyToken_v1.sol\":2894:2923  _allowed[msg.sender][spender] */\n      0xffffffffffffffffffffffffffffffffffffffff\n      and\n      0xffffffffffffffffffffffffffffffffffffffff\n      and\n      dup2\n      mstore\n      0x20\n      add\n      swap1\n      dup2\n      mstore\n      0x20\n      add\n      0x00\n      keccak256\n      sload\n        /* \"budgyToken_v1.sol\":2894:2927  _allowed[msg.sender][spender].sub */\n      tag_89\n      swap1\n        /* \"budgyToken_v1.sol\":2894:2944  _allowed[msg.sender][spender].sub(subtractedValue) */\n      swap2\n      swap1\n      0xffffffff\n      and\n      jump\t// in\n    tag_108:\n        /* \"budgyToken_v1.sol\":2853:2861  _allowed */\n      0x01\n        /* \"budgyToken_v1.sol\":2853:2873  _allowed[msg.sender] */\n      0x00\n        /* \"budgyToken_v1.sol\":2862:2872  msg.sender */\n      caller\n        /* \"budgyToken_v1.sol\":2853:2873  _allowed[msg.sender] */\n      0xffffffffffffffffffffffffffffffffffffffff\n      and\n      0xffffffffffffffffffffffffffffffffffffffff\n      and\n      dup2\n      mstore\n      0x20\n      add\n      swap1\n      dup2\n      mstore\n      0x20\n      add\n      0x00\n      keccak256\n        /* \"budgyToken_v1.sol\":2853:2882  _allowed[msg.sender][spender] */\n      0x00\n        /* \"budgyToken_v1.sol\":2874:2881  spender */\n      dup6\n        /* \"budgyToken_v1.sol\":2853:2882  _allowed[msg.sender][spender] */\n      0xffffffffffffffffffffffffffffffffffffffff\n      and\n      0xffffffffffffffffffffffffffffffffffffffff\n      and\n      dup2\n      mstore\n      0x20\n      add\n      swap1\n      dup2\n      mstore\n      0x20\n      add\n      0x00\n      keccak256\n        /* \"budgyToken_v1.sol\":2853:2945  _allowed[msg.sender][spender] = (... */\n      dup2\n      swap1\n      sstore\n      pop\n        /* \"budgyToken_v1.sol\":2978:2985  spender */\n      dup3\n        /* \"budgyToken_v1.sol\":2957:3017  Approval(msg.sender, spender, _allowed[msg.sender][spender]) */\n      0xffffffffffffffffffffffffffffffffffffffff\n      and\n        /* \"budgyToken_v1.sol\":2966:2976  msg.sender */\n      caller\n        /* \"budgyToken_v1.sol\":2957:3017  Approval(msg.sender, spender, _allowed[msg.sender][spender]) */\n      0xffffffffffffffffffffffffffffffffffffffff\n      and\n      0x8c5be1e5ebec7d5bd14f71427d1e84f3dd0314c0f7b2291e5b200ac8c7c3b925\n        /* \"budgyToken_v1.sol\":2987:2995  _allowed */\n      0x01\n        /* \"budgyToken_v1.sol\":2987:3007  _allowed[msg.sender] */\n      0x00\n        /* \"budgyToken_v1.sol\":2996:3006  msg.sender */\n      caller\n        /* \"budgyToken_v1.sol\":2987:3007  _allowed[msg.sender] */\n      0xffffffffffffffffffffffffffffffffffffffff\n      and\n      0xffffffffffffffffffffffffffffffffffffffff\n      and\n      dup2\n      mstore\n      0x20\n      add\n      swap1\n      dup2\n      mstore\n      0x20\n      add\n      0x00\n      keccak256\n        /* \"budgyToken_v1.sol\":2987:3016  _allowed[msg.sender][spender] */\n      0x00\n        /* \"budgyToken_v1.sol\":3008:3015  spender */\n      dup8\n        /* \"budgyToken_v1.sol\":2987:3016  _allowed[msg.sender][spender] */\n      0xffffffffffffffffffffffffffffffffffffffff\n      and\n      0xffffffffffffffffffffffffffffffffffffffff\n      and\n      dup2\n      mstore\n      0x20\n      add\n      swap1\n      dup2\n      mstore\n      0x20\n      add\n      0x00\n      keccak256\n      sload\n        /* \"budgyToken_v1.sol\":2957:3017  Approval(msg.sender, spender, _allowed[msg.sender][spender]) */\n      mload(0x40)\n      tag_109\n      swap2\n      swap1\n      tag_33\n      jump\t// in\n    tag_109:\n      mload(0x40)\n      dup1\n      swap2\n      sub\n      swap1\n      log3\n        /* \"budgyToken_v1.sol\":3031:3035  true */\n      0x01\n        /* \"budgyToken_v1.sol\":3024:3035  return true */\n      swap1\n      pop\n        /* \"budgyToken_v1.sol\":2718:3041  function decreaseAllowance(address spender,uint256 subtractedValue) public returns (bool){... */\n      swap3\n      swap2\n      pop\n      pop\n      jump\t// out\n        /* \"budgyToken_v1.sol\":1245:1578  function transfer(address to, uint256 value) public override returns (bool) {... */\n    tag_68:\n        /* \"budgyToken_v1.sol\":1315:1319  bool */\n      0x00\n        /* \"budgyToken_v1.sol\":1345:1354  _balances */\n      dup1\n        /* \"budgyToken_v1.sol\":1345:1366  _balances[msg.sender] */\n      0x00\n        /* \"budgyToken_v1.sol\":1355:1365  msg.sender */\n      caller\n        /* \"budgyToken_v1.sol\":1345:1366  _balances[msg.sender] */\n      0xffffffffffffffffffffffffffffffffffffffff\n      and\n      0xffffffffffffffffffffffffffffffffffffffff\n      and\n      dup2\n      mstore\n      0x20\n      add\n      swap1\n      dup2\n      mstore\n      0x20\n      add\n      0x00\n      keccak256\n      sload\n        /* \"budgyToken_v1.sol\":1336:1341  value */\n      dup3\n        /* \"budgyToken_v1.sol\":1336:1366  value <= _balances[msg.sender] */\n      gt\n      iszero\n        /* \"budgyToken_v1.sol\":1328:1367  require(value <= _balances[msg.sender]) */\n      tag_111\n      jumpi\n      0x00\n      dup1\n      revert\n    tag_111:\n        /* \"budgyToken_v1.sol\":1396:1397  0 */\n      0x00\n        /* \"budgyToken_v1.sol\":1382:1398  to != address(0) */\n      0xffffffffffffffffffffffffffffffffffffffff\n      and\n        /* \"budgyToken_v1.sol\":1382:1384  to */\n      dup4\n        /* \"budgyToken_v1.sol\":1382:1398  to != address(0) */\n      0xffffffffffffffffffffffffffffffffffffffff\n      and\n      sub\n        /* \"budgyToken_v1.sol\":1374:1399  require(to != address(0)) */\n      tag_112\n      jumpi\n      0x00\n      dup1\n      revert\n    tag_112:\n        /* \"budgyToken_v1.sol\":1432:1464  _balances[msg.sender].sub(value) */\n      tag_113\n        /* \"budgyToken_v1.sol\":1458:1463  value */\n      dup3\n        /* \"budgyToken_v1.sol\":1432:1441  _balances */\n      0x00\n        /* \"budgyToken_v1.sol\":1432:1453  _balances[msg.sender] */\n      dup1\n        /* \"budgyToken_v1.sol\":1442:1452  msg.sender */\n      caller\n        /* \"budgyToken_v1.sol\":1432:1453  _balances[msg.sender] */\n      0xffffffffffffffffffffffffffffffffffffffff\n      and\n      0xffffffffffffffffffffffffffffffffffffffff\n      and\n      dup2\n      mstore\n      0x20\n      add\n      swap1\n      dup2\n      mstore\n      0x20\n      add\n      0x00\n      keccak256\n      sload\n        /* \"budgyToken_v1.sol\":1432:1457  _balances[msg.sender].sub */\n      tag_89\n      swap1\n        /* \"budgyToken_v1.sol\":1432:1464  _balances[msg.sender].sub(value) */\n      swap2\n      swap1\n      0xffffffff\n      and\n      jump\t// in\n    tag_113:\n        /* \"budgyToken_v1.sol\":1408:1417  _balances */\n      0x00\n        /* \"budgyToken_v1.sol\":1408:1429  _balances[msg.sender] */\n      dup1\n        /* \"budgyToken_v1.sol\":1418:1428  msg.sender */\n      caller\n        /* \"budgyToken_v1.sol\":1408:1429  _balances[msg.sender] */\n      0xffffffffffffffffffffffffffffffffffffffff\n      and\n      0xffffffffffffffffffffffffffffffffffffffff\n      and\n      dup2\n      mstore\n      0x20\n      add\n      swap1\n      dup2\n      mstore\n      0x20\n      add\n      0x00\n      keccak256\n        /* \"budgyToken_v1.sol\":1408:1464  _balances[msg.sender] = _balances[msg.sender].sub(value) */\n      dup2\n      swap1\n      sstore\n      pop\n        /* \"budgyToken_v1.sol\":1487:1511  _balances[to].add(value) */\n      tag_114\n        /* \"budgyToken_v1.sol\":1505:1510  value */\n      dup3\n        /* \"budgyToken_v1.sol\":1487:1496  _balances */\n      0x00\n        /* \"budgyToken_v1.sol\":1487:1500  _balances[to] */\n      dup1\n        /* \"budgyToken_v1.sol\":1497:1499  to */\n      dup7\n        /* \"budgyToken_v1.sol\":1487:1500  _balances[to] */\n      0xffffffffffffffffffffffffffffffffffffffff\n      and\n      0xffffffffffffffffffffffffffffffffffffffff\n      and\n      dup2\n      mstore\n      0x20\n      add\n      swap1\n      dup2\n      mstore\n      0x20\n      add\n      0x00\n      keccak256\n      sload\n        /* \"budgyToken_v1.sol\":1487:1504  _balances[to].add */\n      tag_95\n      swap1\n        /* \"budgyToken_v1.sol\":1487:1511  _balances[to].add(value) */\n      swap2\n      swap1\n      0xffffffff\n      and\n      jump\t// in\n    tag_114:\n        /* \"budgyToken_v1.sol\":1471:1480  _balances */\n      0x00\n        /* \"budgyToken_v1.sol\":1471:1484  _balances[to] */\n      dup1\n        /* \"budgyToken_v1.sol\":1481:1483  to */\n      dup6\n        /* \"budgyToken_v1.sol\":1471:1484  _balances[to] */\n      0xffffffffffffffffffffffffffffffffffffffff\n      and\n      0xffffffffffffffffffffffffffffffffffffffff\n      and\n      dup2\n      mstore\n      0x20\n      add\n      swap1\n      dup2\n      mstore\n      0x20\n      add\n      0x00\n      keccak256\n        /* \"budgyToken_v1.sol\":1471:1511  _balances[to] = _balances[to].add(value) */\n      dup2\n      swap1\n      sstore\n      pop\n        /* \"budgyToken_v1.sol\":1544:1546  to */\n      dup3\n        /* \"budgyToken_v1.sol\":1523:1554  Transfer(msg.sender, to, value) */\n      0xffffffffffffffffffffffffffffffffffffffff\n      and\n        /* \"budgyToken_v1.sol\":1532:1542  msg.sender */\n      caller\n        /* \"budgyToken_v1.sol\":1523:1554  Transfer(msg.sender, to, value) */\n      0xffffffffffffffffffffffffffffffffffffffff\n      and\n      0xddf252ad1be2c89b69c2b068fc378daa952ba7f163c4a11628f55a4df523b3ef\n        /* \"budgyToken_v1.sol\":1548:1553  value */\n      dup5\n        /* \"budgyToken_v1.sol\":1523:1554  Transfer(msg.sender, to, value) */\n      mload(0x40)\n      tag_115\n      swap2\n      swap1\n      tag_33\n      jump\t// in\n    tag_115:\n      mload(0x40)\n      dup1\n      swap2\n      sub\n      swap1\n      log3\n        /* \"budgyToken_v1.sol\":1568:1572  true */\n      0x01\n        /* \"budgyToken_v1.sol\":1561:1572  return true */\n      swap1\n      pop\n        /* \"budgyToken_v1.sol\":1245:1578  function transfer(address to, uint256 value) public override returns (bool) {... */\n      swap3\n      swap2\n      pop\n      pop\n      jump\t// out\n        /* \"budgyToken_v1.sol\":3047:3227  function randomGenerator(uint256 number) public view returns (uint256){... */\n    tag_73:\n        /* \"budgyToken_v1.sol\":3109:3116  uint256 */\n      0x00\n        /* \"budgyToken_v1.sol\":3215:3221  number */\n      dup2\n        /* \"budgyToken_v1.sol\":3165:3180  block.timestamp */\n      timestamp\n        /* \"budgyToken_v1.sol\":3181:3197  block.difficulty */\n      prevrandao\n        /* \"budgyToken_v1.sol\":3199:3209  msg.sender */\n      caller\n        /* \"budgyToken_v1.sol\":3148:3210  abi.encodePacked(block.timestamp,block.difficulty, msg.sender) */\n      add(0x20, mload(0x40))\n      tag_117\n      swap4\n      swap3\n      swap2\n      swap1\n      tag_118\n      jump\t// in\n    tag_117:\n      mload(0x40)\n      0x20\n      dup2\n      dup4\n      sub\n      sub\n      dup2\n      mstore\n      swap1\n      0x40\n      mstore\n        /* \"budgyToken_v1.sol\":3138:3211  keccak256(abi.encodePacked(block.timestamp,block.difficulty, msg.sender)) */\n      dup1\n      mload\n      swap1\n      0x20\n      add\n      keccak256\n        /* \"budgyToken_v1.sol\":3133:3212  uint(keccak256(abi.encodePacked(block.timestamp,block.difficulty, msg.sender))) */\n      0x00\n      shr\n        /* \"budgyToken_v1.sol\":3133:3221  uint(keccak256(abi.encodePacked(block.timestamp,block.difficulty, msg.sender))) % number */\n      tag_119\n      swap2\n      swap1\n      tag_120\n      jump\t// in\n    tag_119:\n        /* \"budgyToken_v1.sol\":3126:3221  return uint(keccak256(abi.encodePacked(block.timestamp,block.difficulty, msg.sender))) % number */\n      swap1\n      pop\n        /* \"budgyToken_v1.sol\":3047:3227  function randomGenerator(uint256 number) public view returns (uint256){... */\n      swap2\n      swap1\n      pop\n      jump\t// out\n        /* \"budgyToken_v1.sol\":1108:1239  function allowance(address owner,address spender)public override view returns (uint256){... */\n    tag_78:\n        /* \"budgyToken_v1.sol\":1187:1194  uint256 */\n      0x00\n        /* \"budgyToken_v1.sol\":1209:1217  _allowed */\n      0x01\n        /* \"budgyToken_v1.sol\":1209:1224  _allowed[owner] */\n      0x00\n        /* \"budgyToken_v1.sol\":1218:1223  owner */\n      dup5\n        /* \"budgyToken_v1.sol\":1209:1224  _allowed[owner] */\n      0xffffffffffffffffffffffffffffffffffffffff\n      and\n      0xffffffffffffffffffffffffffffffffffffffff\n      and\n      dup2\n      mstore\n      0x20\n      add\n      swap1\n      dup2\n      mstore\n      0x20\n      add\n      0x00\n      keccak256\n        /* \"budgyToken_v1.sol\":1209:1233  _allowed[owner][spender] */\n      0x00\n        /* \"budgyToken_v1.sol\":1225:1232  spender */\n      dup4\n        /* \"budgyToken_v1.sol\":1209:1233  _allowed[owner][spender] */\n      0xffffffffffffffffffffffffffffffffffffffff\n      and\n      0xffffffffffffffffffffffffffffffffffffffff\n      and\n      dup2\n      mstore\n      0x20\n      add\n      swap1\n      dup2\n      mstore\n      0x20\n      add\n      0x00\n      keccak256\n      sload\n        /* \"budgyToken_v1.sol\":1202:1233  return _allowed[owner][spender] */\n      swap1\n      pop\n        /* \"budgyToken_v1.sol\":1108:1239  function allowance(address owner,address spender)public override view returns (uint256){... */\n      swap3\n      swap2\n      pop\n      pop\n      jump\t// out\n        /* \"libraries/SafeMath.sol\":331:460  function sub(uint x, uint y) internal pure returns (uint z) {... */\n    tag_89:\n        /* \"libraries/SafeMath.sol\":383:389  uint z */\n      0x00\n        /* \"libraries/SafeMath.sol\":425:426  x */\n      dup3\n        /* \"libraries/SafeMath.sol\":419:420  y */\n      dup3\n        /* \"libraries/SafeMath.sol\":415:416  x */\n      dup5\n        /* \"libraries/SafeMath.sol\":415:420  x - y */\n      tag_123\n      swap2\n      swap1\n      tag_124\n      jump\t// in\n    tag_123:\n        /* \"libraries/SafeMath.sol\":411:420  z = x - y */\n      swap2\n      pop\n      dup2\n        /* \"libraries/SafeMath.sol\":410:426  (z = x - y) <= x */\n      gt\n      iszero\n        /* \"libraries/SafeMath.sol\":402:452  require((z = x - y) <= x, 'ds-math-sub-underflow') */\n      tag_125\n      jumpi\n      mload(0x40)\n      0x08c379a000000000000000000000000000000000000000000000000000000000\n      dup2\n      mstore\n      0x04\n      add\n      tag_126\n      swap1\n      tag_127\n      jump\t// in\n    tag_126:\n      mload(0x40)\n      dup1\n      swap2\n      sub\n      swap1\n      revert\n    tag_125:\n        /* \"libraries/SafeMath.sol\":331:460  function sub(uint x, uint y) internal pure returns (uint z) {... */\n      swap3\n      swap2\n      pop\n      pop\n      jump\t// out\n        /* \"budgyToken_v1.sol\":1823:2037  function _transfer(address from, address to, uint value) private {... */\n    tag_91:\n        /* \"budgyToken_v1.sol\":1915:1941  _balances[from].sub(value) */\n      tag_129\n        /* \"budgyToken_v1.sol\":1935:1940  value */\n      dup2\n        /* \"budgyToken_v1.sol\":1915:1924  _balances */\n      0x00\n        /* \"budgyToken_v1.sol\":1915:1930  _balances[from] */\n      dup1\n        /* \"budgyToken_v1.sol\":1925:1929  from */\n      dup7\n        /* \"budgyToken_v1.sol\":1915:1930  _balances[from] */\n      0xffffffffffffffffffffffffffffffffffffffff\n      and\n      0xffffffffffffffffffffffffffffffffffffffff\n      and\n      dup2\n      mstore\n      0x20\n      add\n      swap1\n      dup2\n      mstore\n      0x20\n      add\n      0x00\n      keccak256\n      sload\n        /* \"budgyToken_v1.sol\":1915:1934  _balances[from].sub */\n      tag_89\n      swap1\n        /* \"budgyToken_v1.sol\":1915:1941  _balances[from].sub(value) */\n      swap2\n      swap1\n      0xffffffff\n      and\n      jump\t// in\n    tag_129:\n        /* \"budgyToken_v1.sol\":1897:1906  _balances */\n      0x00\n        /* \"budgyToken_v1.sol\":1897:1912  _balances[from] */\n      dup1\n        /* \"budgyToken_v1.sol\":1907:1911  from */\n      dup6\n        /* \"budgyToken_v1.sol\":1897:1912  _balances[from] */\n      0xffffffffffffffffffffffffffffffffffffffff\n      and\n      0xffffffffffffffffffffffffffffffffffffffff\n      and\n      dup2\n      mstore\n      0x20\n      add\n      swap1\n      dup2\n      mstore\n      0x20\n      add\n      0x00\n      keccak256\n        /* \"budgyToken_v1.sol\":1897:1941  _balances[from] = _balances[from].sub(value) */\n      dup2\n      swap1\n      sstore\n      pop\n        /* \"budgyToken_v1.sol\":1966:1990  _balances[to].add(value) */\n      tag_130\n        /* \"budgyToken_v1.sol\":1984:1989  value */\n      dup2\n        /* \"budgyToken_v1.sol\":1966:1975  _balances */\n      0x00\n        /* \"budgyToken_v1.sol\":1966:1979  _balances[to] */\n      dup1\n        /* \"budgyToken_v1.sol\":1976:1978  to */\n      dup6\n        /* \"budgyToken_v1.sol\":1966:1979  _balances[to] */\n      0xffffffffffffffffffffffffffffffffffffffff\n      and\n      0xffffffffffffffffffffffffffffffffffffffff\n      and\n      dup2\n      mstore\n      0x20\n      add\n      swap1\n      dup2\n      mstore\n      0x20\n      add\n      0x00\n      keccak256\n      sload\n        /* \"budgyToken_v1.sol\":1966:1983  _balances[to].add */\n      tag_95\n      swap1\n        /* \"budgyToken_v1.sol\":1966:1990  _balances[to].add(value) */\n      swap2\n      swap1\n      0xffffffff\n      and\n      jump\t// in\n    tag_130:\n        /* \"budgyToken_v1.sol\":1950:1959  _balances */\n      0x00\n        /* \"budgyToken_v1.sol\":1950:1963  _balances[to] */\n      dup1\n        /* \"budgyToken_v1.sol\":1960:1962  to */\n      dup5\n        /* \"budgyToken_v1.sol\":1950:1963  _balances[to] */\n      0xffffffffffffffffffffffffffffffffffffffff\n      and\n      0xffffffffffffffffffffffffffffffffffffffff\n      and\n      dup2\n      mstore\n      0x20\n      add\n      swap1\n      dup2\n      mstore\n      0x20\n      add\n      0x00\n      keccak256\n        /* \"budgyToken_v1.sol\":1950:1990  _balances[to] = _balances[to].add(value) */\n      dup2\n      swap1\n      sstore\n      pop\n        /* \"budgyToken_v1.sol\":2019:2021  to */\n      dup2\n        /* \"budgyToken_v1.sol\":2004:2029  Transfer(from, to, value) */\n      0xffffffffffffffffffffffffffffffffffffffff\n      and\n        /* \"budgyToken_v1.sol\":2013:2017  from */\n      dup4\n        /* \"budgyToken_v1.sol\":2004:2029  Transfer(from, to, value) */\n      0xffffffffffffffffffffffffffffffffffffffff\n      and\n      0xddf252ad1be2c89b69c2b068fc378daa952ba7f163c4a11628f55a4df523b3ef\n        /* \"budgyToken_v1.sol\":2023:2028  value */\n      dup4\n        /* \"budgyToken_v1.sol\":2004:2029  Transfer(from, to, value) */\n      mload(0x40)\n      tag_131\n      swap2\n      swap1\n      tag_33\n      jump\t// in\n    tag_131:\n      mload(0x40)\n      dup1\n      swap2\n      sub\n      swap1\n      log3\n        /* \"budgyToken_v1.sol\":1823:2037  function _transfer(address from, address to, uint value) private {... */\n      pop\n      pop\n      pop\n      jump\t// out\n        /* \"libraries/SafeMath.sol\":199:323  function add(uint x, uint y) internal pure returns (uint z) {... */\n    tag_95:\n        /* \"libraries/SafeMath.sol\":251:257  uint z */\n      0x00\n        /* \"libraries/SafeMath.sol\":289:290  x */\n      dup3\n        /* \"libraries/SafeMath.sol\":283:284  y */\n      dup3\n        /* \"libraries/SafeMath.sol\":279:280  x */\n      dup5\n        /* \"libraries/SafeMath.sol\":279:284  x + y */\n      tag_133\n      swap2\n      swap1\n      tag_134\n      jump\t// in\n    tag_133:\n        /* \"libraries/SafeMath.sol\":275:284  z = x + y */\n      swap2\n      pop\n      dup2\n        /* \"libraries/SafeMath.sol\":274:290  (z = x + y) >= x */\n      lt\n      iszero\n        /* \"libraries/SafeMath.sol\":266:315  require((z = x + y) >= x, 'ds-math-add-overflow') */\n      tag_135\n      jumpi\n      mload(0x40)\n      0x08c379a000000000000000000000000000000000000000000000000000000000\n      dup2\n      mstore\n      0x04\n      add\n      tag_136\n      swap1\n      tag_137\n      jump\t// in\n    tag_136:\n      mload(0x40)\n      dup1\n      swap2\n      sub\n      swap1\n      revert\n    tag_135:\n        /* \"libraries/SafeMath.sol\":199:323  function add(uint x, uint y) internal pure returns (uint z) {... */\n      swap3\n      swap2\n      pop\n      pop\n      jump\t// out\n        /* \"#utility.yul\":7:106   */\n    tag_138:\n        /* \"#utility.yul\":59:65   */\n      0x00\n        /* \"#utility.yul\":93:98   */\n      dup2\n        /* \"#utility.yul\":87:99   */\n      mload\n        /* \"#utility.yul\":77:99   */\n      swap1\n      pop\n        /* \"#utility.yul\":7:106   */\n      swap2\n      swap1\n      pop\n      jump\t// out\n        /* \"#utility.yul\":112:281   */\n    tag_139:\n        /* \"#utility.yul\":196:207   */\n      0x00\n        /* \"#utility.yul\":230:236   */\n      dup3\n        /* \"#utility.yul\":225:228   */\n      dup3\n        /* \"#utility.yul\":218:237   */\n      mstore\n        /* \"#utility.yul\":270:274   */\n      0x20\n        /* \"#utility.yul\":265:268   */\n      dup3\n        /* \"#utility.yul\":261:275   */\n      add\n        /* \"#utility.yul\":246:275   */\n      swap1\n      pop\n        /* \"#utility.yul\":112:281   */\n      swap3\n      swap2\n      pop\n      pop\n      jump\t// out\n        /* \"#utility.yul\":287:533   */\n    tag_140:\n        /* \"#utility.yul\":368:369   */\n      0x00\n        /* \"#utility.yul\":378:491   */\n    tag_174:\n        /* \"#utility.yul\":392:398   */\n      dup4\n        /* \"#utility.yul\":389:390   */\n      dup2\n        /* \"#utility.yul\":386:399   */\n      lt\n        /* \"#utility.yul\":378:491   */\n      iszero\n      tag_176\n      jumpi\n        /* \"#utility.yul\":477:478   */\n      dup1\n        /* \"#utility.yul\":472:475   */\n      dup3\n        /* \"#utility.yul\":468:479   */\n      add\n        /* \"#utility.yul\":462:480   */\n      mload\n        /* \"#utility.yul\":458:459   */\n      dup2\n        /* \"#utility.yul\":453:456   */\n      dup5\n        /* \"#utility.yul\":449:460   */\n      add\n        /* \"#utility.yul\":442:481   */\n      mstore\n        /* \"#utility.yul\":414:416   */\n      0x20\n        /* \"#utility.yul\":411:412   */\n      dup2\n        /* \"#utility.yul\":407:417   */\n      add\n        /* \"#utility.yul\":402:417   */\n      swap1\n      pop\n        /* \"#utility.yul\":378:491   */\n      jump(tag_174)\n    tag_176:\n        /* \"#utility.yul\":525:526   */\n      0x00\n        /* \"#utility.yul\":516:522   */\n      dup5\n        /* \"#utility.yul\":511:514   */\n      dup5\n        /* \"#utility.yul\":507:523   */\n      add\n        /* \"#utility.yul\":500:527   */\n      mstore\n        /* \"#utility.yul\":349:533   */\n      pop\n        /* \"#utility.yul\":287:533   */\n      pop\n      pop\n      pop\n      jump\t// out\n        /* \"#utility.yul\":539:641   */\n    tag_141:\n        /* \"#utility.yul\":580:586   */\n      0x00\n        /* \"#utility.yul\":631:633   */\n      0x1f\n        /* \"#utility.yul\":627:634   */\n      not\n        /* \"#utility.yul\":622:624   */\n      0x1f\n        /* \"#utility.yul\":615:620   */\n      dup4\n        /* \"#utility.yul\":611:625   */\n      add\n        /* \"#utility.yul\":607:635   */\n      and\n        /* \"#utility.yul\":597:635   */\n      swap1\n      pop\n        /* \"#utility.yul\":539:641   */\n      swap2\n      swap1\n      pop\n      jump\t// out\n        /* \"#utility.yul\":647:1024   */\n    tag_142:\n        /* \"#utility.yul\":735:738   */\n      0x00\n        /* \"#utility.yul\":763:802   */\n      tag_179\n        /* \"#utility.yul\":796:801   */\n      dup3\n        /* \"#utility.yul\":763:802   */\n      tag_138\n      jump\t// in\n    tag_179:\n        /* \"#utility.yul\":818:889   */\n      tag_180\n        /* \"#utility.yul\":882:888   */\n      dup2\n        /* \"#utility.yul\":877:880   */\n      dup6\n        /* \"#utility.yul\":818:889   */\n      tag_139\n      jump\t// in\n    tag_180:\n        /* \"#utility.yul\":811:889   */\n      swap4\n      pop\n        /* \"#utility.yul\":898:963   */\n      tag_181\n        /* \"#utility.yul\":956:962   */\n      dup2\n        /* \"#utility.yul\":951:954   */\n      dup6\n        /* \"#utility.yul\":944:948   */\n      0x20\n        /* \"#utility.yul\":937:942   */\n      dup7\n        /* \"#utility.yul\":933:949   */\n      add\n        /* \"#utility.yul\":898:963   */\n      tag_140\n      jump\t// in\n    tag_181:\n        /* \"#utility.yul\":988:1017   */\n      tag_182\n        /* \"#utility.yul\":1010:1016   */\n      dup2\n        /* \"#utility.yul\":988:1017   */\n      tag_141\n      jump\t// in\n    tag_182:\n        /* \"#utility.yul\":983:986   */\n      dup5\n        /* \"#utility.yul\":979:1018   */\n      add\n        /* \"#utility.yul\":972:1018   */\n      swap2\n      pop\n        /* \"#utility.yul\":739:1024   */\n      pop\n        /* \"#utility.yul\":647:1024   */\n      swap3\n      swap2\n      pop\n      pop\n      jump\t// out\n        /* \"#utility.yul\":1030:1343   */\n    tag_23:\n        /* \"#utility.yul\":1143:1147   */\n      0x00\n        /* \"#utility.yul\":1181:1183   */\n      0x20\n        /* \"#utility.yul\":1170:1179   */\n      dup3\n        /* \"#utility.yul\":1166:1184   */\n      add\n        /* \"#utility.yul\":1158:1184   */\n      swap1\n      pop\n        /* \"#utility.yul\":1230:1239   */\n      dup2\n        /* \"#utility.yul\":1224:1228   */\n      dup2\n        /* \"#utility.yul\":1220:1240   */\n      sub\n        /* \"#utility.yul\":1216:1217   */\n      0x00\n        /* \"#utility.yul\":1205:1214   */\n      dup4\n        /* \"#utility.yul\":1201:1218   */\n      add\n        /* \"#utility.yul\":1194:1241   */\n      mstore\n        /* \"#utility.yul\":1258:1336   */\n      tag_184\n        /* \"#utility.yul\":1331:1335   */\n      dup2\n        /* \"#utility.yul\":1322:1328   */\n      dup5\n        /* \"#utility.yul\":1258:1336   */\n      tag_142\n      jump\t// in\n    tag_184:\n        /* \"#utility.yul\":1250:1336   */\n      swap1\n      pop\n        /* \"#utility.yul\":1030:1343   */\n      swap3\n      swap2\n      pop\n      pop\n      jump\t// out\n        /* \"#utility.yul\":1430:1547   */\n    tag_144:\n        /* \"#utility.yul\":1539:1540   */\n      0x00\n        /* \"#utility.yul\":1536:1537   */\n      dup1\n        /* \"#utility.yul\":1529:1541   */\n      revert\n        /* \"#utility.yul\":1676:1802   */\n    tag_146:\n        /* \"#utility.yul\":1713:1720   */\n      0x00\n        /* \"#utility.yul\":1753:1795   */\n      0xffffffffffffffffffffffffffffffffffffffff\n        /* \"#utility.yul\":1746:1751   */\n      dup3\n        /* \"#utility.yul\":1742:1796   */\n      and\n        /* \"#utility.yul\":1731:1796   */\n      swap1\n      pop\n        /* \"#utility.yul\":1676:1802   */\n      swap2\n      swap1\n      pop\n      jump\t// out\n        /* \"#utility.yul\":1808:1904   */\n    tag_147:\n        /* \"#utility.yul\":1845:1852   */\n      0x00\n        /* \"#utility.yul\":1874:1898   */\n      tag_190\n        /* \"#utility.yul\":1892:1897   */\n      dup3\n        /* \"#utility.yul\":1874:1898   */\n      tag_146\n      jump\t// in\n    tag_190:\n        /* \"#utility.yul\":1863:1898   */\n      swap1\n      pop\n        /* \"#utility.yul\":1808:1904   */\n      swap2\n      swap1\n      pop\n      jump\t// out\n        /* \"#utility.yul\":1910:2032   */\n    tag_148:\n        /* \"#utility.yul\":1983:2007   */\n      tag_192\n        /* \"#utility.yul\":2001:2006   */\n      dup2\n        /* \"#utility.yul\":1983:2007   */\n      tag_147\n      jump\t// in\n    tag_192:\n        /* \"#utility.yul\":1976:1981   */\n      dup2\n        /* \"#utility.yul\":1973:2008   */\n      eq\n        /* \"#utility.yul\":1963:2026   */\n      tag_193\n      jumpi\n        /* \"#utility.yul\":2022:2023   */\n      0x00\n        /* \"#utility.yul\":2019:2020   */\n      dup1\n        /* \"#utility.yul\":2012:2024   */\n      revert\n        /* \"#utility.yul\":1963:2026   */\n    tag_193:\n        /* \"#utility.yul\":1910:2032   */\n      pop\n      jump\t// out\n        /* \"#utility.yul\":2038:2177   */\n    tag_149:\n        /* \"#utility.yul\":2084:2089   */\n      0x00\n        /* \"#utility.yul\":2122:2128   */\n      dup2\n        /* \"#utility.yul\":2109:2129   */\n      calldataload\n        /* \"#utility.yul\":2100:2129   */\n      swap1\n      pop\n        /* \"#utility.yul\":2138:2171   */\n      tag_195\n        /* \"#utility.yul\":2165:2170   */\n      dup2\n        /* \"#utility.yul\":2138:2171   */\n      tag_148\n      jump\t// in\n    tag_195:\n        /* \"#utility.yul\":2038:2177   */\n      swap3\n      swap2\n      pop\n      pop\n      jump\t// out\n        /* \"#utility.yul\":2183:2260   */\n    tag_150:\n        /* \"#utility.yul\":2220:2227   */\n      0x00\n        /* \"#utility.yul\":2249:2254   */\n      dup2\n        /* \"#utility.yul\":2238:2254   */\n      swap1\n      pop\n        /* \"#utility.yul\":2183:2260   */\n      swap2\n      swap1\n      pop\n      jump\t// out\n        /* \"#utility.yul\":2266:2388   */\n    tag_151:\n        /* \"#utility.yul\":2339:2363   */\n      tag_198\n        /* \"#utility.yul\":2357:2362   */\n      dup2\n        /* \"#utility.yul\":2339:2363   */\n      tag_150\n      jump\t// in\n    tag_198:\n        /* \"#utility.yul\":2332:2337   */\n      dup2\n        /* \"#utility.yul\":2329:2364   */\n      eq\n        /* \"#utility.yul\":2319:2382   */\n      tag_199\n      jumpi\n        /* \"#utility.yul\":2378:2379   */\n      0x00\n        /* \"#utility.yul\":2375:2376   */\n      dup1\n        /* \"#utility.yul\":2368:2380   */\n      revert\n        /* \"#utility.yul\":2319:2382   */\n    tag_199:\n        /* \"#utility.yul\":2266:2388   */\n      pop\n      jump\t// out\n        /* \"#utility.yul\":2394:2533   */\n    tag_152:\n        /* \"#utility.yul\":2440:2445   */\n      0x00\n        /* \"#utility.yul\":2478:2484   */\n      dup2\n        /* \"#utility.yul\":2465:2485   */\n      calldataload\n        /* \"#utility.yul\":2456:2485   */\n      swap1\n      pop\n        /* \"#utility.yul\":2494:2527   */\n      tag_201\n        /* \"#utility.yul\":2521:2526   */\n      dup2\n        /* \"#utility.yul\":2494:2527   */\n      tag_151\n      jump\t// in\n    tag_201:\n        /* \"#utility.yul\":2394:2533   */\n      swap3\n      swap2\n      pop\n      pop\n      jump\t// out\n        /* \"#utility.yul\":2539:3013   */\n    tag_26:\n        /* \"#utility.yul\":2607:2613   */\n      0x00\n        /* \"#utility.yul\":2615:2621   */\n      dup1\n        /* \"#utility.yul\":2664:2666   */\n      0x40\n        /* \"#utility.yul\":2652:2661   */\n      dup4\n        /* \"#utility.yul\":2643:2650   */\n      dup6\n        /* \"#utility.yul\":2639:2662   */\n      sub\n        /* \"#utility.yul\":2635:2667   */\n      slt\n        /* \"#utility.yul\":2632:2751   */\n      iszero\n      tag_203\n      jumpi\n        /* \"#utility.yul\":2670:2749   */\n      tag_204\n      tag_144\n      jump\t// in\n    tag_204:\n        /* \"#utility.yul\":2632:2751   */\n    tag_203:\n        /* \"#utility.yul\":2790:2791   */\n      0x00\n        /* \"#utility.yul\":2815:2868   */\n      tag_205\n        /* \"#utility.yul\":2860:2867   */\n      dup6\n        /* \"#utility.yul\":2851:2857   */\n      dup3\n        /* \"#utility.yul\":2840:2849   */\n      dup7\n        /* \"#utility.yul\":2836:2858   */\n      add\n        /* \"#utility.yul\":2815:2868   */\n      tag_149\n      jump\t// in\n    tag_205:\n        /* \"#utility.yul\":2805:2868   */\n      swap3\n      pop\n        /* \"#utility.yul\":2761:2878   */\n      pop\n        /* \"#utility.yul\":2917:2919   */\n      0x20\n        /* \"#utility.yul\":2943:2996   */\n      tag_206\n        /* \"#utility.yul\":2988:2995   */\n      dup6\n        /* \"#utility.yul\":2979:2985   */\n      dup3\n        /* \"#utility.yul\":2968:2977   */\n      dup7\n        /* \"#utility.yul\":2964:2986   */\n      add\n        /* \"#utility.yul\":2943:2996   */\n      tag_152\n      jump\t// in\n    tag_206:\n        /* \"#utility.yul\":2933:2996   */\n      swap2\n      pop\n        /* \"#utility.yul\":2888:3006   */\n      pop\n        /* \"#utility.yul\":2539:3013   */\n      swap3\n      pop\n      swap3\n      swap1\n      pop\n      jump\t// out\n        /* \"#utility.yul\":3019:3109   */\n    tag_153:\n        /* \"#utility.yul\":3053:3060   */\n      0x00\n        /* \"#utility.yul\":3096:3101   */\n      dup2\n        /* \"#utility.yul\":3089:3102   */\n      iszero\n        /* \"#utility.yul\":3082:3103   */\n      iszero\n        /* \"#utility.yul\":3071:3103   */\n      swap1\n      pop\n        /* \"#utility.yul\":3019:3109   */\n      swap2\n      swap1\n      pop\n      jump\t// out\n        /* \"#utility.yul\":3115:3224   */\n    tag_154:\n        /* \"#utility.yul\":3196:3217   */\n      tag_209\n        /* \"#utility.yul\":3211:3216   */\n      dup2\n        /* \"#utility.yul\":3196:3217   */\n      tag_153\n      jump\t// in\n    tag_209:\n        /* \"#utility.yul\":3191:3194   */\n      dup3\n        /* \"#utility.yul\":3184:3218   */\n      mstore\n        /* \"#utility.yul\":3115:3224   */\n      pop\n      pop\n      jump\t// out\n        /* \"#utility.yul\":3230:3440   */\n    tag_29:\n        /* \"#utility.yul\":3317:3321   */\n      0x00\n        /* \"#utility.yul\":3355:3357   */\n      0x20\n        /* \"#utility.yul\":3344:3353   */\n      dup3\n        /* \"#utility.yul\":3340:3358   */\n      add\n        /* \"#utility.yul\":3332:3358   */\n      swap1\n      pop\n        /* \"#utility.yul\":3368:3433   */\n      tag_211\n        /* \"#utility.yul\":3430:3431   */\n      0x00\n        /* \"#utility.yul\":3419:3428   */\n      dup4\n        /* \"#utility.yul\":3415:3432   */\n      add\n        /* \"#utility.yul\":3406:3412   */\n      dup5\n        /* \"#utility.yul\":3368:3433   */\n      tag_154\n      jump\t// in\n    tag_211:\n        /* \"#utility.yul\":3230:3440   */\n      swap3\n      swap2\n      pop\n      pop\n      jump\t// out\n        /* \"#utility.yul\":3446:3564   */\n    tag_155:\n        /* \"#utility.yul\":3533:3557   */\n      tag_213\n        /* \"#utility.yul\":3551:3556   */\n      dup2\n        /* \"#utility.yul\":3533:3557   */\n      tag_150\n      jump\t// in\n    tag_213:\n        /* \"#utility.yul\":3528:3531   */\n      dup3\n        /* \"#utility.yul\":3521:3558   */\n      mstore\n        /* \"#utility.yul\":3446:3564   */\n      pop\n      pop\n      jump\t// out\n        /* \"#utility.yul\":3570:3792   */\n    tag_33:\n        /* \"#utility.yul\":3663:3667   */\n      0x00\n        /* \"#utility.yul\":3701:3703   */\n      0x20\n        /* \"#utility.yul\":3690:3699   */\n      dup3\n        /* \"#utility.yul\":3686:3704   */\n      add\n        /* \"#utility.yul\":3678:3704   */\n      swap1\n      pop\n        /* \"#utility.yul\":3714:3785   */\n      tag_215\n        /* \"#utility.yul\":3782:3783   */\n      0x00\n        /* \"#utility.yul\":3771:3780   */\n      dup4\n        /* \"#utility.yul\":3767:3784   */\n      add\n        /* \"#utility.yul\":3758:3764   */\n      dup5\n        /* \"#utility.yul\":3714:3785   */\n      tag_155\n      jump\t// in\n    tag_215:\n        /* \"#utility.yul\":3570:3792   */\n      swap3\n      swap2\n      pop\n      pop\n      jump\t// out\n        /* \"#utility.yul\":3798:4417   */\n    tag_36:\n        /* \"#utility.yul\":3875:3881   */\n      0x00\n        /* \"#utility.yul\":3883:3889   */\n      dup1\n        /* \"#utility.yul\":3891:3897   */\n      0x00\n        /* \"#utility.yul\":3940:3942   */\n      0x60\n        /* \"#utility.yul\":3928:3937   */\n      dup5\n        /* \"#utility.yul\":3919:3926   */\n      dup7\n        /* \"#utility.yul\":3915:3938   */\n      sub\n        /* \"#utility.yul\":3911:3943   */\n      slt\n        /* \"#utility.yul\":3908:4027   */\n      iszero\n      tag_217\n      jumpi\n        /* \"#utility.yul\":3946:4025   */\n      tag_218\n      tag_144\n      jump\t// in\n    tag_218:\n        /* \"#utility.yul\":3908:4027   */\n    tag_217:\n        /* \"#utility.yul\":4066:4067   */\n      0x00\n        /* \"#utility.yul\":4091:4144   */\n      tag_219\n        /* \"#utility.yul\":4136:4143   */\n      dup7\n        /* \"#utility.yul\":4127:4133   */\n      dup3\n        /* \"#utility.yul\":4116:4125   */\n      dup8\n        /* \"#utility.yul\":4112:4134   */\n      add\n        /* \"#utility.yul\":4091:4144   */\n      tag_149\n      jump\t// in\n    tag_219:\n        /* \"#utility.yul\":4081:4144   */\n      swap4\n      pop\n        /* \"#utility.yul\":4037:4154   */\n      pop\n        /* \"#utility.yul\":4193:4195   */\n      0x20\n        /* \"#utility.yul\":4219:4272   */\n      tag_220\n        /* \"#utility.yul\":4264:4271   */\n      dup7\n        /* \"#utility.yul\":4255:4261   */\n      dup3\n        /* \"#utility.yul\":4244:4253   */\n      dup8\n        /* \"#utility.yul\":4240:4262   */\n      add\n        /* \"#utility.yul\":4219:4272   */\n      tag_149\n      jump\t// in\n    tag_220:\n        /* \"#utility.yul\":4209:4272   */\n      swap3\n      pop\n        /* \"#utility.yul\":4164:4282   */\n      pop\n        /* \"#utility.yul\":4321:4323   */\n      0x40\n        /* \"#utility.yul\":4347:4400   */\n      tag_221\n        /* \"#utility.yul\":4392:4399   */\n      dup7\n        /* \"#utility.yul\":4383:4389   */\n      dup3\n        /* \"#utility.yul\":4372:4381   */\n      dup8\n        /* \"#utility.yul\":4368:4390   */\n      add\n        /* \"#utility.yul\":4347:4400   */\n      tag_152\n      jump\t// in\n    tag_221:\n        /* \"#utility.yul\":4337:4400   */\n      swap2\n      pop\n        /* \"#utility.yul\":4292:4410   */\n      pop\n        /* \"#utility.yul\":3798:4417   */\n      swap3\n      pop\n      swap3\n      pop\n      swap3\n      jump\t// out\n        /* \"#utility.yul\":4423:4509   */\n    tag_156:\n        /* \"#utility.yul\":4458:4465   */\n      0x00\n        /* \"#utility.yul\":4498:4502   */\n      0xff\n        /* \"#utility.yul\":4491:4496   */\n      dup3\n        /* \"#utility.yul\":4487:4503   */\n      and\n        /* \"#utility.yul\":4476:4503   */\n      swap1\n      pop\n        /* \"#utility.yul\":4423:4509   */\n      swap2\n      swap1\n      pop\n      jump\t// out\n        /* \"#utility.yul\":4515:4627   */\n    tag_157:\n        /* \"#utility.yul\":4598:4620   */\n      tag_224\n        /* \"#utility.yul\":4614:4619   */\n      dup2\n        /* \"#utility.yul\":4598:4620   */\n      tag_156\n      jump\t// in\n    tag_224:\n        /* \"#utility.yul\":4593:4596   */\n      dup3\n        /* \"#utility.yul\":4586:4621   */\n      mstore\n        /* \"#utility.yul\":4515:4627   */\n      pop\n      pop\n      jump\t// out\n        /* \"#utility.yul\":4633:4847   */\n    tag_42:\n        /* \"#utility.yul\":4722:4726   */\n      0x00\n        /* \"#utility.yul\":4760:4762   */\n      0x20\n        /* \"#utility.yul\":4749:4758   */\n      dup3\n        /* \"#utility.yul\":4745:4763   */\n      add\n        /* \"#utility.yul\":4737:4763   */\n      swap1\n      pop\n        /* \"#utility.yul\":4773:4840   */\n      tag_226\n        /* \"#utility.yul\":4837:4838   */\n      0x00\n        /* \"#utility.yul\":4826:4835   */\n      dup4\n        /* \"#utility.yul\":4822:4839   */\n      add\n        /* \"#utility.yul\":4813:4819   */\n      dup5\n        /* \"#utility.yul\":4773:4840   */\n      tag_157\n      jump\t// in\n    tag_226:\n        /* \"#utility.yul\":4633:4847   */\n      swap3\n      swap2\n      pop\n      pop\n      jump\t// out\n        /* \"#utility.yul\":4853:5182   */\n    tag_52:\n        /* \"#utility.yul\":4912:4918   */\n      0x00\n        /* \"#utility.yul\":4961:4963   */\n      0x20\n        /* \"#utility.yul\":4949:4958   */\n      dup3\n        /* \"#utility.yul\":4940:4947   */\n      dup5\n        /* \"#utility.yul\":4936:4959   */\n      sub\n        /* \"#utility.yul\":4932:4964   */\n      slt\n        /* \"#utility.yul\":4929:5048   */\n      iszero\n      tag_228\n      jumpi\n        /* \"#utility.yul\":4967:5046   */\n      tag_229\n      tag_144\n      jump\t// in\n    tag_229:\n        /* \"#utility.yul\":4929:5048   */\n    tag_228:\n        /* \"#utility.yul\":5087:5088   */\n      0x00\n        /* \"#utility.yul\":5112:5165   */\n      tag_230\n        /* \"#utility.yul\":5157:5164   */\n      dup5\n        /* \"#utility.yul\":5148:5154   */\n      dup3\n        /* \"#utility.yul\":5137:5146   */\n      dup6\n        /* \"#utility.yul\":5133:5155   */\n      add\n        /* \"#utility.yul\":5112:5165   */\n      tag_149\n      jump\t// in\n    tag_230:\n        /* \"#utility.yul\":5102:5165   */\n      swap2\n      pop\n        /* \"#utility.yul\":5058:5175   */\n      pop\n        /* \"#utility.yul\":4853:5182   */\n      swap3\n      swap2\n      pop\n      pop\n      jump\t// out\n        /* \"#utility.yul\":5188:5517   */\n    tag_72:\n        /* \"#utility.yul\":5247:5253   */\n      0x00\n        /* \"#utility.yul\":5296:5298   */\n      0x20\n        /* \"#utility.yul\":5284:5293   */\n      dup3\n        /* \"#utility.yul\":5275:5282   */\n      dup5\n        /* \"#utility.yul\":5271:5294   */\n      sub\n        /* \"#utility.yul\":5267:5299   */\n      slt\n        /* \"#utility.yul\":5264:5383   */\n      iszero\n      tag_232\n      jumpi\n        /* \"#utility.yul\":5302:5381   */\n      tag_233\n      tag_144\n      jump\t// in\n    tag_233:\n        /* \"#utility.yul\":5264:5383   */\n    tag_232:\n        /* \"#utility.yul\":5422:5423   */\n      0x00\n        /* \"#utility.yul\":5447:5500   */\n      tag_234\n        /* \"#utility.yul\":5492:5499   */\n      dup5\n        /* \"#utility.yul\":5483:5489   */\n      dup3\n        /* \"#utility.yul\":5472:5481   */\n      dup6\n        /* \"#utility.yul\":5468:5490   */\n      add\n        /* \"#utility.yul\":5447:5500   */\n      tag_152\n      jump\t// in\n    tag_234:\n        /* \"#utility.yul\":5437:5500   */\n      swap2\n      pop\n        /* \"#utility.yul\":5393:5510   */\n      pop\n        /* \"#utility.yul\":5188:5517   */\n      swap3\n      swap2\n      pop\n      pop\n      jump\t// out\n        /* \"#utility.yul\":5523:5997   */\n    tag_77:\n        /* \"#utility.yul\":5591:5597   */\n      0x00\n        /* \"#utility.yul\":5599:5605   */\n      dup1\n        /* \"#utility.yul\":5648:5650   */\n      0x40\n        /* \"#utility.yul\":5636:5645   */\n      dup4\n        /* \"#utility.yul\":5627:5634   */\n      dup6\n        /* \"#utility.yul\":5623:5646   */\n      sub\n        /* \"#utility.yul\":5619:5651   */\n      slt\n        /* \"#utility.yul\":5616:5735   */\n      iszero\n      tag_236\n      jumpi\n        /* \"#utility.yul\":5654:5733   */\n      tag_237\n      tag_144\n      jump\t// in\n    tag_237:\n        /* \"#utility.yul\":5616:5735   */\n    tag_236:\n        /* \"#utility.yul\":5774:5775   */\n      0x00\n        /* \"#utility.yul\":5799:5852   */\n      tag_238\n        /* \"#utility.yul\":5844:5851   */\n      dup6\n        /* \"#utility.yul\":5835:5841   */\n      dup3\n        /* \"#utility.yul\":5824:5833   */\n      dup7\n        /* \"#utility.yul\":5820:5842   */\n      add\n        /* \"#utility.yul\":5799:5852   */\n      tag_149\n      jump\t// in\n    tag_238:\n        /* \"#utility.yul\":5789:5852   */\n      swap3\n      pop\n        /* \"#utility.yul\":5745:5862   */\n      pop\n        /* \"#utility.yul\":5901:5903   */\n      0x20\n        /* \"#utility.yul\":5927:5980   */\n      tag_239\n        /* \"#utility.yul\":5972:5979   */\n      dup6\n        /* \"#utility.yul\":5963:5969   */\n      dup3\n        /* \"#utility.yul\":5952:5961   */\n      dup7\n        /* \"#utility.yul\":5948:5970   */\n      add\n        /* \"#utility.yul\":5927:5980   */\n      tag_149\n      jump\t// in\n    tag_239:\n        /* \"#utility.yul\":5917:5980   */\n      swap2\n      pop\n        /* \"#utility.yul\":5872:5990   */\n      pop\n        /* \"#utility.yul\":5523:5997   */\n      swap3\n      pop\n      swap3\n      swap1\n      pop\n      jump\t// out\n        /* \"#utility.yul\":6003:6183   */\n    tag_158:\n        /* \"#utility.yul\":6051:6128   */\n      0x4e487b7100000000000000000000000000000000000000000000000000000000\n        /* \"#utility.yul\":6048:6049   */\n      0x00\n        /* \"#utility.yul\":6041:6129   */\n      mstore\n        /* \"#utility.yul\":6148:6152   */\n      0x12\n        /* \"#utility.yul\":6145:6146   */\n      0x04\n        /* \"#utility.yul\":6138:6153   */\n      mstore\n        /* \"#utility.yul\":6172:6176   */\n      0x24\n        /* \"#utility.yul\":6169:6170   */\n      0x00\n        /* \"#utility.yul\":6162:6177   */\n      revert\n        /* \"#utility.yul\":6189:6369   */\n    tag_159:\n        /* \"#utility.yul\":6237:6314   */\n      0x4e487b7100000000000000000000000000000000000000000000000000000000\n        /* \"#utility.yul\":6234:6235   */\n      0x00\n        /* \"#utility.yul\":6227:6315   */\n      mstore\n        /* \"#utility.yul\":6334:6338   */\n      0x11\n        /* \"#utility.yul\":6331:6332   */\n      0x04\n        /* \"#utility.yul\":6324:6339   */\n      mstore\n        /* \"#utility.yul\":6358:6362   */\n      0x24\n        /* \"#utility.yul\":6355:6356   */\n      0x00\n        /* \"#utility.yul\":6348:6363   */\n      revert\n        /* \"#utility.yul\":6375:6560   */\n    tag_100:\n        /* \"#utility.yul\":6415:6416   */\n      0x00\n        /* \"#utility.yul\":6432:6452   */\n      tag_243\n        /* \"#utility.yul\":6450:6451   */\n      dup3\n        /* \"#utility.yul\":6432:6452   */\n      tag_150\n      jump\t// in\n    tag_243:\n        /* \"#utility.yul\":6427:6452   */\n      swap2\n      pop\n        /* \"#utility.yul\":6466:6486   */\n      tag_244\n        /* \"#utility.yul\":6484:6485   */\n      dup4\n        /* \"#utility.yul\":6466:6486   */\n      tag_150\n      jump\t// in\n    tag_244:\n        /* \"#utility.yul\":6461:6486   */\n      swap3\n      pop\n        /* \"#utility.yul\":6505:6506   */\n      dup3\n        /* \"#utility.yul\":6495:6530   */\n      tag_245\n      jumpi\n        /* \"#utility.yul\":6510:6528   */\n      tag_246\n      tag_158\n      jump\t// in\n    tag_246:\n        /* \"#utility.yul\":6495:6530   */\n    tag_245:\n        /* \"#utility.yul\":6552:6553   */\n      dup3\n        /* \"#utility.yul\":6549:6550   */\n      dup3\n        /* \"#utility.yul\":6545:6554   */\n      div\n        /* \"#utility.yul\":6540:6554   */\n      swap1\n      pop\n        /* \"#utility.yul\":6375:6560   */\n      swap3\n      swap2\n      pop\n      pop\n      jump\t// out\n        /* \"#utility.yul\":6566:6645   */\n    tag_160:\n        /* \"#utility.yul\":6605:6612   */\n      0x00\n        /* \"#utility.yul\":6634:6639   */\n      dup2\n        /* \"#utility.yul\":6623:6639   */\n      swap1\n      pop\n        /* \"#utility.yul\":6566:6645   */\n      swap2\n      swap1\n      pop\n      jump\t// out\n        /* \"#utility.yul\":6651:6808   */\n    tag_161:\n        /* \"#utility.yul\":6756:6801   */\n      tag_249\n        /* \"#utility.yul\":6776:6800   */\n      tag_250\n        /* \"#utility.yul\":6794:6799   */\n      dup3\n        /* \"#utility.yul\":6776:6800   */\n      tag_150\n      jump\t// in\n    tag_250:\n        /* \"#utility.yul\":6756:6801   */\n      tag_160\n      jump\t// in\n    tag_249:\n        /* \"#utility.yul\":6751:6754   */\n      dup3\n        /* \"#utility.yul\":6744:6802   */\n      mstore\n        /* \"#utility.yul\":6651:6808   */\n      pop\n      pop\n      jump\t// out\n        /* \"#utility.yul\":6814:6908   */\n    tag_162:\n        /* \"#utility.yul\":6847:6855   */\n      0x00\n        /* \"#utility.yul\":6895:6900   */\n      dup2\n        /* \"#utility.yul\":6891:6893   */\n      0x60\n        /* \"#utility.yul\":6887:6901   */\n      shl\n        /* \"#utility.yul\":6866:6901   */\n      swap1\n      pop\n        /* \"#utility.yul\":6814:6908   */\n      swap2\n      swap1\n      pop\n      jump\t// out\n        /* \"#utility.yul\":6914:7008   */\n    tag_163:\n        /* \"#utility.yul\":6953:6960   */\n      0x00\n        /* \"#utility.yul\":6982:7002   */\n      tag_253\n        /* \"#utility.yul\":6996:7001   */\n      dup3\n        /* \"#utility.yul\":6982:7002   */\n      tag_162\n      jump\t// in\n    tag_253:\n        /* \"#utility.yul\":6971:7002   */\n      swap1\n      pop\n        /* \"#utility.yul\":6914:7008   */\n      swap2\n      swap1\n      pop\n      jump\t// out\n        /* \"#utility.yul\":7014:7114   */\n    tag_164:\n        /* \"#utility.yul\":7053:7060   */\n      0x00\n        /* \"#utility.yul\":7082:7108   */\n      tag_255\n        /* \"#utility.yul\":7102:7107   */\n      dup3\n        /* \"#utility.yul\":7082:7108   */\n      tag_163\n      jump\t// in\n    tag_255:\n        /* \"#utility.yul\":7071:7108   */\n      swap1\n      pop\n        /* \"#utility.yul\":7014:7114   */\n      swap2\n      swap1\n      pop\n      jump\t// out\n        /* \"#utility.yul\":7120:7277   */\n    tag_165:\n        /* \"#utility.yul\":7225:7270   */\n      tag_257\n        /* \"#utility.yul\":7245:7269   */\n      tag_258\n        /* \"#utility.yul\":7263:7268   */\n      dup3\n        /* \"#utility.yul\":7245:7269   */\n      tag_147\n      jump\t// in\n    tag_258:\n        /* \"#utility.yul\":7225:7270   */\n      tag_164\n      jump\t// in\n    tag_257:\n        /* \"#utility.yul\":7220:7223   */\n      dup3\n        /* \"#utility.yul\":7213:7271   */\n      mstore\n        /* \"#utility.yul\":7120:7277   */\n      pop\n      pop\n      jump\t// out\n        /* \"#utility.yul\":7283:7821   */\n    tag_118:\n        /* \"#utility.yul\":7451:7454   */\n      0x00\n        /* \"#utility.yul\":7466:7541   */\n      tag_260\n        /* \"#utility.yul\":7537:7540   */\n      dup3\n        /* \"#utility.yul\":7528:7534   */\n      dup7\n        /* \"#utility.yul\":7466:7541   */\n      tag_161\n      jump\t// in\n    tag_260:\n        /* \"#utility.yul\":7566:7568   */\n      0x20\n        /* \"#utility.yul\":7561:7564   */\n      dup3\n        /* \"#utility.yul\":7557:7569   */\n      add\n        /* \"#utility.yul\":7550:7569   */\n      swap2\n      pop\n        /* \"#utility.yul\":7579:7654   */\n      tag_261\n        /* \"#utility.yul\":7650:7653   */\n      dup3\n        /* \"#utility.yul\":7641:7647   */\n      dup6\n        /* \"#utility.yul\":7579:7654   */\n      tag_161\n      jump\t// in\n    tag_261:\n        /* \"#utility.yul\":7679:7681   */\n      0x20\n        /* \"#utility.yul\":7674:7677   */\n      dup3\n        /* \"#utility.yul\":7670:7682   */\n      add\n        /* \"#utility.yul\":7663:7682   */\n      swap2\n      pop\n        /* \"#utility.yul\":7692:7767   */\n      tag_262\n        /* \"#utility.yul\":7763:7766   */\n      dup3\n        /* \"#utility.yul\":7754:7760   */\n      dup5\n        /* \"#utility.yul\":7692:7767   */\n      tag_165\n      jump\t// in\n    tag_262:\n        /* \"#utility.yul\":7792:7794   */\n      0x14\n        /* \"#utility.yul\":7787:7790   */\n      dup3\n        /* \"#utility.yul\":7783:7795   */\n      add\n        /* \"#utility.yul\":7776:7795   */\n      swap2\n      pop\n        /* \"#utility.yul\":7812:7815   */\n      dup2\n        /* \"#utility.yul\":7805:7815   */\n      swap1\n      pop\n        /* \"#utility.yul\":7283:7821   */\n      swap5\n      swap4\n      pop\n      pop\n      pop\n      pop\n      jump\t// out\n        /* \"#utility.yul\":7827:8003   */\n    tag_120:\n        /* \"#utility.yul\":7859:7860   */\n      0x00\n        /* \"#utility.yul\":7876:7896   */\n      tag_264\n        /* \"#utility.yul\":7894:7895   */\n      dup3\n        /* \"#utility.yul\":7876:7896   */\n      tag_150\n      jump\t// in\n    tag_264:\n        /* \"#utility.yul\":7871:7896   */\n      swap2\n      pop\n        /* \"#utility.yul\":7910:7930   */\n      tag_265\n        /* \"#utility.yul\":7928:7929   */\n      dup4\n        /* \"#utility.yul\":7910:7930   */\n      tag_150\n      jump\t// in\n    tag_265:\n        /* \"#utility.yul\":7905:7930   */\n      swap3\n      pop\n        /* \"#utility.yul\":7949:7950   */\n      dup3\n        /* \"#utility.yul\":7939:7974   */\n      tag_266\n      jumpi\n        /* \"#utility.yul\":7954:7972   */\n      tag_267\n      tag_158\n      jump\t// in\n    tag_267:\n        /* \"#utility.yul\":7939:7974   */\n    tag_266:\n        /* \"#utility.yul\":7995:7996   */\n      dup3\n        /* \"#utility.yul\":7992:7993   */\n      dup3\n        /* \"#utility.yul\":7988:7997   */\n      mod\n        /* \"#utility.yul\":7983:7997   */\n      swap1\n      pop\n        /* \"#utility.yul\":7827:8003   */\n      swap3\n      swap2\n      pop\n      pop\n      jump\t// out\n        /* \"#utility.yul\":8009:8203   */\n    tag_124:\n        /* \"#utility.yul\":8049:8053   */\n      0x00\n        /* \"#utility.yul\":8069:8089   */\n      tag_269\n        /* \"#utility.yul\":8087:8088   */\n      dup3\n        /* \"#utility.yul\":8069:8089   */\n      tag_150\n      jump\t// in\n    tag_269:\n        /* \"#utility.yul\":8064:8089   */\n      swap2\n      pop\n        /* \"#utility.yul\":8103:8123   */\n      tag_270\n        /* \"#utility.yul\":8121:8122   */\n      dup4\n        /* \"#utility.yul\":8103:8123   */\n      tag_150\n      jump\t// in\n    tag_270:\n        /* \"#utility.yul\":8098:8123   */\n      swap3\n      pop\n        /* \"#utility.yul\":8147:8148   */\n      dup3\n        /* \"#utility.yul\":8144:8145   */\n      dup3\n        /* \"#utility.yul\":8140:8149   */\n      sub\n        /* \"#utility.yul\":8132:8149   */\n      swap1\n      pop\n        /* \"#utility.yul\":8171:8172   */\n      dup2\n        /* \"#utility.yul\":8165:8169   */\n      dup2\n        /* \"#utility.yul\":8162:8173   */\n      gt\n        /* \"#utility.yul\":8159:8196   */\n      iszero\n      tag_271\n      jumpi\n        /* \"#utility.yul\":8176:8194   */\n      tag_272\n      tag_159\n      jump\t// in\n    tag_272:\n        /* \"#utility.yul\":8159:8196   */\n    tag_271:\n        /* \"#utility.yul\":8009:8203   */\n      swap3\n      swap2\n      pop\n      pop\n      jump\t// out\n        /* \"#utility.yul\":8209:8380   */\n    tag_166:\n        /* \"#utility.yul\":8349:8372   */\n      0x64732d6d6174682d7375622d756e646572666c6f770000000000000000000000\n        /* \"#utility.yul\":8345:8346   */\n      0x00\n        /* \"#utility.yul\":8337:8343   */\n      dup3\n        /* \"#utility.yul\":8333:8347   */\n      add\n        /* \"#utility.yul\":8326:8373   */\n      mstore\n        /* \"#utility.yul\":8209:8380   */\n      pop\n      jump\t// out\n        /* \"#utility.yul\":8386:8752   */\n    tag_167:\n        /* \"#utility.yul\":8528:8531   */\n      0x00\n        /* \"#utility.yul\":8549:8616   */\n      tag_275\n        /* \"#utility.yul\":8613:8615   */\n      0x15\n        /* \"#utility.yul\":8608:8611   */\n      dup4\n        /* \"#utility.yul\":8549:8616   */\n      tag_139\n      jump\t// in\n    tag_275:\n        /* \"#utility.yul\":8542:8616   */\n      swap2\n      pop\n        /* \"#utility.yul\":8625:8718   */\n      tag_276\n        /* \"#utility.yul\":8714:8717   */\n      dup3\n        /* \"#utility.yul\":8625:8718   */\n      tag_166\n      jump\t// in\n    tag_276:\n        /* \"#utility.yul\":8743:8745   */\n      0x20\n        /* \"#utility.yul\":8738:8741   */\n      dup3\n        /* \"#utility.yul\":8734:8746   */\n      add\n        /* \"#utility.yul\":8727:8746   */\n      swap1\n      pop\n        /* \"#utility.yul\":8386:8752   */\n      swap2\n      swap1\n      pop\n      jump\t// out\n        /* \"#utility.yul\":8758:9177   */\n    tag_127:\n        /* \"#utility.yul\":8924:8928   */\n      0x00\n        /* \"#utility.yul\":8962:8964   */\n      0x20\n        /* \"#utility.yul\":8951:8960   */\n      dup3\n        /* \"#utility.yul\":8947:8965   */\n      add\n        /* \"#utility.yul\":8939:8965   */\n      swap1\n      pop\n        /* \"#utility.yul\":9011:9020   */\n      dup2\n        /* \"#utility.yul\":9005:9009   */\n      dup2\n        /* \"#utility.yul\":9001:9021   */\n      sub\n        /* \"#utility.yul\":8997:8998   */\n      0x00\n        /* \"#utility.yul\":8986:8995   */\n      dup4\n        /* \"#utility.yul\":8982:8999   */\n      add\n        /* \"#utility.yul\":8975:9022   */\n      mstore\n        /* \"#utility.yul\":9039:9170   */\n      tag_278\n        /* \"#utility.yul\":9165:9169   */\n      dup2\n        /* \"#utility.yul\":9039:9170   */\n      tag_167\n      jump\t// in\n    tag_278:\n        /* \"#utility.yul\":9031:9170   */\n      swap1\n      pop\n        /* \"#utility.yul\":8758:9177   */\n      swap2\n      swap1\n      pop\n      jump\t// out\n        /* \"#utility.yul\":9183:9374   */\n    tag_134:\n        /* \"#utility.yul\":9223:9226   */\n      0x00\n        /* \"#utility.yul\":9242:9262   */\n      tag_280\n        /* \"#utility.yul\":9260:9261   */\n      dup3\n        /* \"#utility.yul\":9242:9262   */\n      tag_150\n      jump\t// in\n    tag_280:\n        /* \"#utility.yul\":9237:9262   */\n      swap2\n      pop\n        /* \"#utility.yul\":9276:9296   */\n      tag_281\n        /* \"#utility.yul\":9294:9295   */\n      dup4\n        /* \"#utility.yul\":9276:9296   */\n      tag_150\n      jump\t// in\n    tag_281:\n        /* \"#utility.yul\":9271:9296   */\n      swap3\n      pop\n        /* \"#utility.yul\":9319:9320   */\n      dup3\n        /* \"#utility.yul\":9316:9317   */\n      dup3\n        /* \"#utility.yul\":9312:9321   */\n      add\n        /* \"#utility.yul\":9305:9321   */\n      swap1\n      pop\n        /* \"#utility.yul\":9340:9343   */\n      dup1\n        /* \"#utility.yul\":9337:9338   */\n      dup3\n        /* \"#utility.yul\":9334:9344   */\n      gt\n        /* \"#utility.yul\":9331:9367   */\n      iszero\n      tag_282\n      jumpi\n        /* \"#utility.yul\":9347:9365   */\n      tag_283\n      tag_159\n      jump\t// in\n    tag_283:\n        /* \"#utility.yul\":9331:9367   */\n    tag_282:\n        /* \"#utility.yul\":9183:9374   */\n      swap3\n      swap2\n      pop\n      pop\n      jump\t// out\n        /* \"#utility.yul\":9380:9550   */\n    tag_168:\n        /* \"#utility.yul\":9520:9542   */\n      0x64732d6d6174682d6164642d6f766572666c6f77000000000000000000000000\n        /* \"#utility.yul\":9516:9517   */\n      0x00\n        /* \"#utility.yul\":9508:9514   */\n      dup3\n        /* \"#utility.yul\":9504:9518   */\n      add\n        /* \"#utility.yul\":9497:9543   */\n      mstore\n        /* \"#utility.yul\":9380:9550   */\n      pop\n      jump\t// out\n        /* \"#utility.yul\":9556:9922   */\n    tag_169:\n        /* \"#utility.yul\":9698:9701   */\n      0x00\n        /* \"#utility.yul\":9719:9786   */\n      tag_286\n        /* \"#utility.yul\":9783:9785   */\n      0x14\n        /* \"#utility.yul\":9778:9781   */\n      dup4\n        /* \"#utility.yul\":9719:9786   */\n      tag_139\n      jump\t// in\n    tag_286:\n        /* \"#utility.yul\":9712:9786   */\n      swap2\n      pop\n        /* \"#utility.yul\":9795:9888   */\n      tag_287\n        /* \"#utility.yul\":9884:9887   */\n      dup3\n        /* \"#utility.yul\":9795:9888   */\n      tag_168\n      jump\t// in\n    tag_287:\n        /* \"#utility.yul\":9913:9915   */\n      0x20\n        /* \"#utility.yul\":9908:9911   */\n      dup3\n        /* \"#utility.yul\":9904:9916   */\n      add\n        /* \"#utility.yul\":9897:9916   */\n      swap1\n      pop\n        /* \"#utility.yul\":9556:9922   */\n      swap2\n      swap1\n      pop\n      jump\t// out\n        /* \"#utility.yul\":9928:10347   */\n    tag_137:\n        /* \"#utility.yul\":10094:10098   */\n      0x00\n        /* \"#utility.yul\":10132:10134   */\n      0x20\n        /* \"#utility.yul\":10121:10130   */\n      dup3\n        /* \"#utility.yul\":10117:10135   */\n      add\n        /* \"#utility.yul\":10109:10135   */\n      swap1\n      pop\n        /* \"#utility.yul\":10181:10190   */\n      dup2\n        /* \"#utility.yul\":10175:10179   */\n      dup2\n        /* \"#utility.yul\":10171:10191   */\n      sub\n        /* \"#utility.yul\":10167:10168   */\n      0x00\n        /* \"#utility.yul\":10156:10165   */\n      dup4\n        /* \"#utility.yul\":10152:10169   */\n      add\n        /* \"#utility.yul\":10145:10192   */\n      mstore\n        /* \"#utility.yul\":10209:10340   */\n      tag_289\n        /* \"#utility.yul\":10335:10339   */\n      dup2\n        /* \"#utility.yul\":10209:10340   */\n      tag_169\n      jump\t// in\n    tag_289:\n        /* \"#utility.yul\":10201:10340   */\n      swap1\n      pop\n        /* \"#utility.yul\":9928:10347   */\n      swap2\n      swap1\n      pop\n      jump\t// out\n    stop\n    data_0b07e07956ec390ff7e72b1318405d97a05ab399943979f0e46f84161ae1e06a 596f75206861766520756e6c6f636b65642074686520736563726574206d6573736167652e205468652073656372657420746f2068617070696e6573732061726520626972642073656564732e\n    data_9749efeed3898c6a062d2fac77fae7115bad1871e3d2cce4d4db2fd793d43db4 4e6f7420656e6f75676820746f6b656e7320746f206a6f696e2074686520636c75622c20736f72727921\n    data_b39fbabf8f10a50327a4eb932b84c5c186c5755bdee31bc8391da501bbc3fb9d 53686172696e67206d65616e7320636172696e672e20596f7520646964206e6f742077616e7420746f2073686172652c20736f20776520617265206e6f772073656e64696e6720612072616e646f6d20616d6f756e74206f6620746f6b656e7320746f20746865206f74686572206163636f756e742e20596f7520616c736f2077696c6c206e6f74207365652074686520536563726574204d6573736167652e20426f6f2e\n\n    auxdata: 0xa26469706673582212203645e7c3222b60cde3b1dc565be722db3bec6e384b313c961639b5a05e2de8a264736f6c63430008130033\n}\n",
				"bytecode": {
					"linkReferences": {},
					"object": "608060405234801561001057600080fd5b5064e8d4a510006000803373ffffffffffffffffffffffffffffffffffffffff1673ffffffffffffffffffffffffffffffffffffffff168152602001908152602001600020819055503373ffffffffffffffffffffffffffffffffffffffff16600073ffffffffffffffffffffffffffffffffffffffff167fddf252ad1be2c89b69c2b068fc378daa952ba7f163c4a11628f55a4df523b3ef64e8d4a510006040516100bc91906100e2565b60405180910390a36100fd565b6000819050919050565b6100dc816100c9565b82525050565b60006020820190506100f760008301846100d3565b92915050565b6118ec8061010c6000396000f3fe608060405234801561001057600080fd5b50600436106100ea5760003560e01c806370a082311161008c578063a457c2d711610066578063a457c2d714610275578063a9059cbb146102a5578063acdda499146102d5578063dd62ed3e14610305576100ea565b806370a08231146101f757806395d89b41146102275780639ddefa1b14610245576100ea565b806323b872dd116100c857806323b872dd1461015b578063313ce5671461018b57806339509351146101a95780633eaaf86b146101d9576100ea565b806306fdde03146100ef578063095ea7b31461010d57806318160ddd1461013d575b600080fd5b6100f7610335565b6040516101049190611275565b60405180910390f35b61012760048036038101906101229190611330565b61036e565b604051610134919061138b565b60405180910390f35b610145610498565b60405161015291906113b5565b60405180910390f35b610175600480360381019061017091906113d0565b6104a5565b604051610182919061138b565b60405180910390f35b6101936106d9565b6040516101a0919061143f565b60405180910390f35b6101c360048036038101906101be9190611330565b6106de565b6040516101d0919061138b565b60405180910390f35b6101e1610912565b6040516101ee91906113b5565b60405180910390f35b610211600480360381019061020c919061145a565b61091b565b60405161021e91906113b5565b60405180910390f35b61022f610963565b60405161023c9190611275565b60405180910390f35b61025f600480360381019061025a91906113d0565b61099c565b60405161026c9190611275565b60405180910390f35b61028f600480360381019061028a9190611330565b610a8b565b60405161029c919061138b565b60405180910390f35b6102bf60048036038101906102ba9190611330565b610cbf565b6040516102cc919061138b565b60405180910390f35b6102ef60048036038101906102ea9190611487565b610eda565b6040516102fc91906113b5565b60405180910390f35b61031f600480360381019061031a91906114b4565b610f1c565b60405161032c91906113b5565b60405180910390f35b6040518060400160405280600b81526020017f427564677920546f6b656e00000000000000000000000000000000000000000081525081565b60008073ffffffffffffffffffffffffffffffffffffffff168373ffffffffffffffffffffffffffffffffffffffff16036103a857600080fd5b81600160003373ffffffffffffffffffffffffffffffffffffffff1673ffffffffffffffffffffffffffffffffffffffff16815260200190815260200160002060008573ffffffffffffffffffffffffffffffffffffffff1673ffffffffffffffffffffffffffffffffffffffff168152602001908152602001600020819055508273ffffffffffffffffffffffffffffffffffffffff163373ffffffffffffffffffffffffffffffffffffffff167f8c5be1e5ebec7d5bd14f71427d1e84f3dd0314c0f7b2291e5b200ac8c7c3b9258460405161048691906113b5565b60405180910390a36001905092915050565b600064e8d4a51000905090565b60008060008573ffffffffffffffffffffffffffffffffffffffff1673ffffffffffffffffffffffffffffffffffffffff168152602001908152602001600020548211156104f257600080fd5b600160008573ffffffffffffffffffffffffffffffffffffffff1673ffffffffffffffffffffffffffffffffffffffff16815260200190815260200160002060003373ffffffffffffffffffffffffffffffffffffffff1673ffffffffffffffffffffffffffffffffffffffff1681526020019081526020016000205482111561057b57600080fd5b600073ffffffffffffffffffffffffffffffffffffffff168373ffffffffffffffffffffffffffffffffffffffff16036105b457600080fd5b61064382600160008773ffffffffffffffffffffffffffffffffffffffff1673ffffffffffffffffffffffffffffffffffffffff16815260200190815260200160002060003373ffffffffffffffffffffffffffffffffffffffff1673ffffffffffffffffffffffffffffffffffffffff16815260200190815260200160002054610fa390919063ffffffff16565b600160008673ffffffffffffffffffffffffffffffffffffffff1673ffffffffffffffffffffffffffffffffffffffff16815260200190815260200160002060003373ffffffffffffffffffffffffffffffffffffffff1673ffffffffffffffffffffffffffffffffffffffff168152602001908152602001600020819055506106ce848484610ffc565b600190509392505050565b600a81565b60008073ffffffffffffffffffffffffffffffffffffffff168373ffffffffffffffffffffffffffffffffffffffff160361071857600080fd5b6107a782600160003373ffffffffffffffffffffffffffffffffffffffff1673ffffffffffffffffffffffffffffffffffffffff16815260200190815260200160002060008673ffffffffffffffffffffffffffffffffffffffff1673ffffffffffffffffffffffffffffffffffffffff1681526020019081526020016000205461118c90919063ffffffff16565b600160003373ffffffffffffffffffffffffffffffffffffffff1673ffffffffffffffffffffffffffffffffffffffff16815260200190815260200160002060008573ffffffffffffffffffffffffffffffffffffffff1673ffffffffffffffffffffffffffffffffffffffff168152602001908152602001600020819055508273ffffffffffffffffffffffffffffffffffffffff163373ffffffffffffffffffffffffffffffffffffffff167f8c5be1e5ebec7d5bd14f71427d1e84f3dd0314c0f7b2291e5b200ac8c7c3b925600160003373ffffffffffffffffffffffffffffffffffffffff1673ffffffffffffffffffffffffffffffffffffffff16815260200190815260200160002060008773ffffffffffffffffffffffffffffffffffffffff1673ffffffffffffffffffffffffffffffffffffffff1681526020019081526020016000205460405161090091906113b5565b60405180910390a36001905092915050565b64e8d4a5100081565b60008060008373ffffffffffffffffffffffffffffffffffffffff1673ffffffffffffffffffffffffffffffffffffffff168152602001908152602001600020549050919050565b6040518060400160405280600481526020017f424447590000000000000000000000000000000000000000000000000000000081525081565b606060008060008673ffffffffffffffffffffffffffffffffffffffff1673ffffffffffffffffffffffffffffffffffffffff168152602001908152602001600020549050600264e8d4a510006109f39190611552565b811115610a675760008303610a3a57610a0b81610eda565b9250610a188585856104a5565b506040518060e0016040528060a5815260200161181260a59139915050610a84565b610a458585856104a5565b506040518060800160405280604d815260200161179b604d9139915050610a84565b6040518060600160405280602a81526020016117e8602a91399150505b9392505050565b60008073ffffffffffffffffffffffffffffffffffffffff168373ffffffffffffffffffffffffffffffffffffffff1603610ac557600080fd5b610b5482600160003373ffffffffffffffffffffffffffffffffffffffff1673ffffffffffffffffffffffffffffffffffffffff16815260200190815260200160002060008673ffffffffffffffffffffffffffffffffffffffff1673ffffffffffffffffffffffffffffffffffffffff16815260200190815260200160002054610fa390919063ffffffff16565b600160003373ffffffffffffffffffffffffffffffffffffffff1673ffffffffffffffffffffffffffffffffffffffff16815260200190815260200160002060008573ffffffffffffffffffffffffffffffffffffffff1673ffffffffffffffffffffffffffffffffffffffff168152602001908152602001600020819055508273ffffffffffffffffffffffffffffffffffffffff163373ffffffffffffffffffffffffffffffffffffffff167f8c5be1e5ebec7d5bd14f71427d1e84f3dd0314c0f7b2291e5b200ac8c7c3b925600160003373ffffffffffffffffffffffffffffffffffffffff1673ffffffffffffffffffffffffffffffffffffffff16815260200190815260200160002060008773ffffffffffffffffffffffffffffffffffffffff1673ffffffffffffffffffffffffffffffffffffffff16815260200190815260200160002054604051610cad91906113b5565b60405180910390a36001905092915050565b60008060003373ffffffffffffffffffffffffffffffffffffffff1673ffffffffffffffffffffffffffffffffffffffff16815260200190815260200160002054821115610d0c57600080fd5b600073ffffffffffffffffffffffffffffffffffffffff168373ffffffffffffffffffffffffffffffffffffffff1603610d4557600080fd5b610d96826000803373ffffffffffffffffffffffffffffffffffffffff1673ffffffffffffffffffffffffffffffffffffffff16815260200190815260200160002054610fa390919063ffffffff16565b6000803373ffffffffffffffffffffffffffffffffffffffff1673ffffffffffffffffffffffffffffffffffffffff16815260200190815260200160002081905550610e29826000808673ffffffffffffffffffffffffffffffffffffffff1673ffffffffffffffffffffffffffffffffffffffff1681526020019081526020016000205461118c90919063ffffffff16565b6000808573ffffffffffffffffffffffffffffffffffffffff1673ffffffffffffffffffffffffffffffffffffffff168152602001908152602001600020819055508273ffffffffffffffffffffffffffffffffffffffff163373ffffffffffffffffffffffffffffffffffffffff167fddf252ad1be2c89b69c2b068fc378daa952ba7f163c4a11628f55a4df523b3ef84604051610ec891906113b5565b60405180910390a36001905092915050565b600081424433604051602001610ef2939291906115ec565b6040516020818303038152906040528051906020012060001c610f159190611629565b9050919050565b6000600160008473ffffffffffffffffffffffffffffffffffffffff1673ffffffffffffffffffffffffffffffffffffffff16815260200190815260200160002060008373ffffffffffffffffffffffffffffffffffffffff1673ffffffffffffffffffffffffffffffffffffffff16815260200190815260200160002054905092915050565b6000828284610fb2919061165a565b9150811115610ff6576040517f08c379a0000000000000000000000000000000000000000000000000000000008152600401610fed906116da565b60405180910390fd5b92915050565b61104d816000808673ffffffffffffffffffffffffffffffffffffffff1673ffffffffffffffffffffffffffffffffffffffff16815260200190815260200160002054610fa390919063ffffffff16565b6000808573ffffffffffffffffffffffffffffffffffffffff1673ffffffffffffffffffffffffffffffffffffffff168152602001908152602001600020819055506110e0816000808573ffffffffffffffffffffffffffffffffffffffff1673ffffffffffffffffffffffffffffffffffffffff1681526020019081526020016000205461118c90919063ffffffff16565b6000808473ffffffffffffffffffffffffffffffffffffffff1673ffffffffffffffffffffffffffffffffffffffff168152602001908152602001600020819055508173ffffffffffffffffffffffffffffffffffffffff168373ffffffffffffffffffffffffffffffffffffffff167fddf252ad1be2c89b69c2b068fc378daa952ba7f163c4a11628f55a4df523b3ef8360405161117f91906113b5565b60405180910390a3505050565b600082828461119b91906116fa565b91508110156111df576040517f08c379a00000000000000000000000000000000000000000000000000000000081526004016111d69061177a565b60405180910390fd5b92915050565b600081519050919050565b600082825260208201905092915050565b60005b8381101561121f578082015181840152602081019050611204565b60008484015250505050565b6000601f19601f8301169050919050565b6000611247826111e5565b61125181856111f0565b9350611261818560208601611201565b61126a8161122b565b840191505092915050565b6000602082019050818103600083015261128f818461123c565b905092915050565b600080fd5b600073ffffffffffffffffffffffffffffffffffffffff82169050919050565b60006112c78261129c565b9050919050565b6112d7816112bc565b81146112e257600080fd5b50565b6000813590506112f4816112ce565b92915050565b6000819050919050565b61130d816112fa565b811461131857600080fd5b50565b60008135905061132a81611304565b92915050565b6000806040838503121561134757611346611297565b5b6000611355858286016112e5565b92505060206113668582860161131b565b9150509250929050565b60008115159050919050565b61138581611370565b82525050565b60006020820190506113a0600083018461137c565b92915050565b6113af816112fa565b82525050565b60006020820190506113ca60008301846113a6565b92915050565b6000806000606084860312156113e9576113e8611297565b5b60006113f7868287016112e5565b9350506020611408868287016112e5565b92505060406114198682870161131b565b9150509250925092565b600060ff82169050919050565b61143981611423565b82525050565b60006020820190506114546000830184611430565b92915050565b6000602082840312156114705761146f611297565b5b600061147e848285016112e5565b91505092915050565b60006020828403121561149d5761149c611297565b5b60006114ab8482850161131b565b91505092915050565b600080604083850312156114cb576114ca611297565b5b60006114d9858286016112e5565b92505060206114ea858286016112e5565b9150509250929050565b7f4e487b7100000000000000000000000000000000000000000000000000000000600052601260045260246000fd5b7f4e487b7100000000000000000000000000000000000000000000000000000000600052601160045260246000fd5b600061155d826112fa565b9150611568836112fa565b925082611578576115776114f4565b5b828204905092915050565b6000819050919050565b61159e611599826112fa565b611583565b82525050565b60008160601b9050919050565b60006115bc826115a4565b9050919050565b60006115ce826115b1565b9050919050565b6115e66115e1826112bc565b6115c3565b82525050565b60006115f8828661158d565b602082019150611608828561158d565b60208201915061161882846115d5565b601482019150819050949350505050565b6000611634826112fa565b915061163f836112fa565b92508261164f5761164e6114f4565b5b828206905092915050565b6000611665826112fa565b9150611670836112fa565b925082820390508181111561168857611687611523565b5b92915050565b7f64732d6d6174682d7375622d756e646572666c6f770000000000000000000000600082015250565b60006116c46015836111f0565b91506116cf8261168e565b602082019050919050565b600060208201905081810360008301526116f3816116b7565b9050919050565b6000611705826112fa565b9150611710836112fa565b925082820190508082111561172857611727611523565b5b92915050565b7f64732d6d6174682d6164642d6f766572666c6f77000000000000000000000000600082015250565b60006117646014836111f0565b915061176f8261172e565b602082019050919050565b6000602082019050818103600083015261179381611757565b905091905056fe596f75206861766520756e6c6f636b65642074686520736563726574206d6573736167652e205468652073656372657420746f2068617070696e6573732061726520626972642073656564732e4e6f7420656e6f75676820746f6b656e7320746f206a6f696e2074686520636c75622c20736f7272792153686172696e67206d65616e7320636172696e672e20596f7520646964206e6f742077616e7420746f2073686172652c20736f20776520617265206e6f772073656e64696e6720612072616e646f6d20616d6f756e74206f6620746f6b656e7320746f20746865206f74686572206163636f756e742e20596f7520616c736f2077696c6c206e6f74207365652074686520536563726574204d6573736167652e20426f6f2ea26469706673582212203645e7c3222b60cde3b1dc565be722db3bec6e384b313c961639b5a05e2de8a264736f6c63430008130033",
					"opcodes": "PUSH1 0x80 PUSH1 0x40 MSTORE CALLVALUE DUP1 ISZERO PUSH2 0x10 JUMPI PUSH1 0x0 DUP1 REVERT JUMPDEST POP PUSH5 0xE8D4A51000 PUSH1 0x0 DUP1 CALLER PUSH20 0xFFFFFFFFFFFFFFFFFFFFFFFFFFFFFFFFFFFFFFFF AND PUSH20 0xFFFFFFFFFFFFFFFFFFFFFFFFFFFFFFFFFFFFFFFF AND DUP2 MSTORE PUSH1 0x20 ADD SWAP1 DUP2 MSTORE PUSH1 0x20 ADD PUSH1 0x0 KECCAK256 DUP2 SWAP1 SSTORE POP CALLER PUSH20 0xFFFFFFFFFFFFFFFFFFFFFFFFFFFFFFFFFFFFFFFF AND PUSH1 0x0 PUSH20 0xFFFFFFFFFFFFFFFFFFFFFFFFFFFFFFFFFFFFFFFF AND PUSH32 0xDDF252AD1BE2C89B69C2B068FC378DAA952BA7F163C4A11628F55A4DF523B3EF PUSH5 0xE8D4A51000 PUSH1 0x40 MLOAD PUSH2 0xBC SWAP2 SWAP1 PUSH2 0xE2 JUMP JUMPDEST PUSH1 0x40 MLOAD DUP1 SWAP2 SUB SWAP1 LOG3 PUSH2 0xFD JUMP JUMPDEST PUSH1 0x0 DUP2 SWAP1 POP SWAP2 SWAP1 POP JUMP JUMPDEST PUSH2 0xDC DUP2 PUSH2 0xC9 JUMP JUMPDEST DUP3 MSTORE POP POP JUMP JUMPDEST PUSH1 0x0 PUSH1 0x20 DUP3 ADD SWAP1 POP PUSH2 0xF7 PUSH1 0x0 DUP4 ADD DUP5 PUSH2 0xD3 JUMP JUMPDEST SWAP3 SWAP2 POP POP JUMP JUMPDEST PUSH2 0x18EC DUP1 PUSH2 0x10C PUSH1 0x0 CODECOPY PUSH1 0x0 RETURN INVALID PUSH1 0x80 PUSH1 0x40 MSTORE CALLVALUE DUP1 ISZERO PUSH2 0x10 JUMPI PUSH1 0x0 DUP1 REVERT JUMPDEST POP PUSH1 0x4 CALLDATASIZE LT PUSH2 0xEA JUMPI PUSH1 0x0 CALLDATALOAD PUSH1 0xE0 SHR DUP1 PUSH4 0x70A08231 GT PUSH2 0x8C JUMPI DUP1 PUSH4 0xA457C2D7 GT PUSH2 0x66 JUMPI DUP1 PUSH4 0xA457C2D7 EQ PUSH2 0x275 JUMPI DUP1 PUSH4 0xA9059CBB EQ PUSH2 0x2A5 JUMPI DUP1 PUSH4 0xACDDA499 EQ PUSH2 0x2D5 JUMPI DUP1 PUSH4 0xDD62ED3E EQ PUSH2 0x305 JUMPI PUSH2 0xEA JUMP JUMPDEST DUP1 PUSH4 0x70A08231 EQ PUSH2 0x1F7 JUMPI DUP1 PUSH4 0x95D89B41 EQ PUSH2 0x227 JUMPI DUP1 PUSH4 0x9DDEFA1B EQ PUSH2 0x245 JUMPI PUSH2 0xEA JUMP JUMPDEST DUP1 PUSH4 0x23B872DD GT PUSH2 0xC8 JUMPI DUP1 PUSH4 0x23B872DD EQ PUSH2 0x15B JUMPI DUP1 PUSH4 0x313CE567 EQ PUSH2 0x18B JUMPI DUP1 PUSH4 0x39509351 EQ PUSH2 0x1A9 JUMPI DUP1 PUSH4 0x3EAAF86B EQ PUSH2 0x1D9 JUMPI PUSH2 0xEA JUMP JUMPDEST DUP1 PUSH4 0x6FDDE03 EQ PUSH2 0xEF JUMPI DUP1 PUSH4 0x95EA7B3 EQ PUSH2 0x10D JUMPI DUP1 PUSH4 0x18160DDD EQ PUSH2 0x13D JUMPI JUMPDEST PUSH1 0x0 DUP1 REVERT JUMPDEST PUSH2 0xF7 PUSH2 0x335 JUMP JUMPDEST PUSH1 0x40 MLOAD PUSH2 0x104 SWAP2 SWAP1 PUSH2 0x1275 JUMP JUMPDEST PUSH1 0x40 MLOAD DUP1 SWAP2 SUB SWAP1 RETURN JUMPDEST PUSH2 0x127 PUSH1 0x4 DUP1 CALLDATASIZE SUB DUP2 ADD SWAP1 PUSH2 0x122 SWAP2 SWAP1 PUSH2 0x1330 JUMP JUMPDEST PUSH2 0x36E JUMP JUMPDEST PUSH1 0x40 MLOAD PUSH2 0x134 SWAP2 SWAP1 PUSH2 0x138B JUMP JUMPDEST PUSH1 0x40 MLOAD DUP1 SWAP2 SUB SWAP1 RETURN JUMPDEST PUSH2 0x145 PUSH2 0x498 JUMP JUMPDEST PUSH1 0x40 MLOAD PUSH2 0x152 SWAP2 SWAP1 PUSH2 0x13B5 JUMP JUMPDEST PUSH1 0x40 MLOAD DUP1 SWAP2 SUB SWAP1 RETURN JUMPDEST PUSH2 0x175 PUSH1 0x4 DUP1 CALLDATASIZE SUB DUP2 ADD SWAP1 PUSH2 0x170 SWAP2 SWAP1 PUSH2 0x13D0 JUMP JUMPDEST PUSH2 0x4A5 JUMP JUMPDEST PUSH1 0x40 MLOAD PUSH2 0x182 SWAP2 SWAP1 PUSH2 0x138B JUMP JUMPDEST PUSH1 0x40 MLOAD DUP1 SWAP2 SUB SWAP1 RETURN JUMPDEST PUSH2 0x193 PUSH2 0x6D9 JUMP JUMPDEST PUSH1 0x40 MLOAD PUSH2 0x1A0 SWAP2 SWAP1 PUSH2 0x143F JUMP JUMPDEST PUSH1 0x40 MLOAD DUP1 SWAP2 SUB SWAP1 RETURN JUMPDEST PUSH2 0x1C3 PUSH1 0x4 DUP1 CALLDATASIZE SUB DUP2 ADD SWAP1 PUSH2 0x1BE SWAP2 SWAP1 PUSH2 0x1330 JUMP JUMPDEST PUSH2 0x6DE JUMP JUMPDEST PUSH1 0x40 MLOAD PUSH2 0x1D0 SWAP2 SWAP1 PUSH2 0x138B JUMP JUMPDEST PUSH1 0x40 MLOAD DUP1 SWAP2 SUB SWAP1 RETURN JUMPDEST PUSH2 0x1E1 PUSH2 0x912 JUMP JUMPDEST PUSH1 0x40 MLOAD PUSH2 0x1EE SWAP2 SWAP1 PUSH2 0x13B5 JUMP JUMPDEST PUSH1 0x40 MLOAD DUP1 SWAP2 SUB SWAP1 RETURN JUMPDEST PUSH2 0x211 PUSH1 0x4 DUP1 CALLDATASIZE SUB DUP2 ADD SWAP1 PUSH2 0x20C SWAP2 SWAP1 PUSH2 0x145A JUMP JUMPDEST PUSH2 0x91B JUMP JUMPDEST PUSH1 0x40 MLOAD PUSH2 0x21E SWAP2 SWAP1 PUSH2 0x13B5 JUMP JUMPDEST PUSH1 0x40 MLOAD DUP1 SWAP2 SUB SWAP1 RETURN JUMPDEST PUSH2 0x22F PUSH2 0x963 JUMP JUMPDEST PUSH1 0x40 MLOAD PUSH2 0x23C SWAP2 SWAP1 PUSH2 0x1275 JUMP JUMPDEST PUSH1 0x40 MLOAD DUP1 SWAP2 SUB SWAP1 RETURN JUMPDEST PUSH2 0x25F PUSH1 0x4 DUP1 CALLDATASIZE SUB DUP2 ADD SWAP1 PUSH2 0x25A SWAP2 SWAP1 PUSH2 0x13D0 JUMP JUMPDEST PUSH2 0x99C JUMP JUMPDEST PUSH1 0x40 MLOAD PUSH2 0x26C SWAP2 SWAP1 PUSH2 0x1275 JUMP JUMPDEST PUSH1 0x40 MLOAD DUP1 SWAP2 SUB SWAP1 RETURN JUMPDEST PUSH2 0x28F PUSH1 0x4 DUP1 CALLDATASIZE SUB DUP2 ADD SWAP1 PUSH2 0x28A SWAP2 SWAP1 PUSH2 0x1330 JUMP JUMPDEST PUSH2 0xA8B JUMP JUMPDEST PUSH1 0x40 MLOAD PUSH2 0x29C SWAP2 SWAP1 PUSH2 0x138B JUMP JUMPDEST PUSH1 0x40 MLOAD DUP1 SWAP2 SUB SWAP1 RETURN JUMPDEST PUSH2 0x2BF PUSH1 0x4 DUP1 CALLDATASIZE SUB DUP2 ADD SWAP1 PUSH2 0x2BA SWAP2 SWAP1 PUSH2 0x1330 JUMP JUMPDEST PUSH2 0xCBF JUMP JUMPDEST PUSH1 0x40 MLOAD PUSH2 0x2CC SWAP2 SWAP1 PUSH2 0x138B JUMP JUMPDEST PUSH1 0x40 MLOAD DUP1 SWAP2 SUB SWAP1 RETURN JUMPDEST PUSH2 0x2EF PUSH1 0x4 DUP1 CALLDATASIZE SUB DUP2 ADD SWAP1 PUSH2 0x2EA SWAP2 SWAP1 PUSH2 0x1487 JUMP JUMPDEST PUSH2 0xEDA JUMP JUMPDEST PUSH1 0x40 MLOAD PUSH2 0x2FC SWAP2 SWAP1 PUSH2 0x13B5 JUMP JUMPDEST PUSH1 0x40 MLOAD DUP1 SWAP2 SUB SWAP1 RETURN JUMPDEST PUSH2 0x31F PUSH1 0x4 DUP1 CALLDATASIZE SUB DUP2 ADD SWAP1 PUSH2 0x31A SWAP2 SWAP1 PUSH2 0x14B4 JUMP JUMPDEST PUSH2 0xF1C JUMP JUMPDEST PUSH1 0x40 MLOAD PUSH2 0x32C SWAP2 SWAP1 PUSH2 0x13B5 JUMP JUMPDEST PUSH1 0x40 MLOAD DUP1 SWAP2 SUB SWAP1 RETURN JUMPDEST PUSH1 0x40 MLOAD DUP1 PUSH1 0x40 ADD PUSH1 0x40 MSTORE DUP1 PUSH1 0xB DUP2 MSTORE PUSH1 0x20 ADD PUSH32 0x427564677920546F6B656E000000000000000000000000000000000000000000 DUP2 MSTORE POP DUP2 JUMP JUMPDEST PUSH1 0x0 DUP1 PUSH20 0xFFFFFFFFFFFFFFFFFFFFFFFFFFFFFFFFFFFFFFFF AND DUP4 PUSH20 0xFFFFFFFFFFFFFFFFFFFFFFFFFFFFFFFFFFFFFFFF AND SUB PUSH2 0x3A8 JUMPI PUSH1 0x0 DUP1 REVERT JUMPDEST DUP2 PUSH1 0x1 PUSH1 0x0 CALLER PUSH20 0xFFFFFFFFFFFFFFFFFFFFFFFFFFFFFFFFFFFFFFFF AND PUSH20 0xFFFFFFFFFFFFFFFFFFFFFFFFFFFFFFFFFFFFFFFF AND DUP2 MSTORE PUSH1 0x20 ADD SWAP1 DUP2 MSTORE PUSH1 0x20 ADD PUSH1 0x0 KECCAK256 PUSH1 0x0 DUP6 PUSH20 0xFFFFFFFFFFFFFFFFFFFFFFFFFFFFFFFFFFFFFFFF AND PUSH20 0xFFFFFFFFFFFFFFFFFFFFFFFFFFFFFFFFFFFFFFFF AND DUP2 MSTORE PUSH1 0x20 ADD SWAP1 DUP2 MSTORE PUSH1 0x20 ADD PUSH1 0x0 KECCAK256 DUP2 SWAP1 SSTORE POP DUP3 PUSH20 0xFFFFFFFFFFFFFFFFFFFFFFFFFFFFFFFFFFFFFFFF AND CALLER PUSH20 0xFFFFFFFFFFFFFFFFFFFFFFFFFFFFFFFFFFFFFFFF AND PUSH32 0x8C5BE1E5EBEC7D5BD14F71427D1E84F3DD0314C0F7B2291E5B200AC8C7C3B925 DUP5 PUSH1 0x40 MLOAD PUSH2 0x486 SWAP2 SWAP1 PUSH2 0x13B5 JUMP JUMPDEST PUSH1 0x40 MLOAD DUP1 SWAP2 SUB SWAP1 LOG3 PUSH1 0x1 SWAP1 POP SWAP3 SWAP2 POP POP JUMP JUMPDEST PUSH1 0x0 PUSH5 0xE8D4A51000 SWAP1 POP SWAP1 JUMP JUMPDEST PUSH1 0x0 DUP1 PUSH1 0x0 DUP6 PUSH20 0xFFFFFFFFFFFFFFFFFFFFFFFFFFFFFFFFFFFFFFFF AND PUSH20 0xFFFFFFFFFFFFFFFFFFFFFFFFFFFFFFFFFFFFFFFF AND DUP2 MSTORE PUSH1 0x20 ADD SWAP1 DUP2 MSTORE PUSH1 0x20 ADD PUSH1 0x0 KECCAK256 SLOAD DUP3 GT ISZERO PUSH2 0x4F2 JUMPI PUSH1 0x0 DUP1 REVERT JUMPDEST PUSH1 0x1 PUSH1 0x0 DUP6 PUSH20 0xFFFFFFFFFFFFFFFFFFFFFFFFFFFFFFFFFFFFFFFF AND PUSH20 0xFFFFFFFFFFFFFFFFFFFFFFFFFFFFFFFFFFFFFFFF AND DUP2 MSTORE PUSH1 0x20 ADD SWAP1 DUP2 MSTORE PUSH1 0x20 ADD PUSH1 0x0 KECCAK256 PUSH1 0x0 CALLER PUSH20 0xFFFFFFFFFFFFFFFFFFFFFFFFFFFFFFFFFFFFFFFF AND PUSH20 0xFFFFFFFFFFFFFFFFFFFFFFFFFFFFFFFFFFFFFFFF AND DUP2 MSTORE PUSH1 0x20 ADD SWAP1 DUP2 MSTORE PUSH1 0x20 ADD PUSH1 0x0 KECCAK256 SLOAD DUP3 GT ISZERO PUSH2 0x57B JUMPI PUSH1 0x0 DUP1 REVERT JUMPDEST PUSH1 0x0 PUSH20 0xFFFFFFFFFFFFFFFFFFFFFFFFFFFFFFFFFFFFFFFF AND DUP4 PUSH20 0xFFFFFFFFFFFFFFFFFFFFFFFFFFFFFFFFFFFFFFFF AND SUB PUSH2 0x5B4 JUMPI PUSH1 0x0 DUP1 REVERT JUMPDEST PUSH2 0x643 DUP3 PUSH1 0x1 PUSH1 0x0 DUP8 PUSH20 0xFFFFFFFFFFFFFFFFFFFFFFFFFFFFFFFFFFFFFFFF AND PUSH20 0xFFFFFFFFFFFFFFFFFFFFFFFFFFFFFFFFFFFFFFFF AND DUP2 MSTORE PUSH1 0x20 ADD SWAP1 DUP2 MSTORE PUSH1 0x20 ADD PUSH1 0x0 KECCAK256 PUSH1 0x0 CALLER PUSH20 0xFFFFFFFFFFFFFFFFFFFFFFFFFFFFFFFFFFFFFFFF AND PUSH20 0xFFFFFFFFFFFFFFFFFFFFFFFFFFFFFFFFFFFFFFFF AND DUP2 MSTORE PUSH1 0x20 ADD SWAP1 DUP2 MSTORE PUSH1 0x20 ADD PUSH1 0x0 KECCAK256 SLOAD PUSH2 0xFA3 SWAP1 SWAP2 SWAP1 PUSH4 0xFFFFFFFF AND JUMP JUMPDEST PUSH1 0x1 PUSH1 0x0 DUP7 PUSH20 0xFFFFFFFFFFFFFFFFFFFFFFFFFFFFFFFFFFFFFFFF AND PUSH20 0xFFFFFFFFFFFFFFFFFFFFFFFFFFFFFFFFFFFFFFFF AND DUP2 MSTORE PUSH1 0x20 ADD SWAP1 DUP2 MSTORE PUSH1 0x20 ADD PUSH1 0x0 KECCAK256 PUSH1 0x0 CALLER PUSH20 0xFFFFFFFFFFFFFFFFFFFFFFFFFFFFFFFFFFFFFFFF AND PUSH20 0xFFFFFFFFFFFFFFFFFFFFFFFFFFFFFFFFFFFFFFFF AND DUP2 MSTORE PUSH1 0x20 ADD SWAP1 DUP2 MSTORE PUSH1 0x20 ADD PUSH1 0x0 KECCAK256 DUP2 SWAP1 SSTORE POP PUSH2 0x6CE DUP5 DUP5 DUP5 PUSH2 0xFFC JUMP JUMPDEST PUSH1 0x1 SWAP1 POP SWAP4 SWAP3 POP POP POP JUMP JUMPDEST PUSH1 0xA DUP2 JUMP JUMPDEST PUSH1 0x0 DUP1 PUSH20 0xFFFFFFFFFFFFFFFFFFFFFFFFFFFFFFFFFFFFFFFF AND DUP4 PUSH20 0xFFFFFFFFFFFFFFFFFFFFFFFFFFFFFFFFFFFFFFFF AND SUB PUSH2 0x718 JUMPI PUSH1 0x0 DUP1 REVERT JUMPDEST PUSH2 0x7A7 DUP3 PUSH1 0x1 PUSH1 0x0 CALLER PUSH20 0xFFFFFFFFFFFFFFFFFFFFFFFFFFFFFFFFFFFFFFFF AND PUSH20 0xFFFFFFFFFFFFFFFFFFFFFFFFFFFFFFFFFFFFFFFF AND DUP2 MSTORE PUSH1 0x20 ADD SWAP1 DUP2 MSTORE PUSH1 0x20 ADD PUSH1 0x0 KECCAK256 PUSH1 0x0 DUP7 PUSH20 0xFFFFFFFFFFFFFFFFFFFFFFFFFFFFFFFFFFFFFFFF AND PUSH20 0xFFFFFFFFFFFFFFFFFFFFFFFFFFFFFFFFFFFFFFFF AND DUP2 MSTORE PUSH1 0x20 ADD SWAP1 DUP2 MSTORE PUSH1 0x20 ADD PUSH1 0x0 KECCAK256 SLOAD PUSH2 0x118C SWAP1 SWAP2 SWAP1 PUSH4 0xFFFFFFFF AND JUMP JUMPDEST PUSH1 0x1 PUSH1 0x0 CALLER PUSH20 0xFFFFFFFFFFFFFFFFFFFFFFFFFFFFFFFFFFFFFFFF AND PUSH20 0xFFFFFFFFFFFFFFFFFFFFFFFFFFFFFFFFFFFFFFFF AND DUP2 MSTORE PUSH1 0x20 ADD SWAP1 DUP2 MSTORE PUSH1 0x20 ADD PUSH1 0x0 KECCAK256 PUSH1 0x0 DUP6 PUSH20 0xFFFFFFFFFFFFFFFFFFFFFFFFFFFFFFFFFFFFFFFF AND PUSH20 0xFFFFFFFFFFFFFFFFFFFFFFFFFFFFFFFFFFFFFFFF AND DUP2 MSTORE PUSH1 0x20 ADD SWAP1 DUP2 MSTORE PUSH1 0x20 ADD PUSH1 0x0 KECCAK256 DUP2 SWAP1 SSTORE POP DUP3 PUSH20 0xFFFFFFFFFFFFFFFFFFFFFFFFFFFFFFFFFFFFFFFF AND CALLER PUSH20 0xFFFFFFFFFFFFFFFFFFFFFFFFFFFFFFFFFFFFFFFF AND PUSH32 0x8C5BE1E5EBEC7D5BD14F71427D1E84F3DD0314C0F7B2291E5B200AC8C7C3B925 PUSH1 0x1 PUSH1 0x0 CALLER PUSH20 0xFFFFFFFFFFFFFFFFFFFFFFFFFFFFFFFFFFFFFFFF AND PUSH20 0xFFFFFFFFFFFFFFFFFFFFFFFFFFFFFFFFFFFFFFFF AND DUP2 MSTORE PUSH1 0x20 ADD SWAP1 DUP2 MSTORE PUSH1 0x20 ADD PUSH1 0x0 KECCAK256 PUSH1 0x0 DUP8 PUSH20 0xFFFFFFFFFFFFFFFFFFFFFFFFFFFFFFFFFFFFFFFF AND PUSH20 0xFFFFFFFFFFFFFFFFFFFFFFFFFFFFFFFFFFFFFFFF AND DUP2 MSTORE PUSH1 0x20 ADD SWAP1 DUP2 MSTORE PUSH1 0x20 ADD PUSH1 0x0 KECCAK256 SLOAD PUSH1 0x40 MLOAD PUSH2 0x900 SWAP2 SWAP1 PUSH2 0x13B5 JUMP JUMPDEST PUSH1 0x40 MLOAD DUP1 SWAP2 SUB SWAP1 LOG3 PUSH1 0x1 SWAP1 POP SWAP3 SWAP2 POP POP JUMP JUMPDEST PUSH5 0xE8D4A51000 DUP2 JUMP JUMPDEST PUSH1 0x0 DUP1 PUSH1 0x0 DUP4 PUSH20 0xFFFFFFFFFFFFFFFFFFFFFFFFFFFFFFFFFFFFFFFF AND PUSH20 0xFFFFFFFFFFFFFFFFFFFFFFFFFFFFFFFFFFFFFFFF AND DUP2 MSTORE PUSH1 0x20 ADD SWAP1 DUP2 MSTORE PUSH1 0x20 ADD PUSH1 0x0 KECCAK256 SLOAD SWAP1 POP SWAP2 SWAP1 POP JUMP JUMPDEST PUSH1 0x40 MLOAD DUP1 PUSH1 0x40 ADD PUSH1 0x40 MSTORE DUP1 PUSH1 0x4 DUP2 MSTORE PUSH1 0x20 ADD PUSH32 0x4244475900000000000000000000000000000000000000000000000000000000 DUP2 MSTORE POP DUP2 JUMP JUMPDEST PUSH1 0x60 PUSH1 0x0 DUP1 PUSH1 0x0 DUP7 PUSH20 0xFFFFFFFFFFFFFFFFFFFFFFFFFFFFFFFFFFFFFFFF AND PUSH20 0xFFFFFFFFFFFFFFFFFFFFFFFFFFFFFFFFFFFFFFFF AND DUP2 MSTORE PUSH1 0x20 ADD SWAP1 DUP2 MSTORE PUSH1 0x20 ADD PUSH1 0x0 KECCAK256 SLOAD SWAP1 POP PUSH1 0x2 PUSH5 0xE8D4A51000 PUSH2 0x9F3 SWAP2 SWAP1 PUSH2 0x1552 JUMP JUMPDEST DUP2 GT ISZERO PUSH2 0xA67 JUMPI PUSH1 0x0 DUP4 SUB PUSH2 0xA3A JUMPI PUSH2 0xA0B DUP2 PUSH2 0xEDA JUMP JUMPDEST SWAP3 POP PUSH2 0xA18 DUP6 DUP6 DUP6 PUSH2 0x4A5 JUMP JUMPDEST POP PUSH1 0x40 MLOAD DUP1 PUSH1 0xE0 ADD PUSH1 0x40 MSTORE DUP1 PUSH1 0xA5 DUP2 MSTORE PUSH1 0x20 ADD PUSH2 0x1812 PUSH1 0xA5 SWAP2 CODECOPY SWAP2 POP POP PUSH2 0xA84 JUMP JUMPDEST PUSH2 0xA45 DUP6 DUP6 DUP6 PUSH2 0x4A5 JUMP JUMPDEST POP PUSH1 0x40 MLOAD DUP1 PUSH1 0x80 ADD PUSH1 0x40 MSTORE DUP1 PUSH1 0x4D DUP2 MSTORE PUSH1 0x20 ADD PUSH2 0x179B PUSH1 0x4D SWAP2 CODECOPY SWAP2 POP POP PUSH2 0xA84 JUMP JUMPDEST PUSH1 0x40 MLOAD DUP1 PUSH1 0x60 ADD PUSH1 0x40 MSTORE DUP1 PUSH1 0x2A DUP2 MSTORE PUSH1 0x20 ADD PUSH2 0x17E8 PUSH1 0x2A SWAP2 CODECOPY SWAP2 POP POP JUMPDEST SWAP4 SWAP3 POP POP POP JUMP JUMPDEST PUSH1 0x0 DUP1 PUSH20 0xFFFFFFFFFFFFFFFFFFFFFFFFFFFFFFFFFFFFFFFF AND DUP4 PUSH20 0xFFFFFFFFFFFFFFFFFFFFFFFFFFFFFFFFFFFFFFFF AND SUB PUSH2 0xAC5 JUMPI PUSH1 0x0 DUP1 REVERT JUMPDEST PUSH2 0xB54 DUP3 PUSH1 0x1 PUSH1 0x0 CALLER PUSH20 0xFFFFFFFFFFFFFFFFFFFFFFFFFFFFFFFFFFFFFFFF AND PUSH20 0xFFFFFFFFFFFFFFFFFFFFFFFFFFFFFFFFFFFFFFFF AND DUP2 MSTORE PUSH1 0x20 ADD SWAP1 DUP2 MSTORE PUSH1 0x20 ADD PUSH1 0x0 KECCAK256 PUSH1 0x0 DUP7 PUSH20 0xFFFFFFFFFFFFFFFFFFFFFFFFFFFFFFFFFFFFFFFF AND PUSH20 0xFFFFFFFFFFFFFFFFFFFFFFFFFFFFFFFFFFFFFFFF AND DUP2 MSTORE PUSH1 0x20 ADD SWAP1 DUP2 MSTORE PUSH1 0x20 ADD PUSH1 0x0 KECCAK256 SLOAD PUSH2 0xFA3 SWAP1 SWAP2 SWAP1 PUSH4 0xFFFFFFFF AND JUMP JUMPDEST PUSH1 0x1 PUSH1 0x0 CALLER PUSH20 0xFFFFFFFFFFFFFFFFFFFFFFFFFFFFFFFFFFFFFFFF AND PUSH20 0xFFFFFFFFFFFFFFFFFFFFFFFFFFFFFFFFFFFFFFFF AND DUP2 MSTORE PUSH1 0x20 ADD SWAP1 DUP2 MSTORE PUSH1 0x20 ADD PUSH1 0x0 KECCAK256 PUSH1 0x0 DUP6 PUSH20 0xFFFFFFFFFFFFFFFFFFFFFFFFFFFFFFFFFFFFFFFF AND PUSH20 0xFFFFFFFFFFFFFFFFFFFFFFFFFFFFFFFFFFFFFFFF AND DUP2 MSTORE PUSH1 0x20 ADD SWAP1 DUP2 MSTORE PUSH1 0x20 ADD PUSH1 0x0 KECCAK256 DUP2 SWAP1 SSTORE POP DUP3 PUSH20 0xFFFFFFFFFFFFFFFFFFFFFFFFFFFFFFFFFFFFFFFF AND CALLER PUSH20 0xFFFFFFFFFFFFFFFFFFFFFFFFFFFFFFFFFFFFFFFF AND PUSH32 0x8C5BE1E5EBEC7D5BD14F71427D1E84F3DD0314C0F7B2291E5B200AC8C7C3B925 PUSH1 0x1 PUSH1 0x0 CALLER PUSH20 0xFFFFFFFFFFFFFFFFFFFFFFFFFFFFFFFFFFFFFFFF AND PUSH20 0xFFFFFFFFFFFFFFFFFFFFFFFFFFFFFFFFFFFFFFFF AND DUP2 MSTORE PUSH1 0x20 ADD SWAP1 DUP2 MSTORE PUSH1 0x20 ADD PUSH1 0x0 KECCAK256 PUSH1 0x0 DUP8 PUSH20 0xFFFFFFFFFFFFFFFFFFFFFFFFFFFFFFFFFFFFFFFF AND PUSH20 0xFFFFFFFFFFFFFFFFFFFFFFFFFFFFFFFFFFFFFFFF AND DUP2 MSTORE PUSH1 0x20 ADD SWAP1 DUP2 MSTORE PUSH1 0x20 ADD PUSH1 0x0 KECCAK256 SLOAD PUSH1 0x40 MLOAD PUSH2 0xCAD SWAP2 SWAP1 PUSH2 0x13B5 JUMP JUMPDEST PUSH1 0x40 MLOAD DUP1 SWAP2 SUB SWAP1 LOG3 PUSH1 0x1 SWAP1 POP SWAP3 SWAP2 POP POP JUMP JUMPDEST PUSH1 0x0 DUP1 PUSH1 0x0 CALLER PUSH20 0xFFFFFFFFFFFFFFFFFFFFFFFFFFFFFFFFFFFFFFFF AND PUSH20 0xFFFFFFFFFFFFFFFFFFFFFFFFFFFFFFFFFFFFFFFF AND DUP2 MSTORE PUSH1 0x20 ADD SWAP1 DUP2 MSTORE PUSH1 0x20 ADD PUSH1 0x0 KECCAK256 SLOAD DUP3 GT ISZERO PUSH2 0xD0C JUMPI PUSH1 0x0 DUP1 REVERT JUMPDEST PUSH1 0x0 PUSH20 0xFFFFFFFFFFFFFFFFFFFFFFFFFFFFFFFFFFFFFFFF AND DUP4 PUSH20 0xFFFFFFFFFFFFFFFFFFFFFFFFFFFFFFFFFFFFFFFF AND SUB PUSH2 0xD45 JUMPI PUSH1 0x0 DUP1 REVERT JUMPDEST PUSH2 0xD96 DUP3 PUSH1 0x0 DUP1 CALLER PUSH20 0xFFFFFFFFFFFFFFFFFFFFFFFFFFFFFFFFFFFFFFFF AND PUSH20 0xFFFFFFFFFFFFFFFFFFFFFFFFFFFFFFFFFFFFFFFF AND DUP2 MSTORE PUSH1 0x20 ADD SWAP1 DUP2 MSTORE PUSH1 0x20 ADD PUSH1 0x0 KECCAK256 SLOAD PUSH2 0xFA3 SWAP1 SWAP2 SWAP1 PUSH4 0xFFFFFFFF AND JUMP JUMPDEST PUSH1 0x0 DUP1 CALLER PUSH20 0xFFFFFFFFFFFFFFFFFFFFFFFFFFFFFFFFFFFFFFFF AND PUSH20 0xFFFFFFFFFFFFFFFFFFFFFFFFFFFFFFFFFFFFFFFF AND DUP2 MSTORE PUSH1 0x20 ADD SWAP1 DUP2 MSTORE PUSH1 0x20 ADD PUSH1 0x0 KECCAK256 DUP2 SWAP1 SSTORE POP PUSH2 0xE29 DUP3 PUSH1 0x0 DUP1 DUP7 PUSH20 0xFFFFFFFFFFFFFFFFFFFFFFFFFFFFFFFFFFFFFFFF AND PUSH20 0xFFFFFFFFFFFFFFFFFFFFFFFFFFFFFFFFFFFFFFFF AND DUP2 MSTORE PUSH1 0x20 ADD SWAP1 DUP2 MSTORE PUSH1 0x20 ADD PUSH1 0x0 KECCAK256 SLOAD PUSH2 0x118C SWAP1 SWAP2 SWAP1 PUSH4 0xFFFFFFFF AND JUMP JUMPDEST PUSH1 0x0 DUP1 DUP6 PUSH20 0xFFFFFFFFFFFFFFFFFFFFFFFFFFFFFFFFFFFFFFFF AND PUSH20 0xFFFFFFFFFFFFFFFFFFFFFFFFFFFFFFFFFFFFFFFF AND DUP2 MSTORE PUSH1 0x20 ADD SWAP1 DUP2 MSTORE PUSH1 0x20 ADD PUSH1 0x0 KECCAK256 DUP2 SWAP1 SSTORE POP DUP3 PUSH20 0xFFFFFFFFFFFFFFFFFFFFFFFFFFFFFFFFFFFFFFFF AND CALLER PUSH20 0xFFFFFFFFFFFFFFFFFFFFFFFFFFFFFFFFFFFFFFFF AND PUSH32 0xDDF252AD1BE2C89B69C2B068FC378DAA952BA7F163C4A11628F55A4DF523B3EF DUP5 PUSH1 0x40 MLOAD PUSH2 0xEC8 SWAP2 SWAP1 PUSH2 0x13B5 JUMP JUMPDEST PUSH1 0x40 MLOAD DUP1 SWAP2 SUB SWAP1 LOG3 PUSH1 0x1 SWAP1 POP SWAP3 SWAP2 POP POP JUMP JUMPDEST PUSH1 0x0 DUP2 TIMESTAMP PREVRANDAO CALLER PUSH1 0x40 MLOAD PUSH1 0x20 ADD PUSH2 0xEF2 SWAP4 SWAP3 SWAP2 SWAP1 PUSH2 0x15EC JUMP JUMPDEST PUSH1 0x40 MLOAD PUSH1 0x20 DUP2 DUP4 SUB SUB DUP2 MSTORE SWAP1 PUSH1 0x40 MSTORE DUP1 MLOAD SWAP1 PUSH1 0x20 ADD KECCAK256 PUSH1 0x0 SHR PUSH2 0xF15 SWAP2 SWAP1 PUSH2 0x1629 JUMP JUMPDEST SWAP1 POP SWAP2 SWAP1 POP JUMP JUMPDEST PUSH1 0x0 PUSH1 0x1 PUSH1 0x0 DUP5 PUSH20 0xFFFFFFFFFFFFFFFFFFFFFFFFFFFFFFFFFFFFFFFF AND PUSH20 0xFFFFFFFFFFFFFFFFFFFFFFFFFFFFFFFFFFFFFFFF AND DUP2 MSTORE PUSH1 0x20 ADD SWAP1 DUP2 MSTORE PUSH1 0x20 ADD PUSH1 0x0 KECCAK256 PUSH1 0x0 DUP4 PUSH20 0xFFFFFFFFFFFFFFFFFFFFFFFFFFFFFFFFFFFFFFFF AND PUSH20 0xFFFFFFFFFFFFFFFFFFFFFFFFFFFFFFFFFFFFFFFF AND DUP2 MSTORE PUSH1 0x20 ADD SWAP1 DUP2 MSTORE PUSH1 0x20 ADD PUSH1 0x0 KECCAK256 SLOAD SWAP1 POP SWAP3 SWAP2 POP POP JUMP JUMPDEST PUSH1 0x0 DUP3 DUP3 DUP5 PUSH2 0xFB2 SWAP2 SWAP1 PUSH2 0x165A JUMP JUMPDEST SWAP2 POP DUP2 GT ISZERO PUSH2 0xFF6 JUMPI PUSH1 0x40 MLOAD PUSH32 0x8C379A000000000000000000000000000000000000000000000000000000000 DUP2 MSTORE PUSH1 0x4 ADD PUSH2 0xFED SWAP1 PUSH2 0x16DA JUMP JUMPDEST PUSH1 0x40 MLOAD DUP1 SWAP2 SUB SWAP1 REVERT JUMPDEST SWAP3 SWAP2 POP POP JUMP JUMPDEST PUSH2 0x104D DUP2 PUSH1 0x0 DUP1 DUP7 PUSH20 0xFFFFFFFFFFFFFFFFFFFFFFFFFFFFFFFFFFFFFFFF AND PUSH20 0xFFFFFFFFFFFFFFFFFFFFFFFFFFFFFFFFFFFFFFFF AND DUP2 MSTORE PUSH1 0x20 ADD SWAP1 DUP2 MSTORE PUSH1 0x20 ADD PUSH1 0x0 KECCAK256 SLOAD PUSH2 0xFA3 SWAP1 SWAP2 SWAP1 PUSH4 0xFFFFFFFF AND JUMP JUMPDEST PUSH1 0x0 DUP1 DUP6 PUSH20 0xFFFFFFFFFFFFFFFFFFFFFFFFFFFFFFFFFFFFFFFF AND PUSH20 0xFFFFFFFFFFFFFFFFFFFFFFFFFFFFFFFFFFFFFFFF AND DUP2 MSTORE PUSH1 0x20 ADD SWAP1 DUP2 MSTORE PUSH1 0x20 ADD PUSH1 0x0 KECCAK256 DUP2 SWAP1 SSTORE POP PUSH2 0x10E0 DUP2 PUSH1 0x0 DUP1 DUP6 PUSH20 0xFFFFFFFFFFFFFFFFFFFFFFFFFFFFFFFFFFFFFFFF AND PUSH20 0xFFFFFFFFFFFFFFFFFFFFFFFFFFFFFFFFFFFFFFFF AND DUP2 MSTORE PUSH1 0x20 ADD SWAP1 DUP2 MSTORE PUSH1 0x20 ADD PUSH1 0x0 KECCAK256 SLOAD PUSH2 0x118C SWAP1 SWAP2 SWAP1 PUSH4 0xFFFFFFFF AND JUMP JUMPDEST PUSH1 0x0 DUP1 DUP5 PUSH20 0xFFFFFFFFFFFFFFFFFFFFFFFFFFFFFFFFFFFFFFFF AND PUSH20 0xFFFFFFFFFFFFFFFFFFFFFFFFFFFFFFFFFFFFFFFF AND DUP2 MSTORE PUSH1 0x20 ADD SWAP1 DUP2 MSTORE PUSH1 0x20 ADD PUSH1 0x0 KECCAK256 DUP2 SWAP1 SSTORE POP DUP2 PUSH20 0xFFFFFFFFFFFFFFFFFFFFFFFFFFFFFFFFFFFFFFFF AND DUP4 PUSH20 0xFFFFFFFFFFFFFFFFFFFFFFFFFFFFFFFFFFFFFFFF AND PUSH32 0xDDF252AD1BE2C89B69C2B068FC378DAA952BA7F163C4A11628F55A4DF523B3EF DUP4 PUSH1 0x40 MLOAD PUSH2 0x117F SWAP2 SWAP1 PUSH2 0x13B5 JUMP JUMPDEST PUSH1 0x40 MLOAD DUP1 SWAP2 SUB SWAP1 LOG3 POP POP POP JUMP JUMPDEST PUSH1 0x0 DUP3 DUP3 DUP5 PUSH2 0x119B SWAP2 SWAP1 PUSH2 0x16FA JUMP JUMPDEST SWAP2 POP DUP2 LT ISZERO PUSH2 0x11DF JUMPI PUSH1 0x40 MLOAD PUSH32 0x8C379A000000000000000000000000000000000000000000000000000000000 DUP2 MSTORE PUSH1 0x4 ADD PUSH2 0x11D6 SWAP1 PUSH2 0x177A JUMP JUMPDEST PUSH1 0x40 MLOAD DUP1 SWAP2 SUB SWAP1 REVERT JUMPDEST SWAP3 SWAP2 POP POP JUMP JUMPDEST PUSH1 0x0 DUP2 MLOAD SWAP1 POP SWAP2 SWAP1 POP JUMP JUMPDEST PUSH1 0x0 DUP3 DUP3 MSTORE PUSH1 0x20 DUP3 ADD SWAP1 POP SWAP3 SWAP2 POP POP JUMP JUMPDEST PUSH1 0x0 JUMPDEST DUP4 DUP2 LT ISZERO PUSH2 0x121F JUMPI DUP1 DUP3 ADD MLOAD DUP2 DUP5 ADD MSTORE PUSH1 0x20 DUP2 ADD SWAP1 POP PUSH2 0x1204 JUMP JUMPDEST PUSH1 0x0 DUP5 DUP5 ADD MSTORE POP POP POP POP JUMP JUMPDEST PUSH1 0x0 PUSH1 0x1F NOT PUSH1 0x1F DUP4 ADD AND SWAP1 POP SWAP2 SWAP1 POP JUMP JUMPDEST PUSH1 0x0 PUSH2 0x1247 DUP3 PUSH2 0x11E5 JUMP JUMPDEST PUSH2 0x1251 DUP2 DUP6 PUSH2 0x11F0 JUMP JUMPDEST SWAP4 POP PUSH2 0x1261 DUP2 DUP6 PUSH1 0x20 DUP7 ADD PUSH2 0x1201 JUMP JUMPDEST PUSH2 0x126A DUP2 PUSH2 0x122B JUMP JUMPDEST DUP5 ADD SWAP2 POP POP SWAP3 SWAP2 POP POP JUMP JUMPDEST PUSH1 0x0 PUSH1 0x20 DUP3 ADD SWAP1 POP DUP2 DUP2 SUB PUSH1 0x0 DUP4 ADD MSTORE PUSH2 0x128F DUP2 DUP5 PUSH2 0x123C JUMP JUMPDEST SWAP1 POP SWAP3 SWAP2 POP POP JUMP JUMPDEST PUSH1 0x0 DUP1 REVERT JUMPDEST PUSH1 0x0 PUSH20 0xFFFFFFFFFFFFFFFFFFFFFFFFFFFFFFFFFFFFFFFF DUP3 AND SWAP1 POP SWAP2 SWAP1 POP JUMP JUMPDEST PUSH1 0x0 PUSH2 0x12C7 DUP3 PUSH2 0x129C JUMP JUMPDEST SWAP1 POP SWAP2 SWAP1 POP JUMP JUMPDEST PUSH2 0x12D7 DUP2 PUSH2 0x12BC JUMP JUMPDEST DUP2 EQ PUSH2 0x12E2 JUMPI PUSH1 0x0 DUP1 REVERT JUMPDEST POP JUMP JUMPDEST PUSH1 0x0 DUP2 CALLDATALOAD SWAP1 POP PUSH2 0x12F4 DUP2 PUSH2 0x12CE JUMP JUMPDEST SWAP3 SWAP2 POP POP JUMP JUMPDEST PUSH1 0x0 DUP2 SWAP1 POP SWAP2 SWAP1 POP JUMP JUMPDEST PUSH2 0x130D DUP2 PUSH2 0x12FA JUMP JUMPDEST DUP2 EQ PUSH2 0x1318 JUMPI PUSH1 0x0 DUP1 REVERT JUMPDEST POP JUMP JUMPDEST PUSH1 0x0 DUP2 CALLDATALOAD SWAP1 POP PUSH2 0x132A DUP2 PUSH2 0x1304 JUMP JUMPDEST SWAP3 SWAP2 POP POP JUMP JUMPDEST PUSH1 0x0 DUP1 PUSH1 0x40 DUP4 DUP6 SUB SLT ISZERO PUSH2 0x1347 JUMPI PUSH2 0x1346 PUSH2 0x1297 JUMP JUMPDEST JUMPDEST PUSH1 0x0 PUSH2 0x1355 DUP6 DUP3 DUP7 ADD PUSH2 0x12E5 JUMP JUMPDEST SWAP3 POP POP PUSH1 0x20 PUSH2 0x1366 DUP6 DUP3 DUP7 ADD PUSH2 0x131B JUMP JUMPDEST SWAP2 POP POP SWAP3 POP SWAP3 SWAP1 POP JUMP JUMPDEST PUSH1 0x0 DUP2 ISZERO ISZERO SWAP1 POP SWAP2 SWAP1 POP JUMP JUMPDEST PUSH2 0x1385 DUP2 PUSH2 0x1370 JUMP JUMPDEST DUP3 MSTORE POP POP JUMP JUMPDEST PUSH1 0x0 PUSH1 0x20 DUP3 ADD SWAP1 POP PUSH2 0x13A0 PUSH1 0x0 DUP4 ADD DUP5 PUSH2 0x137C JUMP JUMPDEST SWAP3 SWAP2 POP POP JUMP JUMPDEST PUSH2 0x13AF DUP2 PUSH2 0x12FA JUMP JUMPDEST DUP3 MSTORE POP POP JUMP JUMPDEST PUSH1 0x0 PUSH1 0x20 DUP3 ADD SWAP1 POP PUSH2 0x13CA PUSH1 0x0 DUP4 ADD DUP5 PUSH2 0x13A6 JUMP JUMPDEST SWAP3 SWAP2 POP POP JUMP JUMPDEST PUSH1 0x0 DUP1 PUSH1 0x0 PUSH1 0x60 DUP5 DUP7 SUB SLT ISZERO PUSH2 0x13E9 JUMPI PUSH2 0x13E8 PUSH2 0x1297 JUMP JUMPDEST JUMPDEST PUSH1 0x0 PUSH2 0x13F7 DUP7 DUP3 DUP8 ADD PUSH2 0x12E5 JUMP JUMPDEST SWAP4 POP POP PUSH1 0x20 PUSH2 0x1408 DUP7 DUP3 DUP8 ADD PUSH2 0x12E5 JUMP JUMPDEST SWAP3 POP POP PUSH1 0x40 PUSH2 0x1419 DUP7 DUP3 DUP8 ADD PUSH2 0x131B JUMP JUMPDEST SWAP2 POP POP SWAP3 POP SWAP3 POP SWAP3 JUMP JUMPDEST PUSH1 0x0 PUSH1 0xFF DUP3 AND SWAP1 POP SWAP2 SWAP1 POP JUMP JUMPDEST PUSH2 0x1439 DUP2 PUSH2 0x1423 JUMP JUMPDEST DUP3 MSTORE POP POP JUMP JUMPDEST PUSH1 0x0 PUSH1 0x20 DUP3 ADD SWAP1 POP PUSH2 0x1454 PUSH1 0x0 DUP4 ADD DUP5 PUSH2 0x1430 JUMP JUMPDEST SWAP3 SWAP2 POP POP JUMP JUMPDEST PUSH1 0x0 PUSH1 0x20 DUP3 DUP5 SUB SLT ISZERO PUSH2 0x1470 JUMPI PUSH2 0x146F PUSH2 0x1297 JUMP JUMPDEST JUMPDEST PUSH1 0x0 PUSH2 0x147E DUP5 DUP3 DUP6 ADD PUSH2 0x12E5 JUMP JUMPDEST SWAP2 POP POP SWAP3 SWAP2 POP POP JUMP JUMPDEST PUSH1 0x0 PUSH1 0x20 DUP3 DUP5 SUB SLT ISZERO PUSH2 0x149D JUMPI PUSH2 0x149C PUSH2 0x1297 JUMP JUMPDEST JUMPDEST PUSH1 0x0 PUSH2 0x14AB DUP5 DUP3 DUP6 ADD PUSH2 0x131B JUMP JUMPDEST SWAP2 POP POP SWAP3 SWAP2 POP POP JUMP JUMPDEST PUSH1 0x0 DUP1 PUSH1 0x40 DUP4 DUP6 SUB SLT ISZERO PUSH2 0x14CB JUMPI PUSH2 0x14CA PUSH2 0x1297 JUMP JUMPDEST JUMPDEST PUSH1 0x0 PUSH2 0x14D9 DUP6 DUP3 DUP7 ADD PUSH2 0x12E5 JUMP JUMPDEST SWAP3 POP POP PUSH1 0x20 PUSH2 0x14EA DUP6 DUP3 DUP7 ADD PUSH2 0x12E5 JUMP JUMPDEST SWAP2 POP POP SWAP3 POP SWAP3 SWAP1 POP JUMP JUMPDEST PUSH32 0x4E487B7100000000000000000000000000000000000000000000000000000000 PUSH1 0x0 MSTORE PUSH1 0x12 PUSH1 0x4 MSTORE PUSH1 0x24 PUSH1 0x0 REVERT JUMPDEST PUSH32 0x4E487B7100000000000000000000000000000000000000000000000000000000 PUSH1 0x0 MSTORE PUSH1 0x11 PUSH1 0x4 MSTORE PUSH1 0x24 PUSH1 0x0 REVERT JUMPDEST PUSH1 0x0 PUSH2 0x155D DUP3 PUSH2 0x12FA JUMP JUMPDEST SWAP2 POP PUSH2 0x1568 DUP4 PUSH2 0x12FA JUMP JUMPDEST SWAP3 POP DUP3 PUSH2 0x1578 JUMPI PUSH2 0x1577 PUSH2 0x14F4 JUMP JUMPDEST JUMPDEST DUP3 DUP3 DIV SWAP1 POP SWAP3 SWAP2 POP POP JUMP JUMPDEST PUSH1 0x0 DUP2 SWAP1 POP SWAP2 SWAP1 POP JUMP JUMPDEST PUSH2 0x159E PUSH2 0x1599 DUP3 PUSH2 0x12FA JUMP JUMPDEST PUSH2 0x1583 JUMP JUMPDEST DUP3 MSTORE POP POP JUMP JUMPDEST PUSH1 0x0 DUP2 PUSH1 0x60 SHL SWAP1 POP SWAP2 SWAP1 POP JUMP JUMPDEST PUSH1 0x0 PUSH2 0x15BC DUP3 PUSH2 0x15A4 JUMP JUMPDEST SWAP1 POP SWAP2 SWAP1 POP JUMP JUMPDEST PUSH1 0x0 PUSH2 0x15CE DUP3 PUSH2 0x15B1 JUMP JUMPDEST SWAP1 POP SWAP2 SWAP1 POP JUMP JUMPDEST PUSH2 0x15E6 PUSH2 0x15E1 DUP3 PUSH2 0x12BC JUMP JUMPDEST PUSH2 0x15C3 JUMP JUMPDEST DUP3 MSTORE POP POP JUMP JUMPDEST PUSH1 0x0 PUSH2 0x15F8 DUP3 DUP7 PUSH2 0x158D JUMP JUMPDEST PUSH1 0x20 DUP3 ADD SWAP2 POP PUSH2 0x1608 DUP3 DUP6 PUSH2 0x158D JUMP JUMPDEST PUSH1 0x20 DUP3 ADD SWAP2 POP PUSH2 0x1618 DUP3 DUP5 PUSH2 0x15D5 JUMP JUMPDEST PUSH1 0x14 DUP3 ADD SWAP2 POP DUP2 SWAP1 POP SWAP5 SWAP4 POP POP POP POP JUMP JUMPDEST PUSH1 0x0 PUSH2 0x1634 DUP3 PUSH2 0x12FA JUMP JUMPDEST SWAP2 POP PUSH2 0x163F DUP4 PUSH2 0x12FA JUMP JUMPDEST SWAP3 POP DUP3 PUSH2 0x164F JUMPI PUSH2 0x164E PUSH2 0x14F4 JUMP JUMPDEST JUMPDEST DUP3 DUP3 MOD SWAP1 POP SWAP3 SWAP2 POP POP JUMP JUMPDEST PUSH1 0x0 PUSH2 0x1665 DUP3 PUSH2 0x12FA JUMP JUMPDEST SWAP2 POP PUSH2 0x1670 DUP4 PUSH2 0x12FA JUMP JUMPDEST SWAP3 POP DUP3 DUP3 SUB SWAP1 POP DUP2 DUP2 GT ISZERO PUSH2 0x1688 JUMPI PUSH2 0x1687 PUSH2 0x1523 JUMP JUMPDEST JUMPDEST SWAP3 SWAP2 POP POP JUMP JUMPDEST PUSH32 0x64732D6D6174682D7375622D756E646572666C6F770000000000000000000000 PUSH1 0x0 DUP3 ADD MSTORE POP JUMP JUMPDEST PUSH1 0x0 PUSH2 0x16C4 PUSH1 0x15 DUP4 PUSH2 0x11F0 JUMP JUMPDEST SWAP2 POP PUSH2 0x16CF DUP3 PUSH2 0x168E JUMP JUMPDEST PUSH1 0x20 DUP3 ADD SWAP1 POP SWAP2 SWAP1 POP JUMP JUMPDEST PUSH1 0x0 PUSH1 0x20 DUP3 ADD SWAP1 POP DUP2 DUP2 SUB PUSH1 0x0 DUP4 ADD MSTORE PUSH2 0x16F3 DUP2 PUSH2 0x16B7 JUMP JUMPDEST SWAP1 POP SWAP2 SWAP1 POP JUMP JUMPDEST PUSH1 0x0 PUSH2 0x1705 DUP3 PUSH2 0x12FA JUMP JUMPDEST SWAP2 POP PUSH2 0x1710 DUP4 PUSH2 0x12FA JUMP JUMPDEST SWAP3 POP DUP3 DUP3 ADD SWAP1 POP DUP1 DUP3 GT ISZERO PUSH2 0x1728 JUMPI PUSH2 0x1727 PUSH2 0x1523 JUMP JUMPDEST JUMPDEST SWAP3 SWAP2 POP POP JUMP JUMPDEST PUSH32 0x64732D6D6174682D6164642D6F766572666C6F77000000000000000000000000 PUSH1 0x0 DUP3 ADD MSTORE POP JUMP JUMPDEST PUSH1 0x0 PUSH2 0x1764 PUSH1 0x14 DUP4 PUSH2 0x11F0 JUMP JUMPDEST SWAP2 POP PUSH2 0x176F DUP3 PUSH2 0x172E JUMP JUMPDEST PUSH1 0x20 DUP3 ADD SWAP1 POP SWAP2 SWAP1 POP JUMP JUMPDEST PUSH1 0x0 PUSH1 0x20 DUP3 ADD SWAP1 POP DUP2 DUP2 SUB PUSH1 0x0 DUP4 ADD MSTORE PUSH2 0x1793 DUP2 PUSH2 0x1757 JUMP JUMPDEST SWAP1 POP SWAP2 SWAP1 POP JUMP INVALID MSIZE PUSH16 0x75206861766520756E6C6F636B656420 PUSH21 0x686520736563726574206D6573736167652E205468 PUSH6 0x207365637265 PUSH21 0x20746F2068617070696E6573732061726520626972 PUSH5 0x2073656564 PUSH20 0x2E4E6F7420656E6F75676820746F6B656E732074 PUSH16 0x206A6F696E2074686520636C75622C20 PUSH20 0x6F7272792153686172696E67206D65616E732063 PUSH2 0x7269 PUSH15 0x672E20596F7520646964206E6F7420 PUSH24 0x616E7420746F2073686172652C20736F2077652061726520 PUSH15 0x6F772073656E64696E672061207261 PUSH15 0x646F6D20616D6F756E74206F662074 PUSH16 0x6B656E7320746F20746865206F746865 PUSH19 0x206163636F756E742E20596F7520616C736F20 PUSH24 0x696C6C206E6F74207365652074686520536563726574204D PUSH6 0x73736167652E KECCAK256 TIMESTAMP PUSH16 0x6F2EA26469706673582212203645E7C3 0x22 0x2B PUSH1 0xCD 0xE3 0xB1 0xDC JUMP JUMPDEST 0xE7 0x22 0xDB EXTCODESIZE 0xEC PUSH15 0x384B313C961639B5A05E2DE8A26473 PUSH16 0x6C634300081300330000000000000000 "
				},
				"gasEstimates": {
					"creation": {
						"codeDepositCost": "1276000",
						"executionCost": "25496",
						"totalCost": "1301496"
					},
					"external": {
						"VIPOnlyCommunityGiving(address,address,uint256)": "infinite",
						"_totalSupply()": "418",
						"allowance(address,address)": "infinite",
						"approve(address,uint256)": "infinite",
						"balanceOf(address)": "2864",
						"decimals()": "380",
						"decreaseAllowance(address,uint256)": "infinite",
						"increaseAllowance(address,uint256)": "infinite",
						"name()": "infinite",
						"randomGenerator(uint256)": "infinite",
						"symbol()": "infinite",
						"totalSupply()": "405",
						"transfer(address,uint256)": "infinite",
						"transferFrom(address,address,uint256)": "infinite"
					},
					"internal": {
						"_transfer(address,address,uint256)": "infinite"
					}
				},
				"methodIdentifiers": {
					"VIPOnlyCommunityGiving(address,address,uint256)": "9ddefa1b",
					"_totalSupply()": "3eaaf86b",
					"allowance(address,address)": "dd62ed3e",
					"approve(address,uint256)": "095ea7b3",
					"balanceOf(address)": "70a08231",
					"decimals()": "313ce567",
					"decreaseAllowance(address,uint256)": "a457c2d7",
					"increaseAllowance(address,uint256)": "39509351",
					"name()": "06fdde03",
					"randomGenerator(uint256)": "acdda499",
					"symbol()": "95d89b41",
					"totalSupply()": "18160ddd",
					"transfer(address,uint256)": "a9059cbb",
					"transferFrom(address,address,uint256)": "23b872dd"
				}
			},
			"storageLayout": {
				"storage": [
					{
						"astId": 32,
						"contract": "budgyToken_v1.sol:BudgyToken",
						"label": "_balances",
						"offset": 0,
						"slot": "0",
						"type": "t_mapping(t_address,t_uint256)"
					},
					{
						"astId": 38,
						"contract": "budgyToken_v1.sol:BudgyToken",
						"label": "_allowed",
						"offset": 0,
						"slot": "1",
						"type": "t_mapping(t_address,t_mapping(t_address,t_uint256))"
					}
				],
				"types": {
					"t_address": {
						"encoding": "inplace",
						"label": "address",
						"numberOfBytes": "20"
					},
					"t_mapping(t_address,t_mapping(t_address,t_uint256))": {
						"encoding": "mapping",
						"key": "t_address",
						"label": "mapping(address => mapping(address => uint256))",
						"numberOfBytes": "32",
						"value": "t_mapping(t_address,t_uint256)"
					},
					"t_mapping(t_address,t_uint256)": {
						"encoding": "mapping",
						"key": "t_address",
						"label": "mapping(address => uint256)",
						"numberOfBytes": "32",
						"value": "t_uint256"
					},
					"t_uint256": {
						"encoding": "inplace",
						"label": "uint256",
						"numberOfBytes": "32"
					}
				}
			},
			"userdoc": {
				"kind": "user",
				"methods": {
					"allowance(address,address)": {
						"notice": "Function to check the amount of tokens that an owner allowed to a spender."
					}
				},
				"version": 1
			}
		}
	}
}