{
	"budgyToken_v2.sol": {
		"BudgyToken": {
			"abi": [
				{
					"inputs": [],
					"stateMutability": "nonpayable",
					"type": "constructor"
				},
				{
					"anonymous": false,
					"inputs": [
						{
							"indexed": true,
							"internalType": "address",
							"name": "owner",
							"type": "address"
						},
						{
							"indexed": true,
							"internalType": "address",
							"name": "spender",
							"type": "address"
						},
						{
							"indexed": false,
							"internalType": "uint256",
							"name": "value",
							"type": "uint256"
						}
					],
					"name": "Approval",
					"type": "event"
				},
				{
					"anonymous": false,
					"inputs": [
						{
							"indexed": true,
							"internalType": "address",
							"name": "from",
							"type": "address"
						},
						{
							"indexed": true,
							"internalType": "address",
							"name": "to",
							"type": "address"
						},
						{
							"indexed": false,
							"internalType": "uint256",
							"name": "value",
							"type": "uint256"
						}
					],
					"name": "Transfer",
					"type": "event"
				},
				{
					"inputs": [
						{
							"internalType": "address",
							"name": "owner",
							"type": "address"
						},
						{
							"internalType": "address",
							"name": "friend",
							"type": "address"
						}
					],
					"name": "VIPOnly",
					"outputs": [
						{
							"internalType": "string",
							"name": "",
							"type": "string"
						}
					],
					"stateMutability": "nonpayable",
					"type": "function"
				},
				{
					"inputs": [],
					"name": "_totalSupply",
					"outputs": [
						{
							"internalType": "uint256",
							"name": "",
							"type": "uint256"
						}
					],
					"stateMutability": "view",
					"type": "function"
				},
				{
					"inputs": [
						{
							"internalType": "address",
							"name": "owner",
							"type": "address"
						},
						{
							"internalType": "address",
							"name": "spender",
							"type": "address"
						}
					],
					"name": "allowance",
					"outputs": [
						{
							"internalType": "uint256",
							"name": "",
							"type": "uint256"
						}
					],
					"stateMutability": "view",
					"type": "function"
				},
				{
					"inputs": [
						{
							"internalType": "address",
							"name": "spender",
							"type": "address"
						},
						{
							"internalType": "uint256",
							"name": "value",
							"type": "uint256"
						}
					],
					"name": "approve",
					"outputs": [
						{
							"internalType": "bool",
							"name": "",
							"type": "bool"
						}
					],
					"stateMutability": "nonpayable",
					"type": "function"
				},
				{
					"inputs": [],
					"name": "array_length",
					"outputs": [
						{
							"internalType": "uint256",
							"name": "",
							"type": "uint256"
						}
					],
					"stateMutability": "view",
					"type": "function"
				},
				{
					"inputs": [
						{
							"internalType": "address",
							"name": "owner",
							"type": "address"
						}
					],
					"name": "balanceOf",
					"outputs": [
						{
							"internalType": "uint256",
							"name": "",
							"type": "uint256"
						}
					],
					"stateMutability": "view",
					"type": "function"
				},
				{
					"inputs": [
						{
							"internalType": "address",
							"name": "_userAddress",
							"type": "address"
						},
						{
							"internalType": "uint256",
							"name": "_userId",
							"type": "uint256"
						}
					],
					"name": "createUser",
					"outputs": [
						{
							"internalType": "address[]",
							"name": "",
							"type": "address[]"
						}
					],
					"stateMutability": "nonpayable",
					"type": "function"
				},
				{
					"inputs": [],
					"name": "decimals",
					"outputs": [
						{
							"internalType": "uint8",
							"name": "",
							"type": "uint8"
						}
					],
					"stateMutability": "view",
					"type": "function"
				},
				{
					"inputs": [
						{
							"internalType": "address",
							"name": "spender",
							"type": "address"
						},
						{
							"internalType": "uint256",
							"name": "subtractedValue",
							"type": "uint256"
						}
					],
					"name": "decreaseAllowance",
					"outputs": [
						{
							"internalType": "bool",
							"name": "",
							"type": "bool"
						}
					],
					"stateMutability": "nonpayable",
					"type": "function"
				},
				{
					"inputs": [
						{
							"internalType": "address",
							"name": "spender",
							"type": "address"
						},
						{
							"internalType": "uint256",
							"name": "addedValue",
							"type": "uint256"
						}
					],
					"name": "increaseAllowance",
					"outputs": [
						{
							"internalType": "bool",
							"name": "",
							"type": "bool"
						}
					],
					"stateMutability": "nonpayable",
					"type": "function"
				},
				{
					"inputs": [],
					"name": "name",
					"outputs": [
						{
							"internalType": "string",
							"name": "",
							"type": "string"
						}
					],
					"stateMutability": "view",
					"type": "function"
				},
				{
					"inputs": [
						{
							"internalType": "uint256",
							"name": "number",
							"type": "uint256"
						}
					],
					"name": "randomGenerator",
					"outputs": [
						{
							"internalType": "uint256",
							"name": "",
							"type": "uint256"
						}
					],
					"stateMutability": "view",
					"type": "function"
				},
				{
					"inputs": [],
					"name": "symbol",
					"outputs": [
						{
							"internalType": "string",
							"name": "",
							"type": "string"
						}
					],
					"stateMutability": "view",
					"type": "function"
				},
				{
					"inputs": [],
					"name": "tokenOwner",
					"outputs": [
						{
							"internalType": "address",
							"name": "",
							"type": "address"
						}
					],
					"stateMutability": "view",
					"type": "function"
				},
				{
					"inputs": [],
					"name": "totalSupply",
					"outputs": [
						{
							"internalType": "uint256",
							"name": "",
							"type": "uint256"
						}
					],
					"stateMutability": "pure",
					"type": "function"
				},
				{
					"inputs": [
						{
							"internalType": "address",
							"name": "to",
							"type": "address"
						},
						{
							"internalType": "uint256",
							"name": "value",
							"type": "uint256"
						}
					],
					"name": "transfer",
					"outputs": [
						{
							"internalType": "bool",
							"name": "",
							"type": "bool"
						}
					],
					"stateMutability": "nonpayable",
					"type": "function"
				},
				{
					"inputs": [
						{
							"internalType": "address",
							"name": "from",
							"type": "address"
						},
						{
							"internalType": "address",
							"name": "to",
							"type": "address"
						},
						{
							"internalType": "uint256",
							"name": "value",
							"type": "uint256"
						}
					],
					"name": "transferFrom",
					"outputs": [
						{
							"internalType": "bool",
							"name": "",
							"type": "bool"
						}
					],
					"stateMutability": "nonpayable",
					"type": "function"
				},
				{
					"inputs": [],
					"name": "unitsOneEthCanBuy",
					"outputs": [
						{
							"internalType": "uint256",
							"name": "",
							"type": "uint256"
						}
					],
					"stateMutability": "view",
					"type": "function"
				},
				{
					"inputs": [
						{
							"internalType": "address",
							"name": "",
							"type": "address"
						}
					],
					"name": "users",
					"outputs": [
						{
							"internalType": "uint256",
							"name": "id",
							"type": "uint256"
						},
						{
							"internalType": "bool",
							"name": "set",
							"type": "bool"
						}
					],
					"stateMutability": "view",
					"type": "function"
				},
				{
					"stateMutability": "payable",
					"type": "receive"
				}
			],
			"devdoc": {
				"kind": "dev",
				"methods": {},
				"version": 1
			},
			"evm": {
				"assembly": "    /* \"budgyToken_v2.sol\":500:5306  contract BudgyToken is IERC20 {... */\n  mstore(0x40, 0x80)\n    /* \"budgyToken_v2.sol\":936:938  42 */\n  0x2a\n    /* \"budgyToken_v2.sol\":900:938  uint256 public unitsOneEthCanBuy  = 42 */\n  0x00\n  sstore\n    /* \"budgyToken_v2.sol\":1171:1432  constructor () {... */\n  callvalue\n  dup1\n  iszero\n  tag_1\n  jumpi\n  0x00\n  dup1\n  revert\ntag_1:\n  pop\n    /* \"budgyToken_v2.sol\":1206:1216  msg.sender */\n  caller\n    /* \"budgyToken_v2.sol\":1193:1203  tokenOwner */\n  0x05\n  0x00\n    /* \"budgyToken_v2.sol\":1193:1216  tokenOwner = msg.sender */\n  0x0100\n  exp\n  dup2\n  sload\n  dup2\n  0xffffffffffffffffffffffffffffffffffffffff\n  mul\n  not\n  and\n  swap1\n  dup4\n  0xffffffffffffffffffffffffffffffffffffffff\n  and\n  mul\n  or\n  swap1\n  sstore\n  pop\n    /* \"budgyToken_v2.sol\":607:613  10**18 */\n  0x0de0b6b3a7640000\n    /* \"budgyToken_v2.sol\":1225:1234  _balances */\n  0x02\n    /* \"budgyToken_v2.sol\":1225:1246  _balances[tokenOwner] */\n  0x00\n    /* \"budgyToken_v2.sol\":1235:1245  tokenOwner */\n  0x05\n  0x00\n  swap1\n  sload\n  swap1\n  0x0100\n  exp\n  swap1\n  div\n  0xffffffffffffffffffffffffffffffffffffffff\n  and\n    /* \"budgyToken_v2.sol\":1225:1246  _balances[tokenOwner] */\n  0xffffffffffffffffffffffffffffffffffffffff\n  and\n  0xffffffffffffffffffffffffffffffffffffffff\n  and\n  dup2\n  mstore\n  0x20\n  add\n  swap1\n  dup2\n  mstore\n  0x20\n  add\n  0x00\n  keccak256\n    /* \"budgyToken_v2.sol\":1225:1261  _balances[tokenOwner] = _totalSupply */\n  dup2\n  swap1\n  sstore\n  pop\n    /* \"budgyToken_v2.sol\":1400:1410  tokenOwner */\n  0x05\n  0x00\n  swap1\n  sload\n  swap1\n  0x0100\n  exp\n  swap1\n  div\n  0xffffffffffffffffffffffffffffffffffffffff\n  and\n    /* \"budgyToken_v2.sol\":1379:1426  Transfer(address(0), tokenOwner , _totalSupply) */\n  0xffffffffffffffffffffffffffffffffffffffff\n  and\n    /* \"budgyToken_v2.sol\":1396:1397  0 */\n  0x00\n    /* \"budgyToken_v2.sol\":1379:1426  Transfer(address(0), tokenOwner , _totalSupply) */\n  0xffffffffffffffffffffffffffffffffffffffff\n  and\n  0xddf252ad1be2c89b69c2b068fc378daa952ba7f163c4a11628f55a4df523b3ef\n    /* \"budgyToken_v2.sol\":607:613  10**18 */\n  0x0de0b6b3a7640000\n    /* \"budgyToken_v2.sol\":1379:1426  Transfer(address(0), tokenOwner , _totalSupply) */\n  mload(0x40)\n  tag_4\n  swap2\n  swap1\n  tag_5\n  jump\t// in\ntag_4:\n  mload(0x40)\n  dup1\n  swap2\n  sub\n  swap1\n  log3\n    /* \"budgyToken_v2.sol\":500:5306  contract BudgyToken is IERC20 {... */\n  jump(tag_6)\n    /* \"#utility.yul\":7:84   */\ntag_7:\n    /* \"#utility.yul\":44:51   */\n  0x00\n    /* \"#utility.yul\":73:78   */\n  dup2\n    /* \"#utility.yul\":62:78   */\n  swap1\n  pop\n    /* \"#utility.yul\":7:84   */\n  swap2\n  swap1\n  pop\n  jump\t// out\n    /* \"#utility.yul\":90:208   */\ntag_8:\n    /* \"#utility.yul\":177:201   */\n  tag_12\n    /* \"#utility.yul\":195:200   */\n  dup2\n    /* \"#utility.yul\":177:201   */\n  tag_7\n  jump\t// in\ntag_12:\n    /* \"#utility.yul\":172:175   */\n  dup3\n    /* \"#utility.yul\":165:202   */\n  mstore\n    /* \"#utility.yul\":90:208   */\n  pop\n  pop\n  jump\t// out\n    /* \"#utility.yul\":214:436   */\ntag_5:\n    /* \"#utility.yul\":307:311   */\n  0x00\n    /* \"#utility.yul\":345:347   */\n  0x20\n    /* \"#utility.yul\":334:343   */\n  dup3\n    /* \"#utility.yul\":330:348   */\n  add\n    /* \"#utility.yul\":322:348   */\n  swap1\n  pop\n    /* \"#utility.yul\":358:429   */\n  tag_14\n    /* \"#utility.yul\":426:427   */\n  0x00\n    /* \"#utility.yul\":415:424   */\n  dup4\n    /* \"#utility.yul\":411:428   */\n  add\n    /* \"#utility.yul\":402:408   */\n  dup5\n    /* \"#utility.yul\":358:429   */\n  tag_8\n  jump\t// in\ntag_14:\n    /* \"#utility.yul\":214:436   */\n  swap3\n  swap2\n  pop\n  pop\n  jump\t// out\n    /* \"budgyToken_v2.sol\":500:5306  contract BudgyToken is IERC20 {... */\ntag_6:\n  dataSize(sub_0)\n  dup1\n  dataOffset(sub_0)\n  0x00\n  codecopy\n  0x00\n  return\nstop\n\nsub_0: assembly {\n        /* \"budgyToken_v2.sol\":500:5306  contract BudgyToken is IERC20 {... */\n      mstore(0x40, 0x80)\n      jumpi(tag_1, lt(calldatasize, 0x04))\n      shr(0xe0, calldataload(0x00))\n      dup1\n      0x65f2bc2e\n      gt\n      tag_22\n      jumpi\n      dup1\n      0xa457c2d7\n      gt\n      tag_23\n      jumpi\n      dup1\n      0xa457c2d7\n      eq\n      tag_17\n      jumpi\n      dup1\n      0xa87430ba\n      eq\n      tag_18\n      jumpi\n      dup1\n      0xa9059cbb\n      eq\n      tag_19\n      jumpi\n      dup1\n      0xacdda499\n      eq\n      tag_20\n      jumpi\n      dup1\n      0xdd62ed3e\n      eq\n      tag_21\n      jumpi\n      jump(tag_2)\n    tag_23:\n      dup1\n      0x65f2bc2e\n      eq\n      tag_12\n      jumpi\n      dup1\n      0x70a08231\n      eq\n      tag_13\n      jumpi\n      dup1\n      0x93dfc8eb\n      eq\n      tag_14\n      jumpi\n      dup1\n      0x95d89b41\n      eq\n      tag_15\n      jumpi\n      dup1\n      0xa3e67610\n      eq\n      tag_16\n      jumpi\n      jump(tag_2)\n    tag_22:\n      dup1\n      0x1e8d2299\n      gt\n      tag_24\n      jumpi\n      dup1\n      0x1e8d2299\n      eq\n      tag_7\n      jumpi\n      dup1\n      0x23b872dd\n      eq\n      tag_8\n      jumpi\n      dup1\n      0x313ce567\n      eq\n      tag_9\n      jumpi\n      dup1\n      0x39509351\n      eq\n      tag_10\n      jumpi\n      dup1\n      0x3eaaf86b\n      eq\n      tag_11\n      jumpi\n      jump(tag_2)\n    tag_24:\n      dup1\n      0x06fdde03\n      eq\n      tag_3\n      jumpi\n      dup1\n      0x095ea7b3\n      eq\n      tag_4\n      jumpi\n      dup1\n      0x0cc008bd\n      eq\n      tag_5\n      jumpi\n      dup1\n      0x18160ddd\n      eq\n      tag_6\n      jumpi\n      jump(tag_2)\n    tag_1:\n      jumpi(tag_2, calldatasize)\n        /* \"budgyToken_v2.sol\":1591:1605  uint256 amount */\n      0x00\n        /* \"budgyToken_v2.sol\":1620:1637  unitsOneEthCanBuy */\n      dup1\n      sload\n        /* \"budgyToken_v2.sol\":1608:1617  msg.value */\n      callvalue\n        /* \"budgyToken_v2.sol\":1608:1637  msg.value * unitsOneEthCanBuy */\n      tag_27\n      swap2\n      swap1\n      tag_28\n      jump\t// in\n    tag_27:\n        /* \"budgyToken_v2.sol\":1591:1637  uint256 amount = msg.value * unitsOneEthCanBuy */\n      swap1\n      pop\n        /* \"budgyToken_v2.sol\":1679:1685  amount */\n      dup1\n        /* \"budgyToken_v2.sol\":1654:1675  balanceOf(tokenOwner) */\n      tag_29\n        /* \"budgyToken_v2.sol\":1664:1674  tokenOwner */\n      0x05\n      0x00\n      swap1\n      sload\n      swap1\n      0x0100\n      exp\n      swap1\n      div\n      0xffffffffffffffffffffffffffffffffffffffff\n      and\n        /* \"budgyToken_v2.sol\":1654:1663  balanceOf */\n      tag_30\n        /* \"budgyToken_v2.sol\":1654:1675  balanceOf(tokenOwner) */\n      jump\t// in\n    tag_29:\n        /* \"budgyToken_v2.sol\":1654:1685  balanceOf(tokenOwner) >= amount */\n      lt\n      iszero\n        /* \"budgyToken_v2.sol\":1646:1717  require(balanceOf(tokenOwner) >= amount, ... */\n      tag_31\n      jumpi\n      mload(0x40)\n      0x08c379a000000000000000000000000000000000000000000000000000000000\n      dup2\n      mstore\n      0x04\n      add\n      tag_32\n      swap1\n      tag_33\n      jump\t// in\n    tag_32:\n      mload(0x40)\n      dup1\n      swap2\n      sub\n      swap1\n      revert\n    tag_31:\n        /* \"budgyToken_v2.sol\":1726:1767  _transfer(tokenOwner, msg.sender, amount) */\n      tag_34\n        /* \"budgyToken_v2.sol\":1736:1746  tokenOwner */\n      0x05\n      0x00\n      swap1\n      sload\n      swap1\n      0x0100\n      exp\n      swap1\n      div\n      0xffffffffffffffffffffffffffffffffffffffff\n      and\n        /* \"budgyToken_v2.sol\":1748:1758  msg.sender */\n      caller\n        /* \"budgyToken_v2.sol\":1760:1766  amount */\n      dup4\n        /* \"budgyToken_v2.sol\":1726:1735  _transfer */\n      tag_35\n        /* \"budgyToken_v2.sol\":1726:1767  _transfer(tokenOwner, msg.sender, amount) */\n      jump\t// in\n    tag_34:\n        /* \"budgyToken_v2.sol\":1807:1817  msg.sender */\n      caller\n        /* \"budgyToken_v2.sol\":1786:1826  Transfer(tokenOwner, msg.sender, amount) */\n      0xffffffffffffffffffffffffffffffffffffffff\n      and\n        /* \"budgyToken_v2.sol\":1795:1805  tokenOwner */\n      0x05\n      0x00\n      swap1\n      sload\n      swap1\n      0x0100\n      exp\n      swap1\n      div\n      0xffffffffffffffffffffffffffffffffffffffff\n      and\n        /* \"budgyToken_v2.sol\":1786:1826  Transfer(tokenOwner, msg.sender, amount) */\n      0xffffffffffffffffffffffffffffffffffffffff\n      and\n      0xddf252ad1be2c89b69c2b068fc378daa952ba7f163c4a11628f55a4df523b3ef\n        /* \"budgyToken_v2.sol\":1819:1825  amount */\n      dup4\n        /* \"budgyToken_v2.sol\":1786:1826  Transfer(tokenOwner, msg.sender, amount) */\n      mload(0x40)\n      tag_36\n      swap2\n      swap1\n      tag_37\n      jump\t// in\n    tag_36:\n      mload(0x40)\n      dup1\n      swap2\n      sub\n      swap1\n      log3\n        /* \"budgyToken_v2.sol\":1843:1853  tokenOwner */\n      0x05\n      0x00\n      swap1\n      sload\n      swap1\n      0x0100\n      exp\n      swap1\n      div\n      0xffffffffffffffffffffffffffffffffffffffff\n      and\n        /* \"budgyToken_v2.sol\":1835:1863  payable(tokenOwner).transfer */\n      0xffffffffffffffffffffffffffffffffffffffff\n      and\n        /* \"budgyToken_v2.sol\":1835:1874  payable(tokenOwner).transfer(msg.value) */\n      0x08fc\n        /* \"budgyToken_v2.sol\":1864:1873  msg.value */\n      callvalue\n        /* \"budgyToken_v2.sol\":1835:1874  payable(tokenOwner).transfer(msg.value) */\n      swap1\n      dup2\n      iszero\n      mul\n      swap1\n      mload(0x40)\n      0x00\n      mload(0x40)\n      dup1\n      dup4\n      sub\n      dup2\n      dup6\n      dup9\n      dup9\n      call\n      swap4\n      pop\n      pop\n      pop\n      pop\n      iszero\n      dup1\n      iszero\n      tag_39\n      jumpi\n      returndatasize\n      0x00\n      dup1\n      returndatacopy\n      revert(0x00, returndatasize)\n    tag_39:\n      stop\n        /* \"budgyToken_v2.sol\":500:5306  contract BudgyToken is IERC20 {... */\n    tag_2:\n      0x00\n      dup1\n      revert\n        /* \"budgyToken_v2.sol\":618:670  string public override constant name = 'Budgy Token' */\n    tag_3:\n      callvalue\n      dup1\n      iszero\n      tag_40\n      jumpi\n      0x00\n      dup1\n      revert\n    tag_40:\n      pop\n      tag_41\n      tag_42\n      jump\t// in\n    tag_41:\n      mload(0x40)\n      tag_43\n      swap2\n      swap1\n      tag_44\n      jump\t// in\n    tag_43:\n      mload(0x40)\n      dup1\n      swap2\n      sub\n      swap1\n      return\n        /* \"budgyToken_v2.sol\":3070:3303  function approve(address spender, uint256 value) public override returns (bool) {... */\n    tag_4:\n      callvalue\n      dup1\n      iszero\n      tag_45\n      jumpi\n      0x00\n      dup1\n      revert\n    tag_45:\n      pop\n      tag_46\n      0x04\n      dup1\n      calldatasize\n      sub\n      dup2\n      add\n      swap1\n      tag_47\n      swap2\n      swap1\n      tag_48\n      jump\t// in\n    tag_47:\n      tag_49\n      jump\t// in\n    tag_46:\n      mload(0x40)\n      tag_50\n      swap2\n      swap1\n      tag_51\n      jump\t// in\n    tag_50:\n      mload(0x40)\n      dup1\n      swap2\n      sub\n      swap1\n      return\n        /* \"budgyToken_v2.sol\":4721:4841  function array_length() public view returns(uint256) {  ... */\n    tag_5:\n      callvalue\n      dup1\n      iszero\n      tag_52\n      jumpi\n      0x00\n      dup1\n      revert\n    tag_52:\n      pop\n      tag_53\n      tag_54\n      jump\t// in\n    tag_53:\n      mload(0x40)\n      tag_55\n      swap2\n      swap1\n      tag_37\n      jump\t// in\n    tag_55:\n      mload(0x40)\n      dup1\n      swap2\n      sub\n      swap1\n      return\n        /* \"budgyToken_v2.sol\":1890:1986  function totalSupply() external override pure returns (uint256) {... */\n    tag_6:\n      callvalue\n      dup1\n      iszero\n      tag_56\n      jumpi\n      0x00\n      dup1\n      revert\n    tag_56:\n      pop\n      tag_57\n      tag_58\n      jump\t// in\n    tag_57:\n      mload(0x40)\n      tag_59\n      swap2\n      swap1\n      tag_37\n      jump\t// in\n    tag_59:\n      mload(0x40)\n      dup1\n      swap2\n      sub\n      swap1\n      return\n        /* \"budgyToken_v2.sol\":4852:5301  function VIPOnly(address owner, address friend) public returns(string memory){... */\n    tag_7:\n      callvalue\n      dup1\n      iszero\n      tag_60\n      jumpi\n      0x00\n      dup1\n      revert\n    tag_60:\n      pop\n      tag_61\n      0x04\n      dup1\n      calldatasize\n      sub\n      dup2\n      add\n      swap1\n      tag_62\n      swap2\n      swap1\n      tag_63\n      jump\t// in\n    tag_62:\n      tag_64\n      jump\t// in\n    tag_61:\n      mload(0x40)\n      tag_65\n      swap2\n      swap1\n      tag_44\n      jump\t// in\n    tag_65:\n      mload(0x40)\n      dup1\n      swap2\n      sub\n      swap1\n      return\n        /* \"budgyToken_v2.sol\":3529:3876  function transferFrom( address from, address to, uint256 value) public override returns (bool){... */\n    tag_8:\n      callvalue\n      dup1\n      iszero\n      tag_66\n      jumpi\n      0x00\n      dup1\n      revert\n    tag_66:\n      pop\n      tag_67\n      0x04\n      dup1\n      calldatasize\n      sub\n      dup2\n      add\n      swap1\n      tag_68\n      swap2\n      swap1\n      tag_69\n      jump\t// in\n    tag_68:\n      tag_70\n      jump\t// in\n    tag_67:\n      mload(0x40)\n      tag_71\n      swap2\n      swap1\n      tag_51\n      jump\t// in\n    tag_71:\n      mload(0x40)\n      dup1\n      swap2\n      sub\n      swap1\n      return\n        /* \"budgyToken_v2.sol\":675:719  uint8 public override constant decimals = 10 */\n    tag_9:\n      callvalue\n      dup1\n      iszero\n      tag_72\n      jumpi\n      0x00\n      dup1\n      revert\n    tag_72:\n      pop\n      tag_73\n      tag_74\n      jump\t// in\n    tag_73:\n      mload(0x40)\n      tag_75\n      swap2\n      swap1\n      tag_76\n      jump\t// in\n    tag_75:\n      mload(0x40)\n      dup1\n      swap2\n      sub\n      swap1\n      return\n        /* \"budgyToken_v2.sol\":3882:4198  function increaseAllowance( address spender, uint256 addedValue ) public returns (bool){... */\n    tag_10:\n      callvalue\n      dup1\n      iszero\n      tag_77\n      jumpi\n      0x00\n      dup1\n      revert\n    tag_77:\n      pop\n      tag_78\n      0x04\n      dup1\n      calldatasize\n      sub\n      dup2\n      add\n      swap1\n      tag_79\n      swap2\n      swap1\n      tag_48\n      jump\t// in\n    tag_79:\n      tag_80\n      jump\t// in\n    tag_78:\n      mload(0x40)\n      tag_81\n      swap2\n      swap1\n      tag_51\n      jump\t// in\n    tag_81:\n      mload(0x40)\n      dup1\n      swap2\n      sub\n      swap1\n      return\n        /* \"budgyToken_v2.sol\":568:613  uint256 public constant _totalSupply = 10**18 */\n    tag_11:\n      callvalue\n      dup1\n      iszero\n      tag_82\n      jumpi\n      0x00\n      dup1\n      revert\n    tag_82:\n      pop\n      tag_83\n      tag_84\n      jump\t// in\n    tag_83:\n      mload(0x40)\n      tag_85\n      swap2\n      swap1\n      tag_37\n      jump\t// in\n    tag_85:\n      mload(0x40)\n      dup1\n      swap2\n      sub\n      swap1\n      return\n        /* \"budgyToken_v2.sol\":900:938  uint256 public unitsOneEthCanBuy  = 42 */\n    tag_12:\n      callvalue\n      dup1\n      iszero\n      tag_86\n      jumpi\n      0x00\n      dup1\n      revert\n    tag_86:\n      pop\n      tag_87\n      tag_88\n      jump\t// in\n    tag_87:\n      mload(0x40)\n      tag_89\n      swap2\n      swap1\n      tag_37\n      jump\t// in\n    tag_89:\n      mload(0x40)\n      dup1\n      swap2\n      sub\n      swap1\n      return\n        /* \"budgyToken_v2.sol\":1998:2107  function balanceOf(address owner) public override view returns (uint256) {... */\n    tag_13:\n      callvalue\n      dup1\n      iszero\n      tag_90\n      jumpi\n      0x00\n      dup1\n      revert\n    tag_90:\n      pop\n      tag_91\n      0x04\n      dup1\n      calldatasize\n      sub\n      dup2\n      add\n      swap1\n      tag_92\n      swap2\n      swap1\n      tag_93\n      jump\t// in\n    tag_92:\n      tag_30\n      jump\t// in\n    tag_91:\n      mload(0x40)\n      tag_94\n      swap2\n      swap1\n      tag_37\n      jump\t// in\n    tag_94:\n      mload(0x40)\n      dup1\n      swap2\n      sub\n      swap1\n      return\n        /* \"budgyToken_v2.sol\":2113:2495  function createUser(address _userAddress, uint256 _userId) public returns (address[] memory){... */\n    tag_14:\n      callvalue\n      dup1\n      iszero\n      tag_95\n      jumpi\n      0x00\n      dup1\n      revert\n    tag_95:\n      pop\n      tag_96\n      0x04\n      dup1\n      calldatasize\n      sub\n      dup2\n      add\n      swap1\n      tag_97\n      swap2\n      swap1\n      tag_48\n      jump\t// in\n    tag_97:\n      tag_98\n      jump\t// in\n    tag_96:\n      mload(0x40)\n      tag_99\n      swap2\n      swap1\n      tag_100\n      jump\t// in\n    tag_99:\n      mload(0x40)\n      dup1\n      swap2\n      sub\n      swap1\n      return\n        /* \"budgyToken_v2.sol\":724:771  string public override constant symbol = 'BDGY' */\n    tag_15:\n      callvalue\n      dup1\n      iszero\n      tag_101\n      jumpi\n      0x00\n      dup1\n      revert\n    tag_101:\n      pop\n      tag_102\n      tag_103\n      jump\t// in\n    tag_102:\n      mload(0x40)\n      tag_104\n      swap2\n      swap1\n      tag_44\n      jump\t// in\n    tag_104:\n      mload(0x40)\n      dup1\n      swap2\n      sub\n      swap1\n      return\n        /* \"budgyToken_v2.sol\":1139:1164  address public tokenOwner */\n    tag_16:\n      callvalue\n      dup1\n      iszero\n      tag_105\n      jumpi\n      0x00\n      dup1\n      revert\n    tag_105:\n      pop\n      tag_106\n      tag_107\n      jump\t// in\n    tag_106:\n      mload(0x40)\n      tag_108\n      swap2\n      swap1\n      tag_109\n      jump\t// in\n    tag_108:\n      mload(0x40)\n      dup1\n      swap2\n      sub\n      swap1\n      return\n        /* \"budgyToken_v2.sol\":4204:4527  function decreaseAllowance(address spender,uint256 subtractedValue) public returns (bool){... */\n    tag_17:\n      callvalue\n      dup1\n      iszero\n      tag_110\n      jumpi\n      0x00\n      dup1\n      revert\n    tag_110:\n      pop\n      tag_111\n      0x04\n      dup1\n      calldatasize\n      sub\n      dup2\n      add\n      swap1\n      tag_112\n      swap2\n      swap1\n      tag_48\n      jump\t// in\n    tag_112:\n      tag_113\n      jump\t// in\n    tag_111:\n      mload(0x40)\n      tag_114\n      swap2\n      swap1\n      tag_51\n      jump\t// in\n    tag_114:\n      mload(0x40)\n      dup1\n      swap2\n      sub\n      swap1\n      return\n        /* \"budgyToken_v2.sol\":1095:1132  mapping(address => User) public users */\n    tag_18:\n      callvalue\n      dup1\n      iszero\n      tag_115\n      jumpi\n      0x00\n      dup1\n      revert\n    tag_115:\n      pop\n      tag_116\n      0x04\n      dup1\n      calldatasize\n      sub\n      dup2\n      add\n      swap1\n      tag_117\n      swap2\n      swap1\n      tag_93\n      jump\t// in\n    tag_117:\n      tag_118\n      jump\t// in\n    tag_116:\n      mload(0x40)\n      tag_119\n      swap3\n      swap2\n      swap1\n      tag_120\n      jump\t// in\n    tag_119:\n      mload(0x40)\n      dup1\n      swap2\n      sub\n      swap1\n      return\n        /* \"budgyToken_v2.sol\":2731:3064  function transfer(address to, uint256 value) public override returns (bool) {... */\n    tag_19:\n      callvalue\n      dup1\n      iszero\n      tag_121\n      jumpi\n      0x00\n      dup1\n      revert\n    tag_121:\n      pop\n      tag_122\n      0x04\n      dup1\n      calldatasize\n      sub\n      dup2\n      add\n      swap1\n      tag_123\n      swap2\n      swap1\n      tag_48\n      jump\t// in\n    tag_123:\n      tag_124\n      jump\t// in\n    tag_122:\n      mload(0x40)\n      tag_125\n      swap2\n      swap1\n      tag_51\n      jump\t// in\n    tag_125:\n      mload(0x40)\n      dup1\n      swap2\n      sub\n      swap1\n      return\n        /* \"budgyToken_v2.sol\":4533:4713  function randomGenerator(uint256 number) public view returns (uint256){... */\n    tag_20:\n      callvalue\n      dup1\n      iszero\n      tag_126\n      jumpi\n      0x00\n      dup1\n      revert\n    tag_126:\n      pop\n      tag_127\n      0x04\n      dup1\n      calldatasize\n      sub\n      dup2\n      add\n      swap1\n      tag_128\n      swap2\n      swap1\n      tag_129\n      jump\t// in\n    tag_128:\n      tag_130\n      jump\t// in\n    tag_127:\n      mload(0x40)\n      tag_131\n      swap2\n      swap1\n      tag_37\n      jump\t// in\n    tag_131:\n      mload(0x40)\n      dup1\n      swap2\n      sub\n      swap1\n      return\n        /* \"budgyToken_v2.sol\":2594:2725  function allowance(address owner,address spender)public override view returns (uint256){... */\n    tag_21:\n      callvalue\n      dup1\n      iszero\n      tag_132\n      jumpi\n      0x00\n      dup1\n      revert\n    tag_132:\n      pop\n      tag_133\n      0x04\n      dup1\n      calldatasize\n      sub\n      dup2\n      add\n      swap1\n      tag_134\n      swap2\n      swap1\n      tag_63\n      jump\t// in\n    tag_134:\n      tag_135\n      jump\t// in\n    tag_133:\n      mload(0x40)\n      tag_136\n      swap2\n      swap1\n      tag_37\n      jump\t// in\n    tag_136:\n      mload(0x40)\n      dup1\n      swap2\n      sub\n      swap1\n      return\n        /* \"budgyToken_v2.sol\":1998:2107  function balanceOf(address owner) public override view returns (uint256) {... */\n    tag_30:\n        /* \"budgyToken_v2.sol\":2062:2069  uint256 */\n      0x00\n        /* \"budgyToken_v2.sol\":2085:2094  _balances */\n      0x02\n        /* \"budgyToken_v2.sol\":2085:2101  _balances[owner] */\n      0x00\n        /* \"budgyToken_v2.sol\":2095:2100  owner */\n      dup4\n        /* \"budgyToken_v2.sol\":2085:2101  _balances[owner] */\n      0xffffffffffffffffffffffffffffffffffffffff\n      and\n      0xffffffffffffffffffffffffffffffffffffffff\n      and\n      dup2\n      mstore\n      0x20\n      add\n      swap1\n      dup2\n      mstore\n      0x20\n      add\n      0x00\n      keccak256\n      sload\n        /* \"budgyToken_v2.sol\":2078:2101  return _balances[owner] */\n      swap1\n      pop\n        /* \"budgyToken_v2.sol\":1998:2107  function balanceOf(address owner) public override view returns (uint256) {... */\n      swap2\n      swap1\n      pop\n      jump\t// out\n        /* \"budgyToken_v2.sol\":3309:3523  function _transfer(address from, address to, uint value) private {... */\n    tag_35:\n        /* \"budgyToken_v2.sol\":3401:3427  _balances[from].sub(value) */\n      tag_139\n        /* \"budgyToken_v2.sol\":3421:3426  value */\n      dup2\n        /* \"budgyToken_v2.sol\":3401:3410  _balances */\n      0x02\n        /* \"budgyToken_v2.sol\":3401:3416  _balances[from] */\n      0x00\n        /* \"budgyToken_v2.sol\":3411:3415  from */\n      dup7\n        /* \"budgyToken_v2.sol\":3401:3416  _balances[from] */\n      0xffffffffffffffffffffffffffffffffffffffff\n      and\n      0xffffffffffffffffffffffffffffffffffffffff\n      and\n      dup2\n      mstore\n      0x20\n      add\n      swap1\n      dup2\n      mstore\n      0x20\n      add\n      0x00\n      keccak256\n      sload\n        /* \"budgyToken_v2.sol\":3401:3420  _balances[from].sub */\n      tag_140\n      swap1\n        /* \"budgyToken_v2.sol\":3401:3427  _balances[from].sub(value) */\n      swap2\n      swap1\n      0xffffffff\n      and\n      jump\t// in\n    tag_139:\n        /* \"budgyToken_v2.sol\":3383:3392  _balances */\n      0x02\n        /* \"budgyToken_v2.sol\":3383:3398  _balances[from] */\n      0x00\n        /* \"budgyToken_v2.sol\":3393:3397  from */\n      dup6\n        /* \"budgyToken_v2.sol\":3383:3398  _balances[from] */\n      0xffffffffffffffffffffffffffffffffffffffff\n      and\n      0xffffffffffffffffffffffffffffffffffffffff\n      and\n      dup2\n      mstore\n      0x20\n      add\n      swap1\n      dup2\n      mstore\n      0x20\n      add\n      0x00\n      keccak256\n        /* \"budgyToken_v2.sol\":3383:3427  _balances[from] = _balances[from].sub(value) */\n      dup2\n      swap1\n      sstore\n      pop\n        /* \"budgyToken_v2.sol\":3452:3476  _balances[to].add(value) */\n      tag_141\n        /* \"budgyToken_v2.sol\":3470:3475  value */\n      dup2\n        /* \"budgyToken_v2.sol\":3452:3461  _balances */\n      0x02\n        /* \"budgyToken_v2.sol\":3452:3465  _balances[to] */\n      0x00\n        /* \"budgyToken_v2.sol\":3462:3464  to */\n      dup6\n        /* \"budgyToken_v2.sol\":3452:3465  _balances[to] */\n      0xffffffffffffffffffffffffffffffffffffffff\n      and\n      0xffffffffffffffffffffffffffffffffffffffff\n      and\n      dup2\n      mstore\n      0x20\n      add\n      swap1\n      dup2\n      mstore\n      0x20\n      add\n      0x00\n      keccak256\n      sload\n        /* \"budgyToken_v2.sol\":3452:3469  _balances[to].add */\n      tag_142\n      swap1\n        /* \"budgyToken_v2.sol\":3452:3476  _balances[to].add(value) */\n      swap2\n      swap1\n      0xffffffff\n      and\n      jump\t// in\n    tag_141:\n        /* \"budgyToken_v2.sol\":3436:3445  _balances */\n      0x02\n        /* \"budgyToken_v2.sol\":3436:3449  _balances[to] */\n      0x00\n        /* \"budgyToken_v2.sol\":3446:3448  to */\n      dup5\n        /* \"budgyToken_v2.sol\":3436:3449  _balances[to] */\n      0xffffffffffffffffffffffffffffffffffffffff\n      and\n      0xffffffffffffffffffffffffffffffffffffffff\n      and\n      dup2\n      mstore\n      0x20\n      add\n      swap1\n      dup2\n      mstore\n      0x20\n      add\n      0x00\n      keccak256\n        /* \"budgyToken_v2.sol\":3436:3476  _balances[to] = _balances[to].add(value) */\n      dup2\n      swap1\n      sstore\n      pop\n        /* \"budgyToken_v2.sol\":3505:3507  to */\n      dup2\n        /* \"budgyToken_v2.sol\":3490:3515  Transfer(from, to, value) */\n      0xffffffffffffffffffffffffffffffffffffffff\n      and\n        /* \"budgyToken_v2.sol\":3499:3503  from */\n      dup4\n        /* \"budgyToken_v2.sol\":3490:3515  Transfer(from, to, value) */\n      0xffffffffffffffffffffffffffffffffffffffff\n      and\n      0xddf252ad1be2c89b69c2b068fc378daa952ba7f163c4a11628f55a4df523b3ef\n        /* \"budgyToken_v2.sol\":3509:3514  value */\n      dup4\n        /* \"budgyToken_v2.sol\":3490:3515  Transfer(from, to, value) */\n      mload(0x40)\n      tag_143\n      swap2\n      swap1\n      tag_37\n      jump\t// in\n    tag_143:\n      mload(0x40)\n      dup1\n      swap2\n      sub\n      swap1\n      log3\n        /* \"budgyToken_v2.sol\":3309:3523  function _transfer(address from, address to, uint value) private {... */\n      pop\n      pop\n      pop\n      jump\t// out\n        /* \"budgyToken_v2.sol\":618:670  string public override constant name = 'Budgy Token' */\n    tag_42:\n      mload(0x40)\n      dup1\n      0x40\n      add\n      0x40\n      mstore\n      dup1\n      0x0b\n      dup2\n      mstore\n      0x20\n      add\n      0x427564677920546f6b656e000000000000000000000000000000000000000000\n      dup2\n      mstore\n      pop\n      dup2\n      jump\t// out\n        /* \"budgyToken_v2.sol\":3070:3303  function approve(address spender, uint256 value) public override returns (bool) {... */\n    tag_49:\n        /* \"budgyToken_v2.sol\":3144:3148  bool */\n      0x00\n        /* \"budgyToken_v2.sol\":3184:3185  0 */\n      dup1\n        /* \"budgyToken_v2.sol\":3165:3186  spender != address(0) */\n      0xffffffffffffffffffffffffffffffffffffffff\n      and\n        /* \"budgyToken_v2.sol\":3165:3172  spender */\n      dup4\n        /* \"budgyToken_v2.sol\":3165:3186  spender != address(0) */\n      0xffffffffffffffffffffffffffffffffffffffff\n      and\n      sub\n        /* \"budgyToken_v2.sol\":3157:3187  require(spender != address(0)) */\n      tag_145\n      jumpi\n      0x00\n      dup1\n      revert\n    tag_145:\n        /* \"budgyToken_v2.sol\":3226:3231  value */\n      dup2\n        /* \"budgyToken_v2.sol\":3194:3202  _allowed */\n      0x03\n        /* \"budgyToken_v2.sol\":3194:3214  _allowed[msg.sender] */\n      0x00\n        /* \"budgyToken_v2.sol\":3203:3213  msg.sender */\n      caller\n        /* \"budgyToken_v2.sol\":3194:3214  _allowed[msg.sender] */\n      0xffffffffffffffffffffffffffffffffffffffff\n      and\n      0xffffffffffffffffffffffffffffffffffffffff\n      and\n      dup2\n      mstore\n      0x20\n      add\n      swap1\n      dup2\n      mstore\n      0x20\n      add\n      0x00\n      keccak256\n        /* \"budgyToken_v2.sol\":3194:3223  _allowed[msg.sender][spender] */\n      0x00\n        /* \"budgyToken_v2.sol\":3215:3222  spender */\n      dup6\n        /* \"budgyToken_v2.sol\":3194:3223  _allowed[msg.sender][spender] */\n      0xffffffffffffffffffffffffffffffffffffffff\n      and\n      0xffffffffffffffffffffffffffffffffffffffff\n      and\n      dup2\n      mstore\n      0x20\n      add\n      swap1\n      dup2\n      mstore\n      0x20\n      add\n      0x00\n      keccak256\n        /* \"budgyToken_v2.sol\":3194:3231  _allowed[msg.sender][spender] = value */\n      dup2\n      swap1\n      sstore\n      pop\n        /* \"budgyToken_v2.sol\":3264:3271  spender */\n      dup3\n        /* \"budgyToken_v2.sol\":3243:3279  Approval(msg.sender, spender, value) */\n      0xffffffffffffffffffffffffffffffffffffffff\n      and\n        /* \"budgyToken_v2.sol\":3252:3262  msg.sender */\n      caller\n        /* \"budgyToken_v2.sol\":3243:3279  Approval(msg.sender, spender, value) */\n      0xffffffffffffffffffffffffffffffffffffffff\n      and\n      0x8c5be1e5ebec7d5bd14f71427d1e84f3dd0314c0f7b2291e5b200ac8c7c3b925\n        /* \"budgyToken_v2.sol\":3273:3278  value */\n      dup5\n        /* \"budgyToken_v2.sol\":3243:3279  Approval(msg.sender, spender, value) */\n      mload(0x40)\n      tag_146\n      swap2\n      swap1\n      tag_37\n      jump\t// in\n    tag_146:\n      mload(0x40)\n      dup1\n      swap2\n      sub\n      swap1\n      log3\n        /* \"budgyToken_v2.sol\":3293:3297  true */\n      0x01\n        /* \"budgyToken_v2.sol\":3286:3297  return true */\n      swap1\n      pop\n        /* \"budgyToken_v2.sol\":3070:3303  function approve(address spender, uint256 value) public override returns (bool) {... */\n      swap3\n      swap2\n      pop\n      pop\n      jump\t// out\n        /* \"budgyToken_v2.sol\":4721:4841  function array_length() public view returns(uint256) {  ... */\n    tag_54:\n        /* \"budgyToken_v2.sol\":4765:4772  uint256 */\n      0x00\n        /* \"budgyToken_v2.sol\":4787:4796  uint256 x */\n      dup1\n        /* \"budgyToken_v2.sol\":4799:4806  userIDs */\n      0x01\n        /* \"budgyToken_v2.sol\":4799:4813  userIDs.length */\n      dup1\n      sload\n      swap1\n      pop\n        /* \"budgyToken_v2.sol\":4787:4813  uint256 x = userIDs.length */\n      swap1\n      pop\n        /* \"budgyToken_v2.sol\":4831:4832  x */\n      dup1\n        /* \"budgyToken_v2.sol\":4824:4832  return x */\n      swap2\n      pop\n      pop\n        /* \"budgyToken_v2.sol\":4721:4841  function array_length() public view returns(uint256) {  ... */\n      swap1\n      jump\t// out\n        /* \"budgyToken_v2.sol\":1890:1986  function totalSupply() external override pure returns (uint256) {... */\n    tag_58:\n        /* \"budgyToken_v2.sol\":1945:1952  uint256 */\n      0x00\n        /* \"budgyToken_v2.sol\":607:613  10**18 */\n      0x0de0b6b3a7640000\n        /* \"budgyToken_v2.sol\":1961:1980  return _totalSupply */\n      swap1\n      pop\n        /* \"budgyToken_v2.sol\":1890:1986  function totalSupply() external override pure returns (uint256) {... */\n      swap1\n      jump\t// out\n        /* \"budgyToken_v2.sol\":4852:5301  function VIPOnly(address owner, address friend) public returns(string memory){... */\n    tag_64:\n        /* \"budgyToken_v2.sol\":4915:4928  string memory */\n      0x60\n        /* \"budgyToken_v2.sol\":4938:4959  uint256 numOfOGTokens */\n      0x00\n        /* \"budgyToken_v2.sol\":4962:4971  _balances */\n      0x02\n        /* \"budgyToken_v2.sol\":4962:4983  _balances[tokenOwner] */\n      0x00\n        /* \"budgyToken_v2.sol\":4972:4982  tokenOwner */\n      0x05\n      0x00\n      swap1\n      sload\n      swap1\n      0x0100\n      exp\n      swap1\n      div\n      0xffffffffffffffffffffffffffffffffffffffff\n      and\n        /* \"budgyToken_v2.sol\":4962:4983  _balances[tokenOwner] */\n      0xffffffffffffffffffffffffffffffffffffffff\n      and\n      0xffffffffffffffffffffffffffffffffffffffff\n      and\n      dup2\n      mstore\n      0x20\n      add\n      swap1\n      dup2\n      mstore\n      0x20\n      add\n      0x00\n      keccak256\n      sload\n        /* \"budgyToken_v2.sol\":4938:4983  uint256 numOfOGTokens = _balances[tokenOwner] */\n      swap1\n      pop\n        /* \"budgyToken_v2.sol\":4992:5010  uint256 numOfUsers */\n      0x00\n        /* \"budgyToken_v2.sol\":5013:5027  array_length() */\n      tag_150\n        /* \"budgyToken_v2.sol\":5013:5025  array_length */\n      tag_54\n        /* \"budgyToken_v2.sol\":5013:5027  array_length() */\n      jump\t// in\n    tag_150:\n        /* \"budgyToken_v2.sol\":4992:5027  uint256 numOfUsers = array_length() */\n      swap1\n      pop\n        /* \"budgyToken_v2.sol\":5058:5059  0 */\n      0x00\n        /* \"budgyToken_v2.sol\":5053:5054  5 */\n      0x05\n        /* \"budgyToken_v2.sol\":5040:5050  numOfUsers */\n      dup3\n        /* \"budgyToken_v2.sol\":5040:5054  numOfUsers % 5 */\n      tag_151\n      swap2\n      swap1\n      tag_152\n      jump\t// in\n    tag_151:\n        /* \"budgyToken_v2.sol\":5040:5059  numOfUsers % 5 == 0 */\n      eq\n        /* \"budgyToken_v2.sol\":5040:5081  numOfUsers % 5 == 0 && numOfOGTokens >= 3 */\n      dup1\n      iszero\n      tag_153\n      jumpi\n      pop\n        /* \"budgyToken_v2.sol\":5080:5081  3 */\n      0x03\n        /* \"budgyToken_v2.sol\":5063:5076  numOfOGTokens */\n      dup3\n        /* \"budgyToken_v2.sol\":5063:5081  numOfOGTokens >= 3 */\n      lt\n      iszero\n        /* \"budgyToken_v2.sol\":5040:5081  numOfUsers % 5 == 0 && numOfOGTokens >= 3 */\n    tag_153:\n        /* \"budgyToken_v2.sol\":5036:5224  if (numOfUsers % 5 == 0 && numOfOGTokens >= 3){... */\n      iszero\n      tag_154\n      jumpi\n        /* \"budgyToken_v2.sol\":5097:5132  transferFrom(tokenOwner, friend, 2) */\n      tag_155\n        /* \"budgyToken_v2.sol\":5110:5120  tokenOwner */\n      0x05\n      0x00\n      swap1\n      sload\n      swap1\n      0x0100\n      exp\n      swap1\n      div\n      0xffffffffffffffffffffffffffffffffffffffff\n      and\n        /* \"budgyToken_v2.sol\":5122:5128  friend */\n      dup6\n        /* \"budgyToken_v2.sol\":5130:5131  2 */\n      0x02\n        /* \"budgyToken_v2.sol\":5097:5109  transferFrom */\n      tag_70\n        /* \"budgyToken_v2.sol\":5097:5132  transferFrom(tokenOwner, friend, 2) */\n      jump\t// in\n    tag_155:\n      pop\n        /* \"budgyToken_v2.sol\":5145:5179  transferFrom(tokenOwner, owner, 1) */\n      tag_156\n        /* \"budgyToken_v2.sol\":5158:5168  tokenOwner */\n      0x05\n      0x00\n      swap1\n      sload\n      swap1\n      0x0100\n      exp\n      swap1\n      div\n      0xffffffffffffffffffffffffffffffffffffffff\n      and\n        /* \"budgyToken_v2.sol\":5170:5175  owner */\n      dup7\n        /* \"budgyToken_v2.sol\":5177:5178  1 */\n      0x01\n        /* \"budgyToken_v2.sol\":5145:5157  transferFrom */\n      tag_70\n        /* \"budgyToken_v2.sol\":5145:5179  transferFrom(tokenOwner, owner, 1) */\n      jump\t// in\n    tag_156:\n      pop\n        /* \"budgyToken_v2.sol\":5201:5214  secretMessage */\n      mload(0x40)\n      dup1\n      0x80\n      add\n      0x40\n      mstore\n      dup1\n      0x4d\n      dup2\n      mstore\n      0x20\n      add\n      data_0b07e07956ec390ff7e72b1318405d97a05ab399943979f0e46f84161ae1e06a\n      0x4d\n      swap2\n      codecopy\n        /* \"budgyToken_v2.sol\":5194:5214  return secretMessage */\n      swap3\n      pop\n      pop\n      pop\n      jump(tag_149)\n        /* \"budgyToken_v2.sol\":5036:5224  if (numOfUsers % 5 == 0 && numOfOGTokens >= 3){... */\n    tag_154:\n        /* \"budgyToken_v2.sol\":5232:5293  return 'Sorry, better luck next time getting into our flock!' */\n      mload(0x40)\n      dup1\n      0x60\n      add\n      0x40\n      mstore\n      dup1\n      0x34\n      dup2\n      mstore\n      0x20\n      add\n      data_c61807ddb0f4f71646a182726d8e67ede87cf92ffd23179b7a2178e99668a6f9\n      0x34\n      swap2\n      codecopy\n      swap3\n      pop\n      pop\n      pop\n        /* \"budgyToken_v2.sol\":4852:5301  function VIPOnly(address owner, address friend) public returns(string memory){... */\n    tag_149:\n      swap3\n      swap2\n      pop\n      pop\n      jump\t// out\n        /* \"budgyToken_v2.sol\":3529:3876  function transferFrom( address from, address to, uint256 value) public override returns (bool){... */\n    tag_70:\n        /* \"budgyToken_v2.sol\":3618:3622  bool */\n      0x00\n        /* \"budgyToken_v2.sol\":3647:3656  _balances */\n      0x02\n        /* \"budgyToken_v2.sol\":3647:3662  _balances[from] */\n      0x00\n        /* \"budgyToken_v2.sol\":3657:3661  from */\n      dup6\n        /* \"budgyToken_v2.sol\":3647:3662  _balances[from] */\n      0xffffffffffffffffffffffffffffffffffffffff\n      and\n      0xffffffffffffffffffffffffffffffffffffffff\n      and\n      dup2\n      mstore\n      0x20\n      add\n      swap1\n      dup2\n      mstore\n      0x20\n      add\n      0x00\n      keccak256\n      sload\n        /* \"budgyToken_v2.sol\":3638:3643  value */\n      dup3\n        /* \"budgyToken_v2.sol\":3638:3662  value <= _balances[from] */\n      gt\n      iszero\n        /* \"budgyToken_v2.sol\":3630:3663  require(value <= _balances[from]) */\n      tag_158\n      jumpi\n      0x00\n      dup1\n      revert\n    tag_158:\n        /* \"budgyToken_v2.sol\":3687:3695  _allowed */\n      0x03\n        /* \"budgyToken_v2.sol\":3687:3701  _allowed[from] */\n      0x00\n        /* \"budgyToken_v2.sol\":3696:3700  from */\n      dup6\n        /* \"budgyToken_v2.sol\":3687:3701  _allowed[from] */\n      0xffffffffffffffffffffffffffffffffffffffff\n      and\n      0xffffffffffffffffffffffffffffffffffffffff\n      and\n      dup2\n      mstore\n      0x20\n      add\n      swap1\n      dup2\n      mstore\n      0x20\n      add\n      0x00\n      keccak256\n        /* \"budgyToken_v2.sol\":3687:3713  _allowed[from][msg.sender] */\n      0x00\n        /* \"budgyToken_v2.sol\":3702:3712  msg.sender */\n      caller\n        /* \"budgyToken_v2.sol\":3687:3713  _allowed[from][msg.sender] */\n      0xffffffffffffffffffffffffffffffffffffffff\n      and\n      0xffffffffffffffffffffffffffffffffffffffff\n      and\n      dup2\n      mstore\n      0x20\n      add\n      swap1\n      dup2\n      mstore\n      0x20\n      add\n      0x00\n      keccak256\n      sload\n        /* \"budgyToken_v2.sol\":3678:3683  value */\n      dup3\n        /* \"budgyToken_v2.sol\":3678:3713  value <= _allowed[from][msg.sender] */\n      gt\n      iszero\n        /* \"budgyToken_v2.sol\":3670:3714  require(value <= _allowed[from][msg.sender]) */\n      tag_159\n      jumpi\n      0x00\n      dup1\n      revert\n    tag_159:\n        /* \"budgyToken_v2.sol\":3743:3744  0 */\n      0x00\n        /* \"budgyToken_v2.sol\":3729:3745  to != address(0) */\n      0xffffffffffffffffffffffffffffffffffffffff\n      and\n        /* \"budgyToken_v2.sol\":3729:3731  to */\n      dup4\n        /* \"budgyToken_v2.sol\":3729:3745  to != address(0) */\n      0xffffffffffffffffffffffffffffffffffffffff\n      and\n      sub\n        /* \"budgyToken_v2.sol\":3721:3746  require(to != address(0)) */\n      tag_160\n      jumpi\n      0x00\n      dup1\n      revert\n    tag_160:\n        /* \"budgyToken_v2.sol\":3782:3819  _allowed[from][msg.sender].sub(value) */\n      tag_161\n        /* \"budgyToken_v2.sol\":3813:3818  value */\n      dup3\n        /* \"budgyToken_v2.sol\":3782:3790  _allowed */\n      0x03\n        /* \"budgyToken_v2.sol\":3782:3796  _allowed[from] */\n      0x00\n        /* \"budgyToken_v2.sol\":3791:3795  from */\n      dup8\n        /* \"budgyToken_v2.sol\":3782:3796  _allowed[from] */\n      0xffffffffffffffffffffffffffffffffffffffff\n      and\n      0xffffffffffffffffffffffffffffffffffffffff\n      and\n      dup2\n      mstore\n      0x20\n      add\n      swap1\n      dup2\n      mstore\n      0x20\n      add\n      0x00\n      keccak256\n        /* \"budgyToken_v2.sol\":3782:3808  _allowed[from][msg.sender] */\n      0x00\n        /* \"budgyToken_v2.sol\":3797:3807  msg.sender */\n      caller\n        /* \"budgyToken_v2.sol\":3782:3808  _allowed[from][msg.sender] */\n      0xffffffffffffffffffffffffffffffffffffffff\n      and\n      0xffffffffffffffffffffffffffffffffffffffff\n      and\n      dup2\n      mstore\n      0x20\n      add\n      swap1\n      dup2\n      mstore\n      0x20\n      add\n      0x00\n      keccak256\n      sload\n        /* \"budgyToken_v2.sol\":3782:3812  _allowed[from][msg.sender].sub */\n      tag_140\n      swap1\n        /* \"budgyToken_v2.sol\":3782:3819  _allowed[from][msg.sender].sub(value) */\n      swap2\n      swap1\n      0xffffffff\n      and\n      jump\t// in\n    tag_161:\n        /* \"budgyToken_v2.sol\":3753:3761  _allowed */\n      0x03\n        /* \"budgyToken_v2.sol\":3753:3767  _allowed[from] */\n      0x00\n        /* \"budgyToken_v2.sol\":3762:3766  from */\n      dup7\n        /* \"budgyToken_v2.sol\":3753:3767  _allowed[from] */\n      0xffffffffffffffffffffffffffffffffffffffff\n      and\n      0xffffffffffffffffffffffffffffffffffffffff\n      and\n      dup2\n      mstore\n      0x20\n      add\n      swap1\n      dup2\n      mstore\n      0x20\n      add\n      0x00\n      keccak256\n        /* \"budgyToken_v2.sol\":3753:3779  _allowed[from][msg.sender] */\n      0x00\n        /* \"budgyToken_v2.sol\":3768:3778  msg.sender */\n      caller\n        /* \"budgyToken_v2.sol\":3753:3779  _allowed[from][msg.sender] */\n      0xffffffffffffffffffffffffffffffffffffffff\n      and\n      0xffffffffffffffffffffffffffffffffffffffff\n      and\n      dup2\n      mstore\n      0x20\n      add\n      swap1\n      dup2\n      mstore\n      0x20\n      add\n      0x00\n      keccak256\n        /* \"budgyToken_v2.sol\":3753:3819  _allowed[from][msg.sender] = _allowed[from][msg.sender].sub(value) */\n      dup2\n      swap1\n      sstore\n      pop\n        /* \"budgyToken_v2.sol\":3826:3852  _transfer(from, to, value) */\n      tag_162\n        /* \"budgyToken_v2.sol\":3836:3840  from */\n      dup5\n        /* \"budgyToken_v2.sol\":3842:3844  to */\n      dup5\n        /* \"budgyToken_v2.sol\":3846:3851  value */\n      dup5\n        /* \"budgyToken_v2.sol\":3826:3835  _transfer */\n      tag_35\n        /* \"budgyToken_v2.sol\":3826:3852  _transfer(from, to, value) */\n      jump\t// in\n    tag_162:\n        /* \"budgyToken_v2.sol\":3866:3870  true */\n      0x01\n        /* \"budgyToken_v2.sol\":3859:3870  return true */\n      swap1\n      pop\n        /* \"budgyToken_v2.sol\":3529:3876  function transferFrom( address from, address to, uint256 value) public override returns (bool){... */\n      swap4\n      swap3\n      pop\n      pop\n      pop\n      jump\t// out\n        /* \"budgyToken_v2.sol\":675:719  uint8 public override constant decimals = 10 */\n    tag_74:\n        /* \"budgyToken_v2.sol\":717:719  10 */\n      0x0a\n        /* \"budgyToken_v2.sol\":675:719  uint8 public override constant decimals = 10 */\n      dup2\n      jump\t// out\n        /* \"budgyToken_v2.sol\":3882:4198  function increaseAllowance( address spender, uint256 addedValue ) public returns (bool){... */\n    tag_80:\n        /* \"budgyToken_v2.sol\":3964:3968  bool */\n      0x00\n        /* \"budgyToken_v2.sol\":4003:4004  0 */\n      dup1\n        /* \"budgyToken_v2.sol\":3984:4005  spender != address(0) */\n      0xffffffffffffffffffffffffffffffffffffffff\n      and\n        /* \"budgyToken_v2.sol\":3984:3991  spender */\n      dup4\n        /* \"budgyToken_v2.sol\":3984:4005  spender != address(0) */\n      0xffffffffffffffffffffffffffffffffffffffff\n      and\n      sub\n        /* \"budgyToken_v2.sol\":3976:4006  require(spender != address(0)) */\n      tag_164\n      jumpi\n      0x00\n      dup1\n      revert\n    tag_164:\n        /* \"budgyToken_v2.sol\":4056:4101  _allowed[msg.sender][spender].add(addedValue) */\n      tag_165\n        /* \"budgyToken_v2.sol\":4090:4100  addedValue */\n      dup3\n        /* \"budgyToken_v2.sol\":4056:4064  _allowed */\n      0x03\n        /* \"budgyToken_v2.sol\":4056:4076  _allowed[msg.sender] */\n      0x00\n        /* \"budgyToken_v2.sol\":4065:4075  msg.sender */\n      caller\n        /* \"budgyToken_v2.sol\":4056:4076  _allowed[msg.sender] */\n      0xffffffffffffffffffffffffffffffffffffffff\n      and\n      0xffffffffffffffffffffffffffffffffffffffff\n      and\n      dup2\n      mstore\n      0x20\n      add\n      swap1\n      dup2\n      mstore\n      0x20\n      add\n      0x00\n      keccak256\n        /* \"budgyToken_v2.sol\":4056:4085  _allowed[msg.sender][spender] */\n      0x00\n        /* \"budgyToken_v2.sol\":4077:4084  spender */\n      dup7\n        /* \"budgyToken_v2.sol\":4056:4085  _allowed[msg.sender][spender] */\n      0xffffffffffffffffffffffffffffffffffffffff\n      and\n      0xffffffffffffffffffffffffffffffffffffffff\n      and\n      dup2\n      mstore\n      0x20\n      add\n      swap1\n      dup2\n      mstore\n      0x20\n      add\n      0x00\n      keccak256\n      sload\n        /* \"budgyToken_v2.sol\":4056:4089  _allowed[msg.sender][spender].add */\n      tag_142\n      swap1\n        /* \"budgyToken_v2.sol\":4056:4101  _allowed[msg.sender][spender].add(addedValue) */\n      swap2\n      swap1\n      0xffffffff\n      and\n      jump\t// in\n    tag_165:\n        /* \"budgyToken_v2.sol\":4015:4023  _allowed */\n      0x03\n        /* \"budgyToken_v2.sol\":4015:4035  _allowed[msg.sender] */\n      0x00\n        /* \"budgyToken_v2.sol\":4024:4034  msg.sender */\n      caller\n        /* \"budgyToken_v2.sol\":4015:4035  _allowed[msg.sender] */\n      0xffffffffffffffffffffffffffffffffffffffff\n      and\n      0xffffffffffffffffffffffffffffffffffffffff\n      and\n      dup2\n      mstore\n      0x20\n      add\n      swap1\n      dup2\n      mstore\n      0x20\n      add\n      0x00\n      keccak256\n        /* \"budgyToken_v2.sol\":4015:4044  _allowed[msg.sender][spender] */\n      0x00\n        /* \"budgyToken_v2.sol\":4036:4043  spender */\n      dup6\n        /* \"budgyToken_v2.sol\":4015:4044  _allowed[msg.sender][spender] */\n      0xffffffffffffffffffffffffffffffffffffffff\n      and\n      0xffffffffffffffffffffffffffffffffffffffff\n      and\n      dup2\n      mstore\n      0x20\n      add\n      swap1\n      dup2\n      mstore\n      0x20\n      add\n      0x00\n      keccak256\n        /* \"budgyToken_v2.sol\":4015:4102  _allowed[msg.sender][spender] = (... */\n      dup2\n      swap1\n      sstore\n      pop\n        /* \"budgyToken_v2.sol\":4135:4142  spender */\n      dup3\n        /* \"budgyToken_v2.sol\":4114:4174  Approval(msg.sender, spender, _allowed[msg.sender][spender]) */\n      0xffffffffffffffffffffffffffffffffffffffff\n      and\n        /* \"budgyToken_v2.sol\":4123:4133  msg.sender */\n      caller\n        /* \"budgyToken_v2.sol\":4114:4174  Approval(msg.sender, spender, _allowed[msg.sender][spender]) */\n      0xffffffffffffffffffffffffffffffffffffffff\n      and\n      0x8c5be1e5ebec7d5bd14f71427d1e84f3dd0314c0f7b2291e5b200ac8c7c3b925\n        /* \"budgyToken_v2.sol\":4144:4152  _allowed */\n      0x03\n        /* \"budgyToken_v2.sol\":4144:4164  _allowed[msg.sender] */\n      0x00\n        /* \"budgyToken_v2.sol\":4153:4163  msg.sender */\n      caller\n        /* \"budgyToken_v2.sol\":4144:4164  _allowed[msg.sender] */\n      0xffffffffffffffffffffffffffffffffffffffff\n      and\n      0xffffffffffffffffffffffffffffffffffffffff\n      and\n      dup2\n      mstore\n      0x20\n      add\n      swap1\n      dup2\n      mstore\n      0x20\n      add\n      0x00\n      keccak256\n        /* \"budgyToken_v2.sol\":4144:4173  _allowed[msg.sender][spender] */\n      0x00\n        /* \"budgyToken_v2.sol\":4165:4172  spender */\n      dup8\n        /* \"budgyToken_v2.sol\":4144:4173  _allowed[msg.sender][spender] */\n      0xffffffffffffffffffffffffffffffffffffffff\n      and\n      0xffffffffffffffffffffffffffffffffffffffff\n      and\n      dup2\n      mstore\n      0x20\n      add\n      swap1\n      dup2\n      mstore\n      0x20\n      add\n      0x00\n      keccak256\n      sload\n        /* \"budgyToken_v2.sol\":4114:4174  Approval(msg.sender, spender, _allowed[msg.sender][spender]) */\n      mload(0x40)\n      tag_166\n      swap2\n      swap1\n      tag_37\n      jump\t// in\n    tag_166:\n      mload(0x40)\n      dup1\n      swap2\n      sub\n      swap1\n      log3\n        /* \"budgyToken_v2.sol\":4188:4192  true */\n      0x01\n        /* \"budgyToken_v2.sol\":4181:4192  return true */\n      swap1\n      pop\n        /* \"budgyToken_v2.sol\":3882:4198  function increaseAllowance( address spender, uint256 addedValue ) public returns (bool){... */\n      swap3\n      swap2\n      pop\n      pop\n      jump\t// out\n        /* \"budgyToken_v2.sol\":568:613  uint256 public constant _totalSupply = 10**18 */\n    tag_84:\n        /* \"budgyToken_v2.sol\":607:613  10**18 */\n      0x0de0b6b3a7640000\n        /* \"budgyToken_v2.sol\":568:613  uint256 public constant _totalSupply = 10**18 */\n      dup2\n      jump\t// out\n        /* \"budgyToken_v2.sol\":900:938  uint256 public unitsOneEthCanBuy  = 42 */\n    tag_88:\n      sload(0x00)\n      dup2\n      jump\t// out\n        /* \"budgyToken_v2.sol\":2113:2495  function createUser(address _userAddress, uint256 _userId) public returns (address[] memory){... */\n    tag_98:\n        /* \"budgyToken_v2.sol\":2188:2204  address[] memory */\n      0x60\n        /* \"budgyToken_v2.sol\":2212:2229  User storage user */\n      0x00\n        /* \"budgyToken_v2.sol\":2232:2237  users */\n      0x04\n        /* \"budgyToken_v2.sol\":2232:2251  users[_userAddress] */\n      0x00\n        /* \"budgyToken_v2.sol\":2238:2250  _userAddress */\n      dup6\n        /* \"budgyToken_v2.sol\":2232:2251  users[_userAddress] */\n      0xffffffffffffffffffffffffffffffffffffffff\n      and\n      0xffffffffffffffffffffffffffffffffffffffff\n      and\n      dup2\n      mstore\n      0x20\n      add\n      swap1\n      dup2\n      mstore\n      0x20\n      add\n      0x00\n      keccak256\n        /* \"budgyToken_v2.sol\":2212:2251  User storage user = users[_userAddress] */\n      swap1\n      pop\n        /* \"budgyToken_v2.sol\":2318:2322  user */\n      dup1\n        /* \"budgyToken_v2.sol\":2318:2326  user.set */\n      0x01\n      add\n      0x00\n      swap1\n      sload\n      swap1\n      0x0100\n      exp\n      swap1\n      div\n      0xff\n      and\n        /* \"budgyToken_v2.sol\":2317:2326  !user.set */\n      iszero\n        /* \"budgyToken_v2.sol\":2309:2327  require(!user.set) */\n      tag_168\n      jumpi\n      0x00\n      dup1\n      revert\n    tag_168:\n        /* \"budgyToken_v2.sol\":2378:2433  User({... */\n      mload(0x40)\n      dup1\n      0x40\n      add\n      0x40\n      mstore\n      dup1\n        /* \"budgyToken_v2.sol\":2398:2405  _userId */\n      dup5\n        /* \"budgyToken_v2.sol\":2378:2433  User({... */\n      dup2\n      mstore\n      0x20\n      add\n        /* \"budgyToken_v2.sol\":2421:2425  true */\n      0x01\n        /* \"budgyToken_v2.sol\":2378:2433  User({... */\n      iszero\n      iszero\n      dup2\n      mstore\n      pop\n        /* \"budgyToken_v2.sol\":2356:2361  users */\n      0x04\n        /* \"budgyToken_v2.sol\":2356:2375  users[_userAddress] */\n      0x00\n        /* \"budgyToken_v2.sol\":2362:2374  _userAddress */\n      dup7\n        /* \"budgyToken_v2.sol\":2356:2375  users[_userAddress] */\n      0xffffffffffffffffffffffffffffffffffffffff\n      and\n      0xffffffffffffffffffffffffffffffffffffffff\n      and\n      dup2\n      mstore\n      0x20\n      add\n      swap1\n      dup2\n      mstore\n      0x20\n      add\n      0x00\n      keccak256\n        /* \"budgyToken_v2.sol\":2356:2433  users[_userAddress] = User({... */\n      0x00\n      dup3\n      add\n      mload\n      dup2\n      0x00\n      add\n      sstore\n      0x20\n      dup3\n      add\n      mload\n      dup2\n      0x01\n      add\n      exp(0x0100, 0x00)\n      dup2\n      sload\n      dup2\n      0xff\n      mul\n      not\n      and\n      swap1\n      dup4\n      iszero\n      iszero\n      mul\n      or\n      swap1\n      sstore\n      pop\n      swap1\n      pop\n      pop\n        /* \"budgyToken_v2.sol\":2440:2447  userIDs */\n      0x01\n        /* \"budgyToken_v2.sol\":2453:2465  _userAddress */\n      dup5\n        /* \"budgyToken_v2.sol\":2440:2466  userIDs.push(_userAddress) */\n      swap1\n      dup1\n      0x01\n      dup2\n      sload\n      add\n      dup1\n      dup3\n      sstore\n      dup1\n      swap2\n      pop\n      pop\n      0x01\n      swap1\n      sub\n      swap1\n      0x00\n      mstore\n      keccak256(0x00, 0x20)\n      add\n      0x00\n      swap1\n      swap2\n      swap1\n      swap2\n      swap1\n      swap2\n      0x0100\n      exp\n      dup2\n      sload\n      dup2\n      0xffffffffffffffffffffffffffffffffffffffff\n      mul\n      not\n      and\n      swap1\n      dup4\n      0xffffffffffffffffffffffffffffffffffffffff\n      and\n      mul\n      or\n      swap1\n      sstore\n      pop\n        /* \"budgyToken_v2.sol\":2482:2489  userIDs */\n      0x01\n        /* \"budgyToken_v2.sol\":2475:2489  return userIDs */\n      dup1\n      sload\n      dup1\n      0x20\n      mul\n      0x20\n      add\n      mload(0x40)\n      swap1\n      dup2\n      add\n      0x40\n      mstore\n      dup1\n      swap3\n      swap2\n      swap1\n      dup2\n      dup2\n      mstore\n      0x20\n      add\n      dup3\n      dup1\n      sload\n      dup1\n      iszero\n      tag_170\n      jumpi\n      0x20\n      mul\n      dup3\n      add\n      swap2\n      swap1\n      0x00\n      mstore\n      keccak256(0x00, 0x20)\n      swap1\n    tag_171:\n      dup2\n      0x00\n      swap1\n      sload\n      swap1\n      0x0100\n      exp\n      swap1\n      div\n      0xffffffffffffffffffffffffffffffffffffffff\n      and\n      0xffffffffffffffffffffffffffffffffffffffff\n      and\n      dup2\n      mstore\n      0x20\n      add\n      swap1\n      0x01\n      add\n      swap1\n      dup1\n      dup4\n      gt\n      tag_171\n      jumpi\n    tag_170:\n      pop\n      pop\n      pop\n      pop\n      pop\n      swap2\n      pop\n      pop\n        /* \"budgyToken_v2.sol\":2113:2495  function createUser(address _userAddress, uint256 _userId) public returns (address[] memory){... */\n      swap3\n      swap2\n      pop\n      pop\n      jump\t// out\n        /* \"budgyToken_v2.sol\":724:771  string public override constant symbol = 'BDGY' */\n    tag_103:\n      mload(0x40)\n      dup1\n      0x40\n      add\n      0x40\n      mstore\n      dup1\n      0x04\n      dup2\n      mstore\n      0x20\n      add\n      0x4244475900000000000000000000000000000000000000000000000000000000\n      dup2\n      mstore\n      pop\n      dup2\n      jump\t// out\n        /* \"budgyToken_v2.sol\":1139:1164  address public tokenOwner */\n    tag_107:\n      0x05\n      0x00\n      swap1\n      sload\n      swap1\n      0x0100\n      exp\n      swap1\n      div\n      0xffffffffffffffffffffffffffffffffffffffff\n      and\n      dup2\n      jump\t// out\n        /* \"budgyToken_v2.sol\":4204:4527  function decreaseAllowance(address spender,uint256 subtractedValue) public returns (bool){... */\n    tag_113:\n        /* \"budgyToken_v2.sol\":4288:4292  bool */\n      0x00\n        /* \"budgyToken_v2.sol\":4327:4328  0 */\n      dup1\n        /* \"budgyToken_v2.sol\":4308:4329  spender != address(0) */\n      0xffffffffffffffffffffffffffffffffffffffff\n      and\n        /* \"budgyToken_v2.sol\":4308:4315  spender */\n      dup4\n        /* \"budgyToken_v2.sol\":4308:4329  spender != address(0) */\n      0xffffffffffffffffffffffffffffffffffffffff\n      and\n      sub\n        /* \"budgyToken_v2.sol\":4300:4330  require(spender != address(0)) */\n      tag_173\n      jumpi\n      0x00\n      dup1\n      revert\n    tag_173:\n        /* \"budgyToken_v2.sol\":4380:4430  _allowed[msg.sender][spender].sub(subtractedValue) */\n      tag_174\n        /* \"budgyToken_v2.sol\":4414:4429  subtractedValue */\n      dup3\n        /* \"budgyToken_v2.sol\":4380:4388  _allowed */\n      0x03\n        /* \"budgyToken_v2.sol\":4380:4400  _allowed[msg.sender] */\n      0x00\n        /* \"budgyToken_v2.sol\":4389:4399  msg.sender */\n      caller\n        /* \"budgyToken_v2.sol\":4380:4400  _allowed[msg.sender] */\n      0xffffffffffffffffffffffffffffffffffffffff\n      and\n      0xffffffffffffffffffffffffffffffffffffffff\n      and\n      dup2\n      mstore\n      0x20\n      add\n      swap1\n      dup2\n      mstore\n      0x20\n      add\n      0x00\n      keccak256\n        /* \"budgyToken_v2.sol\":4380:4409  _allowed[msg.sender][spender] */\n      0x00\n        /* \"budgyToken_v2.sol\":4401:4408  spender */\n      dup7\n        /* \"budgyToken_v2.sol\":4380:4409  _allowed[msg.sender][spender] */\n      0xffffffffffffffffffffffffffffffffffffffff\n      and\n      0xffffffffffffffffffffffffffffffffffffffff\n      and\n      dup2\n      mstore\n      0x20\n      add\n      swap1\n      dup2\n      mstore\n      0x20\n      add\n      0x00\n      keccak256\n      sload\n        /* \"budgyToken_v2.sol\":4380:4413  _allowed[msg.sender][spender].sub */\n      tag_140\n      swap1\n        /* \"budgyToken_v2.sol\":4380:4430  _allowed[msg.sender][spender].sub(subtractedValue) */\n      swap2\n      swap1\n      0xffffffff\n      and\n      jump\t// in\n    tag_174:\n        /* \"budgyToken_v2.sol\":4339:4347  _allowed */\n      0x03\n        /* \"budgyToken_v2.sol\":4339:4359  _allowed[msg.sender] */\n      0x00\n        /* \"budgyToken_v2.sol\":4348:4358  msg.sender */\n      caller\n        /* \"budgyToken_v2.sol\":4339:4359  _allowed[msg.sender] */\n      0xffffffffffffffffffffffffffffffffffffffff\n      and\n      0xffffffffffffffffffffffffffffffffffffffff\n      and\n      dup2\n      mstore\n      0x20\n      add\n      swap1\n      dup2\n      mstore\n      0x20\n      add\n      0x00\n      keccak256\n        /* \"budgyToken_v2.sol\":4339:4368  _allowed[msg.sender][spender] */\n      0x00\n        /* \"budgyToken_v2.sol\":4360:4367  spender */\n      dup6\n        /* \"budgyToken_v2.sol\":4339:4368  _allowed[msg.sender][spender] */\n      0xffffffffffffffffffffffffffffffffffffffff\n      and\n      0xffffffffffffffffffffffffffffffffffffffff\n      and\n      dup2\n      mstore\n      0x20\n      add\n      swap1\n      dup2\n      mstore\n      0x20\n      add\n      0x00\n      keccak256\n        /* \"budgyToken_v2.sol\":4339:4431  _allowed[msg.sender][spender] = (... */\n      dup2\n      swap1\n      sstore\n      pop\n        /* \"budgyToken_v2.sol\":4464:4471  spender */\n      dup3\n        /* \"budgyToken_v2.sol\":4443:4503  Approval(msg.sender, spender, _allowed[msg.sender][spender]) */\n      0xffffffffffffffffffffffffffffffffffffffff\n      and\n        /* \"budgyToken_v2.sol\":4452:4462  msg.sender */\n      caller\n        /* \"budgyToken_v2.sol\":4443:4503  Approval(msg.sender, spender, _allowed[msg.sender][spender]) */\n      0xffffffffffffffffffffffffffffffffffffffff\n      and\n      0x8c5be1e5ebec7d5bd14f71427d1e84f3dd0314c0f7b2291e5b200ac8c7c3b925\n        /* \"budgyToken_v2.sol\":4473:4481  _allowed */\n      0x03\n        /* \"budgyToken_v2.sol\":4473:4493  _allowed[msg.sender] */\n      0x00\n        /* \"budgyToken_v2.sol\":4482:4492  msg.sender */\n      caller\n        /* \"budgyToken_v2.sol\":4473:4493  _allowed[msg.sender] */\n      0xffffffffffffffffffffffffffffffffffffffff\n      and\n      0xffffffffffffffffffffffffffffffffffffffff\n      and\n      dup2\n      mstore\n      0x20\n      add\n      swap1\n      dup2\n      mstore\n      0x20\n      add\n      0x00\n      keccak256\n        /* \"budgyToken_v2.sol\":4473:4502  _allowed[msg.sender][spender] */\n      0x00\n        /* \"budgyToken_v2.sol\":4494:4501  spender */\n      dup8\n        /* \"budgyToken_v2.sol\":4473:4502  _allowed[msg.sender][spender] */\n      0xffffffffffffffffffffffffffffffffffffffff\n      and\n      0xffffffffffffffffffffffffffffffffffffffff\n      and\n      dup2\n      mstore\n      0x20\n      add\n      swap1\n      dup2\n      mstore\n      0x20\n      add\n      0x00\n      keccak256\n      sload\n        /* \"budgyToken_v2.sol\":4443:4503  Approval(msg.sender, spender, _allowed[msg.sender][spender]) */\n      mload(0x40)\n      tag_175\n      swap2\n      swap1\n      tag_37\n      jump\t// in\n    tag_175:\n      mload(0x40)\n      dup1\n      swap2\n      sub\n      swap1\n      log3\n        /* \"budgyToken_v2.sol\":4517:4521  true */\n      0x01\n        /* \"budgyToken_v2.sol\":4510:4521  return true */\n      swap1\n      pop\n        /* \"budgyToken_v2.sol\":4204:4527  function decreaseAllowance(address spender,uint256 subtractedValue) public returns (bool){... */\n      swap3\n      swap2\n      pop\n      pop\n      jump\t// out\n        /* \"budgyToken_v2.sol\":1095:1132  mapping(address => User) public users */\n    tag_118:\n      mstore(0x20, 0x04)\n      dup1\n      0x00\n      mstore\n      keccak256(0x00, 0x40)\n      0x00\n      swap2\n      pop\n      swap1\n      pop\n      dup1\n      0x00\n      add\n      sload\n      swap1\n      dup1\n      0x01\n      add\n      0x00\n      swap1\n      sload\n      swap1\n      0x0100\n      exp\n      swap1\n      div\n      0xff\n      and\n      swap1\n      pop\n      dup3\n      jump\t// out\n        /* \"budgyToken_v2.sol\":2731:3064  function transfer(address to, uint256 value) public override returns (bool) {... */\n    tag_124:\n        /* \"budgyToken_v2.sol\":2801:2805  bool */\n      0x00\n        /* \"budgyToken_v2.sol\":2831:2840  _balances */\n      0x02\n        /* \"budgyToken_v2.sol\":2831:2852  _balances[msg.sender] */\n      0x00\n        /* \"budgyToken_v2.sol\":2841:2851  msg.sender */\n      caller\n        /* \"budgyToken_v2.sol\":2831:2852  _balances[msg.sender] */\n      0xffffffffffffffffffffffffffffffffffffffff\n      and\n      0xffffffffffffffffffffffffffffffffffffffff\n      and\n      dup2\n      mstore\n      0x20\n      add\n      swap1\n      dup2\n      mstore\n      0x20\n      add\n      0x00\n      keccak256\n      sload\n        /* \"budgyToken_v2.sol\":2822:2827  value */\n      dup3\n        /* \"budgyToken_v2.sol\":2822:2852  value <= _balances[msg.sender] */\n      gt\n      iszero\n        /* \"budgyToken_v2.sol\":2814:2853  require(value <= _balances[msg.sender]) */\n      tag_177\n      jumpi\n      0x00\n      dup1\n      revert\n    tag_177:\n        /* \"budgyToken_v2.sol\":2882:2883  0 */\n      0x00\n        /* \"budgyToken_v2.sol\":2868:2884  to != address(0) */\n      0xffffffffffffffffffffffffffffffffffffffff\n      and\n        /* \"budgyToken_v2.sol\":2868:2870  to */\n      dup4\n        /* \"budgyToken_v2.sol\":2868:2884  to != address(0) */\n      0xffffffffffffffffffffffffffffffffffffffff\n      and\n      sub\n        /* \"budgyToken_v2.sol\":2860:2885  require(to != address(0)) */\n      tag_178\n      jumpi\n      0x00\n      dup1\n      revert\n    tag_178:\n        /* \"budgyToken_v2.sol\":2918:2950  _balances[msg.sender].sub(value) */\n      tag_179\n        /* \"budgyToken_v2.sol\":2944:2949  value */\n      dup3\n        /* \"budgyToken_v2.sol\":2918:2927  _balances */\n      0x02\n        /* \"budgyToken_v2.sol\":2918:2939  _balances[msg.sender] */\n      0x00\n        /* \"budgyToken_v2.sol\":2928:2938  msg.sender */\n      caller\n        /* \"budgyToken_v2.sol\":2918:2939  _balances[msg.sender] */\n      0xffffffffffffffffffffffffffffffffffffffff\n      and\n      0xffffffffffffffffffffffffffffffffffffffff\n      and\n      dup2\n      mstore\n      0x20\n      add\n      swap1\n      dup2\n      mstore\n      0x20\n      add\n      0x00\n      keccak256\n      sload\n        /* \"budgyToken_v2.sol\":2918:2943  _balances[msg.sender].sub */\n      tag_140\n      swap1\n        /* \"budgyToken_v2.sol\":2918:2950  _balances[msg.sender].sub(value) */\n      swap2\n      swap1\n      0xffffffff\n      and\n      jump\t// in\n    tag_179:\n        /* \"budgyToken_v2.sol\":2894:2903  _balances */\n      0x02\n        /* \"budgyToken_v2.sol\":2894:2915  _balances[msg.sender] */\n      0x00\n        /* \"budgyToken_v2.sol\":2904:2914  msg.sender */\n      caller\n        /* \"budgyToken_v2.sol\":2894:2915  _balances[msg.sender] */\n      0xffffffffffffffffffffffffffffffffffffffff\n      and\n      0xffffffffffffffffffffffffffffffffffffffff\n      and\n      dup2\n      mstore\n      0x20\n      add\n      swap1\n      dup2\n      mstore\n      0x20\n      add\n      0x00\n      keccak256\n        /* \"budgyToken_v2.sol\":2894:2950  _balances[msg.sender] = _balances[msg.sender].sub(value) */\n      dup2\n      swap1\n      sstore\n      pop\n        /* \"budgyToken_v2.sol\":2973:2997  _balances[to].add(value) */\n      tag_180\n        /* \"budgyToken_v2.sol\":2991:2996  value */\n      dup3\n        /* \"budgyToken_v2.sol\":2973:2982  _balances */\n      0x02\n        /* \"budgyToken_v2.sol\":2973:2986  _balances[to] */\n      0x00\n        /* \"budgyToken_v2.sol\":2983:2985  to */\n      dup7\n        /* \"budgyToken_v2.sol\":2973:2986  _balances[to] */\n      0xffffffffffffffffffffffffffffffffffffffff\n      and\n      0xffffffffffffffffffffffffffffffffffffffff\n      and\n      dup2\n      mstore\n      0x20\n      add\n      swap1\n      dup2\n      mstore\n      0x20\n      add\n      0x00\n      keccak256\n      sload\n        /* \"budgyToken_v2.sol\":2973:2990  _balances[to].add */\n      tag_142\n      swap1\n        /* \"budgyToken_v2.sol\":2973:2997  _balances[to].add(value) */\n      swap2\n      swap1\n      0xffffffff\n      and\n      jump\t// in\n    tag_180:\n        /* \"budgyToken_v2.sol\":2957:2966  _balances */\n      0x02\n        /* \"budgyToken_v2.sol\":2957:2970  _balances[to] */\n      0x00\n        /* \"budgyToken_v2.sol\":2967:2969  to */\n      dup6\n        /* \"budgyToken_v2.sol\":2957:2970  _balances[to] */\n      0xffffffffffffffffffffffffffffffffffffffff\n      and\n      0xffffffffffffffffffffffffffffffffffffffff\n      and\n      dup2\n      mstore\n      0x20\n      add\n      swap1\n      dup2\n      mstore\n      0x20\n      add\n      0x00\n      keccak256\n        /* \"budgyToken_v2.sol\":2957:2997  _balances[to] = _balances[to].add(value) */\n      dup2\n      swap1\n      sstore\n      pop\n        /* \"budgyToken_v2.sol\":3030:3032  to */\n      dup3\n        /* \"budgyToken_v2.sol\":3009:3040  Transfer(msg.sender, to, value) */\n      0xffffffffffffffffffffffffffffffffffffffff\n      and\n        /* \"budgyToken_v2.sol\":3018:3028  msg.sender */\n      caller\n        /* \"budgyToken_v2.sol\":3009:3040  Transfer(msg.sender, to, value) */\n      0xffffffffffffffffffffffffffffffffffffffff\n      and\n      0xddf252ad1be2c89b69c2b068fc378daa952ba7f163c4a11628f55a4df523b3ef\n        /* \"budgyToken_v2.sol\":3034:3039  value */\n      dup5\n        /* \"budgyToken_v2.sol\":3009:3040  Transfer(msg.sender, to, value) */\n      mload(0x40)\n      tag_181\n      swap2\n      swap1\n      tag_37\n      jump\t// in\n    tag_181:\n      mload(0x40)\n      dup1\n      swap2\n      sub\n      swap1\n      log3\n        /* \"budgyToken_v2.sol\":3054:3058  true */\n      0x01\n        /* \"budgyToken_v2.sol\":3047:3058  return true */\n      swap1\n      pop\n        /* \"budgyToken_v2.sol\":2731:3064  function transfer(address to, uint256 value) public override returns (bool) {... */\n      swap3\n      swap2\n      pop\n      pop\n      jump\t// out\n        /* \"budgyToken_v2.sol\":4533:4713  function randomGenerator(uint256 number) public view returns (uint256){... */\n    tag_130:\n        /* \"budgyToken_v2.sol\":4595:4602  uint256 */\n      0x00\n        /* \"budgyToken_v2.sol\":4701:4707  number */\n      dup2\n        /* \"budgyToken_v2.sol\":4651:4666  block.timestamp */\n      timestamp\n        /* \"budgyToken_v2.sol\":4667:4683  block.difficulty */\n      prevrandao\n        /* \"budgyToken_v2.sol\":4685:4695  msg.sender */\n      caller\n        /* \"budgyToken_v2.sol\":4634:4696  abi.encodePacked(block.timestamp,block.difficulty, msg.sender) */\n      add(0x20, mload(0x40))\n      tag_183\n      swap4\n      swap3\n      swap2\n      swap1\n      tag_184\n      jump\t// in\n    tag_183:\n      mload(0x40)\n      0x20\n      dup2\n      dup4\n      sub\n      sub\n      dup2\n      mstore\n      swap1\n      0x40\n      mstore\n        /* \"budgyToken_v2.sol\":4624:4697  keccak256(abi.encodePacked(block.timestamp,block.difficulty, msg.sender)) */\n      dup1\n      mload\n      swap1\n      0x20\n      add\n      keccak256\n        /* \"budgyToken_v2.sol\":4619:4698  uint(keccak256(abi.encodePacked(block.timestamp,block.difficulty, msg.sender))) */\n      0x00\n      shr\n        /* \"budgyToken_v2.sol\":4619:4707  uint(keccak256(abi.encodePacked(block.timestamp,block.difficulty, msg.sender))) % number */\n      tag_185\n      swap2\n      swap1\n      tag_152\n      jump\t// in\n    tag_185:\n        /* \"budgyToken_v2.sol\":4612:4707  return uint(keccak256(abi.encodePacked(block.timestamp,block.difficulty, msg.sender))) % number */\n      swap1\n      pop\n        /* \"budgyToken_v2.sol\":4533:4713  function randomGenerator(uint256 number) public view returns (uint256){... */\n      swap2\n      swap1\n      pop\n      jump\t// out\n        /* \"budgyToken_v2.sol\":2594:2725  function allowance(address owner,address spender)public override view returns (uint256){... */\n    tag_135:\n        /* \"budgyToken_v2.sol\":2673:2680  uint256 */\n      0x00\n        /* \"budgyToken_v2.sol\":2695:2703  _allowed */\n      0x03\n        /* \"budgyToken_v2.sol\":2695:2710  _allowed[owner] */\n      0x00\n        /* \"budgyToken_v2.sol\":2704:2709  owner */\n      dup5\n        /* \"budgyToken_v2.sol\":2695:2710  _allowed[owner] */\n      0xffffffffffffffffffffffffffffffffffffffff\n      and\n      0xffffffffffffffffffffffffffffffffffffffff\n      and\n      dup2\n      mstore\n      0x20\n      add\n      swap1\n      dup2\n      mstore\n      0x20\n      add\n      0x00\n      keccak256\n        /* \"budgyToken_v2.sol\":2695:2719  _allowed[owner][spender] */\n      0x00\n        /* \"budgyToken_v2.sol\":2711:2718  spender */\n      dup4\n        /* \"budgyToken_v2.sol\":2695:2719  _allowed[owner][spender] */\n      0xffffffffffffffffffffffffffffffffffffffff\n      and\n      0xffffffffffffffffffffffffffffffffffffffff\n      and\n      dup2\n      mstore\n      0x20\n      add\n      swap1\n      dup2\n      mstore\n      0x20\n      add\n      0x00\n      keccak256\n      sload\n        /* \"budgyToken_v2.sol\":2688:2719  return _allowed[owner][spender] */\n      swap1\n      pop\n        /* \"budgyToken_v2.sol\":2594:2725  function allowance(address owner,address spender)public override view returns (uint256){... */\n      swap3\n      swap2\n      pop\n      pop\n      jump\t// out\n        /* \"libraries/SafeMath.sol\":331:460  function sub(uint x, uint y) internal pure returns (uint z) {... */\n    tag_140:\n        /* \"libraries/SafeMath.sol\":383:389  uint z */\n      0x00\n        /* \"libraries/SafeMath.sol\":425:426  x */\n      dup3\n        /* \"libraries/SafeMath.sol\":419:420  y */\n      dup3\n        /* \"libraries/SafeMath.sol\":415:416  x */\n      dup5\n        /* \"libraries/SafeMath.sol\":415:420  x - y */\n      tag_188\n      swap2\n      swap1\n      tag_189\n      jump\t// in\n    tag_188:\n        /* \"libraries/SafeMath.sol\":411:420  z = x - y */\n      swap2\n      pop\n      dup2\n        /* \"libraries/SafeMath.sol\":410:426  (z = x - y) <= x */\n      gt\n      iszero\n        /* \"libraries/SafeMath.sol\":402:452  require((z = x - y) <= x, 'ds-math-sub-underflow') */\n      tag_190\n      jumpi\n      mload(0x40)\n      0x08c379a000000000000000000000000000000000000000000000000000000000\n      dup2\n      mstore\n      0x04\n      add\n      tag_191\n      swap1\n      tag_192\n      jump\t// in\n    tag_191:\n      mload(0x40)\n      dup1\n      swap2\n      sub\n      swap1\n      revert\n    tag_190:\n        /* \"libraries/SafeMath.sol\":331:460  function sub(uint x, uint y) internal pure returns (uint z) {... */\n      swap3\n      swap2\n      pop\n      pop\n      jump\t// out\n        /* \"libraries/SafeMath.sol\":199:323  function add(uint x, uint y) internal pure returns (uint z) {... */\n    tag_142:\n        /* \"libraries/SafeMath.sol\":251:257  uint z */\n      0x00\n        /* \"libraries/SafeMath.sol\":289:290  x */\n      dup3\n        /* \"libraries/SafeMath.sol\":283:284  y */\n      dup3\n        /* \"libraries/SafeMath.sol\":279:280  x */\n      dup5\n        /* \"libraries/SafeMath.sol\":279:284  x + y */\n      tag_194\n      swap2\n      swap1\n      tag_195\n      jump\t// in\n    tag_194:\n        /* \"libraries/SafeMath.sol\":275:284  z = x + y */\n      swap2\n      pop\n      dup2\n        /* \"libraries/SafeMath.sol\":274:290  (z = x + y) >= x */\n      lt\n      iszero\n        /* \"libraries/SafeMath.sol\":266:315  require((z = x + y) >= x, 'ds-math-add-overflow') */\n      tag_196\n      jumpi\n      mload(0x40)\n      0x08c379a000000000000000000000000000000000000000000000000000000000\n      dup2\n      mstore\n      0x04\n      add\n      tag_197\n      swap1\n      tag_198\n      jump\t// in\n    tag_197:\n      mload(0x40)\n      dup1\n      swap2\n      sub\n      swap1\n      revert\n    tag_196:\n        /* \"libraries/SafeMath.sol\":199:323  function add(uint x, uint y) internal pure returns (uint z) {... */\n      swap3\n      swap2\n      pop\n      pop\n      jump\t// out\n        /* \"#utility.yul\":7:84   */\n    tag_199:\n        /* \"#utility.yul\":44:51   */\n      0x00\n        /* \"#utility.yul\":73:78   */\n      dup2\n        /* \"#utility.yul\":62:78   */\n      swap1\n      pop\n        /* \"#utility.yul\":7:84   */\n      swap2\n      swap1\n      pop\n      jump\t// out\n        /* \"#utility.yul\":90:270   */\n    tag_200:\n        /* \"#utility.yul\":138:215   */\n      0x4e487b7100000000000000000000000000000000000000000000000000000000\n        /* \"#utility.yul\":135:136   */\n      0x00\n        /* \"#utility.yul\":128:216   */\n      mstore\n        /* \"#utility.yul\":235:239   */\n      0x11\n        /* \"#utility.yul\":232:233   */\n      0x04\n        /* \"#utility.yul\":225:240   */\n      mstore\n        /* \"#utility.yul\":259:263   */\n      0x24\n        /* \"#utility.yul\":256:257   */\n      0x00\n        /* \"#utility.yul\":249:264   */\n      revert\n        /* \"#utility.yul\":276:686   */\n    tag_28:\n        /* \"#utility.yul\":316:323   */\n      0x00\n        /* \"#utility.yul\":339:359   */\n      tag_245\n        /* \"#utility.yul\":357:358   */\n      dup3\n        /* \"#utility.yul\":339:359   */\n      tag_199\n      jump\t// in\n    tag_245:\n        /* \"#utility.yul\":334:359   */\n      swap2\n      pop\n        /* \"#utility.yul\":373:393   */\n      tag_246\n        /* \"#utility.yul\":391:392   */\n      dup4\n        /* \"#utility.yul\":373:393   */\n      tag_199\n      jump\t// in\n    tag_246:\n        /* \"#utility.yul\":368:393   */\n      swap3\n      pop\n        /* \"#utility.yul\":428:429   */\n      dup3\n        /* \"#utility.yul\":425:426   */\n      dup3\n        /* \"#utility.yul\":421:430   */\n      mul\n        /* \"#utility.yul\":450:480   */\n      tag_247\n        /* \"#utility.yul\":468:479   */\n      dup2\n        /* \"#utility.yul\":450:480   */\n      tag_199\n      jump\t// in\n    tag_247:\n        /* \"#utility.yul\":439:480   */\n      swap2\n      pop\n        /* \"#utility.yul\":629:630   */\n      dup3\n        /* \"#utility.yul\":620:627   */\n      dup3\n        /* \"#utility.yul\":616:631   */\n      div\n        /* \"#utility.yul\":613:614   */\n      dup5\n        /* \"#utility.yul\":610:632   */\n      eq\n        /* \"#utility.yul\":590:591   */\n      dup4\n        /* \"#utility.yul\":583:592   */\n      iszero\n        /* \"#utility.yul\":563:646   */\n      or\n        /* \"#utility.yul\":540:679   */\n      tag_248\n      jumpi\n        /* \"#utility.yul\":659:677   */\n      tag_249\n      tag_200\n      jump\t// in\n    tag_249:\n        /* \"#utility.yul\":540:679   */\n    tag_248:\n        /* \"#utility.yul\":324:686   */\n      pop\n        /* \"#utility.yul\":276:686   */\n      swap3\n      swap2\n      pop\n      pop\n      jump\t// out\n        /* \"#utility.yul\":692:861   */\n    tag_201:\n        /* \"#utility.yul\":776:787   */\n      0x00\n        /* \"#utility.yul\":810:816   */\n      dup3\n        /* \"#utility.yul\":805:808   */\n      dup3\n        /* \"#utility.yul\":798:817   */\n      mstore\n        /* \"#utility.yul\":850:854   */\n      0x20\n        /* \"#utility.yul\":845:848   */\n      dup3\n        /* \"#utility.yul\":841:855   */\n      add\n        /* \"#utility.yul\":826:855   */\n      swap1\n      pop\n        /* \"#utility.yul\":692:861   */\n      swap3\n      swap2\n      pop\n      pop\n      jump\t// out\n        /* \"#utility.yul\":867:1034   */\n    tag_202:\n        /* \"#utility.yul\":1007:1026   */\n      0x4e6f7420656e6f75676820746f6b656e73000000000000000000000000000000\n        /* \"#utility.yul\":1003:1004   */\n      0x00\n        /* \"#utility.yul\":995:1001   */\n      dup3\n        /* \"#utility.yul\":991:1005   */\n      add\n        /* \"#utility.yul\":984:1027   */\n      mstore\n        /* \"#utility.yul\":867:1034   */\n      pop\n      jump\t// out\n        /* \"#utility.yul\":1040:1406   */\n    tag_203:\n        /* \"#utility.yul\":1182:1185   */\n      0x00\n        /* \"#utility.yul\":1203:1270   */\n      tag_253\n        /* \"#utility.yul\":1267:1269   */\n      0x11\n        /* \"#utility.yul\":1262:1265   */\n      dup4\n        /* \"#utility.yul\":1203:1270   */\n      tag_201\n      jump\t// in\n    tag_253:\n        /* \"#utility.yul\":1196:1270   */\n      swap2\n      pop\n        /* \"#utility.yul\":1279:1372   */\n      tag_254\n        /* \"#utility.yul\":1368:1371   */\n      dup3\n        /* \"#utility.yul\":1279:1372   */\n      tag_202\n      jump\t// in\n    tag_254:\n        /* \"#utility.yul\":1397:1399   */\n      0x20\n        /* \"#utility.yul\":1392:1395   */\n      dup3\n        /* \"#utility.yul\":1388:1400   */\n      add\n        /* \"#utility.yul\":1381:1400   */\n      swap1\n      pop\n        /* \"#utility.yul\":1040:1406   */\n      swap2\n      swap1\n      pop\n      jump\t// out\n        /* \"#utility.yul\":1412:1831   */\n    tag_33:\n        /* \"#utility.yul\":1578:1582   */\n      0x00\n        /* \"#utility.yul\":1616:1618   */\n      0x20\n        /* \"#utility.yul\":1605:1614   */\n      dup3\n        /* \"#utility.yul\":1601:1619   */\n      add\n        /* \"#utility.yul\":1593:1619   */\n      swap1\n      pop\n        /* \"#utility.yul\":1665:1674   */\n      dup2\n        /* \"#utility.yul\":1659:1663   */\n      dup2\n        /* \"#utility.yul\":1655:1675   */\n      sub\n        /* \"#utility.yul\":1651:1652   */\n      0x00\n        /* \"#utility.yul\":1640:1649   */\n      dup4\n        /* \"#utility.yul\":1636:1653   */\n      add\n        /* \"#utility.yul\":1629:1676   */\n      mstore\n        /* \"#utility.yul\":1693:1824   */\n      tag_256\n        /* \"#utility.yul\":1819:1823   */\n      dup2\n        /* \"#utility.yul\":1693:1824   */\n      tag_203\n      jump\t// in\n    tag_256:\n        /* \"#utility.yul\":1685:1824   */\n      swap1\n      pop\n        /* \"#utility.yul\":1412:1831   */\n      swap2\n      swap1\n      pop\n      jump\t// out\n        /* \"#utility.yul\":1837:1955   */\n    tag_204:\n        /* \"#utility.yul\":1924:1948   */\n      tag_258\n        /* \"#utility.yul\":1942:1947   */\n      dup2\n        /* \"#utility.yul\":1924:1948   */\n      tag_199\n      jump\t// in\n    tag_258:\n        /* \"#utility.yul\":1919:1922   */\n      dup3\n        /* \"#utility.yul\":1912:1949   */\n      mstore\n        /* \"#utility.yul\":1837:1955   */\n      pop\n      pop\n      jump\t// out\n        /* \"#utility.yul\":1961:2183   */\n    tag_37:\n        /* \"#utility.yul\":2054:2058   */\n      0x00\n        /* \"#utility.yul\":2092:2094   */\n      0x20\n        /* \"#utility.yul\":2081:2090   */\n      dup3\n        /* \"#utility.yul\":2077:2095   */\n      add\n        /* \"#utility.yul\":2069:2095   */\n      swap1\n      pop\n        /* \"#utility.yul\":2105:2176   */\n      tag_260\n        /* \"#utility.yul\":2173:2174   */\n      0x00\n        /* \"#utility.yul\":2162:2171   */\n      dup4\n        /* \"#utility.yul\":2158:2175   */\n      add\n        /* \"#utility.yul\":2149:2155   */\n      dup5\n        /* \"#utility.yul\":2105:2176   */\n      tag_204\n      jump\t// in\n    tag_260:\n        /* \"#utility.yul\":1961:2183   */\n      swap3\n      swap2\n      pop\n      pop\n      jump\t// out\n        /* \"#utility.yul\":2189:2288   */\n    tag_205:\n        /* \"#utility.yul\":2241:2247   */\n      0x00\n        /* \"#utility.yul\":2275:2280   */\n      dup2\n        /* \"#utility.yul\":2269:2281   */\n      mload\n        /* \"#utility.yul\":2259:2281   */\n      swap1\n      pop\n        /* \"#utility.yul\":2189:2288   */\n      swap2\n      swap1\n      pop\n      jump\t// out\n        /* \"#utility.yul\":2294:2540   */\n    tag_206:\n        /* \"#utility.yul\":2375:2376   */\n      0x00\n        /* \"#utility.yul\":2385:2498   */\n    tag_263:\n        /* \"#utility.yul\":2399:2405   */\n      dup4\n        /* \"#utility.yul\":2396:2397   */\n      dup2\n        /* \"#utility.yul\":2393:2406   */\n      lt\n        /* \"#utility.yul\":2385:2498   */\n      iszero\n      tag_265\n      jumpi\n        /* \"#utility.yul\":2484:2485   */\n      dup1\n        /* \"#utility.yul\":2479:2482   */\n      dup3\n        /* \"#utility.yul\":2475:2486   */\n      add\n        /* \"#utility.yul\":2469:2487   */\n      mload\n        /* \"#utility.yul\":2465:2466   */\n      dup2\n        /* \"#utility.yul\":2460:2463   */\n      dup5\n        /* \"#utility.yul\":2456:2467   */\n      add\n        /* \"#utility.yul\":2449:2488   */\n      mstore\n        /* \"#utility.yul\":2421:2423   */\n      0x20\n        /* \"#utility.yul\":2418:2419   */\n      dup2\n        /* \"#utility.yul\":2414:2424   */\n      add\n        /* \"#utility.yul\":2409:2424   */\n      swap1\n      pop\n        /* \"#utility.yul\":2385:2498   */\n      jump(tag_263)\n    tag_265:\n        /* \"#utility.yul\":2532:2533   */\n      0x00\n        /* \"#utility.yul\":2523:2529   */\n      dup5\n        /* \"#utility.yul\":2518:2521   */\n      dup5\n        /* \"#utility.yul\":2514:2530   */\n      add\n        /* \"#utility.yul\":2507:2534   */\n      mstore\n        /* \"#utility.yul\":2356:2540   */\n      pop\n        /* \"#utility.yul\":2294:2540   */\n      pop\n      pop\n      pop\n      jump\t// out\n        /* \"#utility.yul\":2546:2648   */\n    tag_207:\n        /* \"#utility.yul\":2587:2593   */\n      0x00\n        /* \"#utility.yul\":2638:2640   */\n      0x1f\n        /* \"#utility.yul\":2634:2641   */\n      not\n        /* \"#utility.yul\":2629:2631   */\n      0x1f\n        /* \"#utility.yul\":2622:2627   */\n      dup4\n        /* \"#utility.yul\":2618:2632   */\n      add\n        /* \"#utility.yul\":2614:2642   */\n      and\n        /* \"#utility.yul\":2604:2642   */\n      swap1\n      pop\n        /* \"#utility.yul\":2546:2648   */\n      swap2\n      swap1\n      pop\n      jump\t// out\n        /* \"#utility.yul\":2654:3031   */\n    tag_208:\n        /* \"#utility.yul\":2742:2745   */\n      0x00\n        /* \"#utility.yul\":2770:2809   */\n      tag_268\n        /* \"#utility.yul\":2803:2808   */\n      dup3\n        /* \"#utility.yul\":2770:2809   */\n      tag_205\n      jump\t// in\n    tag_268:\n        /* \"#utility.yul\":2825:2896   */\n      tag_269\n        /* \"#utility.yul\":2889:2895   */\n      dup2\n        /* \"#utility.yul\":2884:2887   */\n      dup6\n        /* \"#utility.yul\":2825:2896   */\n      tag_201\n      jump\t// in\n    tag_269:\n        /* \"#utility.yul\":2818:2896   */\n      swap4\n      pop\n        /* \"#utility.yul\":2905:2970   */\n      tag_270\n        /* \"#utility.yul\":2963:2969   */\n      dup2\n        /* \"#utility.yul\":2958:2961   */\n      dup6\n        /* \"#utility.yul\":2951:2955   */\n      0x20\n        /* \"#utility.yul\":2944:2949   */\n      dup7\n        /* \"#utility.yul\":2940:2956   */\n      add\n        /* \"#utility.yul\":2905:2970   */\n      tag_206\n      jump\t// in\n    tag_270:\n        /* \"#utility.yul\":2995:3024   */\n      tag_271\n        /* \"#utility.yul\":3017:3023   */\n      dup2\n        /* \"#utility.yul\":2995:3024   */\n      tag_207\n      jump\t// in\n    tag_271:\n        /* \"#utility.yul\":2990:2993   */\n      dup5\n        /* \"#utility.yul\":2986:3025   */\n      add\n        /* \"#utility.yul\":2979:3025   */\n      swap2\n      pop\n        /* \"#utility.yul\":2746:3031   */\n      pop\n        /* \"#utility.yul\":2654:3031   */\n      swap3\n      swap2\n      pop\n      pop\n      jump\t// out\n        /* \"#utility.yul\":3037:3350   */\n    tag_44:\n        /* \"#utility.yul\":3150:3154   */\n      0x00\n        /* \"#utility.yul\":3188:3190   */\n      0x20\n        /* \"#utility.yul\":3177:3186   */\n      dup3\n        /* \"#utility.yul\":3173:3191   */\n      add\n        /* \"#utility.yul\":3165:3191   */\n      swap1\n      pop\n        /* \"#utility.yul\":3237:3246   */\n      dup2\n        /* \"#utility.yul\":3231:3235   */\n      dup2\n        /* \"#utility.yul\":3227:3247   */\n      sub\n        /* \"#utility.yul\":3223:3224   */\n      0x00\n        /* \"#utility.yul\":3212:3221   */\n      dup4\n        /* \"#utility.yul\":3208:3225   */\n      add\n        /* \"#utility.yul\":3201:3248   */\n      mstore\n        /* \"#utility.yul\":3265:3343   */\n      tag_273\n        /* \"#utility.yul\":3338:3342   */\n      dup2\n        /* \"#utility.yul\":3329:3335   */\n      dup5\n        /* \"#utility.yul\":3265:3343   */\n      tag_208\n      jump\t// in\n    tag_273:\n        /* \"#utility.yul\":3257:3343   */\n      swap1\n      pop\n        /* \"#utility.yul\":3037:3350   */\n      swap3\n      swap2\n      pop\n      pop\n      jump\t// out\n        /* \"#utility.yul\":3437:3554   */\n    tag_210:\n        /* \"#utility.yul\":3546:3547   */\n      0x00\n        /* \"#utility.yul\":3543:3544   */\n      dup1\n        /* \"#utility.yul\":3536:3548   */\n      revert\n        /* \"#utility.yul\":3683:3809   */\n    tag_212:\n        /* \"#utility.yul\":3720:3727   */\n      0x00\n        /* \"#utility.yul\":3760:3802   */\n      0xffffffffffffffffffffffffffffffffffffffff\n        /* \"#utility.yul\":3753:3758   */\n      dup3\n        /* \"#utility.yul\":3749:3803   */\n      and\n        /* \"#utility.yul\":3738:3803   */\n      swap1\n      pop\n        /* \"#utility.yul\":3683:3809   */\n      swap2\n      swap1\n      pop\n      jump\t// out\n        /* \"#utility.yul\":3815:3911   */\n    tag_213:\n        /* \"#utility.yul\":3852:3859   */\n      0x00\n        /* \"#utility.yul\":3881:3905   */\n      tag_279\n        /* \"#utility.yul\":3899:3904   */\n      dup3\n        /* \"#utility.yul\":3881:3905   */\n      tag_212\n      jump\t// in\n    tag_279:\n        /* \"#utility.yul\":3870:3905   */\n      swap1\n      pop\n        /* \"#utility.yul\":3815:3911   */\n      swap2\n      swap1\n      pop\n      jump\t// out\n        /* \"#utility.yul\":3917:4039   */\n    tag_214:\n        /* \"#utility.yul\":3990:4014   */\n      tag_281\n        /* \"#utility.yul\":4008:4013   */\n      dup2\n        /* \"#utility.yul\":3990:4014   */\n      tag_213\n      jump\t// in\n    tag_281:\n        /* \"#utility.yul\":3983:3988   */\n      dup2\n        /* \"#utility.yul\":3980:4015   */\n      eq\n        /* \"#utility.yul\":3970:4033   */\n      tag_282\n      jumpi\n        /* \"#utility.yul\":4029:4030   */\n      0x00\n        /* \"#utility.yul\":4026:4027   */\n      dup1\n        /* \"#utility.yul\":4019:4031   */\n      revert\n        /* \"#utility.yul\":3970:4033   */\n    tag_282:\n        /* \"#utility.yul\":3917:4039   */\n      pop\n      jump\t// out\n        /* \"#utility.yul\":4045:4184   */\n    tag_215:\n        /* \"#utility.yul\":4091:4096   */\n      0x00\n        /* \"#utility.yul\":4129:4135   */\n      dup2\n        /* \"#utility.yul\":4116:4136   */\n      calldataload\n        /* \"#utility.yul\":4107:4136   */\n      swap1\n      pop\n        /* \"#utility.yul\":4145:4178   */\n      tag_284\n        /* \"#utility.yul\":4172:4177   */\n      dup2\n        /* \"#utility.yul\":4145:4178   */\n      tag_214\n      jump\t// in\n    tag_284:\n        /* \"#utility.yul\":4045:4184   */\n      swap3\n      swap2\n      pop\n      pop\n      jump\t// out\n        /* \"#utility.yul\":4190:4312   */\n    tag_216:\n        /* \"#utility.yul\":4263:4287   */\n      tag_286\n        /* \"#utility.yul\":4281:4286   */\n      dup2\n        /* \"#utility.yul\":4263:4287   */\n      tag_199\n      jump\t// in\n    tag_286:\n        /* \"#utility.yul\":4256:4261   */\n      dup2\n        /* \"#utility.yul\":4253:4288   */\n      eq\n        /* \"#utility.yul\":4243:4306   */\n      tag_287\n      jumpi\n        /* \"#utility.yul\":4302:4303   */\n      0x00\n        /* \"#utility.yul\":4299:4300   */\n      dup1\n        /* \"#utility.yul\":4292:4304   */\n      revert\n        /* \"#utility.yul\":4243:4306   */\n    tag_287:\n        /* \"#utility.yul\":4190:4312   */\n      pop\n      jump\t// out\n        /* \"#utility.yul\":4318:4457   */\n    tag_217:\n        /* \"#utility.yul\":4364:4369   */\n      0x00\n        /* \"#utility.yul\":4402:4408   */\n      dup2\n        /* \"#utility.yul\":4389:4409   */\n      calldataload\n        /* \"#utility.yul\":4380:4409   */\n      swap1\n      pop\n        /* \"#utility.yul\":4418:4451   */\n      tag_289\n        /* \"#utility.yul\":4445:4450   */\n      dup2\n        /* \"#utility.yul\":4418:4451   */\n      tag_216\n      jump\t// in\n    tag_289:\n        /* \"#utility.yul\":4318:4457   */\n      swap3\n      swap2\n      pop\n      pop\n      jump\t// out\n        /* \"#utility.yul\":4463:4937   */\n    tag_48:\n        /* \"#utility.yul\":4531:4537   */\n      0x00\n        /* \"#utility.yul\":4539:4545   */\n      dup1\n        /* \"#utility.yul\":4588:4590   */\n      0x40\n        /* \"#utility.yul\":4576:4585   */\n      dup4\n        /* \"#utility.yul\":4567:4574   */\n      dup6\n        /* \"#utility.yul\":4563:4586   */\n      sub\n        /* \"#utility.yul\":4559:4591   */\n      slt\n        /* \"#utility.yul\":4556:4675   */\n      iszero\n      tag_291\n      jumpi\n        /* \"#utility.yul\":4594:4673   */\n      tag_292\n      tag_210\n      jump\t// in\n    tag_292:\n        /* \"#utility.yul\":4556:4675   */\n    tag_291:\n        /* \"#utility.yul\":4714:4715   */\n      0x00\n        /* \"#utility.yul\":4739:4792   */\n      tag_293\n        /* \"#utility.yul\":4784:4791   */\n      dup6\n        /* \"#utility.yul\":4775:4781   */\n      dup3\n        /* \"#utility.yul\":4764:4773   */\n      dup7\n        /* \"#utility.yul\":4760:4782   */\n      add\n        /* \"#utility.yul\":4739:4792   */\n      tag_215\n      jump\t// in\n    tag_293:\n        /* \"#utility.yul\":4729:4792   */\n      swap3\n      pop\n        /* \"#utility.yul\":4685:4802   */\n      pop\n        /* \"#utility.yul\":4841:4843   */\n      0x20\n        /* \"#utility.yul\":4867:4920   */\n      tag_294\n        /* \"#utility.yul\":4912:4919   */\n      dup6\n        /* \"#utility.yul\":4903:4909   */\n      dup3\n        /* \"#utility.yul\":4892:4901   */\n      dup7\n        /* \"#utility.yul\":4888:4910   */\n      add\n        /* \"#utility.yul\":4867:4920   */\n      tag_217\n      jump\t// in\n    tag_294:\n        /* \"#utility.yul\":4857:4920   */\n      swap2\n      pop\n        /* \"#utility.yul\":4812:4930   */\n      pop\n        /* \"#utility.yul\":4463:4937   */\n      swap3\n      pop\n      swap3\n      swap1\n      pop\n      jump\t// out\n        /* \"#utility.yul\":4943:5033   */\n    tag_218:\n        /* \"#utility.yul\":4977:4984   */\n      0x00\n        /* \"#utility.yul\":5020:5025   */\n      dup2\n        /* \"#utility.yul\":5013:5026   */\n      iszero\n        /* \"#utility.yul\":5006:5027   */\n      iszero\n        /* \"#utility.yul\":4995:5027   */\n      swap1\n      pop\n        /* \"#utility.yul\":4943:5033   */\n      swap2\n      swap1\n      pop\n      jump\t// out\n        /* \"#utility.yul\":5039:5148   */\n    tag_219:\n        /* \"#utility.yul\":5120:5141   */\n      tag_297\n        /* \"#utility.yul\":5135:5140   */\n      dup2\n        /* \"#utility.yul\":5120:5141   */\n      tag_218\n      jump\t// in\n    tag_297:\n        /* \"#utility.yul\":5115:5118   */\n      dup3\n        /* \"#utility.yul\":5108:5142   */\n      mstore\n        /* \"#utility.yul\":5039:5148   */\n      pop\n      pop\n      jump\t// out\n        /* \"#utility.yul\":5154:5364   */\n    tag_51:\n        /* \"#utility.yul\":5241:5245   */\n      0x00\n        /* \"#utility.yul\":5279:5281   */\n      0x20\n        /* \"#utility.yul\":5268:5277   */\n      dup3\n        /* \"#utility.yul\":5264:5282   */\n      add\n        /* \"#utility.yul\":5256:5282   */\n      swap1\n      pop\n        /* \"#utility.yul\":5292:5357   */\n      tag_299\n        /* \"#utility.yul\":5354:5355   */\n      0x00\n        /* \"#utility.yul\":5343:5352   */\n      dup4\n        /* \"#utility.yul\":5339:5356   */\n      add\n        /* \"#utility.yul\":5330:5336   */\n      dup5\n        /* \"#utility.yul\":5292:5357   */\n      tag_219\n      jump\t// in\n    tag_299:\n        /* \"#utility.yul\":5154:5364   */\n      swap3\n      swap2\n      pop\n      pop\n      jump\t// out\n        /* \"#utility.yul\":5370:5844   */\n    tag_63:\n        /* \"#utility.yul\":5438:5444   */\n      0x00\n        /* \"#utility.yul\":5446:5452   */\n      dup1\n        /* \"#utility.yul\":5495:5497   */\n      0x40\n        /* \"#utility.yul\":5483:5492   */\n      dup4\n        /* \"#utility.yul\":5474:5481   */\n      dup6\n        /* \"#utility.yul\":5470:5493   */\n      sub\n        /* \"#utility.yul\":5466:5498   */\n      slt\n        /* \"#utility.yul\":5463:5582   */\n      iszero\n      tag_301\n      jumpi\n        /* \"#utility.yul\":5501:5580   */\n      tag_302\n      tag_210\n      jump\t// in\n    tag_302:\n        /* \"#utility.yul\":5463:5582   */\n    tag_301:\n        /* \"#utility.yul\":5621:5622   */\n      0x00\n        /* \"#utility.yul\":5646:5699   */\n      tag_303\n        /* \"#utility.yul\":5691:5698   */\n      dup6\n        /* \"#utility.yul\":5682:5688   */\n      dup3\n        /* \"#utility.yul\":5671:5680   */\n      dup7\n        /* \"#utility.yul\":5667:5689   */\n      add\n        /* \"#utility.yul\":5646:5699   */\n      tag_215\n      jump\t// in\n    tag_303:\n        /* \"#utility.yul\":5636:5699   */\n      swap3\n      pop\n        /* \"#utility.yul\":5592:5709   */\n      pop\n        /* \"#utility.yul\":5748:5750   */\n      0x20\n        /* \"#utility.yul\":5774:5827   */\n      tag_304\n        /* \"#utility.yul\":5819:5826   */\n      dup6\n        /* \"#utility.yul\":5810:5816   */\n      dup3\n        /* \"#utility.yul\":5799:5808   */\n      dup7\n        /* \"#utility.yul\":5795:5817   */\n      add\n        /* \"#utility.yul\":5774:5827   */\n      tag_215\n      jump\t// in\n    tag_304:\n        /* \"#utility.yul\":5764:5827   */\n      swap2\n      pop\n        /* \"#utility.yul\":5719:5837   */\n      pop\n        /* \"#utility.yul\":5370:5844   */\n      swap3\n      pop\n      swap3\n      swap1\n      pop\n      jump\t// out\n        /* \"#utility.yul\":5850:6469   */\n    tag_69:\n        /* \"#utility.yul\":5927:5933   */\n      0x00\n        /* \"#utility.yul\":5935:5941   */\n      dup1\n        /* \"#utility.yul\":5943:5949   */\n      0x00\n        /* \"#utility.yul\":5992:5994   */\n      0x60\n        /* \"#utility.yul\":5980:5989   */\n      dup5\n        /* \"#utility.yul\":5971:5978   */\n      dup7\n        /* \"#utility.yul\":5967:5990   */\n      sub\n        /* \"#utility.yul\":5963:5995   */\n      slt\n        /* \"#utility.yul\":5960:6079   */\n      iszero\n      tag_306\n      jumpi\n        /* \"#utility.yul\":5998:6077   */\n      tag_307\n      tag_210\n      jump\t// in\n    tag_307:\n        /* \"#utility.yul\":5960:6079   */\n    tag_306:\n        /* \"#utility.yul\":6118:6119   */\n      0x00\n        /* \"#utility.yul\":6143:6196   */\n      tag_308\n        /* \"#utility.yul\":6188:6195   */\n      dup7\n        /* \"#utility.yul\":6179:6185   */\n      dup3\n        /* \"#utility.yul\":6168:6177   */\n      dup8\n        /* \"#utility.yul\":6164:6186   */\n      add\n        /* \"#utility.yul\":6143:6196   */\n      tag_215\n      jump\t// in\n    tag_308:\n        /* \"#utility.yul\":6133:6196   */\n      swap4\n      pop\n        /* \"#utility.yul\":6089:6206   */\n      pop\n        /* \"#utility.yul\":6245:6247   */\n      0x20\n        /* \"#utility.yul\":6271:6324   */\n      tag_309\n        /* \"#utility.yul\":6316:6323   */\n      dup7\n        /* \"#utility.yul\":6307:6313   */\n      dup3\n        /* \"#utility.yul\":6296:6305   */\n      dup8\n        /* \"#utility.yul\":6292:6314   */\n      add\n        /* \"#utility.yul\":6271:6324   */\n      tag_215\n      jump\t// in\n    tag_309:\n        /* \"#utility.yul\":6261:6324   */\n      swap3\n      pop\n        /* \"#utility.yul\":6216:6334   */\n      pop\n        /* \"#utility.yul\":6373:6375   */\n      0x40\n        /* \"#utility.yul\":6399:6452   */\n      tag_310\n        /* \"#utility.yul\":6444:6451   */\n      dup7\n        /* \"#utility.yul\":6435:6441   */\n      dup3\n        /* \"#utility.yul\":6424:6433   */\n      dup8\n        /* \"#utility.yul\":6420:6442   */\n      add\n        /* \"#utility.yul\":6399:6452   */\n      tag_217\n      jump\t// in\n    tag_310:\n        /* \"#utility.yul\":6389:6452   */\n      swap2\n      pop\n        /* \"#utility.yul\":6344:6462   */\n      pop\n        /* \"#utility.yul\":5850:6469   */\n      swap3\n      pop\n      swap3\n      pop\n      swap3\n      jump\t// out\n        /* \"#utility.yul\":6475:6561   */\n    tag_220:\n        /* \"#utility.yul\":6510:6517   */\n      0x00\n        /* \"#utility.yul\":6550:6554   */\n      0xff\n        /* \"#utility.yul\":6543:6548   */\n      dup3\n        /* \"#utility.yul\":6539:6555   */\n      and\n        /* \"#utility.yul\":6528:6555   */\n      swap1\n      pop\n        /* \"#utility.yul\":6475:6561   */\n      swap2\n      swap1\n      pop\n      jump\t// out\n        /* \"#utility.yul\":6567:6679   */\n    tag_221:\n        /* \"#utility.yul\":6650:6672   */\n      tag_313\n        /* \"#utility.yul\":6666:6671   */\n      dup2\n        /* \"#utility.yul\":6650:6672   */\n      tag_220\n      jump\t// in\n    tag_313:\n        /* \"#utility.yul\":6645:6648   */\n      dup3\n        /* \"#utility.yul\":6638:6673   */\n      mstore\n        /* \"#utility.yul\":6567:6679   */\n      pop\n      pop\n      jump\t// out\n        /* \"#utility.yul\":6685:6899   */\n    tag_76:\n        /* \"#utility.yul\":6774:6778   */\n      0x00\n        /* \"#utility.yul\":6812:6814   */\n      0x20\n        /* \"#utility.yul\":6801:6810   */\n      dup3\n        /* \"#utility.yul\":6797:6815   */\n      add\n        /* \"#utility.yul\":6789:6815   */\n      swap1\n      pop\n        /* \"#utility.yul\":6825:6892   */\n      tag_315\n        /* \"#utility.yul\":6889:6890   */\n      0x00\n        /* \"#utility.yul\":6878:6887   */\n      dup4\n        /* \"#utility.yul\":6874:6891   */\n      add\n        /* \"#utility.yul\":6865:6871   */\n      dup5\n        /* \"#utility.yul\":6825:6892   */\n      tag_221\n      jump\t// in\n    tag_315:\n        /* \"#utility.yul\":6685:6899   */\n      swap3\n      swap2\n      pop\n      pop\n      jump\t// out\n        /* \"#utility.yul\":6905:7234   */\n    tag_93:\n        /* \"#utility.yul\":6964:6970   */\n      0x00\n        /* \"#utility.yul\":7013:7015   */\n      0x20\n        /* \"#utility.yul\":7001:7010   */\n      dup3\n        /* \"#utility.yul\":6992:6999   */\n      dup5\n        /* \"#utility.yul\":6988:7011   */\n      sub\n        /* \"#utility.yul\":6984:7016   */\n      slt\n        /* \"#utility.yul\":6981:7100   */\n      iszero\n      tag_317\n      jumpi\n        /* \"#utility.yul\":7019:7098   */\n      tag_318\n      tag_210\n      jump\t// in\n    tag_318:\n        /* \"#utility.yul\":6981:7100   */\n    tag_317:\n        /* \"#utility.yul\":7139:7140   */\n      0x00\n        /* \"#utility.yul\":7164:7217   */\n      tag_319\n        /* \"#utility.yul\":7209:7216   */\n      dup5\n        /* \"#utility.yul\":7200:7206   */\n      dup3\n        /* \"#utility.yul\":7189:7198   */\n      dup6\n        /* \"#utility.yul\":7185:7207   */\n      add\n        /* \"#utility.yul\":7164:7217   */\n      tag_215\n      jump\t// in\n    tag_319:\n        /* \"#utility.yul\":7154:7217   */\n      swap2\n      pop\n        /* \"#utility.yul\":7110:7227   */\n      pop\n        /* \"#utility.yul\":6905:7234   */\n      swap3\n      swap2\n      pop\n      pop\n      jump\t// out\n        /* \"#utility.yul\":7240:7354   */\n    tag_222:\n        /* \"#utility.yul\":7307:7313   */\n      0x00\n        /* \"#utility.yul\":7341:7346   */\n      dup2\n        /* \"#utility.yul\":7335:7347   */\n      mload\n        /* \"#utility.yul\":7325:7347   */\n      swap1\n      pop\n        /* \"#utility.yul\":7240:7354   */\n      swap2\n      swap1\n      pop\n      jump\t// out\n        /* \"#utility.yul\":7360:7544   */\n    tag_223:\n        /* \"#utility.yul\":7459:7470   */\n      0x00\n        /* \"#utility.yul\":7493:7499   */\n      dup3\n        /* \"#utility.yul\":7488:7491   */\n      dup3\n        /* \"#utility.yul\":7481:7500   */\n      mstore\n        /* \"#utility.yul\":7533:7537   */\n      0x20\n        /* \"#utility.yul\":7528:7531   */\n      dup3\n        /* \"#utility.yul\":7524:7538   */\n      add\n        /* \"#utility.yul\":7509:7538   */\n      swap1\n      pop\n        /* \"#utility.yul\":7360:7544   */\n      swap3\n      swap2\n      pop\n      pop\n      jump\t// out\n        /* \"#utility.yul\":7550:7682   */\n    tag_224:\n        /* \"#utility.yul\":7617:7621   */\n      0x00\n        /* \"#utility.yul\":7640:7643   */\n      dup2\n        /* \"#utility.yul\":7632:7643   */\n      swap1\n      pop\n        /* \"#utility.yul\":7670:7674   */\n      0x20\n        /* \"#utility.yul\":7665:7668   */\n      dup3\n        /* \"#utility.yul\":7661:7675   */\n      add\n        /* \"#utility.yul\":7653:7675   */\n      swap1\n      pop\n        /* \"#utility.yul\":7550:7682   */\n      swap2\n      swap1\n      pop\n      jump\t// out\n        /* \"#utility.yul\":7688:7796   */\n    tag_225:\n        /* \"#utility.yul\":7765:7789   */\n      tag_324\n        /* \"#utility.yul\":7783:7788   */\n      dup2\n        /* \"#utility.yul\":7765:7789   */\n      tag_213\n      jump\t// in\n    tag_324:\n        /* \"#utility.yul\":7760:7763   */\n      dup3\n        /* \"#utility.yul\":7753:7790   */\n      mstore\n        /* \"#utility.yul\":7688:7796   */\n      pop\n      pop\n      jump\t// out\n        /* \"#utility.yul\":7802:7981   */\n    tag_226:\n        /* \"#utility.yul\":7871:7881   */\n      0x00\n        /* \"#utility.yul\":7892:7938   */\n      tag_326\n        /* \"#utility.yul\":7934:7937   */\n      dup4\n        /* \"#utility.yul\":7926:7932   */\n      dup4\n        /* \"#utility.yul\":7892:7938   */\n      tag_225\n      jump\t// in\n    tag_326:\n        /* \"#utility.yul\":7970:7974   */\n      0x20\n        /* \"#utility.yul\":7965:7968   */\n      dup4\n        /* \"#utility.yul\":7961:7975   */\n      add\n        /* \"#utility.yul\":7947:7975   */\n      swap1\n      pop\n        /* \"#utility.yul\":7802:7981   */\n      swap3\n      swap2\n      pop\n      pop\n      jump\t// out\n        /* \"#utility.yul\":7987:8100   */\n    tag_227:\n        /* \"#utility.yul\":8057:8061   */\n      0x00\n        /* \"#utility.yul\":8089:8093   */\n      0x20\n        /* \"#utility.yul\":8084:8087   */\n      dup3\n        /* \"#utility.yul\":8080:8094   */\n      add\n        /* \"#utility.yul\":8072:8094   */\n      swap1\n      pop\n        /* \"#utility.yul\":7987:8100   */\n      swap2\n      swap1\n      pop\n      jump\t// out\n        /* \"#utility.yul\":8136:8868   */\n    tag_228:\n        /* \"#utility.yul\":8255:8258   */\n      0x00\n        /* \"#utility.yul\":8284:8338   */\n      tag_329\n        /* \"#utility.yul\":8332:8337   */\n      dup3\n        /* \"#utility.yul\":8284:8338   */\n      tag_222\n      jump\t// in\n    tag_329:\n        /* \"#utility.yul\":8354:8440   */\n      tag_330\n        /* \"#utility.yul\":8433:8439   */\n      dup2\n        /* \"#utility.yul\":8428:8431   */\n      dup6\n        /* \"#utility.yul\":8354:8440   */\n      tag_223\n      jump\t// in\n    tag_330:\n        /* \"#utility.yul\":8347:8440   */\n      swap4\n      pop\n        /* \"#utility.yul\":8464:8520   */\n      tag_331\n        /* \"#utility.yul\":8514:8519   */\n      dup4\n        /* \"#utility.yul\":8464:8520   */\n      tag_224\n      jump\t// in\n    tag_331:\n        /* \"#utility.yul\":8543:8550   */\n      dup1\n        /* \"#utility.yul\":8574:8575   */\n      0x00\n        /* \"#utility.yul\":8559:8843   */\n    tag_332:\n        /* \"#utility.yul\":8584:8590   */\n      dup4\n        /* \"#utility.yul\":8581:8582   */\n      dup2\n        /* \"#utility.yul\":8578:8591   */\n      lt\n        /* \"#utility.yul\":8559:8843   */\n      iszero\n      tag_334\n      jumpi\n        /* \"#utility.yul\":8660:8666   */\n      dup2\n        /* \"#utility.yul\":8654:8667   */\n      mload\n        /* \"#utility.yul\":8687:8750   */\n      tag_335\n        /* \"#utility.yul\":8746:8749   */\n      dup9\n        /* \"#utility.yul\":8731:8744   */\n      dup3\n        /* \"#utility.yul\":8687:8750   */\n      tag_226\n      jump\t// in\n    tag_335:\n        /* \"#utility.yul\":8680:8750   */\n      swap8\n      pop\n        /* \"#utility.yul\":8773:8833   */\n      tag_336\n        /* \"#utility.yul\":8826:8832   */\n      dup4\n        /* \"#utility.yul\":8773:8833   */\n      tag_227\n      jump\t// in\n    tag_336:\n        /* \"#utility.yul\":8763:8833   */\n      swap3\n      pop\n        /* \"#utility.yul\":8619:8843   */\n      pop\n        /* \"#utility.yul\":8606:8607   */\n      0x01\n        /* \"#utility.yul\":8603:8604   */\n      dup2\n        /* \"#utility.yul\":8599:8608   */\n      add\n        /* \"#utility.yul\":8594:8608   */\n      swap1\n      pop\n        /* \"#utility.yul\":8559:8843   */\n      jump(tag_332)\n    tag_334:\n        /* \"#utility.yul\":8563:8577   */\n      pop\n        /* \"#utility.yul\":8859:8862   */\n      dup6\n        /* \"#utility.yul\":8852:8862   */\n      swap4\n      pop\n        /* \"#utility.yul\":8260:8868   */\n      pop\n      pop\n      pop\n        /* \"#utility.yul\":8136:8868   */\n      swap3\n      swap2\n      pop\n      pop\n      jump\t// out\n        /* \"#utility.yul\":8874:9247   */\n    tag_100:\n        /* \"#utility.yul\":9017:9021   */\n      0x00\n        /* \"#utility.yul\":9055:9057   */\n      0x20\n        /* \"#utility.yul\":9044:9053   */\n      dup3\n        /* \"#utility.yul\":9040:9058   */\n      add\n        /* \"#utility.yul\":9032:9058   */\n      swap1\n      pop\n        /* \"#utility.yul\":9104:9113   */\n      dup2\n        /* \"#utility.yul\":9098:9102   */\n      dup2\n        /* \"#utility.yul\":9094:9114   */\n      sub\n        /* \"#utility.yul\":9090:9091   */\n      0x00\n        /* \"#utility.yul\":9079:9088   */\n      dup4\n        /* \"#utility.yul\":9075:9092   */\n      add\n        /* \"#utility.yul\":9068:9115   */\n      mstore\n        /* \"#utility.yul\":9132:9240   */\n      tag_338\n        /* \"#utility.yul\":9235:9239   */\n      dup2\n        /* \"#utility.yul\":9226:9232   */\n      dup5\n        /* \"#utility.yul\":9132:9240   */\n      tag_228\n      jump\t// in\n    tag_338:\n        /* \"#utility.yul\":9124:9240   */\n      swap1\n      pop\n        /* \"#utility.yul\":8874:9247   */\n      swap3\n      swap2\n      pop\n      pop\n      jump\t// out\n        /* \"#utility.yul\":9253:9371   */\n    tag_229:\n        /* \"#utility.yul\":9340:9364   */\n      tag_340\n        /* \"#utility.yul\":9358:9363   */\n      dup2\n        /* \"#utility.yul\":9340:9364   */\n      tag_213\n      jump\t// in\n    tag_340:\n        /* \"#utility.yul\":9335:9338   */\n      dup3\n        /* \"#utility.yul\":9328:9365   */\n      mstore\n        /* \"#utility.yul\":9253:9371   */\n      pop\n      pop\n      jump\t// out\n        /* \"#utility.yul\":9377:9599   */\n    tag_109:\n        /* \"#utility.yul\":9470:9474   */\n      0x00\n        /* \"#utility.yul\":9508:9510   */\n      0x20\n        /* \"#utility.yul\":9497:9506   */\n      dup3\n        /* \"#utility.yul\":9493:9511   */\n      add\n        /* \"#utility.yul\":9485:9511   */\n      swap1\n      pop\n        /* \"#utility.yul\":9521:9592   */\n      tag_342\n        /* \"#utility.yul\":9589:9590   */\n      0x00\n        /* \"#utility.yul\":9578:9587   */\n      dup4\n        /* \"#utility.yul\":9574:9591   */\n      add\n        /* \"#utility.yul\":9565:9571   */\n      dup5\n        /* \"#utility.yul\":9521:9592   */\n      tag_229\n      jump\t// in\n    tag_342:\n        /* \"#utility.yul\":9377:9599   */\n      swap3\n      swap2\n      pop\n      pop\n      jump\t// out\n        /* \"#utility.yul\":9605:9925   */\n    tag_120:\n        /* \"#utility.yul\":9720:9724   */\n      0x00\n        /* \"#utility.yul\":9758:9760   */\n      0x40\n        /* \"#utility.yul\":9747:9756   */\n      dup3\n        /* \"#utility.yul\":9743:9761   */\n      add\n        /* \"#utility.yul\":9735:9761   */\n      swap1\n      pop\n        /* \"#utility.yul\":9771:9842   */\n      tag_344\n        /* \"#utility.yul\":9839:9840   */\n      0x00\n        /* \"#utility.yul\":9828:9837   */\n      dup4\n        /* \"#utility.yul\":9824:9841   */\n      add\n        /* \"#utility.yul\":9815:9821   */\n      dup6\n        /* \"#utility.yul\":9771:9842   */\n      tag_204\n      jump\t// in\n    tag_344:\n        /* \"#utility.yul\":9852:9918   */\n      tag_345\n        /* \"#utility.yul\":9914:9916   */\n      0x20\n        /* \"#utility.yul\":9903:9912   */\n      dup4\n        /* \"#utility.yul\":9899:9917   */\n      add\n        /* \"#utility.yul\":9890:9896   */\n      dup5\n        /* \"#utility.yul\":9852:9918   */\n      tag_219\n      jump\t// in\n    tag_345:\n        /* \"#utility.yul\":9605:9925   */\n      swap4\n      swap3\n      pop\n      pop\n      pop\n      jump\t// out\n        /* \"#utility.yul\":9931:10260   */\n    tag_129:\n        /* \"#utility.yul\":9990:9996   */\n      0x00\n        /* \"#utility.yul\":10039:10041   */\n      0x20\n        /* \"#utility.yul\":10027:10036   */\n      dup3\n        /* \"#utility.yul\":10018:10025   */\n      dup5\n        /* \"#utility.yul\":10014:10037   */\n      sub\n        /* \"#utility.yul\":10010:10042   */\n      slt\n        /* \"#utility.yul\":10007:10126   */\n      iszero\n      tag_347\n      jumpi\n        /* \"#utility.yul\":10045:10124   */\n      tag_348\n      tag_210\n      jump\t// in\n    tag_348:\n        /* \"#utility.yul\":10007:10126   */\n    tag_347:\n        /* \"#utility.yul\":10165:10166   */\n      0x00\n        /* \"#utility.yul\":10190:10243   */\n      tag_349\n        /* \"#utility.yul\":10235:10242   */\n      dup5\n        /* \"#utility.yul\":10226:10232   */\n      dup3\n        /* \"#utility.yul\":10215:10224   */\n      dup6\n        /* \"#utility.yul\":10211:10233   */\n      add\n        /* \"#utility.yul\":10190:10243   */\n      tag_217\n      jump\t// in\n    tag_349:\n        /* \"#utility.yul\":10180:10243   */\n      swap2\n      pop\n        /* \"#utility.yul\":10136:10253   */\n      pop\n        /* \"#utility.yul\":9931:10260   */\n      swap3\n      swap2\n      pop\n      pop\n      jump\t// out\n        /* \"#utility.yul\":10266:10446   */\n    tag_230:\n        /* \"#utility.yul\":10314:10391   */\n      0x4e487b7100000000000000000000000000000000000000000000000000000000\n        /* \"#utility.yul\":10311:10312   */\n      0x00\n        /* \"#utility.yul\":10304:10392   */\n      mstore\n        /* \"#utility.yul\":10411:10415   */\n      0x12\n        /* \"#utility.yul\":10408:10409   */\n      0x04\n        /* \"#utility.yul\":10401:10416   */\n      mstore\n        /* \"#utility.yul\":10435:10439   */\n      0x24\n        /* \"#utility.yul\":10432:10433   */\n      0x00\n        /* \"#utility.yul\":10425:10440   */\n      revert\n        /* \"#utility.yul\":10452:10628   */\n    tag_152:\n        /* \"#utility.yul\":10484:10485   */\n      0x00\n        /* \"#utility.yul\":10501:10521   */\n      tag_352\n        /* \"#utility.yul\":10519:10520   */\n      dup3\n        /* \"#utility.yul\":10501:10521   */\n      tag_199\n      jump\t// in\n    tag_352:\n        /* \"#utility.yul\":10496:10521   */\n      swap2\n      pop\n        /* \"#utility.yul\":10535:10555   */\n      tag_353\n        /* \"#utility.yul\":10553:10554   */\n      dup4\n        /* \"#utility.yul\":10535:10555   */\n      tag_199\n      jump\t// in\n    tag_353:\n        /* \"#utility.yul\":10530:10555   */\n      swap3\n      pop\n        /* \"#utility.yul\":10574:10575   */\n      dup3\n        /* \"#utility.yul\":10564:10599   */\n      tag_354\n      jumpi\n        /* \"#utility.yul\":10579:10597   */\n      tag_355\n      tag_230\n      jump\t// in\n    tag_355:\n        /* \"#utility.yul\":10564:10599   */\n    tag_354:\n        /* \"#utility.yul\":10620:10621   */\n      dup3\n        /* \"#utility.yul\":10617:10618   */\n      dup3\n        /* \"#utility.yul\":10613:10622   */\n      mod\n        /* \"#utility.yul\":10608:10622   */\n      swap1\n      pop\n        /* \"#utility.yul\":10452:10628   */\n      swap3\n      swap2\n      pop\n      pop\n      jump\t// out\n        /* \"#utility.yul\":10634:10713   */\n    tag_231:\n        /* \"#utility.yul\":10673:10680   */\n      0x00\n        /* \"#utility.yul\":10702:10707   */\n      dup2\n        /* \"#utility.yul\":10691:10707   */\n      swap1\n      pop\n        /* \"#utility.yul\":10634:10713   */\n      swap2\n      swap1\n      pop\n      jump\t// out\n        /* \"#utility.yul\":10719:10876   */\n    tag_232:\n        /* \"#utility.yul\":10824:10869   */\n      tag_358\n        /* \"#utility.yul\":10844:10868   */\n      tag_359\n        /* \"#utility.yul\":10862:10867   */\n      dup3\n        /* \"#utility.yul\":10844:10868   */\n      tag_199\n      jump\t// in\n    tag_359:\n        /* \"#utility.yul\":10824:10869   */\n      tag_231\n      jump\t// in\n    tag_358:\n        /* \"#utility.yul\":10819:10822   */\n      dup3\n        /* \"#utility.yul\":10812:10870   */\n      mstore\n        /* \"#utility.yul\":10719:10876   */\n      pop\n      pop\n      jump\t// out\n        /* \"#utility.yul\":10882:10976   */\n    tag_233:\n        /* \"#utility.yul\":10915:10923   */\n      0x00\n        /* \"#utility.yul\":10963:10968   */\n      dup2\n        /* \"#utility.yul\":10959:10961   */\n      0x60\n        /* \"#utility.yul\":10955:10969   */\n      shl\n        /* \"#utility.yul\":10934:10969   */\n      swap1\n      pop\n        /* \"#utility.yul\":10882:10976   */\n      swap2\n      swap1\n      pop\n      jump\t// out\n        /* \"#utility.yul\":10982:11076   */\n    tag_234:\n        /* \"#utility.yul\":11021:11028   */\n      0x00\n        /* \"#utility.yul\":11050:11070   */\n      tag_362\n        /* \"#utility.yul\":11064:11069   */\n      dup3\n        /* \"#utility.yul\":11050:11070   */\n      tag_233\n      jump\t// in\n    tag_362:\n        /* \"#utility.yul\":11039:11070   */\n      swap1\n      pop\n        /* \"#utility.yul\":10982:11076   */\n      swap2\n      swap1\n      pop\n      jump\t// out\n        /* \"#utility.yul\":11082:11182   */\n    tag_235:\n        /* \"#utility.yul\":11121:11128   */\n      0x00\n        /* \"#utility.yul\":11150:11176   */\n      tag_364\n        /* \"#utility.yul\":11170:11175   */\n      dup3\n        /* \"#utility.yul\":11150:11176   */\n      tag_234\n      jump\t// in\n    tag_364:\n        /* \"#utility.yul\":11139:11176   */\n      swap1\n      pop\n        /* \"#utility.yul\":11082:11182   */\n      swap2\n      swap1\n      pop\n      jump\t// out\n        /* \"#utility.yul\":11188:11345   */\n    tag_236:\n        /* \"#utility.yul\":11293:11338   */\n      tag_366\n        /* \"#utility.yul\":11313:11337   */\n      tag_367\n        /* \"#utility.yul\":11331:11336   */\n      dup3\n        /* \"#utility.yul\":11313:11337   */\n      tag_213\n      jump\t// in\n    tag_367:\n        /* \"#utility.yul\":11293:11338   */\n      tag_235\n      jump\t// in\n    tag_366:\n        /* \"#utility.yul\":11288:11291   */\n      dup3\n        /* \"#utility.yul\":11281:11339   */\n      mstore\n        /* \"#utility.yul\":11188:11345   */\n      pop\n      pop\n      jump\t// out\n        /* \"#utility.yul\":11351:11889   */\n    tag_184:\n        /* \"#utility.yul\":11519:11522   */\n      0x00\n        /* \"#utility.yul\":11534:11609   */\n      tag_369\n        /* \"#utility.yul\":11605:11608   */\n      dup3\n        /* \"#utility.yul\":11596:11602   */\n      dup7\n        /* \"#utility.yul\":11534:11609   */\n      tag_232\n      jump\t// in\n    tag_369:\n        /* \"#utility.yul\":11634:11636   */\n      0x20\n        /* \"#utility.yul\":11629:11632   */\n      dup3\n        /* \"#utility.yul\":11625:11637   */\n      add\n        /* \"#utility.yul\":11618:11637   */\n      swap2\n      pop\n        /* \"#utility.yul\":11647:11722   */\n      tag_370\n        /* \"#utility.yul\":11718:11721   */\n      dup3\n        /* \"#utility.yul\":11709:11715   */\n      dup6\n        /* \"#utility.yul\":11647:11722   */\n      tag_232\n      jump\t// in\n    tag_370:\n        /* \"#utility.yul\":11747:11749   */\n      0x20\n        /* \"#utility.yul\":11742:11745   */\n      dup3\n        /* \"#utility.yul\":11738:11750   */\n      add\n        /* \"#utility.yul\":11731:11750   */\n      swap2\n      pop\n        /* \"#utility.yul\":11760:11835   */\n      tag_371\n        /* \"#utility.yul\":11831:11834   */\n      dup3\n        /* \"#utility.yul\":11822:11828   */\n      dup5\n        /* \"#utility.yul\":11760:11835   */\n      tag_236\n      jump\t// in\n    tag_371:\n        /* \"#utility.yul\":11860:11862   */\n      0x14\n        /* \"#utility.yul\":11855:11858   */\n      dup3\n        /* \"#utility.yul\":11851:11863   */\n      add\n        /* \"#utility.yul\":11844:11863   */\n      swap2\n      pop\n        /* \"#utility.yul\":11880:11883   */\n      dup2\n        /* \"#utility.yul\":11873:11883   */\n      swap1\n      pop\n        /* \"#utility.yul\":11351:11889   */\n      swap5\n      swap4\n      pop\n      pop\n      pop\n      pop\n      jump\t// out\n        /* \"#utility.yul\":11895:12089   */\n    tag_189:\n        /* \"#utility.yul\":11935:11939   */\n      0x00\n        /* \"#utility.yul\":11955:11975   */\n      tag_373\n        /* \"#utility.yul\":11973:11974   */\n      dup3\n        /* \"#utility.yul\":11955:11975   */\n      tag_199\n      jump\t// in\n    tag_373:\n        /* \"#utility.yul\":11950:11975   */\n      swap2\n      pop\n        /* \"#utility.yul\":11989:12009   */\n      tag_374\n        /* \"#utility.yul\":12007:12008   */\n      dup4\n        /* \"#utility.yul\":11989:12009   */\n      tag_199\n      jump\t// in\n    tag_374:\n        /* \"#utility.yul\":11984:12009   */\n      swap3\n      pop\n        /* \"#utility.yul\":12033:12034   */\n      dup3\n        /* \"#utility.yul\":12030:12031   */\n      dup3\n        /* \"#utility.yul\":12026:12035   */\n      sub\n        /* \"#utility.yul\":12018:12035   */\n      swap1\n      pop\n        /* \"#utility.yul\":12057:12058   */\n      dup2\n        /* \"#utility.yul\":12051:12055   */\n      dup2\n        /* \"#utility.yul\":12048:12059   */\n      gt\n        /* \"#utility.yul\":12045:12082   */\n      iszero\n      tag_375\n      jumpi\n        /* \"#utility.yul\":12062:12080   */\n      tag_376\n      tag_200\n      jump\t// in\n    tag_376:\n        /* \"#utility.yul\":12045:12082   */\n    tag_375:\n        /* \"#utility.yul\":11895:12089   */\n      swap3\n      swap2\n      pop\n      pop\n      jump\t// out\n        /* \"#utility.yul\":12095:12266   */\n    tag_237:\n        /* \"#utility.yul\":12235:12258   */\n      0x64732d6d6174682d7375622d756e646572666c6f770000000000000000000000\n        /* \"#utility.yul\":12231:12232   */\n      0x00\n        /* \"#utility.yul\":12223:12229   */\n      dup3\n        /* \"#utility.yul\":12219:12233   */\n      add\n        /* \"#utility.yul\":12212:12259   */\n      mstore\n        /* \"#utility.yul\":12095:12266   */\n      pop\n      jump\t// out\n        /* \"#utility.yul\":12272:12638   */\n    tag_238:\n        /* \"#utility.yul\":12414:12417   */\n      0x00\n        /* \"#utility.yul\":12435:12502   */\n      tag_379\n        /* \"#utility.yul\":12499:12501   */\n      0x15\n        /* \"#utility.yul\":12494:12497   */\n      dup4\n        /* \"#utility.yul\":12435:12502   */\n      tag_201\n      jump\t// in\n    tag_379:\n        /* \"#utility.yul\":12428:12502   */\n      swap2\n      pop\n        /* \"#utility.yul\":12511:12604   */\n      tag_380\n        /* \"#utility.yul\":12600:12603   */\n      dup3\n        /* \"#utility.yul\":12511:12604   */\n      tag_237\n      jump\t// in\n    tag_380:\n        /* \"#utility.yul\":12629:12631   */\n      0x20\n        /* \"#utility.yul\":12624:12627   */\n      dup3\n        /* \"#utility.yul\":12620:12632   */\n      add\n        /* \"#utility.yul\":12613:12632   */\n      swap1\n      pop\n        /* \"#utility.yul\":12272:12638   */\n      swap2\n      swap1\n      pop\n      jump\t// out\n        /* \"#utility.yul\":12644:13063   */\n    tag_192:\n        /* \"#utility.yul\":12810:12814   */\n      0x00\n        /* \"#utility.yul\":12848:12850   */\n      0x20\n        /* \"#utility.yul\":12837:12846   */\n      dup3\n        /* \"#utility.yul\":12833:12851   */\n      add\n        /* \"#utility.yul\":12825:12851   */\n      swap1\n      pop\n        /* \"#utility.yul\":12897:12906   */\n      dup2\n        /* \"#utility.yul\":12891:12895   */\n      dup2\n        /* \"#utility.yul\":12887:12907   */\n      sub\n        /* \"#utility.yul\":12883:12884   */\n      0x00\n        /* \"#utility.yul\":12872:12881   */\n      dup4\n        /* \"#utility.yul\":12868:12885   */\n      add\n        /* \"#utility.yul\":12861:12908   */\n      mstore\n        /* \"#utility.yul\":12925:13056   */\n      tag_382\n        /* \"#utility.yul\":13051:13055   */\n      dup2\n        /* \"#utility.yul\":12925:13056   */\n      tag_238\n      jump\t// in\n    tag_382:\n        /* \"#utility.yul\":12917:13056   */\n      swap1\n      pop\n        /* \"#utility.yul\":12644:13063   */\n      swap2\n      swap1\n      pop\n      jump\t// out\n        /* \"#utility.yul\":13069:13260   */\n    tag_195:\n        /* \"#utility.yul\":13109:13112   */\n      0x00\n        /* \"#utility.yul\":13128:13148   */\n      tag_384\n        /* \"#utility.yul\":13146:13147   */\n      dup3\n        /* \"#utility.yul\":13128:13148   */\n      tag_199\n      jump\t// in\n    tag_384:\n        /* \"#utility.yul\":13123:13148   */\n      swap2\n      pop\n        /* \"#utility.yul\":13162:13182   */\n      tag_385\n        /* \"#utility.yul\":13180:13181   */\n      dup4\n        /* \"#utility.yul\":13162:13182   */\n      tag_199\n      jump\t// in\n    tag_385:\n        /* \"#utility.yul\":13157:13182   */\n      swap3\n      pop\n        /* \"#utility.yul\":13205:13206   */\n      dup3\n        /* \"#utility.yul\":13202:13203   */\n      dup3\n        /* \"#utility.yul\":13198:13207   */\n      add\n        /* \"#utility.yul\":13191:13207   */\n      swap1\n      pop\n        /* \"#utility.yul\":13226:13229   */\n      dup1\n        /* \"#utility.yul\":13223:13224   */\n      dup3\n        /* \"#utility.yul\":13220:13230   */\n      gt\n        /* \"#utility.yul\":13217:13253   */\n      iszero\n      tag_386\n      jumpi\n        /* \"#utility.yul\":13233:13251   */\n      tag_387\n      tag_200\n      jump\t// in\n    tag_387:\n        /* \"#utility.yul\":13217:13253   */\n    tag_386:\n        /* \"#utility.yul\":13069:13260   */\n      swap3\n      swap2\n      pop\n      pop\n      jump\t// out\n        /* \"#utility.yul\":13266:13436   */\n    tag_239:\n        /* \"#utility.yul\":13406:13428   */\n      0x64732d6d6174682d6164642d6f766572666c6f77000000000000000000000000\n        /* \"#utility.yul\":13402:13403   */\n      0x00\n        /* \"#utility.yul\":13394:13400   */\n      dup3\n        /* \"#utility.yul\":13390:13404   */\n      add\n        /* \"#utility.yul\":13383:13429   */\n      mstore\n        /* \"#utility.yul\":13266:13436   */\n      pop\n      jump\t// out\n        /* \"#utility.yul\":13442:13808   */\n    tag_240:\n        /* \"#utility.yul\":13584:13587   */\n      0x00\n        /* \"#utility.yul\":13605:13672   */\n      tag_390\n        /* \"#utility.yul\":13669:13671   */\n      0x14\n        /* \"#utility.yul\":13664:13667   */\n      dup4\n        /* \"#utility.yul\":13605:13672   */\n      tag_201\n      jump\t// in\n    tag_390:\n        /* \"#utility.yul\":13598:13672   */\n      swap2\n      pop\n        /* \"#utility.yul\":13681:13774   */\n      tag_391\n        /* \"#utility.yul\":13770:13773   */\n      dup3\n        /* \"#utility.yul\":13681:13774   */\n      tag_239\n      jump\t// in\n    tag_391:\n        /* \"#utility.yul\":13799:13801   */\n      0x20\n        /* \"#utility.yul\":13794:13797   */\n      dup3\n        /* \"#utility.yul\":13790:13802   */\n      add\n        /* \"#utility.yul\":13783:13802   */\n      swap1\n      pop\n        /* \"#utility.yul\":13442:13808   */\n      swap2\n      swap1\n      pop\n      jump\t// out\n        /* \"#utility.yul\":13814:14233   */\n    tag_198:\n        /* \"#utility.yul\":13980:13984   */\n      0x00\n        /* \"#utility.yul\":14018:14020   */\n      0x20\n        /* \"#utility.yul\":14007:14016   */\n      dup3\n        /* \"#utility.yul\":14003:14021   */\n      add\n        /* \"#utility.yul\":13995:14021   */\n      swap1\n      pop\n        /* \"#utility.yul\":14067:14076   */\n      dup2\n        /* \"#utility.yul\":14061:14065   */\n      dup2\n        /* \"#utility.yul\":14057:14077   */\n      sub\n        /* \"#utility.yul\":14053:14054   */\n      0x00\n        /* \"#utility.yul\":14042:14051   */\n      dup4\n        /* \"#utility.yul\":14038:14055   */\n      add\n        /* \"#utility.yul\":14031:14078   */\n      mstore\n        /* \"#utility.yul\":14095:14226   */\n      tag_393\n        /* \"#utility.yul\":14221:14225   */\n      dup2\n        /* \"#utility.yul\":14095:14226   */\n      tag_240\n      jump\t// in\n    tag_393:\n        /* \"#utility.yul\":14087:14226   */\n      swap1\n      pop\n        /* \"#utility.yul\":13814:14233   */\n      swap2\n      swap1\n      pop\n      jump\t// out\n    stop\n    data_0b07e07956ec390ff7e72b1318405d97a05ab399943979f0e46f84161ae1e06a 596f75206861766520756e6c6f636b65642074686520736563726574206d6573736167652e205468652073656372657420746f2068617070696e6573732061726520626972642073656564732e\n    data_c61807ddb0f4f71646a182726d8e67ede87cf92ffd23179b7a2178e99668a6f9 536f7272792c20626574746572206c75636b206e6578742074696d652067657474696e6720696e746f206f757220666c6f636b21\n\n    auxdata: 0xa26469706673582212206ae59b81f745a45c45aaadcf650cfd27e6573608cac533eba5126c75e277008864736f6c63430008130033\n}\n",
				"bytecode": {
					"linkReferences": {},
					"object": "6080604052602a6000553480156200001657600080fd5b5033600560006101000a81548173ffffffffffffffffffffffffffffffffffffffff021916908373ffffffffffffffffffffffffffffffffffffffff160217905550670de0b6b3a764000060026000600560009054906101000a900473ffffffffffffffffffffffffffffffffffffffff1673ffffffffffffffffffffffffffffffffffffffff1673ffffffffffffffffffffffffffffffffffffffff16815260200190815260200160002081905550600560009054906101000a900473ffffffffffffffffffffffffffffffffffffffff1673ffffffffffffffffffffffffffffffffffffffff16600073ffffffffffffffffffffffffffffffffffffffff167fddf252ad1be2c89b69c2b068fc378daa952ba7f163c4a11628f55a4df523b3ef670de0b6b3a764000060405162000150919062000179565b60405180910390a362000196565b6000819050919050565b62000173816200015e565b82525050565b600060208201905062000190600083018462000168565b92915050565b61202580620001a66000396000f3fe6080604052600436106101185760003560e01c806365f2bc2e116100a0578063a457c2d711610064578063a457c2d714610584578063a87430ba146105c1578063a9059cbb146105ff578063acdda4991461063c578063dd62ed3e14610679576102b9565b806365f2bc2e1461048957806370a08231146104b457806393dfc8eb146104f157806395d89b411461052e578063a3e6761014610559576102b9565b80631e8d2299116100e75780631e8d22991461037c57806323b872dd146103b9578063313ce567146103f657806339509351146104215780633eaaf86b1461045e576102b9565b806306fdde03146102be578063095ea7b3146102e95780630cc008bd1461032657806318160ddd14610351576102b9565b366102b957600080543461012c9190611842565b90508061015a600560009054906101000a900473ffffffffffffffffffffffffffffffffffffffff166106b6565b101561019b576040517f08c379a0000000000000000000000000000000000000000000000000000000008152600401610192906118e1565b60405180910390fd5b6101c8600560009054906101000a900473ffffffffffffffffffffffffffffffffffffffff1633836106ff565b3373ffffffffffffffffffffffffffffffffffffffff16600560009054906101000a900473ffffffffffffffffffffffffffffffffffffffff1673ffffffffffffffffffffffffffffffffffffffff167fddf252ad1be2c89b69c2b068fc378daa952ba7f163c4a11628f55a4df523b3ef836040516102479190611910565b60405180910390a3600560009054906101000a900473ffffffffffffffffffffffffffffffffffffffff1673ffffffffffffffffffffffffffffffffffffffff166108fc349081150290604051600060405180830381858888f193505050501580156102b7573d6000803e3d6000fd5b005b600080fd5b3480156102ca57600080fd5b506102d3610893565b6040516102e091906119aa565b60405180910390f35b3480156102f557600080fd5b50610310600480360381019061030b9190611a5b565b6108cc565b60405161031d9190611ab6565b60405180910390f35b34801561033257600080fd5b5061033b6109f6565b6040516103489190611910565b60405180910390f35b34801561035d57600080fd5b50610366610a08565b6040516103739190611910565b60405180910390f35b34801561038857600080fd5b506103a3600480360381019061039e9190611ad1565b610a18565b6040516103b091906119aa565b60405180910390f35b3480156103c557600080fd5b506103e060048036038101906103db9190611b11565b610b52565b6040516103ed9190611ab6565b60405180910390f35b34801561040257600080fd5b5061040b610d87565b6040516104189190611b80565b60405180910390f35b34801561042d57600080fd5b5061044860048036038101906104439190611a5b565b610d8c565b6040516104559190611ab6565b60405180910390f35b34801561046a57600080fd5b50610473610fc0565b6040516104809190611910565b60405180910390f35b34801561049557600080fd5b5061049e610fcc565b6040516104ab9190611910565b60405180910390f35b3480156104c057600080fd5b506104db60048036038101906104d69190611b9b565b6106b6565b6040516104e89190611910565b60405180910390f35b3480156104fd57600080fd5b5061051860048036038101906105139190611a5b565b610fd2565b6040516105259190611c86565b60405180910390f35b34801561053a57600080fd5b506105436111aa565b60405161055091906119aa565b60405180910390f35b34801561056557600080fd5b5061056e6111e3565b60405161057b9190611cb7565b60405180910390f35b34801561059057600080fd5b506105ab60048036038101906105a69190611a5b565b611209565b6040516105b89190611ab6565b60405180910390f35b3480156105cd57600080fd5b506105e860048036038101906105e39190611b9b565b61143d565b6040516105f6929190611cd2565b60405180910390f35b34801561060b57600080fd5b5061062660048036038101906106219190611a5b565b61146e565b6040516106339190611ab6565b60405180910390f35b34801561064857600080fd5b50610663600480360381019061065e9190611cfb565b61168e565b6040516106709190611910565b60405180910390f35b34801561068557600080fd5b506106a0600480360381019061069b9190611ad1565b6116d0565b6040516106ad9190611910565b60405180910390f35b6000600260008373ffffffffffffffffffffffffffffffffffffffff1673ffffffffffffffffffffffffffffffffffffffff168152602001908152602001600020549050919050565b61075181600260008673ffffffffffffffffffffffffffffffffffffffff1673ffffffffffffffffffffffffffffffffffffffff1681526020019081526020016000205461175790919063ffffffff16565b600260008573ffffffffffffffffffffffffffffffffffffffff1673ffffffffffffffffffffffffffffffffffffffff168152602001908152602001600020819055506107e681600260008573ffffffffffffffffffffffffffffffffffffffff1673ffffffffffffffffffffffffffffffffffffffff168152602001908152602001600020546117b090919063ffffffff16565b600260008473ffffffffffffffffffffffffffffffffffffffff1673ffffffffffffffffffffffffffffffffffffffff168152602001908152602001600020819055508173ffffffffffffffffffffffffffffffffffffffff168373ffffffffffffffffffffffffffffffffffffffff167fddf252ad1be2c89b69c2b068fc378daa952ba7f163c4a11628f55a4df523b3ef836040516108869190611910565b60405180910390a3505050565b6040518060400160405280600b81526020017f427564677920546f6b656e00000000000000000000000000000000000000000081525081565b60008073ffffffffffffffffffffffffffffffffffffffff168373ffffffffffffffffffffffffffffffffffffffff160361090657600080fd5b81600360003373ffffffffffffffffffffffffffffffffffffffff1673ffffffffffffffffffffffffffffffffffffffff16815260200190815260200160002060008573ffffffffffffffffffffffffffffffffffffffff1673ffffffffffffffffffffffffffffffffffffffff168152602001908152602001600020819055508273ffffffffffffffffffffffffffffffffffffffff163373ffffffffffffffffffffffffffffffffffffffff167f8c5be1e5ebec7d5bd14f71427d1e84f3dd0314c0f7b2291e5b200ac8c7c3b925846040516109e49190611910565b60405180910390a36001905092915050565b60008060018054905090508091505090565b6000670de0b6b3a7640000905090565b6060600060026000600560009054906101000a900473ffffffffffffffffffffffffffffffffffffffff1673ffffffffffffffffffffffffffffffffffffffff1673ffffffffffffffffffffffffffffffffffffffff1681526020019081526020016000205490506000610a8a6109f6565b90506000600582610a9b9190611d57565b148015610aa9575060038210155b15610b2e57610adc600560009054906101000a900473ffffffffffffffffffffffffffffffffffffffff16856002610b52565b50610b0b600560009054906101000a900473ffffffffffffffffffffffffffffffffffffffff16866001610b52565b506040518060800160405280604d8152602001611f6f604d913992505050610b4c565b604051806060016040528060348152602001611fbc60349139925050505b92915050565b6000600260008573ffffffffffffffffffffffffffffffffffffffff1673ffffffffffffffffffffffffffffffffffffffff16815260200190815260200160002054821115610ba057600080fd5b600360008573ffffffffffffffffffffffffffffffffffffffff1673ffffffffffffffffffffffffffffffffffffffff16815260200190815260200160002060003373ffffffffffffffffffffffffffffffffffffffff1673ffffffffffffffffffffffffffffffffffffffff16815260200190815260200160002054821115610c2957600080fd5b600073ffffffffffffffffffffffffffffffffffffffff168373ffffffffffffffffffffffffffffffffffffffff1603610c6257600080fd5b610cf182600360008773ffffffffffffffffffffffffffffffffffffffff1673ffffffffffffffffffffffffffffffffffffffff16815260200190815260200160002060003373ffffffffffffffffffffffffffffffffffffffff1673ffffffffffffffffffffffffffffffffffffffff1681526020019081526020016000205461175790919063ffffffff16565b600360008673ffffffffffffffffffffffffffffffffffffffff1673ffffffffffffffffffffffffffffffffffffffff16815260200190815260200160002060003373ffffffffffffffffffffffffffffffffffffffff1673ffffffffffffffffffffffffffffffffffffffff16815260200190815260200160002081905550610d7c8484846106ff565b600190509392505050565b600a81565b60008073ffffffffffffffffffffffffffffffffffffffff168373ffffffffffffffffffffffffffffffffffffffff1603610dc657600080fd5b610e5582600360003373ffffffffffffffffffffffffffffffffffffffff1673ffffffffffffffffffffffffffffffffffffffff16815260200190815260200160002060008673ffffffffffffffffffffffffffffffffffffffff1673ffffffffffffffffffffffffffffffffffffffff168152602001908152602001600020546117b090919063ffffffff16565b600360003373ffffffffffffffffffffffffffffffffffffffff1673ffffffffffffffffffffffffffffffffffffffff16815260200190815260200160002060008573ffffffffffffffffffffffffffffffffffffffff1673ffffffffffffffffffffffffffffffffffffffff168152602001908152602001600020819055508273ffffffffffffffffffffffffffffffffffffffff163373ffffffffffffffffffffffffffffffffffffffff167f8c5be1e5ebec7d5bd14f71427d1e84f3dd0314c0f7b2291e5b200ac8c7c3b925600360003373ffffffffffffffffffffffffffffffffffffffff1673ffffffffffffffffffffffffffffffffffffffff16815260200190815260200160002060008773ffffffffffffffffffffffffffffffffffffffff1673ffffffffffffffffffffffffffffffffffffffff16815260200190815260200160002054604051610fae9190611910565b60405180910390a36001905092915050565b670de0b6b3a764000081565b60005481565b60606000600460008573ffffffffffffffffffffffffffffffffffffffff1673ffffffffffffffffffffffffffffffffffffffff16815260200190815260200160002090508060010160009054906101000a900460ff161561103357600080fd5b604051806040016040528084815260200160011515815250600460008673ffffffffffffffffffffffffffffffffffffffff1673ffffffffffffffffffffffffffffffffffffffff1681526020019081526020016000206000820151816000015560208201518160010160006101000a81548160ff0219169083151502179055509050506001849080600181540180825580915050600190039060005260206000200160009091909190916101000a81548173ffffffffffffffffffffffffffffffffffffffff021916908373ffffffffffffffffffffffffffffffffffffffff160217905550600180548060200260200160405190810160405280929190818152602001828054801561119c57602002820191906000526020600020905b8160009054906101000a900473ffffffffffffffffffffffffffffffffffffffff1673ffffffffffffffffffffffffffffffffffffffff1681526020019060010190808311611152575b505050505091505092915050565b6040518060400160405280600481526020017f424447590000000000000000000000000000000000000000000000000000000081525081565b600560009054906101000a900473ffffffffffffffffffffffffffffffffffffffff1681565b60008073ffffffffffffffffffffffffffffffffffffffff168373ffffffffffffffffffffffffffffffffffffffff160361124357600080fd5b6112d282600360003373ffffffffffffffffffffffffffffffffffffffff1673ffffffffffffffffffffffffffffffffffffffff16815260200190815260200160002060008673ffffffffffffffffffffffffffffffffffffffff1673ffffffffffffffffffffffffffffffffffffffff1681526020019081526020016000205461175790919063ffffffff16565b600360003373ffffffffffffffffffffffffffffffffffffffff1673ffffffffffffffffffffffffffffffffffffffff16815260200190815260200160002060008573ffffffffffffffffffffffffffffffffffffffff1673ffffffffffffffffffffffffffffffffffffffff168152602001908152602001600020819055508273ffffffffffffffffffffffffffffffffffffffff163373ffffffffffffffffffffffffffffffffffffffff167f8c5be1e5ebec7d5bd14f71427d1e84f3dd0314c0f7b2291e5b200ac8c7c3b925600360003373ffffffffffffffffffffffffffffffffffffffff1673ffffffffffffffffffffffffffffffffffffffff16815260200190815260200160002060008773ffffffffffffffffffffffffffffffffffffffff1673ffffffffffffffffffffffffffffffffffffffff1681526020019081526020016000205460405161142b9190611910565b60405180910390a36001905092915050565b60046020528060005260406000206000915090508060000154908060010160009054906101000a900460ff16905082565b6000600260003373ffffffffffffffffffffffffffffffffffffffff1673ffffffffffffffffffffffffffffffffffffffff168152602001908152602001600020548211156114bc57600080fd5b600073ffffffffffffffffffffffffffffffffffffffff168373ffffffffffffffffffffffffffffffffffffffff16036114f557600080fd5b61154782600260003373ffffffffffffffffffffffffffffffffffffffff1673ffffffffffffffffffffffffffffffffffffffff1681526020019081526020016000205461175790919063ffffffff16565b600260003373ffffffffffffffffffffffffffffffffffffffff1673ffffffffffffffffffffffffffffffffffffffff168152602001908152602001600020819055506115dc82600260008673ffffffffffffffffffffffffffffffffffffffff1673ffffffffffffffffffffffffffffffffffffffff168152602001908152602001600020546117b090919063ffffffff16565b600260008573ffffffffffffffffffffffffffffffffffffffff1673ffffffffffffffffffffffffffffffffffffffff168152602001908152602001600020819055508273ffffffffffffffffffffffffffffffffffffffff163373ffffffffffffffffffffffffffffffffffffffff167fddf252ad1be2c89b69c2b068fc378daa952ba7f163c4a11628f55a4df523b3ef8460405161167c9190611910565b60405180910390a36001905092915050565b6000814244336040516020016116a693929190611df1565b6040516020818303038152906040528051906020012060001c6116c99190611d57565b9050919050565b6000600360008473ffffffffffffffffffffffffffffffffffffffff1673ffffffffffffffffffffffffffffffffffffffff16815260200190815260200160002060008373ffffffffffffffffffffffffffffffffffffffff1673ffffffffffffffffffffffffffffffffffffffff16815260200190815260200160002054905092915050565b60008282846117669190611e2e565b91508111156117aa576040517f08c379a00000000000000000000000000000000000000000000000000000000081526004016117a190611eae565b60405180910390fd5b92915050565b60008282846117bf9190611ece565b9150811015611803576040517f08c379a00000000000000000000000000000000000000000000000000000000081526004016117fa90611f4e565b60405180910390fd5b92915050565b6000819050919050565b7f4e487b7100000000000000000000000000000000000000000000000000000000600052601160045260246000fd5b600061184d82611809565b915061185883611809565b925082820261186681611809565b9150828204841483151761187d5761187c611813565b5b5092915050565b600082825260208201905092915050565b7f4e6f7420656e6f75676820746f6b656e73000000000000000000000000000000600082015250565b60006118cb601183611884565b91506118d682611895565b602082019050919050565b600060208201905081810360008301526118fa816118be565b9050919050565b61190a81611809565b82525050565b60006020820190506119256000830184611901565b92915050565b600081519050919050565b60005b83811015611954578082015181840152602081019050611939565b60008484015250505050565b6000601f19601f8301169050919050565b600061197c8261192b565b6119868185611884565b9350611996818560208601611936565b61199f81611960565b840191505092915050565b600060208201905081810360008301526119c48184611971565b905092915050565b600080fd5b600073ffffffffffffffffffffffffffffffffffffffff82169050919050565b60006119fc826119d1565b9050919050565b611a0c816119f1565b8114611a1757600080fd5b50565b600081359050611a2981611a03565b92915050565b611a3881611809565b8114611a4357600080fd5b50565b600081359050611a5581611a2f565b92915050565b60008060408385031215611a7257611a716119cc565b5b6000611a8085828601611a1a565b9250506020611a9185828601611a46565b9150509250929050565b60008115159050919050565b611ab081611a9b565b82525050565b6000602082019050611acb6000830184611aa7565b92915050565b60008060408385031215611ae857611ae76119cc565b5b6000611af685828601611a1a565b9250506020611b0785828601611a1a565b9150509250929050565b600080600060608486031215611b2a57611b296119cc565b5b6000611b3886828701611a1a565b9350506020611b4986828701611a1a565b9250506040611b5a86828701611a46565b9150509250925092565b600060ff82169050919050565b611b7a81611b64565b82525050565b6000602082019050611b956000830184611b71565b92915050565b600060208284031215611bb157611bb06119cc565b5b6000611bbf84828501611a1a565b91505092915050565b600081519050919050565b600082825260208201905092915050565b6000819050602082019050919050565b611bfd816119f1565b82525050565b6000611c0f8383611bf4565b60208301905092915050565b6000602082019050919050565b6000611c3382611bc8565b611c3d8185611bd3565b9350611c4883611be4565b8060005b83811015611c79578151611c608882611c03565b9750611c6b83611c1b565b925050600181019050611c4c565b5085935050505092915050565b60006020820190508181036000830152611ca08184611c28565b905092915050565b611cb1816119f1565b82525050565b6000602082019050611ccc6000830184611ca8565b92915050565b6000604082019050611ce76000830185611901565b611cf46020830184611aa7565b9392505050565b600060208284031215611d1157611d106119cc565b5b6000611d1f84828501611a46565b91505092915050565b7f4e487b7100000000000000000000000000000000000000000000000000000000600052601260045260246000fd5b6000611d6282611809565b9150611d6d83611809565b925082611d7d57611d7c611d28565b5b828206905092915050565b6000819050919050565b611da3611d9e82611809565b611d88565b82525050565b60008160601b9050919050565b6000611dc182611da9565b9050919050565b6000611dd382611db6565b9050919050565b611deb611de6826119f1565b611dc8565b82525050565b6000611dfd8286611d92565b602082019150611e0d8285611d92565b602082019150611e1d8284611dda565b601482019150819050949350505050565b6000611e3982611809565b9150611e4483611809565b9250828203905081811115611e5c57611e5b611813565b5b92915050565b7f64732d6d6174682d7375622d756e646572666c6f770000000000000000000000600082015250565b6000611e98601583611884565b9150611ea382611e62565b602082019050919050565b60006020820190508181036000830152611ec781611e8b565b9050919050565b6000611ed982611809565b9150611ee483611809565b9250828201905080821115611efc57611efb611813565b5b92915050565b7f64732d6d6174682d6164642d6f766572666c6f77000000000000000000000000600082015250565b6000611f38601483611884565b9150611f4382611f02565b602082019050919050565b60006020820190508181036000830152611f6781611f2b565b905091905056fe596f75206861766520756e6c6f636b65642074686520736563726574206d6573736167652e205468652073656372657420746f2068617070696e6573732061726520626972642073656564732e536f7272792c20626574746572206c75636b206e6578742074696d652067657474696e6720696e746f206f757220666c6f636b21a26469706673582212206ae59b81f745a45c45aaadcf650cfd27e6573608cac533eba5126c75e277008864736f6c63430008130033",
					"opcodes": "PUSH1 0x80 PUSH1 0x40 MSTORE PUSH1 0x2A PUSH1 0x0 SSTORE CALLVALUE DUP1 ISZERO PUSH3 0x16 JUMPI PUSH1 0x0 DUP1 REVERT JUMPDEST POP CALLER PUSH1 0x5 PUSH1 0x0 PUSH2 0x100 EXP DUP2 SLOAD DUP2 PUSH20 0xFFFFFFFFFFFFFFFFFFFFFFFFFFFFFFFFFFFFFFFF MUL NOT AND SWAP1 DUP4 PUSH20 0xFFFFFFFFFFFFFFFFFFFFFFFFFFFFFFFFFFFFFFFF AND MUL OR SWAP1 SSTORE POP PUSH8 0xDE0B6B3A7640000 PUSH1 0x2 PUSH1 0x0 PUSH1 0x5 PUSH1 0x0 SWAP1 SLOAD SWAP1 PUSH2 0x100 EXP SWAP1 DIV PUSH20 0xFFFFFFFFFFFFFFFFFFFFFFFFFFFFFFFFFFFFFFFF AND PUSH20 0xFFFFFFFFFFFFFFFFFFFFFFFFFFFFFFFFFFFFFFFF AND PUSH20 0xFFFFFFFFFFFFFFFFFFFFFFFFFFFFFFFFFFFFFFFF AND DUP2 MSTORE PUSH1 0x20 ADD SWAP1 DUP2 MSTORE PUSH1 0x20 ADD PUSH1 0x0 KECCAK256 DUP2 SWAP1 SSTORE POP PUSH1 0x5 PUSH1 0x0 SWAP1 SLOAD SWAP1 PUSH2 0x100 EXP SWAP1 DIV PUSH20 0xFFFFFFFFFFFFFFFFFFFFFFFFFFFFFFFFFFFFFFFF AND PUSH20 0xFFFFFFFFFFFFFFFFFFFFFFFFFFFFFFFFFFFFFFFF AND PUSH1 0x0 PUSH20 0xFFFFFFFFFFFFFFFFFFFFFFFFFFFFFFFFFFFFFFFF AND PUSH32 0xDDF252AD1BE2C89B69C2B068FC378DAA952BA7F163C4A11628F55A4DF523B3EF PUSH8 0xDE0B6B3A7640000 PUSH1 0x40 MLOAD PUSH3 0x150 SWAP2 SWAP1 PUSH3 0x179 JUMP JUMPDEST PUSH1 0x40 MLOAD DUP1 SWAP2 SUB SWAP1 LOG3 PUSH3 0x196 JUMP JUMPDEST PUSH1 0x0 DUP2 SWAP1 POP SWAP2 SWAP1 POP JUMP JUMPDEST PUSH3 0x173 DUP2 PUSH3 0x15E JUMP JUMPDEST DUP3 MSTORE POP POP JUMP JUMPDEST PUSH1 0x0 PUSH1 0x20 DUP3 ADD SWAP1 POP PUSH3 0x190 PUSH1 0x0 DUP4 ADD DUP5 PUSH3 0x168 JUMP JUMPDEST SWAP3 SWAP2 POP POP JUMP JUMPDEST PUSH2 0x2025 DUP1 PUSH3 0x1A6 PUSH1 0x0 CODECOPY PUSH1 0x0 RETURN INVALID PUSH1 0x80 PUSH1 0x40 MSTORE PUSH1 0x4 CALLDATASIZE LT PUSH2 0x118 JUMPI PUSH1 0x0 CALLDATALOAD PUSH1 0xE0 SHR DUP1 PUSH4 0x65F2BC2E GT PUSH2 0xA0 JUMPI DUP1 PUSH4 0xA457C2D7 GT PUSH2 0x64 JUMPI DUP1 PUSH4 0xA457C2D7 EQ PUSH2 0x584 JUMPI DUP1 PUSH4 0xA87430BA EQ PUSH2 0x5C1 JUMPI DUP1 PUSH4 0xA9059CBB EQ PUSH2 0x5FF JUMPI DUP1 PUSH4 0xACDDA499 EQ PUSH2 0x63C JUMPI DUP1 PUSH4 0xDD62ED3E EQ PUSH2 0x679 JUMPI PUSH2 0x2B9 JUMP JUMPDEST DUP1 PUSH4 0x65F2BC2E EQ PUSH2 0x489 JUMPI DUP1 PUSH4 0x70A08231 EQ PUSH2 0x4B4 JUMPI DUP1 PUSH4 0x93DFC8EB EQ PUSH2 0x4F1 JUMPI DUP1 PUSH4 0x95D89B41 EQ PUSH2 0x52E JUMPI DUP1 PUSH4 0xA3E67610 EQ PUSH2 0x559 JUMPI PUSH2 0x2B9 JUMP JUMPDEST DUP1 PUSH4 0x1E8D2299 GT PUSH2 0xE7 JUMPI DUP1 PUSH4 0x1E8D2299 EQ PUSH2 0x37C JUMPI DUP1 PUSH4 0x23B872DD EQ PUSH2 0x3B9 JUMPI DUP1 PUSH4 0x313CE567 EQ PUSH2 0x3F6 JUMPI DUP1 PUSH4 0x39509351 EQ PUSH2 0x421 JUMPI DUP1 PUSH4 0x3EAAF86B EQ PUSH2 0x45E JUMPI PUSH2 0x2B9 JUMP JUMPDEST DUP1 PUSH4 0x6FDDE03 EQ PUSH2 0x2BE JUMPI DUP1 PUSH4 0x95EA7B3 EQ PUSH2 0x2E9 JUMPI DUP1 PUSH4 0xCC008BD EQ PUSH2 0x326 JUMPI DUP1 PUSH4 0x18160DDD EQ PUSH2 0x351 JUMPI PUSH2 0x2B9 JUMP JUMPDEST CALLDATASIZE PUSH2 0x2B9 JUMPI PUSH1 0x0 DUP1 SLOAD CALLVALUE PUSH2 0x12C SWAP2 SWAP1 PUSH2 0x1842 JUMP JUMPDEST SWAP1 POP DUP1 PUSH2 0x15A PUSH1 0x5 PUSH1 0x0 SWAP1 SLOAD SWAP1 PUSH2 0x100 EXP SWAP1 DIV PUSH20 0xFFFFFFFFFFFFFFFFFFFFFFFFFFFFFFFFFFFFFFFF AND PUSH2 0x6B6 JUMP JUMPDEST LT ISZERO PUSH2 0x19B JUMPI PUSH1 0x40 MLOAD PUSH32 0x8C379A000000000000000000000000000000000000000000000000000000000 DUP2 MSTORE PUSH1 0x4 ADD PUSH2 0x192 SWAP1 PUSH2 0x18E1 JUMP JUMPDEST PUSH1 0x40 MLOAD DUP1 SWAP2 SUB SWAP1 REVERT JUMPDEST PUSH2 0x1C8 PUSH1 0x5 PUSH1 0x0 SWAP1 SLOAD SWAP1 PUSH2 0x100 EXP SWAP1 DIV PUSH20 0xFFFFFFFFFFFFFFFFFFFFFFFFFFFFFFFFFFFFFFFF AND CALLER DUP4 PUSH2 0x6FF JUMP JUMPDEST CALLER PUSH20 0xFFFFFFFFFFFFFFFFFFFFFFFFFFFFFFFFFFFFFFFF AND PUSH1 0x5 PUSH1 0x0 SWAP1 SLOAD SWAP1 PUSH2 0x100 EXP SWAP1 DIV PUSH20 0xFFFFFFFFFFFFFFFFFFFFFFFFFFFFFFFFFFFFFFFF AND PUSH20 0xFFFFFFFFFFFFFFFFFFFFFFFFFFFFFFFFFFFFFFFF AND PUSH32 0xDDF252AD1BE2C89B69C2B068FC378DAA952BA7F163C4A11628F55A4DF523B3EF DUP4 PUSH1 0x40 MLOAD PUSH2 0x247 SWAP2 SWAP1 PUSH2 0x1910 JUMP JUMPDEST PUSH1 0x40 MLOAD DUP1 SWAP2 SUB SWAP1 LOG3 PUSH1 0x5 PUSH1 0x0 SWAP1 SLOAD SWAP1 PUSH2 0x100 EXP SWAP1 DIV PUSH20 0xFFFFFFFFFFFFFFFFFFFFFFFFFFFFFFFFFFFFFFFF AND PUSH20 0xFFFFFFFFFFFFFFFFFFFFFFFFFFFFFFFFFFFFFFFF AND PUSH2 0x8FC CALLVALUE SWAP1 DUP2 ISZERO MUL SWAP1 PUSH1 0x40 MLOAD PUSH1 0x0 PUSH1 0x40 MLOAD DUP1 DUP4 SUB DUP2 DUP6 DUP9 DUP9 CALL SWAP4 POP POP POP POP ISZERO DUP1 ISZERO PUSH2 0x2B7 JUMPI RETURNDATASIZE PUSH1 0x0 DUP1 RETURNDATACOPY RETURNDATASIZE PUSH1 0x0 REVERT JUMPDEST STOP JUMPDEST PUSH1 0x0 DUP1 REVERT JUMPDEST CALLVALUE DUP1 ISZERO PUSH2 0x2CA JUMPI PUSH1 0x0 DUP1 REVERT JUMPDEST POP PUSH2 0x2D3 PUSH2 0x893 JUMP JUMPDEST PUSH1 0x40 MLOAD PUSH2 0x2E0 SWAP2 SWAP1 PUSH2 0x19AA JUMP JUMPDEST PUSH1 0x40 MLOAD DUP1 SWAP2 SUB SWAP1 RETURN JUMPDEST CALLVALUE DUP1 ISZERO PUSH2 0x2F5 JUMPI PUSH1 0x0 DUP1 REVERT JUMPDEST POP PUSH2 0x310 PUSH1 0x4 DUP1 CALLDATASIZE SUB DUP2 ADD SWAP1 PUSH2 0x30B SWAP2 SWAP1 PUSH2 0x1A5B JUMP JUMPDEST PUSH2 0x8CC JUMP JUMPDEST PUSH1 0x40 MLOAD PUSH2 0x31D SWAP2 SWAP1 PUSH2 0x1AB6 JUMP JUMPDEST PUSH1 0x40 MLOAD DUP1 SWAP2 SUB SWAP1 RETURN JUMPDEST CALLVALUE DUP1 ISZERO PUSH2 0x332 JUMPI PUSH1 0x0 DUP1 REVERT JUMPDEST POP PUSH2 0x33B PUSH2 0x9F6 JUMP JUMPDEST PUSH1 0x40 MLOAD PUSH2 0x348 SWAP2 SWAP1 PUSH2 0x1910 JUMP JUMPDEST PUSH1 0x40 MLOAD DUP1 SWAP2 SUB SWAP1 RETURN JUMPDEST CALLVALUE DUP1 ISZERO PUSH2 0x35D JUMPI PUSH1 0x0 DUP1 REVERT JUMPDEST POP PUSH2 0x366 PUSH2 0xA08 JUMP JUMPDEST PUSH1 0x40 MLOAD PUSH2 0x373 SWAP2 SWAP1 PUSH2 0x1910 JUMP JUMPDEST PUSH1 0x40 MLOAD DUP1 SWAP2 SUB SWAP1 RETURN JUMPDEST CALLVALUE DUP1 ISZERO PUSH2 0x388 JUMPI PUSH1 0x0 DUP1 REVERT JUMPDEST POP PUSH2 0x3A3 PUSH1 0x4 DUP1 CALLDATASIZE SUB DUP2 ADD SWAP1 PUSH2 0x39E SWAP2 SWAP1 PUSH2 0x1AD1 JUMP JUMPDEST PUSH2 0xA18 JUMP JUMPDEST PUSH1 0x40 MLOAD PUSH2 0x3B0 SWAP2 SWAP1 PUSH2 0x19AA JUMP JUMPDEST PUSH1 0x40 MLOAD DUP1 SWAP2 SUB SWAP1 RETURN JUMPDEST CALLVALUE DUP1 ISZERO PUSH2 0x3C5 JUMPI PUSH1 0x0 DUP1 REVERT JUMPDEST POP PUSH2 0x3E0 PUSH1 0x4 DUP1 CALLDATASIZE SUB DUP2 ADD SWAP1 PUSH2 0x3DB SWAP2 SWAP1 PUSH2 0x1B11 JUMP JUMPDEST PUSH2 0xB52 JUMP JUMPDEST PUSH1 0x40 MLOAD PUSH2 0x3ED SWAP2 SWAP1 PUSH2 0x1AB6 JUMP JUMPDEST PUSH1 0x40 MLOAD DUP1 SWAP2 SUB SWAP1 RETURN JUMPDEST CALLVALUE DUP1 ISZERO PUSH2 0x402 JUMPI PUSH1 0x0 DUP1 REVERT JUMPDEST POP PUSH2 0x40B PUSH2 0xD87 JUMP JUMPDEST PUSH1 0x40 MLOAD PUSH2 0x418 SWAP2 SWAP1 PUSH2 0x1B80 JUMP JUMPDEST PUSH1 0x40 MLOAD DUP1 SWAP2 SUB SWAP1 RETURN JUMPDEST CALLVALUE DUP1 ISZERO PUSH2 0x42D JUMPI PUSH1 0x0 DUP1 REVERT JUMPDEST POP PUSH2 0x448 PUSH1 0x4 DUP1 CALLDATASIZE SUB DUP2 ADD SWAP1 PUSH2 0x443 SWAP2 SWAP1 PUSH2 0x1A5B JUMP JUMPDEST PUSH2 0xD8C JUMP JUMPDEST PUSH1 0x40 MLOAD PUSH2 0x455 SWAP2 SWAP1 PUSH2 0x1AB6 JUMP JUMPDEST PUSH1 0x40 MLOAD DUP1 SWAP2 SUB SWAP1 RETURN JUMPDEST CALLVALUE DUP1 ISZERO PUSH2 0x46A JUMPI PUSH1 0x0 DUP1 REVERT JUMPDEST POP PUSH2 0x473 PUSH2 0xFC0 JUMP JUMPDEST PUSH1 0x40 MLOAD PUSH2 0x480 SWAP2 SWAP1 PUSH2 0x1910 JUMP JUMPDEST PUSH1 0x40 MLOAD DUP1 SWAP2 SUB SWAP1 RETURN JUMPDEST CALLVALUE DUP1 ISZERO PUSH2 0x495 JUMPI PUSH1 0x0 DUP1 REVERT JUMPDEST POP PUSH2 0x49E PUSH2 0xFCC JUMP JUMPDEST PUSH1 0x40 MLOAD PUSH2 0x4AB SWAP2 SWAP1 PUSH2 0x1910 JUMP JUMPDEST PUSH1 0x40 MLOAD DUP1 SWAP2 SUB SWAP1 RETURN JUMPDEST CALLVALUE DUP1 ISZERO PUSH2 0x4C0 JUMPI PUSH1 0x0 DUP1 REVERT JUMPDEST POP PUSH2 0x4DB PUSH1 0x4 DUP1 CALLDATASIZE SUB DUP2 ADD SWAP1 PUSH2 0x4D6 SWAP2 SWAP1 PUSH2 0x1B9B JUMP JUMPDEST PUSH2 0x6B6 JUMP JUMPDEST PUSH1 0x40 MLOAD PUSH2 0x4E8 SWAP2 SWAP1 PUSH2 0x1910 JUMP JUMPDEST PUSH1 0x40 MLOAD DUP1 SWAP2 SUB SWAP1 RETURN JUMPDEST CALLVALUE DUP1 ISZERO PUSH2 0x4FD JUMPI PUSH1 0x0 DUP1 REVERT JUMPDEST POP PUSH2 0x518 PUSH1 0x4 DUP1 CALLDATASIZE SUB DUP2 ADD SWAP1 PUSH2 0x513 SWAP2 SWAP1 PUSH2 0x1A5B JUMP JUMPDEST PUSH2 0xFD2 JUMP JUMPDEST PUSH1 0x40 MLOAD PUSH2 0x525 SWAP2 SWAP1 PUSH2 0x1C86 JUMP JUMPDEST PUSH1 0x40 MLOAD DUP1 SWAP2 SUB SWAP1 RETURN JUMPDEST CALLVALUE DUP1 ISZERO PUSH2 0x53A JUMPI PUSH1 0x0 DUP1 REVERT JUMPDEST POP PUSH2 0x543 PUSH2 0x11AA JUMP JUMPDEST PUSH1 0x40 MLOAD PUSH2 0x550 SWAP2 SWAP1 PUSH2 0x19AA JUMP JUMPDEST PUSH1 0x40 MLOAD DUP1 SWAP2 SUB SWAP1 RETURN JUMPDEST CALLVALUE DUP1 ISZERO PUSH2 0x565 JUMPI PUSH1 0x0 DUP1 REVERT JUMPDEST POP PUSH2 0x56E PUSH2 0x11E3 JUMP JUMPDEST PUSH1 0x40 MLOAD PUSH2 0x57B SWAP2 SWAP1 PUSH2 0x1CB7 JUMP JUMPDEST PUSH1 0x40 MLOAD DUP1 SWAP2 SUB SWAP1 RETURN JUMPDEST CALLVALUE DUP1 ISZERO PUSH2 0x590 JUMPI PUSH1 0x0 DUP1 REVERT JUMPDEST POP PUSH2 0x5AB PUSH1 0x4 DUP1 CALLDATASIZE SUB DUP2 ADD SWAP1 PUSH2 0x5A6 SWAP2 SWAP1 PUSH2 0x1A5B JUMP JUMPDEST PUSH2 0x1209 JUMP JUMPDEST PUSH1 0x40 MLOAD PUSH2 0x5B8 SWAP2 SWAP1 PUSH2 0x1AB6 JUMP JUMPDEST PUSH1 0x40 MLOAD DUP1 SWAP2 SUB SWAP1 RETURN JUMPDEST CALLVALUE DUP1 ISZERO PUSH2 0x5CD JUMPI PUSH1 0x0 DUP1 REVERT JUMPDEST POP PUSH2 0x5E8 PUSH1 0x4 DUP1 CALLDATASIZE SUB DUP2 ADD SWAP1 PUSH2 0x5E3 SWAP2 SWAP1 PUSH2 0x1B9B JUMP JUMPDEST PUSH2 0x143D JUMP JUMPDEST PUSH1 0x40 MLOAD PUSH2 0x5F6 SWAP3 SWAP2 SWAP1 PUSH2 0x1CD2 JUMP JUMPDEST PUSH1 0x40 MLOAD DUP1 SWAP2 SUB SWAP1 RETURN JUMPDEST CALLVALUE DUP1 ISZERO PUSH2 0x60B JUMPI PUSH1 0x0 DUP1 REVERT JUMPDEST POP PUSH2 0x626 PUSH1 0x4 DUP1 CALLDATASIZE SUB DUP2 ADD SWAP1 PUSH2 0x621 SWAP2 SWAP1 PUSH2 0x1A5B JUMP JUMPDEST PUSH2 0x146E JUMP JUMPDEST PUSH1 0x40 MLOAD PUSH2 0x633 SWAP2 SWAP1 PUSH2 0x1AB6 JUMP JUMPDEST PUSH1 0x40 MLOAD DUP1 SWAP2 SUB SWAP1 RETURN JUMPDEST CALLVALUE DUP1 ISZERO PUSH2 0x648 JUMPI PUSH1 0x0 DUP1 REVERT JUMPDEST POP PUSH2 0x663 PUSH1 0x4 DUP1 CALLDATASIZE SUB DUP2 ADD SWAP1 PUSH2 0x65E SWAP2 SWAP1 PUSH2 0x1CFB JUMP JUMPDEST PUSH2 0x168E JUMP JUMPDEST PUSH1 0x40 MLOAD PUSH2 0x670 SWAP2 SWAP1 PUSH2 0x1910 JUMP JUMPDEST PUSH1 0x40 MLOAD DUP1 SWAP2 SUB SWAP1 RETURN JUMPDEST CALLVALUE DUP1 ISZERO PUSH2 0x685 JUMPI PUSH1 0x0 DUP1 REVERT JUMPDEST POP PUSH2 0x6A0 PUSH1 0x4 DUP1 CALLDATASIZE SUB DUP2 ADD SWAP1 PUSH2 0x69B SWAP2 SWAP1 PUSH2 0x1AD1 JUMP JUMPDEST PUSH2 0x16D0 JUMP JUMPDEST PUSH1 0x40 MLOAD PUSH2 0x6AD SWAP2 SWAP1 PUSH2 0x1910 JUMP JUMPDEST PUSH1 0x40 MLOAD DUP1 SWAP2 SUB SWAP1 RETURN JUMPDEST PUSH1 0x0 PUSH1 0x2 PUSH1 0x0 DUP4 PUSH20 0xFFFFFFFFFFFFFFFFFFFFFFFFFFFFFFFFFFFFFFFF AND PUSH20 0xFFFFFFFFFFFFFFFFFFFFFFFFFFFFFFFFFFFFFFFF AND DUP2 MSTORE PUSH1 0x20 ADD SWAP1 DUP2 MSTORE PUSH1 0x20 ADD PUSH1 0x0 KECCAK256 SLOAD SWAP1 POP SWAP2 SWAP1 POP JUMP JUMPDEST PUSH2 0x751 DUP2 PUSH1 0x2 PUSH1 0x0 DUP7 PUSH20 0xFFFFFFFFFFFFFFFFFFFFFFFFFFFFFFFFFFFFFFFF AND PUSH20 0xFFFFFFFFFFFFFFFFFFFFFFFFFFFFFFFFFFFFFFFF AND DUP2 MSTORE PUSH1 0x20 ADD SWAP1 DUP2 MSTORE PUSH1 0x20 ADD PUSH1 0x0 KECCAK256 SLOAD PUSH2 0x1757 SWAP1 SWAP2 SWAP1 PUSH4 0xFFFFFFFF AND JUMP JUMPDEST PUSH1 0x2 PUSH1 0x0 DUP6 PUSH20 0xFFFFFFFFFFFFFFFFFFFFFFFFFFFFFFFFFFFFFFFF AND PUSH20 0xFFFFFFFFFFFFFFFFFFFFFFFFFFFFFFFFFFFFFFFF AND DUP2 MSTORE PUSH1 0x20 ADD SWAP1 DUP2 MSTORE PUSH1 0x20 ADD PUSH1 0x0 KECCAK256 DUP2 SWAP1 SSTORE POP PUSH2 0x7E6 DUP2 PUSH1 0x2 PUSH1 0x0 DUP6 PUSH20 0xFFFFFFFFFFFFFFFFFFFFFFFFFFFFFFFFFFFFFFFF AND PUSH20 0xFFFFFFFFFFFFFFFFFFFFFFFFFFFFFFFFFFFFFFFF AND DUP2 MSTORE PUSH1 0x20 ADD SWAP1 DUP2 MSTORE PUSH1 0x20 ADD PUSH1 0x0 KECCAK256 SLOAD PUSH2 0x17B0 SWAP1 SWAP2 SWAP1 PUSH4 0xFFFFFFFF AND JUMP JUMPDEST PUSH1 0x2 PUSH1 0x0 DUP5 PUSH20 0xFFFFFFFFFFFFFFFFFFFFFFFFFFFFFFFFFFFFFFFF AND PUSH20 0xFFFFFFFFFFFFFFFFFFFFFFFFFFFFFFFFFFFFFFFF AND DUP2 MSTORE PUSH1 0x20 ADD SWAP1 DUP2 MSTORE PUSH1 0x20 ADD PUSH1 0x0 KECCAK256 DUP2 SWAP1 SSTORE POP DUP2 PUSH20 0xFFFFFFFFFFFFFFFFFFFFFFFFFFFFFFFFFFFFFFFF AND DUP4 PUSH20 0xFFFFFFFFFFFFFFFFFFFFFFFFFFFFFFFFFFFFFFFF AND PUSH32 0xDDF252AD1BE2C89B69C2B068FC378DAA952BA7F163C4A11628F55A4DF523B3EF DUP4 PUSH1 0x40 MLOAD PUSH2 0x886 SWAP2 SWAP1 PUSH2 0x1910 JUMP JUMPDEST PUSH1 0x40 MLOAD DUP1 SWAP2 SUB SWAP1 LOG3 POP POP POP JUMP JUMPDEST PUSH1 0x40 MLOAD DUP1 PUSH1 0x40 ADD PUSH1 0x40 MSTORE DUP1 PUSH1 0xB DUP2 MSTORE PUSH1 0x20 ADD PUSH32 0x427564677920546F6B656E000000000000000000000000000000000000000000 DUP2 MSTORE POP DUP2 JUMP JUMPDEST PUSH1 0x0 DUP1 PUSH20 0xFFFFFFFFFFFFFFFFFFFFFFFFFFFFFFFFFFFFFFFF AND DUP4 PUSH20 0xFFFFFFFFFFFFFFFFFFFFFFFFFFFFFFFFFFFFFFFF AND SUB PUSH2 0x906 JUMPI PUSH1 0x0 DUP1 REVERT JUMPDEST DUP2 PUSH1 0x3 PUSH1 0x0 CALLER PUSH20 0xFFFFFFFFFFFFFFFFFFFFFFFFFFFFFFFFFFFFFFFF AND PUSH20 0xFFFFFFFFFFFFFFFFFFFFFFFFFFFFFFFFFFFFFFFF AND DUP2 MSTORE PUSH1 0x20 ADD SWAP1 DUP2 MSTORE PUSH1 0x20 ADD PUSH1 0x0 KECCAK256 PUSH1 0x0 DUP6 PUSH20 0xFFFFFFFFFFFFFFFFFFFFFFFFFFFFFFFFFFFFFFFF AND PUSH20 0xFFFFFFFFFFFFFFFFFFFFFFFFFFFFFFFFFFFFFFFF AND DUP2 MSTORE PUSH1 0x20 ADD SWAP1 DUP2 MSTORE PUSH1 0x20 ADD PUSH1 0x0 KECCAK256 DUP2 SWAP1 SSTORE POP DUP3 PUSH20 0xFFFFFFFFFFFFFFFFFFFFFFFFFFFFFFFFFFFFFFFF AND CALLER PUSH20 0xFFFFFFFFFFFFFFFFFFFFFFFFFFFFFFFFFFFFFFFF AND PUSH32 0x8C5BE1E5EBEC7D5BD14F71427D1E84F3DD0314C0F7B2291E5B200AC8C7C3B925 DUP5 PUSH1 0x40 MLOAD PUSH2 0x9E4 SWAP2 SWAP1 PUSH2 0x1910 JUMP JUMPDEST PUSH1 0x40 MLOAD DUP1 SWAP2 SUB SWAP1 LOG3 PUSH1 0x1 SWAP1 POP SWAP3 SWAP2 POP POP JUMP JUMPDEST PUSH1 0x0 DUP1 PUSH1 0x1 DUP1 SLOAD SWAP1 POP SWAP1 POP DUP1 SWAP2 POP POP SWAP1 JUMP JUMPDEST PUSH1 0x0 PUSH8 0xDE0B6B3A7640000 SWAP1 POP SWAP1 JUMP JUMPDEST PUSH1 0x60 PUSH1 0x0 PUSH1 0x2 PUSH1 0x0 PUSH1 0x5 PUSH1 0x0 SWAP1 SLOAD SWAP1 PUSH2 0x100 EXP SWAP1 DIV PUSH20 0xFFFFFFFFFFFFFFFFFFFFFFFFFFFFFFFFFFFFFFFF AND PUSH20 0xFFFFFFFFFFFFFFFFFFFFFFFFFFFFFFFFFFFFFFFF AND PUSH20 0xFFFFFFFFFFFFFFFFFFFFFFFFFFFFFFFFFFFFFFFF AND DUP2 MSTORE PUSH1 0x20 ADD SWAP1 DUP2 MSTORE PUSH1 0x20 ADD PUSH1 0x0 KECCAK256 SLOAD SWAP1 POP PUSH1 0x0 PUSH2 0xA8A PUSH2 0x9F6 JUMP JUMPDEST SWAP1 POP PUSH1 0x0 PUSH1 0x5 DUP3 PUSH2 0xA9B SWAP2 SWAP1 PUSH2 0x1D57 JUMP JUMPDEST EQ DUP1 ISZERO PUSH2 0xAA9 JUMPI POP PUSH1 0x3 DUP3 LT ISZERO JUMPDEST ISZERO PUSH2 0xB2E JUMPI PUSH2 0xADC PUSH1 0x5 PUSH1 0x0 SWAP1 SLOAD SWAP1 PUSH2 0x100 EXP SWAP1 DIV PUSH20 0xFFFFFFFFFFFFFFFFFFFFFFFFFFFFFFFFFFFFFFFF AND DUP6 PUSH1 0x2 PUSH2 0xB52 JUMP JUMPDEST POP PUSH2 0xB0B PUSH1 0x5 PUSH1 0x0 SWAP1 SLOAD SWAP1 PUSH2 0x100 EXP SWAP1 DIV PUSH20 0xFFFFFFFFFFFFFFFFFFFFFFFFFFFFFFFFFFFFFFFF AND DUP7 PUSH1 0x1 PUSH2 0xB52 JUMP JUMPDEST POP PUSH1 0x40 MLOAD DUP1 PUSH1 0x80 ADD PUSH1 0x40 MSTORE DUP1 PUSH1 0x4D DUP2 MSTORE PUSH1 0x20 ADD PUSH2 0x1F6F PUSH1 0x4D SWAP2 CODECOPY SWAP3 POP POP POP PUSH2 0xB4C JUMP JUMPDEST PUSH1 0x40 MLOAD DUP1 PUSH1 0x60 ADD PUSH1 0x40 MSTORE DUP1 PUSH1 0x34 DUP2 MSTORE PUSH1 0x20 ADD PUSH2 0x1FBC PUSH1 0x34 SWAP2 CODECOPY SWAP3 POP POP POP JUMPDEST SWAP3 SWAP2 POP POP JUMP JUMPDEST PUSH1 0x0 PUSH1 0x2 PUSH1 0x0 DUP6 PUSH20 0xFFFFFFFFFFFFFFFFFFFFFFFFFFFFFFFFFFFFFFFF AND PUSH20 0xFFFFFFFFFFFFFFFFFFFFFFFFFFFFFFFFFFFFFFFF AND DUP2 MSTORE PUSH1 0x20 ADD SWAP1 DUP2 MSTORE PUSH1 0x20 ADD PUSH1 0x0 KECCAK256 SLOAD DUP3 GT ISZERO PUSH2 0xBA0 JUMPI PUSH1 0x0 DUP1 REVERT JUMPDEST PUSH1 0x3 PUSH1 0x0 DUP6 PUSH20 0xFFFFFFFFFFFFFFFFFFFFFFFFFFFFFFFFFFFFFFFF AND PUSH20 0xFFFFFFFFFFFFFFFFFFFFFFFFFFFFFFFFFFFFFFFF AND DUP2 MSTORE PUSH1 0x20 ADD SWAP1 DUP2 MSTORE PUSH1 0x20 ADD PUSH1 0x0 KECCAK256 PUSH1 0x0 CALLER PUSH20 0xFFFFFFFFFFFFFFFFFFFFFFFFFFFFFFFFFFFFFFFF AND PUSH20 0xFFFFFFFFFFFFFFFFFFFFFFFFFFFFFFFFFFFFFFFF AND DUP2 MSTORE PUSH1 0x20 ADD SWAP1 DUP2 MSTORE PUSH1 0x20 ADD PUSH1 0x0 KECCAK256 SLOAD DUP3 GT ISZERO PUSH2 0xC29 JUMPI PUSH1 0x0 DUP1 REVERT JUMPDEST PUSH1 0x0 PUSH20 0xFFFFFFFFFFFFFFFFFFFFFFFFFFFFFFFFFFFFFFFF AND DUP4 PUSH20 0xFFFFFFFFFFFFFFFFFFFFFFFFFFFFFFFFFFFFFFFF AND SUB PUSH2 0xC62 JUMPI PUSH1 0x0 DUP1 REVERT JUMPDEST PUSH2 0xCF1 DUP3 PUSH1 0x3 PUSH1 0x0 DUP8 PUSH20 0xFFFFFFFFFFFFFFFFFFFFFFFFFFFFFFFFFFFFFFFF AND PUSH20 0xFFFFFFFFFFFFFFFFFFFFFFFFFFFFFFFFFFFFFFFF AND DUP2 MSTORE PUSH1 0x20 ADD SWAP1 DUP2 MSTORE PUSH1 0x20 ADD PUSH1 0x0 KECCAK256 PUSH1 0x0 CALLER PUSH20 0xFFFFFFFFFFFFFFFFFFFFFFFFFFFFFFFFFFFFFFFF AND PUSH20 0xFFFFFFFFFFFFFFFFFFFFFFFFFFFFFFFFFFFFFFFF AND DUP2 MSTORE PUSH1 0x20 ADD SWAP1 DUP2 MSTORE PUSH1 0x20 ADD PUSH1 0x0 KECCAK256 SLOAD PUSH2 0x1757 SWAP1 SWAP2 SWAP1 PUSH4 0xFFFFFFFF AND JUMP JUMPDEST PUSH1 0x3 PUSH1 0x0 DUP7 PUSH20 0xFFFFFFFFFFFFFFFFFFFFFFFFFFFFFFFFFFFFFFFF AND PUSH20 0xFFFFFFFFFFFFFFFFFFFFFFFFFFFFFFFFFFFFFFFF AND DUP2 MSTORE PUSH1 0x20 ADD SWAP1 DUP2 MSTORE PUSH1 0x20 ADD PUSH1 0x0 KECCAK256 PUSH1 0x0 CALLER PUSH20 0xFFFFFFFFFFFFFFFFFFFFFFFFFFFFFFFFFFFFFFFF AND PUSH20 0xFFFFFFFFFFFFFFFFFFFFFFFFFFFFFFFFFFFFFFFF AND DUP2 MSTORE PUSH1 0x20 ADD SWAP1 DUP2 MSTORE PUSH1 0x20 ADD PUSH1 0x0 KECCAK256 DUP2 SWAP1 SSTORE POP PUSH2 0xD7C DUP5 DUP5 DUP5 PUSH2 0x6FF JUMP JUMPDEST PUSH1 0x1 SWAP1 POP SWAP4 SWAP3 POP POP POP JUMP JUMPDEST PUSH1 0xA DUP2 JUMP JUMPDEST PUSH1 0x0 DUP1 PUSH20 0xFFFFFFFFFFFFFFFFFFFFFFFFFFFFFFFFFFFFFFFF AND DUP4 PUSH20 0xFFFFFFFFFFFFFFFFFFFFFFFFFFFFFFFFFFFFFFFF AND SUB PUSH2 0xDC6 JUMPI PUSH1 0x0 DUP1 REVERT JUMPDEST PUSH2 0xE55 DUP3 PUSH1 0x3 PUSH1 0x0 CALLER PUSH20 0xFFFFFFFFFFFFFFFFFFFFFFFFFFFFFFFFFFFFFFFF AND PUSH20 0xFFFFFFFFFFFFFFFFFFFFFFFFFFFFFFFFFFFFFFFF AND DUP2 MSTORE PUSH1 0x20 ADD SWAP1 DUP2 MSTORE PUSH1 0x20 ADD PUSH1 0x0 KECCAK256 PUSH1 0x0 DUP7 PUSH20 0xFFFFFFFFFFFFFFFFFFFFFFFFFFFFFFFFFFFFFFFF AND PUSH20 0xFFFFFFFFFFFFFFFFFFFFFFFFFFFFFFFFFFFFFFFF AND DUP2 MSTORE PUSH1 0x20 ADD SWAP1 DUP2 MSTORE PUSH1 0x20 ADD PUSH1 0x0 KECCAK256 SLOAD PUSH2 0x17B0 SWAP1 SWAP2 SWAP1 PUSH4 0xFFFFFFFF AND JUMP JUMPDEST PUSH1 0x3 PUSH1 0x0 CALLER PUSH20 0xFFFFFFFFFFFFFFFFFFFFFFFFFFFFFFFFFFFFFFFF AND PUSH20 0xFFFFFFFFFFFFFFFFFFFFFFFFFFFFFFFFFFFFFFFF AND DUP2 MSTORE PUSH1 0x20 ADD SWAP1 DUP2 MSTORE PUSH1 0x20 ADD PUSH1 0x0 KECCAK256 PUSH1 0x0 DUP6 PUSH20 0xFFFFFFFFFFFFFFFFFFFFFFFFFFFFFFFFFFFFFFFF AND PUSH20 0xFFFFFFFFFFFFFFFFFFFFFFFFFFFFFFFFFFFFFFFF AND DUP2 MSTORE PUSH1 0x20 ADD SWAP1 DUP2 MSTORE PUSH1 0x20 ADD PUSH1 0x0 KECCAK256 DUP2 SWAP1 SSTORE POP DUP3 PUSH20 0xFFFFFFFFFFFFFFFFFFFFFFFFFFFFFFFFFFFFFFFF AND CALLER PUSH20 0xFFFFFFFFFFFFFFFFFFFFFFFFFFFFFFFFFFFFFFFF AND PUSH32 0x8C5BE1E5EBEC7D5BD14F71427D1E84F3DD0314C0F7B2291E5B200AC8C7C3B925 PUSH1 0x3 PUSH1 0x0 CALLER PUSH20 0xFFFFFFFFFFFFFFFFFFFFFFFFFFFFFFFFFFFFFFFF AND PUSH20 0xFFFFFFFFFFFFFFFFFFFFFFFFFFFFFFFFFFFFFFFF AND DUP2 MSTORE PUSH1 0x20 ADD SWAP1 DUP2 MSTORE PUSH1 0x20 ADD PUSH1 0x0 KECCAK256 PUSH1 0x0 DUP8 PUSH20 0xFFFFFFFFFFFFFFFFFFFFFFFFFFFFFFFFFFFFFFFF AND PUSH20 0xFFFFFFFFFFFFFFFFFFFFFFFFFFFFFFFFFFFFFFFF AND DUP2 MSTORE PUSH1 0x20 ADD SWAP1 DUP2 MSTORE PUSH1 0x20 ADD PUSH1 0x0 KECCAK256 SLOAD PUSH1 0x40 MLOAD PUSH2 0xFAE SWAP2 SWAP1 PUSH2 0x1910 JUMP JUMPDEST PUSH1 0x40 MLOAD DUP1 SWAP2 SUB SWAP1 LOG3 PUSH1 0x1 SWAP1 POP SWAP3 SWAP2 POP POP JUMP JUMPDEST PUSH8 0xDE0B6B3A7640000 DUP2 JUMP JUMPDEST PUSH1 0x0 SLOAD DUP2 JUMP JUMPDEST PUSH1 0x60 PUSH1 0x0 PUSH1 0x4 PUSH1 0x0 DUP6 PUSH20 0xFFFFFFFFFFFFFFFFFFFFFFFFFFFFFFFFFFFFFFFF AND PUSH20 0xFFFFFFFFFFFFFFFFFFFFFFFFFFFFFFFFFFFFFFFF AND DUP2 MSTORE PUSH1 0x20 ADD SWAP1 DUP2 MSTORE PUSH1 0x20 ADD PUSH1 0x0 KECCAK256 SWAP1 POP DUP1 PUSH1 0x1 ADD PUSH1 0x0 SWAP1 SLOAD SWAP1 PUSH2 0x100 EXP SWAP1 DIV PUSH1 0xFF AND ISZERO PUSH2 0x1033 JUMPI PUSH1 0x0 DUP1 REVERT JUMPDEST PUSH1 0x40 MLOAD DUP1 PUSH1 0x40 ADD PUSH1 0x40 MSTORE DUP1 DUP5 DUP2 MSTORE PUSH1 0x20 ADD PUSH1 0x1 ISZERO ISZERO DUP2 MSTORE POP PUSH1 0x4 PUSH1 0x0 DUP7 PUSH20 0xFFFFFFFFFFFFFFFFFFFFFFFFFFFFFFFFFFFFFFFF AND PUSH20 0xFFFFFFFFFFFFFFFFFFFFFFFFFFFFFFFFFFFFFFFF AND DUP2 MSTORE PUSH1 0x20 ADD SWAP1 DUP2 MSTORE PUSH1 0x20 ADD PUSH1 0x0 KECCAK256 PUSH1 0x0 DUP3 ADD MLOAD DUP2 PUSH1 0x0 ADD SSTORE PUSH1 0x20 DUP3 ADD MLOAD DUP2 PUSH1 0x1 ADD PUSH1 0x0 PUSH2 0x100 EXP DUP2 SLOAD DUP2 PUSH1 0xFF MUL NOT AND SWAP1 DUP4 ISZERO ISZERO MUL OR SWAP1 SSTORE POP SWAP1 POP POP PUSH1 0x1 DUP5 SWAP1 DUP1 PUSH1 0x1 DUP2 SLOAD ADD DUP1 DUP3 SSTORE DUP1 SWAP2 POP POP PUSH1 0x1 SWAP1 SUB SWAP1 PUSH1 0x0 MSTORE PUSH1 0x20 PUSH1 0x0 KECCAK256 ADD PUSH1 0x0 SWAP1 SWAP2 SWAP1 SWAP2 SWAP1 SWAP2 PUSH2 0x100 EXP DUP2 SLOAD DUP2 PUSH20 0xFFFFFFFFFFFFFFFFFFFFFFFFFFFFFFFFFFFFFFFF MUL NOT AND SWAP1 DUP4 PUSH20 0xFFFFFFFFFFFFFFFFFFFFFFFFFFFFFFFFFFFFFFFF AND MUL OR SWAP1 SSTORE POP PUSH1 0x1 DUP1 SLOAD DUP1 PUSH1 0x20 MUL PUSH1 0x20 ADD PUSH1 0x40 MLOAD SWAP1 DUP2 ADD PUSH1 0x40 MSTORE DUP1 SWAP3 SWAP2 SWAP1 DUP2 DUP2 MSTORE PUSH1 0x20 ADD DUP3 DUP1 SLOAD DUP1 ISZERO PUSH2 0x119C JUMPI PUSH1 0x20 MUL DUP3 ADD SWAP2 SWAP1 PUSH1 0x0 MSTORE PUSH1 0x20 PUSH1 0x0 KECCAK256 SWAP1 JUMPDEST DUP2 PUSH1 0x0 SWAP1 SLOAD SWAP1 PUSH2 0x100 EXP SWAP1 DIV PUSH20 0xFFFFFFFFFFFFFFFFFFFFFFFFFFFFFFFFFFFFFFFF AND PUSH20 0xFFFFFFFFFFFFFFFFFFFFFFFFFFFFFFFFFFFFFFFF AND DUP2 MSTORE PUSH1 0x20 ADD SWAP1 PUSH1 0x1 ADD SWAP1 DUP1 DUP4 GT PUSH2 0x1152 JUMPI JUMPDEST POP POP POP POP POP SWAP2 POP POP SWAP3 SWAP2 POP POP JUMP JUMPDEST PUSH1 0x40 MLOAD DUP1 PUSH1 0x40 ADD PUSH1 0x40 MSTORE DUP1 PUSH1 0x4 DUP2 MSTORE PUSH1 0x20 ADD PUSH32 0x4244475900000000000000000000000000000000000000000000000000000000 DUP2 MSTORE POP DUP2 JUMP JUMPDEST PUSH1 0x5 PUSH1 0x0 SWAP1 SLOAD SWAP1 PUSH2 0x100 EXP SWAP1 DIV PUSH20 0xFFFFFFFFFFFFFFFFFFFFFFFFFFFFFFFFFFFFFFFF AND DUP2 JUMP JUMPDEST PUSH1 0x0 DUP1 PUSH20 0xFFFFFFFFFFFFFFFFFFFFFFFFFFFFFFFFFFFFFFFF AND DUP4 PUSH20 0xFFFFFFFFFFFFFFFFFFFFFFFFFFFFFFFFFFFFFFFF AND SUB PUSH2 0x1243 JUMPI PUSH1 0x0 DUP1 REVERT JUMPDEST PUSH2 0x12D2 DUP3 PUSH1 0x3 PUSH1 0x0 CALLER PUSH20 0xFFFFFFFFFFFFFFFFFFFFFFFFFFFFFFFFFFFFFFFF AND PUSH20 0xFFFFFFFFFFFFFFFFFFFFFFFFFFFFFFFFFFFFFFFF AND DUP2 MSTORE PUSH1 0x20 ADD SWAP1 DUP2 MSTORE PUSH1 0x20 ADD PUSH1 0x0 KECCAK256 PUSH1 0x0 DUP7 PUSH20 0xFFFFFFFFFFFFFFFFFFFFFFFFFFFFFFFFFFFFFFFF AND PUSH20 0xFFFFFFFFFFFFFFFFFFFFFFFFFFFFFFFFFFFFFFFF AND DUP2 MSTORE PUSH1 0x20 ADD SWAP1 DUP2 MSTORE PUSH1 0x20 ADD PUSH1 0x0 KECCAK256 SLOAD PUSH2 0x1757 SWAP1 SWAP2 SWAP1 PUSH4 0xFFFFFFFF AND JUMP JUMPDEST PUSH1 0x3 PUSH1 0x0 CALLER PUSH20 0xFFFFFFFFFFFFFFFFFFFFFFFFFFFFFFFFFFFFFFFF AND PUSH20 0xFFFFFFFFFFFFFFFFFFFFFFFFFFFFFFFFFFFFFFFF AND DUP2 MSTORE PUSH1 0x20 ADD SWAP1 DUP2 MSTORE PUSH1 0x20 ADD PUSH1 0x0 KECCAK256 PUSH1 0x0 DUP6 PUSH20 0xFFFFFFFFFFFFFFFFFFFFFFFFFFFFFFFFFFFFFFFF AND PUSH20 0xFFFFFFFFFFFFFFFFFFFFFFFFFFFFFFFFFFFFFFFF AND DUP2 MSTORE PUSH1 0x20 ADD SWAP1 DUP2 MSTORE PUSH1 0x20 ADD PUSH1 0x0 KECCAK256 DUP2 SWAP1 SSTORE POP DUP3 PUSH20 0xFFFFFFFFFFFFFFFFFFFFFFFFFFFFFFFFFFFFFFFF AND CALLER PUSH20 0xFFFFFFFFFFFFFFFFFFFFFFFFFFFFFFFFFFFFFFFF AND PUSH32 0x8C5BE1E5EBEC7D5BD14F71427D1E84F3DD0314C0F7B2291E5B200AC8C7C3B925 PUSH1 0x3 PUSH1 0x0 CALLER PUSH20 0xFFFFFFFFFFFFFFFFFFFFFFFFFFFFFFFFFFFFFFFF AND PUSH20 0xFFFFFFFFFFFFFFFFFFFFFFFFFFFFFFFFFFFFFFFF AND DUP2 MSTORE PUSH1 0x20 ADD SWAP1 DUP2 MSTORE PUSH1 0x20 ADD PUSH1 0x0 KECCAK256 PUSH1 0x0 DUP8 PUSH20 0xFFFFFFFFFFFFFFFFFFFFFFFFFFFFFFFFFFFFFFFF AND PUSH20 0xFFFFFFFFFFFFFFFFFFFFFFFFFFFFFFFFFFFFFFFF AND DUP2 MSTORE PUSH1 0x20 ADD SWAP1 DUP2 MSTORE PUSH1 0x20 ADD PUSH1 0x0 KECCAK256 SLOAD PUSH1 0x40 MLOAD PUSH2 0x142B SWAP2 SWAP1 PUSH2 0x1910 JUMP JUMPDEST PUSH1 0x40 MLOAD DUP1 SWAP2 SUB SWAP1 LOG3 PUSH1 0x1 SWAP1 POP SWAP3 SWAP2 POP POP JUMP JUMPDEST PUSH1 0x4 PUSH1 0x20 MSTORE DUP1 PUSH1 0x0 MSTORE PUSH1 0x40 PUSH1 0x0 KECCAK256 PUSH1 0x0 SWAP2 POP SWAP1 POP DUP1 PUSH1 0x0 ADD SLOAD SWAP1 DUP1 PUSH1 0x1 ADD PUSH1 0x0 SWAP1 SLOAD SWAP1 PUSH2 0x100 EXP SWAP1 DIV PUSH1 0xFF AND SWAP1 POP DUP3 JUMP JUMPDEST PUSH1 0x0 PUSH1 0x2 PUSH1 0x0 CALLER PUSH20 0xFFFFFFFFFFFFFFFFFFFFFFFFFFFFFFFFFFFFFFFF AND PUSH20 0xFFFFFFFFFFFFFFFFFFFFFFFFFFFFFFFFFFFFFFFF AND DUP2 MSTORE PUSH1 0x20 ADD SWAP1 DUP2 MSTORE PUSH1 0x20 ADD PUSH1 0x0 KECCAK256 SLOAD DUP3 GT ISZERO PUSH2 0x14BC JUMPI PUSH1 0x0 DUP1 REVERT JUMPDEST PUSH1 0x0 PUSH20 0xFFFFFFFFFFFFFFFFFFFFFFFFFFFFFFFFFFFFFFFF AND DUP4 PUSH20 0xFFFFFFFFFFFFFFFFFFFFFFFFFFFFFFFFFFFFFFFF AND SUB PUSH2 0x14F5 JUMPI PUSH1 0x0 DUP1 REVERT JUMPDEST PUSH2 0x1547 DUP3 PUSH1 0x2 PUSH1 0x0 CALLER PUSH20 0xFFFFFFFFFFFFFFFFFFFFFFFFFFFFFFFFFFFFFFFF AND PUSH20 0xFFFFFFFFFFFFFFFFFFFFFFFFFFFFFFFFFFFFFFFF AND DUP2 MSTORE PUSH1 0x20 ADD SWAP1 DUP2 MSTORE PUSH1 0x20 ADD PUSH1 0x0 KECCAK256 SLOAD PUSH2 0x1757 SWAP1 SWAP2 SWAP1 PUSH4 0xFFFFFFFF AND JUMP JUMPDEST PUSH1 0x2 PUSH1 0x0 CALLER PUSH20 0xFFFFFFFFFFFFFFFFFFFFFFFFFFFFFFFFFFFFFFFF AND PUSH20 0xFFFFFFFFFFFFFFFFFFFFFFFFFFFFFFFFFFFFFFFF AND DUP2 MSTORE PUSH1 0x20 ADD SWAP1 DUP2 MSTORE PUSH1 0x20 ADD PUSH1 0x0 KECCAK256 DUP2 SWAP1 SSTORE POP PUSH2 0x15DC DUP3 PUSH1 0x2 PUSH1 0x0 DUP7 PUSH20 0xFFFFFFFFFFFFFFFFFFFFFFFFFFFFFFFFFFFFFFFF AND PUSH20 0xFFFFFFFFFFFFFFFFFFFFFFFFFFFFFFFFFFFFFFFF AND DUP2 MSTORE PUSH1 0x20 ADD SWAP1 DUP2 MSTORE PUSH1 0x20 ADD PUSH1 0x0 KECCAK256 SLOAD PUSH2 0x17B0 SWAP1 SWAP2 SWAP1 PUSH4 0xFFFFFFFF AND JUMP JUMPDEST PUSH1 0x2 PUSH1 0x0 DUP6 PUSH20 0xFFFFFFFFFFFFFFFFFFFFFFFFFFFFFFFFFFFFFFFF AND PUSH20 0xFFFFFFFFFFFFFFFFFFFFFFFFFFFFFFFFFFFFFFFF AND DUP2 MSTORE PUSH1 0x20 ADD SWAP1 DUP2 MSTORE PUSH1 0x20 ADD PUSH1 0x0 KECCAK256 DUP2 SWAP1 SSTORE POP DUP3 PUSH20 0xFFFFFFFFFFFFFFFFFFFFFFFFFFFFFFFFFFFFFFFF AND CALLER PUSH20 0xFFFFFFFFFFFFFFFFFFFFFFFFFFFFFFFFFFFFFFFF AND PUSH32 0xDDF252AD1BE2C89B69C2B068FC378DAA952BA7F163C4A11628F55A4DF523B3EF DUP5 PUSH1 0x40 MLOAD PUSH2 0x167C SWAP2 SWAP1 PUSH2 0x1910 JUMP JUMPDEST PUSH1 0x40 MLOAD DUP1 SWAP2 SUB SWAP1 LOG3 PUSH1 0x1 SWAP1 POP SWAP3 SWAP2 POP POP JUMP JUMPDEST PUSH1 0x0 DUP2 TIMESTAMP PREVRANDAO CALLER PUSH1 0x40 MLOAD PUSH1 0x20 ADD PUSH2 0x16A6 SWAP4 SWAP3 SWAP2 SWAP1 PUSH2 0x1DF1 JUMP JUMPDEST PUSH1 0x40 MLOAD PUSH1 0x20 DUP2 DUP4 SUB SUB DUP2 MSTORE SWAP1 PUSH1 0x40 MSTORE DUP1 MLOAD SWAP1 PUSH1 0x20 ADD KECCAK256 PUSH1 0x0 SHR PUSH2 0x16C9 SWAP2 SWAP1 PUSH2 0x1D57 JUMP JUMPDEST SWAP1 POP SWAP2 SWAP1 POP JUMP JUMPDEST PUSH1 0x0 PUSH1 0x3 PUSH1 0x0 DUP5 PUSH20 0xFFFFFFFFFFFFFFFFFFFFFFFFFFFFFFFFFFFFFFFF AND PUSH20 0xFFFFFFFFFFFFFFFFFFFFFFFFFFFFFFFFFFFFFFFF AND DUP2 MSTORE PUSH1 0x20 ADD SWAP1 DUP2 MSTORE PUSH1 0x20 ADD PUSH1 0x0 KECCAK256 PUSH1 0x0 DUP4 PUSH20 0xFFFFFFFFFFFFFFFFFFFFFFFFFFFFFFFFFFFFFFFF AND PUSH20 0xFFFFFFFFFFFFFFFFFFFFFFFFFFFFFFFFFFFFFFFF AND DUP2 MSTORE PUSH1 0x20 ADD SWAP1 DUP2 MSTORE PUSH1 0x20 ADD PUSH1 0x0 KECCAK256 SLOAD SWAP1 POP SWAP3 SWAP2 POP POP JUMP JUMPDEST PUSH1 0x0 DUP3 DUP3 DUP5 PUSH2 0x1766 SWAP2 SWAP1 PUSH2 0x1E2E JUMP JUMPDEST SWAP2 POP DUP2 GT ISZERO PUSH2 0x17AA JUMPI PUSH1 0x40 MLOAD PUSH32 0x8C379A000000000000000000000000000000000000000000000000000000000 DUP2 MSTORE PUSH1 0x4 ADD PUSH2 0x17A1 SWAP1 PUSH2 0x1EAE JUMP JUMPDEST PUSH1 0x40 MLOAD DUP1 SWAP2 SUB SWAP1 REVERT JUMPDEST SWAP3 SWAP2 POP POP JUMP JUMPDEST PUSH1 0x0 DUP3 DUP3 DUP5 PUSH2 0x17BF SWAP2 SWAP1 PUSH2 0x1ECE JUMP JUMPDEST SWAP2 POP DUP2 LT ISZERO PUSH2 0x1803 JUMPI PUSH1 0x40 MLOAD PUSH32 0x8C379A000000000000000000000000000000000000000000000000000000000 DUP2 MSTORE PUSH1 0x4 ADD PUSH2 0x17FA SWAP1 PUSH2 0x1F4E JUMP JUMPDEST PUSH1 0x40 MLOAD DUP1 SWAP2 SUB SWAP1 REVERT JUMPDEST SWAP3 SWAP2 POP POP JUMP JUMPDEST PUSH1 0x0 DUP2 SWAP1 POP SWAP2 SWAP1 POP JUMP JUMPDEST PUSH32 0x4E487B7100000000000000000000000000000000000000000000000000000000 PUSH1 0x0 MSTORE PUSH1 0x11 PUSH1 0x4 MSTORE PUSH1 0x24 PUSH1 0x0 REVERT JUMPDEST PUSH1 0x0 PUSH2 0x184D DUP3 PUSH2 0x1809 JUMP JUMPDEST SWAP2 POP PUSH2 0x1858 DUP4 PUSH2 0x1809 JUMP JUMPDEST SWAP3 POP DUP3 DUP3 MUL PUSH2 0x1866 DUP2 PUSH2 0x1809 JUMP JUMPDEST SWAP2 POP DUP3 DUP3 DIV DUP5 EQ DUP4 ISZERO OR PUSH2 0x187D JUMPI PUSH2 0x187C PUSH2 0x1813 JUMP JUMPDEST JUMPDEST POP SWAP3 SWAP2 POP POP JUMP JUMPDEST PUSH1 0x0 DUP3 DUP3 MSTORE PUSH1 0x20 DUP3 ADD SWAP1 POP SWAP3 SWAP2 POP POP JUMP JUMPDEST PUSH32 0x4E6F7420656E6F75676820746F6B656E73000000000000000000000000000000 PUSH1 0x0 DUP3 ADD MSTORE POP JUMP JUMPDEST PUSH1 0x0 PUSH2 0x18CB PUSH1 0x11 DUP4 PUSH2 0x1884 JUMP JUMPDEST SWAP2 POP PUSH2 0x18D6 DUP3 PUSH2 0x1895 JUMP JUMPDEST PUSH1 0x20 DUP3 ADD SWAP1 POP SWAP2 SWAP1 POP JUMP JUMPDEST PUSH1 0x0 PUSH1 0x20 DUP3 ADD SWAP1 POP DUP2 DUP2 SUB PUSH1 0x0 DUP4 ADD MSTORE PUSH2 0x18FA DUP2 PUSH2 0x18BE JUMP JUMPDEST SWAP1 POP SWAP2 SWAP1 POP JUMP JUMPDEST PUSH2 0x190A DUP2 PUSH2 0x1809 JUMP JUMPDEST DUP3 MSTORE POP POP JUMP JUMPDEST PUSH1 0x0 PUSH1 0x20 DUP3 ADD SWAP1 POP PUSH2 0x1925 PUSH1 0x0 DUP4 ADD DUP5 PUSH2 0x1901 JUMP JUMPDEST SWAP3 SWAP2 POP POP JUMP JUMPDEST PUSH1 0x0 DUP2 MLOAD SWAP1 POP SWAP2 SWAP1 POP JUMP JUMPDEST PUSH1 0x0 JUMPDEST DUP4 DUP2 LT ISZERO PUSH2 0x1954 JUMPI DUP1 DUP3 ADD MLOAD DUP2 DUP5 ADD MSTORE PUSH1 0x20 DUP2 ADD SWAP1 POP PUSH2 0x1939 JUMP JUMPDEST PUSH1 0x0 DUP5 DUP5 ADD MSTORE POP POP POP POP JUMP JUMPDEST PUSH1 0x0 PUSH1 0x1F NOT PUSH1 0x1F DUP4 ADD AND SWAP1 POP SWAP2 SWAP1 POP JUMP JUMPDEST PUSH1 0x0 PUSH2 0x197C DUP3 PUSH2 0x192B JUMP JUMPDEST PUSH2 0x1986 DUP2 DUP6 PUSH2 0x1884 JUMP JUMPDEST SWAP4 POP PUSH2 0x1996 DUP2 DUP6 PUSH1 0x20 DUP7 ADD PUSH2 0x1936 JUMP JUMPDEST PUSH2 0x199F DUP2 PUSH2 0x1960 JUMP JUMPDEST DUP5 ADD SWAP2 POP POP SWAP3 SWAP2 POP POP JUMP JUMPDEST PUSH1 0x0 PUSH1 0x20 DUP3 ADD SWAP1 POP DUP2 DUP2 SUB PUSH1 0x0 DUP4 ADD MSTORE PUSH2 0x19C4 DUP2 DUP5 PUSH2 0x1971 JUMP JUMPDEST SWAP1 POP SWAP3 SWAP2 POP POP JUMP JUMPDEST PUSH1 0x0 DUP1 REVERT JUMPDEST PUSH1 0x0 PUSH20 0xFFFFFFFFFFFFFFFFFFFFFFFFFFFFFFFFFFFFFFFF DUP3 AND SWAP1 POP SWAP2 SWAP1 POP JUMP JUMPDEST PUSH1 0x0 PUSH2 0x19FC DUP3 PUSH2 0x19D1 JUMP JUMPDEST SWAP1 POP SWAP2 SWAP1 POP JUMP JUMPDEST PUSH2 0x1A0C DUP2 PUSH2 0x19F1 JUMP JUMPDEST DUP2 EQ PUSH2 0x1A17 JUMPI PUSH1 0x0 DUP1 REVERT JUMPDEST POP JUMP JUMPDEST PUSH1 0x0 DUP2 CALLDATALOAD SWAP1 POP PUSH2 0x1A29 DUP2 PUSH2 0x1A03 JUMP JUMPDEST SWAP3 SWAP2 POP POP JUMP JUMPDEST PUSH2 0x1A38 DUP2 PUSH2 0x1809 JUMP JUMPDEST DUP2 EQ PUSH2 0x1A43 JUMPI PUSH1 0x0 DUP1 REVERT JUMPDEST POP JUMP JUMPDEST PUSH1 0x0 DUP2 CALLDATALOAD SWAP1 POP PUSH2 0x1A55 DUP2 PUSH2 0x1A2F JUMP JUMPDEST SWAP3 SWAP2 POP POP JUMP JUMPDEST PUSH1 0x0 DUP1 PUSH1 0x40 DUP4 DUP6 SUB SLT ISZERO PUSH2 0x1A72 JUMPI PUSH2 0x1A71 PUSH2 0x19CC JUMP JUMPDEST JUMPDEST PUSH1 0x0 PUSH2 0x1A80 DUP6 DUP3 DUP7 ADD PUSH2 0x1A1A JUMP JUMPDEST SWAP3 POP POP PUSH1 0x20 PUSH2 0x1A91 DUP6 DUP3 DUP7 ADD PUSH2 0x1A46 JUMP JUMPDEST SWAP2 POP POP SWAP3 POP SWAP3 SWAP1 POP JUMP JUMPDEST PUSH1 0x0 DUP2 ISZERO ISZERO SWAP1 POP SWAP2 SWAP1 POP JUMP JUMPDEST PUSH2 0x1AB0 DUP2 PUSH2 0x1A9B JUMP JUMPDEST DUP3 MSTORE POP POP JUMP JUMPDEST PUSH1 0x0 PUSH1 0x20 DUP3 ADD SWAP1 POP PUSH2 0x1ACB PUSH1 0x0 DUP4 ADD DUP5 PUSH2 0x1AA7 JUMP JUMPDEST SWAP3 SWAP2 POP POP JUMP JUMPDEST PUSH1 0x0 DUP1 PUSH1 0x40 DUP4 DUP6 SUB SLT ISZERO PUSH2 0x1AE8 JUMPI PUSH2 0x1AE7 PUSH2 0x19CC JUMP JUMPDEST JUMPDEST PUSH1 0x0 PUSH2 0x1AF6 DUP6 DUP3 DUP7 ADD PUSH2 0x1A1A JUMP JUMPDEST SWAP3 POP POP PUSH1 0x20 PUSH2 0x1B07 DUP6 DUP3 DUP7 ADD PUSH2 0x1A1A JUMP JUMPDEST SWAP2 POP POP SWAP3 POP SWAP3 SWAP1 POP JUMP JUMPDEST PUSH1 0x0 DUP1 PUSH1 0x0 PUSH1 0x60 DUP5 DUP7 SUB SLT ISZERO PUSH2 0x1B2A JUMPI PUSH2 0x1B29 PUSH2 0x19CC JUMP JUMPDEST JUMPDEST PUSH1 0x0 PUSH2 0x1B38 DUP7 DUP3 DUP8 ADD PUSH2 0x1A1A JUMP JUMPDEST SWAP4 POP POP PUSH1 0x20 PUSH2 0x1B49 DUP7 DUP3 DUP8 ADD PUSH2 0x1A1A JUMP JUMPDEST SWAP3 POP POP PUSH1 0x40 PUSH2 0x1B5A DUP7 DUP3 DUP8 ADD PUSH2 0x1A46 JUMP JUMPDEST SWAP2 POP POP SWAP3 POP SWAP3 POP SWAP3 JUMP JUMPDEST PUSH1 0x0 PUSH1 0xFF DUP3 AND SWAP1 POP SWAP2 SWAP1 POP JUMP JUMPDEST PUSH2 0x1B7A DUP2 PUSH2 0x1B64 JUMP JUMPDEST DUP3 MSTORE POP POP JUMP JUMPDEST PUSH1 0x0 PUSH1 0x20 DUP3 ADD SWAP1 POP PUSH2 0x1B95 PUSH1 0x0 DUP4 ADD DUP5 PUSH2 0x1B71 JUMP JUMPDEST SWAP3 SWAP2 POP POP JUMP JUMPDEST PUSH1 0x0 PUSH1 0x20 DUP3 DUP5 SUB SLT ISZERO PUSH2 0x1BB1 JUMPI PUSH2 0x1BB0 PUSH2 0x19CC JUMP JUMPDEST JUMPDEST PUSH1 0x0 PUSH2 0x1BBF DUP5 DUP3 DUP6 ADD PUSH2 0x1A1A JUMP JUMPDEST SWAP2 POP POP SWAP3 SWAP2 POP POP JUMP JUMPDEST PUSH1 0x0 DUP2 MLOAD SWAP1 POP SWAP2 SWAP1 POP JUMP JUMPDEST PUSH1 0x0 DUP3 DUP3 MSTORE PUSH1 0x20 DUP3 ADD SWAP1 POP SWAP3 SWAP2 POP POP JUMP JUMPDEST PUSH1 0x0 DUP2 SWAP1 POP PUSH1 0x20 DUP3 ADD SWAP1 POP SWAP2 SWAP1 POP JUMP JUMPDEST PUSH2 0x1BFD DUP2 PUSH2 0x19F1 JUMP JUMPDEST DUP3 MSTORE POP POP JUMP JUMPDEST PUSH1 0x0 PUSH2 0x1C0F DUP4 DUP4 PUSH2 0x1BF4 JUMP JUMPDEST PUSH1 0x20 DUP4 ADD SWAP1 POP SWAP3 SWAP2 POP POP JUMP JUMPDEST PUSH1 0x0 PUSH1 0x20 DUP3 ADD SWAP1 POP SWAP2 SWAP1 POP JUMP JUMPDEST PUSH1 0x0 PUSH2 0x1C33 DUP3 PUSH2 0x1BC8 JUMP JUMPDEST PUSH2 0x1C3D DUP2 DUP6 PUSH2 0x1BD3 JUMP JUMPDEST SWAP4 POP PUSH2 0x1C48 DUP4 PUSH2 0x1BE4 JUMP JUMPDEST DUP1 PUSH1 0x0 JUMPDEST DUP4 DUP2 LT ISZERO PUSH2 0x1C79 JUMPI DUP2 MLOAD PUSH2 0x1C60 DUP9 DUP3 PUSH2 0x1C03 JUMP JUMPDEST SWAP8 POP PUSH2 0x1C6B DUP4 PUSH2 0x1C1B JUMP JUMPDEST SWAP3 POP POP PUSH1 0x1 DUP2 ADD SWAP1 POP PUSH2 0x1C4C JUMP JUMPDEST POP DUP6 SWAP4 POP POP POP POP SWAP3 SWAP2 POP POP JUMP JUMPDEST PUSH1 0x0 PUSH1 0x20 DUP3 ADD SWAP1 POP DUP2 DUP2 SUB PUSH1 0x0 DUP4 ADD MSTORE PUSH2 0x1CA0 DUP2 DUP5 PUSH2 0x1C28 JUMP JUMPDEST SWAP1 POP SWAP3 SWAP2 POP POP JUMP JUMPDEST PUSH2 0x1CB1 DUP2 PUSH2 0x19F1 JUMP JUMPDEST DUP3 MSTORE POP POP JUMP JUMPDEST PUSH1 0x0 PUSH1 0x20 DUP3 ADD SWAP1 POP PUSH2 0x1CCC PUSH1 0x0 DUP4 ADD DUP5 PUSH2 0x1CA8 JUMP JUMPDEST SWAP3 SWAP2 POP POP JUMP JUMPDEST PUSH1 0x0 PUSH1 0x40 DUP3 ADD SWAP1 POP PUSH2 0x1CE7 PUSH1 0x0 DUP4 ADD DUP6 PUSH2 0x1901 JUMP JUMPDEST PUSH2 0x1CF4 PUSH1 0x20 DUP4 ADD DUP5 PUSH2 0x1AA7 JUMP JUMPDEST SWAP4 SWAP3 POP POP POP JUMP JUMPDEST PUSH1 0x0 PUSH1 0x20 DUP3 DUP5 SUB SLT ISZERO PUSH2 0x1D11 JUMPI PUSH2 0x1D10 PUSH2 0x19CC JUMP JUMPDEST JUMPDEST PUSH1 0x0 PUSH2 0x1D1F DUP5 DUP3 DUP6 ADD PUSH2 0x1A46 JUMP JUMPDEST SWAP2 POP POP SWAP3 SWAP2 POP POP JUMP JUMPDEST PUSH32 0x4E487B7100000000000000000000000000000000000000000000000000000000 PUSH1 0x0 MSTORE PUSH1 0x12 PUSH1 0x4 MSTORE PUSH1 0x24 PUSH1 0x0 REVERT JUMPDEST PUSH1 0x0 PUSH2 0x1D62 DUP3 PUSH2 0x1809 JUMP JUMPDEST SWAP2 POP PUSH2 0x1D6D DUP4 PUSH2 0x1809 JUMP JUMPDEST SWAP3 POP DUP3 PUSH2 0x1D7D JUMPI PUSH2 0x1D7C PUSH2 0x1D28 JUMP JUMPDEST JUMPDEST DUP3 DUP3 MOD SWAP1 POP SWAP3 SWAP2 POP POP JUMP JUMPDEST PUSH1 0x0 DUP2 SWAP1 POP SWAP2 SWAP1 POP JUMP JUMPDEST PUSH2 0x1DA3 PUSH2 0x1D9E DUP3 PUSH2 0x1809 JUMP JUMPDEST PUSH2 0x1D88 JUMP JUMPDEST DUP3 MSTORE POP POP JUMP JUMPDEST PUSH1 0x0 DUP2 PUSH1 0x60 SHL SWAP1 POP SWAP2 SWAP1 POP JUMP JUMPDEST PUSH1 0x0 PUSH2 0x1DC1 DUP3 PUSH2 0x1DA9 JUMP JUMPDEST SWAP1 POP SWAP2 SWAP1 POP JUMP JUMPDEST PUSH1 0x0 PUSH2 0x1DD3 DUP3 PUSH2 0x1DB6 JUMP JUMPDEST SWAP1 POP SWAP2 SWAP1 POP JUMP JUMPDEST PUSH2 0x1DEB PUSH2 0x1DE6 DUP3 PUSH2 0x19F1 JUMP JUMPDEST PUSH2 0x1DC8 JUMP JUMPDEST DUP3 MSTORE POP POP JUMP JUMPDEST PUSH1 0x0 PUSH2 0x1DFD DUP3 DUP7 PUSH2 0x1D92 JUMP JUMPDEST PUSH1 0x20 DUP3 ADD SWAP2 POP PUSH2 0x1E0D DUP3 DUP6 PUSH2 0x1D92 JUMP JUMPDEST PUSH1 0x20 DUP3 ADD SWAP2 POP PUSH2 0x1E1D DUP3 DUP5 PUSH2 0x1DDA JUMP JUMPDEST PUSH1 0x14 DUP3 ADD SWAP2 POP DUP2 SWAP1 POP SWAP5 SWAP4 POP POP POP POP JUMP JUMPDEST PUSH1 0x0 PUSH2 0x1E39 DUP3 PUSH2 0x1809 JUMP JUMPDEST SWAP2 POP PUSH2 0x1E44 DUP4 PUSH2 0x1809 JUMP JUMPDEST SWAP3 POP DUP3 DUP3 SUB SWAP1 POP DUP2 DUP2 GT ISZERO PUSH2 0x1E5C JUMPI PUSH2 0x1E5B PUSH2 0x1813 JUMP JUMPDEST JUMPDEST SWAP3 SWAP2 POP POP JUMP JUMPDEST PUSH32 0x64732D6D6174682D7375622D756E646572666C6F770000000000000000000000 PUSH1 0x0 DUP3 ADD MSTORE POP JUMP JUMPDEST PUSH1 0x0 PUSH2 0x1E98 PUSH1 0x15 DUP4 PUSH2 0x1884 JUMP JUMPDEST SWAP2 POP PUSH2 0x1EA3 DUP3 PUSH2 0x1E62 JUMP JUMPDEST PUSH1 0x20 DUP3 ADD SWAP1 POP SWAP2 SWAP1 POP JUMP JUMPDEST PUSH1 0x0 PUSH1 0x20 DUP3 ADD SWAP1 POP DUP2 DUP2 SUB PUSH1 0x0 DUP4 ADD MSTORE PUSH2 0x1EC7 DUP2 PUSH2 0x1E8B JUMP JUMPDEST SWAP1 POP SWAP2 SWAP1 POP JUMP JUMPDEST PUSH1 0x0 PUSH2 0x1ED9 DUP3 PUSH2 0x1809 JUMP JUMPDEST SWAP2 POP PUSH2 0x1EE4 DUP4 PUSH2 0x1809 JUMP JUMPDEST SWAP3 POP DUP3 DUP3 ADD SWAP1 POP DUP1 DUP3 GT ISZERO PUSH2 0x1EFC JUMPI PUSH2 0x1EFB PUSH2 0x1813 JUMP JUMPDEST JUMPDEST SWAP3 SWAP2 POP POP JUMP JUMPDEST PUSH32 0x64732D6D6174682D6164642D6F766572666C6F77000000000000000000000000 PUSH1 0x0 DUP3 ADD MSTORE POP JUMP JUMPDEST PUSH1 0x0 PUSH2 0x1F38 PUSH1 0x14 DUP4 PUSH2 0x1884 JUMP JUMPDEST SWAP2 POP PUSH2 0x1F43 DUP3 PUSH2 0x1F02 JUMP JUMPDEST PUSH1 0x20 DUP3 ADD SWAP1 POP SWAP2 SWAP1 POP JUMP JUMPDEST PUSH1 0x0 PUSH1 0x20 DUP3 ADD SWAP1 POP DUP2 DUP2 SUB PUSH1 0x0 DUP4 ADD MSTORE PUSH2 0x1F67 DUP2 PUSH2 0x1F2B JUMP JUMPDEST SWAP1 POP SWAP2 SWAP1 POP JUMP INVALID MSIZE PUSH16 0x75206861766520756E6C6F636B656420 PUSH21 0x686520736563726574206D6573736167652E205468 PUSH6 0x207365637265 PUSH21 0x20746F2068617070696E6573732061726520626972 PUSH5 0x2073656564 PUSH20 0x2E536F7272792C20626574746572206C75636B20 PUSH15 0x6578742074696D652067657474696E PUSH8 0x20696E746F206F75 PUSH19 0x20666C6F636B21A26469706673582212206AE5 SWAP12 DUP2 0xF7 GASLIMIT LOG4 0x5C GASLIMIT 0xAA 0xAD 0xCF PUSH6 0xCFD27E65736 ADDMOD 0xCA 0xC5 CALLER 0xEB 0xA5 SLT PUSH13 0x75E277008864736F6C63430008 SGT STOP CALLER "
				},
				"gasEstimates": {
					"creation": {
						"codeDepositCost": "1645800",
						"executionCost": "76542",
						"totalCost": "1722342"
					},
					"external": {
						"VIPOnly(address,address)": "infinite",
						"_totalSupply()": "440",
						"allowance(address,address)": "infinite",
						"approve(address,uint256)": "infinite",
						"array_length()": "2526",
						"balanceOf(address)": "2886",
						"createUser(address,uint256)": "infinite",
						"decimals()": "402",
						"decreaseAllowance(address,uint256)": "infinite",
						"increaseAllowance(address,uint256)": "infinite",
						"name()": "infinite",
						"randomGenerator(uint256)": "infinite",
						"symbol()": "infinite",
						"tokenOwner()": "2625",
						"totalSupply()": "427",
						"transfer(address,uint256)": "infinite",
						"transferFrom(address,address,uint256)": "infinite",
						"unitsOneEthCanBuy()": "2452",
						"users(address)": "5126"
					},
					"internal": {
						"_transfer(address,address,uint256)": "infinite"
					}
				},
				"methodIdentifiers": {
					"VIPOnly(address,address)": "1e8d2299",
					"_totalSupply()": "3eaaf86b",
					"allowance(address,address)": "dd62ed3e",
					"approve(address,uint256)": "095ea7b3",
					"array_length()": "0cc008bd",
					"balanceOf(address)": "70a08231",
					"createUser(address,uint256)": "93dfc8eb",
					"decimals()": "313ce567",
					"decreaseAllowance(address,uint256)": "a457c2d7",
					"increaseAllowance(address,uint256)": "39509351",
					"name()": "06fdde03",
					"randomGenerator(uint256)": "acdda499",
					"symbol()": "95d89b41",
					"tokenOwner()": "a3e67610",
					"totalSupply()": "18160ddd",
					"transfer(address,uint256)": "a9059cbb",
					"transferFrom(address,address,uint256)": "23b872dd",
					"unitsOneEthCanBuy()": "65f2bc2e",
					"users(address)": "a87430ba"
				}
			},
			"storageLayout": {
				"storage": [
					{
						"astId": 36,
						"contract": "budgyToken_v2.sol:BudgyToken",
						"label": "unitsOneEthCanBuy",
						"offset": 0,
						"slot": "0",
						"type": "t_uint256"
					},
					{
						"astId": 39,
						"contract": "budgyToken_v2.sol:BudgyToken",
						"label": "userIDs",
						"offset": 0,
						"slot": "1",
						"type": "t_array(t_address)dyn_storage"
					},
					{
						"astId": 43,
						"contract": "budgyToken_v2.sol:BudgyToken",
						"label": "_balances",
						"offset": 0,
						"slot": "2",
						"type": "t_mapping(t_address,t_uint256)"
					},
					{
						"astId": 49,
						"contract": "budgyToken_v2.sol:BudgyToken",
						"label": "_allowed",
						"offset": 0,
						"slot": "3",
						"type": "t_mapping(t_address,t_mapping(t_address,t_uint256))"
					},
					{
						"astId": 54,
						"contract": "budgyToken_v2.sol:BudgyToken",
						"label": "users",
						"offset": 0,
						"slot": "4",
						"type": "t_mapping(t_address,t_struct(User)8_storage)"
					},
					{
						"astId": 56,
						"contract": "budgyToken_v2.sol:BudgyToken",
						"label": "tokenOwner",
						"offset": 0,
						"slot": "5",
						"type": "t_address"
					}
				],
				"types": {
					"t_address": {
						"encoding": "inplace",
						"label": "address",
						"numberOfBytes": "20"
					},
					"t_array(t_address)dyn_storage": {
						"base": "t_address",
						"encoding": "dynamic_array",
						"label": "address[]",
						"numberOfBytes": "32"
					},
					"t_bool": {
						"encoding": "inplace",
						"label": "bool",
						"numberOfBytes": "1"
					},
					"t_mapping(t_address,t_mapping(t_address,t_uint256))": {
						"encoding": "mapping",
						"key": "t_address",
						"label": "mapping(address => mapping(address => uint256))",
						"numberOfBytes": "32",
						"value": "t_mapping(t_address,t_uint256)"
					},
					"t_mapping(t_address,t_struct(User)8_storage)": {
						"encoding": "mapping",
						"key": "t_address",
						"label": "mapping(address => struct User)",
						"numberOfBytes": "32",
						"value": "t_struct(User)8_storage"
					},
					"t_mapping(t_address,t_uint256)": {
						"encoding": "mapping",
						"key": "t_address",
						"label": "mapping(address => uint256)",
						"numberOfBytes": "32",
						"value": "t_uint256"
					},
					"t_struct(User)8_storage": {
						"encoding": "inplace",
						"label": "struct User",
						"members": [
							{
								"astId": 5,
								"contract": "budgyToken_v2.sol:BudgyToken",
								"label": "id",
								"offset": 0,
								"slot": "0",
								"type": "t_uint256"
							},
							{
								"astId": 7,
								"contract": "budgyToken_v2.sol:BudgyToken",
								"label": "set",
								"offset": 0,
								"slot": "1",
								"type": "t_bool"
							}
						],
						"numberOfBytes": "64"
					},
					"t_uint256": {
						"encoding": "inplace",
						"label": "uint256",
						"numberOfBytes": "32"
					}
				}
			},
			"userdoc": {
				"kind": "user",
				"methods": {
					"allowance(address,address)": {
						"notice": "Function to check the amount of tokens that an owner allowed to a spender."
					}
				},
				"version": 1
			}
		}
	}
}